{"abi":[{"inputs":[{"internalType":"uint256","name":"minimum","type":"uint256"},{"internalType":"address","name":"creator","type":"address"},{"internalType":"string","name":"title","type":"string"},{"internalType":"string","name":"description","type":"string"}],"stateMutability":"nonpayable","type":"constructor"},{"inputs":[{"internalType":"uint256","name":"index","type":"uint256"}],"name":"approveRequest","outputs":[],"stateMutability":"nonpayable","type":"function"},{"inputs":[{"internalType":"uint256","name":"","type":"uint256"},{"internalType":"address","name":"","type":"address"}],"name":"approvedAddresses","outputs":[{"internalType":"bool","name":"","type":"bool"}],"stateMutability":"view","type":"function"},{"inputs":[{"internalType":"address","name":"","type":"address"}],"name":"approvers","outputs":[{"internalType":"bool","name":"","type":"bool"}],"stateMutability":"view","type":"function"},{"inputs":[],"name":"approversCount","outputs":[{"internalType":"uint256","name":"","type":"uint256"}],"stateMutability":"view","type":"function"},{"inputs":[],"name":"campaignDescription","outputs":[{"internalType":"string","name":"","type":"string"}],"stateMutability":"view","type":"function"},{"inputs":[],"name":"campaignTitle","outputs":[{"internalType":"string","name":"","type":"string"}],"stateMutability":"view","type":"function"},{"inputs":[],"name":"contribute","outputs":[],"stateMutability":"payable","type":"function"},{"inputs":[{"internalType":"string","name":"description","type":"string"},{"internalType":"uint256","name":"value","type":"uint256"},{"internalType":"address payable","name":"recipient","type":"address"}],"name":"createRequest","outputs":[],"stateMutability":"nonpayable","type":"function"},{"inputs":[{"internalType":"uint256","name":"index","type":"uint256"}],"name":"finalizeRequest","outputs":[],"stateMutability":"nonpayable","type":"function"},{"inputs":[],"name":"getDetails","outputs":[{"internalType":"string","name":"title","type":"string"},{"internalType":"string","name":"description","type":"string"},{"internalType":"uint256","name":"minimumContributionAmount","type":"uint256"},{"internalType":"uint256","name":"balance","type":"uint256"},{"internalType":"address","name":"managerAddress","type":"address"}],"stateMutability":"view","type":"function"},{"inputs":[],"name":"getRequestsCount","outputs":[{"internalType":"uint256","name":"","type":"uint256"}],"stateMutability":"view","type":"function"},{"inputs":[],"name":"getSummary","outputs":[{"internalType":"uint256","name":"","type":"uint256"},{"internalType":"uint256","name":"","type":"uint256"},{"internalType":"uint256","name":"","type":"uint256"},{"internalType":"uint256","name":"","type":"uint256"},{"internalType":"address","name":"","type":"address"}],"stateMutability":"view","type":"function"},{"inputs":[],"name":"manager","outputs":[{"internalType":"address","name":"","type":"address"}],"stateMutability":"view","type":"function"},{"inputs":[],"name":"minimumContribution","outputs":[{"internalType":"uint256","name":"","type":"uint256"}],"stateMutability":"view","type":"function"},{"inputs":[{"internalType":"uint256","name":"","type":"uint256"}],"name":"requests","outputs":[{"internalType":"string","name":"description","type":"string"},{"internalType":"uint256","name":"value","type":"uint256"},{"internalType":"address payable","name":"recipient","type":"address"},{"internalType":"bool","name":"complete","type":"bool"},{"internalType":"uint256","name":"approvalCount","type":"uint256"}],"stateMutability":"view","type":"function"}],"devdoc":{"kind":"dev","methods":{},"version":1},"evm":{"assembly":"    /* \"Campaign.sol\":495:3448  contract Campaign {... */\n  mstore(0x40, 0x80)\n    /* \"Campaign.sol\":1133:1371  constructor(uint minimum, address creator, string memory title, string memory description) {... */\n  callvalue\n  dup1\n  iszero\n  tag_1\n  jumpi\n  0x00\n  dup1\n  revert\ntag_1:\n  pop\n  mload(0x40)\n  sub(codesize, bytecodeSize)\n  dup1\n  bytecodeSize\n  dup4\n  codecopy\n  dup2\n  dup2\n  add\n  0x40\n  mstore\n  dup2\n  add\n  swap1\n  tag_2\n  swap2\n  swap1\n  tag_3\n  jump\t// in\ntag_2:\n    /* \"Campaign.sol\":1244:1251  creator */\n  dup3\n    /* \"Campaign.sol\":1234:1241  manager */\n  0x00\n  dup1\n    /* \"Campaign.sol\":1234:1251  manager = creator */\n  0x0100\n  exp\n  dup2\n  sload\n  dup2\n  0xffffffffffffffffffffffffffffffffffffffff\n  mul\n  not\n  and\n  swap1\n  dup4\n  0xffffffffffffffffffffffffffffffffffffffff\n  and\n  mul\n  or\n  swap1\n  sstore\n  pop\n    /* \"Campaign.sol\":1283:1290  minimum */\n  dup4\n    /* \"Campaign.sol\":1261:1280  minimumContribution */\n  0x03\n    /* \"Campaign.sol\":1261:1290  minimumContribution = minimum */\n  dup2\n  swap1\n  sstore\n  pop\n    /* \"Campaign.sol\":1316:1321  title */\n  dup2\n    /* \"Campaign.sol\":1300:1313  campaignTitle */\n  0x01\n    /* \"Campaign.sol\":1300:1321  campaignTitle = title */\n  swap1\n  dup2\n  tag_6\n  swap2\n  swap1\n  tag_7\n  jump\t// in\ntag_6:\n  pop\n    /* \"Campaign.sol\":1353:1364  description */\n  dup1\n    /* \"Campaign.sol\":1331:1350  campaignDescription */\n  0x02\n    /* \"Campaign.sol\":1331:1364  campaignDescription = description */\n  swap1\n  dup2\n  tag_8\n  swap2\n  swap1\n  tag_7\n  jump\t// in\ntag_8:\n  pop\n    /* \"Campaign.sol\":1133:1371  constructor(uint minimum, address creator, string memory title, string memory description) {... */\n  pop\n  pop\n  pop\n  pop\n    /* \"Campaign.sol\":495:3448  contract Campaign {... */\n  jump(tag_9)\n    /* \"#utility.yul\":7:82   */\ntag_10:\n    /* \"#utility.yul\":40:46   */\n  0x00\n    /* \"#utility.yul\":73:75   */\n  0x40\n    /* \"#utility.yul\":67:76   */\n  mload\n    /* \"#utility.yul\":57:76   */\n  swap1\n  pop\n    /* \"#utility.yul\":7:82   */\n  swap1\n  jump\t// out\n    /* \"#utility.yul\":88:205   */\ntag_11:\n    /* \"#utility.yul\":197:198   */\n  0x00\n    /* \"#utility.yul\":194:195   */\n  dup1\n    /* \"#utility.yul\":187:199   */\n  revert\n    /* \"#utility.yul\":211:328   */\ntag_12:\n    /* \"#utility.yul\":320:321   */\n  0x00\n    /* \"#utility.yul\":317:318   */\n  dup1\n    /* \"#utility.yul\":310:322   */\n  revert\n    /* \"#utility.yul\":334:411   */\ntag_13:\n    /* \"#utility.yul\":371:378   */\n  0x00\n    /* \"#utility.yul\":400:405   */\n  dup2\n    /* \"#utility.yul\":389:405   */\n  swap1\n  pop\n    /* \"#utility.yul\":334:411   */\n  swap2\n  swap1\n  pop\n  jump\t// out\n    /* \"#utility.yul\":417:539   */\ntag_14:\n    /* \"#utility.yul\":490:514   */\n  tag_54\n    /* \"#utility.yul\":508:513   */\n  dup2\n    /* \"#utility.yul\":490:514   */\n  tag_13\n  jump\t// in\ntag_54:\n    /* \"#utility.yul\":483:488   */\n  dup2\n    /* \"#utility.yul\":480:515   */\n  eq\n    /* \"#utility.yul\":470:533   */\n  tag_55\n  jumpi\n    /* \"#utility.yul\":529:530   */\n  0x00\n    /* \"#utility.yul\":526:527   */\n  dup1\n    /* \"#utility.yul\":519:531   */\n  revert\n    /* \"#utility.yul\":470:533   */\ntag_55:\n    /* \"#utility.yul\":417:539   */\n  pop\n  jump\t// out\n    /* \"#utility.yul\":545:688   */\ntag_15:\n    /* \"#utility.yul\":602:607   */\n  0x00\n    /* \"#utility.yul\":633:639   */\n  dup2\n    /* \"#utility.yul\":627:640   */\n  mload\n    /* \"#utility.yul\":618:640   */\n  swap1\n  pop\n    /* \"#utility.yul\":649:682   */\n  tag_57\n    /* \"#utility.yul\":676:681   */\n  dup2\n    /* \"#utility.yul\":649:682   */\n  tag_14\n  jump\t// in\ntag_57:\n    /* \"#utility.yul\":545:688   */\n  swap3\n  swap2\n  pop\n  pop\n  jump\t// out\n    /* \"#utility.yul\":694:820   */\ntag_16:\n    /* \"#utility.yul\":731:738   */\n  0x00\n    /* \"#utility.yul\":771:813   */\n  0xffffffffffffffffffffffffffffffffffffffff\n    /* \"#utility.yul\":764:769   */\n  dup3\n    /* \"#utility.yul\":760:814   */\n  and\n    /* \"#utility.yul\":749:814   */\n  swap1\n  pop\n    /* \"#utility.yul\":694:820   */\n  swap2\n  swap1\n  pop\n  jump\t// out\n    /* \"#utility.yul\":826:922   */\ntag_17:\n    /* \"#utility.yul\":863:870   */\n  0x00\n    /* \"#utility.yul\":892:916   */\n  tag_60\n    /* \"#utility.yul\":910:915   */\n  dup3\n    /* \"#utility.yul\":892:916   */\n  tag_16\n  jump\t// in\ntag_60:\n    /* \"#utility.yul\":881:916   */\n  swap1\n  pop\n    /* \"#utility.yul\":826:922   */\n  swap2\n  swap1\n  pop\n  jump\t// out\n    /* \"#utility.yul\":928:1050   */\ntag_18:\n    /* \"#utility.yul\":1001:1025   */\n  tag_62\n    /* \"#utility.yul\":1019:1024   */\n  dup2\n    /* \"#utility.yul\":1001:1025   */\n  tag_17\n  jump\t// in\ntag_62:\n    /* \"#utility.yul\":994:999   */\n  dup2\n    /* \"#utility.yul\":991:1026   */\n  eq\n    /* \"#utility.yul\":981:1044   */\n  tag_63\n  jumpi\n    /* \"#utility.yul\":1040:1041   */\n  0x00\n    /* \"#utility.yul\":1037:1038   */\n  dup1\n    /* \"#utility.yul\":1030:1042   */\n  revert\n    /* \"#utility.yul\":981:1044   */\ntag_63:\n    /* \"#utility.yul\":928:1050   */\n  pop\n  jump\t// out\n    /* \"#utility.yul\":1056:1199   */\ntag_19:\n    /* \"#utility.yul\":1113:1118   */\n  0x00\n    /* \"#utility.yul\":1144:1150   */\n  dup2\n    /* \"#utility.yul\":1138:1151   */\n  mload\n    /* \"#utility.yul\":1129:1151   */\n  swap1\n  pop\n    /* \"#utility.yul\":1160:1193   */\n  tag_65\n    /* \"#utility.yul\":1187:1192   */\n  dup2\n    /* \"#utility.yul\":1160:1193   */\n  tag_18\n  jump\t// in\ntag_65:\n    /* \"#utility.yul\":1056:1199   */\n  swap3\n  swap2\n  pop\n  pop\n  jump\t// out\n    /* \"#utility.yul\":1205:1322   */\ntag_20:\n    /* \"#utility.yul\":1314:1315   */\n  0x00\n    /* \"#utility.yul\":1311:1312   */\n  dup1\n    /* \"#utility.yul\":1304:1316   */\n  revert\n    /* \"#utility.yul\":1328:1445   */\ntag_21:\n    /* \"#utility.yul\":1437:1438   */\n  0x00\n    /* \"#utility.yul\":1434:1435   */\n  dup1\n    /* \"#utility.yul\":1427:1439   */\n  revert\n    /* \"#utility.yul\":1451:1553   */\ntag_22:\n    /* \"#utility.yul\":1492:1498   */\n  0x00\n    /* \"#utility.yul\":1543:1545   */\n  0x1f\n    /* \"#utility.yul\":1539:1546   */\n  not\n    /* \"#utility.yul\":1534:1536   */\n  0x1f\n    /* \"#utility.yul\":1527:1532   */\n  dup4\n    /* \"#utility.yul\":1523:1537   */\n  add\n    /* \"#utility.yul\":1519:1547   */\n  and\n    /* \"#utility.yul\":1509:1547   */\n  swap1\n  pop\n    /* \"#utility.yul\":1451:1553   */\n  swap2\n  swap1\n  pop\n  jump\t// out\n    /* \"#utility.yul\":1559:1739   */\ntag_23:\n    /* \"#utility.yul\":1607:1684   */\n  0x4e487b7100000000000000000000000000000000000000000000000000000000\n    /* \"#utility.yul\":1604:1605   */\n  0x00\n    /* \"#utility.yul\":1597:1685   */\n  mstore\n    /* \"#utility.yul\":1704:1708   */\n  0x41\n    /* \"#utility.yul\":1701:1702   */\n  0x04\n    /* \"#utility.yul\":1694:1709   */\n  mstore\n    /* \"#utility.yul\":1728:1732   */\n  0x24\n    /* \"#utility.yul\":1725:1726   */\n  0x00\n    /* \"#utility.yul\":1718:1733   */\n  revert\n    /* \"#utility.yul\":1745:2026   */\ntag_24:\n    /* \"#utility.yul\":1828:1855   */\n  tag_71\n    /* \"#utility.yul\":1850:1854   */\n  dup3\n    /* \"#utility.yul\":1828:1855   */\n  tag_22\n  jump\t// in\ntag_71:\n    /* \"#utility.yul\":1820:1826   */\n  dup2\n    /* \"#utility.yul\":1816:1856   */\n  add\n    /* \"#utility.yul\":1958:1964   */\n  dup2\n    /* \"#utility.yul\":1946:1956   */\n  dup2\n    /* \"#utility.yul\":1943:1965   */\n  lt\n    /* \"#utility.yul\":1922:1940   */\n  0xffffffffffffffff\n    /* \"#utility.yul\":1910:1920   */\n  dup3\n    /* \"#utility.yul\":1907:1941   */\n  gt\n    /* \"#utility.yul\":1904:1966   */\n  or\n    /* \"#utility.yul\":1901:1989   */\n  iszero\n  tag_72\n  jumpi\n    /* \"#utility.yul\":1969:1987   */\n  tag_73\n  tag_23\n  jump\t// in\ntag_73:\n    /* \"#utility.yul\":1901:1989   */\ntag_72:\n    /* \"#utility.yul\":2009:2019   */\n  dup1\n    /* \"#utility.yul\":2005:2007   */\n  0x40\n    /* \"#utility.yul\":1998:2020   */\n  mstore\n    /* \"#utility.yul\":1788:2026   */\n  pop\n    /* \"#utility.yul\":1745:2026   */\n  pop\n  pop\n  jump\t// out\n    /* \"#utility.yul\":2032:2161   */\ntag_25:\n    /* \"#utility.yul\":2066:2072   */\n  0x00\n    /* \"#utility.yul\":2093:2113   */\n  tag_75\n  tag_10\n  jump\t// in\ntag_75:\n    /* \"#utility.yul\":2083:2113   */\n  swap1\n  pop\n    /* \"#utility.yul\":2122:2155   */\n  tag_76\n    /* \"#utility.yul\":2150:2154   */\n  dup3\n    /* \"#utility.yul\":2142:2148   */\n  dup3\n    /* \"#utility.yul\":2122:2155   */\n  tag_24\n  jump\t// in\ntag_76:\n    /* \"#utility.yul\":2032:2161   */\n  swap2\n  swap1\n  pop\n  jump\t// out\n    /* \"#utility.yul\":2167:2475   */\ntag_26:\n    /* \"#utility.yul\":2229:2233   */\n  0x00\n    /* \"#utility.yul\":2319:2337   */\n  0xffffffffffffffff\n    /* \"#utility.yul\":2311:2317   */\n  dup3\n    /* \"#utility.yul\":2308:2338   */\n  gt\n    /* \"#utility.yul\":2305:2361   */\n  iszero\n  tag_78\n  jumpi\n    /* \"#utility.yul\":2341:2359   */\n  tag_79\n  tag_23\n  jump\t// in\ntag_79:\n    /* \"#utility.yul\":2305:2361   */\ntag_78:\n    /* \"#utility.yul\":2379:2408   */\n  tag_80\n    /* \"#utility.yul\":2401:2407   */\n  dup3\n    /* \"#utility.yul\":2379:2408   */\n  tag_22\n  jump\t// in\ntag_80:\n    /* \"#utility.yul\":2371:2408   */\n  swap1\n  pop\n    /* \"#utility.yul\":2463:2467   */\n  0x20\n    /* \"#utility.yul\":2457:2461   */\n  dup2\n    /* \"#utility.yul\":2453:2468   */\n  add\n    /* \"#utility.yul\":2445:2468   */\n  swap1\n  pop\n    /* \"#utility.yul\":2167:2475   */\n  swap2\n  swap1\n  pop\n  jump\t// out\n    /* \"#utility.yul\":2481:2727   */\ntag_27:\n    /* \"#utility.yul\":2562:2563   */\n  0x00\n    /* \"#utility.yul\":2572:2685   */\ntag_82:\n    /* \"#utility.yul\":2586:2592   */\n  dup4\n    /* \"#utility.yul\":2583:2584   */\n  dup2\n    /* \"#utility.yul\":2580:2593   */\n  lt\n    /* \"#utility.yul\":2572:2685   */\n  iszero\n  tag_84\n  jumpi\n    /* \"#utility.yul\":2671:2672   */\n  dup1\n    /* \"#utility.yul\":2666:2669   */\n  dup3\n    /* \"#utility.yul\":2662:2673   */\n  add\n    /* \"#utility.yul\":2656:2674   */\n  mload\n    /* \"#utility.yul\":2652:2653   */\n  dup2\n    /* \"#utility.yul\":2647:2650   */\n  dup5\n    /* \"#utility.yul\":2643:2654   */\n  add\n    /* \"#utility.yul\":2636:2675   */\n  mstore\n    /* \"#utility.yul\":2608:2610   */\n  0x20\n    /* \"#utility.yul\":2605:2606   */\n  dup2\n    /* \"#utility.yul\":2601:2611   */\n  add\n    /* \"#utility.yul\":2596:2611   */\n  swap1\n  pop\n    /* \"#utility.yul\":2572:2685   */\n  jump(tag_82)\ntag_84:\n    /* \"#utility.yul\":2719:2720   */\n  0x00\n    /* \"#utility.yul\":2710:2716   */\n  dup5\n    /* \"#utility.yul\":2705:2708   */\n  dup5\n    /* \"#utility.yul\":2701:2717   */\n  add\n    /* \"#utility.yul\":2694:2721   */\n  mstore\n    /* \"#utility.yul\":2543:2727   */\n  pop\n    /* \"#utility.yul\":2481:2727   */\n  pop\n  pop\n  pop\n  jump\t// out\n    /* \"#utility.yul\":2733:3167   */\ntag_28:\n    /* \"#utility.yul\":2822:2827   */\n  0x00\n    /* \"#utility.yul\":2847:2913   */\n  tag_86\n    /* \"#utility.yul\":2863:2912   */\n  tag_87\n    /* \"#utility.yul\":2905:2911   */\n  dup5\n    /* \"#utility.yul\":2863:2912   */\n  tag_26\n  jump\t// in\ntag_87:\n    /* \"#utility.yul\":2847:2913   */\n  tag_25\n  jump\t// in\ntag_86:\n    /* \"#utility.yul\":2838:2913   */\n  swap1\n  pop\n    /* \"#utility.yul\":2936:2942   */\n  dup3\n    /* \"#utility.yul\":2929:2934   */\n  dup2\n    /* \"#utility.yul\":2922:2943   */\n  mstore\n    /* \"#utility.yul\":2974:2978   */\n  0x20\n    /* \"#utility.yul\":2967:2972   */\n  dup2\n    /* \"#utility.yul\":2963:2979   */\n  add\n    /* \"#utility.yul\":3012:3015   */\n  dup5\n    /* \"#utility.yul\":3003:3009   */\n  dup5\n    /* \"#utility.yul\":2998:3001   */\n  dup5\n    /* \"#utility.yul\":2994:3010   */\n  add\n    /* \"#utility.yul\":2991:3016   */\n  gt\n    /* \"#utility.yul\":2988:3100   */\n  iszero\n  tag_88\n  jumpi\n    /* \"#utility.yul\":3019:3098   */\n  tag_89\n  tag_21\n  jump\t// in\ntag_89:\n    /* \"#utility.yul\":2988:3100   */\ntag_88:\n    /* \"#utility.yul\":3109:3161   */\n  tag_90\n    /* \"#utility.yul\":3154:3160   */\n  dup5\n    /* \"#utility.yul\":3149:3152   */\n  dup3\n    /* \"#utility.yul\":3144:3147   */\n  dup6\n    /* \"#utility.yul\":3109:3161   */\n  tag_27\n  jump\t// in\ntag_90:\n    /* \"#utility.yul\":2828:3167   */\n  pop\n    /* \"#utility.yul\":2733:3167   */\n  swap4\n  swap3\n  pop\n  pop\n  pop\n  jump\t// out\n    /* \"#utility.yul\":3187:3542   */\ntag_29:\n    /* \"#utility.yul\":3254:3259   */\n  0x00\n    /* \"#utility.yul\":3303:3306   */\n  dup3\n    /* \"#utility.yul\":3296:3300   */\n  0x1f\n    /* \"#utility.yul\":3288:3294   */\n  dup4\n    /* \"#utility.yul\":3284:3301   */\n  add\n    /* \"#utility.yul\":3280:3307   */\n  slt\n    /* \"#utility.yul\":3270:3392   */\n  tag_92\n  jumpi\n    /* \"#utility.yul\":3311:3390   */\n  tag_93\n  tag_20\n  jump\t// in\ntag_93:\n    /* \"#utility.yul\":3270:3392   */\ntag_92:\n    /* \"#utility.yul\":3421:3427   */\n  dup2\n    /* \"#utility.yul\":3415:3428   */\n  mload\n    /* \"#utility.yul\":3446:3536   */\n  tag_94\n    /* \"#utility.yul\":3532:3535   */\n  dup5\n    /* \"#utility.yul\":3524:3530   */\n  dup3\n    /* \"#utility.yul\":3517:3521   */\n  0x20\n    /* \"#utility.yul\":3509:3515   */\n  dup7\n    /* \"#utility.yul\":3505:3522   */\n  add\n    /* \"#utility.yul\":3446:3536   */\n  tag_28\n  jump\t// in\ntag_94:\n    /* \"#utility.yul\":3437:3536   */\n  swap2\n  pop\n    /* \"#utility.yul\":3260:3542   */\n  pop\n    /* \"#utility.yul\":3187:3542   */\n  swap3\n  swap2\n  pop\n  pop\n  jump\t// out\n    /* \"#utility.yul\":3548:4714   */\ntag_3:\n    /* \"#utility.yul\":3665:3671   */\n  0x00\n    /* \"#utility.yul\":3673:3679   */\n  dup1\n    /* \"#utility.yul\":3681:3687   */\n  0x00\n    /* \"#utility.yul\":3689:3695   */\n  dup1\n    /* \"#utility.yul\":3738:3741   */\n  0x80\n    /* \"#utility.yul\":3726:3735   */\n  dup6\n    /* \"#utility.yul\":3717:3724   */\n  dup8\n    /* \"#utility.yul\":3713:3736   */\n  sub\n    /* \"#utility.yul\":3709:3742   */\n  slt\n    /* \"#utility.yul\":3706:3826   */\n  iszero\n  tag_96\n  jumpi\n    /* \"#utility.yul\":3745:3824   */\n  tag_97\n  tag_11\n  jump\t// in\ntag_97:\n    /* \"#utility.yul\":3706:3826   */\ntag_96:\n    /* \"#utility.yul\":3865:3866   */\n  0x00\n    /* \"#utility.yul\":3890:3954   */\n  tag_98\n    /* \"#utility.yul\":3946:3953   */\n  dup8\n    /* \"#utility.yul\":3937:3943   */\n  dup3\n    /* \"#utility.yul\":3926:3935   */\n  dup9\n    /* \"#utility.yul\":3922:3944   */\n  add\n    /* \"#utility.yul\":3890:3954   */\n  tag_15\n  jump\t// in\ntag_98:\n    /* \"#utility.yul\":3880:3954   */\n  swap5\n  pop\n    /* \"#utility.yul\":3836:3964   */\n  pop\n    /* \"#utility.yul\":4003:4005   */\n  0x20\n    /* \"#utility.yul\":4029:4093   */\n  tag_99\n    /* \"#utility.yul\":4085:4092   */\n  dup8\n    /* \"#utility.yul\":4076:4082   */\n  dup3\n    /* \"#utility.yul\":4065:4074   */\n  dup9\n    /* \"#utility.yul\":4061:4083   */\n  add\n    /* \"#utility.yul\":4029:4093   */\n  tag_19\n  jump\t// in\ntag_99:\n    /* \"#utility.yul\":4019:4093   */\n  swap4\n  pop\n    /* \"#utility.yul\":3974:4103   */\n  pop\n    /* \"#utility.yul\":4163:4165   */\n  0x40\n    /* \"#utility.yul\":4152:4161   */\n  dup6\n    /* \"#utility.yul\":4148:4166   */\n  add\n    /* \"#utility.yul\":4142:4167   */\n  mload\n    /* \"#utility.yul\":4194:4212   */\n  0xffffffffffffffff\n    /* \"#utility.yul\":4186:4192   */\n  dup2\n    /* \"#utility.yul\":4183:4213   */\n  gt\n    /* \"#utility.yul\":4180:4297   */\n  iszero\n  tag_100\n  jumpi\n    /* \"#utility.yul\":4216:4295   */\n  tag_101\n  tag_12\n  jump\t// in\ntag_101:\n    /* \"#utility.yul\":4180:4297   */\ntag_100:\n    /* \"#utility.yul\":4321:4395   */\n  tag_102\n    /* \"#utility.yul\":4387:4394   */\n  dup8\n    /* \"#utility.yul\":4378:4384   */\n  dup3\n    /* \"#utility.yul\":4367:4376   */\n  dup9\n    /* \"#utility.yul\":4363:4385   */\n  add\n    /* \"#utility.yul\":4321:4395   */\n  tag_29\n  jump\t// in\ntag_102:\n    /* \"#utility.yul\":4311:4395   */\n  swap3\n  pop\n    /* \"#utility.yul\":4113:4405   */\n  pop\n    /* \"#utility.yul\":4465:4467   */\n  0x60\n    /* \"#utility.yul\":4454:4463   */\n  dup6\n    /* \"#utility.yul\":4450:4468   */\n  add\n    /* \"#utility.yul\":4444:4469   */\n  mload\n    /* \"#utility.yul\":4496:4514   */\n  0xffffffffffffffff\n    /* \"#utility.yul\":4488:4494   */\n  dup2\n    /* \"#utility.yul\":4485:4515   */\n  gt\n    /* \"#utility.yul\":4482:4599   */\n  iszero\n  tag_103\n  jumpi\n    /* \"#utility.yul\":4518:4597   */\n  tag_104\n  tag_12\n  jump\t// in\ntag_104:\n    /* \"#utility.yul\":4482:4599   */\ntag_103:\n    /* \"#utility.yul\":4623:4697   */\n  tag_105\n    /* \"#utility.yul\":4689:4696   */\n  dup8\n    /* \"#utility.yul\":4680:4686   */\n  dup3\n    /* \"#utility.yul\":4669:4678   */\n  dup9\n    /* \"#utility.yul\":4665:4687   */\n  add\n    /* \"#utility.yul\":4623:4697   */\n  tag_29\n  jump\t// in\ntag_105:\n    /* \"#utility.yul\":4613:4697   */\n  swap2\n  pop\n    /* \"#utility.yul\":4415:4707   */\n  pop\n    /* \"#utility.yul\":3548:4714   */\n  swap3\n  swap6\n  swap2\n  swap5\n  pop\n  swap3\n  pop\n  jump\t// out\n    /* \"#utility.yul\":4720:4819   */\ntag_30:\n    /* \"#utility.yul\":4772:4778   */\n  0x00\n    /* \"#utility.yul\":4806:4811   */\n  dup2\n    /* \"#utility.yul\":4800:4812   */\n  mload\n    /* \"#utility.yul\":4790:4812   */\n  swap1\n  pop\n    /* \"#utility.yul\":4720:4819   */\n  swap2\n  swap1\n  pop\n  jump\t// out\n    /* \"#utility.yul\":4825:5005   */\ntag_31:\n    /* \"#utility.yul\":4873:4950   */\n  0x4e487b7100000000000000000000000000000000000000000000000000000000\n    /* \"#utility.yul\":4870:4871   */\n  0x00\n    /* \"#utility.yul\":4863:4951   */\n  mstore\n    /* \"#utility.yul\":4970:4974   */\n  0x22\n    /* \"#utility.yul\":4967:4968   */\n  0x04\n    /* \"#utility.yul\":4960:4975   */\n  mstore\n    /* \"#utility.yul\":4994:4998   */\n  0x24\n    /* \"#utility.yul\":4991:4992   */\n  0x00\n    /* \"#utility.yul\":4984:4999   */\n  revert\n    /* \"#utility.yul\":5011:5331   */\ntag_32:\n    /* \"#utility.yul\":5055:5061   */\n  0x00\n    /* \"#utility.yul\":5092:5093   */\n  0x02\n    /* \"#utility.yul\":5086:5090   */\n  dup3\n    /* \"#utility.yul\":5082:5094   */\n  div\n    /* \"#utility.yul\":5072:5094   */\n  swap1\n  pop\n    /* \"#utility.yul\":5139:5140   */\n  0x01\n    /* \"#utility.yul\":5133:5137   */\n  dup3\n    /* \"#utility.yul\":5129:5141   */\n  and\n    /* \"#utility.yul\":5160:5178   */\n  dup1\n    /* \"#utility.yul\":5150:5231   */\n  tag_109\n  jumpi\n    /* \"#utility.yul\":5216:5220   */\n  0x7f\n    /* \"#utility.yul\":5208:5214   */\n  dup3\n    /* \"#utility.yul\":5204:5221   */\n  and\n    /* \"#utility.yul\":5194:5221   */\n  swap2\n  pop\n    /* \"#utility.yul\":5150:5231   */\ntag_109:\n    /* \"#utility.yul\":5278:5280   */\n  0x20\n    /* \"#utility.yul\":5270:5276   */\n  dup3\n    /* \"#utility.yul\":5267:5281   */\n  lt\n    /* \"#utility.yul\":5247:5265   */\n  dup2\n    /* \"#utility.yul\":5244:5282   */\n  sub\n    /* \"#utility.yul\":5241:5325   */\n  tag_110\n  jumpi\n    /* \"#utility.yul\":5297:5315   */\n  tag_111\n  tag_31\n  jump\t// in\ntag_111:\n    /* \"#utility.yul\":5241:5325   */\ntag_110:\n    /* \"#utility.yul\":5062:5331   */\n  pop\n    /* \"#utility.yul\":5011:5331   */\n  swap2\n  swap1\n  pop\n  jump\t// out\n    /* \"#utility.yul\":5337:5478   */\ntag_33:\n    /* \"#utility.yul\":5386:5390   */\n  0x00\n    /* \"#utility.yul\":5409:5412   */\n  dup2\n    /* \"#utility.yul\":5401:5412   */\n  swap1\n  pop\n    /* \"#utility.yul\":5432:5435   */\n  dup2\n    /* \"#utility.yul\":5429:5430   */\n  0x00\n    /* \"#utility.yul\":5422:5436   */\n  mstore\n    /* \"#utility.yul\":5466:5470   */\n  0x20\n    /* \"#utility.yul\":5463:5464   */\n  0x00\n    /* \"#utility.yul\":5453:5471   */\n  keccak256\n    /* \"#utility.yul\":5445:5471   */\n  swap1\n  pop\n    /* \"#utility.yul\":5337:5478   */\n  swap2\n  swap1\n  pop\n  jump\t// out\n    /* \"#utility.yul\":5484:5577   */\ntag_34:\n    /* \"#utility.yul\":5521:5527   */\n  0x00\n    /* \"#utility.yul\":5568:5570   */\n  0x20\n    /* \"#utility.yul\":5563:5565   */\n  0x1f\n    /* \"#utility.yul\":5556:5561   */\n  dup4\n    /* \"#utility.yul\":5552:5566   */\n  add\n    /* \"#utility.yul\":5548:5571   */\n  div\n    /* \"#utility.yul\":5538:5571   */\n  swap1\n  pop\n    /* \"#utility.yul\":5484:5577   */\n  swap2\n  swap1\n  pop\n  jump\t// out\n    /* \"#utility.yul\":5583:5690   */\ntag_35:\n    /* \"#utility.yul\":5627:5635   */\n  0x00\n    /* \"#utility.yul\":5677:5682   */\n  dup3\n    /* \"#utility.yul\":5671:5675   */\n  dup3\n    /* \"#utility.yul\":5667:5683   */\n  shl\n    /* \"#utility.yul\":5646:5683   */\n  swap1\n  pop\n    /* \"#utility.yul\":5583:5690   */\n  swap3\n  swap2\n  pop\n  pop\n  jump\t// out\n    /* \"#utility.yul\":5696:6089   */\ntag_36:\n    /* \"#utility.yul\":5765:5771   */\n  0x00\n    /* \"#utility.yul\":5815:5816   */\n  0x08\n    /* \"#utility.yul\":5803:5813   */\n  dup4\n    /* \"#utility.yul\":5799:5817   */\n  mul\n    /* \"#utility.yul\":5838:5935   */\n  tag_116\n    /* \"#utility.yul\":5868:5934   */\n  0xffffffffffffffffffffffffffffffffffffffffffffffffffffffffffffffff\n    /* \"#utility.yul\":5857:5866   */\n  dup3\n    /* \"#utility.yul\":5838:5935   */\n  tag_35\n  jump\t// in\ntag_116:\n    /* \"#utility.yul\":5956:5995   */\n  tag_117\n    /* \"#utility.yul\":5986:5994   */\n  dup7\n    /* \"#utility.yul\":5975:5984   */\n  dup4\n    /* \"#utility.yul\":5956:5995   */\n  tag_35\n  jump\t// in\ntag_117:\n    /* \"#utility.yul\":5944:5995   */\n  swap6\n  pop\n    /* \"#utility.yul\":6028:6032   */\n  dup1\n    /* \"#utility.yul\":6024:6033   */\n  not\n    /* \"#utility.yul\":6017:6022   */\n  dup5\n    /* \"#utility.yul\":6013:6034   */\n  and\n    /* \"#utility.yul\":6004:6034   */\n  swap4\n  pop\n    /* \"#utility.yul\":6077:6081   */\n  dup1\n    /* \"#utility.yul\":6067:6075   */\n  dup7\n    /* \"#utility.yul\":6063:6082   */\n  and\n    /* \"#utility.yul\":6056:6061   */\n  dup5\n    /* \"#utility.yul\":6053:6083   */\n  or\n    /* \"#utility.yul\":6043:6083   */\n  swap3\n  pop\n    /* \"#utility.yul\":5772:6089   */\n  pop\n  pop\n    /* \"#utility.yul\":5696:6089   */\n  swap4\n  swap3\n  pop\n  pop\n  pop\n  jump\t// out\n    /* \"#utility.yul\":6095:6155   */\ntag_37:\n    /* \"#utility.yul\":6123:6126   */\n  0x00\n    /* \"#utility.yul\":6144:6149   */\n  dup2\n    /* \"#utility.yul\":6137:6149   */\n  swap1\n  pop\n    /* \"#utility.yul\":6095:6155   */\n  swap2\n  swap1\n  pop\n  jump\t// out\n    /* \"#utility.yul\":6161:6303   */\ntag_38:\n    /* \"#utility.yul\":6211:6220   */\n  0x00\n    /* \"#utility.yul\":6244:6297   */\n  tag_120\n    /* \"#utility.yul\":6262:6296   */\n  tag_121\n    /* \"#utility.yul\":6271:6295   */\n  tag_122\n    /* \"#utility.yul\":6289:6294   */\n  dup5\n    /* \"#utility.yul\":6271:6295   */\n  tag_13\n  jump\t// in\ntag_122:\n    /* \"#utility.yul\":6262:6296   */\n  tag_37\n  jump\t// in\ntag_121:\n    /* \"#utility.yul\":6244:6297   */\n  tag_13\n  jump\t// in\ntag_120:\n    /* \"#utility.yul\":6231:6297   */\n  swap1\n  pop\n    /* \"#utility.yul\":6161:6303   */\n  swap2\n  swap1\n  pop\n  jump\t// out\n    /* \"#utility.yul\":6309:6384   */\ntag_39:\n    /* \"#utility.yul\":6352:6355   */\n  0x00\n    /* \"#utility.yul\":6373:6378   */\n  dup2\n    /* \"#utility.yul\":6366:6378   */\n  swap1\n  pop\n    /* \"#utility.yul\":6309:6384   */\n  swap2\n  swap1\n  pop\n  jump\t// out\n    /* \"#utility.yul\":6390:6659   */\ntag_40:\n    /* \"#utility.yul\":6500:6539   */\n  tag_125\n    /* \"#utility.yul\":6531:6538   */\n  dup4\n    /* \"#utility.yul\":6500:6539   */\n  tag_38\n  jump\t// in\ntag_125:\n    /* \"#utility.yul\":6561:6652   */\n  tag_126\n    /* \"#utility.yul\":6610:6651   */\n  tag_127\n    /* \"#utility.yul\":6634:6650   */\n  dup3\n    /* \"#utility.yul\":6610:6651   */\n  tag_39\n  jump\t// in\ntag_127:\n    /* \"#utility.yul\":6602:6608   */\n  dup5\n    /* \"#utility.yul\":6595:6599   */\n  dup5\n    /* \"#utility.yul\":6589:6600   */\n  sload\n    /* \"#utility.yul\":6561:6652   */\n  tag_36\n  jump\t// in\ntag_126:\n    /* \"#utility.yul\":6555:6559   */\n  dup3\n    /* \"#utility.yul\":6548:6653   */\n  sstore\n    /* \"#utility.yul\":6466:6659   */\n  pop\n    /* \"#utility.yul\":6390:6659   */\n  pop\n  pop\n  pop\n  jump\t// out\n    /* \"#utility.yul\":6665:6738   */\ntag_41:\n    /* \"#utility.yul\":6710:6713   */\n  0x00\n    /* \"#utility.yul\":6665:6738   */\n  swap1\n  jump\t// out\n    /* \"#utility.yul\":6744:6933   */\ntag_42:\n    /* \"#utility.yul\":6821:6853   */\n  tag_130\n  tag_41\n  jump\t// in\ntag_130:\n    /* \"#utility.yul\":6862:6927   */\n  tag_131\n    /* \"#utility.yul\":6920:6926   */\n  dup2\n    /* \"#utility.yul\":6912:6918   */\n  dup5\n    /* \"#utility.yul\":6906:6910   */\n  dup5\n    /* \"#utility.yul\":6862:6927   */\n  tag_40\n  jump\t// in\ntag_131:\n    /* \"#utility.yul\":6797:6933   */\n  pop\n    /* \"#utility.yul\":6744:6933   */\n  pop\n  pop\n  jump\t// out\n    /* \"#utility.yul\":6939:7125   */\ntag_43:\n    /* \"#utility.yul\":6999:7119   */\ntag_133:\n    /* \"#utility.yul\":7016:7019   */\n  dup2\n    /* \"#utility.yul\":7009:7014   */\n  dup2\n    /* \"#utility.yul\":7006:7020   */\n  lt\n    /* \"#utility.yul\":6999:7119   */\n  iszero\n  tag_135\n  jumpi\n    /* \"#utility.yul\":7070:7109   */\n  tag_136\n    /* \"#utility.yul\":7107:7108   */\n  0x00\n    /* \"#utility.yul\":7100:7105   */\n  dup3\n    /* \"#utility.yul\":7070:7109   */\n  tag_42\n  jump\t// in\ntag_136:\n    /* \"#utility.yul\":7043:7044   */\n  0x01\n    /* \"#utility.yul\":7036:7041   */\n  dup2\n    /* \"#utility.yul\":7032:7045   */\n  add\n    /* \"#utility.yul\":7023:7045   */\n  swap1\n  pop\n    /* \"#utility.yul\":6999:7119   */\n  jump(tag_133)\ntag_135:\n    /* \"#utility.yul\":6939:7125   */\n  pop\n  pop\n  jump\t// out\n    /* \"#utility.yul\":7131:7674   */\ntag_44:\n    /* \"#utility.yul\":7232:7234   */\n  0x1f\n    /* \"#utility.yul\":7227:7230   */\n  dup3\n    /* \"#utility.yul\":7224:7235   */\n  gt\n    /* \"#utility.yul\":7221:7667   */\n  iszero\n  tag_138\n  jumpi\n    /* \"#utility.yul\":7266:7304   */\n  tag_139\n    /* \"#utility.yul\":7298:7303   */\n  dup2\n    /* \"#utility.yul\":7266:7304   */\n  tag_33\n  jump\t// in\ntag_139:\n    /* \"#utility.yul\":7350:7379   */\n  tag_140\n    /* \"#utility.yul\":7368:7378   */\n  dup5\n    /* \"#utility.yul\":7350:7379   */\n  tag_34\n  jump\t// in\ntag_140:\n    /* \"#utility.yul\":7340:7348   */\n  dup2\n    /* \"#utility.yul\":7336:7380   */\n  add\n    /* \"#utility.yul\":7533:7535   */\n  0x20\n    /* \"#utility.yul\":7521:7531   */\n  dup6\n    /* \"#utility.yul\":7518:7536   */\n  lt\n    /* \"#utility.yul\":7515:7564   */\n  iszero\n  tag_141\n  jumpi\n    /* \"#utility.yul\":7554:7562   */\n  dup2\n    /* \"#utility.yul\":7539:7562   */\n  swap1\n  pop\n    /* \"#utility.yul\":7515:7564   */\ntag_141:\n    /* \"#utility.yul\":7577:7657   */\n  tag_142\n    /* \"#utility.yul\":7633:7655   */\n  tag_143\n    /* \"#utility.yul\":7651:7654   */\n  dup6\n    /* \"#utility.yul\":7633:7655   */\n  tag_34\n  jump\t// in\ntag_143:\n    /* \"#utility.yul\":7623:7631   */\n  dup4\n    /* \"#utility.yul\":7619:7656   */\n  add\n    /* \"#utility.yul\":7606:7617   */\n  dup3\n    /* \"#utility.yul\":7577:7657   */\n  tag_43\n  jump\t// in\ntag_142:\n    /* \"#utility.yul\":7236:7667   */\n  pop\n  pop\n    /* \"#utility.yul\":7221:7667   */\ntag_138:\n    /* \"#utility.yul\":7131:7674   */\n  pop\n  pop\n  pop\n  jump\t// out\n    /* \"#utility.yul\":7680:7797   */\ntag_45:\n    /* \"#utility.yul\":7734:7742   */\n  0x00\n    /* \"#utility.yul\":7784:7789   */\n  dup3\n    /* \"#utility.yul\":7778:7782   */\n  dup3\n    /* \"#utility.yul\":7774:7790   */\n  shr\n    /* \"#utility.yul\":7753:7790   */\n  swap1\n  pop\n    /* \"#utility.yul\":7680:7797   */\n  swap3\n  swap2\n  pop\n  pop\n  jump\t// out\n    /* \"#utility.yul\":7803:7972   */\ntag_46:\n    /* \"#utility.yul\":7847:7853   */\n  0x00\n    /* \"#utility.yul\":7880:7931   */\n  tag_146\n    /* \"#utility.yul\":7928:7929   */\n  0x00\n    /* \"#utility.yul\":7924:7930   */\n  not\n    /* \"#utility.yul\":7916:7921   */\n  dup5\n    /* \"#utility.yul\":7913:7914   */\n  0x08\n    /* \"#utility.yul\":7909:7922   */\n  mul\n    /* \"#utility.yul\":7880:7931   */\n  tag_45\n  jump\t// in\ntag_146:\n    /* \"#utility.yul\":7876:7932   */\n  not\n    /* \"#utility.yul\":7961:7965   */\n  dup1\n    /* \"#utility.yul\":7955:7959   */\n  dup4\n    /* \"#utility.yul\":7951:7966   */\n  and\n    /* \"#utility.yul\":7941:7966   */\n  swap2\n  pop\n    /* \"#utility.yul\":7854:7972   */\n  pop\n    /* \"#utility.yul\":7803:7972   */\n  swap3\n  swap2\n  pop\n  pop\n  jump\t// out\n    /* \"#utility.yul\":7977:8272   */\ntag_47:\n    /* \"#utility.yul\":8053:8057   */\n  0x00\n    /* \"#utility.yul\":8199:8228   */\n  tag_148\n    /* \"#utility.yul\":8224:8227   */\n  dup4\n    /* \"#utility.yul\":8218:8222   */\n  dup4\n    /* \"#utility.yul\":8199:8228   */\n  tag_46\n  jump\t// in\ntag_148:\n    /* \"#utility.yul\":8191:8228   */\n  swap2\n  pop\n    /* \"#utility.yul\":8261:8264   */\n  dup3\n    /* \"#utility.yul\":8258:8259   */\n  0x02\n    /* \"#utility.yul\":8254:8265   */\n  mul\n    /* \"#utility.yul\":8248:8252   */\n  dup3\n    /* \"#utility.yul\":8245:8266   */\n  or\n    /* \"#utility.yul\":8237:8266   */\n  swap1\n  pop\n    /* \"#utility.yul\":7977:8272   */\n  swap3\n  swap2\n  pop\n  pop\n  jump\t// out\n    /* \"#utility.yul\":8277:9672   */\ntag_7:\n    /* \"#utility.yul\":8394:8431   */\n  tag_150\n    /* \"#utility.yul\":8427:8430   */\n  dup3\n    /* \"#utility.yul\":8394:8431   */\n  tag_30\n  jump\t// in\ntag_150:\n    /* \"#utility.yul\":8496:8514   */\n  0xffffffffffffffff\n    /* \"#utility.yul\":8488:8494   */\n  dup2\n    /* \"#utility.yul\":8485:8515   */\n  gt\n    /* \"#utility.yul\":8482:8538   */\n  iszero\n  tag_151\n  jumpi\n    /* \"#utility.yul\":8518:8536   */\n  tag_152\n  tag_23\n  jump\t// in\ntag_152:\n    /* \"#utility.yul\":8482:8538   */\ntag_151:\n    /* \"#utility.yul\":8562:8600   */\n  tag_153\n    /* \"#utility.yul\":8594:8598   */\n  dup3\n    /* \"#utility.yul\":8588:8599   */\n  sload\n    /* \"#utility.yul\":8562:8600   */\n  tag_32\n  jump\t// in\ntag_153:\n    /* \"#utility.yul\":8647:8714   */\n  tag_154\n    /* \"#utility.yul\":8707:8713   */\n  dup3\n    /* \"#utility.yul\":8699:8705   */\n  dup3\n    /* \"#utility.yul\":8693:8697   */\n  dup6\n    /* \"#utility.yul\":8647:8714   */\n  tag_44\n  jump\t// in\ntag_154:\n    /* \"#utility.yul\":8741:8742   */\n  0x00\n    /* \"#utility.yul\":8765:8769   */\n  0x20\n    /* \"#utility.yul\":8752:8769   */\n  swap1\n  pop\n    /* \"#utility.yul\":8797:8799   */\n  0x1f\n    /* \"#utility.yul\":8789:8795   */\n  dup4\n    /* \"#utility.yul\":8786:8800   */\n  gt\n    /* \"#utility.yul\":8814:8815   */\n  0x01\n    /* \"#utility.yul\":8809:9427   */\n  dup2\n  eq\n  tag_156\n  jumpi\n    /* \"#utility.yul\":9471:9472   */\n  0x00\n    /* \"#utility.yul\":9488:9494   */\n  dup5\n    /* \"#utility.yul\":9485:9562   */\n  iszero\n  tag_157\n  jumpi\n    /* \"#utility.yul\":9537:9546   */\n  dup3\n    /* \"#utility.yul\":9532:9535   */\n  dup8\n    /* \"#utility.yul\":9528:9547   */\n  add\n    /* \"#utility.yul\":9522:9548   */\n  mload\n    /* \"#utility.yul\":9513:9548   */\n  swap1\n  pop\n    /* \"#utility.yul\":9485:9562   */\ntag_157:\n    /* \"#utility.yul\":9588:9655   */\n  tag_158\n    /* \"#utility.yul\":9648:9654   */\n  dup6\n    /* \"#utility.yul\":9641:9646   */\n  dup3\n    /* \"#utility.yul\":9588:9655   */\n  tag_47\n  jump\t// in\ntag_158:\n    /* \"#utility.yul\":9582:9586   */\n  dup7\n    /* \"#utility.yul\":9575:9656   */\n  sstore\n    /* \"#utility.yul\":9444:9666   */\n  pop\n    /* \"#utility.yul\":8779:9666   */\n  jump(tag_155)\n    /* \"#utility.yul\":8809:9427   */\ntag_156:\n    /* \"#utility.yul\":8861:8865   */\n  0x1f\n    /* \"#utility.yul\":8857:8866   */\n  not\n    /* \"#utility.yul\":8849:8855   */\n  dup5\n    /* \"#utility.yul\":8845:8867   */\n  and\n    /* \"#utility.yul\":8895:8932   */\n  tag_159\n    /* \"#utility.yul\":8927:8931   */\n  dup7\n    /* \"#utility.yul\":8895:8932   */\n  tag_33\n  jump\t// in\ntag_159:\n    /* \"#utility.yul\":8954:8955   */\n  0x00\n    /* \"#utility.yul\":8968:9176   */\ntag_160:\n    /* \"#utility.yul\":8982:8989   */\n  dup3\n    /* \"#utility.yul\":8979:8980   */\n  dup2\n    /* \"#utility.yul\":8976:8990   */\n  lt\n    /* \"#utility.yul\":8968:9176   */\n  iszero\n  tag_162\n  jumpi\n    /* \"#utility.yul\":9061:9070   */\n  dup5\n    /* \"#utility.yul\":9056:9059   */\n  dup10\n    /* \"#utility.yul\":9052:9071   */\n  add\n    /* \"#utility.yul\":9046:9072   */\n  mload\n    /* \"#utility.yul\":9038:9044   */\n  dup3\n    /* \"#utility.yul\":9031:9073   */\n  sstore\n    /* \"#utility.yul\":9112:9113   */\n  0x01\n    /* \"#utility.yul\":9104:9110   */\n  dup3\n    /* \"#utility.yul\":9100:9114   */\n  add\n    /* \"#utility.yul\":9090:9114   */\n  swap2\n  pop\n    /* \"#utility.yul\":9159:9161   */\n  0x20\n    /* \"#utility.yul\":9148:9157   */\n  dup6\n    /* \"#utility.yul\":9144:9162   */\n  add\n    /* \"#utility.yul\":9131:9162   */\n  swap5\n  pop\n    /* \"#utility.yul\":9005:9009   */\n  0x20\n    /* \"#utility.yul\":9002:9003   */\n  dup2\n    /* \"#utility.yul\":8998:9010   */\n  add\n    /* \"#utility.yul\":8993:9010   */\n  swap1\n  pop\n    /* \"#utility.yul\":8968:9176   */\n  jump(tag_160)\ntag_162:\n    /* \"#utility.yul\":9204:9210   */\n  dup7\n    /* \"#utility.yul\":9195:9202   */\n  dup4\n    /* \"#utility.yul\":9192:9211   */\n  lt\n    /* \"#utility.yul\":9189:9368   */\n  iszero\n  tag_163\n  jumpi\n    /* \"#utility.yul\":9262:9271   */\n  dup5\n    /* \"#utility.yul\":9257:9260   */\n  dup10\n    /* \"#utility.yul\":9253:9272   */\n  add\n    /* \"#utility.yul\":9247:9273   */\n  mload\n    /* \"#utility.yul\":9305:9353   */\n  tag_164\n    /* \"#utility.yul\":9347:9351   */\n  0x1f\n    /* \"#utility.yul\":9339:9345   */\n  dup10\n    /* \"#utility.yul\":9335:9352   */\n  and\n    /* \"#utility.yul\":9324:9333   */\n  dup3\n    /* \"#utility.yul\":9305:9353   */\n  tag_46\n  jump\t// in\ntag_164:\n    /* \"#utility.yul\":9297:9303   */\n  dup4\n    /* \"#utility.yul\":9290:9354   */\n  sstore\n    /* \"#utility.yul\":9212:9368   */\n  pop\n    /* \"#utility.yul\":9189:9368   */\ntag_163:\n    /* \"#utility.yul\":9414:9415   */\n  0x01\n    /* \"#utility.yul\":9410:9411   */\n  0x02\n    /* \"#utility.yul\":9402:9408   */\n  dup9\n    /* \"#utility.yul\":9398:9412   */\n  mul\n    /* \"#utility.yul\":9394:9416   */\n  add\n    /* \"#utility.yul\":9388:9392   */\n  dup9\n    /* \"#utility.yul\":9381:9417   */\n  sstore\n    /* \"#utility.yul\":8816:9427   */\n  pop\n  pop\n  pop\n    /* \"#utility.yul\":8779:9666   */\ntag_155:\n  pop\n    /* \"#utility.yul\":8369:9672   */\n  pop\n  pop\n  pop\n    /* \"#utility.yul\":8277:9672   */\n  pop\n  pop\n  jump\t// out\n    /* \"Campaign.sol\":495:3448  contract Campaign {... */\ntag_9:\n  dataSize(sub_0)\n  dup1\n  dataOffset(sub_0)\n  0x00\n  codecopy\n  0x00\n  return\nstop\n\nsub_0: assembly {\n        /* \"Campaign.sol\":495:3448  contract Campaign {... */\n      mstore(0x40, 0x80)\n      jumpi(tag_1, lt(calldatasize, 0x04))\n      shr(0xe0, calldataload(0x00))\n      dup1\n      0x81d12c58\n      gt\n      tag_17\n      jumpi\n      dup1\n      0x937e09b1\n      gt\n      tag_18\n      jumpi\n      dup1\n      0x937e09b1\n      eq\n      tag_13\n      jumpi\n      dup1\n      0xd7bb99ba\n      eq\n      tag_14\n      jumpi\n      dup1\n      0xd7d1bbdb\n      eq\n      tag_15\n      jumpi\n      dup1\n      0xfbbf93a0\n      eq\n      tag_16\n      jumpi\n      jump(tag_1)\n    tag_18:\n      dup1\n      0x81d12c58\n      eq\n      tag_9\n      jumpi\n      dup1\n      0x82fde093\n      eq\n      tag_10\n      jumpi\n      dup1\n      0x835a6172\n      eq\n      tag_11\n      jumpi\n      dup1\n      0x8a9cfd55\n      eq\n      tag_12\n      jumpi\n      jump(tag_1)\n    tag_17:\n      dup1\n      0x33f449e5\n      gt\n      tag_19\n      jumpi\n      dup1\n      0x33f449e5\n      eq\n      tag_5\n      jumpi\n      dup1\n      0x3410452a\n      eq\n      tag_6\n      jumpi\n      dup1\n      0x4051ddac\n      eq\n      tag_7\n      jumpi\n      dup1\n      0x481c6a75\n      eq\n      tag_8\n      jumpi\n      jump(tag_1)\n    tag_19:\n      dup1\n      0x03441006\n      eq\n      tag_2\n      jumpi\n      dup1\n      0x0a144391\n      eq\n      tag_3\n      jumpi\n      dup1\n      0x110842cb\n      eq\n      tag_4\n      jumpi\n    tag_1:\n      0x00\n      dup1\n      revert\n        /* \"Campaign.sol\":2407:2758  function finalizeRequest(uint index) public restricted {... */\n    tag_2:\n      callvalue\n      dup1\n      iszero\n      tag_20\n      jumpi\n      0x00\n      dup1\n      revert\n    tag_20:\n      pop\n      tag_21\n      0x04\n      dup1\n      calldatasize\n      sub\n      dup2\n      add\n      swap1\n      tag_22\n      swap2\n      swap1\n      tag_23\n      jump\t// in\n    tag_22:\n      tag_24\n      jump\t// in\n    tag_21:\n      stop\n        /* \"Campaign.sol\":835:876  mapping(address => bool) public approvers */\n    tag_3:\n      callvalue\n      dup1\n      iszero\n      tag_25\n      jumpi\n      0x00\n      dup1\n      revert\n    tag_25:\n      pop\n      tag_26\n      0x04\n      dup1\n      calldatasize\n      sub\n      dup2\n      add\n      swap1\n      tag_27\n      swap2\n      swap1\n      tag_28\n      jump\t// in\n    tag_27:\n      tag_29\n      jump\t// in\n    tag_26:\n      mload(0x40)\n      tag_30\n      swap2\n      swap1\n      tag_31\n      jump\t// in\n    tag_30:\n      mload(0x40)\n      dup1\n      swap2\n      sub\n      swap1\n      return\n        /* \"Campaign.sol\":759:792  string public campaignDescription */\n    tag_4:\n      callvalue\n      dup1\n      iszero\n      tag_32\n      jumpi\n      0x00\n      dup1\n      revert\n    tag_32:\n      pop\n      tag_33\n      tag_34\n      jump\t// in\n    tag_33:\n      mload(0x40)\n      tag_35\n      swap2\n      swap1\n      tag_36\n      jump\t// in\n    tag_35:\n      mload(0x40)\n      dup1\n      swap2\n      sub\n      swap1\n      return\n        /* \"Campaign.sol\":914:980  mapping(uint => mapping(address => bool)) public approvedAddresses */\n    tag_5:\n      callvalue\n      dup1\n      iszero\n      tag_37\n      jumpi\n      0x00\n      dup1\n      revert\n    tag_37:\n      pop\n      tag_38\n      0x04\n      dup1\n      calldatasize\n      sub\n      dup2\n      add\n      swap1\n      tag_39\n      swap2\n      swap1\n      tag_40\n      jump\t// in\n    tag_39:\n      tag_41\n      jump\t// in\n    tag_38:\n      mload(0x40)\n      tag_42\n      swap2\n      swap1\n      tag_31\n      jump\t// in\n    tag_42:\n      mload(0x40)\n      dup1\n      swap2\n      sub\n      swap1\n      return\n        /* \"Campaign.sol\":2956:3050  function getRequestsCount() public view returns (uint) {... */\n    tag_6:\n      callvalue\n      dup1\n      iszero\n      tag_43\n      jumpi\n      0x00\n      dup1\n      revert\n    tag_43:\n      pop\n      tag_44\n      tag_45\n      jump\t// in\n    tag_44:\n      mload(0x40)\n      tag_46\n      swap2\n      swap1\n      tag_47\n      jump\t// in\n    tag_46:\n      mload(0x40)\n      dup1\n      swap2\n      sub\n      swap1\n      return\n        /* \"Campaign.sol\":2764:2950  function getSummary() public view returns (uint, uint, uint, uint, address) {... */\n    tag_7:\n      callvalue\n      dup1\n      iszero\n      tag_48\n      jumpi\n      0x00\n      dup1\n      revert\n    tag_48:\n      pop\n      tag_49\n      tag_50\n      jump\t// in\n    tag_49:\n      mload(0x40)\n      tag_51\n      swap6\n      swap5\n      swap4\n      swap3\n      swap2\n      swap1\n      tag_52\n      jump\t// in\n    tag_51:\n      mload(0x40)\n      dup1\n      swap2\n      sub\n      swap1\n      return\n        /* \"Campaign.sol\":698:720  address public manager */\n    tag_8:\n      callvalue\n      dup1\n      iszero\n      tag_53\n      jumpi\n      0x00\n      dup1\n      revert\n    tag_53:\n      pop\n      tag_54\n      tag_55\n      jump\t// in\n    tag_54:\n      mload(0x40)\n      tag_56\n      swap2\n      swap1\n      tag_57\n      jump\t// in\n    tag_56:\n      mload(0x40)\n      dup1\n      swap2\n      sub\n      swap1\n      return\n        /* \"Campaign.sol\":986:1011  Request[] public requests */\n    tag_9:\n      callvalue\n      dup1\n      iszero\n      tag_58\n      jumpi\n      0x00\n      dup1\n      revert\n    tag_58:\n      pop\n      tag_59\n      0x04\n      dup1\n      calldatasize\n      sub\n      dup2\n      add\n      swap1\n      tag_60\n      swap2\n      swap1\n      tag_23\n      jump\t// in\n    tag_60:\n      tag_61\n      jump\t// in\n    tag_59:\n      mload(0x40)\n      tag_62\n      swap6\n      swap5\n      swap4\n      swap3\n      swap2\n      swap1\n      tag_63\n      jump\t// in\n    tag_62:\n      mload(0x40)\n      dup1\n      swap2\n      sub\n      swap1\n      return\n        /* \"Campaign.sol\":882:908  uint public approversCount */\n    tag_10:\n      callvalue\n      dup1\n      iszero\n      tag_64\n      jumpi\n      0x00\n      dup1\n      revert\n    tag_64:\n      pop\n      tag_65\n      tag_66\n      jump\t// in\n    tag_65:\n      mload(0x40)\n      tag_67\n      swap2\n      swap1\n      tag_47\n      jump\t// in\n    tag_67:\n      mload(0x40)\n      dup1\n      swap2\n      sub\n      swap1\n      return\n        /* \"Campaign.sol\":726:753  string public campaignTitle */\n    tag_11:\n      callvalue\n      dup1\n      iszero\n      tag_68\n      jumpi\n      0x00\n      dup1\n      revert\n    tag_68:\n      pop\n      tag_69\n      tag_70\n      jump\t// in\n    tag_69:\n      mload(0x40)\n      tag_71\n      swap2\n      swap1\n      tag_36\n      jump\t// in\n    tag_71:\n      mload(0x40)\n      dup1\n      swap2\n      sub\n      swap1\n      return\n        /* \"Campaign.sol\":1707:2154  function createRequest(string memory description, uint value, address payable recipient) public restricted {... */\n    tag_12:\n      callvalue\n      dup1\n      iszero\n      tag_72\n      jumpi\n      0x00\n      dup1\n      revert\n    tag_72:\n      pop\n      tag_73\n      0x04\n      dup1\n      calldatasize\n      sub\n      dup2\n      add\n      swap1\n      tag_74\n      swap2\n      swap1\n      tag_75\n      jump\t// in\n    tag_74:\n      tag_76\n      jump\t// in\n    tag_73:\n      stop\n        /* \"Campaign.sol\":798:829  uint public minimumContribution */\n    tag_13:\n      callvalue\n      dup1\n      iszero\n      tag_77\n      jumpi\n      0x00\n      dup1\n      revert\n    tag_77:\n      pop\n      tag_78\n      tag_79\n      jump\t// in\n    tag_78:\n      mload(0x40)\n      tag_80\n      swap2\n      swap1\n      tag_47\n      jump\t// in\n    tag_80:\n      mload(0x40)\n      dup1\n      swap2\n      sub\n      swap1\n      return\n        /* \"Campaign.sol\":1377:1701  function contribute() public payable {... */\n    tag_14:\n      tag_81\n      tag_82\n      jump\t// in\n    tag_81:\n      stop\n        /* \"Campaign.sol\":2160:2401  function approveRequest(uint index) public {... */\n    tag_15:\n      callvalue\n      dup1\n      iszero\n      tag_83\n      jumpi\n      0x00\n      dup1\n      revert\n    tag_83:\n      pop\n      tag_84\n      0x04\n      dup1\n      calldatasize\n      sub\n      dup2\n      add\n      swap1\n      tag_85\n      swap2\n      swap1\n      tag_23\n      jump\t// in\n    tag_85:\n      tag_86\n      jump\t// in\n    tag_84:\n      stop\n        /* \"Campaign.sol\":3056:3446  function getDetails() public view returns (... */\n    tag_16:\n      callvalue\n      dup1\n      iszero\n      tag_87\n      jumpi\n      0x00\n      dup1\n      revert\n    tag_87:\n      pop\n      tag_88\n      tag_89\n      jump\t// in\n    tag_88:\n      mload(0x40)\n      tag_90\n      swap6\n      swap5\n      swap4\n      swap3\n      swap2\n      swap1\n      tag_91\n      jump\t// in\n    tag_90:\n      mload(0x40)\n      dup1\n      swap2\n      sub\n      swap1\n      return\n        /* \"Campaign.sol\":2407:2758  function finalizeRequest(uint index) public restricted {... */\n    tag_24:\n        /* \"Campaign.sol\":1072:1079  manager */\n      0x00\n      dup1\n      sload\n      swap1\n      0x0100\n      exp\n      swap1\n      div\n      0xffffffffffffffffffffffffffffffffffffffff\n      and\n        /* \"Campaign.sol\":1058:1079  msg.sender == manager */\n      0xffffffffffffffffffffffffffffffffffffffff\n      and\n        /* \"Campaign.sol\":1058:1068  msg.sender */\n      caller\n        /* \"Campaign.sol\":1058:1079  msg.sender == manager */\n      0xffffffffffffffffffffffffffffffffffffffff\n      and\n      eq\n        /* \"Campaign.sol\":1050:1109  require(msg.sender == manager, \"Caller is not the manager\") */\n      tag_93\n      jumpi\n      mload(0x40)\n      0x08c379a000000000000000000000000000000000000000000000000000000000\n      dup2\n      mstore\n      0x04\n      add\n      tag_94\n      swap1\n      tag_95\n      jump\t// in\n    tag_94:\n      mload(0x40)\n      dup1\n      swap2\n      sub\n      swap1\n      revert\n    tag_93:\n        /* \"Campaign.sol\":2472:2495  Request storage request */\n      0x00\n        /* \"Campaign.sol\":2498:2506  requests */\n      0x07\n        /* \"Campaign.sol\":2507:2512  index */\n      dup3\n        /* \"Campaign.sol\":2498:2513  requests[index] */\n      dup2\n      sload\n      dup2\n      lt\n      tag_97\n      jumpi\n      tag_98\n      tag_99\n      jump\t// in\n    tag_98:\n    tag_97:\n      swap1\n      0x00\n      mstore\n      keccak256(0x00, 0x20)\n      swap1\n      0x04\n      mul\n      add\n        /* \"Campaign.sol\":2472:2513  Request storage request = requests[index] */\n      swap1\n      pop\n        /* \"Campaign.sol\":2574:2575  2 */\n      0x02\n        /* \"Campaign.sol\":2557:2571  approversCount */\n      sload(0x05)\n        /* \"Campaign.sol\":2557:2575  approversCount / 2 */\n      tag_101\n      swap2\n      swap1\n      tag_102\n      jump\t// in\n    tag_101:\n        /* \"Campaign.sol\":2532:2539  request */\n      dup2\n        /* \"Campaign.sol\":2532:2553  request.approvalCount */\n      0x03\n      add\n      sload\n        /* \"Campaign.sol\":2532:2576  request.approvalCount > (approversCount / 2) */\n      gt\n        /* \"Campaign.sol\":2524:2601  require(request.approvalCount > (approversCount / 2), \"Not enough approvals\") */\n      tag_103\n      jumpi\n      mload(0x40)\n      0x08c379a000000000000000000000000000000000000000000000000000000000\n      dup2\n      mstore\n      0x04\n      add\n      tag_104\n      swap1\n      tag_105\n      jump\t// in\n    tag_104:\n      mload(0x40)\n      dup1\n      swap2\n      sub\n      swap1\n      revert\n    tag_103:\n        /* \"Campaign.sol\":2620:2627  request */\n      dup1\n        /* \"Campaign.sol\":2620:2636  request.complete */\n      0x02\n      add\n      0x14\n      swap1\n      sload\n      swap1\n      0x0100\n      exp\n      swap1\n      div\n      0xff\n      and\n        /* \"Campaign.sol\":2619:2636  !request.complete */\n      iszero\n        /* \"Campaign.sol\":2611:2666  require(!request.complete, \"Request already finalized\") */\n      tag_106\n      jumpi\n      mload(0x40)\n      0x08c379a000000000000000000000000000000000000000000000000000000000\n      dup2\n      mstore\n      0x04\n      add\n      tag_107\n      swap1\n      tag_108\n      jump\t// in\n    tag_107:\n      mload(0x40)\n      dup1\n      swap2\n      sub\n      swap1\n      revert\n    tag_106:\n        /* \"Campaign.sol\":2677:2684  request */\n      dup1\n        /* \"Campaign.sol\":2677:2694  request.recipient */\n      0x02\n      add\n      0x00\n      swap1\n      sload\n      swap1\n      0x0100\n      exp\n      swap1\n      div\n      0xffffffffffffffffffffffffffffffffffffffff\n      and\n        /* \"Campaign.sol\":2677:2703  request.recipient.transfer */\n      0xffffffffffffffffffffffffffffffffffffffff\n      and\n        /* \"Campaign.sol\":2677:2718  request.recipient.transfer(request.value) */\n      0x08fc\n        /* \"Campaign.sol\":2704:2711  request */\n      dup3\n        /* \"Campaign.sol\":2704:2717  request.value */\n      0x01\n      add\n      sload\n        /* \"Campaign.sol\":2677:2718  request.recipient.transfer(request.value) */\n      swap1\n      dup2\n      iszero\n      mul\n      swap1\n      mload(0x40)\n      0x00\n      mload(0x40)\n      dup1\n      dup4\n      sub\n      dup2\n      dup6\n      dup9\n      dup9\n      call\n      swap4\n      pop\n      pop\n      pop\n      pop\n      iszero\n      dup1\n      iszero\n      tag_110\n      jumpi\n      returndatasize\n      0x00\n      dup1\n      returndatacopy\n      revert(0x00, returndatasize)\n    tag_110:\n      pop\n        /* \"Campaign.sol\":2747:2751  true */\n      0x01\n        /* \"Campaign.sol\":2728:2735  request */\n      dup2\n        /* \"Campaign.sol\":2728:2744  request.complete */\n      0x02\n      add\n      0x14\n        /* \"Campaign.sol\":2728:2751  request.complete = true */\n      0x0100\n      exp\n      dup2\n      sload\n      dup2\n      0xff\n      mul\n      not\n      and\n      swap1\n      dup4\n      iszero\n      iszero\n      mul\n      or\n      swap1\n      sstore\n      pop\n        /* \"Campaign.sol\":2462:2758  {... */\n      pop\n        /* \"Campaign.sol\":2407:2758  function finalizeRequest(uint index) public restricted {... */\n      pop\n      jump\t// out\n        /* \"Campaign.sol\":835:876  mapping(address => bool) public approvers */\n    tag_29:\n      mstore(0x20, 0x04)\n      dup1\n      0x00\n      mstore\n      keccak256(0x00, 0x40)\n      0x00\n      swap2\n      pop\n      sload\n      swap1\n      0x0100\n      exp\n      swap1\n      div\n      0xff\n      and\n      dup2\n      jump\t// out\n        /* \"Campaign.sol\":759:792  string public campaignDescription */\n    tag_34:\n      0x02\n      dup1\n      sload\n      tag_111\n      swap1\n      tag_112\n      jump\t// in\n    tag_111:\n      dup1\n      0x1f\n      add\n      0x20\n      dup1\n      swap2\n      div\n      mul\n      0x20\n      add\n      mload(0x40)\n      swap1\n      dup2\n      add\n      0x40\n      mstore\n      dup1\n      swap3\n      swap2\n      swap1\n      dup2\n      dup2\n      mstore\n      0x20\n      add\n      dup3\n      dup1\n      sload\n      tag_113\n      swap1\n      tag_112\n      jump\t// in\n    tag_113:\n      dup1\n      iszero\n      tag_114\n      jumpi\n      dup1\n      0x1f\n      lt\n      tag_115\n      jumpi\n      0x0100\n      dup1\n      dup4\n      sload\n      div\n      mul\n      dup4\n      mstore\n      swap2\n      0x20\n      add\n      swap2\n      jump(tag_114)\n    tag_115:\n      dup3\n      add\n      swap2\n      swap1\n      0x00\n      mstore\n      keccak256(0x00, 0x20)\n      swap1\n    tag_116:\n      dup2\n      sload\n      dup2\n      mstore\n      swap1\n      0x01\n      add\n      swap1\n      0x20\n      add\n      dup1\n      dup4\n      gt\n      tag_116\n      jumpi\n      dup3\n      swap1\n      sub\n      0x1f\n      and\n      dup3\n      add\n      swap2\n    tag_114:\n      pop\n      pop\n      pop\n      pop\n      pop\n      dup2\n      jump\t// out\n        /* \"Campaign.sol\":914:980  mapping(uint => mapping(address => bool)) public approvedAddresses */\n    tag_41:\n      mstore(0x20, 0x06)\n      dup2\n      0x00\n      mstore\n      mstore(0x20, keccak256(0x00, 0x40))\n      dup1\n      0x00\n      mstore\n      keccak256(0x00, 0x40)\n      0x00\n      swap2\n      pop\n      swap2\n      pop\n      swap1\n      sload\n      swap1\n      0x0100\n      exp\n      swap1\n      div\n      0xff\n      and\n      dup2\n      jump\t// out\n        /* \"Campaign.sol\":2956:3050  function getRequestsCount() public view returns (uint) {... */\n    tag_45:\n        /* \"Campaign.sol\":3005:3009  uint */\n      0x00\n        /* \"Campaign.sol\":3028:3036  requests */\n      0x07\n        /* \"Campaign.sol\":3028:3043  requests.length */\n      dup1\n      sload\n      swap1\n      pop\n        /* \"Campaign.sol\":3021:3043  return requests.length */\n      swap1\n      pop\n        /* \"Campaign.sol\":2956:3050  function getRequestsCount() public view returns (uint) {... */\n      swap1\n      jump\t// out\n        /* \"Campaign.sol\":2764:2950  function getSummary() public view returns (uint, uint, uint, uint, address) {... */\n    tag_50:\n        /* \"Campaign.sol\":2807:2811  uint */\n      0x00\n        /* \"Campaign.sol\":2813:2817  uint */\n      dup1\n        /* \"Campaign.sol\":2819:2823  uint */\n      0x00\n        /* \"Campaign.sol\":2825:2829  uint */\n      dup1\n        /* \"Campaign.sol\":2831:2838  address */\n      0x00\n        /* \"Campaign.sol\":2858:2877  minimumContribution */\n      sload(0x03)\n        /* \"Campaign.sol\":2879:2900  address(this).balance */\n      selfbalance\n        /* \"Campaign.sol\":2902:2910  requests */\n      0x07\n        /* \"Campaign.sol\":2902:2917  requests.length */\n      dup1\n      sload\n      swap1\n      pop\n        /* \"Campaign.sol\":2919:2933  approversCount */\n      sload(0x05)\n        /* \"Campaign.sol\":2935:2942  manager */\n      0x00\n      dup1\n      sload\n      swap1\n      0x0100\n      exp\n      swap1\n      div\n      0xffffffffffffffffffffffffffffffffffffffff\n      and\n        /* \"Campaign.sol\":2850:2943  return (minimumContribution, address(this).balance, requests.length, approversCount, manager) */\n      swap5\n      pop\n      swap5\n      pop\n      swap5\n      pop\n      swap5\n      pop\n      swap5\n      pop\n        /* \"Campaign.sol\":2764:2950  function getSummary() public view returns (uint, uint, uint, uint, address) {... */\n      swap1\n      swap2\n      swap3\n      swap4\n      swap5\n      jump\t// out\n        /* \"Campaign.sol\":698:720  address public manager */\n    tag_55:\n      0x00\n      dup1\n      sload\n      swap1\n      0x0100\n      exp\n      swap1\n      div\n      0xffffffffffffffffffffffffffffffffffffffff\n      and\n      dup2\n      jump\t// out\n        /* \"Campaign.sol\":986:1011  Request[] public requests */\n    tag_61:\n      0x07\n      dup2\n      dup2\n      sload\n      dup2\n      lt\n      tag_119\n      jumpi\n      0x00\n      dup1\n      revert\n    tag_119:\n      swap1\n      0x00\n      mstore\n      keccak256(0x00, 0x20)\n      swap1\n      0x04\n      mul\n      add\n      0x00\n      swap2\n      pop\n      swap1\n      pop\n      dup1\n      0x00\n      add\n      dup1\n      sload\n      tag_121\n      swap1\n      tag_112\n      jump\t// in\n    tag_121:\n      dup1\n      0x1f\n      add\n      0x20\n      dup1\n      swap2\n      div\n      mul\n      0x20\n      add\n      mload(0x40)\n      swap1\n      dup2\n      add\n      0x40\n      mstore\n      dup1\n      swap3\n      swap2\n      swap1\n      dup2\n      dup2\n      mstore\n      0x20\n      add\n      dup3\n      dup1\n      sload\n      tag_122\n      swap1\n      tag_112\n      jump\t// in\n    tag_122:\n      dup1\n      iszero\n      tag_123\n      jumpi\n      dup1\n      0x1f\n      lt\n      tag_124\n      jumpi\n      0x0100\n      dup1\n      dup4\n      sload\n      div\n      mul\n      dup4\n      mstore\n      swap2\n      0x20\n      add\n      swap2\n      jump(tag_123)\n    tag_124:\n      dup3\n      add\n      swap2\n      swap1\n      0x00\n      mstore\n      keccak256(0x00, 0x20)\n      swap1\n    tag_125:\n      dup2\n      sload\n      dup2\n      mstore\n      swap1\n      0x01\n      add\n      swap1\n      0x20\n      add\n      dup1\n      dup4\n      gt\n      tag_125\n      jumpi\n      dup3\n      swap1\n      sub\n      0x1f\n      and\n      dup3\n      add\n      swap2\n    tag_123:\n      pop\n      pop\n      pop\n      pop\n      pop\n      swap1\n      dup1\n      0x01\n      add\n      sload\n      swap1\n      dup1\n      0x02\n      add\n      0x00\n      swap1\n      sload\n      swap1\n      0x0100\n      exp\n      swap1\n      div\n      0xffffffffffffffffffffffffffffffffffffffff\n      and\n      swap1\n      dup1\n      0x02\n      add\n      0x14\n      swap1\n      sload\n      swap1\n      0x0100\n      exp\n      swap1\n      div\n      0xff\n      and\n      swap1\n      dup1\n      0x03\n      add\n      sload\n      swap1\n      pop\n      dup6\n      jump\t// out\n        /* \"Campaign.sol\":882:908  uint public approversCount */\n    tag_66:\n      sload(0x05)\n      dup2\n      jump\t// out\n        /* \"Campaign.sol\":726:753  string public campaignTitle */\n    tag_70:\n      0x01\n      dup1\n      sload\n      tag_126\n      swap1\n      tag_112\n      jump\t// in\n    tag_126:\n      dup1\n      0x1f\n      add\n      0x20\n      dup1\n      swap2\n      div\n      mul\n      0x20\n      add\n      mload(0x40)\n      swap1\n      dup2\n      add\n      0x40\n      mstore\n      dup1\n      swap3\n      swap2\n      swap1\n      dup2\n      dup2\n      mstore\n      0x20\n      add\n      dup3\n      dup1\n      sload\n      tag_127\n      swap1\n      tag_112\n      jump\t// in\n    tag_127:\n      dup1\n      iszero\n      tag_128\n      jumpi\n      dup1\n      0x1f\n      lt\n      tag_129\n      jumpi\n      0x0100\n      dup1\n      dup4\n      sload\n      div\n      mul\n      dup4\n      mstore\n      swap2\n      0x20\n      add\n      swap2\n      jump(tag_128)\n    tag_129:\n      dup3\n      add\n      swap2\n      swap1\n      0x00\n      mstore\n      keccak256(0x00, 0x20)\n      swap1\n    tag_130:\n      dup2\n      sload\n      dup2\n      mstore\n      swap1\n      0x01\n      add\n      swap1\n      0x20\n      add\n      dup1\n      dup4\n      gt\n      tag_130\n      jumpi\n      dup3\n      swap1\n      sub\n      0x1f\n      and\n      dup3\n      add\n      swap2\n    tag_128:\n      pop\n      pop\n      pop\n      pop\n      pop\n      dup2\n      jump\t// out\n        /* \"Campaign.sol\":1707:2154  function createRequest(string memory description, uint value, address payable recipient) public restricted {... */\n    tag_76:\n        /* \"Campaign.sol\":1072:1079  manager */\n      0x00\n      dup1\n      sload\n      swap1\n      0x0100\n      exp\n      swap1\n      div\n      0xffffffffffffffffffffffffffffffffffffffff\n      and\n        /* \"Campaign.sol\":1058:1079  msg.sender == manager */\n      0xffffffffffffffffffffffffffffffffffffffff\n      and\n        /* \"Campaign.sol\":1058:1068  msg.sender */\n      caller\n        /* \"Campaign.sol\":1058:1079  msg.sender == manager */\n      0xffffffffffffffffffffffffffffffffffffffff\n      and\n      eq\n        /* \"Campaign.sol\":1050:1109  require(msg.sender == manager, \"Caller is not the manager\") */\n      tag_132\n      jumpi\n      mload(0x40)\n      0x08c379a000000000000000000000000000000000000000000000000000000000\n      dup2\n      mstore\n      0x04\n      add\n      tag_133\n      swap1\n      tag_95\n      jump\t// in\n    tag_133:\n      mload(0x40)\n      dup1\n      swap2\n      sub\n      swap1\n      revert\n    tag_132:\n        /* \"Campaign.sol\":1867:1893  Request storage newRequest */\n      0x00\n        /* \"Campaign.sol\":1896:1904  requests */\n      0x07\n        /* \"Campaign.sol\":1896:1911  requests.push() */\n      0x01\n      dup2\n      0x01\n      dup2\n      sload\n      add\n      dup1\n      dup3\n      sstore\n      dup1\n      swap2\n      pop\n      pop\n      sub\n      swap1\n      0x00\n      mstore\n      keccak256(0x00, 0x20)\n      swap1\n      0x04\n      mul\n      add\n        /* \"Campaign.sol\":1867:1911  Request storage newRequest = requests.push() */\n      swap1\n      pop\n        /* \"Campaign.sol\":1985:1996  description */\n      dup4\n        /* \"Campaign.sol\":1960:1970  newRequest */\n      dup2\n        /* \"Campaign.sol\":1960:1982  newRequest.description */\n      0x00\n      add\n        /* \"Campaign.sol\":1960:1996  newRequest.description = description */\n      swap1\n      dup2\n      tag_136\n      swap2\n      swap1\n      tag_137\n      jump\t// in\n    tag_136:\n      pop\n        /* \"Campaign.sol\":2025:2030  value */\n      dup3\n        /* \"Campaign.sol\":2006:2016  newRequest */\n      dup2\n        /* \"Campaign.sol\":2006:2022  newRequest.value */\n      0x01\n      add\n        /* \"Campaign.sol\":2006:2030  newRequest.value = value */\n      dup2\n      swap1\n      sstore\n      pop\n        /* \"Campaign.sol\":2063:2072  recipient */\n      dup2\n        /* \"Campaign.sol\":2040:2050  newRequest */\n      dup2\n        /* \"Campaign.sol\":2040:2060  newRequest.recipient */\n      0x02\n      add\n      0x00\n        /* \"Campaign.sol\":2040:2072  newRequest.recipient = recipient */\n      0x0100\n      exp\n      dup2\n      sload\n      dup2\n      0xffffffffffffffffffffffffffffffffffffffff\n      mul\n      not\n      and\n      swap1\n      dup4\n      0xffffffffffffffffffffffffffffffffffffffff\n      and\n      mul\n      or\n      swap1\n      sstore\n      pop\n        /* \"Campaign.sol\":2104:2109  false */\n      0x00\n        /* \"Campaign.sol\":2082:2092  newRequest */\n      dup2\n        /* \"Campaign.sol\":2082:2101  newRequest.complete */\n      0x02\n      add\n      0x14\n        /* \"Campaign.sol\":2082:2109  newRequest.complete = false */\n      0x0100\n      exp\n      dup2\n      sload\n      dup2\n      0xff\n      mul\n      not\n      and\n      swap1\n      dup4\n      iszero\n      iszero\n      mul\n      or\n      swap1\n      sstore\n      pop\n        /* \"Campaign.sol\":2146:2147  0 */\n      0x00\n        /* \"Campaign.sol\":2119:2129  newRequest */\n      dup2\n        /* \"Campaign.sol\":2119:2143  newRequest.approvalCount */\n      0x03\n      add\n        /* \"Campaign.sol\":2119:2147  newRequest.approvalCount = 0 */\n      dup2\n      swap1\n      sstore\n      pop\n        /* \"Campaign.sol\":1814:2154  {... */\n      pop\n        /* \"Campaign.sol\":1707:2154  function createRequest(string memory description, uint value, address payable recipient) public restricted {... */\n      pop\n      pop\n      pop\n      jump\t// out\n        /* \"Campaign.sol\":798:829  uint public minimumContribution */\n    tag_79:\n      sload(0x03)\n      dup2\n      jump\t// out\n        /* \"Campaign.sol\":1377:1701  function contribute() public payable {... */\n    tag_82:\n        /* \"Campaign.sol\":1444:1463  minimumContribution */\n      sload(0x03)\n        /* \"Campaign.sol\":1432:1441  msg.value */\n      callvalue\n        /* \"Campaign.sol\":1432:1463  msg.value > minimumContribution */\n      gt\n        /* \"Campaign.sol\":1424:1503  require(msg.value > minimumContribution, \"Minimum contribution is not matched\") */\n      tag_139\n      jumpi\n      mload(0x40)\n      0x08c379a000000000000000000000000000000000000000000000000000000000\n      dup2\n      mstore\n      0x04\n      add\n      tag_140\n      swap1\n      tag_141\n      jump\t// in\n    tag_140:\n      mload(0x40)\n      dup1\n      swap2\n      sub\n      swap1\n      revert\n    tag_139:\n        /* \"Campaign.sol\":1589:1598  approvers */\n      0x04\n        /* \"Campaign.sol\":1589:1610  approvers[msg.sender] */\n      0x00\n        /* \"Campaign.sol\":1599:1609  msg.sender */\n      caller\n        /* \"Campaign.sol\":1589:1610  approvers[msg.sender] */\n      0xffffffffffffffffffffffffffffffffffffffff\n      and\n      0xffffffffffffffffffffffffffffffffffffffff\n      and\n      dup2\n      mstore\n      0x20\n      add\n      swap1\n      dup2\n      mstore\n      0x20\n      add\n      0x00\n      keccak256\n      0x00\n      swap1\n      sload\n      swap1\n      0x0100\n      exp\n      swap1\n      div\n      0xff\n      and\n        /* \"Campaign.sol\":1584:1695  if (!approvers[msg.sender]) {... */\n      tag_142\n      jumpi\n        /* \"Campaign.sol\":1650:1654  true */\n      0x01\n        /* \"Campaign.sol\":1626:1635  approvers */\n      0x04\n        /* \"Campaign.sol\":1626:1647  approvers[msg.sender] */\n      0x00\n        /* \"Campaign.sol\":1636:1646  msg.sender */\n      caller\n        /* \"Campaign.sol\":1626:1647  approvers[msg.sender] */\n      0xffffffffffffffffffffffffffffffffffffffff\n      and\n      0xffffffffffffffffffffffffffffffffffffffff\n      and\n      dup2\n      mstore\n      0x20\n      add\n      swap1\n      dup2\n      mstore\n      0x20\n      add\n      0x00\n      keccak256\n      0x00\n        /* \"Campaign.sol\":1626:1654  approvers[msg.sender] = true */\n      0x0100\n      exp\n      dup2\n      sload\n      dup2\n      0xff\n      mul\n      not\n      and\n      swap1\n      dup4\n      iszero\n      iszero\n      mul\n      or\n      swap1\n      sstore\n      pop\n        /* \"Campaign.sol\":1668:1682  approversCount */\n      0x05\n      0x00\n        /* \"Campaign.sol\":1668:1684  approversCount++ */\n      dup2\n      sload\n      dup1\n      swap3\n      swap2\n      swap1\n      tag_143\n      swap1\n      tag_144\n      jump\t// in\n    tag_143:\n      swap2\n      swap1\n      pop\n      sstore\n      pop\n        /* \"Campaign.sol\":1584:1695  if (!approvers[msg.sender]) {... */\n    tag_142:\n        /* \"Campaign.sol\":1377:1701  function contribute() public payable {... */\n      jump\t// out\n        /* \"Campaign.sol\":2160:2401  function approveRequest(uint index) public {... */\n    tag_86:\n        /* \"Campaign.sol\":2221:2230  approvers */\n      0x04\n        /* \"Campaign.sol\":2221:2242  approvers[msg.sender] */\n      0x00\n        /* \"Campaign.sol\":2231:2241  msg.sender */\n      caller\n        /* \"Campaign.sol\":2221:2242  approvers[msg.sender] */\n      0xffffffffffffffffffffffffffffffffffffffff\n      and\n      0xffffffffffffffffffffffffffffffffffffffff\n      and\n      dup2\n      mstore\n      0x20\n      add\n      swap1\n      dup2\n      mstore\n      0x20\n      add\n      0x00\n      keccak256\n      0x00\n      swap1\n      sload\n      swap1\n      0x0100\n      exp\n      swap1\n      div\n      0xff\n      and\n        /* \"Campaign.sol\":2213:2243  require(approvers[msg.sender]) */\n      tag_146\n      jumpi\n      0x00\n      dup1\n      revert\n    tag_146:\n        /* \"Campaign.sol\":2262:2279  approvedAddresses */\n      0x06\n        /* \"Campaign.sol\":2262:2286  approvedAddresses[index] */\n      0x00\n        /* \"Campaign.sol\":2280:2285  index */\n      dup3\n        /* \"Campaign.sol\":2262:2286  approvedAddresses[index] */\n      dup2\n      mstore\n      0x20\n      add\n      swap1\n      dup2\n      mstore\n      0x20\n      add\n      0x00\n      keccak256\n        /* \"Campaign.sol\":2262:2298  approvedAddresses[index][msg.sender] */\n      0x00\n        /* \"Campaign.sol\":2287:2297  msg.sender */\n      caller\n        /* \"Campaign.sol\":2262:2298  approvedAddresses[index][msg.sender] */\n      0xffffffffffffffffffffffffffffffffffffffff\n      and\n      0xffffffffffffffffffffffffffffffffffffffff\n      and\n      dup2\n      mstore\n      0x20\n      add\n      swap1\n      dup2\n      mstore\n      0x20\n      add\n      0x00\n      keccak256\n      0x00\n      swap1\n      sload\n      swap1\n      0x0100\n      exp\n      swap1\n      div\n      0xff\n      and\n        /* \"Campaign.sol\":2261:2298  !approvedAddresses[index][msg.sender] */\n      iszero\n        /* \"Campaign.sol\":2253:2299  require(!approvedAddresses[index][msg.sender]) */\n      tag_147\n      jumpi\n      0x00\n      dup1\n      revert\n    tag_147:\n        /* \"Campaign.sol\":2349:2353  true */\n      0x01\n        /* \"Campaign.sol\":2310:2327  approvedAddresses */\n      0x06\n        /* \"Campaign.sol\":2310:2334  approvedAddresses[index] */\n      0x00\n        /* \"Campaign.sol\":2328:2333  index */\n      dup4\n        /* \"Campaign.sol\":2310:2334  approvedAddresses[index] */\n      dup2\n      mstore\n      0x20\n      add\n      swap1\n      dup2\n      mstore\n      0x20\n      add\n      0x00\n      keccak256\n        /* \"Campaign.sol\":2310:2346  approvedAddresses[index][msg.sender] */\n      0x00\n        /* \"Campaign.sol\":2335:2345  msg.sender */\n      caller\n        /* \"Campaign.sol\":2310:2346  approvedAddresses[index][msg.sender] */\n      0xffffffffffffffffffffffffffffffffffffffff\n      and\n      0xffffffffffffffffffffffffffffffffffffffff\n      and\n      dup2\n      mstore\n      0x20\n      add\n      swap1\n      dup2\n      mstore\n      0x20\n      add\n      0x00\n      keccak256\n      0x00\n        /* \"Campaign.sol\":2310:2353  approvedAddresses[index][msg.sender] = true */\n      0x0100\n      exp\n      dup2\n      sload\n      dup2\n      0xff\n      mul\n      not\n      and\n      swap1\n      dup4\n      iszero\n      iszero\n      mul\n      or\n      swap1\n      sstore\n      pop\n        /* \"Campaign.sol\":2363:2371  requests */\n      0x07\n        /* \"Campaign.sol\":2372:2377  index */\n      dup2\n        /* \"Campaign.sol\":2363:2378  requests[index] */\n      dup2\n      sload\n      dup2\n      lt\n      tag_148\n      jumpi\n      tag_149\n      tag_99\n      jump\t// in\n    tag_149:\n    tag_148:\n      swap1\n      0x00\n      mstore\n      keccak256(0x00, 0x20)\n      swap1\n      0x04\n      mul\n      add\n        /* \"Campaign.sol\":2363:2392  requests[index].approvalCount */\n      0x03\n      add\n      0x00\n        /* \"Campaign.sol\":2363:2394  requests[index].approvalCount++ */\n      dup2\n      sload\n      dup1\n      swap3\n      swap2\n      swap1\n      tag_151\n      swap1\n      tag_144\n      jump\t// in\n    tag_151:\n      swap2\n      swap1\n      pop\n      sstore\n      pop\n        /* \"Campaign.sol\":2160:2401  function approveRequest(uint index) public {... */\n      pop\n      jump\t// out\n        /* \"Campaign.sol\":3056:3446  function getDetails() public view returns (... */\n    tag_89:\n        /* \"Campaign.sol\":3108:3127  string memory title */\n      0x60\n        /* \"Campaign.sol\":3137:3162  string memory description */\n      dup1\n        /* \"Campaign.sol\":3172:3202  uint minimumContributionAmount */\n      0x00\n        /* \"Campaign.sol\":3212:3224  uint balance */\n      dup1\n        /* \"Campaign.sol\":3234:3256  address managerAddress */\n      0x00\n        /* \"Campaign.sol\":3294:3307  campaignTitle */\n      0x01\n        /* \"Campaign.sol\":3321:3340  campaignDescription */\n      0x02\n        /* \"Campaign.sol\":3354:3373  minimumContribution */\n      sload(0x03)\n        /* \"Campaign.sol\":3387:3408  address(this).balance */\n      selfbalance\n        /* \"Campaign.sol\":3422:3429  manager */\n      0x00\n      dup1\n      sload\n      swap1\n      0x0100\n      exp\n      swap1\n      div\n      0xffffffffffffffffffffffffffffffffffffffff\n      and\n        /* \"Campaign.sol\":3273:3439  return (... */\n      dup5\n      dup1\n      sload\n      tag_153\n      swap1\n      tag_112\n      jump\t// in\n    tag_153:\n      dup1\n      0x1f\n      add\n      0x20\n      dup1\n      swap2\n      div\n      mul\n      0x20\n      add\n      mload(0x40)\n      swap1\n      dup2\n      add\n      0x40\n      mstore\n      dup1\n      swap3\n      swap2\n      swap1\n      dup2\n      dup2\n      mstore\n      0x20\n      add\n      dup3\n      dup1\n      sload\n      tag_154\n      swap1\n      tag_112\n      jump\t// in\n    tag_154:\n      dup1\n      iszero\n      tag_155\n      jumpi\n      dup1\n      0x1f\n      lt\n      tag_156\n      jumpi\n      0x0100\n      dup1\n      dup4\n      sload\n      div\n      mul\n      dup4\n      mstore\n      swap2\n      0x20\n      add\n      swap2\n      jump(tag_155)\n    tag_156:\n      dup3\n      add\n      swap2\n      swap1\n      0x00\n      mstore\n      keccak256(0x00, 0x20)\n      swap1\n    tag_157:\n      dup2\n      sload\n      dup2\n      mstore\n      swap1\n      0x01\n      add\n      swap1\n      0x20\n      add\n      dup1\n      dup4\n      gt\n      tag_157\n      jumpi\n      dup3\n      swap1\n      sub\n      0x1f\n      and\n      dup3\n      add\n      swap2\n    tag_155:\n      pop\n      pop\n      pop\n      pop\n      pop\n      swap5\n      pop\n      dup4\n      dup1\n      sload\n      tag_158\n      swap1\n      tag_112\n      jump\t// in\n    tag_158:\n      dup1\n      0x1f\n      add\n      0x20\n      dup1\n      swap2\n      div\n      mul\n      0x20\n      add\n      mload(0x40)\n      swap1\n      dup2\n      add\n      0x40\n      mstore\n      dup1\n      swap3\n      swap2\n      swap1\n      dup2\n      dup2\n      mstore\n      0x20\n      add\n      dup3\n      dup1\n      sload\n      tag_159\n      swap1\n      tag_112\n      jump\t// in\n    tag_159:\n      dup1\n      iszero\n      tag_160\n      jumpi\n      dup1\n      0x1f\n      lt\n      tag_161\n      jumpi\n      0x0100\n      dup1\n      dup4\n      sload\n      div\n      mul\n      dup4\n      mstore\n      swap2\n      0x20\n      add\n      swap2\n      jump(tag_160)\n    tag_161:\n      dup3\n      add\n      swap2\n      swap1\n      0x00\n      mstore\n      keccak256(0x00, 0x20)\n      swap1\n    tag_162:\n      dup2\n      sload\n      dup2\n      mstore\n      swap1\n      0x01\n      add\n      swap1\n      0x20\n      add\n      dup1\n      dup4\n      gt\n      tag_162\n      jumpi\n      dup3\n      swap1\n      sub\n      0x1f\n      and\n      dup3\n      add\n      swap2\n    tag_160:\n      pop\n      pop\n      pop\n      pop\n      pop\n      swap4\n      pop\n      swap5\n      pop\n      swap5\n      pop\n      swap5\n      pop\n      swap5\n      pop\n      swap5\n      pop\n        /* \"Campaign.sol\":3056:3446  function getDetails() public view returns (... */\n      swap1\n      swap2\n      swap3\n      swap4\n      swap5\n      jump\t// out\n        /* \"#utility.yul\":7:82   */\n    tag_163:\n        /* \"#utility.yul\":40:46   */\n      0x00\n        /* \"#utility.yul\":73:75   */\n      0x40\n        /* \"#utility.yul\":67:76   */\n      mload\n        /* \"#utility.yul\":57:76   */\n      swap1\n      pop\n        /* \"#utility.yul\":7:82   */\n      swap1\n      jump\t// out\n        /* \"#utility.yul\":88:205   */\n    tag_164:\n        /* \"#utility.yul\":197:198   */\n      0x00\n        /* \"#utility.yul\":194:195   */\n      dup1\n        /* \"#utility.yul\":187:199   */\n      revert\n        /* \"#utility.yul\":211:328   */\n    tag_165:\n        /* \"#utility.yul\":320:321   */\n      0x00\n        /* \"#utility.yul\":317:318   */\n      dup1\n        /* \"#utility.yul\":310:322   */\n      revert\n        /* \"#utility.yul\":334:411   */\n    tag_166:\n        /* \"#utility.yul\":371:378   */\n      0x00\n        /* \"#utility.yul\":400:405   */\n      dup2\n        /* \"#utility.yul\":389:405   */\n      swap1\n      pop\n        /* \"#utility.yul\":334:411   */\n      swap2\n      swap1\n      pop\n      jump\t// out\n        /* \"#utility.yul\":417:539   */\n    tag_167:\n        /* \"#utility.yul\":490:514   */\n      tag_227\n        /* \"#utility.yul\":508:513   */\n      dup2\n        /* \"#utility.yul\":490:514   */\n      tag_166\n      jump\t// in\n    tag_227:\n        /* \"#utility.yul\":483:488   */\n      dup2\n        /* \"#utility.yul\":480:515   */\n      eq\n        /* \"#utility.yul\":470:533   */\n      tag_228\n      jumpi\n        /* \"#utility.yul\":529:530   */\n      0x00\n        /* \"#utility.yul\":526:527   */\n      dup1\n        /* \"#utility.yul\":519:531   */\n      revert\n        /* \"#utility.yul\":470:533   */\n    tag_228:\n        /* \"#utility.yul\":417:539   */\n      pop\n      jump\t// out\n        /* \"#utility.yul\":545:684   */\n    tag_168:\n        /* \"#utility.yul\":591:596   */\n      0x00\n        /* \"#utility.yul\":629:635   */\n      dup2\n        /* \"#utility.yul\":616:636   */\n      calldataload\n        /* \"#utility.yul\":607:636   */\n      swap1\n      pop\n        /* \"#utility.yul\":645:678   */\n      tag_230\n        /* \"#utility.yul\":672:677   */\n      dup2\n        /* \"#utility.yul\":645:678   */\n      tag_167\n      jump\t// in\n    tag_230:\n        /* \"#utility.yul\":545:684   */\n      swap3\n      swap2\n      pop\n      pop\n      jump\t// out\n        /* \"#utility.yul\":690:1019   */\n    tag_23:\n        /* \"#utility.yul\":749:755   */\n      0x00\n        /* \"#utility.yul\":798:800   */\n      0x20\n        /* \"#utility.yul\":786:795   */\n      dup3\n        /* \"#utility.yul\":777:784   */\n      dup5\n        /* \"#utility.yul\":773:796   */\n      sub\n        /* \"#utility.yul\":769:801   */\n      slt\n        /* \"#utility.yul\":766:885   */\n      iszero\n      tag_232\n      jumpi\n        /* \"#utility.yul\":804:883   */\n      tag_233\n      tag_164\n      jump\t// in\n    tag_233:\n        /* \"#utility.yul\":766:885   */\n    tag_232:\n        /* \"#utility.yul\":924:925   */\n      0x00\n        /* \"#utility.yul\":949:1002   */\n      tag_234\n        /* \"#utility.yul\":994:1001   */\n      dup5\n        /* \"#utility.yul\":985:991   */\n      dup3\n        /* \"#utility.yul\":974:983   */\n      dup6\n        /* \"#utility.yul\":970:992   */\n      add\n        /* \"#utility.yul\":949:1002   */\n      tag_168\n      jump\t// in\n    tag_234:\n        /* \"#utility.yul\":939:1002   */\n      swap2\n      pop\n        /* \"#utility.yul\":895:1012   */\n      pop\n        /* \"#utility.yul\":690:1019   */\n      swap3\n      swap2\n      pop\n      pop\n      jump\t// out\n        /* \"#utility.yul\":1025:1151   */\n    tag_169:\n        /* \"#utility.yul\":1062:1069   */\n      0x00\n        /* \"#utility.yul\":1102:1144   */\n      0xffffffffffffffffffffffffffffffffffffffff\n        /* \"#utility.yul\":1095:1100   */\n      dup3\n        /* \"#utility.yul\":1091:1145   */\n      and\n        /* \"#utility.yul\":1080:1145   */\n      swap1\n      pop\n        /* \"#utility.yul\":1025:1151   */\n      swap2\n      swap1\n      pop\n      jump\t// out\n        /* \"#utility.yul\":1157:1253   */\n    tag_170:\n        /* \"#utility.yul\":1194:1201   */\n      0x00\n        /* \"#utility.yul\":1223:1247   */\n      tag_237\n        /* \"#utility.yul\":1241:1246   */\n      dup3\n        /* \"#utility.yul\":1223:1247   */\n      tag_169\n      jump\t// in\n    tag_237:\n        /* \"#utility.yul\":1212:1247   */\n      swap1\n      pop\n        /* \"#utility.yul\":1157:1253   */\n      swap2\n      swap1\n      pop\n      jump\t// out\n        /* \"#utility.yul\":1259:1381   */\n    tag_171:\n        /* \"#utility.yul\":1332:1356   */\n      tag_239\n        /* \"#utility.yul\":1350:1355   */\n      dup2\n        /* \"#utility.yul\":1332:1356   */\n      tag_170\n      jump\t// in\n    tag_239:\n        /* \"#utility.yul\":1325:1330   */\n      dup2\n        /* \"#utility.yul\":1322:1357   */\n      eq\n        /* \"#utility.yul\":1312:1375   */\n      tag_240\n      jumpi\n        /* \"#utility.yul\":1371:1372   */\n      0x00\n        /* \"#utility.yul\":1368:1369   */\n      dup1\n        /* \"#utility.yul\":1361:1373   */\n      revert\n        /* \"#utility.yul\":1312:1375   */\n    tag_240:\n        /* \"#utility.yul\":1259:1381   */\n      pop\n      jump\t// out\n        /* \"#utility.yul\":1387:1526   */\n    tag_172:\n        /* \"#utility.yul\":1433:1438   */\n      0x00\n        /* \"#utility.yul\":1471:1477   */\n      dup2\n        /* \"#utility.yul\":1458:1478   */\n      calldataload\n        /* \"#utility.yul\":1449:1478   */\n      swap1\n      pop\n        /* \"#utility.yul\":1487:1520   */\n      tag_242\n        /* \"#utility.yul\":1514:1519   */\n      dup2\n        /* \"#utility.yul\":1487:1520   */\n      tag_171\n      jump\t// in\n    tag_242:\n        /* \"#utility.yul\":1387:1526   */\n      swap3\n      swap2\n      pop\n      pop\n      jump\t// out\n        /* \"#utility.yul\":1532:1861   */\n    tag_28:\n        /* \"#utility.yul\":1591:1597   */\n      0x00\n        /* \"#utility.yul\":1640:1642   */\n      0x20\n        /* \"#utility.yul\":1628:1637   */\n      dup3\n        /* \"#utility.yul\":1619:1626   */\n      dup5\n        /* \"#utility.yul\":1615:1638   */\n      sub\n        /* \"#utility.yul\":1611:1643   */\n      slt\n        /* \"#utility.yul\":1608:1727   */\n      iszero\n      tag_244\n      jumpi\n        /* \"#utility.yul\":1646:1725   */\n      tag_245\n      tag_164\n      jump\t// in\n    tag_245:\n        /* \"#utility.yul\":1608:1727   */\n    tag_244:\n        /* \"#utility.yul\":1766:1767   */\n      0x00\n        /* \"#utility.yul\":1791:1844   */\n      tag_246\n        /* \"#utility.yul\":1836:1843   */\n      dup5\n        /* \"#utility.yul\":1827:1833   */\n      dup3\n        /* \"#utility.yul\":1816:1825   */\n      dup6\n        /* \"#utility.yul\":1812:1834   */\n      add\n        /* \"#utility.yul\":1791:1844   */\n      tag_172\n      jump\t// in\n    tag_246:\n        /* \"#utility.yul\":1781:1844   */\n      swap2\n      pop\n        /* \"#utility.yul\":1737:1854   */\n      pop\n        /* \"#utility.yul\":1532:1861   */\n      swap3\n      swap2\n      pop\n      pop\n      jump\t// out\n        /* \"#utility.yul\":1867:1957   */\n    tag_173:\n        /* \"#utility.yul\":1901:1908   */\n      0x00\n        /* \"#utility.yul\":1944:1949   */\n      dup2\n        /* \"#utility.yul\":1937:1950   */\n      iszero\n        /* \"#utility.yul\":1930:1951   */\n      iszero\n        /* \"#utility.yul\":1919:1951   */\n      swap1\n      pop\n        /* \"#utility.yul\":1867:1957   */\n      swap2\n      swap1\n      pop\n      jump\t// out\n        /* \"#utility.yul\":1963:2072   */\n    tag_174:\n        /* \"#utility.yul\":2044:2065   */\n      tag_249\n        /* \"#utility.yul\":2059:2064   */\n      dup2\n        /* \"#utility.yul\":2044:2065   */\n      tag_173\n      jump\t// in\n    tag_249:\n        /* \"#utility.yul\":2039:2042   */\n      dup3\n        /* \"#utility.yul\":2032:2066   */\n      mstore\n        /* \"#utility.yul\":1963:2072   */\n      pop\n      pop\n      jump\t// out\n        /* \"#utility.yul\":2078:2288   */\n    tag_31:\n        /* \"#utility.yul\":2165:2169   */\n      0x00\n        /* \"#utility.yul\":2203:2205   */\n      0x20\n        /* \"#utility.yul\":2192:2201   */\n      dup3\n        /* \"#utility.yul\":2188:2206   */\n      add\n        /* \"#utility.yul\":2180:2206   */\n      swap1\n      pop\n        /* \"#utility.yul\":2216:2281   */\n      tag_251\n        /* \"#utility.yul\":2278:2279   */\n      0x00\n        /* \"#utility.yul\":2267:2276   */\n      dup4\n        /* \"#utility.yul\":2263:2280   */\n      add\n        /* \"#utility.yul\":2254:2260   */\n      dup5\n        /* \"#utility.yul\":2216:2281   */\n      tag_174\n      jump\t// in\n    tag_251:\n        /* \"#utility.yul\":2078:2288   */\n      swap3\n      swap2\n      pop\n      pop\n      jump\t// out\n        /* \"#utility.yul\":2294:2393   */\n    tag_175:\n        /* \"#utility.yul\":2346:2352   */\n      0x00\n        /* \"#utility.yul\":2380:2385   */\n      dup2\n        /* \"#utility.yul\":2374:2386   */\n      mload\n        /* \"#utility.yul\":2364:2386   */\n      swap1\n      pop\n        /* \"#utility.yul\":2294:2393   */\n      swap2\n      swap1\n      pop\n      jump\t// out\n        /* \"#utility.yul\":2399:2568   */\n    tag_176:\n        /* \"#utility.yul\":2483:2494   */\n      0x00\n        /* \"#utility.yul\":2517:2523   */\n      dup3\n        /* \"#utility.yul\":2512:2515   */\n      dup3\n        /* \"#utility.yul\":2505:2524   */\n      mstore\n        /* \"#utility.yul\":2557:2561   */\n      0x20\n        /* \"#utility.yul\":2552:2555   */\n      dup3\n        /* \"#utility.yul\":2548:2562   */\n      add\n        /* \"#utility.yul\":2533:2562   */\n      swap1\n      pop\n        /* \"#utility.yul\":2399:2568   */\n      swap3\n      swap2\n      pop\n      pop\n      jump\t// out\n        /* \"#utility.yul\":2574:2820   */\n    tag_177:\n        /* \"#utility.yul\":2655:2656   */\n      0x00\n        /* \"#utility.yul\":2665:2778   */\n    tag_255:\n        /* \"#utility.yul\":2679:2685   */\n      dup4\n        /* \"#utility.yul\":2676:2677   */\n      dup2\n        /* \"#utility.yul\":2673:2686   */\n      lt\n        /* \"#utility.yul\":2665:2778   */\n      iszero\n      tag_257\n      jumpi\n        /* \"#utility.yul\":2764:2765   */\n      dup1\n        /* \"#utility.yul\":2759:2762   */\n      dup3\n        /* \"#utility.yul\":2755:2766   */\n      add\n        /* \"#utility.yul\":2749:2767   */\n      mload\n        /* \"#utility.yul\":2745:2746   */\n      dup2\n        /* \"#utility.yul\":2740:2743   */\n      dup5\n        /* \"#utility.yul\":2736:2747   */\n      add\n        /* \"#utility.yul\":2729:2768   */\n      mstore\n        /* \"#utility.yul\":2701:2703   */\n      0x20\n        /* \"#utility.yul\":2698:2699   */\n      dup2\n        /* \"#utility.yul\":2694:2704   */\n      add\n        /* \"#utility.yul\":2689:2704   */\n      swap1\n      pop\n        /* \"#utility.yul\":2665:2778   */\n      jump(tag_255)\n    tag_257:\n        /* \"#utility.yul\":2812:2813   */\n      0x00\n        /* \"#utility.yul\":2803:2809   */\n      dup5\n        /* \"#utility.yul\":2798:2801   */\n      dup5\n        /* \"#utility.yul\":2794:2810   */\n      add\n        /* \"#utility.yul\":2787:2814   */\n      mstore\n        /* \"#utility.yul\":2636:2820   */\n      pop\n        /* \"#utility.yul\":2574:2820   */\n      pop\n      pop\n      pop\n      jump\t// out\n        /* \"#utility.yul\":2826:2928   */\n    tag_178:\n        /* \"#utility.yul\":2867:2873   */\n      0x00\n        /* \"#utility.yul\":2918:2920   */\n      0x1f\n        /* \"#utility.yul\":2914:2921   */\n      not\n        /* \"#utility.yul\":2909:2911   */\n      0x1f\n        /* \"#utility.yul\":2902:2907   */\n      dup4\n        /* \"#utility.yul\":2898:2912   */\n      add\n        /* \"#utility.yul\":2894:2922   */\n      and\n        /* \"#utility.yul\":2884:2922   */\n      swap1\n      pop\n        /* \"#utility.yul\":2826:2928   */\n      swap2\n      swap1\n      pop\n      jump\t// out\n        /* \"#utility.yul\":2934:3311   */\n    tag_179:\n        /* \"#utility.yul\":3022:3025   */\n      0x00\n        /* \"#utility.yul\":3050:3089   */\n      tag_260\n        /* \"#utility.yul\":3083:3088   */\n      dup3\n        /* \"#utility.yul\":3050:3089   */\n      tag_175\n      jump\t// in\n    tag_260:\n        /* \"#utility.yul\":3105:3176   */\n      tag_261\n        /* \"#utility.yul\":3169:3175   */\n      dup2\n        /* \"#utility.yul\":3164:3167   */\n      dup6\n        /* \"#utility.yul\":3105:3176   */\n      tag_176\n      jump\t// in\n    tag_261:\n        /* \"#utility.yul\":3098:3176   */\n      swap4\n      pop\n        /* \"#utility.yul\":3185:3250   */\n      tag_262\n        /* \"#utility.yul\":3243:3249   */\n      dup2\n        /* \"#utility.yul\":3238:3241   */\n      dup6\n        /* \"#utility.yul\":3231:3235   */\n      0x20\n        /* \"#utility.yul\":3224:3229   */\n      dup7\n        /* \"#utility.yul\":3220:3236   */\n      add\n        /* \"#utility.yul\":3185:3250   */\n      tag_177\n      jump\t// in\n    tag_262:\n        /* \"#utility.yul\":3275:3304   */\n      tag_263\n        /* \"#utility.yul\":3297:3303   */\n      dup2\n        /* \"#utility.yul\":3275:3304   */\n      tag_178\n      jump\t// in\n    tag_263:\n        /* \"#utility.yul\":3270:3273   */\n      dup5\n        /* \"#utility.yul\":3266:3305   */\n      add\n        /* \"#utility.yul\":3259:3305   */\n      swap2\n      pop\n        /* \"#utility.yul\":3026:3311   */\n      pop\n        /* \"#utility.yul\":2934:3311   */\n      swap3\n      swap2\n      pop\n      pop\n      jump\t// out\n        /* \"#utility.yul\":3317:3630   */\n    tag_36:\n        /* \"#utility.yul\":3430:3434   */\n      0x00\n        /* \"#utility.yul\":3468:3470   */\n      0x20\n        /* \"#utility.yul\":3457:3466   */\n      dup3\n        /* \"#utility.yul\":3453:3471   */\n      add\n        /* \"#utility.yul\":3445:3471   */\n      swap1\n      pop\n        /* \"#utility.yul\":3517:3526   */\n      dup2\n        /* \"#utility.yul\":3511:3515   */\n      dup2\n        /* \"#utility.yul\":3507:3527   */\n      sub\n        /* \"#utility.yul\":3503:3504   */\n      0x00\n        /* \"#utility.yul\":3492:3501   */\n      dup4\n        /* \"#utility.yul\":3488:3505   */\n      add\n        /* \"#utility.yul\":3481:3528   */\n      mstore\n        /* \"#utility.yul\":3545:3623   */\n      tag_265\n        /* \"#utility.yul\":3618:3622   */\n      dup2\n        /* \"#utility.yul\":3609:3615   */\n      dup5\n        /* \"#utility.yul\":3545:3623   */\n      tag_179\n      jump\t// in\n    tag_265:\n        /* \"#utility.yul\":3537:3623   */\n      swap1\n      pop\n        /* \"#utility.yul\":3317:3630   */\n      swap3\n      swap2\n      pop\n      pop\n      jump\t// out\n        /* \"#utility.yul\":3636:4110   */\n    tag_40:\n        /* \"#utility.yul\":3704:3710   */\n      0x00\n        /* \"#utility.yul\":3712:3718   */\n      dup1\n        /* \"#utility.yul\":3761:3763   */\n      0x40\n        /* \"#utility.yul\":3749:3758   */\n      dup4\n        /* \"#utility.yul\":3740:3747   */\n      dup6\n        /* \"#utility.yul\":3736:3759   */\n      sub\n        /* \"#utility.yul\":3732:3764   */\n      slt\n        /* \"#utility.yul\":3729:3848   */\n      iszero\n      tag_267\n      jumpi\n        /* \"#utility.yul\":3767:3846   */\n      tag_268\n      tag_164\n      jump\t// in\n    tag_268:\n        /* \"#utility.yul\":3729:3848   */\n    tag_267:\n        /* \"#utility.yul\":3887:3888   */\n      0x00\n        /* \"#utility.yul\":3912:3965   */\n      tag_269\n        /* \"#utility.yul\":3957:3964   */\n      dup6\n        /* \"#utility.yul\":3948:3954   */\n      dup3\n        /* \"#utility.yul\":3937:3946   */\n      dup7\n        /* \"#utility.yul\":3933:3955   */\n      add\n        /* \"#utility.yul\":3912:3965   */\n      tag_168\n      jump\t// in\n    tag_269:\n        /* \"#utility.yul\":3902:3965   */\n      swap3\n      pop\n        /* \"#utility.yul\":3858:3975   */\n      pop\n        /* \"#utility.yul\":4014:4016   */\n      0x20\n        /* \"#utility.yul\":4040:4093   */\n      tag_270\n        /* \"#utility.yul\":4085:4092   */\n      dup6\n        /* \"#utility.yul\":4076:4082   */\n      dup3\n        /* \"#utility.yul\":4065:4074   */\n      dup7\n        /* \"#utility.yul\":4061:4083   */\n      add\n        /* \"#utility.yul\":4040:4093   */\n      tag_172\n      jump\t// in\n    tag_270:\n        /* \"#utility.yul\":4030:4093   */\n      swap2\n      pop\n        /* \"#utility.yul\":3985:4103   */\n      pop\n        /* \"#utility.yul\":3636:4110   */\n      swap3\n      pop\n      swap3\n      swap1\n      pop\n      jump\t// out\n        /* \"#utility.yul\":4116:4234   */\n    tag_180:\n        /* \"#utility.yul\":4203:4227   */\n      tag_272\n        /* \"#utility.yul\":4221:4226   */\n      dup2\n        /* \"#utility.yul\":4203:4227   */\n      tag_166\n      jump\t// in\n    tag_272:\n        /* \"#utility.yul\":4198:4201   */\n      dup3\n        /* \"#utility.yul\":4191:4228   */\n      mstore\n        /* \"#utility.yul\":4116:4234   */\n      pop\n      pop\n      jump\t// out\n        /* \"#utility.yul\":4240:4462   */\n    tag_47:\n        /* \"#utility.yul\":4333:4337   */\n      0x00\n        /* \"#utility.yul\":4371:4373   */\n      0x20\n        /* \"#utility.yul\":4360:4369   */\n      dup3\n        /* \"#utility.yul\":4356:4374   */\n      add\n        /* \"#utility.yul\":4348:4374   */\n      swap1\n      pop\n        /* \"#utility.yul\":4384:4455   */\n      tag_274\n        /* \"#utility.yul\":4452:4453   */\n      0x00\n        /* \"#utility.yul\":4441:4450   */\n      dup4\n        /* \"#utility.yul\":4437:4454   */\n      add\n        /* \"#utility.yul\":4428:4434   */\n      dup5\n        /* \"#utility.yul\":4384:4455   */\n      tag_180\n      jump\t// in\n    tag_274:\n        /* \"#utility.yul\":4240:4462   */\n      swap3\n      swap2\n      pop\n      pop\n      jump\t// out\n        /* \"#utility.yul\":4468:4586   */\n    tag_181:\n        /* \"#utility.yul\":4555:4579   */\n      tag_276\n        /* \"#utility.yul\":4573:4578   */\n      dup2\n        /* \"#utility.yul\":4555:4579   */\n      tag_170\n      jump\t// in\n    tag_276:\n        /* \"#utility.yul\":4550:4553   */\n      dup3\n        /* \"#utility.yul\":4543:4580   */\n      mstore\n        /* \"#utility.yul\":4468:4586   */\n      pop\n      pop\n      jump\t// out\n        /* \"#utility.yul\":4592:5256   */\n    tag_52:\n        /* \"#utility.yul\":4797:4801   */\n      0x00\n        /* \"#utility.yul\":4835:4838   */\n      0xa0\n        /* \"#utility.yul\":4824:4833   */\n      dup3\n        /* \"#utility.yul\":4820:4839   */\n      add\n        /* \"#utility.yul\":4812:4839   */\n      swap1\n      pop\n        /* \"#utility.yul\":4849:4920   */\n      tag_278\n        /* \"#utility.yul\":4917:4918   */\n      0x00\n        /* \"#utility.yul\":4906:4915   */\n      dup4\n        /* \"#utility.yul\":4902:4919   */\n      add\n        /* \"#utility.yul\":4893:4899   */\n      dup9\n        /* \"#utility.yul\":4849:4920   */\n      tag_180\n      jump\t// in\n    tag_278:\n        /* \"#utility.yul\":4930:5002   */\n      tag_279\n        /* \"#utility.yul\":4998:5000   */\n      0x20\n        /* \"#utility.yul\":4987:4996   */\n      dup4\n        /* \"#utility.yul\":4983:5001   */\n      add\n        /* \"#utility.yul\":4974:4980   */\n      dup8\n        /* \"#utility.yul\":4930:5002   */\n      tag_180\n      jump\t// in\n    tag_279:\n        /* \"#utility.yul\":5012:5084   */\n      tag_280\n        /* \"#utility.yul\":5080:5082   */\n      0x40\n        /* \"#utility.yul\":5069:5078   */\n      dup4\n        /* \"#utility.yul\":5065:5083   */\n      add\n        /* \"#utility.yul\":5056:5062   */\n      dup7\n        /* \"#utility.yul\":5012:5084   */\n      tag_180\n      jump\t// in\n    tag_280:\n        /* \"#utility.yul\":5094:5166   */\n      tag_281\n        /* \"#utility.yul\":5162:5164   */\n      0x60\n        /* \"#utility.yul\":5151:5160   */\n      dup4\n        /* \"#utility.yul\":5147:5165   */\n      add\n        /* \"#utility.yul\":5138:5144   */\n      dup6\n        /* \"#utility.yul\":5094:5166   */\n      tag_180\n      jump\t// in\n    tag_281:\n        /* \"#utility.yul\":5176:5249   */\n      tag_282\n        /* \"#utility.yul\":5244:5247   */\n      0x80\n        /* \"#utility.yul\":5233:5242   */\n      dup4\n        /* \"#utility.yul\":5229:5248   */\n      add\n        /* \"#utility.yul\":5220:5226   */\n      dup5\n        /* \"#utility.yul\":5176:5249   */\n      tag_181\n      jump\t// in\n    tag_282:\n        /* \"#utility.yul\":4592:5256   */\n      swap7\n      swap6\n      pop\n      pop\n      pop\n      pop\n      pop\n      pop\n      jump\t// out\n        /* \"#utility.yul\":5262:5484   */\n    tag_57:\n        /* \"#utility.yul\":5355:5359   */\n      0x00\n        /* \"#utility.yul\":5393:5395   */\n      0x20\n        /* \"#utility.yul\":5382:5391   */\n      dup3\n        /* \"#utility.yul\":5378:5396   */\n      add\n        /* \"#utility.yul\":5370:5396   */\n      swap1\n      pop\n        /* \"#utility.yul\":5406:5477   */\n      tag_284\n        /* \"#utility.yul\":5474:5475   */\n      0x00\n        /* \"#utility.yul\":5463:5472   */\n      dup4\n        /* \"#utility.yul\":5459:5476   */\n      add\n        /* \"#utility.yul\":5450:5456   */\n      dup5\n        /* \"#utility.yul\":5406:5477   */\n      tag_181\n      jump\t// in\n    tag_284:\n        /* \"#utility.yul\":5262:5484   */\n      swap3\n      swap2\n      pop\n      pop\n      jump\t// out\n        /* \"#utility.yul\":5490:5594   */\n    tag_182:\n        /* \"#utility.yul\":5535:5542   */\n      0x00\n        /* \"#utility.yul\":5564:5588   */\n      tag_286\n        /* \"#utility.yul\":5582:5587   */\n      dup3\n        /* \"#utility.yul\":5564:5588   */\n      tag_169\n      jump\t// in\n    tag_286:\n        /* \"#utility.yul\":5553:5588   */\n      swap1\n      pop\n        /* \"#utility.yul\":5490:5594   */\n      swap2\n      swap1\n      pop\n      jump\t// out\n        /* \"#utility.yul\":5600:5742   */\n    tag_183:\n        /* \"#utility.yul\":5703:5735   */\n      tag_288\n        /* \"#utility.yul\":5729:5734   */\n      dup2\n        /* \"#utility.yul\":5703:5735   */\n      tag_182\n      jump\t// in\n    tag_288:\n        /* \"#utility.yul\":5698:5701   */\n      dup3\n        /* \"#utility.yul\":5691:5736   */\n      mstore\n        /* \"#utility.yul\":5600:5742   */\n      pop\n      pop\n      jump\t// out\n        /* \"#utility.yul\":5748:6523   */\n    tag_63:\n        /* \"#utility.yul\":5983:5987   */\n      0x00\n        /* \"#utility.yul\":6021:6024   */\n      0xa0\n        /* \"#utility.yul\":6010:6019   */\n      dup3\n        /* \"#utility.yul\":6006:6025   */\n      add\n        /* \"#utility.yul\":5998:6025   */\n      swap1\n      pop\n        /* \"#utility.yul\":6071:6080   */\n      dup2\n        /* \"#utility.yul\":6065:6069   */\n      dup2\n        /* \"#utility.yul\":6061:6081   */\n      sub\n        /* \"#utility.yul\":6057:6058   */\n      0x00\n        /* \"#utility.yul\":6046:6055   */\n      dup4\n        /* \"#utility.yul\":6042:6059   */\n      add\n        /* \"#utility.yul\":6035:6082   */\n      mstore\n        /* \"#utility.yul\":6099:6177   */\n      tag_290\n        /* \"#utility.yul\":6172:6176   */\n      dup2\n        /* \"#utility.yul\":6163:6169   */\n      dup9\n        /* \"#utility.yul\":6099:6177   */\n      tag_179\n      jump\t// in\n    tag_290:\n        /* \"#utility.yul\":6091:6177   */\n      swap1\n      pop\n        /* \"#utility.yul\":6187:6259   */\n      tag_291\n        /* \"#utility.yul\":6255:6257   */\n      0x20\n        /* \"#utility.yul\":6244:6253   */\n      dup4\n        /* \"#utility.yul\":6240:6258   */\n      add\n        /* \"#utility.yul\":6231:6237   */\n      dup8\n        /* \"#utility.yul\":6187:6259   */\n      tag_180\n      jump\t// in\n    tag_291:\n        /* \"#utility.yul\":6269:6357   */\n      tag_292\n        /* \"#utility.yul\":6353:6355   */\n      0x40\n        /* \"#utility.yul\":6342:6351   */\n      dup4\n        /* \"#utility.yul\":6338:6356   */\n      add\n        /* \"#utility.yul\":6329:6335   */\n      dup7\n        /* \"#utility.yul\":6269:6357   */\n      tag_183\n      jump\t// in\n    tag_292:\n        /* \"#utility.yul\":6367:6433   */\n      tag_293\n        /* \"#utility.yul\":6429:6431   */\n      0x60\n        /* \"#utility.yul\":6418:6427   */\n      dup4\n        /* \"#utility.yul\":6414:6432   */\n      add\n        /* \"#utility.yul\":6405:6411   */\n      dup6\n        /* \"#utility.yul\":6367:6433   */\n      tag_174\n      jump\t// in\n    tag_293:\n        /* \"#utility.yul\":6443:6516   */\n      tag_294\n        /* \"#utility.yul\":6511:6514   */\n      0x80\n        /* \"#utility.yul\":6500:6509   */\n      dup4\n        /* \"#utility.yul\":6496:6515   */\n      add\n        /* \"#utility.yul\":6487:6493   */\n      dup5\n        /* \"#utility.yul\":6443:6516   */\n      tag_180\n      jump\t// in\n    tag_294:\n        /* \"#utility.yul\":5748:6523   */\n      swap7\n      swap6\n      pop\n      pop\n      pop\n      pop\n      pop\n      pop\n      jump\t// out\n        /* \"#utility.yul\":6529:6646   */\n    tag_184:\n        /* \"#utility.yul\":6638:6639   */\n      0x00\n        /* \"#utility.yul\":6635:6636   */\n      dup1\n        /* \"#utility.yul\":6628:6640   */\n      revert\n        /* \"#utility.yul\":6652:6769   */\n    tag_185:\n        /* \"#utility.yul\":6761:6762   */\n      0x00\n        /* \"#utility.yul\":6758:6759   */\n      dup1\n        /* \"#utility.yul\":6751:6763   */\n      revert\n        /* \"#utility.yul\":6775:6955   */\n    tag_186:\n        /* \"#utility.yul\":6823:6900   */\n      0x4e487b7100000000000000000000000000000000000000000000000000000000\n        /* \"#utility.yul\":6820:6821   */\n      0x00\n        /* \"#utility.yul\":6813:6901   */\n      mstore\n        /* \"#utility.yul\":6920:6924   */\n      0x41\n        /* \"#utility.yul\":6917:6918   */\n      0x04\n        /* \"#utility.yul\":6910:6925   */\n      mstore\n        /* \"#utility.yul\":6944:6948   */\n      0x24\n        /* \"#utility.yul\":6941:6942   */\n      0x00\n        /* \"#utility.yul\":6934:6949   */\n      revert\n        /* \"#utility.yul\":6961:7242   */\n    tag_187:\n        /* \"#utility.yul\":7044:7071   */\n      tag_299\n        /* \"#utility.yul\":7066:7070   */\n      dup3\n        /* \"#utility.yul\":7044:7071   */\n      tag_178\n      jump\t// in\n    tag_299:\n        /* \"#utility.yul\":7036:7042   */\n      dup2\n        /* \"#utility.yul\":7032:7072   */\n      add\n        /* \"#utility.yul\":7174:7180   */\n      dup2\n        /* \"#utility.yul\":7162:7172   */\n      dup2\n        /* \"#utility.yul\":7159:7181   */\n      lt\n        /* \"#utility.yul\":7138:7156   */\n      0xffffffffffffffff\n        /* \"#utility.yul\":7126:7136   */\n      dup3\n        /* \"#utility.yul\":7123:7157   */\n      gt\n        /* \"#utility.yul\":7120:7182   */\n      or\n        /* \"#utility.yul\":7117:7205   */\n      iszero\n      tag_300\n      jumpi\n        /* \"#utility.yul\":7185:7203   */\n      tag_301\n      tag_186\n      jump\t// in\n    tag_301:\n        /* \"#utility.yul\":7117:7205   */\n    tag_300:\n        /* \"#utility.yul\":7225:7235   */\n      dup1\n        /* \"#utility.yul\":7221:7223   */\n      0x40\n        /* \"#utility.yul\":7214:7236   */\n      mstore\n        /* \"#utility.yul\":7004:7242   */\n      pop\n        /* \"#utility.yul\":6961:7242   */\n      pop\n      pop\n      jump\t// out\n        /* \"#utility.yul\":7248:7377   */\n    tag_188:\n        /* \"#utility.yul\":7282:7288   */\n      0x00\n        /* \"#utility.yul\":7309:7329   */\n      tag_303\n      tag_163\n      jump\t// in\n    tag_303:\n        /* \"#utility.yul\":7299:7329   */\n      swap1\n      pop\n        /* \"#utility.yul\":7338:7371   */\n      tag_304\n        /* \"#utility.yul\":7366:7370   */\n      dup3\n        /* \"#utility.yul\":7358:7364   */\n      dup3\n        /* \"#utility.yul\":7338:7371   */\n      tag_187\n      jump\t// in\n    tag_304:\n        /* \"#utility.yul\":7248:7377   */\n      swap2\n      swap1\n      pop\n      jump\t// out\n        /* \"#utility.yul\":7383:7691   */\n    tag_189:\n        /* \"#utility.yul\":7445:7449   */\n      0x00\n        /* \"#utility.yul\":7535:7553   */\n      0xffffffffffffffff\n        /* \"#utility.yul\":7527:7533   */\n      dup3\n        /* \"#utility.yul\":7524:7554   */\n      gt\n        /* \"#utility.yul\":7521:7577   */\n      iszero\n      tag_306\n      jumpi\n        /* \"#utility.yul\":7557:7575   */\n      tag_307\n      tag_186\n      jump\t// in\n    tag_307:\n        /* \"#utility.yul\":7521:7577   */\n    tag_306:\n        /* \"#utility.yul\":7595:7624   */\n      tag_308\n        /* \"#utility.yul\":7617:7623   */\n      dup3\n        /* \"#utility.yul\":7595:7624   */\n      tag_178\n      jump\t// in\n    tag_308:\n        /* \"#utility.yul\":7587:7624   */\n      swap1\n      pop\n        /* \"#utility.yul\":7679:7683   */\n      0x20\n        /* \"#utility.yul\":7673:7677   */\n      dup2\n        /* \"#utility.yul\":7669:7684   */\n      add\n        /* \"#utility.yul\":7661:7684   */\n      swap1\n      pop\n        /* \"#utility.yul\":7383:7691   */\n      swap2\n      swap1\n      pop\n      jump\t// out\n        /* \"#utility.yul\":7697:7843   */\n    tag_190:\n        /* \"#utility.yul\":7794:7800   */\n      dup3\n        /* \"#utility.yul\":7789:7792   */\n      dup2\n        /* \"#utility.yul\":7784:7787   */\n      dup4\n        /* \"#utility.yul\":7771:7801   */\n      calldatacopy\n        /* \"#utility.yul\":7835:7836   */\n      0x00\n        /* \"#utility.yul\":7826:7832   */\n      dup4\n        /* \"#utility.yul\":7821:7824   */\n      dup4\n        /* \"#utility.yul\":7817:7833   */\n      add\n        /* \"#utility.yul\":7810:7837   */\n      mstore\n        /* \"#utility.yul\":7697:7843   */\n      pop\n      pop\n      pop\n      jump\t// out\n        /* \"#utility.yul\":7849:8274   */\n    tag_191:\n        /* \"#utility.yul\":7927:7932   */\n      0x00\n        /* \"#utility.yul\":7952:8018   */\n      tag_311\n        /* \"#utility.yul\":7968:8017   */\n      tag_312\n        /* \"#utility.yul\":8010:8016   */\n      dup5\n        /* \"#utility.yul\":7968:8017   */\n      tag_189\n      jump\t// in\n    tag_312:\n        /* \"#utility.yul\":7952:8018   */\n      tag_188\n      jump\t// in\n    tag_311:\n        /* \"#utility.yul\":7943:8018   */\n      swap1\n      pop\n        /* \"#utility.yul\":8041:8047   */\n      dup3\n        /* \"#utility.yul\":8034:8039   */\n      dup2\n        /* \"#utility.yul\":8027:8048   */\n      mstore\n        /* \"#utility.yul\":8079:8083   */\n      0x20\n        /* \"#utility.yul\":8072:8077   */\n      dup2\n        /* \"#utility.yul\":8068:8084   */\n      add\n        /* \"#utility.yul\":8117:8120   */\n      dup5\n        /* \"#utility.yul\":8108:8114   */\n      dup5\n        /* \"#utility.yul\":8103:8106   */\n      dup5\n        /* \"#utility.yul\":8099:8115   */\n      add\n        /* \"#utility.yul\":8096:8121   */\n      gt\n        /* \"#utility.yul\":8093:8205   */\n      iszero\n      tag_313\n      jumpi\n        /* \"#utility.yul\":8124:8203   */\n      tag_314\n      tag_185\n      jump\t// in\n    tag_314:\n        /* \"#utility.yul\":8093:8205   */\n    tag_313:\n        /* \"#utility.yul\":8214:8268   */\n      tag_315\n        /* \"#utility.yul\":8261:8267   */\n      dup5\n        /* \"#utility.yul\":8256:8259   */\n      dup3\n        /* \"#utility.yul\":8251:8254   */\n      dup6\n        /* \"#utility.yul\":8214:8268   */\n      tag_190\n      jump\t// in\n    tag_315:\n        /* \"#utility.yul\":7933:8274   */\n      pop\n        /* \"#utility.yul\":7849:8274   */\n      swap4\n      swap3\n      pop\n      pop\n      pop\n      jump\t// out\n        /* \"#utility.yul\":8294:8634   */\n    tag_192:\n        /* \"#utility.yul\":8350:8355   */\n      0x00\n        /* \"#utility.yul\":8399:8402   */\n      dup3\n        /* \"#utility.yul\":8392:8396   */\n      0x1f\n        /* \"#utility.yul\":8384:8390   */\n      dup4\n        /* \"#utility.yul\":8380:8397   */\n      add\n        /* \"#utility.yul\":8376:8403   */\n      slt\n        /* \"#utility.yul\":8366:8488   */\n      tag_317\n      jumpi\n        /* \"#utility.yul\":8407:8486   */\n      tag_318\n      tag_184\n      jump\t// in\n    tag_318:\n        /* \"#utility.yul\":8366:8488   */\n    tag_317:\n        /* \"#utility.yul\":8524:8530   */\n      dup2\n        /* \"#utility.yul\":8511:8531   */\n      calldataload\n        /* \"#utility.yul\":8549:8628   */\n      tag_319\n        /* \"#utility.yul\":8624:8627   */\n      dup5\n        /* \"#utility.yul\":8616:8622   */\n      dup3\n        /* \"#utility.yul\":8609:8613   */\n      0x20\n        /* \"#utility.yul\":8601:8607   */\n      dup7\n        /* \"#utility.yul\":8597:8614   */\n      add\n        /* \"#utility.yul\":8549:8628   */\n      tag_191\n      jump\t// in\n    tag_319:\n        /* \"#utility.yul\":8540:8628   */\n      swap2\n      pop\n        /* \"#utility.yul\":8356:8634   */\n      pop\n        /* \"#utility.yul\":8294:8634   */\n      swap3\n      swap2\n      pop\n      pop\n      jump\t// out\n        /* \"#utility.yul\":8640:8778   */\n    tag_193:\n        /* \"#utility.yul\":8721:8753   */\n      tag_321\n        /* \"#utility.yul\":8747:8752   */\n      dup2\n        /* \"#utility.yul\":8721:8753   */\n      tag_182\n      jump\t// in\n    tag_321:\n        /* \"#utility.yul\":8714:8719   */\n      dup2\n        /* \"#utility.yul\":8711:8754   */\n      eq\n        /* \"#utility.yul\":8701:8772   */\n      tag_322\n      jumpi\n        /* \"#utility.yul\":8768:8769   */\n      0x00\n        /* \"#utility.yul\":8765:8766   */\n      dup1\n        /* \"#utility.yul\":8758:8770   */\n      revert\n        /* \"#utility.yul\":8701:8772   */\n    tag_322:\n        /* \"#utility.yul\":8640:8778   */\n      pop\n      jump\t// out\n        /* \"#utility.yul\":8784:8939   */\n    tag_194:\n        /* \"#utility.yul\":8838:8843   */\n      0x00\n        /* \"#utility.yul\":8876:8882   */\n      dup2\n        /* \"#utility.yul\":8863:8883   */\n      calldataload\n        /* \"#utility.yul\":8854:8883   */\n      swap1\n      pop\n        /* \"#utility.yul\":8892:8933   */\n      tag_324\n        /* \"#utility.yul\":8927:8932   */\n      dup2\n        /* \"#utility.yul\":8892:8933   */\n      tag_193\n      jump\t// in\n    tag_324:\n        /* \"#utility.yul\":8784:8939   */\n      swap3\n      swap2\n      pop\n      pop\n      jump\t// out\n        /* \"#utility.yul\":8945:9760   */\n    tag_75:\n        /* \"#utility.yul\":9040:9046   */\n      0x00\n        /* \"#utility.yul\":9048:9054   */\n      dup1\n        /* \"#utility.yul\":9056:9062   */\n      0x00\n        /* \"#utility.yul\":9105:9107   */\n      0x60\n        /* \"#utility.yul\":9093:9102   */\n      dup5\n        /* \"#utility.yul\":9084:9091   */\n      dup7\n        /* \"#utility.yul\":9080:9103   */\n      sub\n        /* \"#utility.yul\":9076:9108   */\n      slt\n        /* \"#utility.yul\":9073:9192   */\n      iszero\n      tag_326\n      jumpi\n        /* \"#utility.yul\":9111:9190   */\n      tag_327\n      tag_164\n      jump\t// in\n    tag_327:\n        /* \"#utility.yul\":9073:9192   */\n    tag_326:\n        /* \"#utility.yul\":9259:9260   */\n      0x00\n        /* \"#utility.yul\":9248:9257   */\n      dup5\n        /* \"#utility.yul\":9244:9261   */\n      add\n        /* \"#utility.yul\":9231:9262   */\n      calldataload\n        /* \"#utility.yul\":9289:9307   */\n      0xffffffffffffffff\n        /* \"#utility.yul\":9281:9287   */\n      dup2\n        /* \"#utility.yul\":9278:9308   */\n      gt\n        /* \"#utility.yul\":9275:9392   */\n      iszero\n      tag_328\n      jumpi\n        /* \"#utility.yul\":9311:9390   */\n      tag_329\n      tag_165\n      jump\t// in\n    tag_329:\n        /* \"#utility.yul\":9275:9392   */\n    tag_328:\n        /* \"#utility.yul\":9416:9479   */\n      tag_330\n        /* \"#utility.yul\":9471:9478   */\n      dup7\n        /* \"#utility.yul\":9462:9468   */\n      dup3\n        /* \"#utility.yul\":9451:9460   */\n      dup8\n        /* \"#utility.yul\":9447:9469   */\n      add\n        /* \"#utility.yul\":9416:9479   */\n      tag_192\n      jump\t// in\n    tag_330:\n        /* \"#utility.yul\":9406:9479   */\n      swap4\n      pop\n        /* \"#utility.yul\":9202:9489   */\n      pop\n        /* \"#utility.yul\":9528:9530   */\n      0x20\n        /* \"#utility.yul\":9554:9607   */\n      tag_331\n        /* \"#utility.yul\":9599:9606   */\n      dup7\n        /* \"#utility.yul\":9590:9596   */\n      dup3\n        /* \"#utility.yul\":9579:9588   */\n      dup8\n        /* \"#utility.yul\":9575:9597   */\n      add\n        /* \"#utility.yul\":9554:9607   */\n      tag_168\n      jump\t// in\n    tag_331:\n        /* \"#utility.yul\":9544:9607   */\n      swap3\n      pop\n        /* \"#utility.yul\":9499:9617   */\n      pop\n        /* \"#utility.yul\":9656:9658   */\n      0x40\n        /* \"#utility.yul\":9682:9743   */\n      tag_332\n        /* \"#utility.yul\":9735:9742   */\n      dup7\n        /* \"#utility.yul\":9726:9732   */\n      dup3\n        /* \"#utility.yul\":9715:9724   */\n      dup8\n        /* \"#utility.yul\":9711:9733   */\n      add\n        /* \"#utility.yul\":9682:9743   */\n      tag_194\n      jump\t// in\n    tag_332:\n        /* \"#utility.yul\":9672:9743   */\n      swap2\n      pop\n        /* \"#utility.yul\":9627:9753   */\n      pop\n        /* \"#utility.yul\":8945:9760   */\n      swap3\n      pop\n      swap3\n      pop\n      swap3\n      jump\t// out\n        /* \"#utility.yul\":9766:10612   */\n    tag_91:\n        /* \"#utility.yul\":10011:10015   */\n      0x00\n        /* \"#utility.yul\":10049:10052   */\n      0xa0\n        /* \"#utility.yul\":10038:10047   */\n      dup3\n        /* \"#utility.yul\":10034:10053   */\n      add\n        /* \"#utility.yul\":10026:10053   */\n      swap1\n      pop\n        /* \"#utility.yul\":10099:10108   */\n      dup2\n        /* \"#utility.yul\":10093:10097   */\n      dup2\n        /* \"#utility.yul\":10089:10109   */\n      sub\n        /* \"#utility.yul\":10085:10086   */\n      0x00\n        /* \"#utility.yul\":10074:10083   */\n      dup4\n        /* \"#utility.yul\":10070:10087   */\n      add\n        /* \"#utility.yul\":10063:10110   */\n      mstore\n        /* \"#utility.yul\":10127:10205   */\n      tag_334\n        /* \"#utility.yul\":10200:10204   */\n      dup2\n        /* \"#utility.yul\":10191:10197   */\n      dup9\n        /* \"#utility.yul\":10127:10205   */\n      tag_179\n      jump\t// in\n    tag_334:\n        /* \"#utility.yul\":10119:10205   */\n      swap1\n      pop\n        /* \"#utility.yul\":10252:10261   */\n      dup2\n        /* \"#utility.yul\":10246:10250   */\n      dup2\n        /* \"#utility.yul\":10242:10262   */\n      sub\n        /* \"#utility.yul\":10237:10239   */\n      0x20\n        /* \"#utility.yul\":10226:10235   */\n      dup4\n        /* \"#utility.yul\":10222:10240   */\n      add\n        /* \"#utility.yul\":10215:10263   */\n      mstore\n        /* \"#utility.yul\":10280:10358   */\n      tag_335\n        /* \"#utility.yul\":10353:10357   */\n      dup2\n        /* \"#utility.yul\":10344:10350   */\n      dup8\n        /* \"#utility.yul\":10280:10358   */\n      tag_179\n      jump\t// in\n    tag_335:\n        /* \"#utility.yul\":10272:10358   */\n      swap1\n      pop\n        /* \"#utility.yul\":10368:10440   */\n      tag_336\n        /* \"#utility.yul\":10436:10438   */\n      0x40\n        /* \"#utility.yul\":10425:10434   */\n      dup4\n        /* \"#utility.yul\":10421:10439   */\n      add\n        /* \"#utility.yul\":10412:10418   */\n      dup7\n        /* \"#utility.yul\":10368:10440   */\n      tag_180\n      jump\t// in\n    tag_336:\n        /* \"#utility.yul\":10450:10522   */\n      tag_337\n        /* \"#utility.yul\":10518:10520   */\n      0x60\n        /* \"#utility.yul\":10507:10516   */\n      dup4\n        /* \"#utility.yul\":10503:10521   */\n      add\n        /* \"#utility.yul\":10494:10500   */\n      dup6\n        /* \"#utility.yul\":10450:10522   */\n      tag_180\n      jump\t// in\n    tag_337:\n        /* \"#utility.yul\":10532:10605   */\n      tag_338\n        /* \"#utility.yul\":10600:10603   */\n      0x80\n        /* \"#utility.yul\":10589:10598   */\n      dup4\n        /* \"#utility.yul\":10585:10604   */\n      add\n        /* \"#utility.yul\":10576:10582   */\n      dup5\n        /* \"#utility.yul\":10532:10605   */\n      tag_181\n      jump\t// in\n    tag_338:\n        /* \"#utility.yul\":9766:10612   */\n      swap7\n      swap6\n      pop\n      pop\n      pop\n      pop\n      pop\n      pop\n      jump\t// out\n        /* \"#utility.yul\":10618:10793   */\n    tag_195:\n        /* \"#utility.yul\":10758:10785   */\n      0x43616c6c6572206973206e6f7420746865206d616e6167657200000000000000\n        /* \"#utility.yul\":10754:10755   */\n      0x00\n        /* \"#utility.yul\":10746:10752   */\n      dup3\n        /* \"#utility.yul\":10742:10756   */\n      add\n        /* \"#utility.yul\":10735:10786   */\n      mstore\n        /* \"#utility.yul\":10618:10793   */\n      pop\n      jump\t// out\n        /* \"#utility.yul\":10799:11165   */\n    tag_196:\n        /* \"#utility.yul\":10941:10944   */\n      0x00\n        /* \"#utility.yul\":10962:11029   */\n      tag_341\n        /* \"#utility.yul\":11026:11028   */\n      0x19\n        /* \"#utility.yul\":11021:11024   */\n      dup4\n        /* \"#utility.yul\":10962:11029   */\n      tag_176\n      jump\t// in\n    tag_341:\n        /* \"#utility.yul\":10955:11029   */\n      swap2\n      pop\n        /* \"#utility.yul\":11038:11131   */\n      tag_342\n        /* \"#utility.yul\":11127:11130   */\n      dup3\n        /* \"#utility.yul\":11038:11131   */\n      tag_195\n      jump\t// in\n    tag_342:\n        /* \"#utility.yul\":11156:11158   */\n      0x20\n        /* \"#utility.yul\":11151:11154   */\n      dup3\n        /* \"#utility.yul\":11147:11159   */\n      add\n        /* \"#utility.yul\":11140:11159   */\n      swap1\n      pop\n        /* \"#utility.yul\":10799:11165   */\n      swap2\n      swap1\n      pop\n      jump\t// out\n        /* \"#utility.yul\":11171:11590   */\n    tag_95:\n        /* \"#utility.yul\":11337:11341   */\n      0x00\n        /* \"#utility.yul\":11375:11377   */\n      0x20\n        /* \"#utility.yul\":11364:11373   */\n      dup3\n        /* \"#utility.yul\":11360:11378   */\n      add\n        /* \"#utility.yul\":11352:11378   */\n      swap1\n      pop\n        /* \"#utility.yul\":11424:11433   */\n      dup2\n        /* \"#utility.yul\":11418:11422   */\n      dup2\n        /* \"#utility.yul\":11414:11434   */\n      sub\n        /* \"#utility.yul\":11410:11411   */\n      0x00\n        /* \"#utility.yul\":11399:11408   */\n      dup4\n        /* \"#utility.yul\":11395:11412   */\n      add\n        /* \"#utility.yul\":11388:11435   */\n      mstore\n        /* \"#utility.yul\":11452:11583   */\n      tag_344\n        /* \"#utility.yul\":11578:11582   */\n      dup2\n        /* \"#utility.yul\":11452:11583   */\n      tag_196\n      jump\t// in\n    tag_344:\n        /* \"#utility.yul\":11444:11583   */\n      swap1\n      pop\n        /* \"#utility.yul\":11171:11590   */\n      swap2\n      swap1\n      pop\n      jump\t// out\n        /* \"#utility.yul\":11596:11776   */\n    tag_99:\n        /* \"#utility.yul\":11644:11721   */\n      0x4e487b7100000000000000000000000000000000000000000000000000000000\n        /* \"#utility.yul\":11641:11642   */\n      0x00\n        /* \"#utility.yul\":11634:11722   */\n      mstore\n        /* \"#utility.yul\":11741:11745   */\n      0x32\n        /* \"#utility.yul\":11738:11739   */\n      0x04\n        /* \"#utility.yul\":11731:11746   */\n      mstore\n        /* \"#utility.yul\":11765:11769   */\n      0x24\n        /* \"#utility.yul\":11762:11763   */\n      0x00\n        /* \"#utility.yul\":11755:11770   */\n      revert\n        /* \"#utility.yul\":11782:11962   */\n    tag_197:\n        /* \"#utility.yul\":11830:11907   */\n      0x4e487b7100000000000000000000000000000000000000000000000000000000\n        /* \"#utility.yul\":11827:11828   */\n      0x00\n        /* \"#utility.yul\":11820:11908   */\n      mstore\n        /* \"#utility.yul\":11927:11931   */\n      0x12\n        /* \"#utility.yul\":11924:11925   */\n      0x04\n        /* \"#utility.yul\":11917:11932   */\n      mstore\n        /* \"#utility.yul\":11951:11955   */\n      0x24\n        /* \"#utility.yul\":11948:11949   */\n      0x00\n        /* \"#utility.yul\":11941:11956   */\n      revert\n        /* \"#utility.yul\":11968:12148   */\n    tag_198:\n        /* \"#utility.yul\":12016:12093   */\n      0x4e487b7100000000000000000000000000000000000000000000000000000000\n        /* \"#utility.yul\":12013:12014   */\n      0x00\n        /* \"#utility.yul\":12006:12094   */\n      mstore\n        /* \"#utility.yul\":12113:12117   */\n      0x11\n        /* \"#utility.yul\":12110:12111   */\n      0x04\n        /* \"#utility.yul\":12103:12118   */\n      mstore\n        /* \"#utility.yul\":12137:12141   */\n      0x24\n        /* \"#utility.yul\":12134:12135   */\n      0x00\n        /* \"#utility.yul\":12127:12142   */\n      revert\n        /* \"#utility.yul\":12154:12339   */\n    tag_102:\n        /* \"#utility.yul\":12194:12195   */\n      0x00\n        /* \"#utility.yul\":12211:12231   */\n      tag_349\n        /* \"#utility.yul\":12229:12230   */\n      dup3\n        /* \"#utility.yul\":12211:12231   */\n      tag_166\n      jump\t// in\n    tag_349:\n        /* \"#utility.yul\":12206:12231   */\n      swap2\n      pop\n        /* \"#utility.yul\":12245:12265   */\n      tag_350\n        /* \"#utility.yul\":12263:12264   */\n      dup4\n        /* \"#utility.yul\":12245:12265   */\n      tag_166\n      jump\t// in\n    tag_350:\n        /* \"#utility.yul\":12240:12265   */\n      swap3\n      pop\n        /* \"#utility.yul\":12284:12285   */\n      dup3\n        /* \"#utility.yul\":12274:12309   */\n      tag_351\n      jumpi\n        /* \"#utility.yul\":12289:12307   */\n      tag_352\n      tag_197\n      jump\t// in\n    tag_352:\n        /* \"#utility.yul\":12274:12309   */\n    tag_351:\n        /* \"#utility.yul\":12331:12332   */\n      dup3\n        /* \"#utility.yul\":12328:12329   */\n      dup3\n        /* \"#utility.yul\":12324:12333   */\n      div\n        /* \"#utility.yul\":12319:12333   */\n      swap1\n      pop\n        /* \"#utility.yul\":12154:12339   */\n      swap3\n      swap2\n      pop\n      pop\n      jump\t// out\n        /* \"#utility.yul\":12345:12515   */\n    tag_199:\n        /* \"#utility.yul\":12485:12507   */\n      0x4e6f7420656e6f75676820617070726f76616c73000000000000000000000000\n        /* \"#utility.yul\":12481:12482   */\n      0x00\n        /* \"#utility.yul\":12473:12479   */\n      dup3\n        /* \"#utility.yul\":12469:12483   */\n      add\n        /* \"#utility.yul\":12462:12508   */\n      mstore\n        /* \"#utility.yul\":12345:12515   */\n      pop\n      jump\t// out\n        /* \"#utility.yul\":12521:12887   */\n    tag_200:\n        /* \"#utility.yul\":12663:12666   */\n      0x00\n        /* \"#utility.yul\":12684:12751   */\n      tag_355\n        /* \"#utility.yul\":12748:12750   */\n      0x14\n        /* \"#utility.yul\":12743:12746   */\n      dup4\n        /* \"#utility.yul\":12684:12751   */\n      tag_176\n      jump\t// in\n    tag_355:\n        /* \"#utility.yul\":12677:12751   */\n      swap2\n      pop\n        /* \"#utility.yul\":12760:12853   */\n      tag_356\n        /* \"#utility.yul\":12849:12852   */\n      dup3\n        /* \"#utility.yul\":12760:12853   */\n      tag_199\n      jump\t// in\n    tag_356:\n        /* \"#utility.yul\":12878:12880   */\n      0x20\n        /* \"#utility.yul\":12873:12876   */\n      dup3\n        /* \"#utility.yul\":12869:12881   */\n      add\n        /* \"#utility.yul\":12862:12881   */\n      swap1\n      pop\n        /* \"#utility.yul\":12521:12887   */\n      swap2\n      swap1\n      pop\n      jump\t// out\n        /* \"#utility.yul\":12893:13312   */\n    tag_105:\n        /* \"#utility.yul\":13059:13063   */\n      0x00\n        /* \"#utility.yul\":13097:13099   */\n      0x20\n        /* \"#utility.yul\":13086:13095   */\n      dup3\n        /* \"#utility.yul\":13082:13100   */\n      add\n        /* \"#utility.yul\":13074:13100   */\n      swap1\n      pop\n        /* \"#utility.yul\":13146:13155   */\n      dup2\n        /* \"#utility.yul\":13140:13144   */\n      dup2\n        /* \"#utility.yul\":13136:13156   */\n      sub\n        /* \"#utility.yul\":13132:13133   */\n      0x00\n        /* \"#utility.yul\":13121:13130   */\n      dup4\n        /* \"#utility.yul\":13117:13134   */\n      add\n        /* \"#utility.yul\":13110:13157   */\n      mstore\n        /* \"#utility.yul\":13174:13305   */\n      tag_358\n        /* \"#utility.yul\":13300:13304   */\n      dup2\n        /* \"#utility.yul\":13174:13305   */\n      tag_200\n      jump\t// in\n    tag_358:\n        /* \"#utility.yul\":13166:13305   */\n      swap1\n      pop\n        /* \"#utility.yul\":12893:13312   */\n      swap2\n      swap1\n      pop\n      jump\t// out\n        /* \"#utility.yul\":13318:13493   */\n    tag_201:\n        /* \"#utility.yul\":13458:13485   */\n      0x5265717565737420616c72656164792066696e616c697a656400000000000000\n        /* \"#utility.yul\":13454:13455   */\n      0x00\n        /* \"#utility.yul\":13446:13452   */\n      dup3\n        /* \"#utility.yul\":13442:13456   */\n      add\n        /* \"#utility.yul\":13435:13486   */\n      mstore\n        /* \"#utility.yul\":13318:13493   */\n      pop\n      jump\t// out\n        /* \"#utility.yul\":13499:13865   */\n    tag_202:\n        /* \"#utility.yul\":13641:13644   */\n      0x00\n        /* \"#utility.yul\":13662:13729   */\n      tag_361\n        /* \"#utility.yul\":13726:13728   */\n      0x19\n        /* \"#utility.yul\":13721:13724   */\n      dup4\n        /* \"#utility.yul\":13662:13729   */\n      tag_176\n      jump\t// in\n    tag_361:\n        /* \"#utility.yul\":13655:13729   */\n      swap2\n      pop\n        /* \"#utility.yul\":13738:13831   */\n      tag_362\n        /* \"#utility.yul\":13827:13830   */\n      dup3\n        /* \"#utility.yul\":13738:13831   */\n      tag_201\n      jump\t// in\n    tag_362:\n        /* \"#utility.yul\":13856:13858   */\n      0x20\n        /* \"#utility.yul\":13851:13854   */\n      dup3\n        /* \"#utility.yul\":13847:13859   */\n      add\n        /* \"#utility.yul\":13840:13859   */\n      swap1\n      pop\n        /* \"#utility.yul\":13499:13865   */\n      swap2\n      swap1\n      pop\n      jump\t// out\n        /* \"#utility.yul\":13871:14290   */\n    tag_108:\n        /* \"#utility.yul\":14037:14041   */\n      0x00\n        /* \"#utility.yul\":14075:14077   */\n      0x20\n        /* \"#utility.yul\":14064:14073   */\n      dup3\n        /* \"#utility.yul\":14060:14078   */\n      add\n        /* \"#utility.yul\":14052:14078   */\n      swap1\n      pop\n        /* \"#utility.yul\":14124:14133   */\n      dup2\n        /* \"#utility.yul\":14118:14122   */\n      dup2\n        /* \"#utility.yul\":14114:14134   */\n      sub\n        /* \"#utility.yul\":14110:14111   */\n      0x00\n        /* \"#utility.yul\":14099:14108   */\n      dup4\n        /* \"#utility.yul\":14095:14112   */\n      add\n        /* \"#utility.yul\":14088:14135   */\n      mstore\n        /* \"#utility.yul\":14152:14283   */\n      tag_364\n        /* \"#utility.yul\":14278:14282   */\n      dup2\n        /* \"#utility.yul\":14152:14283   */\n      tag_202\n      jump\t// in\n    tag_364:\n        /* \"#utility.yul\":14144:14283   */\n      swap1\n      pop\n        /* \"#utility.yul\":13871:14290   */\n      swap2\n      swap1\n      pop\n      jump\t// out\n        /* \"#utility.yul\":14296:14476   */\n    tag_203:\n        /* \"#utility.yul\":14344:14421   */\n      0x4e487b7100000000000000000000000000000000000000000000000000000000\n        /* \"#utility.yul\":14341:14342   */\n      0x00\n        /* \"#utility.yul\":14334:14422   */\n      mstore\n        /* \"#utility.yul\":14441:14445   */\n      0x22\n        /* \"#utility.yul\":14438:14439   */\n      0x04\n        /* \"#utility.yul\":14431:14446   */\n      mstore\n        /* \"#utility.yul\":14465:14469   */\n      0x24\n        /* \"#utility.yul\":14462:14463   */\n      0x00\n        /* \"#utility.yul\":14455:14470   */\n      revert\n        /* \"#utility.yul\":14482:14802   */\n    tag_112:\n        /* \"#utility.yul\":14526:14532   */\n      0x00\n        /* \"#utility.yul\":14563:14564   */\n      0x02\n        /* \"#utility.yul\":14557:14561   */\n      dup3\n        /* \"#utility.yul\":14553:14565   */\n      div\n        /* \"#utility.yul\":14543:14565   */\n      swap1\n      pop\n        /* \"#utility.yul\":14610:14611   */\n      0x01\n        /* \"#utility.yul\":14604:14608   */\n      dup3\n        /* \"#utility.yul\":14600:14612   */\n      and\n        /* \"#utility.yul\":14631:14649   */\n      dup1\n        /* \"#utility.yul\":14621:14702   */\n      tag_367\n      jumpi\n        /* \"#utility.yul\":14687:14691   */\n      0x7f\n        /* \"#utility.yul\":14679:14685   */\n      dup3\n        /* \"#utility.yul\":14675:14692   */\n      and\n        /* \"#utility.yul\":14665:14692   */\n      swap2\n      pop\n        /* \"#utility.yul\":14621:14702   */\n    tag_367:\n        /* \"#utility.yul\":14749:14751   */\n      0x20\n        /* \"#utility.yul\":14741:14747   */\n      dup3\n        /* \"#utility.yul\":14738:14752   */\n      lt\n        /* \"#utility.yul\":14718:14736   */\n      dup2\n        /* \"#utility.yul\":14715:14753   */\n      sub\n        /* \"#utility.yul\":14712:14796   */\n      tag_368\n      jumpi\n        /* \"#utility.yul\":14768:14786   */\n      tag_369\n      tag_203\n      jump\t// in\n    tag_369:\n        /* \"#utility.yul\":14712:14796   */\n    tag_368:\n        /* \"#utility.yul\":14533:14802   */\n      pop\n        /* \"#utility.yul\":14482:14802   */\n      swap2\n      swap1\n      pop\n      jump\t// out\n        /* \"#utility.yul\":14808:14949   */\n    tag_204:\n        /* \"#utility.yul\":14857:14861   */\n      0x00\n        /* \"#utility.yul\":14880:14883   */\n      dup2\n        /* \"#utility.yul\":14872:14883   */\n      swap1\n      pop\n        /* \"#utility.yul\":14903:14906   */\n      dup2\n        /* \"#utility.yul\":14900:14901   */\n      0x00\n        /* \"#utility.yul\":14893:14907   */\n      mstore\n        /* \"#utility.yul\":14937:14941   */\n      0x20\n        /* \"#utility.yul\":14934:14935   */\n      0x00\n        /* \"#utility.yul\":14924:14942   */\n      keccak256\n        /* \"#utility.yul\":14916:14942   */\n      swap1\n      pop\n        /* \"#utility.yul\":14808:14949   */\n      swap2\n      swap1\n      pop\n      jump\t// out\n        /* \"#utility.yul\":14955:15048   */\n    tag_205:\n        /* \"#utility.yul\":14992:14998   */\n      0x00\n        /* \"#utility.yul\":15039:15041   */\n      0x20\n        /* \"#utility.yul\":15034:15036   */\n      0x1f\n        /* \"#utility.yul\":15027:15032   */\n      dup4\n        /* \"#utility.yul\":15023:15037   */\n      add\n        /* \"#utility.yul\":15019:15042   */\n      div\n        /* \"#utility.yul\":15009:15042   */\n      swap1\n      pop\n        /* \"#utility.yul\":14955:15048   */\n      swap2\n      swap1\n      pop\n      jump\t// out\n        /* \"#utility.yul\":15054:15161   */\n    tag_206:\n        /* \"#utility.yul\":15098:15106   */\n      0x00\n        /* \"#utility.yul\":15148:15153   */\n      dup3\n        /* \"#utility.yul\":15142:15146   */\n      dup3\n        /* \"#utility.yul\":15138:15154   */\n      shl\n        /* \"#utility.yul\":15117:15154   */\n      swap1\n      pop\n        /* \"#utility.yul\":15054:15161   */\n      swap3\n      swap2\n      pop\n      pop\n      jump\t// out\n        /* \"#utility.yul\":15167:15560   */\n    tag_207:\n        /* \"#utility.yul\":15236:15242   */\n      0x00\n        /* \"#utility.yul\":15286:15287   */\n      0x08\n        /* \"#utility.yul\":15274:15284   */\n      dup4\n        /* \"#utility.yul\":15270:15288   */\n      mul\n        /* \"#utility.yul\":15309:15406   */\n      tag_374\n        /* \"#utility.yul\":15339:15405   */\n      0xffffffffffffffffffffffffffffffffffffffffffffffffffffffffffffffff\n        /* \"#utility.yul\":15328:15337   */\n      dup3\n        /* \"#utility.yul\":15309:15406   */\n      tag_206\n      jump\t// in\n    tag_374:\n        /* \"#utility.yul\":15427:15466   */\n      tag_375\n        /* \"#utility.yul\":15457:15465   */\n      dup7\n        /* \"#utility.yul\":15446:15455   */\n      dup4\n        /* \"#utility.yul\":15427:15466   */\n      tag_206\n      jump\t// in\n    tag_375:\n        /* \"#utility.yul\":15415:15466   */\n      swap6\n      pop\n        /* \"#utility.yul\":15499:15503   */\n      dup1\n        /* \"#utility.yul\":15495:15504   */\n      not\n        /* \"#utility.yul\":15488:15493   */\n      dup5\n        /* \"#utility.yul\":15484:15505   */\n      and\n        /* \"#utility.yul\":15475:15505   */\n      swap4\n      pop\n        /* \"#utility.yul\":15548:15552   */\n      dup1\n        /* \"#utility.yul\":15538:15546   */\n      dup7\n        /* \"#utility.yul\":15534:15553   */\n      and\n        /* \"#utility.yul\":15527:15532   */\n      dup5\n        /* \"#utility.yul\":15524:15554   */\n      or\n        /* \"#utility.yul\":15514:15554   */\n      swap3\n      pop\n        /* \"#utility.yul\":15243:15560   */\n      pop\n      pop\n        /* \"#utility.yul\":15167:15560   */\n      swap4\n      swap3\n      pop\n      pop\n      pop\n      jump\t// out\n        /* \"#utility.yul\":15566:15626   */\n    tag_208:\n        /* \"#utility.yul\":15594:15597   */\n      0x00\n        /* \"#utility.yul\":15615:15620   */\n      dup2\n        /* \"#utility.yul\":15608:15620   */\n      swap1\n      pop\n        /* \"#utility.yul\":15566:15626   */\n      swap2\n      swap1\n      pop\n      jump\t// out\n        /* \"#utility.yul\":15632:15774   */\n    tag_209:\n        /* \"#utility.yul\":15682:15691   */\n      0x00\n        /* \"#utility.yul\":15715:15768   */\n      tag_378\n        /* \"#utility.yul\":15733:15767   */\n      tag_379\n        /* \"#utility.yul\":15742:15766   */\n      tag_380\n        /* \"#utility.yul\":15760:15765   */\n      dup5\n        /* \"#utility.yul\":15742:15766   */\n      tag_166\n      jump\t// in\n    tag_380:\n        /* \"#utility.yul\":15733:15767   */\n      tag_208\n      jump\t// in\n    tag_379:\n        /* \"#utility.yul\":15715:15768   */\n      tag_166\n      jump\t// in\n    tag_378:\n        /* \"#utility.yul\":15702:15768   */\n      swap1\n      pop\n        /* \"#utility.yul\":15632:15774   */\n      swap2\n      swap1\n      pop\n      jump\t// out\n        /* \"#utility.yul\":15780:15855   */\n    tag_210:\n        /* \"#utility.yul\":15823:15826   */\n      0x00\n        /* \"#utility.yul\":15844:15849   */\n      dup2\n        /* \"#utility.yul\":15837:15849   */\n      swap1\n      pop\n        /* \"#utility.yul\":15780:15855   */\n      swap2\n      swap1\n      pop\n      jump\t// out\n        /* \"#utility.yul\":15861:16130   */\n    tag_211:\n        /* \"#utility.yul\":15971:16010   */\n      tag_383\n        /* \"#utility.yul\":16002:16009   */\n      dup4\n        /* \"#utility.yul\":15971:16010   */\n      tag_209\n      jump\t// in\n    tag_383:\n        /* \"#utility.yul\":16032:16123   */\n      tag_384\n        /* \"#utility.yul\":16081:16122   */\n      tag_385\n        /* \"#utility.yul\":16105:16121   */\n      dup3\n        /* \"#utility.yul\":16081:16122   */\n      tag_210\n      jump\t// in\n    tag_385:\n        /* \"#utility.yul\":16073:16079   */\n      dup5\n        /* \"#utility.yul\":16066:16070   */\n      dup5\n        /* \"#utility.yul\":16060:16071   */\n      sload\n        /* \"#utility.yul\":16032:16123   */\n      tag_207\n      jump\t// in\n    tag_384:\n        /* \"#utility.yul\":16026:16030   */\n      dup3\n        /* \"#utility.yul\":16019:16124   */\n      sstore\n        /* \"#utility.yul\":15937:16130   */\n      pop\n        /* \"#utility.yul\":15861:16130   */\n      pop\n      pop\n      pop\n      jump\t// out\n        /* \"#utility.yul\":16136:16209   */\n    tag_212:\n        /* \"#utility.yul\":16181:16184   */\n      0x00\n        /* \"#utility.yul\":16136:16209   */\n      swap1\n      jump\t// out\n        /* \"#utility.yul\":16215:16404   */\n    tag_213:\n        /* \"#utility.yul\":16292:16324   */\n      tag_388\n      tag_212\n      jump\t// in\n    tag_388:\n        /* \"#utility.yul\":16333:16398   */\n      tag_389\n        /* \"#utility.yul\":16391:16397   */\n      dup2\n        /* \"#utility.yul\":16383:16389   */\n      dup5\n        /* \"#utility.yul\":16377:16381   */\n      dup5\n        /* \"#utility.yul\":16333:16398   */\n      tag_211\n      jump\t// in\n    tag_389:\n        /* \"#utility.yul\":16268:16404   */\n      pop\n        /* \"#utility.yul\":16215:16404   */\n      pop\n      pop\n      jump\t// out\n        /* \"#utility.yul\":16410:16596   */\n    tag_214:\n        /* \"#utility.yul\":16470:16590   */\n    tag_391:\n        /* \"#utility.yul\":16487:16490   */\n      dup2\n        /* \"#utility.yul\":16480:16485   */\n      dup2\n        /* \"#utility.yul\":16477:16491   */\n      lt\n        /* \"#utility.yul\":16470:16590   */\n      iszero\n      tag_393\n      jumpi\n        /* \"#utility.yul\":16541:16580   */\n      tag_394\n        /* \"#utility.yul\":16578:16579   */\n      0x00\n        /* \"#utility.yul\":16571:16576   */\n      dup3\n        /* \"#utility.yul\":16541:16580   */\n      tag_213\n      jump\t// in\n    tag_394:\n        /* \"#utility.yul\":16514:16515   */\n      0x01\n        /* \"#utility.yul\":16507:16512   */\n      dup2\n        /* \"#utility.yul\":16503:16516   */\n      add\n        /* \"#utility.yul\":16494:16516   */\n      swap1\n      pop\n        /* \"#utility.yul\":16470:16590   */\n      jump(tag_391)\n    tag_393:\n        /* \"#utility.yul\":16410:16596   */\n      pop\n      pop\n      jump\t// out\n        /* \"#utility.yul\":16602:17145   */\n    tag_215:\n        /* \"#utility.yul\":16703:16705   */\n      0x1f\n        /* \"#utility.yul\":16698:16701   */\n      dup3\n        /* \"#utility.yul\":16695:16706   */\n      gt\n        /* \"#utility.yul\":16692:17138   */\n      iszero\n      tag_396\n      jumpi\n        /* \"#utility.yul\":16737:16775   */\n      tag_397\n        /* \"#utility.yul\":16769:16774   */\n      dup2\n        /* \"#utility.yul\":16737:16775   */\n      tag_204\n      jump\t// in\n    tag_397:\n        /* \"#utility.yul\":16821:16850   */\n      tag_398\n        /* \"#utility.yul\":16839:16849   */\n      dup5\n        /* \"#utility.yul\":16821:16850   */\n      tag_205\n      jump\t// in\n    tag_398:\n        /* \"#utility.yul\":16811:16819   */\n      dup2\n        /* \"#utility.yul\":16807:16851   */\n      add\n        /* \"#utility.yul\":17004:17006   */\n      0x20\n        /* \"#utility.yul\":16992:17002   */\n      dup6\n        /* \"#utility.yul\":16989:17007   */\n      lt\n        /* \"#utility.yul\":16986:17035   */\n      iszero\n      tag_399\n      jumpi\n        /* \"#utility.yul\":17025:17033   */\n      dup2\n        /* \"#utility.yul\":17010:17033   */\n      swap1\n      pop\n        /* \"#utility.yul\":16986:17035   */\n    tag_399:\n        /* \"#utility.yul\":17048:17128   */\n      tag_400\n        /* \"#utility.yul\":17104:17126   */\n      tag_401\n        /* \"#utility.yul\":17122:17125   */\n      dup6\n        /* \"#utility.yul\":17104:17126   */\n      tag_205\n      jump\t// in\n    tag_401:\n        /* \"#utility.yul\":17094:17102   */\n      dup4\n        /* \"#utility.yul\":17090:17127   */\n      add\n        /* \"#utility.yul\":17077:17088   */\n      dup3\n        /* \"#utility.yul\":17048:17128   */\n      tag_214\n      jump\t// in\n    tag_400:\n        /* \"#utility.yul\":16707:17138   */\n      pop\n      pop\n        /* \"#utility.yul\":16692:17138   */\n    tag_396:\n        /* \"#utility.yul\":16602:17145   */\n      pop\n      pop\n      pop\n      jump\t// out\n        /* \"#utility.yul\":17151:17268   */\n    tag_216:\n        /* \"#utility.yul\":17205:17213   */\n      0x00\n        /* \"#utility.yul\":17255:17260   */\n      dup3\n        /* \"#utility.yul\":17249:17253   */\n      dup3\n        /* \"#utility.yul\":17245:17261   */\n      shr\n        /* \"#utility.yul\":17224:17261   */\n      swap1\n      pop\n        /* \"#utility.yul\":17151:17268   */\n      swap3\n      swap2\n      pop\n      pop\n      jump\t// out\n        /* \"#utility.yul\":17274:17443   */\n    tag_217:\n        /* \"#utility.yul\":17318:17324   */\n      0x00\n        /* \"#utility.yul\":17351:17402   */\n      tag_404\n        /* \"#utility.yul\":17399:17400   */\n      0x00\n        /* \"#utility.yul\":17395:17401   */\n      not\n        /* \"#utility.yul\":17387:17392   */\n      dup5\n        /* \"#utility.yul\":17384:17385   */\n      0x08\n        /* \"#utility.yul\":17380:17393   */\n      mul\n        /* \"#utility.yul\":17351:17402   */\n      tag_216\n      jump\t// in\n    tag_404:\n        /* \"#utility.yul\":17347:17403   */\n      not\n        /* \"#utility.yul\":17432:17436   */\n      dup1\n        /* \"#utility.yul\":17426:17430   */\n      dup4\n        /* \"#utility.yul\":17422:17437   */\n      and\n        /* \"#utility.yul\":17412:17437   */\n      swap2\n      pop\n        /* \"#utility.yul\":17325:17443   */\n      pop\n        /* \"#utility.yul\":17274:17443   */\n      swap3\n      swap2\n      pop\n      pop\n      jump\t// out\n        /* \"#utility.yul\":17448:17743   */\n    tag_218:\n        /* \"#utility.yul\":17524:17528   */\n      0x00\n        /* \"#utility.yul\":17670:17699   */\n      tag_406\n        /* \"#utility.yul\":17695:17698   */\n      dup4\n        /* \"#utility.yul\":17689:17693   */\n      dup4\n        /* \"#utility.yul\":17670:17699   */\n      tag_217\n      jump\t// in\n    tag_406:\n        /* \"#utility.yul\":17662:17699   */\n      swap2\n      pop\n        /* \"#utility.yul\":17732:17735   */\n      dup3\n        /* \"#utility.yul\":17729:17730   */\n      0x02\n        /* \"#utility.yul\":17725:17736   */\n      mul\n        /* \"#utility.yul\":17719:17723   */\n      dup3\n        /* \"#utility.yul\":17716:17737   */\n      or\n        /* \"#utility.yul\":17708:17737   */\n      swap1\n      pop\n        /* \"#utility.yul\":17448:17743   */\n      swap3\n      swap2\n      pop\n      pop\n      jump\t// out\n        /* \"#utility.yul\":17748:19143   */\n    tag_137:\n        /* \"#utility.yul\":17865:17902   */\n      tag_408\n        /* \"#utility.yul\":17898:17901   */\n      dup3\n        /* \"#utility.yul\":17865:17902   */\n      tag_175\n      jump\t// in\n    tag_408:\n        /* \"#utility.yul\":17967:17985   */\n      0xffffffffffffffff\n        /* \"#utility.yul\":17959:17965   */\n      dup2\n        /* \"#utility.yul\":17956:17986   */\n      gt\n        /* \"#utility.yul\":17953:18009   */\n      iszero\n      tag_409\n      jumpi\n        /* \"#utility.yul\":17989:18007   */\n      tag_410\n      tag_186\n      jump\t// in\n    tag_410:\n        /* \"#utility.yul\":17953:18009   */\n    tag_409:\n        /* \"#utility.yul\":18033:18071   */\n      tag_411\n        /* \"#utility.yul\":18065:18069   */\n      dup3\n        /* \"#utility.yul\":18059:18070   */\n      sload\n        /* \"#utility.yul\":18033:18071   */\n      tag_112\n      jump\t// in\n    tag_411:\n        /* \"#utility.yul\":18118:18185   */\n      tag_412\n        /* \"#utility.yul\":18178:18184   */\n      dup3\n        /* \"#utility.yul\":18170:18176   */\n      dup3\n        /* \"#utility.yul\":18164:18168   */\n      dup6\n        /* \"#utility.yul\":18118:18185   */\n      tag_215\n      jump\t// in\n    tag_412:\n        /* \"#utility.yul\":18212:18213   */\n      0x00\n        /* \"#utility.yul\":18236:18240   */\n      0x20\n        /* \"#utility.yul\":18223:18240   */\n      swap1\n      pop\n        /* \"#utility.yul\":18268:18270   */\n      0x1f\n        /* \"#utility.yul\":18260:18266   */\n      dup4\n        /* \"#utility.yul\":18257:18271   */\n      gt\n        /* \"#utility.yul\":18285:18286   */\n      0x01\n        /* \"#utility.yul\":18280:18898   */\n      dup2\n      eq\n      tag_414\n      jumpi\n        /* \"#utility.yul\":18942:18943   */\n      0x00\n        /* \"#utility.yul\":18959:18965   */\n      dup5\n        /* \"#utility.yul\":18956:19033   */\n      iszero\n      tag_415\n      jumpi\n        /* \"#utility.yul\":19008:19017   */\n      dup3\n        /* \"#utility.yul\":19003:19006   */\n      dup8\n        /* \"#utility.yul\":18999:19018   */\n      add\n        /* \"#utility.yul\":18993:19019   */\n      mload\n        /* \"#utility.yul\":18984:19019   */\n      swap1\n      pop\n        /* \"#utility.yul\":18956:19033   */\n    tag_415:\n        /* \"#utility.yul\":19059:19126   */\n      tag_416\n        /* \"#utility.yul\":19119:19125   */\n      dup6\n        /* \"#utility.yul\":19112:19117   */\n      dup3\n        /* \"#utility.yul\":19059:19126   */\n      tag_218\n      jump\t// in\n    tag_416:\n        /* \"#utility.yul\":19053:19057   */\n      dup7\n        /* \"#utility.yul\":19046:19127   */\n      sstore\n        /* \"#utility.yul\":18915:19137   */\n      pop\n        /* \"#utility.yul\":18250:19137   */\n      jump(tag_413)\n        /* \"#utility.yul\":18280:18898   */\n    tag_414:\n        /* \"#utility.yul\":18332:18336   */\n      0x1f\n        /* \"#utility.yul\":18328:18337   */\n      not\n        /* \"#utility.yul\":18320:18326   */\n      dup5\n        /* \"#utility.yul\":18316:18338   */\n      and\n        /* \"#utility.yul\":18366:18403   */\n      tag_417\n        /* \"#utility.yul\":18398:18402   */\n      dup7\n        /* \"#utility.yul\":18366:18403   */\n      tag_204\n      jump\t// in\n    tag_417:\n        /* \"#utility.yul\":18425:18426   */\n      0x00\n        /* \"#utility.yul\":18439:18647   */\n    tag_418:\n        /* \"#utility.yul\":18453:18460   */\n      dup3\n        /* \"#utility.yul\":18450:18451   */\n      dup2\n        /* \"#utility.yul\":18447:18461   */\n      lt\n        /* \"#utility.yul\":18439:18647   */\n      iszero\n      tag_420\n      jumpi\n        /* \"#utility.yul\":18532:18541   */\n      dup5\n        /* \"#utility.yul\":18527:18530   */\n      dup10\n        /* \"#utility.yul\":18523:18542   */\n      add\n        /* \"#utility.yul\":18517:18543   */\n      mload\n        /* \"#utility.yul\":18509:18515   */\n      dup3\n        /* \"#utility.yul\":18502:18544   */\n      sstore\n        /* \"#utility.yul\":18583:18584   */\n      0x01\n        /* \"#utility.yul\":18575:18581   */\n      dup3\n        /* \"#utility.yul\":18571:18585   */\n      add\n        /* \"#utility.yul\":18561:18585   */\n      swap2\n      pop\n        /* \"#utility.yul\":18630:18632   */\n      0x20\n        /* \"#utility.yul\":18619:18628   */\n      dup6\n        /* \"#utility.yul\":18615:18633   */\n      add\n        /* \"#utility.yul\":18602:18633   */\n      swap5\n      pop\n        /* \"#utility.yul\":18476:18480   */\n      0x20\n        /* \"#utility.yul\":18473:18474   */\n      dup2\n        /* \"#utility.yul\":18469:18481   */\n      add\n        /* \"#utility.yul\":18464:18481   */\n      swap1\n      pop\n        /* \"#utility.yul\":18439:18647   */\n      jump(tag_418)\n    tag_420:\n        /* \"#utility.yul\":18675:18681   */\n      dup7\n        /* \"#utility.yul\":18666:18673   */\n      dup4\n        /* \"#utility.yul\":18663:18682   */\n      lt\n        /* \"#utility.yul\":18660:18839   */\n      iszero\n      tag_421\n      jumpi\n        /* \"#utility.yul\":18733:18742   */\n      dup5\n        /* \"#utility.yul\":18728:18731   */\n      dup10\n        /* \"#utility.yul\":18724:18743   */\n      add\n        /* \"#utility.yul\":18718:18744   */\n      mload\n        /* \"#utility.yul\":18776:18824   */\n      tag_422\n        /* \"#utility.yul\":18818:18822   */\n      0x1f\n        /* \"#utility.yul\":18810:18816   */\n      dup10\n        /* \"#utility.yul\":18806:18823   */\n      and\n        /* \"#utility.yul\":18795:18804   */\n      dup3\n        /* \"#utility.yul\":18776:18824   */\n      tag_217\n      jump\t// in\n    tag_422:\n        /* \"#utility.yul\":18768:18774   */\n      dup4\n        /* \"#utility.yul\":18761:18825   */\n      sstore\n        /* \"#utility.yul\":18683:18839   */\n      pop\n        /* \"#utility.yul\":18660:18839   */\n    tag_421:\n        /* \"#utility.yul\":18885:18886   */\n      0x01\n        /* \"#utility.yul\":18881:18882   */\n      0x02\n        /* \"#utility.yul\":18873:18879   */\n      dup9\n        /* \"#utility.yul\":18869:18883   */\n      mul\n        /* \"#utility.yul\":18865:18887   */\n      add\n        /* \"#utility.yul\":18859:18863   */\n      dup9\n        /* \"#utility.yul\":18852:18888   */\n      sstore\n        /* \"#utility.yul\":18287:18898   */\n      pop\n      pop\n      pop\n        /* \"#utility.yul\":18250:19137   */\n    tag_413:\n      pop\n        /* \"#utility.yul\":17840:19143   */\n      pop\n      pop\n      pop\n        /* \"#utility.yul\":17748:19143   */\n      pop\n      pop\n      jump\t// out\n        /* \"#utility.yul\":19149:19371   */\n    tag_219:\n        /* \"#utility.yul\":19289:19323   */\n      0x4d696e696d756d20636f6e747269627574696f6e206973206e6f74206d617463\n        /* \"#utility.yul\":19285:19286   */\n      0x00\n        /* \"#utility.yul\":19277:19283   */\n      dup3\n        /* \"#utility.yul\":19273:19287   */\n      add\n        /* \"#utility.yul\":19266:19324   */\n      mstore\n        /* \"#utility.yul\":19358:19363   */\n      0x6865640000000000000000000000000000000000000000000000000000000000\n        /* \"#utility.yul\":19353:19355   */\n      0x20\n        /* \"#utility.yul\":19345:19351   */\n      dup3\n        /* \"#utility.yul\":19341:19356   */\n      add\n        /* \"#utility.yul\":19334:19364   */\n      mstore\n        /* \"#utility.yul\":19149:19371   */\n      pop\n      jump\t// out\n        /* \"#utility.yul\":19377:19743   */\n    tag_220:\n        /* \"#utility.yul\":19519:19522   */\n      0x00\n        /* \"#utility.yul\":19540:19607   */\n      tag_425\n        /* \"#utility.yul\":19604:19606   */\n      0x23\n        /* \"#utility.yul\":19599:19602   */\n      dup4\n        /* \"#utility.yul\":19540:19607   */\n      tag_176\n      jump\t// in\n    tag_425:\n        /* \"#utility.yul\":19533:19607   */\n      swap2\n      pop\n        /* \"#utility.yul\":19616:19709   */\n      tag_426\n        /* \"#utility.yul\":19705:19708   */\n      dup3\n        /* \"#utility.yul\":19616:19709   */\n      tag_219\n      jump\t// in\n    tag_426:\n        /* \"#utility.yul\":19734:19736   */\n      0x40\n        /* \"#utility.yul\":19729:19732   */\n      dup3\n        /* \"#utility.yul\":19725:19737   */\n      add\n        /* \"#utility.yul\":19718:19737   */\n      swap1\n      pop\n        /* \"#utility.yul\":19377:19743   */\n      swap2\n      swap1\n      pop\n      jump\t// out\n        /* \"#utility.yul\":19749:20168   */\n    tag_141:\n        /* \"#utility.yul\":19915:19919   */\n      0x00\n        /* \"#utility.yul\":19953:19955   */\n      0x20\n        /* \"#utility.yul\":19942:19951   */\n      dup3\n        /* \"#utility.yul\":19938:19956   */\n      add\n        /* \"#utility.yul\":19930:19956   */\n      swap1\n      pop\n        /* \"#utility.yul\":20002:20011   */\n      dup2\n        /* \"#utility.yul\":19996:20000   */\n      dup2\n        /* \"#utility.yul\":19992:20012   */\n      sub\n        /* \"#utility.yul\":19988:19989   */\n      0x00\n        /* \"#utility.yul\":19977:19986   */\n      dup4\n        /* \"#utility.yul\":19973:19990   */\n      add\n        /* \"#utility.yul\":19966:20013   */\n      mstore\n        /* \"#utility.yul\":20030:20161   */\n      tag_428\n        /* \"#utility.yul\":20156:20160   */\n      dup2\n        /* \"#utility.yul\":20030:20161   */\n      tag_220\n      jump\t// in\n    tag_428:\n        /* \"#utility.yul\":20022:20161   */\n      swap1\n      pop\n        /* \"#utility.yul\":19749:20168   */\n      swap2\n      swap1\n      pop\n      jump\t// out\n        /* \"#utility.yul\":20174:20407   */\n    tag_144:\n        /* \"#utility.yul\":20213:20216   */\n      0x00\n        /* \"#utility.yul\":20236:20260   */\n      tag_430\n        /* \"#utility.yul\":20254:20259   */\n      dup3\n        /* \"#utility.yul\":20236:20260   */\n      tag_166\n      jump\t// in\n    tag_430:\n        /* \"#utility.yul\":20227:20260   */\n      swap2\n      pop\n        /* \"#utility.yul\":20282:20348   */\n      0xffffffffffffffffffffffffffffffffffffffffffffffffffffffffffffffff\n        /* \"#utility.yul\":20275:20280   */\n      dup3\n        /* \"#utility.yul\":20272:20349   */\n      sub\n        /* \"#utility.yul\":20269:20372   */\n      tag_431\n      jumpi\n        /* \"#utility.yul\":20352:20370   */\n      tag_432\n      tag_198\n      jump\t// in\n    tag_432:\n        /* \"#utility.yul\":20269:20372   */\n    tag_431:\n        /* \"#utility.yul\":20399:20400   */\n      0x01\n        /* \"#utility.yul\":20392:20397   */\n      dup3\n        /* \"#utility.yul\":20388:20401   */\n      add\n        /* \"#utility.yul\":20381:20401   */\n      swap1\n      pop\n        /* \"#utility.yul\":20174:20407   */\n      swap2\n      swap1\n      pop\n      jump\t// out\n\n    auxdata: 0xa26469706673582212201423c7668cb9a73eb0c3c4468cab4cc4287d5296804dfdcf9fb11e40d26420b364736f6c63430008130033\n}\n","bytecode":{"linkReferences":{},"object":"60806040523480156200001157600080fd5b5060405162001f9938038062001f998339818101604052810190620000379190620002df565b826000806101000a81548173ffffffffffffffffffffffffffffffffffffffff021916908373ffffffffffffffffffffffffffffffffffffffff1602179055508360038190555081600190816200008f9190620005d0565b508060029081620000a19190620005d0565b5050505050620006b7565b6000604051905090565b600080fd5b600080fd5b6000819050919050565b620000d581620000c0565b8114620000e157600080fd5b50565b600081519050620000f581620000ca565b92915050565b600073ffffffffffffffffffffffffffffffffffffffff82169050919050565b60006200012882620000fb565b9050919050565b6200013a816200011b565b81146200014657600080fd5b50565b6000815190506200015a816200012f565b92915050565b600080fd5b600080fd5b6000601f19601f8301169050919050565b7f4e487b7100000000000000000000000000000000000000000000000000000000600052604160045260246000fd5b620001b5826200016a565b810181811067ffffffffffffffff82111715620001d757620001d66200017b565b5b80604052505050565b6000620001ec620000ac565b9050620001fa8282620001aa565b919050565b600067ffffffffffffffff8211156200021d576200021c6200017b565b5b62000228826200016a565b9050602081019050919050565b60005b838110156200025557808201518184015260208101905062000238565b60008484015250505050565b6000620002786200027284620001ff565b620001e0565b90508281526020810184848401111562000297576200029662000165565b5b620002a484828562000235565b509392505050565b600082601f830112620002c457620002c362000160565b5b8151620002d684826020860162000261565b91505092915050565b60008060008060808587031215620002fc57620002fb620000b6565b5b60006200030c87828801620000e4565b94505060206200031f8782880162000149565b935050604085015167ffffffffffffffff811115620003435762000342620000bb565b5b6200035187828801620002ac565b925050606085015167ffffffffffffffff811115620003755762000374620000bb565b5b6200038387828801620002ac565b91505092959194509250565b600081519050919050565b7f4e487b7100000000000000000000000000000000000000000000000000000000600052602260045260246000fd5b60006002820490506001821680620003e257607f821691505b602082108103620003f857620003f76200039a565b5b50919050565b60008190508160005260206000209050919050565b60006020601f8301049050919050565b600082821b905092915050565b600060088302620004627fffffffffffffffffffffffffffffffffffffffffffffffffffffffffffffffff8262000423565b6200046e868362000423565b95508019841693508086168417925050509392505050565b6000819050919050565b6000620004b1620004ab620004a584620000c0565b62000486565b620000c0565b9050919050565b6000819050919050565b620004cd8362000490565b620004e5620004dc82620004b8565b84845462000430565b825550505050565b600090565b620004fc620004ed565b62000509818484620004c2565b505050565b5b81811015620005315762000525600082620004f2565b6001810190506200050f565b5050565b601f82111562000580576200054a81620003fe565b620005558462000413565b8101602085101562000565578190505b6200057d620005748562000413565b8301826200050e565b50505b505050565b600082821c905092915050565b6000620005a56000198460080262000585565b1980831691505092915050565b6000620005c0838362000592565b9150826002028217905092915050565b620005db826200038f565b67ffffffffffffffff811115620005f757620005f66200017b565b5b620006038254620003c9565b6200061082828562000535565b600060209050601f83116001811462000648576000841562000633578287015190505b6200063f8582620005b2565b865550620006af565b601f1984166200065886620003fe565b60005b8281101562000682578489015182556001820191506020850194506020810190506200065b565b86831015620006a257848901516200069e601f89168262000592565b8355505b6001600288020188555050505b505050505050565b6118d280620006c76000396000f3fe6080604052600436106100e85760003560e01c806381d12c581161008a578063937e09b111610059578063937e09b114610300578063d7bb99ba1461032b578063d7d1bbdb14610335578063fbbf93a01461035e576100e8565b806381d12c581461024057806382fde09314610281578063835a6172146102ac5780638a9cfd55146102d7576100e8565b806333f449e5116100c657806333f449e51461017e5780633410452a146101bb5780634051ddac146101e6578063481c6a7514610215576100e8565b806303441006146100ed5780630a14439114610116578063110842cb14610153575b600080fd5b3480156100f957600080fd5b50610114600480360381019061010f9190610daf565b61038d565b005b34801561012257600080fd5b5061013d60048036038101906101389190610e3a565b610577565b60405161014a9190610e82565b60405180910390f35b34801561015f57600080fd5b50610168610597565b6040516101759190610f2d565b60405180910390f35b34801561018a57600080fd5b506101a560048036038101906101a09190610f4f565b610625565b6040516101b29190610e82565b60405180910390f35b3480156101c757600080fd5b506101d0610654565b6040516101dd9190610f9e565b60405180910390f35b3480156101f257600080fd5b506101fb610661565b60405161020c959493929190610fc8565b60405180910390f35b34801561022157600080fd5b5061022a6106a8565b604051610237919061101b565b60405180910390f35b34801561024c57600080fd5b5061026760048036038101906102629190610daf565b6106cc565b604051610278959493929190611057565b60405180910390f35b34801561028d57600080fd5b506102966107c7565b6040516102a39190610f9e565b60405180910390f35b3480156102b857600080fd5b506102c16107cd565b6040516102ce9190610f2d565b60405180910390f35b3480156102e357600080fd5b506102fe60048036038101906102f99190611212565b61085b565b005b34801561030c57600080fd5b50610315610998565b6040516103229190610f9e565b60405180910390f35b61033361099e565b005b34801561034157600080fd5b5061035c60048036038101906103579190610daf565b610aa6565b005b34801561036a57600080fd5b50610373610c0b565b604051610384959493929190611281565b60405180910390f35b60008054906101000a900473ffffffffffffffffffffffffffffffffffffffff1673ffffffffffffffffffffffffffffffffffffffff163373ffffffffffffffffffffffffffffffffffffffff161461041b576040517f08c379a00000000000000000000000000000000000000000000000000000000081526004016104129061132e565b60405180910390fd5b6000600782815481106104315761043061134e565b5b90600052602060002090600402019050600260055461045091906113db565b816003015411610495576040517f08c379a000000000000000000000000000000000000000000000000000000000815260040161048c90611458565b60405180910390fd5b8060020160149054906101000a900460ff16156104e7576040517f08c379a00000000000000000000000000000000000000000000000000000000081526004016104de906114c4565b60405180910390fd5b8060020160009054906101000a900473ffffffffffffffffffffffffffffffffffffffff1673ffffffffffffffffffffffffffffffffffffffff166108fc82600101549081150290604051600060405180830381858888f19350505050158015610555573d6000803e3d6000fd5b5060018160020160146101000a81548160ff0219169083151502179055505050565b60046020528060005260406000206000915054906101000a900460ff1681565b600280546105a490611513565b80601f01602080910402602001604051908101604052809291908181526020018280546105d090611513565b801561061d5780601f106105f25761010080835404028352916020019161061d565b820191906000526020600020905b81548152906001019060200180831161060057829003601f168201915b505050505081565b60066020528160005260406000206020528060005260406000206000915091509054906101000a900460ff1681565b6000600780549050905090565b60008060008060006003544760078054905060055460008054906101000a900473ffffffffffffffffffffffffffffffffffffffff16945094509450945094509091929394565b60008054906101000a900473ffffffffffffffffffffffffffffffffffffffff1681565b600781815481106106dc57600080fd5b90600052602060002090600402016000915090508060000180546106ff90611513565b80601f016020809104026020016040519081016040528092919081815260200182805461072b90611513565b80156107785780601f1061074d57610100808354040283529160200191610778565b820191906000526020600020905b81548152906001019060200180831161075b57829003601f168201915b5050505050908060010154908060020160009054906101000a900473ffffffffffffffffffffffffffffffffffffffff16908060020160149054906101000a900460ff16908060030154905085565b60055481565b600180546107da90611513565b80601f016020809104026020016040519081016040528092919081815260200182805461080690611513565b80156108535780601f1061082857610100808354040283529160200191610853565b820191906000526020600020905b81548152906001019060200180831161083657829003601f168201915b505050505081565b60008054906101000a900473ffffffffffffffffffffffffffffffffffffffff1673ffffffffffffffffffffffffffffffffffffffff163373ffffffffffffffffffffffffffffffffffffffff16146108e9576040517f08c379a00000000000000000000000000000000000000000000000000000000081526004016108e09061132e565b60405180910390fd5b6000600760018160018154018082558091505003906000526020600020906004020190508381600001908161091e91906116f0565b50828160010181905550818160020160006101000a81548173ffffffffffffffffffffffffffffffffffffffff021916908373ffffffffffffffffffffffffffffffffffffffff16021790555060008160020160146101000a81548160ff0219169083151502179055506000816003018190555050505050565b60035481565b60035434116109e2576040517f08c379a00000000000000000000000000000000000000000000000000000000081526004016109d990611834565b60405180910390fd5b600460003373ffffffffffffffffffffffffffffffffffffffff1673ffffffffffffffffffffffffffffffffffffffff16815260200190815260200160002060009054906101000a900460ff16610aa4576001600460003373ffffffffffffffffffffffffffffffffffffffff1673ffffffffffffffffffffffffffffffffffffffff16815260200190815260200160002060006101000a81548160ff02191690831515021790555060056000815480929190610a9e90611854565b91905055505b565b600460003373ffffffffffffffffffffffffffffffffffffffff1673ffffffffffffffffffffffffffffffffffffffff16815260200190815260200160002060009054906101000a900460ff16610afc57600080fd5b6006600082815260200190815260200160002060003373ffffffffffffffffffffffffffffffffffffffff1673ffffffffffffffffffffffffffffffffffffffff16815260200190815260200160002060009054906101000a900460ff1615610b6457600080fd5b60016006600083815260200190815260200160002060003373ffffffffffffffffffffffffffffffffffffffff1673ffffffffffffffffffffffffffffffffffffffff16815260200190815260200160002060006101000a81548160ff02191690831515021790555060078181548110610be157610be061134e565b5b90600052602060002090600402016003016000815480929190610c0390611854565b919050555050565b6060806000806000600160026003544760008054906101000a900473ffffffffffffffffffffffffffffffffffffffff16848054610c4890611513565b80601f0160208091040260200160405190810160405280929190818152602001828054610c7490611513565b8015610cc15780601f10610c9657610100808354040283529160200191610cc1565b820191906000526020600020905b815481529060010190602001808311610ca457829003601f168201915b50505050509450838054610cd490611513565b80601f0160208091040260200160405190810160405280929190818152602001828054610d0090611513565b8015610d4d5780601f10610d2257610100808354040283529160200191610d4d565b820191906000526020600020905b815481529060010190602001808311610d3057829003601f168201915b50505050509350945094509450945094509091929394565b6000604051905090565b600080fd5b600080fd5b6000819050919050565b610d8c81610d79565b8114610d9757600080fd5b50565b600081359050610da981610d83565b92915050565b600060208284031215610dc557610dc4610d6f565b5b6000610dd384828501610d9a565b91505092915050565b600073ffffffffffffffffffffffffffffffffffffffff82169050919050565b6000610e0782610ddc565b9050919050565b610e1781610dfc565b8114610e2257600080fd5b50565b600081359050610e3481610e0e565b92915050565b600060208284031215610e5057610e4f610d6f565b5b6000610e5e84828501610e25565b91505092915050565b60008115159050919050565b610e7c81610e67565b82525050565b6000602082019050610e976000830184610e73565b92915050565b600081519050919050565b600082825260208201905092915050565b60005b83811015610ed7578082015181840152602081019050610ebc565b60008484015250505050565b6000601f19601f8301169050919050565b6000610eff82610e9d565b610f098185610ea8565b9350610f19818560208601610eb9565b610f2281610ee3565b840191505092915050565b60006020820190508181036000830152610f478184610ef4565b905092915050565b60008060408385031215610f6657610f65610d6f565b5b6000610f7485828601610d9a565b9250506020610f8585828601610e25565b9150509250929050565b610f9881610d79565b82525050565b6000602082019050610fb36000830184610f8f565b92915050565b610fc281610dfc565b82525050565b600060a082019050610fdd6000830188610f8f565b610fea6020830187610f8f565b610ff76040830186610f8f565b6110046060830185610f8f565b6110116080830184610fb9565b9695505050505050565b60006020820190506110306000830184610fb9565b92915050565b600061104182610ddc565b9050919050565b61105181611036565b82525050565b600060a08201905081810360008301526110718188610ef4565b90506110806020830187610f8f565b61108d6040830186611048565b61109a6060830185610e73565b6110a76080830184610f8f565b9695505050505050565b600080fd5b600080fd5b7f4e487b7100000000000000000000000000000000000000000000000000000000600052604160045260246000fd5b6110f382610ee3565b810181811067ffffffffffffffff82111715611112576111116110bb565b5b80604052505050565b6000611125610d65565b905061113182826110ea565b919050565b600067ffffffffffffffff821115611151576111506110bb565b5b61115a82610ee3565b9050602081019050919050565b82818337600083830152505050565b600061118961118484611136565b61111b565b9050828152602081018484840111156111a5576111a46110b6565b5b6111b0848285611167565b509392505050565b600082601f8301126111cd576111cc6110b1565b5b81356111dd848260208601611176565b91505092915050565b6111ef81611036565b81146111fa57600080fd5b50565b60008135905061120c816111e6565b92915050565b60008060006060848603121561122b5761122a610d6f565b5b600084013567ffffffffffffffff81111561124957611248610d74565b5b611255868287016111b8565b935050602061126686828701610d9a565b9250506040611277868287016111fd565b9150509250925092565b600060a082019050818103600083015261129b8188610ef4565b905081810360208301526112af8187610ef4565b90506112be6040830186610f8f565b6112cb6060830185610f8f565b6112d86080830184610fb9565b9695505050505050565b7f43616c6c6572206973206e6f7420746865206d616e6167657200000000000000600082015250565b6000611318601983610ea8565b9150611323826112e2565b602082019050919050565b600060208201905081810360008301526113478161130b565b9050919050565b7f4e487b7100000000000000000000000000000000000000000000000000000000600052603260045260246000fd5b7f4e487b7100000000000000000000000000000000000000000000000000000000600052601260045260246000fd5b7f4e487b7100000000000000000000000000000000000000000000000000000000600052601160045260246000fd5b60006113e682610d79565b91506113f183610d79565b9250826114015761140061137d565b5b828204905092915050565b7f4e6f7420656e6f75676820617070726f76616c73000000000000000000000000600082015250565b6000611442601483610ea8565b915061144d8261140c565b602082019050919050565b6000602082019050818103600083015261147181611435565b9050919050565b7f5265717565737420616c72656164792066696e616c697a656400000000000000600082015250565b60006114ae601983610ea8565b91506114b982611478565b602082019050919050565b600060208201905081810360008301526114dd816114a1565b9050919050565b7f4e487b7100000000000000000000000000000000000000000000000000000000600052602260045260246000fd5b6000600282049050600182168061152b57607f821691505b60208210810361153e5761153d6114e4565b5b50919050565b60008190508160005260206000209050919050565b60006020601f8301049050919050565b600082821b905092915050565b6000600883026115a67fffffffffffffffffffffffffffffffffffffffffffffffffffffffffffffffff82611569565b6115b08683611569565b95508019841693508086168417925050509392505050565b6000819050919050565b60006115ed6115e86115e384610d79565b6115c8565b610d79565b9050919050565b6000819050919050565b611607836115d2565b61161b611613826115f4565b848454611576565b825550505050565b600090565b611630611623565b61163b8184846115fe565b505050565b5b8181101561165f57611654600082611628565b600181019050611641565b5050565b601f8211156116a45761167581611544565b61167e84611559565b8101602085101561168d578190505b6116a161169985611559565b830182611640565b50505b505050565b600082821c905092915050565b60006116c7600019846008026116a9565b1980831691505092915050565b60006116e083836116b6565b9150826002028217905092915050565b6116f982610e9d565b67ffffffffffffffff811115611712576117116110bb565b5b61171c8254611513565b611727828285611663565b600060209050601f83116001811461175a5760008415611748578287015190505b61175285826116d4565b8655506117ba565b601f19841661176886611544565b60005b828110156117905784890151825560018201915060208501945060208101905061176b565b868310156117ad57848901516117a9601f8916826116b6565b8355505b6001600288020188555050505b505050505050565b7f4d696e696d756d20636f6e747269627574696f6e206973206e6f74206d61746360008201527f6865640000000000000000000000000000000000000000000000000000000000602082015250565b600061181e602383610ea8565b9150611829826117c2565b604082019050919050565b6000602082019050818103600083015261184d81611811565b9050919050565b600061185f82610d79565b91507fffffffffffffffffffffffffffffffffffffffffffffffffffffffffffffffff8203611891576118906113ac565b5b60018201905091905056fea26469706673582212201423c7668cb9a73eb0c3c4468cab4cc4287d5296804dfdcf9fb11e40d26420b364736f6c63430008130033","opcodes":"PUSH1 0x80 PUSH1 0x40 MSTORE CALLVALUE DUP1 ISZERO PUSH3 0x11 JUMPI PUSH1 0x0 DUP1 REVERT JUMPDEST POP PUSH1 0x40 MLOAD PUSH3 0x1F99 CODESIZE SUB DUP1 PUSH3 0x1F99 DUP4 CODECOPY DUP2 DUP2 ADD PUSH1 0x40 MSTORE DUP2 ADD SWAP1 PUSH3 0x37 SWAP2 SWAP1 PUSH3 0x2DF JUMP JUMPDEST DUP3 PUSH1 0x0 DUP1 PUSH2 0x100 EXP DUP2 SLOAD DUP2 PUSH20 0xFFFFFFFFFFFFFFFFFFFFFFFFFFFFFFFFFFFFFFFF MUL NOT AND SWAP1 DUP4 PUSH20 0xFFFFFFFFFFFFFFFFFFFFFFFFFFFFFFFFFFFFFFFF AND MUL OR SWAP1 SSTORE POP DUP4 PUSH1 0x3 DUP2 SWAP1 SSTORE POP DUP2 PUSH1 0x1 SWAP1 DUP2 PUSH3 0x8F SWAP2 SWAP1 PUSH3 0x5D0 JUMP JUMPDEST POP DUP1 PUSH1 0x2 SWAP1 DUP2 PUSH3 0xA1 SWAP2 SWAP1 PUSH3 0x5D0 JUMP JUMPDEST POP POP POP POP POP PUSH3 0x6B7 JUMP JUMPDEST PUSH1 0x0 PUSH1 0x40 MLOAD SWAP1 POP SWAP1 JUMP JUMPDEST PUSH1 0x0 DUP1 REVERT JUMPDEST PUSH1 0x0 DUP1 REVERT JUMPDEST PUSH1 0x0 DUP2 SWAP1 POP SWAP2 SWAP1 POP JUMP JUMPDEST PUSH3 0xD5 DUP2 PUSH3 0xC0 JUMP JUMPDEST DUP2 EQ PUSH3 0xE1 JUMPI PUSH1 0x0 DUP1 REVERT JUMPDEST POP JUMP JUMPDEST PUSH1 0x0 DUP2 MLOAD SWAP1 POP PUSH3 0xF5 DUP2 PUSH3 0xCA JUMP JUMPDEST SWAP3 SWAP2 POP POP JUMP JUMPDEST PUSH1 0x0 PUSH20 0xFFFFFFFFFFFFFFFFFFFFFFFFFFFFFFFFFFFFFFFF DUP3 AND SWAP1 POP SWAP2 SWAP1 POP JUMP JUMPDEST PUSH1 0x0 PUSH3 0x128 DUP3 PUSH3 0xFB JUMP JUMPDEST SWAP1 POP SWAP2 SWAP1 POP JUMP JUMPDEST PUSH3 0x13A DUP2 PUSH3 0x11B JUMP JUMPDEST DUP2 EQ PUSH3 0x146 JUMPI PUSH1 0x0 DUP1 REVERT JUMPDEST POP JUMP JUMPDEST PUSH1 0x0 DUP2 MLOAD SWAP1 POP PUSH3 0x15A DUP2 PUSH3 0x12F JUMP JUMPDEST SWAP3 SWAP2 POP POP JUMP JUMPDEST PUSH1 0x0 DUP1 REVERT JUMPDEST PUSH1 0x0 DUP1 REVERT JUMPDEST PUSH1 0x0 PUSH1 0x1F NOT PUSH1 0x1F DUP4 ADD AND SWAP1 POP SWAP2 SWAP1 POP JUMP JUMPDEST PUSH32 0x4E487B7100000000000000000000000000000000000000000000000000000000 PUSH1 0x0 MSTORE PUSH1 0x41 PUSH1 0x4 MSTORE PUSH1 0x24 PUSH1 0x0 REVERT JUMPDEST PUSH3 0x1B5 DUP3 PUSH3 0x16A JUMP JUMPDEST DUP2 ADD DUP2 DUP2 LT PUSH8 0xFFFFFFFFFFFFFFFF DUP3 GT OR ISZERO PUSH3 0x1D7 JUMPI PUSH3 0x1D6 PUSH3 0x17B JUMP JUMPDEST JUMPDEST DUP1 PUSH1 0x40 MSTORE POP POP POP JUMP JUMPDEST PUSH1 0x0 PUSH3 0x1EC PUSH3 0xAC JUMP JUMPDEST SWAP1 POP PUSH3 0x1FA DUP3 DUP3 PUSH3 0x1AA JUMP JUMPDEST SWAP2 SWAP1 POP JUMP JUMPDEST PUSH1 0x0 PUSH8 0xFFFFFFFFFFFFFFFF DUP3 GT ISZERO PUSH3 0x21D JUMPI PUSH3 0x21C PUSH3 0x17B JUMP JUMPDEST JUMPDEST PUSH3 0x228 DUP3 PUSH3 0x16A JUMP JUMPDEST SWAP1 POP PUSH1 0x20 DUP2 ADD SWAP1 POP SWAP2 SWAP1 POP JUMP JUMPDEST PUSH1 0x0 JUMPDEST DUP4 DUP2 LT ISZERO PUSH3 0x255 JUMPI DUP1 DUP3 ADD MLOAD DUP2 DUP5 ADD MSTORE PUSH1 0x20 DUP2 ADD SWAP1 POP PUSH3 0x238 JUMP JUMPDEST PUSH1 0x0 DUP5 DUP5 ADD MSTORE POP POP POP POP JUMP JUMPDEST PUSH1 0x0 PUSH3 0x278 PUSH3 0x272 DUP5 PUSH3 0x1FF JUMP JUMPDEST PUSH3 0x1E0 JUMP JUMPDEST SWAP1 POP DUP3 DUP2 MSTORE PUSH1 0x20 DUP2 ADD DUP5 DUP5 DUP5 ADD GT ISZERO PUSH3 0x297 JUMPI PUSH3 0x296 PUSH3 0x165 JUMP JUMPDEST JUMPDEST PUSH3 0x2A4 DUP5 DUP3 DUP6 PUSH3 0x235 JUMP JUMPDEST POP SWAP4 SWAP3 POP POP POP JUMP JUMPDEST PUSH1 0x0 DUP3 PUSH1 0x1F DUP4 ADD SLT PUSH3 0x2C4 JUMPI PUSH3 0x2C3 PUSH3 0x160 JUMP JUMPDEST JUMPDEST DUP2 MLOAD PUSH3 0x2D6 DUP5 DUP3 PUSH1 0x20 DUP7 ADD PUSH3 0x261 JUMP JUMPDEST SWAP2 POP POP SWAP3 SWAP2 POP POP JUMP JUMPDEST PUSH1 0x0 DUP1 PUSH1 0x0 DUP1 PUSH1 0x80 DUP6 DUP8 SUB SLT ISZERO PUSH3 0x2FC JUMPI PUSH3 0x2FB PUSH3 0xB6 JUMP JUMPDEST JUMPDEST PUSH1 0x0 PUSH3 0x30C DUP8 DUP3 DUP9 ADD PUSH3 0xE4 JUMP JUMPDEST SWAP5 POP POP PUSH1 0x20 PUSH3 0x31F DUP8 DUP3 DUP9 ADD PUSH3 0x149 JUMP JUMPDEST SWAP4 POP POP PUSH1 0x40 DUP6 ADD MLOAD PUSH8 0xFFFFFFFFFFFFFFFF DUP2 GT ISZERO PUSH3 0x343 JUMPI PUSH3 0x342 PUSH3 0xBB JUMP JUMPDEST JUMPDEST PUSH3 0x351 DUP8 DUP3 DUP9 ADD PUSH3 0x2AC JUMP JUMPDEST SWAP3 POP POP PUSH1 0x60 DUP6 ADD MLOAD PUSH8 0xFFFFFFFFFFFFFFFF DUP2 GT ISZERO PUSH3 0x375 JUMPI PUSH3 0x374 PUSH3 0xBB JUMP JUMPDEST JUMPDEST PUSH3 0x383 DUP8 DUP3 DUP9 ADD PUSH3 0x2AC JUMP JUMPDEST SWAP2 POP POP SWAP3 SWAP6 SWAP2 SWAP5 POP SWAP3 POP JUMP JUMPDEST PUSH1 0x0 DUP2 MLOAD SWAP1 POP SWAP2 SWAP1 POP JUMP JUMPDEST PUSH32 0x4E487B7100000000000000000000000000000000000000000000000000000000 PUSH1 0x0 MSTORE PUSH1 0x22 PUSH1 0x4 MSTORE PUSH1 0x24 PUSH1 0x0 REVERT JUMPDEST PUSH1 0x0 PUSH1 0x2 DUP3 DIV SWAP1 POP PUSH1 0x1 DUP3 AND DUP1 PUSH3 0x3E2 JUMPI PUSH1 0x7F DUP3 AND SWAP2 POP JUMPDEST PUSH1 0x20 DUP3 LT DUP2 SUB PUSH3 0x3F8 JUMPI PUSH3 0x3F7 PUSH3 0x39A JUMP JUMPDEST JUMPDEST POP SWAP2 SWAP1 POP JUMP JUMPDEST PUSH1 0x0 DUP2 SWAP1 POP DUP2 PUSH1 0x0 MSTORE PUSH1 0x20 PUSH1 0x0 KECCAK256 SWAP1 POP SWAP2 SWAP1 POP JUMP JUMPDEST PUSH1 0x0 PUSH1 0x20 PUSH1 0x1F DUP4 ADD DIV SWAP1 POP SWAP2 SWAP1 POP JUMP JUMPDEST PUSH1 0x0 DUP3 DUP3 SHL SWAP1 POP SWAP3 SWAP2 POP POP JUMP JUMPDEST PUSH1 0x0 PUSH1 0x8 DUP4 MUL PUSH3 0x462 PUSH32 0xFFFFFFFFFFFFFFFFFFFFFFFFFFFFFFFFFFFFFFFFFFFFFFFFFFFFFFFFFFFFFFFF DUP3 PUSH3 0x423 JUMP JUMPDEST PUSH3 0x46E DUP7 DUP4 PUSH3 0x423 JUMP JUMPDEST SWAP6 POP DUP1 NOT DUP5 AND SWAP4 POP DUP1 DUP7 AND DUP5 OR SWAP3 POP POP POP SWAP4 SWAP3 POP POP POP JUMP JUMPDEST PUSH1 0x0 DUP2 SWAP1 POP SWAP2 SWAP1 POP JUMP JUMPDEST PUSH1 0x0 PUSH3 0x4B1 PUSH3 0x4AB PUSH3 0x4A5 DUP5 PUSH3 0xC0 JUMP JUMPDEST PUSH3 0x486 JUMP JUMPDEST PUSH3 0xC0 JUMP JUMPDEST SWAP1 POP SWAP2 SWAP1 POP JUMP JUMPDEST PUSH1 0x0 DUP2 SWAP1 POP SWAP2 SWAP1 POP JUMP JUMPDEST PUSH3 0x4CD DUP4 PUSH3 0x490 JUMP JUMPDEST PUSH3 0x4E5 PUSH3 0x4DC DUP3 PUSH3 0x4B8 JUMP JUMPDEST DUP5 DUP5 SLOAD PUSH3 0x430 JUMP JUMPDEST DUP3 SSTORE POP POP POP POP JUMP JUMPDEST PUSH1 0x0 SWAP1 JUMP JUMPDEST PUSH3 0x4FC PUSH3 0x4ED JUMP JUMPDEST PUSH3 0x509 DUP2 DUP5 DUP5 PUSH3 0x4C2 JUMP JUMPDEST POP POP POP JUMP JUMPDEST JUMPDEST DUP2 DUP2 LT ISZERO PUSH3 0x531 JUMPI PUSH3 0x525 PUSH1 0x0 DUP3 PUSH3 0x4F2 JUMP JUMPDEST PUSH1 0x1 DUP2 ADD SWAP1 POP PUSH3 0x50F JUMP JUMPDEST POP POP JUMP JUMPDEST PUSH1 0x1F DUP3 GT ISZERO PUSH3 0x580 JUMPI PUSH3 0x54A DUP2 PUSH3 0x3FE JUMP JUMPDEST PUSH3 0x555 DUP5 PUSH3 0x413 JUMP JUMPDEST DUP2 ADD PUSH1 0x20 DUP6 LT ISZERO PUSH3 0x565 JUMPI DUP2 SWAP1 POP JUMPDEST PUSH3 0x57D PUSH3 0x574 DUP6 PUSH3 0x413 JUMP JUMPDEST DUP4 ADD DUP3 PUSH3 0x50E JUMP JUMPDEST POP POP JUMPDEST POP POP POP JUMP JUMPDEST PUSH1 0x0 DUP3 DUP3 SHR SWAP1 POP SWAP3 SWAP2 POP POP JUMP JUMPDEST PUSH1 0x0 PUSH3 0x5A5 PUSH1 0x0 NOT DUP5 PUSH1 0x8 MUL PUSH3 0x585 JUMP JUMPDEST NOT DUP1 DUP4 AND SWAP2 POP POP SWAP3 SWAP2 POP POP JUMP JUMPDEST PUSH1 0x0 PUSH3 0x5C0 DUP4 DUP4 PUSH3 0x592 JUMP JUMPDEST SWAP2 POP DUP3 PUSH1 0x2 MUL DUP3 OR SWAP1 POP SWAP3 SWAP2 POP POP JUMP JUMPDEST PUSH3 0x5DB DUP3 PUSH3 0x38F JUMP JUMPDEST PUSH8 0xFFFFFFFFFFFFFFFF DUP2 GT ISZERO PUSH3 0x5F7 JUMPI PUSH3 0x5F6 PUSH3 0x17B JUMP JUMPDEST JUMPDEST PUSH3 0x603 DUP3 SLOAD PUSH3 0x3C9 JUMP JUMPDEST PUSH3 0x610 DUP3 DUP3 DUP6 PUSH3 0x535 JUMP JUMPDEST PUSH1 0x0 PUSH1 0x20 SWAP1 POP PUSH1 0x1F DUP4 GT PUSH1 0x1 DUP2 EQ PUSH3 0x648 JUMPI PUSH1 0x0 DUP5 ISZERO PUSH3 0x633 JUMPI DUP3 DUP8 ADD MLOAD SWAP1 POP JUMPDEST PUSH3 0x63F DUP6 DUP3 PUSH3 0x5B2 JUMP JUMPDEST DUP7 SSTORE POP PUSH3 0x6AF JUMP JUMPDEST PUSH1 0x1F NOT DUP5 AND PUSH3 0x658 DUP7 PUSH3 0x3FE JUMP JUMPDEST PUSH1 0x0 JUMPDEST DUP3 DUP2 LT ISZERO PUSH3 0x682 JUMPI DUP5 DUP10 ADD MLOAD DUP3 SSTORE PUSH1 0x1 DUP3 ADD SWAP2 POP PUSH1 0x20 DUP6 ADD SWAP5 POP PUSH1 0x20 DUP2 ADD SWAP1 POP PUSH3 0x65B JUMP JUMPDEST DUP7 DUP4 LT ISZERO PUSH3 0x6A2 JUMPI DUP5 DUP10 ADD MLOAD PUSH3 0x69E PUSH1 0x1F DUP10 AND DUP3 PUSH3 0x592 JUMP JUMPDEST DUP4 SSTORE POP JUMPDEST PUSH1 0x1 PUSH1 0x2 DUP9 MUL ADD DUP9 SSTORE POP POP POP JUMPDEST POP POP POP POP POP POP JUMP JUMPDEST PUSH2 0x18D2 DUP1 PUSH3 0x6C7 PUSH1 0x0 CODECOPY PUSH1 0x0 RETURN INVALID PUSH1 0x80 PUSH1 0x40 MSTORE PUSH1 0x4 CALLDATASIZE LT PUSH2 0xE8 JUMPI PUSH1 0x0 CALLDATALOAD PUSH1 0xE0 SHR DUP1 PUSH4 0x81D12C58 GT PUSH2 0x8A JUMPI DUP1 PUSH4 0x937E09B1 GT PUSH2 0x59 JUMPI DUP1 PUSH4 0x937E09B1 EQ PUSH2 0x300 JUMPI DUP1 PUSH4 0xD7BB99BA EQ PUSH2 0x32B JUMPI DUP1 PUSH4 0xD7D1BBDB EQ PUSH2 0x335 JUMPI DUP1 PUSH4 0xFBBF93A0 EQ PUSH2 0x35E JUMPI PUSH2 0xE8 JUMP JUMPDEST DUP1 PUSH4 0x81D12C58 EQ PUSH2 0x240 JUMPI DUP1 PUSH4 0x82FDE093 EQ PUSH2 0x281 JUMPI DUP1 PUSH4 0x835A6172 EQ PUSH2 0x2AC JUMPI DUP1 PUSH4 0x8A9CFD55 EQ PUSH2 0x2D7 JUMPI PUSH2 0xE8 JUMP JUMPDEST DUP1 PUSH4 0x33F449E5 GT PUSH2 0xC6 JUMPI DUP1 PUSH4 0x33F449E5 EQ PUSH2 0x17E JUMPI DUP1 PUSH4 0x3410452A EQ PUSH2 0x1BB JUMPI DUP1 PUSH4 0x4051DDAC EQ PUSH2 0x1E6 JUMPI DUP1 PUSH4 0x481C6A75 EQ PUSH2 0x215 JUMPI PUSH2 0xE8 JUMP JUMPDEST DUP1 PUSH4 0x3441006 EQ PUSH2 0xED JUMPI DUP1 PUSH4 0xA144391 EQ PUSH2 0x116 JUMPI DUP1 PUSH4 0x110842CB EQ PUSH2 0x153 JUMPI JUMPDEST PUSH1 0x0 DUP1 REVERT JUMPDEST CALLVALUE DUP1 ISZERO PUSH2 0xF9 JUMPI PUSH1 0x0 DUP1 REVERT JUMPDEST POP PUSH2 0x114 PUSH1 0x4 DUP1 CALLDATASIZE SUB DUP2 ADD SWAP1 PUSH2 0x10F SWAP2 SWAP1 PUSH2 0xDAF JUMP JUMPDEST PUSH2 0x38D JUMP JUMPDEST STOP JUMPDEST CALLVALUE DUP1 ISZERO PUSH2 0x122 JUMPI PUSH1 0x0 DUP1 REVERT JUMPDEST POP PUSH2 0x13D PUSH1 0x4 DUP1 CALLDATASIZE SUB DUP2 ADD SWAP1 PUSH2 0x138 SWAP2 SWAP1 PUSH2 0xE3A JUMP JUMPDEST PUSH2 0x577 JUMP JUMPDEST PUSH1 0x40 MLOAD PUSH2 0x14A SWAP2 SWAP1 PUSH2 0xE82 JUMP JUMPDEST PUSH1 0x40 MLOAD DUP1 SWAP2 SUB SWAP1 RETURN JUMPDEST CALLVALUE DUP1 ISZERO PUSH2 0x15F JUMPI PUSH1 0x0 DUP1 REVERT JUMPDEST POP PUSH2 0x168 PUSH2 0x597 JUMP JUMPDEST PUSH1 0x40 MLOAD PUSH2 0x175 SWAP2 SWAP1 PUSH2 0xF2D JUMP JUMPDEST PUSH1 0x40 MLOAD DUP1 SWAP2 SUB SWAP1 RETURN JUMPDEST CALLVALUE DUP1 ISZERO PUSH2 0x18A JUMPI PUSH1 0x0 DUP1 REVERT JUMPDEST POP PUSH2 0x1A5 PUSH1 0x4 DUP1 CALLDATASIZE SUB DUP2 ADD SWAP1 PUSH2 0x1A0 SWAP2 SWAP1 PUSH2 0xF4F JUMP JUMPDEST PUSH2 0x625 JUMP JUMPDEST PUSH1 0x40 MLOAD PUSH2 0x1B2 SWAP2 SWAP1 PUSH2 0xE82 JUMP JUMPDEST PUSH1 0x40 MLOAD DUP1 SWAP2 SUB SWAP1 RETURN JUMPDEST CALLVALUE DUP1 ISZERO PUSH2 0x1C7 JUMPI PUSH1 0x0 DUP1 REVERT JUMPDEST POP PUSH2 0x1D0 PUSH2 0x654 JUMP JUMPDEST PUSH1 0x40 MLOAD PUSH2 0x1DD SWAP2 SWAP1 PUSH2 0xF9E JUMP JUMPDEST PUSH1 0x40 MLOAD DUP1 SWAP2 SUB SWAP1 RETURN JUMPDEST CALLVALUE DUP1 ISZERO PUSH2 0x1F2 JUMPI PUSH1 0x0 DUP1 REVERT JUMPDEST POP PUSH2 0x1FB PUSH2 0x661 JUMP JUMPDEST PUSH1 0x40 MLOAD PUSH2 0x20C SWAP6 SWAP5 SWAP4 SWAP3 SWAP2 SWAP1 PUSH2 0xFC8 JUMP JUMPDEST PUSH1 0x40 MLOAD DUP1 SWAP2 SUB SWAP1 RETURN JUMPDEST CALLVALUE DUP1 ISZERO PUSH2 0x221 JUMPI PUSH1 0x0 DUP1 REVERT JUMPDEST POP PUSH2 0x22A PUSH2 0x6A8 JUMP JUMPDEST PUSH1 0x40 MLOAD PUSH2 0x237 SWAP2 SWAP1 PUSH2 0x101B JUMP JUMPDEST PUSH1 0x40 MLOAD DUP1 SWAP2 SUB SWAP1 RETURN JUMPDEST CALLVALUE DUP1 ISZERO PUSH2 0x24C JUMPI PUSH1 0x0 DUP1 REVERT JUMPDEST POP PUSH2 0x267 PUSH1 0x4 DUP1 CALLDATASIZE SUB DUP2 ADD SWAP1 PUSH2 0x262 SWAP2 SWAP1 PUSH2 0xDAF JUMP JUMPDEST PUSH2 0x6CC JUMP JUMPDEST PUSH1 0x40 MLOAD PUSH2 0x278 SWAP6 SWAP5 SWAP4 SWAP3 SWAP2 SWAP1 PUSH2 0x1057 JUMP JUMPDEST PUSH1 0x40 MLOAD DUP1 SWAP2 SUB SWAP1 RETURN JUMPDEST CALLVALUE DUP1 ISZERO PUSH2 0x28D JUMPI PUSH1 0x0 DUP1 REVERT JUMPDEST POP PUSH2 0x296 PUSH2 0x7C7 JUMP JUMPDEST PUSH1 0x40 MLOAD PUSH2 0x2A3 SWAP2 SWAP1 PUSH2 0xF9E JUMP JUMPDEST PUSH1 0x40 MLOAD DUP1 SWAP2 SUB SWAP1 RETURN JUMPDEST CALLVALUE DUP1 ISZERO PUSH2 0x2B8 JUMPI PUSH1 0x0 DUP1 REVERT JUMPDEST POP PUSH2 0x2C1 PUSH2 0x7CD JUMP JUMPDEST PUSH1 0x40 MLOAD PUSH2 0x2CE SWAP2 SWAP1 PUSH2 0xF2D JUMP JUMPDEST PUSH1 0x40 MLOAD DUP1 SWAP2 SUB SWAP1 RETURN JUMPDEST CALLVALUE DUP1 ISZERO PUSH2 0x2E3 JUMPI PUSH1 0x0 DUP1 REVERT JUMPDEST POP PUSH2 0x2FE PUSH1 0x4 DUP1 CALLDATASIZE SUB DUP2 ADD SWAP1 PUSH2 0x2F9 SWAP2 SWAP1 PUSH2 0x1212 JUMP JUMPDEST PUSH2 0x85B JUMP JUMPDEST STOP JUMPDEST CALLVALUE DUP1 ISZERO PUSH2 0x30C JUMPI PUSH1 0x0 DUP1 REVERT JUMPDEST POP PUSH2 0x315 PUSH2 0x998 JUMP JUMPDEST PUSH1 0x40 MLOAD PUSH2 0x322 SWAP2 SWAP1 PUSH2 0xF9E JUMP JUMPDEST PUSH1 0x40 MLOAD DUP1 SWAP2 SUB SWAP1 RETURN JUMPDEST PUSH2 0x333 PUSH2 0x99E JUMP JUMPDEST STOP JUMPDEST CALLVALUE DUP1 ISZERO PUSH2 0x341 JUMPI PUSH1 0x0 DUP1 REVERT JUMPDEST POP PUSH2 0x35C PUSH1 0x4 DUP1 CALLDATASIZE SUB DUP2 ADD SWAP1 PUSH2 0x357 SWAP2 SWAP1 PUSH2 0xDAF JUMP JUMPDEST PUSH2 0xAA6 JUMP JUMPDEST STOP JUMPDEST CALLVALUE DUP1 ISZERO PUSH2 0x36A JUMPI PUSH1 0x0 DUP1 REVERT JUMPDEST POP PUSH2 0x373 PUSH2 0xC0B JUMP JUMPDEST PUSH1 0x40 MLOAD PUSH2 0x384 SWAP6 SWAP5 SWAP4 SWAP3 SWAP2 SWAP1 PUSH2 0x1281 JUMP JUMPDEST PUSH1 0x40 MLOAD DUP1 SWAP2 SUB SWAP1 RETURN JUMPDEST PUSH1 0x0 DUP1 SLOAD SWAP1 PUSH2 0x100 EXP SWAP1 DIV PUSH20 0xFFFFFFFFFFFFFFFFFFFFFFFFFFFFFFFFFFFFFFFF AND PUSH20 0xFFFFFFFFFFFFFFFFFFFFFFFFFFFFFFFFFFFFFFFF AND CALLER PUSH20 0xFFFFFFFFFFFFFFFFFFFFFFFFFFFFFFFFFFFFFFFF AND EQ PUSH2 0x41B JUMPI PUSH1 0x40 MLOAD PUSH32 0x8C379A000000000000000000000000000000000000000000000000000000000 DUP2 MSTORE PUSH1 0x4 ADD PUSH2 0x412 SWAP1 PUSH2 0x132E JUMP JUMPDEST PUSH1 0x40 MLOAD DUP1 SWAP2 SUB SWAP1 REVERT JUMPDEST PUSH1 0x0 PUSH1 0x7 DUP3 DUP2 SLOAD DUP2 LT PUSH2 0x431 JUMPI PUSH2 0x430 PUSH2 0x134E JUMP JUMPDEST JUMPDEST SWAP1 PUSH1 0x0 MSTORE PUSH1 0x20 PUSH1 0x0 KECCAK256 SWAP1 PUSH1 0x4 MUL ADD SWAP1 POP PUSH1 0x2 PUSH1 0x5 SLOAD PUSH2 0x450 SWAP2 SWAP1 PUSH2 0x13DB JUMP JUMPDEST DUP2 PUSH1 0x3 ADD SLOAD GT PUSH2 0x495 JUMPI PUSH1 0x40 MLOAD PUSH32 0x8C379A000000000000000000000000000000000000000000000000000000000 DUP2 MSTORE PUSH1 0x4 ADD PUSH2 0x48C SWAP1 PUSH2 0x1458 JUMP JUMPDEST PUSH1 0x40 MLOAD DUP1 SWAP2 SUB SWAP1 REVERT JUMPDEST DUP1 PUSH1 0x2 ADD PUSH1 0x14 SWAP1 SLOAD SWAP1 PUSH2 0x100 EXP SWAP1 DIV PUSH1 0xFF AND ISZERO PUSH2 0x4E7 JUMPI PUSH1 0x40 MLOAD PUSH32 0x8C379A000000000000000000000000000000000000000000000000000000000 DUP2 MSTORE PUSH1 0x4 ADD PUSH2 0x4DE SWAP1 PUSH2 0x14C4 JUMP JUMPDEST PUSH1 0x40 MLOAD DUP1 SWAP2 SUB SWAP1 REVERT JUMPDEST DUP1 PUSH1 0x2 ADD PUSH1 0x0 SWAP1 SLOAD SWAP1 PUSH2 0x100 EXP SWAP1 DIV PUSH20 0xFFFFFFFFFFFFFFFFFFFFFFFFFFFFFFFFFFFFFFFF AND PUSH20 0xFFFFFFFFFFFFFFFFFFFFFFFFFFFFFFFFFFFFFFFF AND PUSH2 0x8FC DUP3 PUSH1 0x1 ADD SLOAD SWAP1 DUP2 ISZERO MUL SWAP1 PUSH1 0x40 MLOAD PUSH1 0x0 PUSH1 0x40 MLOAD DUP1 DUP4 SUB DUP2 DUP6 DUP9 DUP9 CALL SWAP4 POP POP POP POP ISZERO DUP1 ISZERO PUSH2 0x555 JUMPI RETURNDATASIZE PUSH1 0x0 DUP1 RETURNDATACOPY RETURNDATASIZE PUSH1 0x0 REVERT JUMPDEST POP PUSH1 0x1 DUP2 PUSH1 0x2 ADD PUSH1 0x14 PUSH2 0x100 EXP DUP2 SLOAD DUP2 PUSH1 0xFF MUL NOT AND SWAP1 DUP4 ISZERO ISZERO MUL OR SWAP1 SSTORE POP POP POP JUMP JUMPDEST PUSH1 0x4 PUSH1 0x20 MSTORE DUP1 PUSH1 0x0 MSTORE PUSH1 0x40 PUSH1 0x0 KECCAK256 PUSH1 0x0 SWAP2 POP SLOAD SWAP1 PUSH2 0x100 EXP SWAP1 DIV PUSH1 0xFF AND DUP2 JUMP JUMPDEST PUSH1 0x2 DUP1 SLOAD PUSH2 0x5A4 SWAP1 PUSH2 0x1513 JUMP JUMPDEST DUP1 PUSH1 0x1F ADD PUSH1 0x20 DUP1 SWAP2 DIV MUL PUSH1 0x20 ADD PUSH1 0x40 MLOAD SWAP1 DUP2 ADD PUSH1 0x40 MSTORE DUP1 SWAP3 SWAP2 SWAP1 DUP2 DUP2 MSTORE PUSH1 0x20 ADD DUP3 DUP1 SLOAD PUSH2 0x5D0 SWAP1 PUSH2 0x1513 JUMP JUMPDEST DUP1 ISZERO PUSH2 0x61D JUMPI DUP1 PUSH1 0x1F LT PUSH2 0x5F2 JUMPI PUSH2 0x100 DUP1 DUP4 SLOAD DIV MUL DUP4 MSTORE SWAP2 PUSH1 0x20 ADD SWAP2 PUSH2 0x61D JUMP JUMPDEST DUP3 ADD SWAP2 SWAP1 PUSH1 0x0 MSTORE PUSH1 0x20 PUSH1 0x0 KECCAK256 SWAP1 JUMPDEST DUP2 SLOAD DUP2 MSTORE SWAP1 PUSH1 0x1 ADD SWAP1 PUSH1 0x20 ADD DUP1 DUP4 GT PUSH2 0x600 JUMPI DUP3 SWAP1 SUB PUSH1 0x1F AND DUP3 ADD SWAP2 JUMPDEST POP POP POP POP POP DUP2 JUMP JUMPDEST PUSH1 0x6 PUSH1 0x20 MSTORE DUP2 PUSH1 0x0 MSTORE PUSH1 0x40 PUSH1 0x0 KECCAK256 PUSH1 0x20 MSTORE DUP1 PUSH1 0x0 MSTORE PUSH1 0x40 PUSH1 0x0 KECCAK256 PUSH1 0x0 SWAP2 POP SWAP2 POP SWAP1 SLOAD SWAP1 PUSH2 0x100 EXP SWAP1 DIV PUSH1 0xFF AND DUP2 JUMP JUMPDEST PUSH1 0x0 PUSH1 0x7 DUP1 SLOAD SWAP1 POP SWAP1 POP SWAP1 JUMP JUMPDEST PUSH1 0x0 DUP1 PUSH1 0x0 DUP1 PUSH1 0x0 PUSH1 0x3 SLOAD SELFBALANCE PUSH1 0x7 DUP1 SLOAD SWAP1 POP PUSH1 0x5 SLOAD PUSH1 0x0 DUP1 SLOAD SWAP1 PUSH2 0x100 EXP SWAP1 DIV PUSH20 0xFFFFFFFFFFFFFFFFFFFFFFFFFFFFFFFFFFFFFFFF AND SWAP5 POP SWAP5 POP SWAP5 POP SWAP5 POP SWAP5 POP SWAP1 SWAP2 SWAP3 SWAP4 SWAP5 JUMP JUMPDEST PUSH1 0x0 DUP1 SLOAD SWAP1 PUSH2 0x100 EXP SWAP1 DIV PUSH20 0xFFFFFFFFFFFFFFFFFFFFFFFFFFFFFFFFFFFFFFFF AND DUP2 JUMP JUMPDEST PUSH1 0x7 DUP2 DUP2 SLOAD DUP2 LT PUSH2 0x6DC JUMPI PUSH1 0x0 DUP1 REVERT JUMPDEST SWAP1 PUSH1 0x0 MSTORE PUSH1 0x20 PUSH1 0x0 KECCAK256 SWAP1 PUSH1 0x4 MUL ADD PUSH1 0x0 SWAP2 POP SWAP1 POP DUP1 PUSH1 0x0 ADD DUP1 SLOAD PUSH2 0x6FF SWAP1 PUSH2 0x1513 JUMP JUMPDEST DUP1 PUSH1 0x1F ADD PUSH1 0x20 DUP1 SWAP2 DIV MUL PUSH1 0x20 ADD PUSH1 0x40 MLOAD SWAP1 DUP2 ADD PUSH1 0x40 MSTORE DUP1 SWAP3 SWAP2 SWAP1 DUP2 DUP2 MSTORE PUSH1 0x20 ADD DUP3 DUP1 SLOAD PUSH2 0x72B SWAP1 PUSH2 0x1513 JUMP JUMPDEST DUP1 ISZERO PUSH2 0x778 JUMPI DUP1 PUSH1 0x1F LT PUSH2 0x74D JUMPI PUSH2 0x100 DUP1 DUP4 SLOAD DIV MUL DUP4 MSTORE SWAP2 PUSH1 0x20 ADD SWAP2 PUSH2 0x778 JUMP JUMPDEST DUP3 ADD SWAP2 SWAP1 PUSH1 0x0 MSTORE PUSH1 0x20 PUSH1 0x0 KECCAK256 SWAP1 JUMPDEST DUP2 SLOAD DUP2 MSTORE SWAP1 PUSH1 0x1 ADD SWAP1 PUSH1 0x20 ADD DUP1 DUP4 GT PUSH2 0x75B JUMPI DUP3 SWAP1 SUB PUSH1 0x1F AND DUP3 ADD SWAP2 JUMPDEST POP POP POP POP POP SWAP1 DUP1 PUSH1 0x1 ADD SLOAD SWAP1 DUP1 PUSH1 0x2 ADD PUSH1 0x0 SWAP1 SLOAD SWAP1 PUSH2 0x100 EXP SWAP1 DIV PUSH20 0xFFFFFFFFFFFFFFFFFFFFFFFFFFFFFFFFFFFFFFFF AND SWAP1 DUP1 PUSH1 0x2 ADD PUSH1 0x14 SWAP1 SLOAD SWAP1 PUSH2 0x100 EXP SWAP1 DIV PUSH1 0xFF AND SWAP1 DUP1 PUSH1 0x3 ADD SLOAD SWAP1 POP DUP6 JUMP JUMPDEST PUSH1 0x5 SLOAD DUP2 JUMP JUMPDEST PUSH1 0x1 DUP1 SLOAD PUSH2 0x7DA SWAP1 PUSH2 0x1513 JUMP JUMPDEST DUP1 PUSH1 0x1F ADD PUSH1 0x20 DUP1 SWAP2 DIV MUL PUSH1 0x20 ADD PUSH1 0x40 MLOAD SWAP1 DUP2 ADD PUSH1 0x40 MSTORE DUP1 SWAP3 SWAP2 SWAP1 DUP2 DUP2 MSTORE PUSH1 0x20 ADD DUP3 DUP1 SLOAD PUSH2 0x806 SWAP1 PUSH2 0x1513 JUMP JUMPDEST DUP1 ISZERO PUSH2 0x853 JUMPI DUP1 PUSH1 0x1F LT PUSH2 0x828 JUMPI PUSH2 0x100 DUP1 DUP4 SLOAD DIV MUL DUP4 MSTORE SWAP2 PUSH1 0x20 ADD SWAP2 PUSH2 0x853 JUMP JUMPDEST DUP3 ADD SWAP2 SWAP1 PUSH1 0x0 MSTORE PUSH1 0x20 PUSH1 0x0 KECCAK256 SWAP1 JUMPDEST DUP2 SLOAD DUP2 MSTORE SWAP1 PUSH1 0x1 ADD SWAP1 PUSH1 0x20 ADD DUP1 DUP4 GT PUSH2 0x836 JUMPI DUP3 SWAP1 SUB PUSH1 0x1F AND DUP3 ADD SWAP2 JUMPDEST POP POP POP POP POP DUP2 JUMP JUMPDEST PUSH1 0x0 DUP1 SLOAD SWAP1 PUSH2 0x100 EXP SWAP1 DIV PUSH20 0xFFFFFFFFFFFFFFFFFFFFFFFFFFFFFFFFFFFFFFFF AND PUSH20 0xFFFFFFFFFFFFFFFFFFFFFFFFFFFFFFFFFFFFFFFF AND CALLER PUSH20 0xFFFFFFFFFFFFFFFFFFFFFFFFFFFFFFFFFFFFFFFF AND EQ PUSH2 0x8E9 JUMPI PUSH1 0x40 MLOAD PUSH32 0x8C379A000000000000000000000000000000000000000000000000000000000 DUP2 MSTORE PUSH1 0x4 ADD PUSH2 0x8E0 SWAP1 PUSH2 0x132E JUMP JUMPDEST PUSH1 0x40 MLOAD DUP1 SWAP2 SUB SWAP1 REVERT JUMPDEST PUSH1 0x0 PUSH1 0x7 PUSH1 0x1 DUP2 PUSH1 0x1 DUP2 SLOAD ADD DUP1 DUP3 SSTORE DUP1 SWAP2 POP POP SUB SWAP1 PUSH1 0x0 MSTORE PUSH1 0x20 PUSH1 0x0 KECCAK256 SWAP1 PUSH1 0x4 MUL ADD SWAP1 POP DUP4 DUP2 PUSH1 0x0 ADD SWAP1 DUP2 PUSH2 0x91E SWAP2 SWAP1 PUSH2 0x16F0 JUMP JUMPDEST POP DUP3 DUP2 PUSH1 0x1 ADD DUP2 SWAP1 SSTORE POP DUP2 DUP2 PUSH1 0x2 ADD PUSH1 0x0 PUSH2 0x100 EXP DUP2 SLOAD DUP2 PUSH20 0xFFFFFFFFFFFFFFFFFFFFFFFFFFFFFFFFFFFFFFFF MUL NOT AND SWAP1 DUP4 PUSH20 0xFFFFFFFFFFFFFFFFFFFFFFFFFFFFFFFFFFFFFFFF AND MUL OR SWAP1 SSTORE POP PUSH1 0x0 DUP2 PUSH1 0x2 ADD PUSH1 0x14 PUSH2 0x100 EXP DUP2 SLOAD DUP2 PUSH1 0xFF MUL NOT AND SWAP1 DUP4 ISZERO ISZERO MUL OR SWAP1 SSTORE POP PUSH1 0x0 DUP2 PUSH1 0x3 ADD DUP2 SWAP1 SSTORE POP POP POP POP POP JUMP JUMPDEST PUSH1 0x3 SLOAD DUP2 JUMP JUMPDEST PUSH1 0x3 SLOAD CALLVALUE GT PUSH2 0x9E2 JUMPI PUSH1 0x40 MLOAD PUSH32 0x8C379A000000000000000000000000000000000000000000000000000000000 DUP2 MSTORE PUSH1 0x4 ADD PUSH2 0x9D9 SWAP1 PUSH2 0x1834 JUMP JUMPDEST PUSH1 0x40 MLOAD DUP1 SWAP2 SUB SWAP1 REVERT JUMPDEST PUSH1 0x4 PUSH1 0x0 CALLER PUSH20 0xFFFFFFFFFFFFFFFFFFFFFFFFFFFFFFFFFFFFFFFF AND PUSH20 0xFFFFFFFFFFFFFFFFFFFFFFFFFFFFFFFFFFFFFFFF AND DUP2 MSTORE PUSH1 0x20 ADD SWAP1 DUP2 MSTORE PUSH1 0x20 ADD PUSH1 0x0 KECCAK256 PUSH1 0x0 SWAP1 SLOAD SWAP1 PUSH2 0x100 EXP SWAP1 DIV PUSH1 0xFF AND PUSH2 0xAA4 JUMPI PUSH1 0x1 PUSH1 0x4 PUSH1 0x0 CALLER PUSH20 0xFFFFFFFFFFFFFFFFFFFFFFFFFFFFFFFFFFFFFFFF AND PUSH20 0xFFFFFFFFFFFFFFFFFFFFFFFFFFFFFFFFFFFFFFFF AND DUP2 MSTORE PUSH1 0x20 ADD SWAP1 DUP2 MSTORE PUSH1 0x20 ADD PUSH1 0x0 KECCAK256 PUSH1 0x0 PUSH2 0x100 EXP DUP2 SLOAD DUP2 PUSH1 0xFF MUL NOT AND SWAP1 DUP4 ISZERO ISZERO MUL OR SWAP1 SSTORE POP PUSH1 0x5 PUSH1 0x0 DUP2 SLOAD DUP1 SWAP3 SWAP2 SWAP1 PUSH2 0xA9E SWAP1 PUSH2 0x1854 JUMP JUMPDEST SWAP2 SWAP1 POP SSTORE POP JUMPDEST JUMP JUMPDEST PUSH1 0x4 PUSH1 0x0 CALLER PUSH20 0xFFFFFFFFFFFFFFFFFFFFFFFFFFFFFFFFFFFFFFFF AND PUSH20 0xFFFFFFFFFFFFFFFFFFFFFFFFFFFFFFFFFFFFFFFF AND DUP2 MSTORE PUSH1 0x20 ADD SWAP1 DUP2 MSTORE PUSH1 0x20 ADD PUSH1 0x0 KECCAK256 PUSH1 0x0 SWAP1 SLOAD SWAP1 PUSH2 0x100 EXP SWAP1 DIV PUSH1 0xFF AND PUSH2 0xAFC JUMPI PUSH1 0x0 DUP1 REVERT JUMPDEST PUSH1 0x6 PUSH1 0x0 DUP3 DUP2 MSTORE PUSH1 0x20 ADD SWAP1 DUP2 MSTORE PUSH1 0x20 ADD PUSH1 0x0 KECCAK256 PUSH1 0x0 CALLER PUSH20 0xFFFFFFFFFFFFFFFFFFFFFFFFFFFFFFFFFFFFFFFF AND PUSH20 0xFFFFFFFFFFFFFFFFFFFFFFFFFFFFFFFFFFFFFFFF AND DUP2 MSTORE PUSH1 0x20 ADD SWAP1 DUP2 MSTORE PUSH1 0x20 ADD PUSH1 0x0 KECCAK256 PUSH1 0x0 SWAP1 SLOAD SWAP1 PUSH2 0x100 EXP SWAP1 DIV PUSH1 0xFF AND ISZERO PUSH2 0xB64 JUMPI PUSH1 0x0 DUP1 REVERT JUMPDEST PUSH1 0x1 PUSH1 0x6 PUSH1 0x0 DUP4 DUP2 MSTORE PUSH1 0x20 ADD SWAP1 DUP2 MSTORE PUSH1 0x20 ADD PUSH1 0x0 KECCAK256 PUSH1 0x0 CALLER PUSH20 0xFFFFFFFFFFFFFFFFFFFFFFFFFFFFFFFFFFFFFFFF AND PUSH20 0xFFFFFFFFFFFFFFFFFFFFFFFFFFFFFFFFFFFFFFFF AND DUP2 MSTORE PUSH1 0x20 ADD SWAP1 DUP2 MSTORE PUSH1 0x20 ADD PUSH1 0x0 KECCAK256 PUSH1 0x0 PUSH2 0x100 EXP DUP2 SLOAD DUP2 PUSH1 0xFF MUL NOT AND SWAP1 DUP4 ISZERO ISZERO MUL OR SWAP1 SSTORE POP PUSH1 0x7 DUP2 DUP2 SLOAD DUP2 LT PUSH2 0xBE1 JUMPI PUSH2 0xBE0 PUSH2 0x134E JUMP JUMPDEST JUMPDEST SWAP1 PUSH1 0x0 MSTORE PUSH1 0x20 PUSH1 0x0 KECCAK256 SWAP1 PUSH1 0x4 MUL ADD PUSH1 0x3 ADD PUSH1 0x0 DUP2 SLOAD DUP1 SWAP3 SWAP2 SWAP1 PUSH2 0xC03 SWAP1 PUSH2 0x1854 JUMP JUMPDEST SWAP2 SWAP1 POP SSTORE POP POP JUMP JUMPDEST PUSH1 0x60 DUP1 PUSH1 0x0 DUP1 PUSH1 0x0 PUSH1 0x1 PUSH1 0x2 PUSH1 0x3 SLOAD SELFBALANCE PUSH1 0x0 DUP1 SLOAD SWAP1 PUSH2 0x100 EXP SWAP1 DIV PUSH20 0xFFFFFFFFFFFFFFFFFFFFFFFFFFFFFFFFFFFFFFFF AND DUP5 DUP1 SLOAD PUSH2 0xC48 SWAP1 PUSH2 0x1513 JUMP JUMPDEST DUP1 PUSH1 0x1F ADD PUSH1 0x20 DUP1 SWAP2 DIV MUL PUSH1 0x20 ADD PUSH1 0x40 MLOAD SWAP1 DUP2 ADD PUSH1 0x40 MSTORE DUP1 SWAP3 SWAP2 SWAP1 DUP2 DUP2 MSTORE PUSH1 0x20 ADD DUP3 DUP1 SLOAD PUSH2 0xC74 SWAP1 PUSH2 0x1513 JUMP JUMPDEST DUP1 ISZERO PUSH2 0xCC1 JUMPI DUP1 PUSH1 0x1F LT PUSH2 0xC96 JUMPI PUSH2 0x100 DUP1 DUP4 SLOAD DIV MUL DUP4 MSTORE SWAP2 PUSH1 0x20 ADD SWAP2 PUSH2 0xCC1 JUMP JUMPDEST DUP3 ADD SWAP2 SWAP1 PUSH1 0x0 MSTORE PUSH1 0x20 PUSH1 0x0 KECCAK256 SWAP1 JUMPDEST DUP2 SLOAD DUP2 MSTORE SWAP1 PUSH1 0x1 ADD SWAP1 PUSH1 0x20 ADD DUP1 DUP4 GT PUSH2 0xCA4 JUMPI DUP3 SWAP1 SUB PUSH1 0x1F AND DUP3 ADD SWAP2 JUMPDEST POP POP POP POP POP SWAP5 POP DUP4 DUP1 SLOAD PUSH2 0xCD4 SWAP1 PUSH2 0x1513 JUMP JUMPDEST DUP1 PUSH1 0x1F ADD PUSH1 0x20 DUP1 SWAP2 DIV MUL PUSH1 0x20 ADD PUSH1 0x40 MLOAD SWAP1 DUP2 ADD PUSH1 0x40 MSTORE DUP1 SWAP3 SWAP2 SWAP1 DUP2 DUP2 MSTORE PUSH1 0x20 ADD DUP3 DUP1 SLOAD PUSH2 0xD00 SWAP1 PUSH2 0x1513 JUMP JUMPDEST DUP1 ISZERO PUSH2 0xD4D JUMPI DUP1 PUSH1 0x1F LT PUSH2 0xD22 JUMPI PUSH2 0x100 DUP1 DUP4 SLOAD DIV MUL DUP4 MSTORE SWAP2 PUSH1 0x20 ADD SWAP2 PUSH2 0xD4D JUMP JUMPDEST DUP3 ADD SWAP2 SWAP1 PUSH1 0x0 MSTORE PUSH1 0x20 PUSH1 0x0 KECCAK256 SWAP1 JUMPDEST DUP2 SLOAD DUP2 MSTORE SWAP1 PUSH1 0x1 ADD SWAP1 PUSH1 0x20 ADD DUP1 DUP4 GT PUSH2 0xD30 JUMPI DUP3 SWAP1 SUB PUSH1 0x1F AND DUP3 ADD SWAP2 JUMPDEST POP POP POP POP POP SWAP4 POP SWAP5 POP SWAP5 POP SWAP5 POP SWAP5 POP SWAP5 POP SWAP1 SWAP2 SWAP3 SWAP4 SWAP5 JUMP JUMPDEST PUSH1 0x0 PUSH1 0x40 MLOAD SWAP1 POP SWAP1 JUMP JUMPDEST PUSH1 0x0 DUP1 REVERT JUMPDEST PUSH1 0x0 DUP1 REVERT JUMPDEST PUSH1 0x0 DUP2 SWAP1 POP SWAP2 SWAP1 POP JUMP JUMPDEST PUSH2 0xD8C DUP2 PUSH2 0xD79 JUMP JUMPDEST DUP2 EQ PUSH2 0xD97 JUMPI PUSH1 0x0 DUP1 REVERT JUMPDEST POP JUMP JUMPDEST PUSH1 0x0 DUP2 CALLDATALOAD SWAP1 POP PUSH2 0xDA9 DUP2 PUSH2 0xD83 JUMP JUMPDEST SWAP3 SWAP2 POP POP JUMP JUMPDEST PUSH1 0x0 PUSH1 0x20 DUP3 DUP5 SUB SLT ISZERO PUSH2 0xDC5 JUMPI PUSH2 0xDC4 PUSH2 0xD6F JUMP JUMPDEST JUMPDEST PUSH1 0x0 PUSH2 0xDD3 DUP5 DUP3 DUP6 ADD PUSH2 0xD9A JUMP JUMPDEST SWAP2 POP POP SWAP3 SWAP2 POP POP JUMP JUMPDEST PUSH1 0x0 PUSH20 0xFFFFFFFFFFFFFFFFFFFFFFFFFFFFFFFFFFFFFFFF DUP3 AND SWAP1 POP SWAP2 SWAP1 POP JUMP JUMPDEST PUSH1 0x0 PUSH2 0xE07 DUP3 PUSH2 0xDDC JUMP JUMPDEST SWAP1 POP SWAP2 SWAP1 POP JUMP JUMPDEST PUSH2 0xE17 DUP2 PUSH2 0xDFC JUMP JUMPDEST DUP2 EQ PUSH2 0xE22 JUMPI PUSH1 0x0 DUP1 REVERT JUMPDEST POP JUMP JUMPDEST PUSH1 0x0 DUP2 CALLDATALOAD SWAP1 POP PUSH2 0xE34 DUP2 PUSH2 0xE0E JUMP JUMPDEST SWAP3 SWAP2 POP POP JUMP JUMPDEST PUSH1 0x0 PUSH1 0x20 DUP3 DUP5 SUB SLT ISZERO PUSH2 0xE50 JUMPI PUSH2 0xE4F PUSH2 0xD6F JUMP JUMPDEST JUMPDEST PUSH1 0x0 PUSH2 0xE5E DUP5 DUP3 DUP6 ADD PUSH2 0xE25 JUMP JUMPDEST SWAP2 POP POP SWAP3 SWAP2 POP POP JUMP JUMPDEST PUSH1 0x0 DUP2 ISZERO ISZERO SWAP1 POP SWAP2 SWAP1 POP JUMP JUMPDEST PUSH2 0xE7C DUP2 PUSH2 0xE67 JUMP JUMPDEST DUP3 MSTORE POP POP JUMP JUMPDEST PUSH1 0x0 PUSH1 0x20 DUP3 ADD SWAP1 POP PUSH2 0xE97 PUSH1 0x0 DUP4 ADD DUP5 PUSH2 0xE73 JUMP JUMPDEST SWAP3 SWAP2 POP POP JUMP JUMPDEST PUSH1 0x0 DUP2 MLOAD SWAP1 POP SWAP2 SWAP1 POP JUMP JUMPDEST PUSH1 0x0 DUP3 DUP3 MSTORE PUSH1 0x20 DUP3 ADD SWAP1 POP SWAP3 SWAP2 POP POP JUMP JUMPDEST PUSH1 0x0 JUMPDEST DUP4 DUP2 LT ISZERO PUSH2 0xED7 JUMPI DUP1 DUP3 ADD MLOAD DUP2 DUP5 ADD MSTORE PUSH1 0x20 DUP2 ADD SWAP1 POP PUSH2 0xEBC JUMP JUMPDEST PUSH1 0x0 DUP5 DUP5 ADD MSTORE POP POP POP POP JUMP JUMPDEST PUSH1 0x0 PUSH1 0x1F NOT PUSH1 0x1F DUP4 ADD AND SWAP1 POP SWAP2 SWAP1 POP JUMP JUMPDEST PUSH1 0x0 PUSH2 0xEFF DUP3 PUSH2 0xE9D JUMP JUMPDEST PUSH2 0xF09 DUP2 DUP6 PUSH2 0xEA8 JUMP JUMPDEST SWAP4 POP PUSH2 0xF19 DUP2 DUP6 PUSH1 0x20 DUP7 ADD PUSH2 0xEB9 JUMP JUMPDEST PUSH2 0xF22 DUP2 PUSH2 0xEE3 JUMP JUMPDEST DUP5 ADD SWAP2 POP POP SWAP3 SWAP2 POP POP JUMP JUMPDEST PUSH1 0x0 PUSH1 0x20 DUP3 ADD SWAP1 POP DUP2 DUP2 SUB PUSH1 0x0 DUP4 ADD MSTORE PUSH2 0xF47 DUP2 DUP5 PUSH2 0xEF4 JUMP JUMPDEST SWAP1 POP SWAP3 SWAP2 POP POP JUMP JUMPDEST PUSH1 0x0 DUP1 PUSH1 0x40 DUP4 DUP6 SUB SLT ISZERO PUSH2 0xF66 JUMPI PUSH2 0xF65 PUSH2 0xD6F JUMP JUMPDEST JUMPDEST PUSH1 0x0 PUSH2 0xF74 DUP6 DUP3 DUP7 ADD PUSH2 0xD9A JUMP JUMPDEST SWAP3 POP POP PUSH1 0x20 PUSH2 0xF85 DUP6 DUP3 DUP7 ADD PUSH2 0xE25 JUMP JUMPDEST SWAP2 POP POP SWAP3 POP SWAP3 SWAP1 POP JUMP JUMPDEST PUSH2 0xF98 DUP2 PUSH2 0xD79 JUMP JUMPDEST DUP3 MSTORE POP POP JUMP JUMPDEST PUSH1 0x0 PUSH1 0x20 DUP3 ADD SWAP1 POP PUSH2 0xFB3 PUSH1 0x0 DUP4 ADD DUP5 PUSH2 0xF8F JUMP JUMPDEST SWAP3 SWAP2 POP POP JUMP JUMPDEST PUSH2 0xFC2 DUP2 PUSH2 0xDFC JUMP JUMPDEST DUP3 MSTORE POP POP JUMP JUMPDEST PUSH1 0x0 PUSH1 0xA0 DUP3 ADD SWAP1 POP PUSH2 0xFDD PUSH1 0x0 DUP4 ADD DUP9 PUSH2 0xF8F JUMP JUMPDEST PUSH2 0xFEA PUSH1 0x20 DUP4 ADD DUP8 PUSH2 0xF8F JUMP JUMPDEST PUSH2 0xFF7 PUSH1 0x40 DUP4 ADD DUP7 PUSH2 0xF8F JUMP JUMPDEST PUSH2 0x1004 PUSH1 0x60 DUP4 ADD DUP6 PUSH2 0xF8F JUMP JUMPDEST PUSH2 0x1011 PUSH1 0x80 DUP4 ADD DUP5 PUSH2 0xFB9 JUMP JUMPDEST SWAP7 SWAP6 POP POP POP POP POP POP JUMP JUMPDEST PUSH1 0x0 PUSH1 0x20 DUP3 ADD SWAP1 POP PUSH2 0x1030 PUSH1 0x0 DUP4 ADD DUP5 PUSH2 0xFB9 JUMP JUMPDEST SWAP3 SWAP2 POP POP JUMP JUMPDEST PUSH1 0x0 PUSH2 0x1041 DUP3 PUSH2 0xDDC JUMP JUMPDEST SWAP1 POP SWAP2 SWAP1 POP JUMP JUMPDEST PUSH2 0x1051 DUP2 PUSH2 0x1036 JUMP JUMPDEST DUP3 MSTORE POP POP JUMP JUMPDEST PUSH1 0x0 PUSH1 0xA0 DUP3 ADD SWAP1 POP DUP2 DUP2 SUB PUSH1 0x0 DUP4 ADD MSTORE PUSH2 0x1071 DUP2 DUP9 PUSH2 0xEF4 JUMP JUMPDEST SWAP1 POP PUSH2 0x1080 PUSH1 0x20 DUP4 ADD DUP8 PUSH2 0xF8F JUMP JUMPDEST PUSH2 0x108D PUSH1 0x40 DUP4 ADD DUP7 PUSH2 0x1048 JUMP JUMPDEST PUSH2 0x109A PUSH1 0x60 DUP4 ADD DUP6 PUSH2 0xE73 JUMP JUMPDEST PUSH2 0x10A7 PUSH1 0x80 DUP4 ADD DUP5 PUSH2 0xF8F JUMP JUMPDEST SWAP7 SWAP6 POP POP POP POP POP POP JUMP JUMPDEST PUSH1 0x0 DUP1 REVERT JUMPDEST PUSH1 0x0 DUP1 REVERT JUMPDEST PUSH32 0x4E487B7100000000000000000000000000000000000000000000000000000000 PUSH1 0x0 MSTORE PUSH1 0x41 PUSH1 0x4 MSTORE PUSH1 0x24 PUSH1 0x0 REVERT JUMPDEST PUSH2 0x10F3 DUP3 PUSH2 0xEE3 JUMP JUMPDEST DUP2 ADD DUP2 DUP2 LT PUSH8 0xFFFFFFFFFFFFFFFF DUP3 GT OR ISZERO PUSH2 0x1112 JUMPI PUSH2 0x1111 PUSH2 0x10BB JUMP JUMPDEST JUMPDEST DUP1 PUSH1 0x40 MSTORE POP POP POP JUMP JUMPDEST PUSH1 0x0 PUSH2 0x1125 PUSH2 0xD65 JUMP JUMPDEST SWAP1 POP PUSH2 0x1131 DUP3 DUP3 PUSH2 0x10EA JUMP JUMPDEST SWAP2 SWAP1 POP JUMP JUMPDEST PUSH1 0x0 PUSH8 0xFFFFFFFFFFFFFFFF DUP3 GT ISZERO PUSH2 0x1151 JUMPI PUSH2 0x1150 PUSH2 0x10BB JUMP JUMPDEST JUMPDEST PUSH2 0x115A DUP3 PUSH2 0xEE3 JUMP JUMPDEST SWAP1 POP PUSH1 0x20 DUP2 ADD SWAP1 POP SWAP2 SWAP1 POP JUMP JUMPDEST DUP3 DUP2 DUP4 CALLDATACOPY PUSH1 0x0 DUP4 DUP4 ADD MSTORE POP POP POP JUMP JUMPDEST PUSH1 0x0 PUSH2 0x1189 PUSH2 0x1184 DUP5 PUSH2 0x1136 JUMP JUMPDEST PUSH2 0x111B JUMP JUMPDEST SWAP1 POP DUP3 DUP2 MSTORE PUSH1 0x20 DUP2 ADD DUP5 DUP5 DUP5 ADD GT ISZERO PUSH2 0x11A5 JUMPI PUSH2 0x11A4 PUSH2 0x10B6 JUMP JUMPDEST JUMPDEST PUSH2 0x11B0 DUP5 DUP3 DUP6 PUSH2 0x1167 JUMP JUMPDEST POP SWAP4 SWAP3 POP POP POP JUMP JUMPDEST PUSH1 0x0 DUP3 PUSH1 0x1F DUP4 ADD SLT PUSH2 0x11CD JUMPI PUSH2 0x11CC PUSH2 0x10B1 JUMP JUMPDEST JUMPDEST DUP2 CALLDATALOAD PUSH2 0x11DD DUP5 DUP3 PUSH1 0x20 DUP7 ADD PUSH2 0x1176 JUMP JUMPDEST SWAP2 POP POP SWAP3 SWAP2 POP POP JUMP JUMPDEST PUSH2 0x11EF DUP2 PUSH2 0x1036 JUMP JUMPDEST DUP2 EQ PUSH2 0x11FA JUMPI PUSH1 0x0 DUP1 REVERT JUMPDEST POP JUMP JUMPDEST PUSH1 0x0 DUP2 CALLDATALOAD SWAP1 POP PUSH2 0x120C DUP2 PUSH2 0x11E6 JUMP JUMPDEST SWAP3 SWAP2 POP POP JUMP JUMPDEST PUSH1 0x0 DUP1 PUSH1 0x0 PUSH1 0x60 DUP5 DUP7 SUB SLT ISZERO PUSH2 0x122B JUMPI PUSH2 0x122A PUSH2 0xD6F JUMP JUMPDEST JUMPDEST PUSH1 0x0 DUP5 ADD CALLDATALOAD PUSH8 0xFFFFFFFFFFFFFFFF DUP2 GT ISZERO PUSH2 0x1249 JUMPI PUSH2 0x1248 PUSH2 0xD74 JUMP JUMPDEST JUMPDEST PUSH2 0x1255 DUP7 DUP3 DUP8 ADD PUSH2 0x11B8 JUMP JUMPDEST SWAP4 POP POP PUSH1 0x20 PUSH2 0x1266 DUP7 DUP3 DUP8 ADD PUSH2 0xD9A JUMP JUMPDEST SWAP3 POP POP PUSH1 0x40 PUSH2 0x1277 DUP7 DUP3 DUP8 ADD PUSH2 0x11FD JUMP JUMPDEST SWAP2 POP POP SWAP3 POP SWAP3 POP SWAP3 JUMP JUMPDEST PUSH1 0x0 PUSH1 0xA0 DUP3 ADD SWAP1 POP DUP2 DUP2 SUB PUSH1 0x0 DUP4 ADD MSTORE PUSH2 0x129B DUP2 DUP9 PUSH2 0xEF4 JUMP JUMPDEST SWAP1 POP DUP2 DUP2 SUB PUSH1 0x20 DUP4 ADD MSTORE PUSH2 0x12AF DUP2 DUP8 PUSH2 0xEF4 JUMP JUMPDEST SWAP1 POP PUSH2 0x12BE PUSH1 0x40 DUP4 ADD DUP7 PUSH2 0xF8F JUMP JUMPDEST PUSH2 0x12CB PUSH1 0x60 DUP4 ADD DUP6 PUSH2 0xF8F JUMP JUMPDEST PUSH2 0x12D8 PUSH1 0x80 DUP4 ADD DUP5 PUSH2 0xFB9 JUMP JUMPDEST SWAP7 SWAP6 POP POP POP POP POP POP JUMP JUMPDEST PUSH32 0x43616C6C6572206973206E6F7420746865206D616E6167657200000000000000 PUSH1 0x0 DUP3 ADD MSTORE POP JUMP JUMPDEST PUSH1 0x0 PUSH2 0x1318 PUSH1 0x19 DUP4 PUSH2 0xEA8 JUMP JUMPDEST SWAP2 POP PUSH2 0x1323 DUP3 PUSH2 0x12E2 JUMP JUMPDEST PUSH1 0x20 DUP3 ADD SWAP1 POP SWAP2 SWAP1 POP JUMP JUMPDEST PUSH1 0x0 PUSH1 0x20 DUP3 ADD SWAP1 POP DUP2 DUP2 SUB PUSH1 0x0 DUP4 ADD MSTORE PUSH2 0x1347 DUP2 PUSH2 0x130B JUMP JUMPDEST SWAP1 POP SWAP2 SWAP1 POP JUMP JUMPDEST PUSH32 0x4E487B7100000000000000000000000000000000000000000000000000000000 PUSH1 0x0 MSTORE PUSH1 0x32 PUSH1 0x4 MSTORE PUSH1 0x24 PUSH1 0x0 REVERT JUMPDEST PUSH32 0x4E487B7100000000000000000000000000000000000000000000000000000000 PUSH1 0x0 MSTORE PUSH1 0x12 PUSH1 0x4 MSTORE PUSH1 0x24 PUSH1 0x0 REVERT JUMPDEST PUSH32 0x4E487B7100000000000000000000000000000000000000000000000000000000 PUSH1 0x0 MSTORE PUSH1 0x11 PUSH1 0x4 MSTORE PUSH1 0x24 PUSH1 0x0 REVERT JUMPDEST PUSH1 0x0 PUSH2 0x13E6 DUP3 PUSH2 0xD79 JUMP JUMPDEST SWAP2 POP PUSH2 0x13F1 DUP4 PUSH2 0xD79 JUMP JUMPDEST SWAP3 POP DUP3 PUSH2 0x1401 JUMPI PUSH2 0x1400 PUSH2 0x137D JUMP JUMPDEST JUMPDEST DUP3 DUP3 DIV SWAP1 POP SWAP3 SWAP2 POP POP JUMP JUMPDEST PUSH32 0x4E6F7420656E6F75676820617070726F76616C73000000000000000000000000 PUSH1 0x0 DUP3 ADD MSTORE POP JUMP JUMPDEST PUSH1 0x0 PUSH2 0x1442 PUSH1 0x14 DUP4 PUSH2 0xEA8 JUMP JUMPDEST SWAP2 POP PUSH2 0x144D DUP3 PUSH2 0x140C JUMP JUMPDEST PUSH1 0x20 DUP3 ADD SWAP1 POP SWAP2 SWAP1 POP JUMP JUMPDEST PUSH1 0x0 PUSH1 0x20 DUP3 ADD SWAP1 POP DUP2 DUP2 SUB PUSH1 0x0 DUP4 ADD MSTORE PUSH2 0x1471 DUP2 PUSH2 0x1435 JUMP JUMPDEST SWAP1 POP SWAP2 SWAP1 POP JUMP JUMPDEST PUSH32 0x5265717565737420616C72656164792066696E616C697A656400000000000000 PUSH1 0x0 DUP3 ADD MSTORE POP JUMP JUMPDEST PUSH1 0x0 PUSH2 0x14AE PUSH1 0x19 DUP4 PUSH2 0xEA8 JUMP JUMPDEST SWAP2 POP PUSH2 0x14B9 DUP3 PUSH2 0x1478 JUMP JUMPDEST PUSH1 0x20 DUP3 ADD SWAP1 POP SWAP2 SWAP1 POP JUMP JUMPDEST PUSH1 0x0 PUSH1 0x20 DUP3 ADD SWAP1 POP DUP2 DUP2 SUB PUSH1 0x0 DUP4 ADD MSTORE PUSH2 0x14DD DUP2 PUSH2 0x14A1 JUMP JUMPDEST SWAP1 POP SWAP2 SWAP1 POP JUMP JUMPDEST PUSH32 0x4E487B7100000000000000000000000000000000000000000000000000000000 PUSH1 0x0 MSTORE PUSH1 0x22 PUSH1 0x4 MSTORE PUSH1 0x24 PUSH1 0x0 REVERT JUMPDEST PUSH1 0x0 PUSH1 0x2 DUP3 DIV SWAP1 POP PUSH1 0x1 DUP3 AND DUP1 PUSH2 0x152B JUMPI PUSH1 0x7F DUP3 AND SWAP2 POP JUMPDEST PUSH1 0x20 DUP3 LT DUP2 SUB PUSH2 0x153E JUMPI PUSH2 0x153D PUSH2 0x14E4 JUMP JUMPDEST JUMPDEST POP SWAP2 SWAP1 POP JUMP JUMPDEST PUSH1 0x0 DUP2 SWAP1 POP DUP2 PUSH1 0x0 MSTORE PUSH1 0x20 PUSH1 0x0 KECCAK256 SWAP1 POP SWAP2 SWAP1 POP JUMP JUMPDEST PUSH1 0x0 PUSH1 0x20 PUSH1 0x1F DUP4 ADD DIV SWAP1 POP SWAP2 SWAP1 POP JUMP JUMPDEST PUSH1 0x0 DUP3 DUP3 SHL SWAP1 POP SWAP3 SWAP2 POP POP JUMP JUMPDEST PUSH1 0x0 PUSH1 0x8 DUP4 MUL PUSH2 0x15A6 PUSH32 0xFFFFFFFFFFFFFFFFFFFFFFFFFFFFFFFFFFFFFFFFFFFFFFFFFFFFFFFFFFFFFFFF DUP3 PUSH2 0x1569 JUMP JUMPDEST PUSH2 0x15B0 DUP7 DUP4 PUSH2 0x1569 JUMP JUMPDEST SWAP6 POP DUP1 NOT DUP5 AND SWAP4 POP DUP1 DUP7 AND DUP5 OR SWAP3 POP POP POP SWAP4 SWAP3 POP POP POP JUMP JUMPDEST PUSH1 0x0 DUP2 SWAP1 POP SWAP2 SWAP1 POP JUMP JUMPDEST PUSH1 0x0 PUSH2 0x15ED PUSH2 0x15E8 PUSH2 0x15E3 DUP5 PUSH2 0xD79 JUMP JUMPDEST PUSH2 0x15C8 JUMP JUMPDEST PUSH2 0xD79 JUMP JUMPDEST SWAP1 POP SWAP2 SWAP1 POP JUMP JUMPDEST PUSH1 0x0 DUP2 SWAP1 POP SWAP2 SWAP1 POP JUMP JUMPDEST PUSH2 0x1607 DUP4 PUSH2 0x15D2 JUMP JUMPDEST PUSH2 0x161B PUSH2 0x1613 DUP3 PUSH2 0x15F4 JUMP JUMPDEST DUP5 DUP5 SLOAD PUSH2 0x1576 JUMP JUMPDEST DUP3 SSTORE POP POP POP POP JUMP JUMPDEST PUSH1 0x0 SWAP1 JUMP JUMPDEST PUSH2 0x1630 PUSH2 0x1623 JUMP JUMPDEST PUSH2 0x163B DUP2 DUP5 DUP5 PUSH2 0x15FE JUMP JUMPDEST POP POP POP JUMP JUMPDEST JUMPDEST DUP2 DUP2 LT ISZERO PUSH2 0x165F JUMPI PUSH2 0x1654 PUSH1 0x0 DUP3 PUSH2 0x1628 JUMP JUMPDEST PUSH1 0x1 DUP2 ADD SWAP1 POP PUSH2 0x1641 JUMP JUMPDEST POP POP JUMP JUMPDEST PUSH1 0x1F DUP3 GT ISZERO PUSH2 0x16A4 JUMPI PUSH2 0x1675 DUP2 PUSH2 0x1544 JUMP JUMPDEST PUSH2 0x167E DUP5 PUSH2 0x1559 JUMP JUMPDEST DUP2 ADD PUSH1 0x20 DUP6 LT ISZERO PUSH2 0x168D JUMPI DUP2 SWAP1 POP JUMPDEST PUSH2 0x16A1 PUSH2 0x1699 DUP6 PUSH2 0x1559 JUMP JUMPDEST DUP4 ADD DUP3 PUSH2 0x1640 JUMP JUMPDEST POP POP JUMPDEST POP POP POP JUMP JUMPDEST PUSH1 0x0 DUP3 DUP3 SHR SWAP1 POP SWAP3 SWAP2 POP POP JUMP JUMPDEST PUSH1 0x0 PUSH2 0x16C7 PUSH1 0x0 NOT DUP5 PUSH1 0x8 MUL PUSH2 0x16A9 JUMP JUMPDEST NOT DUP1 DUP4 AND SWAP2 POP POP SWAP3 SWAP2 POP POP JUMP JUMPDEST PUSH1 0x0 PUSH2 0x16E0 DUP4 DUP4 PUSH2 0x16B6 JUMP JUMPDEST SWAP2 POP DUP3 PUSH1 0x2 MUL DUP3 OR SWAP1 POP SWAP3 SWAP2 POP POP JUMP JUMPDEST PUSH2 0x16F9 DUP3 PUSH2 0xE9D JUMP JUMPDEST PUSH8 0xFFFFFFFFFFFFFFFF DUP2 GT ISZERO PUSH2 0x1712 JUMPI PUSH2 0x1711 PUSH2 0x10BB JUMP JUMPDEST JUMPDEST PUSH2 0x171C DUP3 SLOAD PUSH2 0x1513 JUMP JUMPDEST PUSH2 0x1727 DUP3 DUP3 DUP6 PUSH2 0x1663 JUMP JUMPDEST PUSH1 0x0 PUSH1 0x20 SWAP1 POP PUSH1 0x1F DUP4 GT PUSH1 0x1 DUP2 EQ PUSH2 0x175A JUMPI PUSH1 0x0 DUP5 ISZERO PUSH2 0x1748 JUMPI DUP3 DUP8 ADD MLOAD SWAP1 POP JUMPDEST PUSH2 0x1752 DUP6 DUP3 PUSH2 0x16D4 JUMP JUMPDEST DUP7 SSTORE POP PUSH2 0x17BA JUMP JUMPDEST PUSH1 0x1F NOT DUP5 AND PUSH2 0x1768 DUP7 PUSH2 0x1544 JUMP JUMPDEST PUSH1 0x0 JUMPDEST DUP3 DUP2 LT ISZERO PUSH2 0x1790 JUMPI DUP5 DUP10 ADD MLOAD DUP3 SSTORE PUSH1 0x1 DUP3 ADD SWAP2 POP PUSH1 0x20 DUP6 ADD SWAP5 POP PUSH1 0x20 DUP2 ADD SWAP1 POP PUSH2 0x176B JUMP JUMPDEST DUP7 DUP4 LT ISZERO PUSH2 0x17AD JUMPI DUP5 DUP10 ADD MLOAD PUSH2 0x17A9 PUSH1 0x1F DUP10 AND DUP3 PUSH2 0x16B6 JUMP JUMPDEST DUP4 SSTORE POP JUMPDEST PUSH1 0x1 PUSH1 0x2 DUP9 MUL ADD DUP9 SSTORE POP POP POP JUMPDEST POP POP POP POP POP POP JUMP JUMPDEST PUSH32 0x4D696E696D756D20636F6E747269627574696F6E206973206E6F74206D617463 PUSH1 0x0 DUP3 ADD MSTORE PUSH32 0x6865640000000000000000000000000000000000000000000000000000000000 PUSH1 0x20 DUP3 ADD MSTORE POP JUMP JUMPDEST PUSH1 0x0 PUSH2 0x181E PUSH1 0x23 DUP4 PUSH2 0xEA8 JUMP JUMPDEST SWAP2 POP PUSH2 0x1829 DUP3 PUSH2 0x17C2 JUMP JUMPDEST PUSH1 0x40 DUP3 ADD SWAP1 POP SWAP2 SWAP1 POP JUMP JUMPDEST PUSH1 0x0 PUSH1 0x20 DUP3 ADD SWAP1 POP DUP2 DUP2 SUB PUSH1 0x0 DUP4 ADD MSTORE PUSH2 0x184D DUP2 PUSH2 0x1811 JUMP JUMPDEST SWAP1 POP SWAP2 SWAP1 POP JUMP JUMPDEST PUSH1 0x0 PUSH2 0x185F DUP3 PUSH2 0xD79 JUMP JUMPDEST SWAP2 POP PUSH32 0xFFFFFFFFFFFFFFFFFFFFFFFFFFFFFFFFFFFFFFFFFFFFFFFFFFFFFFFFFFFFFFFF DUP3 SUB PUSH2 0x1891 JUMPI PUSH2 0x1890 PUSH2 0x13AC JUMP JUMPDEST JUMPDEST PUSH1 0x1 DUP3 ADD SWAP1 POP SWAP2 SWAP1 POP JUMP INVALID LOG2 PUSH5 0x6970667358 0x22 SLT KECCAK256 EQ 0x23 0xC7 PUSH7 0x8CB9A73EB0C3C4 CHAINID DUP13 0xAB 0x4C 0xC4 0x28 PUSH30 0x5296804DFDCF9FB11E40D26420B364736F6C634300081300330000000000 "},"gasEstimates":{"creation":{"codeDepositCost":"1270800","executionCost":"infinite","totalCost":"infinite"},"external":{"approveRequest(uint256)":"infinite","approvedAddresses(uint256,address)":"3110","approvers(address)":"2891","approversCount()":"2474","campaignDescription()":"infinite","campaignTitle()":"infinite","contribute()":"53241","createRequest(string,uint256,address)":"infinite","finalizeRequest(uint256)":"infinite","getDetails()":"infinite","getRequestsCount()":"2490","getSummary()":"infinite","manager()":"2600","minimumContribution()":"2451","requests(uint256)":"infinite"}},"methodIdentifiers":{"approveRequest(uint256)":"d7d1bbdb","approvedAddresses(uint256,address)":"33f449e5","approvers(address)":"0a144391","approversCount()":"82fde093","campaignDescription()":"110842cb","campaignTitle()":"835a6172","contribute()":"d7bb99ba","createRequest(string,uint256,address)":"8a9cfd55","finalizeRequest(uint256)":"03441006","getDetails()":"fbbf93a0","getRequestsCount()":"3410452a","getSummary()":"4051ddac","manager()":"481c6a75","minimumContribution()":"937e09b1","requests(uint256)":"81d12c58"}},"storageLayout":{"storage":[{"astId":58,"contract":"Campaign.sol:Campaign","label":"manager","offset":0,"slot":"0","type":"t_address"},{"astId":60,"contract":"Campaign.sol:Campaign","label":"campaignTitle","offset":0,"slot":"1","type":"t_string_storage"},{"astId":62,"contract":"Campaign.sol:Campaign","label":"campaignDescription","offset":0,"slot":"2","type":"t_string_storage"},{"astId":64,"contract":"Campaign.sol:Campaign","label":"minimumContribution","offset":0,"slot":"3","type":"t_uint256"},{"astId":68,"contract":"Campaign.sol:Campaign","label":"approvers","offset":0,"slot":"4","type":"t_mapping(t_address,t_bool)"},{"astId":70,"contract":"Campaign.sol:Campaign","label":"approversCount","offset":0,"slot":"5","type":"t_uint256"},{"astId":76,"contract":"Campaign.sol:Campaign","label":"approvedAddresses","offset":0,"slot":"6","type":"t_mapping(t_uint256,t_mapping(t_address,t_bool))"},{"astId":80,"contract":"Campaign.sol:Campaign","label":"requests","offset":0,"slot":"7","type":"t_array(t_struct(Request)56_storage)dyn_storage"}],"types":{"t_address":{"encoding":"inplace","label":"address","numberOfBytes":"20"},"t_address_payable":{"encoding":"inplace","label":"address payable","numberOfBytes":"20"},"t_array(t_struct(Request)56_storage)dyn_storage":{"base":"t_struct(Request)56_storage","encoding":"dynamic_array","label":"struct Campaign.Request[]","numberOfBytes":"32"},"t_bool":{"encoding":"inplace","label":"bool","numberOfBytes":"1"},"t_mapping(t_address,t_bool)":{"encoding":"mapping","key":"t_address","label":"mapping(address => bool)","numberOfBytes":"32","value":"t_bool"},"t_mapping(t_uint256,t_mapping(t_address,t_bool))":{"encoding":"mapping","key":"t_uint256","label":"mapping(uint256 => mapping(address => bool))","numberOfBytes":"32","value":"t_mapping(t_address,t_bool)"},"t_string_storage":{"encoding":"bytes","label":"string","numberOfBytes":"32"},"t_struct(Request)56_storage":{"encoding":"inplace","label":"struct Campaign.Request","members":[{"astId":47,"contract":"Campaign.sol:Campaign","label":"description","offset":0,"slot":"0","type":"t_string_storage"},{"astId":49,"contract":"Campaign.sol:Campaign","label":"value","offset":0,"slot":"1","type":"t_uint256"},{"astId":51,"contract":"Campaign.sol:Campaign","label":"recipient","offset":0,"slot":"2","type":"t_address_payable"},{"astId":53,"contract":"Campaign.sol:Campaign","label":"complete","offset":20,"slot":"2","type":"t_bool"},{"astId":55,"contract":"Campaign.sol:Campaign","label":"approvalCount","offset":0,"slot":"3","type":"t_uint256"}],"numberOfBytes":"128"},"t_uint256":{"encoding":"inplace","label":"uint256","numberOfBytes":"32"}}},"userdoc":{"kind":"user","methods":{},"version":1}}