{"abi":[{"inputs":[{"internalType":"uint256","name":"minimum","type":"uint256"},{"internalType":"address","name":"creator","type":"address"}],"stateMutability":"nonpayable","type":"constructor"},{"inputs":[{"internalType":"uint256","name":"index","type":"uint256"}],"name":"approveRequest","outputs":[],"stateMutability":"nonpayable","type":"function"},{"inputs":[{"internalType":"uint256","name":"","type":"uint256"},{"internalType":"address","name":"","type":"address"}],"name":"approvedAddresses","outputs":[{"internalType":"bool","name":"","type":"bool"}],"stateMutability":"view","type":"function"},{"inputs":[{"internalType":"address","name":"","type":"address"}],"name":"approvers","outputs":[{"internalType":"bool","name":"","type":"bool"}],"stateMutability":"view","type":"function"},{"inputs":[],"name":"approversCount","outputs":[{"internalType":"uint256","name":"","type":"uint256"}],"stateMutability":"view","type":"function"},{"inputs":[],"name":"contribute","outputs":[],"stateMutability":"payable","type":"function"},{"inputs":[{"internalType":"string","name":"description","type":"string"},{"internalType":"uint256","name":"value","type":"uint256"},{"internalType":"address payable","name":"recipient","type":"address"}],"name":"createRequest","outputs":[],"stateMutability":"nonpayable","type":"function"},{"inputs":[{"internalType":"uint256","name":"index","type":"uint256"}],"name":"finalizeRequest","outputs":[],"stateMutability":"nonpayable","type":"function"},{"inputs":[],"name":"manager","outputs":[{"internalType":"address","name":"","type":"address"}],"stateMutability":"view","type":"function"},{"inputs":[],"name":"minimumContribution","outputs":[{"internalType":"uint256","name":"","type":"uint256"}],"stateMutability":"view","type":"function"},{"inputs":[{"internalType":"uint256","name":"","type":"uint256"}],"name":"requests","outputs":[{"internalType":"string","name":"description","type":"string"},{"internalType":"uint256","name":"value","type":"uint256"},{"internalType":"address payable","name":"recipient","type":"address"},{"internalType":"bool","name":"complete","type":"bool"},{"internalType":"uint256","name":"approvalCount","type":"uint256"}],"stateMutability":"view","type":"function"}],"devdoc":{"kind":"dev","methods":{},"version":1},"evm":{"assembly":"    /* \"Campaign.sol\":427:2498  contract Campaign {... */\n  mstore(0x40, 0x80)\n    /* \"Campaign.sol\":993:1109  constructor(uint minimum, address creator) {... */\n  callvalue\n  dup1\n  iszero\n  tag_1\n  jumpi\n  0x00\n  dup1\n  revert\ntag_1:\n  pop\n  mload(0x40)\n  sub(codesize, bytecodeSize)\n  dup1\n  bytecodeSize\n  dup4\n  codecopy\n  dup2\n  dup2\n  add\n  0x40\n  mstore\n  dup2\n  add\n  swap1\n  tag_2\n  swap2\n  swap1\n  tag_3\n  jump\t// in\ntag_2:\n    /* \"Campaign.sol\":1056:1063  creator */\n  dup1\n    /* \"Campaign.sol\":1046:1053  manager */\n  0x00\n  dup1\n    /* \"Campaign.sol\":1046:1063  manager = creator */\n  0x0100\n  exp\n  dup2\n  sload\n  dup2\n  0xffffffffffffffffffffffffffffffffffffffff\n  mul\n  not\n  and\n  swap1\n  dup4\n  0xffffffffffffffffffffffffffffffffffffffff\n  and\n  mul\n  or\n  swap1\n  sstore\n  pop\n    /* \"Campaign.sol\":1095:1102  minimum */\n  dup2\n    /* \"Campaign.sol\":1073:1092  minimumContribution */\n  0x01\n    /* \"Campaign.sol\":1073:1102  minimumContribution = minimum */\n  dup2\n  swap1\n  sstore\n  pop\n    /* \"Campaign.sol\":993:1109  constructor(uint minimum, address creator) {... */\n  pop\n  pop\n    /* \"Campaign.sol\":427:2498  contract Campaign {... */\n  jump(tag_6)\n    /* \"#utility.yul\":88:205   */\ntag_8:\n    /* \"#utility.yul\":197:198   */\n  0x00\n    /* \"#utility.yul\":194:195   */\n  dup1\n    /* \"#utility.yul\":187:199   */\n  revert\n    /* \"#utility.yul\":334:411   */\ntag_10:\n    /* \"#utility.yul\":371:378   */\n  0x00\n    /* \"#utility.yul\":400:405   */\n  dup2\n    /* \"#utility.yul\":389:405   */\n  swap1\n  pop\n    /* \"#utility.yul\":334:411   */\n  swap2\n  swap1\n  pop\n  jump\t// out\n    /* \"#utility.yul\":417:539   */\ntag_11:\n    /* \"#utility.yul\":490:514   */\n  tag_23\n    /* \"#utility.yul\":508:513   */\n  dup2\n    /* \"#utility.yul\":490:514   */\n  tag_10\n  jump\t// in\ntag_23:\n    /* \"#utility.yul\":483:488   */\n  dup2\n    /* \"#utility.yul\":480:515   */\n  eq\n    /* \"#utility.yul\":470:533   */\n  tag_24\n  jumpi\n    /* \"#utility.yul\":529:530   */\n  0x00\n    /* \"#utility.yul\":526:527   */\n  dup1\n    /* \"#utility.yul\":519:531   */\n  revert\n    /* \"#utility.yul\":470:533   */\ntag_24:\n    /* \"#utility.yul\":417:539   */\n  pop\n  jump\t// out\n    /* \"#utility.yul\":545:688   */\ntag_12:\n    /* \"#utility.yul\":602:607   */\n  0x00\n    /* \"#utility.yul\":633:639   */\n  dup2\n    /* \"#utility.yul\":627:640   */\n  mload\n    /* \"#utility.yul\":618:640   */\n  swap1\n  pop\n    /* \"#utility.yul\":649:682   */\n  tag_26\n    /* \"#utility.yul\":676:681   */\n  dup2\n    /* \"#utility.yul\":649:682   */\n  tag_11\n  jump\t// in\ntag_26:\n    /* \"#utility.yul\":545:688   */\n  swap3\n  swap2\n  pop\n  pop\n  jump\t// out\n    /* \"#utility.yul\":694:820   */\ntag_13:\n    /* \"#utility.yul\":731:738   */\n  0x00\n    /* \"#utility.yul\":771:813   */\n  0xffffffffffffffffffffffffffffffffffffffff\n    /* \"#utility.yul\":764:769   */\n  dup3\n    /* \"#utility.yul\":760:814   */\n  and\n    /* \"#utility.yul\":749:814   */\n  swap1\n  pop\n    /* \"#utility.yul\":694:820   */\n  swap2\n  swap1\n  pop\n  jump\t// out\n    /* \"#utility.yul\":826:922   */\ntag_14:\n    /* \"#utility.yul\":863:870   */\n  0x00\n    /* \"#utility.yul\":892:916   */\n  tag_29\n    /* \"#utility.yul\":910:915   */\n  dup3\n    /* \"#utility.yul\":892:916   */\n  tag_13\n  jump\t// in\ntag_29:\n    /* \"#utility.yul\":881:916   */\n  swap1\n  pop\n    /* \"#utility.yul\":826:922   */\n  swap2\n  swap1\n  pop\n  jump\t// out\n    /* \"#utility.yul\":928:1050   */\ntag_15:\n    /* \"#utility.yul\":1001:1025   */\n  tag_31\n    /* \"#utility.yul\":1019:1024   */\n  dup2\n    /* \"#utility.yul\":1001:1025   */\n  tag_14\n  jump\t// in\ntag_31:\n    /* \"#utility.yul\":994:999   */\n  dup2\n    /* \"#utility.yul\":991:1026   */\n  eq\n    /* \"#utility.yul\":981:1044   */\n  tag_32\n  jumpi\n    /* \"#utility.yul\":1040:1041   */\n  0x00\n    /* \"#utility.yul\":1037:1038   */\n  dup1\n    /* \"#utility.yul\":1030:1042   */\n  revert\n    /* \"#utility.yul\":981:1044   */\ntag_32:\n    /* \"#utility.yul\":928:1050   */\n  pop\n  jump\t// out\n    /* \"#utility.yul\":1056:1199   */\ntag_16:\n    /* \"#utility.yul\":1113:1118   */\n  0x00\n    /* \"#utility.yul\":1144:1150   */\n  dup2\n    /* \"#utility.yul\":1138:1151   */\n  mload\n    /* \"#utility.yul\":1129:1151   */\n  swap1\n  pop\n    /* \"#utility.yul\":1160:1193   */\n  tag_34\n    /* \"#utility.yul\":1187:1192   */\n  dup2\n    /* \"#utility.yul\":1160:1193   */\n  tag_15\n  jump\t// in\ntag_34:\n    /* \"#utility.yul\":1056:1199   */\n  swap3\n  swap2\n  pop\n  pop\n  jump\t// out\n    /* \"#utility.yul\":1205:1712   */\ntag_3:\n    /* \"#utility.yul\":1284:1290   */\n  0x00\n    /* \"#utility.yul\":1292:1298   */\n  dup1\n    /* \"#utility.yul\":1341:1343   */\n  0x40\n    /* \"#utility.yul\":1329:1338   */\n  dup4\n    /* \"#utility.yul\":1320:1327   */\n  dup6\n    /* \"#utility.yul\":1316:1339   */\n  sub\n    /* \"#utility.yul\":1312:1344   */\n  slt\n    /* \"#utility.yul\":1309:1428   */\n  iszero\n  tag_36\n  jumpi\n    /* \"#utility.yul\":1347:1426   */\n  tag_37\n  tag_8\n  jump\t// in\ntag_37:\n    /* \"#utility.yul\":1309:1428   */\ntag_36:\n    /* \"#utility.yul\":1467:1468   */\n  0x00\n    /* \"#utility.yul\":1492:1556   */\n  tag_38\n    /* \"#utility.yul\":1548:1555   */\n  dup6\n    /* \"#utility.yul\":1539:1545   */\n  dup3\n    /* \"#utility.yul\":1528:1537   */\n  dup7\n    /* \"#utility.yul\":1524:1546   */\n  add\n    /* \"#utility.yul\":1492:1556   */\n  tag_12\n  jump\t// in\ntag_38:\n    /* \"#utility.yul\":1482:1556   */\n  swap3\n  pop\n    /* \"#utility.yul\":1438:1566   */\n  pop\n    /* \"#utility.yul\":1605:1607   */\n  0x20\n    /* \"#utility.yul\":1631:1695   */\n  tag_39\n    /* \"#utility.yul\":1687:1694   */\n  dup6\n    /* \"#utility.yul\":1678:1684   */\n  dup3\n    /* \"#utility.yul\":1667:1676   */\n  dup7\n    /* \"#utility.yul\":1663:1685   */\n  add\n    /* \"#utility.yul\":1631:1695   */\n  tag_16\n  jump\t// in\ntag_39:\n    /* \"#utility.yul\":1621:1695   */\n  swap2\n  pop\n    /* \"#utility.yul\":1576:1705   */\n  pop\n    /* \"#utility.yul\":1205:1712   */\n  swap3\n  pop\n  swap3\n  swap1\n  pop\n  jump\t// out\n    /* \"Campaign.sol\":427:2498  contract Campaign {... */\ntag_6:\n  dataSize(sub_0)\n  dup1\n  dataOffset(sub_0)\n  0x00\n  codecopy\n  0x00\n  return\nstop\n\nsub_0: assembly {\n        /* \"Campaign.sol\":427:2498  contract Campaign {... */\n      mstore(0x40, 0x80)\n      jumpi(tag_1, lt(calldatasize, 0x04))\n      shr(0xe0, calldataload(0x00))\n      dup1\n      0x82fde093\n      gt\n      tag_12\n      jumpi\n      dup1\n      0x82fde093\n      eq\n      tag_7\n      jumpi\n      dup1\n      0x8a9cfd55\n      eq\n      tag_8\n      jumpi\n      dup1\n      0x937e09b1\n      eq\n      tag_9\n      jumpi\n      dup1\n      0xd7bb99ba\n      eq\n      tag_10\n      jumpi\n      dup1\n      0xd7d1bbdb\n      eq\n      tag_11\n      jumpi\n      jump(tag_1)\n    tag_12:\n      dup1\n      0x03441006\n      eq\n      tag_2\n      jumpi\n      dup1\n      0x0a144391\n      eq\n      tag_3\n      jumpi\n      dup1\n      0x33f449e5\n      eq\n      tag_4\n      jumpi\n      dup1\n      0x481c6a75\n      eq\n      tag_5\n      jumpi\n      dup1\n      0x81d12c58\n      eq\n      tag_6\n      jumpi\n    tag_1:\n      0x00\n      dup1\n      revert\n        /* \"Campaign.sol\":2145:2496  function finalizeRequest(uint index) public restricted {... */\n    tag_2:\n      callvalue\n      dup1\n      iszero\n      tag_13\n      jumpi\n      0x00\n      dup1\n      revert\n    tag_13:\n      pop\n      tag_14\n      0x04\n      dup1\n      calldatasize\n      sub\n      dup2\n      add\n      swap1\n      tag_15\n      swap2\n      swap1\n      tag_16\n      jump\t// in\n    tag_15:\n      tag_17\n      jump\t// in\n    tag_14:\n      stop\n        /* \"Campaign.sol\":695:736  mapping(address => bool) public approvers */\n    tag_3:\n      callvalue\n      dup1\n      iszero\n      tag_18\n      jumpi\n      0x00\n      dup1\n      revert\n    tag_18:\n      pop\n      tag_19\n      0x04\n      dup1\n      calldatasize\n      sub\n      dup2\n      add\n      swap1\n      tag_20\n      swap2\n      swap1\n      tag_21\n      jump\t// in\n    tag_20:\n      tag_22\n      jump\t// in\n    tag_19:\n      mload(0x40)\n      tag_23\n      swap2\n      swap1\n      tag_24\n      jump\t// in\n    tag_23:\n      mload(0x40)\n      dup1\n      swap2\n      sub\n      swap1\n      return\n        /* \"Campaign.sol\":774:840  mapping(uint => mapping(address => bool)) public approvedAddresses */\n    tag_4:\n      callvalue\n      dup1\n      iszero\n      tag_25\n      jumpi\n      0x00\n      dup1\n      revert\n    tag_25:\n      pop\n      tag_26\n      0x04\n      dup1\n      calldatasize\n      sub\n      dup2\n      add\n      swap1\n      tag_27\n      swap2\n      swap1\n      tag_28\n      jump\t// in\n    tag_27:\n      tag_29\n      jump\t// in\n    tag_26:\n      mload(0x40)\n      tag_30\n      swap2\n      swap1\n      tag_24\n      jump\t// in\n    tag_30:\n      mload(0x40)\n      dup1\n      swap2\n      sub\n      swap1\n      return\n        /* \"Campaign.sol\":630:652  address public manager */\n    tag_5:\n      callvalue\n      dup1\n      iszero\n      tag_31\n      jumpi\n      0x00\n      dup1\n      revert\n    tag_31:\n      pop\n      tag_32\n      tag_33\n      jump\t// in\n    tag_32:\n      mload(0x40)\n      tag_34\n      swap2\n      swap1\n      tag_35\n      jump\t// in\n    tag_34:\n      mload(0x40)\n      dup1\n      swap2\n      sub\n      swap1\n      return\n        /* \"Campaign.sol\":846:871  Request[] public requests */\n    tag_6:\n      callvalue\n      dup1\n      iszero\n      tag_36\n      jumpi\n      0x00\n      dup1\n      revert\n    tag_36:\n      pop\n      tag_37\n      0x04\n      dup1\n      calldatasize\n      sub\n      dup2\n      add\n      swap1\n      tag_38\n      swap2\n      swap1\n      tag_16\n      jump\t// in\n    tag_38:\n      tag_39\n      jump\t// in\n    tag_37:\n      mload(0x40)\n      tag_40\n      swap6\n      swap5\n      swap4\n      swap3\n      swap2\n      swap1\n      tag_41\n      jump\t// in\n    tag_40:\n      mload(0x40)\n      dup1\n      swap2\n      sub\n      swap1\n      return\n        /* \"Campaign.sol\":742:768  uint public approversCount */\n    tag_7:\n      callvalue\n      dup1\n      iszero\n      tag_42\n      jumpi\n      0x00\n      dup1\n      revert\n    tag_42:\n      pop\n      tag_43\n      tag_44\n      jump\t// in\n    tag_43:\n      mload(0x40)\n      tag_45\n      swap2\n      swap1\n      tag_46\n      jump\t// in\n    tag_45:\n      mload(0x40)\n      dup1\n      swap2\n      sub\n      swap1\n      return\n        /* \"Campaign.sol\":1445:1892  function createRequest(string memory description, uint value, address payable recipient) public restricted {... */\n    tag_8:\n      callvalue\n      dup1\n      iszero\n      tag_47\n      jumpi\n      0x00\n      dup1\n      revert\n    tag_47:\n      pop\n      tag_48\n      0x04\n      dup1\n      calldatasize\n      sub\n      dup2\n      add\n      swap1\n      tag_49\n      swap2\n      swap1\n      tag_50\n      jump\t// in\n    tag_49:\n      tag_51\n      jump\t// in\n    tag_48:\n      stop\n        /* \"Campaign.sol\":658:689  uint public minimumContribution */\n    tag_9:\n      callvalue\n      dup1\n      iszero\n      tag_52\n      jumpi\n      0x00\n      dup1\n      revert\n    tag_52:\n      pop\n      tag_53\n      tag_54\n      jump\t// in\n    tag_53:\n      mload(0x40)\n      tag_55\n      swap2\n      swap1\n      tag_46\n      jump\t// in\n    tag_55:\n      mload(0x40)\n      dup1\n      swap2\n      sub\n      swap1\n      return\n        /* \"Campaign.sol\":1115:1439  function contribute() public payable {... */\n    tag_10:\n      tag_56\n      tag_57\n      jump\t// in\n    tag_56:\n      stop\n        /* \"Campaign.sol\":1898:2139  function approveRequest(uint index) public {... */\n    tag_11:\n      callvalue\n      dup1\n      iszero\n      tag_58\n      jumpi\n      0x00\n      dup1\n      revert\n    tag_58:\n      pop\n      tag_59\n      0x04\n      dup1\n      calldatasize\n      sub\n      dup2\n      add\n      swap1\n      tag_60\n      swap2\n      swap1\n      tag_16\n      jump\t// in\n    tag_60:\n      tag_61\n      jump\t// in\n    tag_59:\n      stop\n        /* \"Campaign.sol\":2145:2496  function finalizeRequest(uint index) public restricted {... */\n    tag_17:\n        /* \"Campaign.sol\":932:939  manager */\n      0x00\n      dup1\n      sload\n      swap1\n      0x0100\n      exp\n      swap1\n      div\n      0xffffffffffffffffffffffffffffffffffffffff\n      and\n        /* \"Campaign.sol\":918:939  msg.sender == manager */\n      0xffffffffffffffffffffffffffffffffffffffff\n      and\n        /* \"Campaign.sol\":918:928  msg.sender */\n      caller\n        /* \"Campaign.sol\":918:939  msg.sender == manager */\n      0xffffffffffffffffffffffffffffffffffffffff\n      and\n      eq\n        /* \"Campaign.sol\":910:969  require(msg.sender == manager, \"Caller is not the manager\") */\n      tag_63\n      jumpi\n      mload(0x40)\n      0x08c379a000000000000000000000000000000000000000000000000000000000\n      dup2\n      mstore\n      0x04\n      add\n      tag_64\n      swap1\n      tag_65\n      jump\t// in\n    tag_64:\n      mload(0x40)\n      dup1\n      swap2\n      sub\n      swap1\n      revert\n    tag_63:\n        /* \"Campaign.sol\":2210:2233  Request storage request */\n      0x00\n        /* \"Campaign.sol\":2236:2244  requests */\n      0x05\n        /* \"Campaign.sol\":2245:2250  index */\n      dup3\n        /* \"Campaign.sol\":2236:2251  requests[index] */\n      dup2\n      sload\n      dup2\n      lt\n      tag_67\n      jumpi\n      tag_68\n      tag_69\n      jump\t// in\n    tag_68:\n    tag_67:\n      swap1\n      0x00\n      mstore\n      keccak256(0x00, 0x20)\n      swap1\n      0x04\n      mul\n      add\n        /* \"Campaign.sol\":2210:2251  Request storage request = requests[index] */\n      swap1\n      pop\n        /* \"Campaign.sol\":2312:2313  2 */\n      0x02\n        /* \"Campaign.sol\":2295:2309  approversCount */\n      sload(0x03)\n        /* \"Campaign.sol\":2295:2313  approversCount / 2 */\n      tag_71\n      swap2\n      swap1\n      tag_72\n      jump\t// in\n    tag_71:\n        /* \"Campaign.sol\":2270:2277  request */\n      dup2\n        /* \"Campaign.sol\":2270:2291  request.approvalCount */\n      0x03\n      add\n      sload\n        /* \"Campaign.sol\":2270:2314  request.approvalCount > (approversCount / 2) */\n      gt\n        /* \"Campaign.sol\":2262:2339  require(request.approvalCount > (approversCount / 2), \"Not enough approvals\") */\n      tag_73\n      jumpi\n      mload(0x40)\n      0x08c379a000000000000000000000000000000000000000000000000000000000\n      dup2\n      mstore\n      0x04\n      add\n      tag_74\n      swap1\n      tag_75\n      jump\t// in\n    tag_74:\n      mload(0x40)\n      dup1\n      swap2\n      sub\n      swap1\n      revert\n    tag_73:\n        /* \"Campaign.sol\":2358:2365  request */\n      dup1\n        /* \"Campaign.sol\":2358:2374  request.complete */\n      0x02\n      add\n      0x14\n      swap1\n      sload\n      swap1\n      0x0100\n      exp\n      swap1\n      div\n      0xff\n      and\n        /* \"Campaign.sol\":2357:2374  !request.complete */\n      iszero\n        /* \"Campaign.sol\":2349:2404  require(!request.complete, \"Request already finalized\") */\n      tag_76\n      jumpi\n      mload(0x40)\n      0x08c379a000000000000000000000000000000000000000000000000000000000\n      dup2\n      mstore\n      0x04\n      add\n      tag_77\n      swap1\n      tag_78\n      jump\t// in\n    tag_77:\n      mload(0x40)\n      dup1\n      swap2\n      sub\n      swap1\n      revert\n    tag_76:\n        /* \"Campaign.sol\":2415:2422  request */\n      dup1\n        /* \"Campaign.sol\":2415:2432  request.recipient */\n      0x02\n      add\n      0x00\n      swap1\n      sload\n      swap1\n      0x0100\n      exp\n      swap1\n      div\n      0xffffffffffffffffffffffffffffffffffffffff\n      and\n        /* \"Campaign.sol\":2415:2441  request.recipient.transfer */\n      0xffffffffffffffffffffffffffffffffffffffff\n      and\n        /* \"Campaign.sol\":2415:2456  request.recipient.transfer(request.value) */\n      0x08fc\n        /* \"Campaign.sol\":2442:2449  request */\n      dup3\n        /* \"Campaign.sol\":2442:2455  request.value */\n      0x01\n      add\n      sload\n        /* \"Campaign.sol\":2415:2456  request.recipient.transfer(request.value) */\n      swap1\n      dup2\n      iszero\n      mul\n      swap1\n      mload(0x40)\n      0x00\n      mload(0x40)\n      dup1\n      dup4\n      sub\n      dup2\n      dup6\n      dup9\n      dup9\n      call\n      swap4\n      pop\n      pop\n      pop\n      pop\n      iszero\n      dup1\n      iszero\n      tag_80\n      jumpi\n      returndatasize\n      0x00\n      dup1\n      returndatacopy\n      revert(0x00, returndatasize)\n    tag_80:\n      pop\n        /* \"Campaign.sol\":2485:2489  true */\n      0x01\n        /* \"Campaign.sol\":2466:2473  request */\n      dup2\n        /* \"Campaign.sol\":2466:2482  request.complete */\n      0x02\n      add\n      0x14\n        /* \"Campaign.sol\":2466:2489  request.complete = true */\n      0x0100\n      exp\n      dup2\n      sload\n      dup2\n      0xff\n      mul\n      not\n      and\n      swap1\n      dup4\n      iszero\n      iszero\n      mul\n      or\n      swap1\n      sstore\n      pop\n        /* \"Campaign.sol\":2200:2496  {... */\n      pop\n        /* \"Campaign.sol\":2145:2496  function finalizeRequest(uint index) public restricted {... */\n      pop\n      jump\t// out\n        /* \"Campaign.sol\":695:736  mapping(address => bool) public approvers */\n    tag_22:\n      mstore(0x20, 0x02)\n      dup1\n      0x00\n      mstore\n      keccak256(0x00, 0x40)\n      0x00\n      swap2\n      pop\n      sload\n      swap1\n      0x0100\n      exp\n      swap1\n      div\n      0xff\n      and\n      dup2\n      jump\t// out\n        /* \"Campaign.sol\":774:840  mapping(uint => mapping(address => bool)) public approvedAddresses */\n    tag_29:\n      mstore(0x20, 0x04)\n      dup2\n      0x00\n      mstore\n      mstore(0x20, keccak256(0x00, 0x40))\n      dup1\n      0x00\n      mstore\n      keccak256(0x00, 0x40)\n      0x00\n      swap2\n      pop\n      swap2\n      pop\n      swap1\n      sload\n      swap1\n      0x0100\n      exp\n      swap1\n      div\n      0xff\n      and\n      dup2\n      jump\t// out\n        /* \"Campaign.sol\":630:652  address public manager */\n    tag_33:\n      0x00\n      dup1\n      sload\n      swap1\n      0x0100\n      exp\n      swap1\n      div\n      0xffffffffffffffffffffffffffffffffffffffff\n      and\n      dup2\n      jump\t// out\n        /* \"Campaign.sol\":846:871  Request[] public requests */\n    tag_39:\n      0x05\n      dup2\n      dup2\n      sload\n      dup2\n      lt\n      tag_81\n      jumpi\n      0x00\n      dup1\n      revert\n    tag_81:\n      swap1\n      0x00\n      mstore\n      keccak256(0x00, 0x20)\n      swap1\n      0x04\n      mul\n      add\n      0x00\n      swap2\n      pop\n      swap1\n      pop\n      dup1\n      0x00\n      add\n      dup1\n      sload\n      tag_83\n      swap1\n      tag_84\n      jump\t// in\n    tag_83:\n      dup1\n      0x1f\n      add\n      0x20\n      dup1\n      swap2\n      div\n      mul\n      0x20\n      add\n      mload(0x40)\n      swap1\n      dup2\n      add\n      0x40\n      mstore\n      dup1\n      swap3\n      swap2\n      swap1\n      dup2\n      dup2\n      mstore\n      0x20\n      add\n      dup3\n      dup1\n      sload\n      tag_85\n      swap1\n      tag_84\n      jump\t// in\n    tag_85:\n      dup1\n      iszero\n      tag_86\n      jumpi\n      dup1\n      0x1f\n      lt\n      tag_87\n      jumpi\n      0x0100\n      dup1\n      dup4\n      sload\n      div\n      mul\n      dup4\n      mstore\n      swap2\n      0x20\n      add\n      swap2\n      jump(tag_86)\n    tag_87:\n      dup3\n      add\n      swap2\n      swap1\n      0x00\n      mstore\n      keccak256(0x00, 0x20)\n      swap1\n    tag_88:\n      dup2\n      sload\n      dup2\n      mstore\n      swap1\n      0x01\n      add\n      swap1\n      0x20\n      add\n      dup1\n      dup4\n      gt\n      tag_88\n      jumpi\n      dup3\n      swap1\n      sub\n      0x1f\n      and\n      dup3\n      add\n      swap2\n    tag_86:\n      pop\n      pop\n      pop\n      pop\n      pop\n      swap1\n      dup1\n      0x01\n      add\n      sload\n      swap1\n      dup1\n      0x02\n      add\n      0x00\n      swap1\n      sload\n      swap1\n      0x0100\n      exp\n      swap1\n      div\n      0xffffffffffffffffffffffffffffffffffffffff\n      and\n      swap1\n      dup1\n      0x02\n      add\n      0x14\n      swap1\n      sload\n      swap1\n      0x0100\n      exp\n      swap1\n      div\n      0xff\n      and\n      swap1\n      dup1\n      0x03\n      add\n      sload\n      swap1\n      pop\n      dup6\n      jump\t// out\n        /* \"Campaign.sol\":742:768  uint public approversCount */\n    tag_44:\n      sload(0x03)\n      dup2\n      jump\t// out\n        /* \"Campaign.sol\":1445:1892  function createRequest(string memory description, uint value, address payable recipient) public restricted {... */\n    tag_51:\n        /* \"Campaign.sol\":932:939  manager */\n      0x00\n      dup1\n      sload\n      swap1\n      0x0100\n      exp\n      swap1\n      div\n      0xffffffffffffffffffffffffffffffffffffffff\n      and\n        /* \"Campaign.sol\":918:939  msg.sender == manager */\n      0xffffffffffffffffffffffffffffffffffffffff\n      and\n        /* \"Campaign.sol\":918:928  msg.sender */\n      caller\n        /* \"Campaign.sol\":918:939  msg.sender == manager */\n      0xffffffffffffffffffffffffffffffffffffffff\n      and\n      eq\n        /* \"Campaign.sol\":910:969  require(msg.sender == manager, \"Caller is not the manager\") */\n      tag_90\n      jumpi\n      mload(0x40)\n      0x08c379a000000000000000000000000000000000000000000000000000000000\n      dup2\n      mstore\n      0x04\n      add\n      tag_91\n      swap1\n      tag_65\n      jump\t// in\n    tag_91:\n      mload(0x40)\n      dup1\n      swap2\n      sub\n      swap1\n      revert\n    tag_90:\n        /* \"Campaign.sol\":1605:1631  Request storage newRequest */\n      0x00\n        /* \"Campaign.sol\":1634:1642  requests */\n      0x05\n        /* \"Campaign.sol\":1634:1649  requests.push() */\n      0x01\n      dup2\n      0x01\n      dup2\n      sload\n      add\n      dup1\n      dup3\n      sstore\n      dup1\n      swap2\n      pop\n      pop\n      sub\n      swap1\n      0x00\n      mstore\n      keccak256(0x00, 0x20)\n      swap1\n      0x04\n      mul\n      add\n        /* \"Campaign.sol\":1605:1649  Request storage newRequest = requests.push() */\n      swap1\n      pop\n        /* \"Campaign.sol\":1723:1734  description */\n      dup4\n        /* \"Campaign.sol\":1698:1708  newRequest */\n      dup2\n        /* \"Campaign.sol\":1698:1720  newRequest.description */\n      0x00\n      add\n        /* \"Campaign.sol\":1698:1734  newRequest.description = description */\n      swap1\n      dup2\n      tag_94\n      swap2\n      swap1\n      tag_95\n      jump\t// in\n    tag_94:\n      pop\n        /* \"Campaign.sol\":1763:1768  value */\n      dup3\n        /* \"Campaign.sol\":1744:1754  newRequest */\n      dup2\n        /* \"Campaign.sol\":1744:1760  newRequest.value */\n      0x01\n      add\n        /* \"Campaign.sol\":1744:1768  newRequest.value = value */\n      dup2\n      swap1\n      sstore\n      pop\n        /* \"Campaign.sol\":1801:1810  recipient */\n      dup2\n        /* \"Campaign.sol\":1778:1788  newRequest */\n      dup2\n        /* \"Campaign.sol\":1778:1798  newRequest.recipient */\n      0x02\n      add\n      0x00\n        /* \"Campaign.sol\":1778:1810  newRequest.recipient = recipient */\n      0x0100\n      exp\n      dup2\n      sload\n      dup2\n      0xffffffffffffffffffffffffffffffffffffffff\n      mul\n      not\n      and\n      swap1\n      dup4\n      0xffffffffffffffffffffffffffffffffffffffff\n      and\n      mul\n      or\n      swap1\n      sstore\n      pop\n        /* \"Campaign.sol\":1842:1847  false */\n      0x00\n        /* \"Campaign.sol\":1820:1830  newRequest */\n      dup2\n        /* \"Campaign.sol\":1820:1839  newRequest.complete */\n      0x02\n      add\n      0x14\n        /* \"Campaign.sol\":1820:1847  newRequest.complete = false */\n      0x0100\n      exp\n      dup2\n      sload\n      dup2\n      0xff\n      mul\n      not\n      and\n      swap1\n      dup4\n      iszero\n      iszero\n      mul\n      or\n      swap1\n      sstore\n      pop\n        /* \"Campaign.sol\":1884:1885  0 */\n      0x00\n        /* \"Campaign.sol\":1857:1867  newRequest */\n      dup2\n        /* \"Campaign.sol\":1857:1881  newRequest.approvalCount */\n      0x03\n      add\n        /* \"Campaign.sol\":1857:1885  newRequest.approvalCount = 0 */\n      dup2\n      swap1\n      sstore\n      pop\n        /* \"Campaign.sol\":1552:1892  {... */\n      pop\n        /* \"Campaign.sol\":1445:1892  function createRequest(string memory description, uint value, address payable recipient) public restricted {... */\n      pop\n      pop\n      pop\n      jump\t// out\n        /* \"Campaign.sol\":658:689  uint public minimumContribution */\n    tag_54:\n      sload(0x01)\n      dup2\n      jump\t// out\n        /* \"Campaign.sol\":1115:1439  function contribute() public payable {... */\n    tag_57:\n        /* \"Campaign.sol\":1182:1201  minimumContribution */\n      sload(0x01)\n        /* \"Campaign.sol\":1170:1179  msg.value */\n      callvalue\n        /* \"Campaign.sol\":1170:1201  msg.value > minimumContribution */\n      gt\n        /* \"Campaign.sol\":1162:1241  require(msg.value > minimumContribution, \"Minimum contribution is not matched\") */\n      tag_97\n      jumpi\n      mload(0x40)\n      0x08c379a000000000000000000000000000000000000000000000000000000000\n      dup2\n      mstore\n      0x04\n      add\n      tag_98\n      swap1\n      tag_99\n      jump\t// in\n    tag_98:\n      mload(0x40)\n      dup1\n      swap2\n      sub\n      swap1\n      revert\n    tag_97:\n        /* \"Campaign.sol\":1327:1336  approvers */\n      0x02\n        /* \"Campaign.sol\":1327:1348  approvers[msg.sender] */\n      0x00\n        /* \"Campaign.sol\":1337:1347  msg.sender */\n      caller\n        /* \"Campaign.sol\":1327:1348  approvers[msg.sender] */\n      0xffffffffffffffffffffffffffffffffffffffff\n      and\n      0xffffffffffffffffffffffffffffffffffffffff\n      and\n      dup2\n      mstore\n      0x20\n      add\n      swap1\n      dup2\n      mstore\n      0x20\n      add\n      0x00\n      keccak256\n      0x00\n      swap1\n      sload\n      swap1\n      0x0100\n      exp\n      swap1\n      div\n      0xff\n      and\n        /* \"Campaign.sol\":1322:1433  if (!approvers[msg.sender]) {... */\n      tag_100\n      jumpi\n        /* \"Campaign.sol\":1388:1392  true */\n      0x01\n        /* \"Campaign.sol\":1364:1373  approvers */\n      0x02\n        /* \"Campaign.sol\":1364:1385  approvers[msg.sender] */\n      0x00\n        /* \"Campaign.sol\":1374:1384  msg.sender */\n      caller\n        /* \"Campaign.sol\":1364:1385  approvers[msg.sender] */\n      0xffffffffffffffffffffffffffffffffffffffff\n      and\n      0xffffffffffffffffffffffffffffffffffffffff\n      and\n      dup2\n      mstore\n      0x20\n      add\n      swap1\n      dup2\n      mstore\n      0x20\n      add\n      0x00\n      keccak256\n      0x00\n        /* \"Campaign.sol\":1364:1392  approvers[msg.sender] = true */\n      0x0100\n      exp\n      dup2\n      sload\n      dup2\n      0xff\n      mul\n      not\n      and\n      swap1\n      dup4\n      iszero\n      iszero\n      mul\n      or\n      swap1\n      sstore\n      pop\n        /* \"Campaign.sol\":1406:1420  approversCount */\n      0x03\n      0x00\n        /* \"Campaign.sol\":1406:1422  approversCount++ */\n      dup2\n      sload\n      dup1\n      swap3\n      swap2\n      swap1\n      tag_101\n      swap1\n      tag_102\n      jump\t// in\n    tag_101:\n      swap2\n      swap1\n      pop\n      sstore\n      pop\n        /* \"Campaign.sol\":1322:1433  if (!approvers[msg.sender]) {... */\n    tag_100:\n        /* \"Campaign.sol\":1115:1439  function contribute() public payable {... */\n      jump\t// out\n        /* \"Campaign.sol\":1898:2139  function approveRequest(uint index) public {... */\n    tag_61:\n        /* \"Campaign.sol\":1959:1968  approvers */\n      0x02\n        /* \"Campaign.sol\":1959:1980  approvers[msg.sender] */\n      0x00\n        /* \"Campaign.sol\":1969:1979  msg.sender */\n      caller\n        /* \"Campaign.sol\":1959:1980  approvers[msg.sender] */\n      0xffffffffffffffffffffffffffffffffffffffff\n      and\n      0xffffffffffffffffffffffffffffffffffffffff\n      and\n      dup2\n      mstore\n      0x20\n      add\n      swap1\n      dup2\n      mstore\n      0x20\n      add\n      0x00\n      keccak256\n      0x00\n      swap1\n      sload\n      swap1\n      0x0100\n      exp\n      swap1\n      div\n      0xff\n      and\n        /* \"Campaign.sol\":1951:1981  require(approvers[msg.sender]) */\n      tag_104\n      jumpi\n      0x00\n      dup1\n      revert\n    tag_104:\n        /* \"Campaign.sol\":2000:2017  approvedAddresses */\n      0x04\n        /* \"Campaign.sol\":2000:2024  approvedAddresses[index] */\n      0x00\n        /* \"Campaign.sol\":2018:2023  index */\n      dup3\n        /* \"Campaign.sol\":2000:2024  approvedAddresses[index] */\n      dup2\n      mstore\n      0x20\n      add\n      swap1\n      dup2\n      mstore\n      0x20\n      add\n      0x00\n      keccak256\n        /* \"Campaign.sol\":2000:2036  approvedAddresses[index][msg.sender] */\n      0x00\n        /* \"Campaign.sol\":2025:2035  msg.sender */\n      caller\n        /* \"Campaign.sol\":2000:2036  approvedAddresses[index][msg.sender] */\n      0xffffffffffffffffffffffffffffffffffffffff\n      and\n      0xffffffffffffffffffffffffffffffffffffffff\n      and\n      dup2\n      mstore\n      0x20\n      add\n      swap1\n      dup2\n      mstore\n      0x20\n      add\n      0x00\n      keccak256\n      0x00\n      swap1\n      sload\n      swap1\n      0x0100\n      exp\n      swap1\n      div\n      0xff\n      and\n        /* \"Campaign.sol\":1999:2036  !approvedAddresses[index][msg.sender] */\n      iszero\n        /* \"Campaign.sol\":1991:2037  require(!approvedAddresses[index][msg.sender]) */\n      tag_105\n      jumpi\n      0x00\n      dup1\n      revert\n    tag_105:\n        /* \"Campaign.sol\":2087:2091  true */\n      0x01\n        /* \"Campaign.sol\":2048:2065  approvedAddresses */\n      0x04\n        /* \"Campaign.sol\":2048:2072  approvedAddresses[index] */\n      0x00\n        /* \"Campaign.sol\":2066:2071  index */\n      dup4\n        /* \"Campaign.sol\":2048:2072  approvedAddresses[index] */\n      dup2\n      mstore\n      0x20\n      add\n      swap1\n      dup2\n      mstore\n      0x20\n      add\n      0x00\n      keccak256\n        /* \"Campaign.sol\":2048:2084  approvedAddresses[index][msg.sender] */\n      0x00\n        /* \"Campaign.sol\":2073:2083  msg.sender */\n      caller\n        /* \"Campaign.sol\":2048:2084  approvedAddresses[index][msg.sender] */\n      0xffffffffffffffffffffffffffffffffffffffff\n      and\n      0xffffffffffffffffffffffffffffffffffffffff\n      and\n      dup2\n      mstore\n      0x20\n      add\n      swap1\n      dup2\n      mstore\n      0x20\n      add\n      0x00\n      keccak256\n      0x00\n        /* \"Campaign.sol\":2048:2091  approvedAddresses[index][msg.sender] = true */\n      0x0100\n      exp\n      dup2\n      sload\n      dup2\n      0xff\n      mul\n      not\n      and\n      swap1\n      dup4\n      iszero\n      iszero\n      mul\n      or\n      swap1\n      sstore\n      pop\n        /* \"Campaign.sol\":2101:2109  requests */\n      0x05\n        /* \"Campaign.sol\":2110:2115  index */\n      dup2\n        /* \"Campaign.sol\":2101:2116  requests[index] */\n      dup2\n      sload\n      dup2\n      lt\n      tag_106\n      jumpi\n      tag_107\n      tag_69\n      jump\t// in\n    tag_107:\n    tag_106:\n      swap1\n      0x00\n      mstore\n      keccak256(0x00, 0x20)\n      swap1\n      0x04\n      mul\n      add\n        /* \"Campaign.sol\":2101:2130  requests[index].approvalCount */\n      0x03\n      add\n      0x00\n        /* \"Campaign.sol\":2101:2132  requests[index].approvalCount++ */\n      dup2\n      sload\n      dup1\n      swap3\n      swap2\n      swap1\n      tag_109\n      swap1\n      tag_102\n      jump\t// in\n    tag_109:\n      swap2\n      swap1\n      pop\n      sstore\n      pop\n        /* \"Campaign.sol\":1898:2139  function approveRequest(uint index) public {... */\n      pop\n      jump\t// out\n        /* \"#utility.yul\":7:82   */\n    tag_110:\n        /* \"#utility.yul\":40:46   */\n      0x00\n        /* \"#utility.yul\":73:75   */\n      0x40\n        /* \"#utility.yul\":67:76   */\n      mload\n        /* \"#utility.yul\":57:76   */\n      swap1\n      pop\n        /* \"#utility.yul\":7:82   */\n      swap1\n      jump\t// out\n        /* \"#utility.yul\":88:205   */\n    tag_111:\n        /* \"#utility.yul\":197:198   */\n      0x00\n        /* \"#utility.yul\":194:195   */\n      dup1\n        /* \"#utility.yul\":187:199   */\n      revert\n        /* \"#utility.yul\":211:328   */\n    tag_112:\n        /* \"#utility.yul\":320:321   */\n      0x00\n        /* \"#utility.yul\":317:318   */\n      dup1\n        /* \"#utility.yul\":310:322   */\n      revert\n        /* \"#utility.yul\":334:411   */\n    tag_113:\n        /* \"#utility.yul\":371:378   */\n      0x00\n        /* \"#utility.yul\":400:405   */\n      dup2\n        /* \"#utility.yul\":389:405   */\n      swap1\n      pop\n        /* \"#utility.yul\":334:411   */\n      swap2\n      swap1\n      pop\n      jump\t// out\n        /* \"#utility.yul\":417:539   */\n    tag_114:\n        /* \"#utility.yul\":490:514   */\n      tag_174\n        /* \"#utility.yul\":508:513   */\n      dup2\n        /* \"#utility.yul\":490:514   */\n      tag_113\n      jump\t// in\n    tag_174:\n        /* \"#utility.yul\":483:488   */\n      dup2\n        /* \"#utility.yul\":480:515   */\n      eq\n        /* \"#utility.yul\":470:533   */\n      tag_175\n      jumpi\n        /* \"#utility.yul\":529:530   */\n      0x00\n        /* \"#utility.yul\":526:527   */\n      dup1\n        /* \"#utility.yul\":519:531   */\n      revert\n        /* \"#utility.yul\":470:533   */\n    tag_175:\n        /* \"#utility.yul\":417:539   */\n      pop\n      jump\t// out\n        /* \"#utility.yul\":545:684   */\n    tag_115:\n        /* \"#utility.yul\":591:596   */\n      0x00\n        /* \"#utility.yul\":629:635   */\n      dup2\n        /* \"#utility.yul\":616:636   */\n      calldataload\n        /* \"#utility.yul\":607:636   */\n      swap1\n      pop\n        /* \"#utility.yul\":645:678   */\n      tag_177\n        /* \"#utility.yul\":672:677   */\n      dup2\n        /* \"#utility.yul\":645:678   */\n      tag_114\n      jump\t// in\n    tag_177:\n        /* \"#utility.yul\":545:684   */\n      swap3\n      swap2\n      pop\n      pop\n      jump\t// out\n        /* \"#utility.yul\":690:1019   */\n    tag_16:\n        /* \"#utility.yul\":749:755   */\n      0x00\n        /* \"#utility.yul\":798:800   */\n      0x20\n        /* \"#utility.yul\":786:795   */\n      dup3\n        /* \"#utility.yul\":777:784   */\n      dup5\n        /* \"#utility.yul\":773:796   */\n      sub\n        /* \"#utility.yul\":769:801   */\n      slt\n        /* \"#utility.yul\":766:885   */\n      iszero\n      tag_179\n      jumpi\n        /* \"#utility.yul\":804:883   */\n      tag_180\n      tag_111\n      jump\t// in\n    tag_180:\n        /* \"#utility.yul\":766:885   */\n    tag_179:\n        /* \"#utility.yul\":924:925   */\n      0x00\n        /* \"#utility.yul\":949:1002   */\n      tag_181\n        /* \"#utility.yul\":994:1001   */\n      dup5\n        /* \"#utility.yul\":985:991   */\n      dup3\n        /* \"#utility.yul\":974:983   */\n      dup6\n        /* \"#utility.yul\":970:992   */\n      add\n        /* \"#utility.yul\":949:1002   */\n      tag_115\n      jump\t// in\n    tag_181:\n        /* \"#utility.yul\":939:1002   */\n      swap2\n      pop\n        /* \"#utility.yul\":895:1012   */\n      pop\n        /* \"#utility.yul\":690:1019   */\n      swap3\n      swap2\n      pop\n      pop\n      jump\t// out\n        /* \"#utility.yul\":1025:1151   */\n    tag_116:\n        /* \"#utility.yul\":1062:1069   */\n      0x00\n        /* \"#utility.yul\":1102:1144   */\n      0xffffffffffffffffffffffffffffffffffffffff\n        /* \"#utility.yul\":1095:1100   */\n      dup3\n        /* \"#utility.yul\":1091:1145   */\n      and\n        /* \"#utility.yul\":1080:1145   */\n      swap1\n      pop\n        /* \"#utility.yul\":1025:1151   */\n      swap2\n      swap1\n      pop\n      jump\t// out\n        /* \"#utility.yul\":1157:1253   */\n    tag_117:\n        /* \"#utility.yul\":1194:1201   */\n      0x00\n        /* \"#utility.yul\":1223:1247   */\n      tag_184\n        /* \"#utility.yul\":1241:1246   */\n      dup3\n        /* \"#utility.yul\":1223:1247   */\n      tag_116\n      jump\t// in\n    tag_184:\n        /* \"#utility.yul\":1212:1247   */\n      swap1\n      pop\n        /* \"#utility.yul\":1157:1253   */\n      swap2\n      swap1\n      pop\n      jump\t// out\n        /* \"#utility.yul\":1259:1381   */\n    tag_118:\n        /* \"#utility.yul\":1332:1356   */\n      tag_186\n        /* \"#utility.yul\":1350:1355   */\n      dup2\n        /* \"#utility.yul\":1332:1356   */\n      tag_117\n      jump\t// in\n    tag_186:\n        /* \"#utility.yul\":1325:1330   */\n      dup2\n        /* \"#utility.yul\":1322:1357   */\n      eq\n        /* \"#utility.yul\":1312:1375   */\n      tag_187\n      jumpi\n        /* \"#utility.yul\":1371:1372   */\n      0x00\n        /* \"#utility.yul\":1368:1369   */\n      dup1\n        /* \"#utility.yul\":1361:1373   */\n      revert\n        /* \"#utility.yul\":1312:1375   */\n    tag_187:\n        /* \"#utility.yul\":1259:1381   */\n      pop\n      jump\t// out\n        /* \"#utility.yul\":1387:1526   */\n    tag_119:\n        /* \"#utility.yul\":1433:1438   */\n      0x00\n        /* \"#utility.yul\":1471:1477   */\n      dup2\n        /* \"#utility.yul\":1458:1478   */\n      calldataload\n        /* \"#utility.yul\":1449:1478   */\n      swap1\n      pop\n        /* \"#utility.yul\":1487:1520   */\n      tag_189\n        /* \"#utility.yul\":1514:1519   */\n      dup2\n        /* \"#utility.yul\":1487:1520   */\n      tag_118\n      jump\t// in\n    tag_189:\n        /* \"#utility.yul\":1387:1526   */\n      swap3\n      swap2\n      pop\n      pop\n      jump\t// out\n        /* \"#utility.yul\":1532:1861   */\n    tag_21:\n        /* \"#utility.yul\":1591:1597   */\n      0x00\n        /* \"#utility.yul\":1640:1642   */\n      0x20\n        /* \"#utility.yul\":1628:1637   */\n      dup3\n        /* \"#utility.yul\":1619:1626   */\n      dup5\n        /* \"#utility.yul\":1615:1638   */\n      sub\n        /* \"#utility.yul\":1611:1643   */\n      slt\n        /* \"#utility.yul\":1608:1727   */\n      iszero\n      tag_191\n      jumpi\n        /* \"#utility.yul\":1646:1725   */\n      tag_192\n      tag_111\n      jump\t// in\n    tag_192:\n        /* \"#utility.yul\":1608:1727   */\n    tag_191:\n        /* \"#utility.yul\":1766:1767   */\n      0x00\n        /* \"#utility.yul\":1791:1844   */\n      tag_193\n        /* \"#utility.yul\":1836:1843   */\n      dup5\n        /* \"#utility.yul\":1827:1833   */\n      dup3\n        /* \"#utility.yul\":1816:1825   */\n      dup6\n        /* \"#utility.yul\":1812:1834   */\n      add\n        /* \"#utility.yul\":1791:1844   */\n      tag_119\n      jump\t// in\n    tag_193:\n        /* \"#utility.yul\":1781:1844   */\n      swap2\n      pop\n        /* \"#utility.yul\":1737:1854   */\n      pop\n        /* \"#utility.yul\":1532:1861   */\n      swap3\n      swap2\n      pop\n      pop\n      jump\t// out\n        /* \"#utility.yul\":1867:1957   */\n    tag_120:\n        /* \"#utility.yul\":1901:1908   */\n      0x00\n        /* \"#utility.yul\":1944:1949   */\n      dup2\n        /* \"#utility.yul\":1937:1950   */\n      iszero\n        /* \"#utility.yul\":1930:1951   */\n      iszero\n        /* \"#utility.yul\":1919:1951   */\n      swap1\n      pop\n        /* \"#utility.yul\":1867:1957   */\n      swap2\n      swap1\n      pop\n      jump\t// out\n        /* \"#utility.yul\":1963:2072   */\n    tag_121:\n        /* \"#utility.yul\":2044:2065   */\n      tag_196\n        /* \"#utility.yul\":2059:2064   */\n      dup2\n        /* \"#utility.yul\":2044:2065   */\n      tag_120\n      jump\t// in\n    tag_196:\n        /* \"#utility.yul\":2039:2042   */\n      dup3\n        /* \"#utility.yul\":2032:2066   */\n      mstore\n        /* \"#utility.yul\":1963:2072   */\n      pop\n      pop\n      jump\t// out\n        /* \"#utility.yul\":2078:2288   */\n    tag_24:\n        /* \"#utility.yul\":2165:2169   */\n      0x00\n        /* \"#utility.yul\":2203:2205   */\n      0x20\n        /* \"#utility.yul\":2192:2201   */\n      dup3\n        /* \"#utility.yul\":2188:2206   */\n      add\n        /* \"#utility.yul\":2180:2206   */\n      swap1\n      pop\n        /* \"#utility.yul\":2216:2281   */\n      tag_198\n        /* \"#utility.yul\":2278:2279   */\n      0x00\n        /* \"#utility.yul\":2267:2276   */\n      dup4\n        /* \"#utility.yul\":2263:2280   */\n      add\n        /* \"#utility.yul\":2254:2260   */\n      dup5\n        /* \"#utility.yul\":2216:2281   */\n      tag_121\n      jump\t// in\n    tag_198:\n        /* \"#utility.yul\":2078:2288   */\n      swap3\n      swap2\n      pop\n      pop\n      jump\t// out\n        /* \"#utility.yul\":2294:2768   */\n    tag_28:\n        /* \"#utility.yul\":2362:2368   */\n      0x00\n        /* \"#utility.yul\":2370:2376   */\n      dup1\n        /* \"#utility.yul\":2419:2421   */\n      0x40\n        /* \"#utility.yul\":2407:2416   */\n      dup4\n        /* \"#utility.yul\":2398:2405   */\n      dup6\n        /* \"#utility.yul\":2394:2417   */\n      sub\n        /* \"#utility.yul\":2390:2422   */\n      slt\n        /* \"#utility.yul\":2387:2506   */\n      iszero\n      tag_200\n      jumpi\n        /* \"#utility.yul\":2425:2504   */\n      tag_201\n      tag_111\n      jump\t// in\n    tag_201:\n        /* \"#utility.yul\":2387:2506   */\n    tag_200:\n        /* \"#utility.yul\":2545:2546   */\n      0x00\n        /* \"#utility.yul\":2570:2623   */\n      tag_202\n        /* \"#utility.yul\":2615:2622   */\n      dup6\n        /* \"#utility.yul\":2606:2612   */\n      dup3\n        /* \"#utility.yul\":2595:2604   */\n      dup7\n        /* \"#utility.yul\":2591:2613   */\n      add\n        /* \"#utility.yul\":2570:2623   */\n      tag_115\n      jump\t// in\n    tag_202:\n        /* \"#utility.yul\":2560:2623   */\n      swap3\n      pop\n        /* \"#utility.yul\":2516:2633   */\n      pop\n        /* \"#utility.yul\":2672:2674   */\n      0x20\n        /* \"#utility.yul\":2698:2751   */\n      tag_203\n        /* \"#utility.yul\":2743:2750   */\n      dup6\n        /* \"#utility.yul\":2734:2740   */\n      dup3\n        /* \"#utility.yul\":2723:2732   */\n      dup7\n        /* \"#utility.yul\":2719:2741   */\n      add\n        /* \"#utility.yul\":2698:2751   */\n      tag_119\n      jump\t// in\n    tag_203:\n        /* \"#utility.yul\":2688:2751   */\n      swap2\n      pop\n        /* \"#utility.yul\":2643:2761   */\n      pop\n        /* \"#utility.yul\":2294:2768   */\n      swap3\n      pop\n      swap3\n      swap1\n      pop\n      jump\t// out\n        /* \"#utility.yul\":2774:2892   */\n    tag_122:\n        /* \"#utility.yul\":2861:2885   */\n      tag_205\n        /* \"#utility.yul\":2879:2884   */\n      dup2\n        /* \"#utility.yul\":2861:2885   */\n      tag_117\n      jump\t// in\n    tag_205:\n        /* \"#utility.yul\":2856:2859   */\n      dup3\n        /* \"#utility.yul\":2849:2886   */\n      mstore\n        /* \"#utility.yul\":2774:2892   */\n      pop\n      pop\n      jump\t// out\n        /* \"#utility.yul\":2898:3120   */\n    tag_35:\n        /* \"#utility.yul\":2991:2995   */\n      0x00\n        /* \"#utility.yul\":3029:3031   */\n      0x20\n        /* \"#utility.yul\":3018:3027   */\n      dup3\n        /* \"#utility.yul\":3014:3032   */\n      add\n        /* \"#utility.yul\":3006:3032   */\n      swap1\n      pop\n        /* \"#utility.yul\":3042:3113   */\n      tag_207\n        /* \"#utility.yul\":3110:3111   */\n      0x00\n        /* \"#utility.yul\":3099:3108   */\n      dup4\n        /* \"#utility.yul\":3095:3112   */\n      add\n        /* \"#utility.yul\":3086:3092   */\n      dup5\n        /* \"#utility.yul\":3042:3113   */\n      tag_122\n      jump\t// in\n    tag_207:\n        /* \"#utility.yul\":2898:3120   */\n      swap3\n      swap2\n      pop\n      pop\n      jump\t// out\n        /* \"#utility.yul\":3126:3225   */\n    tag_123:\n        /* \"#utility.yul\":3178:3184   */\n      0x00\n        /* \"#utility.yul\":3212:3217   */\n      dup2\n        /* \"#utility.yul\":3206:3218   */\n      mload\n        /* \"#utility.yul\":3196:3218   */\n      swap1\n      pop\n        /* \"#utility.yul\":3126:3225   */\n      swap2\n      swap1\n      pop\n      jump\t// out\n        /* \"#utility.yul\":3231:3400   */\n    tag_124:\n        /* \"#utility.yul\":3315:3326   */\n      0x00\n        /* \"#utility.yul\":3349:3355   */\n      dup3\n        /* \"#utility.yul\":3344:3347   */\n      dup3\n        /* \"#utility.yul\":3337:3356   */\n      mstore\n        /* \"#utility.yul\":3389:3393   */\n      0x20\n        /* \"#utility.yul\":3384:3387   */\n      dup3\n        /* \"#utility.yul\":3380:3394   */\n      add\n        /* \"#utility.yul\":3365:3394   */\n      swap1\n      pop\n        /* \"#utility.yul\":3231:3400   */\n      swap3\n      swap2\n      pop\n      pop\n      jump\t// out\n        /* \"#utility.yul\":3406:3652   */\n    tag_125:\n        /* \"#utility.yul\":3487:3488   */\n      0x00\n        /* \"#utility.yul\":3497:3610   */\n    tag_211:\n        /* \"#utility.yul\":3511:3517   */\n      dup4\n        /* \"#utility.yul\":3508:3509   */\n      dup2\n        /* \"#utility.yul\":3505:3518   */\n      lt\n        /* \"#utility.yul\":3497:3610   */\n      iszero\n      tag_213\n      jumpi\n        /* \"#utility.yul\":3596:3597   */\n      dup1\n        /* \"#utility.yul\":3591:3594   */\n      dup3\n        /* \"#utility.yul\":3587:3598   */\n      add\n        /* \"#utility.yul\":3581:3599   */\n      mload\n        /* \"#utility.yul\":3577:3578   */\n      dup2\n        /* \"#utility.yul\":3572:3575   */\n      dup5\n        /* \"#utility.yul\":3568:3579   */\n      add\n        /* \"#utility.yul\":3561:3600   */\n      mstore\n        /* \"#utility.yul\":3533:3535   */\n      0x20\n        /* \"#utility.yul\":3530:3531   */\n      dup2\n        /* \"#utility.yul\":3526:3536   */\n      add\n        /* \"#utility.yul\":3521:3536   */\n      swap1\n      pop\n        /* \"#utility.yul\":3497:3610   */\n      jump(tag_211)\n    tag_213:\n        /* \"#utility.yul\":3644:3645   */\n      0x00\n        /* \"#utility.yul\":3635:3641   */\n      dup5\n        /* \"#utility.yul\":3630:3633   */\n      dup5\n        /* \"#utility.yul\":3626:3642   */\n      add\n        /* \"#utility.yul\":3619:3646   */\n      mstore\n        /* \"#utility.yul\":3468:3652   */\n      pop\n        /* \"#utility.yul\":3406:3652   */\n      pop\n      pop\n      pop\n      jump\t// out\n        /* \"#utility.yul\":3658:3760   */\n    tag_126:\n        /* \"#utility.yul\":3699:3705   */\n      0x00\n        /* \"#utility.yul\":3750:3752   */\n      0x1f\n        /* \"#utility.yul\":3746:3753   */\n      not\n        /* \"#utility.yul\":3741:3743   */\n      0x1f\n        /* \"#utility.yul\":3734:3739   */\n      dup4\n        /* \"#utility.yul\":3730:3744   */\n      add\n        /* \"#utility.yul\":3726:3754   */\n      and\n        /* \"#utility.yul\":3716:3754   */\n      swap1\n      pop\n        /* \"#utility.yul\":3658:3760   */\n      swap2\n      swap1\n      pop\n      jump\t// out\n        /* \"#utility.yul\":3766:4143   */\n    tag_127:\n        /* \"#utility.yul\":3854:3857   */\n      0x00\n        /* \"#utility.yul\":3882:3921   */\n      tag_216\n        /* \"#utility.yul\":3915:3920   */\n      dup3\n        /* \"#utility.yul\":3882:3921   */\n      tag_123\n      jump\t// in\n    tag_216:\n        /* \"#utility.yul\":3937:4008   */\n      tag_217\n        /* \"#utility.yul\":4001:4007   */\n      dup2\n        /* \"#utility.yul\":3996:3999   */\n      dup6\n        /* \"#utility.yul\":3937:4008   */\n      tag_124\n      jump\t// in\n    tag_217:\n        /* \"#utility.yul\":3930:4008   */\n      swap4\n      pop\n        /* \"#utility.yul\":4017:4082   */\n      tag_218\n        /* \"#utility.yul\":4075:4081   */\n      dup2\n        /* \"#utility.yul\":4070:4073   */\n      dup6\n        /* \"#utility.yul\":4063:4067   */\n      0x20\n        /* \"#utility.yul\":4056:4061   */\n      dup7\n        /* \"#utility.yul\":4052:4068   */\n      add\n        /* \"#utility.yul\":4017:4082   */\n      tag_125\n      jump\t// in\n    tag_218:\n        /* \"#utility.yul\":4107:4136   */\n      tag_219\n        /* \"#utility.yul\":4129:4135   */\n      dup2\n        /* \"#utility.yul\":4107:4136   */\n      tag_126\n      jump\t// in\n    tag_219:\n        /* \"#utility.yul\":4102:4105   */\n      dup5\n        /* \"#utility.yul\":4098:4137   */\n      add\n        /* \"#utility.yul\":4091:4137   */\n      swap2\n      pop\n        /* \"#utility.yul\":3858:4143   */\n      pop\n        /* \"#utility.yul\":3766:4143   */\n      swap3\n      swap2\n      pop\n      pop\n      jump\t// out\n        /* \"#utility.yul\":4149:4267   */\n    tag_128:\n        /* \"#utility.yul\":4236:4260   */\n      tag_221\n        /* \"#utility.yul\":4254:4259   */\n      dup2\n        /* \"#utility.yul\":4236:4260   */\n      tag_113\n      jump\t// in\n    tag_221:\n        /* \"#utility.yul\":4231:4234   */\n      dup3\n        /* \"#utility.yul\":4224:4261   */\n      mstore\n        /* \"#utility.yul\":4149:4267   */\n      pop\n      pop\n      jump\t// out\n        /* \"#utility.yul\":4273:4377   */\n    tag_129:\n        /* \"#utility.yul\":4318:4325   */\n      0x00\n        /* \"#utility.yul\":4347:4371   */\n      tag_223\n        /* \"#utility.yul\":4365:4370   */\n      dup3\n        /* \"#utility.yul\":4347:4371   */\n      tag_116\n      jump\t// in\n    tag_223:\n        /* \"#utility.yul\":4336:4371   */\n      swap1\n      pop\n        /* \"#utility.yul\":4273:4377   */\n      swap2\n      swap1\n      pop\n      jump\t// out\n        /* \"#utility.yul\":4383:4525   */\n    tag_130:\n        /* \"#utility.yul\":4486:4518   */\n      tag_225\n        /* \"#utility.yul\":4512:4517   */\n      dup2\n        /* \"#utility.yul\":4486:4518   */\n      tag_129\n      jump\t// in\n    tag_225:\n        /* \"#utility.yul\":4481:4484   */\n      dup3\n        /* \"#utility.yul\":4474:4519   */\n      mstore\n        /* \"#utility.yul\":4383:4525   */\n      pop\n      pop\n      jump\t// out\n        /* \"#utility.yul\":4531:5306   */\n    tag_41:\n        /* \"#utility.yul\":4766:4770   */\n      0x00\n        /* \"#utility.yul\":4804:4807   */\n      0xa0\n        /* \"#utility.yul\":4793:4802   */\n      dup3\n        /* \"#utility.yul\":4789:4808   */\n      add\n        /* \"#utility.yul\":4781:4808   */\n      swap1\n      pop\n        /* \"#utility.yul\":4854:4863   */\n      dup2\n        /* \"#utility.yul\":4848:4852   */\n      dup2\n        /* \"#utility.yul\":4844:4864   */\n      sub\n        /* \"#utility.yul\":4840:4841   */\n      0x00\n        /* \"#utility.yul\":4829:4838   */\n      dup4\n        /* \"#utility.yul\":4825:4842   */\n      add\n        /* \"#utility.yul\":4818:4865   */\n      mstore\n        /* \"#utility.yul\":4882:4960   */\n      tag_227\n        /* \"#utility.yul\":4955:4959   */\n      dup2\n        /* \"#utility.yul\":4946:4952   */\n      dup9\n        /* \"#utility.yul\":4882:4960   */\n      tag_127\n      jump\t// in\n    tag_227:\n        /* \"#utility.yul\":4874:4960   */\n      swap1\n      pop\n        /* \"#utility.yul\":4970:5042   */\n      tag_228\n        /* \"#utility.yul\":5038:5040   */\n      0x20\n        /* \"#utility.yul\":5027:5036   */\n      dup4\n        /* \"#utility.yul\":5023:5041   */\n      add\n        /* \"#utility.yul\":5014:5020   */\n      dup8\n        /* \"#utility.yul\":4970:5042   */\n      tag_128\n      jump\t// in\n    tag_228:\n        /* \"#utility.yul\":5052:5140   */\n      tag_229\n        /* \"#utility.yul\":5136:5138   */\n      0x40\n        /* \"#utility.yul\":5125:5134   */\n      dup4\n        /* \"#utility.yul\":5121:5139   */\n      add\n        /* \"#utility.yul\":5112:5118   */\n      dup7\n        /* \"#utility.yul\":5052:5140   */\n      tag_130\n      jump\t// in\n    tag_229:\n        /* \"#utility.yul\":5150:5216   */\n      tag_230\n        /* \"#utility.yul\":5212:5214   */\n      0x60\n        /* \"#utility.yul\":5201:5210   */\n      dup4\n        /* \"#utility.yul\":5197:5215   */\n      add\n        /* \"#utility.yul\":5188:5194   */\n      dup6\n        /* \"#utility.yul\":5150:5216   */\n      tag_121\n      jump\t// in\n    tag_230:\n        /* \"#utility.yul\":5226:5299   */\n      tag_231\n        /* \"#utility.yul\":5294:5297   */\n      0x80\n        /* \"#utility.yul\":5283:5292   */\n      dup4\n        /* \"#utility.yul\":5279:5298   */\n      add\n        /* \"#utility.yul\":5270:5276   */\n      dup5\n        /* \"#utility.yul\":5226:5299   */\n      tag_128\n      jump\t// in\n    tag_231:\n        /* \"#utility.yul\":4531:5306   */\n      swap7\n      swap6\n      pop\n      pop\n      pop\n      pop\n      pop\n      pop\n      jump\t// out\n        /* \"#utility.yul\":5312:5534   */\n    tag_46:\n        /* \"#utility.yul\":5405:5409   */\n      0x00\n        /* \"#utility.yul\":5443:5445   */\n      0x20\n        /* \"#utility.yul\":5432:5441   */\n      dup3\n        /* \"#utility.yul\":5428:5446   */\n      add\n        /* \"#utility.yul\":5420:5446   */\n      swap1\n      pop\n        /* \"#utility.yul\":5456:5527   */\n      tag_233\n        /* \"#utility.yul\":5524:5525   */\n      0x00\n        /* \"#utility.yul\":5513:5522   */\n      dup4\n        /* \"#utility.yul\":5509:5526   */\n      add\n        /* \"#utility.yul\":5500:5506   */\n      dup5\n        /* \"#utility.yul\":5456:5527   */\n      tag_128\n      jump\t// in\n    tag_233:\n        /* \"#utility.yul\":5312:5534   */\n      swap3\n      swap2\n      pop\n      pop\n      jump\t// out\n        /* \"#utility.yul\":5540:5657   */\n    tag_131:\n        /* \"#utility.yul\":5649:5650   */\n      0x00\n        /* \"#utility.yul\":5646:5647   */\n      dup1\n        /* \"#utility.yul\":5639:5651   */\n      revert\n        /* \"#utility.yul\":5663:5780   */\n    tag_132:\n        /* \"#utility.yul\":5772:5773   */\n      0x00\n        /* \"#utility.yul\":5769:5770   */\n      dup1\n        /* \"#utility.yul\":5762:5774   */\n      revert\n        /* \"#utility.yul\":5786:5966   */\n    tag_133:\n        /* \"#utility.yul\":5834:5911   */\n      0x4e487b7100000000000000000000000000000000000000000000000000000000\n        /* \"#utility.yul\":5831:5832   */\n      0x00\n        /* \"#utility.yul\":5824:5912   */\n      mstore\n        /* \"#utility.yul\":5931:5935   */\n      0x41\n        /* \"#utility.yul\":5928:5929   */\n      0x04\n        /* \"#utility.yul\":5921:5936   */\n      mstore\n        /* \"#utility.yul\":5955:5959   */\n      0x24\n        /* \"#utility.yul\":5952:5953   */\n      0x00\n        /* \"#utility.yul\":5945:5960   */\n      revert\n        /* \"#utility.yul\":5972:6253   */\n    tag_134:\n        /* \"#utility.yul\":6055:6082   */\n      tag_238\n        /* \"#utility.yul\":6077:6081   */\n      dup3\n        /* \"#utility.yul\":6055:6082   */\n      tag_126\n      jump\t// in\n    tag_238:\n        /* \"#utility.yul\":6047:6053   */\n      dup2\n        /* \"#utility.yul\":6043:6083   */\n      add\n        /* \"#utility.yul\":6185:6191   */\n      dup2\n        /* \"#utility.yul\":6173:6183   */\n      dup2\n        /* \"#utility.yul\":6170:6192   */\n      lt\n        /* \"#utility.yul\":6149:6167   */\n      0xffffffffffffffff\n        /* \"#utility.yul\":6137:6147   */\n      dup3\n        /* \"#utility.yul\":6134:6168   */\n      gt\n        /* \"#utility.yul\":6131:6193   */\n      or\n        /* \"#utility.yul\":6128:6216   */\n      iszero\n      tag_239\n      jumpi\n        /* \"#utility.yul\":6196:6214   */\n      tag_240\n      tag_133\n      jump\t// in\n    tag_240:\n        /* \"#utility.yul\":6128:6216   */\n    tag_239:\n        /* \"#utility.yul\":6236:6246   */\n      dup1\n        /* \"#utility.yul\":6232:6234   */\n      0x40\n        /* \"#utility.yul\":6225:6247   */\n      mstore\n        /* \"#utility.yul\":6015:6253   */\n      pop\n        /* \"#utility.yul\":5972:6253   */\n      pop\n      pop\n      jump\t// out\n        /* \"#utility.yul\":6259:6388   */\n    tag_135:\n        /* \"#utility.yul\":6293:6299   */\n      0x00\n        /* \"#utility.yul\":6320:6340   */\n      tag_242\n      tag_110\n      jump\t// in\n    tag_242:\n        /* \"#utility.yul\":6310:6340   */\n      swap1\n      pop\n        /* \"#utility.yul\":6349:6382   */\n      tag_243\n        /* \"#utility.yul\":6377:6381   */\n      dup3\n        /* \"#utility.yul\":6369:6375   */\n      dup3\n        /* \"#utility.yul\":6349:6382   */\n      tag_134\n      jump\t// in\n    tag_243:\n        /* \"#utility.yul\":6259:6388   */\n      swap2\n      swap1\n      pop\n      jump\t// out\n        /* \"#utility.yul\":6394:6702   */\n    tag_136:\n        /* \"#utility.yul\":6456:6460   */\n      0x00\n        /* \"#utility.yul\":6546:6564   */\n      0xffffffffffffffff\n        /* \"#utility.yul\":6538:6544   */\n      dup3\n        /* \"#utility.yul\":6535:6565   */\n      gt\n        /* \"#utility.yul\":6532:6588   */\n      iszero\n      tag_245\n      jumpi\n        /* \"#utility.yul\":6568:6586   */\n      tag_246\n      tag_133\n      jump\t// in\n    tag_246:\n        /* \"#utility.yul\":6532:6588   */\n    tag_245:\n        /* \"#utility.yul\":6606:6635   */\n      tag_247\n        /* \"#utility.yul\":6628:6634   */\n      dup3\n        /* \"#utility.yul\":6606:6635   */\n      tag_126\n      jump\t// in\n    tag_247:\n        /* \"#utility.yul\":6598:6635   */\n      swap1\n      pop\n        /* \"#utility.yul\":6690:6694   */\n      0x20\n        /* \"#utility.yul\":6684:6688   */\n      dup2\n        /* \"#utility.yul\":6680:6695   */\n      add\n        /* \"#utility.yul\":6672:6695   */\n      swap1\n      pop\n        /* \"#utility.yul\":6394:6702   */\n      swap2\n      swap1\n      pop\n      jump\t// out\n        /* \"#utility.yul\":6708:6854   */\n    tag_137:\n        /* \"#utility.yul\":6805:6811   */\n      dup3\n        /* \"#utility.yul\":6800:6803   */\n      dup2\n        /* \"#utility.yul\":6795:6798   */\n      dup4\n        /* \"#utility.yul\":6782:6812   */\n      calldatacopy\n        /* \"#utility.yul\":6846:6847   */\n      0x00\n        /* \"#utility.yul\":6837:6843   */\n      dup4\n        /* \"#utility.yul\":6832:6835   */\n      dup4\n        /* \"#utility.yul\":6828:6844   */\n      add\n        /* \"#utility.yul\":6821:6848   */\n      mstore\n        /* \"#utility.yul\":6708:6854   */\n      pop\n      pop\n      pop\n      jump\t// out\n        /* \"#utility.yul\":6860:7285   */\n    tag_138:\n        /* \"#utility.yul\":6938:6943   */\n      0x00\n        /* \"#utility.yul\":6963:7029   */\n      tag_250\n        /* \"#utility.yul\":6979:7028   */\n      tag_251\n        /* \"#utility.yul\":7021:7027   */\n      dup5\n        /* \"#utility.yul\":6979:7028   */\n      tag_136\n      jump\t// in\n    tag_251:\n        /* \"#utility.yul\":6963:7029   */\n      tag_135\n      jump\t// in\n    tag_250:\n        /* \"#utility.yul\":6954:7029   */\n      swap1\n      pop\n        /* \"#utility.yul\":7052:7058   */\n      dup3\n        /* \"#utility.yul\":7045:7050   */\n      dup2\n        /* \"#utility.yul\":7038:7059   */\n      mstore\n        /* \"#utility.yul\":7090:7094   */\n      0x20\n        /* \"#utility.yul\":7083:7088   */\n      dup2\n        /* \"#utility.yul\":7079:7095   */\n      add\n        /* \"#utility.yul\":7128:7131   */\n      dup5\n        /* \"#utility.yul\":7119:7125   */\n      dup5\n        /* \"#utility.yul\":7114:7117   */\n      dup5\n        /* \"#utility.yul\":7110:7126   */\n      add\n        /* \"#utility.yul\":7107:7132   */\n      gt\n        /* \"#utility.yul\":7104:7216   */\n      iszero\n      tag_252\n      jumpi\n        /* \"#utility.yul\":7135:7214   */\n      tag_253\n      tag_132\n      jump\t// in\n    tag_253:\n        /* \"#utility.yul\":7104:7216   */\n    tag_252:\n        /* \"#utility.yul\":7225:7279   */\n      tag_254\n        /* \"#utility.yul\":7272:7278   */\n      dup5\n        /* \"#utility.yul\":7267:7270   */\n      dup3\n        /* \"#utility.yul\":7262:7265   */\n      dup6\n        /* \"#utility.yul\":7225:7279   */\n      tag_137\n      jump\t// in\n    tag_254:\n        /* \"#utility.yul\":6944:7285   */\n      pop\n        /* \"#utility.yul\":6860:7285   */\n      swap4\n      swap3\n      pop\n      pop\n      pop\n      jump\t// out\n        /* \"#utility.yul\":7305:7645   */\n    tag_139:\n        /* \"#utility.yul\":7361:7366   */\n      0x00\n        /* \"#utility.yul\":7410:7413   */\n      dup3\n        /* \"#utility.yul\":7403:7407   */\n      0x1f\n        /* \"#utility.yul\":7395:7401   */\n      dup4\n        /* \"#utility.yul\":7391:7408   */\n      add\n        /* \"#utility.yul\":7387:7414   */\n      slt\n        /* \"#utility.yul\":7377:7499   */\n      tag_256\n      jumpi\n        /* \"#utility.yul\":7418:7497   */\n      tag_257\n      tag_131\n      jump\t// in\n    tag_257:\n        /* \"#utility.yul\":7377:7499   */\n    tag_256:\n        /* \"#utility.yul\":7535:7541   */\n      dup2\n        /* \"#utility.yul\":7522:7542   */\n      calldataload\n        /* \"#utility.yul\":7560:7639   */\n      tag_258\n        /* \"#utility.yul\":7635:7638   */\n      dup5\n        /* \"#utility.yul\":7627:7633   */\n      dup3\n        /* \"#utility.yul\":7620:7624   */\n      0x20\n        /* \"#utility.yul\":7612:7618   */\n      dup7\n        /* \"#utility.yul\":7608:7625   */\n      add\n        /* \"#utility.yul\":7560:7639   */\n      tag_138\n      jump\t// in\n    tag_258:\n        /* \"#utility.yul\":7551:7639   */\n      swap2\n      pop\n        /* \"#utility.yul\":7367:7645   */\n      pop\n        /* \"#utility.yul\":7305:7645   */\n      swap3\n      swap2\n      pop\n      pop\n      jump\t// out\n        /* \"#utility.yul\":7651:7789   */\n    tag_140:\n        /* \"#utility.yul\":7732:7764   */\n      tag_260\n        /* \"#utility.yul\":7758:7763   */\n      dup2\n        /* \"#utility.yul\":7732:7764   */\n      tag_129\n      jump\t// in\n    tag_260:\n        /* \"#utility.yul\":7725:7730   */\n      dup2\n        /* \"#utility.yul\":7722:7765   */\n      eq\n        /* \"#utility.yul\":7712:7783   */\n      tag_261\n      jumpi\n        /* \"#utility.yul\":7779:7780   */\n      0x00\n        /* \"#utility.yul\":7776:7777   */\n      dup1\n        /* \"#utility.yul\":7769:7781   */\n      revert\n        /* \"#utility.yul\":7712:7783   */\n    tag_261:\n        /* \"#utility.yul\":7651:7789   */\n      pop\n      jump\t// out\n        /* \"#utility.yul\":7795:7950   */\n    tag_141:\n        /* \"#utility.yul\":7849:7854   */\n      0x00\n        /* \"#utility.yul\":7887:7893   */\n      dup2\n        /* \"#utility.yul\":7874:7894   */\n      calldataload\n        /* \"#utility.yul\":7865:7894   */\n      swap1\n      pop\n        /* \"#utility.yul\":7903:7944   */\n      tag_263\n        /* \"#utility.yul\":7938:7943   */\n      dup2\n        /* \"#utility.yul\":7903:7944   */\n      tag_140\n      jump\t// in\n    tag_263:\n        /* \"#utility.yul\":7795:7950   */\n      swap3\n      swap2\n      pop\n      pop\n      jump\t// out\n        /* \"#utility.yul\":7956:8771   */\n    tag_50:\n        /* \"#utility.yul\":8051:8057   */\n      0x00\n        /* \"#utility.yul\":8059:8065   */\n      dup1\n        /* \"#utility.yul\":8067:8073   */\n      0x00\n        /* \"#utility.yul\":8116:8118   */\n      0x60\n        /* \"#utility.yul\":8104:8113   */\n      dup5\n        /* \"#utility.yul\":8095:8102   */\n      dup7\n        /* \"#utility.yul\":8091:8114   */\n      sub\n        /* \"#utility.yul\":8087:8119   */\n      slt\n        /* \"#utility.yul\":8084:8203   */\n      iszero\n      tag_265\n      jumpi\n        /* \"#utility.yul\":8122:8201   */\n      tag_266\n      tag_111\n      jump\t// in\n    tag_266:\n        /* \"#utility.yul\":8084:8203   */\n    tag_265:\n        /* \"#utility.yul\":8270:8271   */\n      0x00\n        /* \"#utility.yul\":8259:8268   */\n      dup5\n        /* \"#utility.yul\":8255:8272   */\n      add\n        /* \"#utility.yul\":8242:8273   */\n      calldataload\n        /* \"#utility.yul\":8300:8318   */\n      0xffffffffffffffff\n        /* \"#utility.yul\":8292:8298   */\n      dup2\n        /* \"#utility.yul\":8289:8319   */\n      gt\n        /* \"#utility.yul\":8286:8403   */\n      iszero\n      tag_267\n      jumpi\n        /* \"#utility.yul\":8322:8401   */\n      tag_268\n      tag_112\n      jump\t// in\n    tag_268:\n        /* \"#utility.yul\":8286:8403   */\n    tag_267:\n        /* \"#utility.yul\":8427:8490   */\n      tag_269\n        /* \"#utility.yul\":8482:8489   */\n      dup7\n        /* \"#utility.yul\":8473:8479   */\n      dup3\n        /* \"#utility.yul\":8462:8471   */\n      dup8\n        /* \"#utility.yul\":8458:8480   */\n      add\n        /* \"#utility.yul\":8427:8490   */\n      tag_139\n      jump\t// in\n    tag_269:\n        /* \"#utility.yul\":8417:8490   */\n      swap4\n      pop\n        /* \"#utility.yul\":8213:8500   */\n      pop\n        /* \"#utility.yul\":8539:8541   */\n      0x20\n        /* \"#utility.yul\":8565:8618   */\n      tag_270\n        /* \"#utility.yul\":8610:8617   */\n      dup7\n        /* \"#utility.yul\":8601:8607   */\n      dup3\n        /* \"#utility.yul\":8590:8599   */\n      dup8\n        /* \"#utility.yul\":8586:8608   */\n      add\n        /* \"#utility.yul\":8565:8618   */\n      tag_115\n      jump\t// in\n    tag_270:\n        /* \"#utility.yul\":8555:8618   */\n      swap3\n      pop\n        /* \"#utility.yul\":8510:8628   */\n      pop\n        /* \"#utility.yul\":8667:8669   */\n      0x40\n        /* \"#utility.yul\":8693:8754   */\n      tag_271\n        /* \"#utility.yul\":8746:8753   */\n      dup7\n        /* \"#utility.yul\":8737:8743   */\n      dup3\n        /* \"#utility.yul\":8726:8735   */\n      dup8\n        /* \"#utility.yul\":8722:8744   */\n      add\n        /* \"#utility.yul\":8693:8754   */\n      tag_141\n      jump\t// in\n    tag_271:\n        /* \"#utility.yul\":8683:8754   */\n      swap2\n      pop\n        /* \"#utility.yul\":8638:8764   */\n      pop\n        /* \"#utility.yul\":7956:8771   */\n      swap3\n      pop\n      swap3\n      pop\n      swap3\n      jump\t// out\n        /* \"#utility.yul\":8777:8952   */\n    tag_142:\n        /* \"#utility.yul\":8917:8944   */\n      0x43616c6c6572206973206e6f7420746865206d616e6167657200000000000000\n        /* \"#utility.yul\":8913:8914   */\n      0x00\n        /* \"#utility.yul\":8905:8911   */\n      dup3\n        /* \"#utility.yul\":8901:8915   */\n      add\n        /* \"#utility.yul\":8894:8945   */\n      mstore\n        /* \"#utility.yul\":8777:8952   */\n      pop\n      jump\t// out\n        /* \"#utility.yul\":8958:9324   */\n    tag_143:\n        /* \"#utility.yul\":9100:9103   */\n      0x00\n        /* \"#utility.yul\":9121:9188   */\n      tag_274\n        /* \"#utility.yul\":9185:9187   */\n      0x19\n        /* \"#utility.yul\":9180:9183   */\n      dup4\n        /* \"#utility.yul\":9121:9188   */\n      tag_124\n      jump\t// in\n    tag_274:\n        /* \"#utility.yul\":9114:9188   */\n      swap2\n      pop\n        /* \"#utility.yul\":9197:9290   */\n      tag_275\n        /* \"#utility.yul\":9286:9289   */\n      dup3\n        /* \"#utility.yul\":9197:9290   */\n      tag_142\n      jump\t// in\n    tag_275:\n        /* \"#utility.yul\":9315:9317   */\n      0x20\n        /* \"#utility.yul\":9310:9313   */\n      dup3\n        /* \"#utility.yul\":9306:9318   */\n      add\n        /* \"#utility.yul\":9299:9318   */\n      swap1\n      pop\n        /* \"#utility.yul\":8958:9324   */\n      swap2\n      swap1\n      pop\n      jump\t// out\n        /* \"#utility.yul\":9330:9749   */\n    tag_65:\n        /* \"#utility.yul\":9496:9500   */\n      0x00\n        /* \"#utility.yul\":9534:9536   */\n      0x20\n        /* \"#utility.yul\":9523:9532   */\n      dup3\n        /* \"#utility.yul\":9519:9537   */\n      add\n        /* \"#utility.yul\":9511:9537   */\n      swap1\n      pop\n        /* \"#utility.yul\":9583:9592   */\n      dup2\n        /* \"#utility.yul\":9577:9581   */\n      dup2\n        /* \"#utility.yul\":9573:9593   */\n      sub\n        /* \"#utility.yul\":9569:9570   */\n      0x00\n        /* \"#utility.yul\":9558:9567   */\n      dup4\n        /* \"#utility.yul\":9554:9571   */\n      add\n        /* \"#utility.yul\":9547:9594   */\n      mstore\n        /* \"#utility.yul\":9611:9742   */\n      tag_277\n        /* \"#utility.yul\":9737:9741   */\n      dup2\n        /* \"#utility.yul\":9611:9742   */\n      tag_143\n      jump\t// in\n    tag_277:\n        /* \"#utility.yul\":9603:9742   */\n      swap1\n      pop\n        /* \"#utility.yul\":9330:9749   */\n      swap2\n      swap1\n      pop\n      jump\t// out\n        /* \"#utility.yul\":9755:9935   */\n    tag_69:\n        /* \"#utility.yul\":9803:9880   */\n      0x4e487b7100000000000000000000000000000000000000000000000000000000\n        /* \"#utility.yul\":9800:9801   */\n      0x00\n        /* \"#utility.yul\":9793:9881   */\n      mstore\n        /* \"#utility.yul\":9900:9904   */\n      0x32\n        /* \"#utility.yul\":9897:9898   */\n      0x04\n        /* \"#utility.yul\":9890:9905   */\n      mstore\n        /* \"#utility.yul\":9924:9928   */\n      0x24\n        /* \"#utility.yul\":9921:9922   */\n      0x00\n        /* \"#utility.yul\":9914:9929   */\n      revert\n        /* \"#utility.yul\":9941:10121   */\n    tag_144:\n        /* \"#utility.yul\":9989:10066   */\n      0x4e487b7100000000000000000000000000000000000000000000000000000000\n        /* \"#utility.yul\":9986:9987   */\n      0x00\n        /* \"#utility.yul\":9979:10067   */\n      mstore\n        /* \"#utility.yul\":10086:10090   */\n      0x12\n        /* \"#utility.yul\":10083:10084   */\n      0x04\n        /* \"#utility.yul\":10076:10091   */\n      mstore\n        /* \"#utility.yul\":10110:10114   */\n      0x24\n        /* \"#utility.yul\":10107:10108   */\n      0x00\n        /* \"#utility.yul\":10100:10115   */\n      revert\n        /* \"#utility.yul\":10127:10307   */\n    tag_145:\n        /* \"#utility.yul\":10175:10252   */\n      0x4e487b7100000000000000000000000000000000000000000000000000000000\n        /* \"#utility.yul\":10172:10173   */\n      0x00\n        /* \"#utility.yul\":10165:10253   */\n      mstore\n        /* \"#utility.yul\":10272:10276   */\n      0x11\n        /* \"#utility.yul\":10269:10270   */\n      0x04\n        /* \"#utility.yul\":10262:10277   */\n      mstore\n        /* \"#utility.yul\":10296:10300   */\n      0x24\n        /* \"#utility.yul\":10293:10294   */\n      0x00\n        /* \"#utility.yul\":10286:10301   */\n      revert\n        /* \"#utility.yul\":10313:10498   */\n    tag_72:\n        /* \"#utility.yul\":10353:10354   */\n      0x00\n        /* \"#utility.yul\":10370:10390   */\n      tag_282\n        /* \"#utility.yul\":10388:10389   */\n      dup3\n        /* \"#utility.yul\":10370:10390   */\n      tag_113\n      jump\t// in\n    tag_282:\n        /* \"#utility.yul\":10365:10390   */\n      swap2\n      pop\n        /* \"#utility.yul\":10404:10424   */\n      tag_283\n        /* \"#utility.yul\":10422:10423   */\n      dup4\n        /* \"#utility.yul\":10404:10424   */\n      tag_113\n      jump\t// in\n    tag_283:\n        /* \"#utility.yul\":10399:10424   */\n      swap3\n      pop\n        /* \"#utility.yul\":10443:10444   */\n      dup3\n        /* \"#utility.yul\":10433:10468   */\n      tag_284\n      jumpi\n        /* \"#utility.yul\":10448:10466   */\n      tag_285\n      tag_144\n      jump\t// in\n    tag_285:\n        /* \"#utility.yul\":10433:10468   */\n    tag_284:\n        /* \"#utility.yul\":10490:10491   */\n      dup3\n        /* \"#utility.yul\":10487:10488   */\n      dup3\n        /* \"#utility.yul\":10483:10492   */\n      div\n        /* \"#utility.yul\":10478:10492   */\n      swap1\n      pop\n        /* \"#utility.yul\":10313:10498   */\n      swap3\n      swap2\n      pop\n      pop\n      jump\t// out\n        /* \"#utility.yul\":10504:10674   */\n    tag_146:\n        /* \"#utility.yul\":10644:10666   */\n      0x4e6f7420656e6f75676820617070726f76616c73000000000000000000000000\n        /* \"#utility.yul\":10640:10641   */\n      0x00\n        /* \"#utility.yul\":10632:10638   */\n      dup3\n        /* \"#utility.yul\":10628:10642   */\n      add\n        /* \"#utility.yul\":10621:10667   */\n      mstore\n        /* \"#utility.yul\":10504:10674   */\n      pop\n      jump\t// out\n        /* \"#utility.yul\":10680:11046   */\n    tag_147:\n        /* \"#utility.yul\":10822:10825   */\n      0x00\n        /* \"#utility.yul\":10843:10910   */\n      tag_288\n        /* \"#utility.yul\":10907:10909   */\n      0x14\n        /* \"#utility.yul\":10902:10905   */\n      dup4\n        /* \"#utility.yul\":10843:10910   */\n      tag_124\n      jump\t// in\n    tag_288:\n        /* \"#utility.yul\":10836:10910   */\n      swap2\n      pop\n        /* \"#utility.yul\":10919:11012   */\n      tag_289\n        /* \"#utility.yul\":11008:11011   */\n      dup3\n        /* \"#utility.yul\":10919:11012   */\n      tag_146\n      jump\t// in\n    tag_289:\n        /* \"#utility.yul\":11037:11039   */\n      0x20\n        /* \"#utility.yul\":11032:11035   */\n      dup3\n        /* \"#utility.yul\":11028:11040   */\n      add\n        /* \"#utility.yul\":11021:11040   */\n      swap1\n      pop\n        /* \"#utility.yul\":10680:11046   */\n      swap2\n      swap1\n      pop\n      jump\t// out\n        /* \"#utility.yul\":11052:11471   */\n    tag_75:\n        /* \"#utility.yul\":11218:11222   */\n      0x00\n        /* \"#utility.yul\":11256:11258   */\n      0x20\n        /* \"#utility.yul\":11245:11254   */\n      dup3\n        /* \"#utility.yul\":11241:11259   */\n      add\n        /* \"#utility.yul\":11233:11259   */\n      swap1\n      pop\n        /* \"#utility.yul\":11305:11314   */\n      dup2\n        /* \"#utility.yul\":11299:11303   */\n      dup2\n        /* \"#utility.yul\":11295:11315   */\n      sub\n        /* \"#utility.yul\":11291:11292   */\n      0x00\n        /* \"#utility.yul\":11280:11289   */\n      dup4\n        /* \"#utility.yul\":11276:11293   */\n      add\n        /* \"#utility.yul\":11269:11316   */\n      mstore\n        /* \"#utility.yul\":11333:11464   */\n      tag_291\n        /* \"#utility.yul\":11459:11463   */\n      dup2\n        /* \"#utility.yul\":11333:11464   */\n      tag_147\n      jump\t// in\n    tag_291:\n        /* \"#utility.yul\":11325:11464   */\n      swap1\n      pop\n        /* \"#utility.yul\":11052:11471   */\n      swap2\n      swap1\n      pop\n      jump\t// out\n        /* \"#utility.yul\":11477:11652   */\n    tag_148:\n        /* \"#utility.yul\":11617:11644   */\n      0x5265717565737420616c72656164792066696e616c697a656400000000000000\n        /* \"#utility.yul\":11613:11614   */\n      0x00\n        /* \"#utility.yul\":11605:11611   */\n      dup3\n        /* \"#utility.yul\":11601:11615   */\n      add\n        /* \"#utility.yul\":11594:11645   */\n      mstore\n        /* \"#utility.yul\":11477:11652   */\n      pop\n      jump\t// out\n        /* \"#utility.yul\":11658:12024   */\n    tag_149:\n        /* \"#utility.yul\":11800:11803   */\n      0x00\n        /* \"#utility.yul\":11821:11888   */\n      tag_294\n        /* \"#utility.yul\":11885:11887   */\n      0x19\n        /* \"#utility.yul\":11880:11883   */\n      dup4\n        /* \"#utility.yul\":11821:11888   */\n      tag_124\n      jump\t// in\n    tag_294:\n        /* \"#utility.yul\":11814:11888   */\n      swap2\n      pop\n        /* \"#utility.yul\":11897:11990   */\n      tag_295\n        /* \"#utility.yul\":11986:11989   */\n      dup3\n        /* \"#utility.yul\":11897:11990   */\n      tag_148\n      jump\t// in\n    tag_295:\n        /* \"#utility.yul\":12015:12017   */\n      0x20\n        /* \"#utility.yul\":12010:12013   */\n      dup3\n        /* \"#utility.yul\":12006:12018   */\n      add\n        /* \"#utility.yul\":11999:12018   */\n      swap1\n      pop\n        /* \"#utility.yul\":11658:12024   */\n      swap2\n      swap1\n      pop\n      jump\t// out\n        /* \"#utility.yul\":12030:12449   */\n    tag_78:\n        /* \"#utility.yul\":12196:12200   */\n      0x00\n        /* \"#utility.yul\":12234:12236   */\n      0x20\n        /* \"#utility.yul\":12223:12232   */\n      dup3\n        /* \"#utility.yul\":12219:12237   */\n      add\n        /* \"#utility.yul\":12211:12237   */\n      swap1\n      pop\n        /* \"#utility.yul\":12283:12292   */\n      dup2\n        /* \"#utility.yul\":12277:12281   */\n      dup2\n        /* \"#utility.yul\":12273:12293   */\n      sub\n        /* \"#utility.yul\":12269:12270   */\n      0x00\n        /* \"#utility.yul\":12258:12267   */\n      dup4\n        /* \"#utility.yul\":12254:12271   */\n      add\n        /* \"#utility.yul\":12247:12294   */\n      mstore\n        /* \"#utility.yul\":12311:12442   */\n      tag_297\n        /* \"#utility.yul\":12437:12441   */\n      dup2\n        /* \"#utility.yul\":12311:12442   */\n      tag_149\n      jump\t// in\n    tag_297:\n        /* \"#utility.yul\":12303:12442   */\n      swap1\n      pop\n        /* \"#utility.yul\":12030:12449   */\n      swap2\n      swap1\n      pop\n      jump\t// out\n        /* \"#utility.yul\":12455:12635   */\n    tag_150:\n        /* \"#utility.yul\":12503:12580   */\n      0x4e487b7100000000000000000000000000000000000000000000000000000000\n        /* \"#utility.yul\":12500:12501   */\n      0x00\n        /* \"#utility.yul\":12493:12581   */\n      mstore\n        /* \"#utility.yul\":12600:12604   */\n      0x22\n        /* \"#utility.yul\":12597:12598   */\n      0x04\n        /* \"#utility.yul\":12590:12605   */\n      mstore\n        /* \"#utility.yul\":12624:12628   */\n      0x24\n        /* \"#utility.yul\":12621:12622   */\n      0x00\n        /* \"#utility.yul\":12614:12629   */\n      revert\n        /* \"#utility.yul\":12641:12961   */\n    tag_84:\n        /* \"#utility.yul\":12685:12691   */\n      0x00\n        /* \"#utility.yul\":12722:12723   */\n      0x02\n        /* \"#utility.yul\":12716:12720   */\n      dup3\n        /* \"#utility.yul\":12712:12724   */\n      div\n        /* \"#utility.yul\":12702:12724   */\n      swap1\n      pop\n        /* \"#utility.yul\":12769:12770   */\n      0x01\n        /* \"#utility.yul\":12763:12767   */\n      dup3\n        /* \"#utility.yul\":12759:12771   */\n      and\n        /* \"#utility.yul\":12790:12808   */\n      dup1\n        /* \"#utility.yul\":12780:12861   */\n      tag_300\n      jumpi\n        /* \"#utility.yul\":12846:12850   */\n      0x7f\n        /* \"#utility.yul\":12838:12844   */\n      dup3\n        /* \"#utility.yul\":12834:12851   */\n      and\n        /* \"#utility.yul\":12824:12851   */\n      swap2\n      pop\n        /* \"#utility.yul\":12780:12861   */\n    tag_300:\n        /* \"#utility.yul\":12908:12910   */\n      0x20\n        /* \"#utility.yul\":12900:12906   */\n      dup3\n        /* \"#utility.yul\":12897:12911   */\n      lt\n        /* \"#utility.yul\":12877:12895   */\n      dup2\n        /* \"#utility.yul\":12874:12912   */\n      sub\n        /* \"#utility.yul\":12871:12955   */\n      tag_301\n      jumpi\n        /* \"#utility.yul\":12927:12945   */\n      tag_302\n      tag_150\n      jump\t// in\n    tag_302:\n        /* \"#utility.yul\":12871:12955   */\n    tag_301:\n        /* \"#utility.yul\":12692:12961   */\n      pop\n        /* \"#utility.yul\":12641:12961   */\n      swap2\n      swap1\n      pop\n      jump\t// out\n        /* \"#utility.yul\":12967:13108   */\n    tag_151:\n        /* \"#utility.yul\":13016:13020   */\n      0x00\n        /* \"#utility.yul\":13039:13042   */\n      dup2\n        /* \"#utility.yul\":13031:13042   */\n      swap1\n      pop\n        /* \"#utility.yul\":13062:13065   */\n      dup2\n        /* \"#utility.yul\":13059:13060   */\n      0x00\n        /* \"#utility.yul\":13052:13066   */\n      mstore\n        /* \"#utility.yul\":13096:13100   */\n      0x20\n        /* \"#utility.yul\":13093:13094   */\n      0x00\n        /* \"#utility.yul\":13083:13101   */\n      keccak256\n        /* \"#utility.yul\":13075:13101   */\n      swap1\n      pop\n        /* \"#utility.yul\":12967:13108   */\n      swap2\n      swap1\n      pop\n      jump\t// out\n        /* \"#utility.yul\":13114:13207   */\n    tag_152:\n        /* \"#utility.yul\":13151:13157   */\n      0x00\n        /* \"#utility.yul\":13198:13200   */\n      0x20\n        /* \"#utility.yul\":13193:13195   */\n      0x1f\n        /* \"#utility.yul\":13186:13191   */\n      dup4\n        /* \"#utility.yul\":13182:13196   */\n      add\n        /* \"#utility.yul\":13178:13201   */\n      div\n        /* \"#utility.yul\":13168:13201   */\n      swap1\n      pop\n        /* \"#utility.yul\":13114:13207   */\n      swap2\n      swap1\n      pop\n      jump\t// out\n        /* \"#utility.yul\":13213:13320   */\n    tag_153:\n        /* \"#utility.yul\":13257:13265   */\n      0x00\n        /* \"#utility.yul\":13307:13312   */\n      dup3\n        /* \"#utility.yul\":13301:13305   */\n      dup3\n        /* \"#utility.yul\":13297:13313   */\n      shl\n        /* \"#utility.yul\":13276:13313   */\n      swap1\n      pop\n        /* \"#utility.yul\":13213:13320   */\n      swap3\n      swap2\n      pop\n      pop\n      jump\t// out\n        /* \"#utility.yul\":13326:13719   */\n    tag_154:\n        /* \"#utility.yul\":13395:13401   */\n      0x00\n        /* \"#utility.yul\":13445:13446   */\n      0x08\n        /* \"#utility.yul\":13433:13443   */\n      dup4\n        /* \"#utility.yul\":13429:13447   */\n      mul\n        /* \"#utility.yul\":13468:13565   */\n      tag_307\n        /* \"#utility.yul\":13498:13564   */\n      0xffffffffffffffffffffffffffffffffffffffffffffffffffffffffffffffff\n        /* \"#utility.yul\":13487:13496   */\n      dup3\n        /* \"#utility.yul\":13468:13565   */\n      tag_153\n      jump\t// in\n    tag_307:\n        /* \"#utility.yul\":13586:13625   */\n      tag_308\n        /* \"#utility.yul\":13616:13624   */\n      dup7\n        /* \"#utility.yul\":13605:13614   */\n      dup4\n        /* \"#utility.yul\":13586:13625   */\n      tag_153\n      jump\t// in\n    tag_308:\n        /* \"#utility.yul\":13574:13625   */\n      swap6\n      pop\n        /* \"#utility.yul\":13658:13662   */\n      dup1\n        /* \"#utility.yul\":13654:13663   */\n      not\n        /* \"#utility.yul\":13647:13652   */\n      dup5\n        /* \"#utility.yul\":13643:13664   */\n      and\n        /* \"#utility.yul\":13634:13664   */\n      swap4\n      pop\n        /* \"#utility.yul\":13707:13711   */\n      dup1\n        /* \"#utility.yul\":13697:13705   */\n      dup7\n        /* \"#utility.yul\":13693:13712   */\n      and\n        /* \"#utility.yul\":13686:13691   */\n      dup5\n        /* \"#utility.yul\":13683:13713   */\n      or\n        /* \"#utility.yul\":13673:13713   */\n      swap3\n      pop\n        /* \"#utility.yul\":13402:13719   */\n      pop\n      pop\n        /* \"#utility.yul\":13326:13719   */\n      swap4\n      swap3\n      pop\n      pop\n      pop\n      jump\t// out\n        /* \"#utility.yul\":13725:13785   */\n    tag_155:\n        /* \"#utility.yul\":13753:13756   */\n      0x00\n        /* \"#utility.yul\":13774:13779   */\n      dup2\n        /* \"#utility.yul\":13767:13779   */\n      swap1\n      pop\n        /* \"#utility.yul\":13725:13785   */\n      swap2\n      swap1\n      pop\n      jump\t// out\n        /* \"#utility.yul\":13791:13933   */\n    tag_156:\n        /* \"#utility.yul\":13841:13850   */\n      0x00\n        /* \"#utility.yul\":13874:13927   */\n      tag_311\n        /* \"#utility.yul\":13892:13926   */\n      tag_312\n        /* \"#utility.yul\":13901:13925   */\n      tag_313\n        /* \"#utility.yul\":13919:13924   */\n      dup5\n        /* \"#utility.yul\":13901:13925   */\n      tag_113\n      jump\t// in\n    tag_313:\n        /* \"#utility.yul\":13892:13926   */\n      tag_155\n      jump\t// in\n    tag_312:\n        /* \"#utility.yul\":13874:13927   */\n      tag_113\n      jump\t// in\n    tag_311:\n        /* \"#utility.yul\":13861:13927   */\n      swap1\n      pop\n        /* \"#utility.yul\":13791:13933   */\n      swap2\n      swap1\n      pop\n      jump\t// out\n        /* \"#utility.yul\":13939:14014   */\n    tag_157:\n        /* \"#utility.yul\":13982:13985   */\n      0x00\n        /* \"#utility.yul\":14003:14008   */\n      dup2\n        /* \"#utility.yul\":13996:14008   */\n      swap1\n      pop\n        /* \"#utility.yul\":13939:14014   */\n      swap2\n      swap1\n      pop\n      jump\t// out\n        /* \"#utility.yul\":14020:14289   */\n    tag_158:\n        /* \"#utility.yul\":14130:14169   */\n      tag_316\n        /* \"#utility.yul\":14161:14168   */\n      dup4\n        /* \"#utility.yul\":14130:14169   */\n      tag_156\n      jump\t// in\n    tag_316:\n        /* \"#utility.yul\":14191:14282   */\n      tag_317\n        /* \"#utility.yul\":14240:14281   */\n      tag_318\n        /* \"#utility.yul\":14264:14280   */\n      dup3\n        /* \"#utility.yul\":14240:14281   */\n      tag_157\n      jump\t// in\n    tag_318:\n        /* \"#utility.yul\":14232:14238   */\n      dup5\n        /* \"#utility.yul\":14225:14229   */\n      dup5\n        /* \"#utility.yul\":14219:14230   */\n      sload\n        /* \"#utility.yul\":14191:14282   */\n      tag_154\n      jump\t// in\n    tag_317:\n        /* \"#utility.yul\":14185:14189   */\n      dup3\n        /* \"#utility.yul\":14178:14283   */\n      sstore\n        /* \"#utility.yul\":14096:14289   */\n      pop\n        /* \"#utility.yul\":14020:14289   */\n      pop\n      pop\n      pop\n      jump\t// out\n        /* \"#utility.yul\":14295:14368   */\n    tag_159:\n        /* \"#utility.yul\":14340:14343   */\n      0x00\n        /* \"#utility.yul\":14295:14368   */\n      swap1\n      jump\t// out\n        /* \"#utility.yul\":14374:14563   */\n    tag_160:\n        /* \"#utility.yul\":14451:14483   */\n      tag_321\n      tag_159\n      jump\t// in\n    tag_321:\n        /* \"#utility.yul\":14492:14557   */\n      tag_322\n        /* \"#utility.yul\":14550:14556   */\n      dup2\n        /* \"#utility.yul\":14542:14548   */\n      dup5\n        /* \"#utility.yul\":14536:14540   */\n      dup5\n        /* \"#utility.yul\":14492:14557   */\n      tag_158\n      jump\t// in\n    tag_322:\n        /* \"#utility.yul\":14427:14563   */\n      pop\n        /* \"#utility.yul\":14374:14563   */\n      pop\n      pop\n      jump\t// out\n        /* \"#utility.yul\":14569:14755   */\n    tag_161:\n        /* \"#utility.yul\":14629:14749   */\n    tag_324:\n        /* \"#utility.yul\":14646:14649   */\n      dup2\n        /* \"#utility.yul\":14639:14644   */\n      dup2\n        /* \"#utility.yul\":14636:14650   */\n      lt\n        /* \"#utility.yul\":14629:14749   */\n      iszero\n      tag_326\n      jumpi\n        /* \"#utility.yul\":14700:14739   */\n      tag_327\n        /* \"#utility.yul\":14737:14738   */\n      0x00\n        /* \"#utility.yul\":14730:14735   */\n      dup3\n        /* \"#utility.yul\":14700:14739   */\n      tag_160\n      jump\t// in\n    tag_327:\n        /* \"#utility.yul\":14673:14674   */\n      0x01\n        /* \"#utility.yul\":14666:14671   */\n      dup2\n        /* \"#utility.yul\":14662:14675   */\n      add\n        /* \"#utility.yul\":14653:14675   */\n      swap1\n      pop\n        /* \"#utility.yul\":14629:14749   */\n      jump(tag_324)\n    tag_326:\n        /* \"#utility.yul\":14569:14755   */\n      pop\n      pop\n      jump\t// out\n        /* \"#utility.yul\":14761:15304   */\n    tag_162:\n        /* \"#utility.yul\":14862:14864   */\n      0x1f\n        /* \"#utility.yul\":14857:14860   */\n      dup3\n        /* \"#utility.yul\":14854:14865   */\n      gt\n        /* \"#utility.yul\":14851:15297   */\n      iszero\n      tag_329\n      jumpi\n        /* \"#utility.yul\":14896:14934   */\n      tag_330\n        /* \"#utility.yul\":14928:14933   */\n      dup2\n        /* \"#utility.yul\":14896:14934   */\n      tag_151\n      jump\t// in\n    tag_330:\n        /* \"#utility.yul\":14980:15009   */\n      tag_331\n        /* \"#utility.yul\":14998:15008   */\n      dup5\n        /* \"#utility.yul\":14980:15009   */\n      tag_152\n      jump\t// in\n    tag_331:\n        /* \"#utility.yul\":14970:14978   */\n      dup2\n        /* \"#utility.yul\":14966:15010   */\n      add\n        /* \"#utility.yul\":15163:15165   */\n      0x20\n        /* \"#utility.yul\":15151:15161   */\n      dup6\n        /* \"#utility.yul\":15148:15166   */\n      lt\n        /* \"#utility.yul\":15145:15194   */\n      iszero\n      tag_332\n      jumpi\n        /* \"#utility.yul\":15184:15192   */\n      dup2\n        /* \"#utility.yul\":15169:15192   */\n      swap1\n      pop\n        /* \"#utility.yul\":15145:15194   */\n    tag_332:\n        /* \"#utility.yul\":15207:15287   */\n      tag_333\n        /* \"#utility.yul\":15263:15285   */\n      tag_334\n        /* \"#utility.yul\":15281:15284   */\n      dup6\n        /* \"#utility.yul\":15263:15285   */\n      tag_152\n      jump\t// in\n    tag_334:\n        /* \"#utility.yul\":15253:15261   */\n      dup4\n        /* \"#utility.yul\":15249:15286   */\n      add\n        /* \"#utility.yul\":15236:15247   */\n      dup3\n        /* \"#utility.yul\":15207:15287   */\n      tag_161\n      jump\t// in\n    tag_333:\n        /* \"#utility.yul\":14866:15297   */\n      pop\n      pop\n        /* \"#utility.yul\":14851:15297   */\n    tag_329:\n        /* \"#utility.yul\":14761:15304   */\n      pop\n      pop\n      pop\n      jump\t// out\n        /* \"#utility.yul\":15310:15427   */\n    tag_163:\n        /* \"#utility.yul\":15364:15372   */\n      0x00\n        /* \"#utility.yul\":15414:15419   */\n      dup3\n        /* \"#utility.yul\":15408:15412   */\n      dup3\n        /* \"#utility.yul\":15404:15420   */\n      shr\n        /* \"#utility.yul\":15383:15420   */\n      swap1\n      pop\n        /* \"#utility.yul\":15310:15427   */\n      swap3\n      swap2\n      pop\n      pop\n      jump\t// out\n        /* \"#utility.yul\":15433:15602   */\n    tag_164:\n        /* \"#utility.yul\":15477:15483   */\n      0x00\n        /* \"#utility.yul\":15510:15561   */\n      tag_337\n        /* \"#utility.yul\":15558:15559   */\n      0x00\n        /* \"#utility.yul\":15554:15560   */\n      not\n        /* \"#utility.yul\":15546:15551   */\n      dup5\n        /* \"#utility.yul\":15543:15544   */\n      0x08\n        /* \"#utility.yul\":15539:15552   */\n      mul\n        /* \"#utility.yul\":15510:15561   */\n      tag_163\n      jump\t// in\n    tag_337:\n        /* \"#utility.yul\":15506:15562   */\n      not\n        /* \"#utility.yul\":15591:15595   */\n      dup1\n        /* \"#utility.yul\":15585:15589   */\n      dup4\n        /* \"#utility.yul\":15581:15596   */\n      and\n        /* \"#utility.yul\":15571:15596   */\n      swap2\n      pop\n        /* \"#utility.yul\":15484:15602   */\n      pop\n        /* \"#utility.yul\":15433:15602   */\n      swap3\n      swap2\n      pop\n      pop\n      jump\t// out\n        /* \"#utility.yul\":15607:15902   */\n    tag_165:\n        /* \"#utility.yul\":15683:15687   */\n      0x00\n        /* \"#utility.yul\":15829:15858   */\n      tag_339\n        /* \"#utility.yul\":15854:15857   */\n      dup4\n        /* \"#utility.yul\":15848:15852   */\n      dup4\n        /* \"#utility.yul\":15829:15858   */\n      tag_164\n      jump\t// in\n    tag_339:\n        /* \"#utility.yul\":15821:15858   */\n      swap2\n      pop\n        /* \"#utility.yul\":15891:15894   */\n      dup3\n        /* \"#utility.yul\":15888:15889   */\n      0x02\n        /* \"#utility.yul\":15884:15895   */\n      mul\n        /* \"#utility.yul\":15878:15882   */\n      dup3\n        /* \"#utility.yul\":15875:15896   */\n      or\n        /* \"#utility.yul\":15867:15896   */\n      swap1\n      pop\n        /* \"#utility.yul\":15607:15902   */\n      swap3\n      swap2\n      pop\n      pop\n      jump\t// out\n        /* \"#utility.yul\":15907:17302   */\n    tag_95:\n        /* \"#utility.yul\":16024:16061   */\n      tag_341\n        /* \"#utility.yul\":16057:16060   */\n      dup3\n        /* \"#utility.yul\":16024:16061   */\n      tag_123\n      jump\t// in\n    tag_341:\n        /* \"#utility.yul\":16126:16144   */\n      0xffffffffffffffff\n        /* \"#utility.yul\":16118:16124   */\n      dup2\n        /* \"#utility.yul\":16115:16145   */\n      gt\n        /* \"#utility.yul\":16112:16168   */\n      iszero\n      tag_342\n      jumpi\n        /* \"#utility.yul\":16148:16166   */\n      tag_343\n      tag_133\n      jump\t// in\n    tag_343:\n        /* \"#utility.yul\":16112:16168   */\n    tag_342:\n        /* \"#utility.yul\":16192:16230   */\n      tag_344\n        /* \"#utility.yul\":16224:16228   */\n      dup3\n        /* \"#utility.yul\":16218:16229   */\n      sload\n        /* \"#utility.yul\":16192:16230   */\n      tag_84\n      jump\t// in\n    tag_344:\n        /* \"#utility.yul\":16277:16344   */\n      tag_345\n        /* \"#utility.yul\":16337:16343   */\n      dup3\n        /* \"#utility.yul\":16329:16335   */\n      dup3\n        /* \"#utility.yul\":16323:16327   */\n      dup6\n        /* \"#utility.yul\":16277:16344   */\n      tag_162\n      jump\t// in\n    tag_345:\n        /* \"#utility.yul\":16371:16372   */\n      0x00\n        /* \"#utility.yul\":16395:16399   */\n      0x20\n        /* \"#utility.yul\":16382:16399   */\n      swap1\n      pop\n        /* \"#utility.yul\":16427:16429   */\n      0x1f\n        /* \"#utility.yul\":16419:16425   */\n      dup4\n        /* \"#utility.yul\":16416:16430   */\n      gt\n        /* \"#utility.yul\":16444:16445   */\n      0x01\n        /* \"#utility.yul\":16439:17057   */\n      dup2\n      eq\n      tag_347\n      jumpi\n        /* \"#utility.yul\":17101:17102   */\n      0x00\n        /* \"#utility.yul\":17118:17124   */\n      dup5\n        /* \"#utility.yul\":17115:17192   */\n      iszero\n      tag_348\n      jumpi\n        /* \"#utility.yul\":17167:17176   */\n      dup3\n        /* \"#utility.yul\":17162:17165   */\n      dup8\n        /* \"#utility.yul\":17158:17177   */\n      add\n        /* \"#utility.yul\":17152:17178   */\n      mload\n        /* \"#utility.yul\":17143:17178   */\n      swap1\n      pop\n        /* \"#utility.yul\":17115:17192   */\n    tag_348:\n        /* \"#utility.yul\":17218:17285   */\n      tag_349\n        /* \"#utility.yul\":17278:17284   */\n      dup6\n        /* \"#utility.yul\":17271:17276   */\n      dup3\n        /* \"#utility.yul\":17218:17285   */\n      tag_165\n      jump\t// in\n    tag_349:\n        /* \"#utility.yul\":17212:17216   */\n      dup7\n        /* \"#utility.yul\":17205:17286   */\n      sstore\n        /* \"#utility.yul\":17074:17296   */\n      pop\n        /* \"#utility.yul\":16409:17296   */\n      jump(tag_346)\n        /* \"#utility.yul\":16439:17057   */\n    tag_347:\n        /* \"#utility.yul\":16491:16495   */\n      0x1f\n        /* \"#utility.yul\":16487:16496   */\n      not\n        /* \"#utility.yul\":16479:16485   */\n      dup5\n        /* \"#utility.yul\":16475:16497   */\n      and\n        /* \"#utility.yul\":16525:16562   */\n      tag_350\n        /* \"#utility.yul\":16557:16561   */\n      dup7\n        /* \"#utility.yul\":16525:16562   */\n      tag_151\n      jump\t// in\n    tag_350:\n        /* \"#utility.yul\":16584:16585   */\n      0x00\n        /* \"#utility.yul\":16598:16806   */\n    tag_351:\n        /* \"#utility.yul\":16612:16619   */\n      dup3\n        /* \"#utility.yul\":16609:16610   */\n      dup2\n        /* \"#utility.yul\":16606:16620   */\n      lt\n        /* \"#utility.yul\":16598:16806   */\n      iszero\n      tag_353\n      jumpi\n        /* \"#utility.yul\":16691:16700   */\n      dup5\n        /* \"#utility.yul\":16686:16689   */\n      dup10\n        /* \"#utility.yul\":16682:16701   */\n      add\n        /* \"#utility.yul\":16676:16702   */\n      mload\n        /* \"#utility.yul\":16668:16674   */\n      dup3\n        /* \"#utility.yul\":16661:16703   */\n      sstore\n        /* \"#utility.yul\":16742:16743   */\n      0x01\n        /* \"#utility.yul\":16734:16740   */\n      dup3\n        /* \"#utility.yul\":16730:16744   */\n      add\n        /* \"#utility.yul\":16720:16744   */\n      swap2\n      pop\n        /* \"#utility.yul\":16789:16791   */\n      0x20\n        /* \"#utility.yul\":16778:16787   */\n      dup6\n        /* \"#utility.yul\":16774:16792   */\n      add\n        /* \"#utility.yul\":16761:16792   */\n      swap5\n      pop\n        /* \"#utility.yul\":16635:16639   */\n      0x20\n        /* \"#utility.yul\":16632:16633   */\n      dup2\n        /* \"#utility.yul\":16628:16640   */\n      add\n        /* \"#utility.yul\":16623:16640   */\n      swap1\n      pop\n        /* \"#utility.yul\":16598:16806   */\n      jump(tag_351)\n    tag_353:\n        /* \"#utility.yul\":16834:16840   */\n      dup7\n        /* \"#utility.yul\":16825:16832   */\n      dup4\n        /* \"#utility.yul\":16822:16841   */\n      lt\n        /* \"#utility.yul\":16819:16998   */\n      iszero\n      tag_354\n      jumpi\n        /* \"#utility.yul\":16892:16901   */\n      dup5\n        /* \"#utility.yul\":16887:16890   */\n      dup10\n        /* \"#utility.yul\":16883:16902   */\n      add\n        /* \"#utility.yul\":16877:16903   */\n      mload\n        /* \"#utility.yul\":16935:16983   */\n      tag_355\n        /* \"#utility.yul\":16977:16981   */\n      0x1f\n        /* \"#utility.yul\":16969:16975   */\n      dup10\n        /* \"#utility.yul\":16965:16982   */\n      and\n        /* \"#utility.yul\":16954:16963   */\n      dup3\n        /* \"#utility.yul\":16935:16983   */\n      tag_164\n      jump\t// in\n    tag_355:\n        /* \"#utility.yul\":16927:16933   */\n      dup4\n        /* \"#utility.yul\":16920:16984   */\n      sstore\n        /* \"#utility.yul\":16842:16998   */\n      pop\n        /* \"#utility.yul\":16819:16998   */\n    tag_354:\n        /* \"#utility.yul\":17044:17045   */\n      0x01\n        /* \"#utility.yul\":17040:17041   */\n      0x02\n        /* \"#utility.yul\":17032:17038   */\n      dup9\n        /* \"#utility.yul\":17028:17042   */\n      mul\n        /* \"#utility.yul\":17024:17046   */\n      add\n        /* \"#utility.yul\":17018:17022   */\n      dup9\n        /* \"#utility.yul\":17011:17047   */\n      sstore\n        /* \"#utility.yul\":16446:17057   */\n      pop\n      pop\n      pop\n        /* \"#utility.yul\":16409:17296   */\n    tag_346:\n      pop\n        /* \"#utility.yul\":15999:17302   */\n      pop\n      pop\n      pop\n        /* \"#utility.yul\":15907:17302   */\n      pop\n      pop\n      jump\t// out\n        /* \"#utility.yul\":17308:17530   */\n    tag_166:\n        /* \"#utility.yul\":17448:17482   */\n      0x4d696e696d756d20636f6e747269627574696f6e206973206e6f74206d617463\n        /* \"#utility.yul\":17444:17445   */\n      0x00\n        /* \"#utility.yul\":17436:17442   */\n      dup3\n        /* \"#utility.yul\":17432:17446   */\n      add\n        /* \"#utility.yul\":17425:17483   */\n      mstore\n        /* \"#utility.yul\":17517:17522   */\n      0x6865640000000000000000000000000000000000000000000000000000000000\n        /* \"#utility.yul\":17512:17514   */\n      0x20\n        /* \"#utility.yul\":17504:17510   */\n      dup3\n        /* \"#utility.yul\":17500:17515   */\n      add\n        /* \"#utility.yul\":17493:17523   */\n      mstore\n        /* \"#utility.yul\":17308:17530   */\n      pop\n      jump\t// out\n        /* \"#utility.yul\":17536:17902   */\n    tag_167:\n        /* \"#utility.yul\":17678:17681   */\n      0x00\n        /* \"#utility.yul\":17699:17766   */\n      tag_358\n        /* \"#utility.yul\":17763:17765   */\n      0x23\n        /* \"#utility.yul\":17758:17761   */\n      dup4\n        /* \"#utility.yul\":17699:17766   */\n      tag_124\n      jump\t// in\n    tag_358:\n        /* \"#utility.yul\":17692:17766   */\n      swap2\n      pop\n        /* \"#utility.yul\":17775:17868   */\n      tag_359\n        /* \"#utility.yul\":17864:17867   */\n      dup3\n        /* \"#utility.yul\":17775:17868   */\n      tag_166\n      jump\t// in\n    tag_359:\n        /* \"#utility.yul\":17893:17895   */\n      0x40\n        /* \"#utility.yul\":17888:17891   */\n      dup3\n        /* \"#utility.yul\":17884:17896   */\n      add\n        /* \"#utility.yul\":17877:17896   */\n      swap1\n      pop\n        /* \"#utility.yul\":17536:17902   */\n      swap2\n      swap1\n      pop\n      jump\t// out\n        /* \"#utility.yul\":17908:18327   */\n    tag_99:\n        /* \"#utility.yul\":18074:18078   */\n      0x00\n        /* \"#utility.yul\":18112:18114   */\n      0x20\n        /* \"#utility.yul\":18101:18110   */\n      dup3\n        /* \"#utility.yul\":18097:18115   */\n      add\n        /* \"#utility.yul\":18089:18115   */\n      swap1\n      pop\n        /* \"#utility.yul\":18161:18170   */\n      dup2\n        /* \"#utility.yul\":18155:18159   */\n      dup2\n        /* \"#utility.yul\":18151:18171   */\n      sub\n        /* \"#utility.yul\":18147:18148   */\n      0x00\n        /* \"#utility.yul\":18136:18145   */\n      dup4\n        /* \"#utility.yul\":18132:18149   */\n      add\n        /* \"#utility.yul\":18125:18172   */\n      mstore\n        /* \"#utility.yul\":18189:18320   */\n      tag_361\n        /* \"#utility.yul\":18315:18319   */\n      dup2\n        /* \"#utility.yul\":18189:18320   */\n      tag_167\n      jump\t// in\n    tag_361:\n        /* \"#utility.yul\":18181:18320   */\n      swap1\n      pop\n        /* \"#utility.yul\":17908:18327   */\n      swap2\n      swap1\n      pop\n      jump\t// out\n        /* \"#utility.yul\":18333:18566   */\n    tag_102:\n        /* \"#utility.yul\":18372:18375   */\n      0x00\n        /* \"#utility.yul\":18395:18419   */\n      tag_363\n        /* \"#utility.yul\":18413:18418   */\n      dup3\n        /* \"#utility.yul\":18395:18419   */\n      tag_113\n      jump\t// in\n    tag_363:\n        /* \"#utility.yul\":18386:18419   */\n      swap2\n      pop\n        /* \"#utility.yul\":18441:18507   */\n      0xffffffffffffffffffffffffffffffffffffffffffffffffffffffffffffffff\n        /* \"#utility.yul\":18434:18439   */\n      dup3\n        /* \"#utility.yul\":18431:18508   */\n      sub\n        /* \"#utility.yul\":18428:18531   */\n      tag_364\n      jumpi\n        /* \"#utility.yul\":18511:18529   */\n      tag_365\n      tag_145\n      jump\t// in\n    tag_365:\n        /* \"#utility.yul\":18428:18531   */\n    tag_364:\n        /* \"#utility.yul\":18558:18559   */\n      0x01\n        /* \"#utility.yul\":18551:18556   */\n      dup3\n        /* \"#utility.yul\":18547:18560   */\n      add\n        /* \"#utility.yul\":18540:18560   */\n      swap1\n      pop\n        /* \"#utility.yul\":18333:18566   */\n      swap2\n      swap1\n      pop\n      jump\t// out\n\n    auxdata: 0xa264697066735822122085930eb30de1cc5f9da9573bad9410b0012c9331ab0300a153fb4d1c302102a164736f6c63430008130033\n}\n","bytecode":{"linkReferences":{},"object":"60806040523480156200001157600080fd5b506040516200157e3803806200157e83398181016040528101906200003791906200012b565b806000806101000a81548173ffffffffffffffffffffffffffffffffffffffff021916908373ffffffffffffffffffffffffffffffffffffffff16021790555081600181905550505062000172565b600080fd5b6000819050919050565b620000a0816200008b565b8114620000ac57600080fd5b50565b600081519050620000c08162000095565b92915050565b600073ffffffffffffffffffffffffffffffffffffffff82169050919050565b6000620000f382620000c6565b9050919050565b6200010581620000e6565b81146200011157600080fd5b50565b6000815190506200012581620000fa565b92915050565b6000806040838503121562000145576200014462000086565b5b60006200015585828601620000af565b9250506020620001688582860162000114565b9150509250929050565b6113fc80620001826000396000f3fe6080604052600436106100915760003560e01c806382fde0931161005957806382fde093146101a55780638a9cfd55146101d0578063937e09b1146101f9578063d7bb99ba14610224578063d7d1bbdb1461022e57610091565b806303441006146100965780630a144391146100bf57806333f449e5146100fc578063481c6a751461013957806381d12c5814610164575b600080fd5b3480156100a257600080fd5b506100bd60048036038101906100b891906109af565b610257565b005b3480156100cb57600080fd5b506100e660048036038101906100e19190610a3a565b610441565b6040516100f39190610a82565b60405180910390f35b34801561010857600080fd5b50610123600480360381019061011e9190610a9d565b610461565b6040516101309190610a82565b60405180910390f35b34801561014557600080fd5b5061014e610490565b60405161015b9190610aec565b60405180910390f35b34801561017057600080fd5b5061018b600480360381019061018691906109af565b6104b4565b60405161019c959493929190610bc7565b60405180910390f35b3480156101b157600080fd5b506101ba6105af565b6040516101c79190610c21565b60405180910390f35b3480156101dc57600080fd5b506101f760048036038101906101f29190610d9d565b6105b5565b005b34801561020557600080fd5b5061020e6106f2565b60405161021b9190610c21565b60405180910390f35b61022c6106f8565b005b34801561023a57600080fd5b50610255600480360381019061025091906109af565b610800565b005b60008054906101000a900473ffffffffffffffffffffffffffffffffffffffff1673ffffffffffffffffffffffffffffffffffffffff163373ffffffffffffffffffffffffffffffffffffffff16146102e5576040517f08c379a00000000000000000000000000000000000000000000000000000000081526004016102dc90610e58565b60405180910390fd5b6000600582815481106102fb576102fa610e78565b5b90600052602060002090600402019050600260035461031a9190610f05565b81600301541161035f576040517f08c379a000000000000000000000000000000000000000000000000000000000815260040161035690610f82565b60405180910390fd5b8060020160149054906101000a900460ff16156103b1576040517f08c379a00000000000000000000000000000000000000000000000000000000081526004016103a890610fee565b60405180910390fd5b8060020160009054906101000a900473ffffffffffffffffffffffffffffffffffffffff1673ffffffffffffffffffffffffffffffffffffffff166108fc82600101549081150290604051600060405180830381858888f1935050505015801561041f573d6000803e3d6000fd5b5060018160020160146101000a81548160ff0219169083151502179055505050565b60026020528060005260406000206000915054906101000a900460ff1681565b60046020528160005260406000206020528060005260406000206000915091509054906101000a900460ff1681565b60008054906101000a900473ffffffffffffffffffffffffffffffffffffffff1681565b600581815481106104c457600080fd5b90600052602060002090600402016000915090508060000180546104e79061103d565b80601f01602080910402602001604051908101604052809291908181526020018280546105139061103d565b80156105605780601f1061053557610100808354040283529160200191610560565b820191906000526020600020905b81548152906001019060200180831161054357829003601f168201915b5050505050908060010154908060020160009054906101000a900473ffffffffffffffffffffffffffffffffffffffff16908060020160149054906101000a900460ff16908060030154905085565b60035481565b60008054906101000a900473ffffffffffffffffffffffffffffffffffffffff1673ffffffffffffffffffffffffffffffffffffffff163373ffffffffffffffffffffffffffffffffffffffff1614610643576040517f08c379a000000000000000000000000000000000000000000000000000000000815260040161063a90610e58565b60405180910390fd5b60006005600181600181540180825580915050039060005260206000209060040201905083816000019081610678919061121a565b50828160010181905550818160020160006101000a81548173ffffffffffffffffffffffffffffffffffffffff021916908373ffffffffffffffffffffffffffffffffffffffff16021790555060008160020160146101000a81548160ff0219169083151502179055506000816003018190555050505050565b60015481565b600154341161073c576040517f08c379a00000000000000000000000000000000000000000000000000000000081526004016107339061135e565b60405180910390fd5b600260003373ffffffffffffffffffffffffffffffffffffffff1673ffffffffffffffffffffffffffffffffffffffff16815260200190815260200160002060009054906101000a900460ff166107fe576001600260003373ffffffffffffffffffffffffffffffffffffffff1673ffffffffffffffffffffffffffffffffffffffff16815260200190815260200160002060006101000a81548160ff021916908315150217905550600360008154809291906107f89061137e565b91905055505b565b600260003373ffffffffffffffffffffffffffffffffffffffff1673ffffffffffffffffffffffffffffffffffffffff16815260200190815260200160002060009054906101000a900460ff1661085657600080fd5b6004600082815260200190815260200160002060003373ffffffffffffffffffffffffffffffffffffffff1673ffffffffffffffffffffffffffffffffffffffff16815260200190815260200160002060009054906101000a900460ff16156108be57600080fd5b60016004600083815260200190815260200160002060003373ffffffffffffffffffffffffffffffffffffffff1673ffffffffffffffffffffffffffffffffffffffff16815260200190815260200160002060006101000a81548160ff0219169083151502179055506005818154811061093b5761093a610e78565b5b9060005260206000209060040201600301600081548092919061095d9061137e565b919050555050565b6000604051905090565b600080fd5b600080fd5b6000819050919050565b61098c81610979565b811461099757600080fd5b50565b6000813590506109a981610983565b92915050565b6000602082840312156109c5576109c461096f565b5b60006109d38482850161099a565b91505092915050565b600073ffffffffffffffffffffffffffffffffffffffff82169050919050565b6000610a07826109dc565b9050919050565b610a17816109fc565b8114610a2257600080fd5b50565b600081359050610a3481610a0e565b92915050565b600060208284031215610a5057610a4f61096f565b5b6000610a5e84828501610a25565b91505092915050565b60008115159050919050565b610a7c81610a67565b82525050565b6000602082019050610a976000830184610a73565b92915050565b60008060408385031215610ab457610ab361096f565b5b6000610ac28582860161099a565b9250506020610ad385828601610a25565b9150509250929050565b610ae6816109fc565b82525050565b6000602082019050610b016000830184610add565b92915050565b600081519050919050565b600082825260208201905092915050565b60005b83811015610b41578082015181840152602081019050610b26565b60008484015250505050565b6000601f19601f8301169050919050565b6000610b6982610b07565b610b738185610b12565b9350610b83818560208601610b23565b610b8c81610b4d565b840191505092915050565b610ba081610979565b82525050565b6000610bb1826109dc565b9050919050565b610bc181610ba6565b82525050565b600060a0820190508181036000830152610be18188610b5e565b9050610bf06020830187610b97565b610bfd6040830186610bb8565b610c0a6060830185610a73565b610c176080830184610b97565b9695505050505050565b6000602082019050610c366000830184610b97565b92915050565b600080fd5b600080fd5b7f4e487b7100000000000000000000000000000000000000000000000000000000600052604160045260246000fd5b610c7e82610b4d565b810181811067ffffffffffffffff82111715610c9d57610c9c610c46565b5b80604052505050565b6000610cb0610965565b9050610cbc8282610c75565b919050565b600067ffffffffffffffff821115610cdc57610cdb610c46565b5b610ce582610b4d565b9050602081019050919050565b82818337600083830152505050565b6000610d14610d0f84610cc1565b610ca6565b905082815260208101848484011115610d3057610d2f610c41565b5b610d3b848285610cf2565b509392505050565b600082601f830112610d5857610d57610c3c565b5b8135610d68848260208601610d01565b91505092915050565b610d7a81610ba6565b8114610d8557600080fd5b50565b600081359050610d9781610d71565b92915050565b600080600060608486031215610db657610db561096f565b5b600084013567ffffffffffffffff811115610dd457610dd3610974565b5b610de086828701610d43565b9350506020610df18682870161099a565b9250506040610e0286828701610d88565b9150509250925092565b7f43616c6c6572206973206e6f7420746865206d616e6167657200000000000000600082015250565b6000610e42601983610b12565b9150610e4d82610e0c565b602082019050919050565b60006020820190508181036000830152610e7181610e35565b9050919050565b7f4e487b7100000000000000000000000000000000000000000000000000000000600052603260045260246000fd5b7f4e487b7100000000000000000000000000000000000000000000000000000000600052601260045260246000fd5b7f4e487b7100000000000000000000000000000000000000000000000000000000600052601160045260246000fd5b6000610f1082610979565b9150610f1b83610979565b925082610f2b57610f2a610ea7565b5b828204905092915050565b7f4e6f7420656e6f75676820617070726f76616c73000000000000000000000000600082015250565b6000610f6c601483610b12565b9150610f7782610f36565b602082019050919050565b60006020820190508181036000830152610f9b81610f5f565b9050919050565b7f5265717565737420616c72656164792066696e616c697a656400000000000000600082015250565b6000610fd8601983610b12565b9150610fe382610fa2565b602082019050919050565b6000602082019050818103600083015261100781610fcb565b9050919050565b7f4e487b7100000000000000000000000000000000000000000000000000000000600052602260045260246000fd5b6000600282049050600182168061105557607f821691505b6020821081036110685761106761100e565b5b50919050565b60008190508160005260206000209050919050565b60006020601f8301049050919050565b600082821b905092915050565b6000600883026110d07fffffffffffffffffffffffffffffffffffffffffffffffffffffffffffffffff82611093565b6110da8683611093565b95508019841693508086168417925050509392505050565b6000819050919050565b600061111761111261110d84610979565b6110f2565b610979565b9050919050565b6000819050919050565b611131836110fc565b61114561113d8261111e565b8484546110a0565b825550505050565b600090565b61115a61114d565b611165818484611128565b505050565b5b818110156111895761117e600082611152565b60018101905061116b565b5050565b601f8211156111ce5761119f8161106e565b6111a884611083565b810160208510156111b7578190505b6111cb6111c385611083565b83018261116a565b50505b505050565b600082821c905092915050565b60006111f1600019846008026111d3565b1980831691505092915050565b600061120a83836111e0565b9150826002028217905092915050565b61122382610b07565b67ffffffffffffffff81111561123c5761123b610c46565b5b611246825461103d565b61125182828561118d565b600060209050601f8311600181146112845760008415611272578287015190505b61127c85826111fe565b8655506112e4565b601f1984166112928661106e565b60005b828110156112ba57848901518255600182019150602085019450602081019050611295565b868310156112d757848901516112d3601f8916826111e0565b8355505b6001600288020188555050505b505050505050565b7f4d696e696d756d20636f6e747269627574696f6e206973206e6f74206d61746360008201527f6865640000000000000000000000000000000000000000000000000000000000602082015250565b6000611348602383610b12565b9150611353826112ec565b604082019050919050565b600060208201905081810360008301526113778161133b565b9050919050565b600061138982610979565b91507fffffffffffffffffffffffffffffffffffffffffffffffffffffffffffffffff82036113bb576113ba610ed6565b5b60018201905091905056fea264697066735822122085930eb30de1cc5f9da9573bad9410b0012c9331ab0300a153fb4d1c302102a164736f6c63430008130033","opcodes":"PUSH1 0x80 PUSH1 0x40 MSTORE CALLVALUE DUP1 ISZERO PUSH3 0x11 JUMPI PUSH1 0x0 DUP1 REVERT JUMPDEST POP PUSH1 0x40 MLOAD PUSH3 0x157E CODESIZE SUB DUP1 PUSH3 0x157E DUP4 CODECOPY DUP2 DUP2 ADD PUSH1 0x40 MSTORE DUP2 ADD SWAP1 PUSH3 0x37 SWAP2 SWAP1 PUSH3 0x12B JUMP JUMPDEST DUP1 PUSH1 0x0 DUP1 PUSH2 0x100 EXP DUP2 SLOAD DUP2 PUSH20 0xFFFFFFFFFFFFFFFFFFFFFFFFFFFFFFFFFFFFFFFF MUL NOT AND SWAP1 DUP4 PUSH20 0xFFFFFFFFFFFFFFFFFFFFFFFFFFFFFFFFFFFFFFFF AND MUL OR SWAP1 SSTORE POP DUP2 PUSH1 0x1 DUP2 SWAP1 SSTORE POP POP POP PUSH3 0x172 JUMP JUMPDEST PUSH1 0x0 DUP1 REVERT JUMPDEST PUSH1 0x0 DUP2 SWAP1 POP SWAP2 SWAP1 POP JUMP JUMPDEST PUSH3 0xA0 DUP2 PUSH3 0x8B JUMP JUMPDEST DUP2 EQ PUSH3 0xAC JUMPI PUSH1 0x0 DUP1 REVERT JUMPDEST POP JUMP JUMPDEST PUSH1 0x0 DUP2 MLOAD SWAP1 POP PUSH3 0xC0 DUP2 PUSH3 0x95 JUMP JUMPDEST SWAP3 SWAP2 POP POP JUMP JUMPDEST PUSH1 0x0 PUSH20 0xFFFFFFFFFFFFFFFFFFFFFFFFFFFFFFFFFFFFFFFF DUP3 AND SWAP1 POP SWAP2 SWAP1 POP JUMP JUMPDEST PUSH1 0x0 PUSH3 0xF3 DUP3 PUSH3 0xC6 JUMP JUMPDEST SWAP1 POP SWAP2 SWAP1 POP JUMP JUMPDEST PUSH3 0x105 DUP2 PUSH3 0xE6 JUMP JUMPDEST DUP2 EQ PUSH3 0x111 JUMPI PUSH1 0x0 DUP1 REVERT JUMPDEST POP JUMP JUMPDEST PUSH1 0x0 DUP2 MLOAD SWAP1 POP PUSH3 0x125 DUP2 PUSH3 0xFA JUMP JUMPDEST SWAP3 SWAP2 POP POP JUMP JUMPDEST PUSH1 0x0 DUP1 PUSH1 0x40 DUP4 DUP6 SUB SLT ISZERO PUSH3 0x145 JUMPI PUSH3 0x144 PUSH3 0x86 JUMP JUMPDEST JUMPDEST PUSH1 0x0 PUSH3 0x155 DUP6 DUP3 DUP7 ADD PUSH3 0xAF JUMP JUMPDEST SWAP3 POP POP PUSH1 0x20 PUSH3 0x168 DUP6 DUP3 DUP7 ADD PUSH3 0x114 JUMP JUMPDEST SWAP2 POP POP SWAP3 POP SWAP3 SWAP1 POP JUMP JUMPDEST PUSH2 0x13FC DUP1 PUSH3 0x182 PUSH1 0x0 CODECOPY PUSH1 0x0 RETURN INVALID PUSH1 0x80 PUSH1 0x40 MSTORE PUSH1 0x4 CALLDATASIZE LT PUSH2 0x91 JUMPI PUSH1 0x0 CALLDATALOAD PUSH1 0xE0 SHR DUP1 PUSH4 0x82FDE093 GT PUSH2 0x59 JUMPI DUP1 PUSH4 0x82FDE093 EQ PUSH2 0x1A5 JUMPI DUP1 PUSH4 0x8A9CFD55 EQ PUSH2 0x1D0 JUMPI DUP1 PUSH4 0x937E09B1 EQ PUSH2 0x1F9 JUMPI DUP1 PUSH4 0xD7BB99BA EQ PUSH2 0x224 JUMPI DUP1 PUSH4 0xD7D1BBDB EQ PUSH2 0x22E JUMPI PUSH2 0x91 JUMP JUMPDEST DUP1 PUSH4 0x3441006 EQ PUSH2 0x96 JUMPI DUP1 PUSH4 0xA144391 EQ PUSH2 0xBF JUMPI DUP1 PUSH4 0x33F449E5 EQ PUSH2 0xFC JUMPI DUP1 PUSH4 0x481C6A75 EQ PUSH2 0x139 JUMPI DUP1 PUSH4 0x81D12C58 EQ PUSH2 0x164 JUMPI JUMPDEST PUSH1 0x0 DUP1 REVERT JUMPDEST CALLVALUE DUP1 ISZERO PUSH2 0xA2 JUMPI PUSH1 0x0 DUP1 REVERT JUMPDEST POP PUSH2 0xBD PUSH1 0x4 DUP1 CALLDATASIZE SUB DUP2 ADD SWAP1 PUSH2 0xB8 SWAP2 SWAP1 PUSH2 0x9AF JUMP JUMPDEST PUSH2 0x257 JUMP JUMPDEST STOP JUMPDEST CALLVALUE DUP1 ISZERO PUSH2 0xCB JUMPI PUSH1 0x0 DUP1 REVERT JUMPDEST POP PUSH2 0xE6 PUSH1 0x4 DUP1 CALLDATASIZE SUB DUP2 ADD SWAP1 PUSH2 0xE1 SWAP2 SWAP1 PUSH2 0xA3A JUMP JUMPDEST PUSH2 0x441 JUMP JUMPDEST PUSH1 0x40 MLOAD PUSH2 0xF3 SWAP2 SWAP1 PUSH2 0xA82 JUMP JUMPDEST PUSH1 0x40 MLOAD DUP1 SWAP2 SUB SWAP1 RETURN JUMPDEST CALLVALUE DUP1 ISZERO PUSH2 0x108 JUMPI PUSH1 0x0 DUP1 REVERT JUMPDEST POP PUSH2 0x123 PUSH1 0x4 DUP1 CALLDATASIZE SUB DUP2 ADD SWAP1 PUSH2 0x11E SWAP2 SWAP1 PUSH2 0xA9D JUMP JUMPDEST PUSH2 0x461 JUMP JUMPDEST PUSH1 0x40 MLOAD PUSH2 0x130 SWAP2 SWAP1 PUSH2 0xA82 JUMP JUMPDEST PUSH1 0x40 MLOAD DUP1 SWAP2 SUB SWAP1 RETURN JUMPDEST CALLVALUE DUP1 ISZERO PUSH2 0x145 JUMPI PUSH1 0x0 DUP1 REVERT JUMPDEST POP PUSH2 0x14E PUSH2 0x490 JUMP JUMPDEST PUSH1 0x40 MLOAD PUSH2 0x15B SWAP2 SWAP1 PUSH2 0xAEC JUMP JUMPDEST PUSH1 0x40 MLOAD DUP1 SWAP2 SUB SWAP1 RETURN JUMPDEST CALLVALUE DUP1 ISZERO PUSH2 0x170 JUMPI PUSH1 0x0 DUP1 REVERT JUMPDEST POP PUSH2 0x18B PUSH1 0x4 DUP1 CALLDATASIZE SUB DUP2 ADD SWAP1 PUSH2 0x186 SWAP2 SWAP1 PUSH2 0x9AF JUMP JUMPDEST PUSH2 0x4B4 JUMP JUMPDEST PUSH1 0x40 MLOAD PUSH2 0x19C SWAP6 SWAP5 SWAP4 SWAP3 SWAP2 SWAP1 PUSH2 0xBC7 JUMP JUMPDEST PUSH1 0x40 MLOAD DUP1 SWAP2 SUB SWAP1 RETURN JUMPDEST CALLVALUE DUP1 ISZERO PUSH2 0x1B1 JUMPI PUSH1 0x0 DUP1 REVERT JUMPDEST POP PUSH2 0x1BA PUSH2 0x5AF JUMP JUMPDEST PUSH1 0x40 MLOAD PUSH2 0x1C7 SWAP2 SWAP1 PUSH2 0xC21 JUMP JUMPDEST PUSH1 0x40 MLOAD DUP1 SWAP2 SUB SWAP1 RETURN JUMPDEST CALLVALUE DUP1 ISZERO PUSH2 0x1DC JUMPI PUSH1 0x0 DUP1 REVERT JUMPDEST POP PUSH2 0x1F7 PUSH1 0x4 DUP1 CALLDATASIZE SUB DUP2 ADD SWAP1 PUSH2 0x1F2 SWAP2 SWAP1 PUSH2 0xD9D JUMP JUMPDEST PUSH2 0x5B5 JUMP JUMPDEST STOP JUMPDEST CALLVALUE DUP1 ISZERO PUSH2 0x205 JUMPI PUSH1 0x0 DUP1 REVERT JUMPDEST POP PUSH2 0x20E PUSH2 0x6F2 JUMP JUMPDEST PUSH1 0x40 MLOAD PUSH2 0x21B SWAP2 SWAP1 PUSH2 0xC21 JUMP JUMPDEST PUSH1 0x40 MLOAD DUP1 SWAP2 SUB SWAP1 RETURN JUMPDEST PUSH2 0x22C PUSH2 0x6F8 JUMP JUMPDEST STOP JUMPDEST CALLVALUE DUP1 ISZERO PUSH2 0x23A JUMPI PUSH1 0x0 DUP1 REVERT JUMPDEST POP PUSH2 0x255 PUSH1 0x4 DUP1 CALLDATASIZE SUB DUP2 ADD SWAP1 PUSH2 0x250 SWAP2 SWAP1 PUSH2 0x9AF JUMP JUMPDEST PUSH2 0x800 JUMP JUMPDEST STOP JUMPDEST PUSH1 0x0 DUP1 SLOAD SWAP1 PUSH2 0x100 EXP SWAP1 DIV PUSH20 0xFFFFFFFFFFFFFFFFFFFFFFFFFFFFFFFFFFFFFFFF AND PUSH20 0xFFFFFFFFFFFFFFFFFFFFFFFFFFFFFFFFFFFFFFFF AND CALLER PUSH20 0xFFFFFFFFFFFFFFFFFFFFFFFFFFFFFFFFFFFFFFFF AND EQ PUSH2 0x2E5 JUMPI PUSH1 0x40 MLOAD PUSH32 0x8C379A000000000000000000000000000000000000000000000000000000000 DUP2 MSTORE PUSH1 0x4 ADD PUSH2 0x2DC SWAP1 PUSH2 0xE58 JUMP JUMPDEST PUSH1 0x40 MLOAD DUP1 SWAP2 SUB SWAP1 REVERT JUMPDEST PUSH1 0x0 PUSH1 0x5 DUP3 DUP2 SLOAD DUP2 LT PUSH2 0x2FB JUMPI PUSH2 0x2FA PUSH2 0xE78 JUMP JUMPDEST JUMPDEST SWAP1 PUSH1 0x0 MSTORE PUSH1 0x20 PUSH1 0x0 KECCAK256 SWAP1 PUSH1 0x4 MUL ADD SWAP1 POP PUSH1 0x2 PUSH1 0x3 SLOAD PUSH2 0x31A SWAP2 SWAP1 PUSH2 0xF05 JUMP JUMPDEST DUP2 PUSH1 0x3 ADD SLOAD GT PUSH2 0x35F JUMPI PUSH1 0x40 MLOAD PUSH32 0x8C379A000000000000000000000000000000000000000000000000000000000 DUP2 MSTORE PUSH1 0x4 ADD PUSH2 0x356 SWAP1 PUSH2 0xF82 JUMP JUMPDEST PUSH1 0x40 MLOAD DUP1 SWAP2 SUB SWAP1 REVERT JUMPDEST DUP1 PUSH1 0x2 ADD PUSH1 0x14 SWAP1 SLOAD SWAP1 PUSH2 0x100 EXP SWAP1 DIV PUSH1 0xFF AND ISZERO PUSH2 0x3B1 JUMPI PUSH1 0x40 MLOAD PUSH32 0x8C379A000000000000000000000000000000000000000000000000000000000 DUP2 MSTORE PUSH1 0x4 ADD PUSH2 0x3A8 SWAP1 PUSH2 0xFEE JUMP JUMPDEST PUSH1 0x40 MLOAD DUP1 SWAP2 SUB SWAP1 REVERT JUMPDEST DUP1 PUSH1 0x2 ADD PUSH1 0x0 SWAP1 SLOAD SWAP1 PUSH2 0x100 EXP SWAP1 DIV PUSH20 0xFFFFFFFFFFFFFFFFFFFFFFFFFFFFFFFFFFFFFFFF AND PUSH20 0xFFFFFFFFFFFFFFFFFFFFFFFFFFFFFFFFFFFFFFFF AND PUSH2 0x8FC DUP3 PUSH1 0x1 ADD SLOAD SWAP1 DUP2 ISZERO MUL SWAP1 PUSH1 0x40 MLOAD PUSH1 0x0 PUSH1 0x40 MLOAD DUP1 DUP4 SUB DUP2 DUP6 DUP9 DUP9 CALL SWAP4 POP POP POP POP ISZERO DUP1 ISZERO PUSH2 0x41F JUMPI RETURNDATASIZE PUSH1 0x0 DUP1 RETURNDATACOPY RETURNDATASIZE PUSH1 0x0 REVERT JUMPDEST POP PUSH1 0x1 DUP2 PUSH1 0x2 ADD PUSH1 0x14 PUSH2 0x100 EXP DUP2 SLOAD DUP2 PUSH1 0xFF MUL NOT AND SWAP1 DUP4 ISZERO ISZERO MUL OR SWAP1 SSTORE POP POP POP JUMP JUMPDEST PUSH1 0x2 PUSH1 0x20 MSTORE DUP1 PUSH1 0x0 MSTORE PUSH1 0x40 PUSH1 0x0 KECCAK256 PUSH1 0x0 SWAP2 POP SLOAD SWAP1 PUSH2 0x100 EXP SWAP1 DIV PUSH1 0xFF AND DUP2 JUMP JUMPDEST PUSH1 0x4 PUSH1 0x20 MSTORE DUP2 PUSH1 0x0 MSTORE PUSH1 0x40 PUSH1 0x0 KECCAK256 PUSH1 0x20 MSTORE DUP1 PUSH1 0x0 MSTORE PUSH1 0x40 PUSH1 0x0 KECCAK256 PUSH1 0x0 SWAP2 POP SWAP2 POP SWAP1 SLOAD SWAP1 PUSH2 0x100 EXP SWAP1 DIV PUSH1 0xFF AND DUP2 JUMP JUMPDEST PUSH1 0x0 DUP1 SLOAD SWAP1 PUSH2 0x100 EXP SWAP1 DIV PUSH20 0xFFFFFFFFFFFFFFFFFFFFFFFFFFFFFFFFFFFFFFFF AND DUP2 JUMP JUMPDEST PUSH1 0x5 DUP2 DUP2 SLOAD DUP2 LT PUSH2 0x4C4 JUMPI PUSH1 0x0 DUP1 REVERT JUMPDEST SWAP1 PUSH1 0x0 MSTORE PUSH1 0x20 PUSH1 0x0 KECCAK256 SWAP1 PUSH1 0x4 MUL ADD PUSH1 0x0 SWAP2 POP SWAP1 POP DUP1 PUSH1 0x0 ADD DUP1 SLOAD PUSH2 0x4E7 SWAP1 PUSH2 0x103D JUMP JUMPDEST DUP1 PUSH1 0x1F ADD PUSH1 0x20 DUP1 SWAP2 DIV MUL PUSH1 0x20 ADD PUSH1 0x40 MLOAD SWAP1 DUP2 ADD PUSH1 0x40 MSTORE DUP1 SWAP3 SWAP2 SWAP1 DUP2 DUP2 MSTORE PUSH1 0x20 ADD DUP3 DUP1 SLOAD PUSH2 0x513 SWAP1 PUSH2 0x103D JUMP JUMPDEST DUP1 ISZERO PUSH2 0x560 JUMPI DUP1 PUSH1 0x1F LT PUSH2 0x535 JUMPI PUSH2 0x100 DUP1 DUP4 SLOAD DIV MUL DUP4 MSTORE SWAP2 PUSH1 0x20 ADD SWAP2 PUSH2 0x560 JUMP JUMPDEST DUP3 ADD SWAP2 SWAP1 PUSH1 0x0 MSTORE PUSH1 0x20 PUSH1 0x0 KECCAK256 SWAP1 JUMPDEST DUP2 SLOAD DUP2 MSTORE SWAP1 PUSH1 0x1 ADD SWAP1 PUSH1 0x20 ADD DUP1 DUP4 GT PUSH2 0x543 JUMPI DUP3 SWAP1 SUB PUSH1 0x1F AND DUP3 ADD SWAP2 JUMPDEST POP POP POP POP POP SWAP1 DUP1 PUSH1 0x1 ADD SLOAD SWAP1 DUP1 PUSH1 0x2 ADD PUSH1 0x0 SWAP1 SLOAD SWAP1 PUSH2 0x100 EXP SWAP1 DIV PUSH20 0xFFFFFFFFFFFFFFFFFFFFFFFFFFFFFFFFFFFFFFFF AND SWAP1 DUP1 PUSH1 0x2 ADD PUSH1 0x14 SWAP1 SLOAD SWAP1 PUSH2 0x100 EXP SWAP1 DIV PUSH1 0xFF AND SWAP1 DUP1 PUSH1 0x3 ADD SLOAD SWAP1 POP DUP6 JUMP JUMPDEST PUSH1 0x3 SLOAD DUP2 JUMP JUMPDEST PUSH1 0x0 DUP1 SLOAD SWAP1 PUSH2 0x100 EXP SWAP1 DIV PUSH20 0xFFFFFFFFFFFFFFFFFFFFFFFFFFFFFFFFFFFFFFFF AND PUSH20 0xFFFFFFFFFFFFFFFFFFFFFFFFFFFFFFFFFFFFFFFF AND CALLER PUSH20 0xFFFFFFFFFFFFFFFFFFFFFFFFFFFFFFFFFFFFFFFF AND EQ PUSH2 0x643 JUMPI PUSH1 0x40 MLOAD PUSH32 0x8C379A000000000000000000000000000000000000000000000000000000000 DUP2 MSTORE PUSH1 0x4 ADD PUSH2 0x63A SWAP1 PUSH2 0xE58 JUMP JUMPDEST PUSH1 0x40 MLOAD DUP1 SWAP2 SUB SWAP1 REVERT JUMPDEST PUSH1 0x0 PUSH1 0x5 PUSH1 0x1 DUP2 PUSH1 0x1 DUP2 SLOAD ADD DUP1 DUP3 SSTORE DUP1 SWAP2 POP POP SUB SWAP1 PUSH1 0x0 MSTORE PUSH1 0x20 PUSH1 0x0 KECCAK256 SWAP1 PUSH1 0x4 MUL ADD SWAP1 POP DUP4 DUP2 PUSH1 0x0 ADD SWAP1 DUP2 PUSH2 0x678 SWAP2 SWAP1 PUSH2 0x121A JUMP JUMPDEST POP DUP3 DUP2 PUSH1 0x1 ADD DUP2 SWAP1 SSTORE POP DUP2 DUP2 PUSH1 0x2 ADD PUSH1 0x0 PUSH2 0x100 EXP DUP2 SLOAD DUP2 PUSH20 0xFFFFFFFFFFFFFFFFFFFFFFFFFFFFFFFFFFFFFFFF MUL NOT AND SWAP1 DUP4 PUSH20 0xFFFFFFFFFFFFFFFFFFFFFFFFFFFFFFFFFFFFFFFF AND MUL OR SWAP1 SSTORE POP PUSH1 0x0 DUP2 PUSH1 0x2 ADD PUSH1 0x14 PUSH2 0x100 EXP DUP2 SLOAD DUP2 PUSH1 0xFF MUL NOT AND SWAP1 DUP4 ISZERO ISZERO MUL OR SWAP1 SSTORE POP PUSH1 0x0 DUP2 PUSH1 0x3 ADD DUP2 SWAP1 SSTORE POP POP POP POP POP JUMP JUMPDEST PUSH1 0x1 SLOAD DUP2 JUMP JUMPDEST PUSH1 0x1 SLOAD CALLVALUE GT PUSH2 0x73C JUMPI PUSH1 0x40 MLOAD PUSH32 0x8C379A000000000000000000000000000000000000000000000000000000000 DUP2 MSTORE PUSH1 0x4 ADD PUSH2 0x733 SWAP1 PUSH2 0x135E JUMP JUMPDEST PUSH1 0x40 MLOAD DUP1 SWAP2 SUB SWAP1 REVERT JUMPDEST PUSH1 0x2 PUSH1 0x0 CALLER PUSH20 0xFFFFFFFFFFFFFFFFFFFFFFFFFFFFFFFFFFFFFFFF AND PUSH20 0xFFFFFFFFFFFFFFFFFFFFFFFFFFFFFFFFFFFFFFFF AND DUP2 MSTORE PUSH1 0x20 ADD SWAP1 DUP2 MSTORE PUSH1 0x20 ADD PUSH1 0x0 KECCAK256 PUSH1 0x0 SWAP1 SLOAD SWAP1 PUSH2 0x100 EXP SWAP1 DIV PUSH1 0xFF AND PUSH2 0x7FE JUMPI PUSH1 0x1 PUSH1 0x2 PUSH1 0x0 CALLER PUSH20 0xFFFFFFFFFFFFFFFFFFFFFFFFFFFFFFFFFFFFFFFF AND PUSH20 0xFFFFFFFFFFFFFFFFFFFFFFFFFFFFFFFFFFFFFFFF AND DUP2 MSTORE PUSH1 0x20 ADD SWAP1 DUP2 MSTORE PUSH1 0x20 ADD PUSH1 0x0 KECCAK256 PUSH1 0x0 PUSH2 0x100 EXP DUP2 SLOAD DUP2 PUSH1 0xFF MUL NOT AND SWAP1 DUP4 ISZERO ISZERO MUL OR SWAP1 SSTORE POP PUSH1 0x3 PUSH1 0x0 DUP2 SLOAD DUP1 SWAP3 SWAP2 SWAP1 PUSH2 0x7F8 SWAP1 PUSH2 0x137E JUMP JUMPDEST SWAP2 SWAP1 POP SSTORE POP JUMPDEST JUMP JUMPDEST PUSH1 0x2 PUSH1 0x0 CALLER PUSH20 0xFFFFFFFFFFFFFFFFFFFFFFFFFFFFFFFFFFFFFFFF AND PUSH20 0xFFFFFFFFFFFFFFFFFFFFFFFFFFFFFFFFFFFFFFFF AND DUP2 MSTORE PUSH1 0x20 ADD SWAP1 DUP2 MSTORE PUSH1 0x20 ADD PUSH1 0x0 KECCAK256 PUSH1 0x0 SWAP1 SLOAD SWAP1 PUSH2 0x100 EXP SWAP1 DIV PUSH1 0xFF AND PUSH2 0x856 JUMPI PUSH1 0x0 DUP1 REVERT JUMPDEST PUSH1 0x4 PUSH1 0x0 DUP3 DUP2 MSTORE PUSH1 0x20 ADD SWAP1 DUP2 MSTORE PUSH1 0x20 ADD PUSH1 0x0 KECCAK256 PUSH1 0x0 CALLER PUSH20 0xFFFFFFFFFFFFFFFFFFFFFFFFFFFFFFFFFFFFFFFF AND PUSH20 0xFFFFFFFFFFFFFFFFFFFFFFFFFFFFFFFFFFFFFFFF AND DUP2 MSTORE PUSH1 0x20 ADD SWAP1 DUP2 MSTORE PUSH1 0x20 ADD PUSH1 0x0 KECCAK256 PUSH1 0x0 SWAP1 SLOAD SWAP1 PUSH2 0x100 EXP SWAP1 DIV PUSH1 0xFF AND ISZERO PUSH2 0x8BE JUMPI PUSH1 0x0 DUP1 REVERT JUMPDEST PUSH1 0x1 PUSH1 0x4 PUSH1 0x0 DUP4 DUP2 MSTORE PUSH1 0x20 ADD SWAP1 DUP2 MSTORE PUSH1 0x20 ADD PUSH1 0x0 KECCAK256 PUSH1 0x0 CALLER PUSH20 0xFFFFFFFFFFFFFFFFFFFFFFFFFFFFFFFFFFFFFFFF AND PUSH20 0xFFFFFFFFFFFFFFFFFFFFFFFFFFFFFFFFFFFFFFFF AND DUP2 MSTORE PUSH1 0x20 ADD SWAP1 DUP2 MSTORE PUSH1 0x20 ADD PUSH1 0x0 KECCAK256 PUSH1 0x0 PUSH2 0x100 EXP DUP2 SLOAD DUP2 PUSH1 0xFF MUL NOT AND SWAP1 DUP4 ISZERO ISZERO MUL OR SWAP1 SSTORE POP PUSH1 0x5 DUP2 DUP2 SLOAD DUP2 LT PUSH2 0x93B JUMPI PUSH2 0x93A PUSH2 0xE78 JUMP JUMPDEST JUMPDEST SWAP1 PUSH1 0x0 MSTORE PUSH1 0x20 PUSH1 0x0 KECCAK256 SWAP1 PUSH1 0x4 MUL ADD PUSH1 0x3 ADD PUSH1 0x0 DUP2 SLOAD DUP1 SWAP3 SWAP2 SWAP1 PUSH2 0x95D SWAP1 PUSH2 0x137E JUMP JUMPDEST SWAP2 SWAP1 POP SSTORE POP POP JUMP JUMPDEST PUSH1 0x0 PUSH1 0x40 MLOAD SWAP1 POP SWAP1 JUMP JUMPDEST PUSH1 0x0 DUP1 REVERT JUMPDEST PUSH1 0x0 DUP1 REVERT JUMPDEST PUSH1 0x0 DUP2 SWAP1 POP SWAP2 SWAP1 POP JUMP JUMPDEST PUSH2 0x98C DUP2 PUSH2 0x979 JUMP JUMPDEST DUP2 EQ PUSH2 0x997 JUMPI PUSH1 0x0 DUP1 REVERT JUMPDEST POP JUMP JUMPDEST PUSH1 0x0 DUP2 CALLDATALOAD SWAP1 POP PUSH2 0x9A9 DUP2 PUSH2 0x983 JUMP JUMPDEST SWAP3 SWAP2 POP POP JUMP JUMPDEST PUSH1 0x0 PUSH1 0x20 DUP3 DUP5 SUB SLT ISZERO PUSH2 0x9C5 JUMPI PUSH2 0x9C4 PUSH2 0x96F JUMP JUMPDEST JUMPDEST PUSH1 0x0 PUSH2 0x9D3 DUP5 DUP3 DUP6 ADD PUSH2 0x99A JUMP JUMPDEST SWAP2 POP POP SWAP3 SWAP2 POP POP JUMP JUMPDEST PUSH1 0x0 PUSH20 0xFFFFFFFFFFFFFFFFFFFFFFFFFFFFFFFFFFFFFFFF DUP3 AND SWAP1 POP SWAP2 SWAP1 POP JUMP JUMPDEST PUSH1 0x0 PUSH2 0xA07 DUP3 PUSH2 0x9DC JUMP JUMPDEST SWAP1 POP SWAP2 SWAP1 POP JUMP JUMPDEST PUSH2 0xA17 DUP2 PUSH2 0x9FC JUMP JUMPDEST DUP2 EQ PUSH2 0xA22 JUMPI PUSH1 0x0 DUP1 REVERT JUMPDEST POP JUMP JUMPDEST PUSH1 0x0 DUP2 CALLDATALOAD SWAP1 POP PUSH2 0xA34 DUP2 PUSH2 0xA0E JUMP JUMPDEST SWAP3 SWAP2 POP POP JUMP JUMPDEST PUSH1 0x0 PUSH1 0x20 DUP3 DUP5 SUB SLT ISZERO PUSH2 0xA50 JUMPI PUSH2 0xA4F PUSH2 0x96F JUMP JUMPDEST JUMPDEST PUSH1 0x0 PUSH2 0xA5E DUP5 DUP3 DUP6 ADD PUSH2 0xA25 JUMP JUMPDEST SWAP2 POP POP SWAP3 SWAP2 POP POP JUMP JUMPDEST PUSH1 0x0 DUP2 ISZERO ISZERO SWAP1 POP SWAP2 SWAP1 POP JUMP JUMPDEST PUSH2 0xA7C DUP2 PUSH2 0xA67 JUMP JUMPDEST DUP3 MSTORE POP POP JUMP JUMPDEST PUSH1 0x0 PUSH1 0x20 DUP3 ADD SWAP1 POP PUSH2 0xA97 PUSH1 0x0 DUP4 ADD DUP5 PUSH2 0xA73 JUMP JUMPDEST SWAP3 SWAP2 POP POP JUMP JUMPDEST PUSH1 0x0 DUP1 PUSH1 0x40 DUP4 DUP6 SUB SLT ISZERO PUSH2 0xAB4 JUMPI PUSH2 0xAB3 PUSH2 0x96F JUMP JUMPDEST JUMPDEST PUSH1 0x0 PUSH2 0xAC2 DUP6 DUP3 DUP7 ADD PUSH2 0x99A JUMP JUMPDEST SWAP3 POP POP PUSH1 0x20 PUSH2 0xAD3 DUP6 DUP3 DUP7 ADD PUSH2 0xA25 JUMP JUMPDEST SWAP2 POP POP SWAP3 POP SWAP3 SWAP1 POP JUMP JUMPDEST PUSH2 0xAE6 DUP2 PUSH2 0x9FC JUMP JUMPDEST DUP3 MSTORE POP POP JUMP JUMPDEST PUSH1 0x0 PUSH1 0x20 DUP3 ADD SWAP1 POP PUSH2 0xB01 PUSH1 0x0 DUP4 ADD DUP5 PUSH2 0xADD JUMP JUMPDEST SWAP3 SWAP2 POP POP JUMP JUMPDEST PUSH1 0x0 DUP2 MLOAD SWAP1 POP SWAP2 SWAP1 POP JUMP JUMPDEST PUSH1 0x0 DUP3 DUP3 MSTORE PUSH1 0x20 DUP3 ADD SWAP1 POP SWAP3 SWAP2 POP POP JUMP JUMPDEST PUSH1 0x0 JUMPDEST DUP4 DUP2 LT ISZERO PUSH2 0xB41 JUMPI DUP1 DUP3 ADD MLOAD DUP2 DUP5 ADD MSTORE PUSH1 0x20 DUP2 ADD SWAP1 POP PUSH2 0xB26 JUMP JUMPDEST PUSH1 0x0 DUP5 DUP5 ADD MSTORE POP POP POP POP JUMP JUMPDEST PUSH1 0x0 PUSH1 0x1F NOT PUSH1 0x1F DUP4 ADD AND SWAP1 POP SWAP2 SWAP1 POP JUMP JUMPDEST PUSH1 0x0 PUSH2 0xB69 DUP3 PUSH2 0xB07 JUMP JUMPDEST PUSH2 0xB73 DUP2 DUP6 PUSH2 0xB12 JUMP JUMPDEST SWAP4 POP PUSH2 0xB83 DUP2 DUP6 PUSH1 0x20 DUP7 ADD PUSH2 0xB23 JUMP JUMPDEST PUSH2 0xB8C DUP2 PUSH2 0xB4D JUMP JUMPDEST DUP5 ADD SWAP2 POP POP SWAP3 SWAP2 POP POP JUMP JUMPDEST PUSH2 0xBA0 DUP2 PUSH2 0x979 JUMP JUMPDEST DUP3 MSTORE POP POP JUMP JUMPDEST PUSH1 0x0 PUSH2 0xBB1 DUP3 PUSH2 0x9DC JUMP JUMPDEST SWAP1 POP SWAP2 SWAP1 POP JUMP JUMPDEST PUSH2 0xBC1 DUP2 PUSH2 0xBA6 JUMP JUMPDEST DUP3 MSTORE POP POP JUMP JUMPDEST PUSH1 0x0 PUSH1 0xA0 DUP3 ADD SWAP1 POP DUP2 DUP2 SUB PUSH1 0x0 DUP4 ADD MSTORE PUSH2 0xBE1 DUP2 DUP9 PUSH2 0xB5E JUMP JUMPDEST SWAP1 POP PUSH2 0xBF0 PUSH1 0x20 DUP4 ADD DUP8 PUSH2 0xB97 JUMP JUMPDEST PUSH2 0xBFD PUSH1 0x40 DUP4 ADD DUP7 PUSH2 0xBB8 JUMP JUMPDEST PUSH2 0xC0A PUSH1 0x60 DUP4 ADD DUP6 PUSH2 0xA73 JUMP JUMPDEST PUSH2 0xC17 PUSH1 0x80 DUP4 ADD DUP5 PUSH2 0xB97 JUMP JUMPDEST SWAP7 SWAP6 POP POP POP POP POP POP JUMP JUMPDEST PUSH1 0x0 PUSH1 0x20 DUP3 ADD SWAP1 POP PUSH2 0xC36 PUSH1 0x0 DUP4 ADD DUP5 PUSH2 0xB97 JUMP JUMPDEST SWAP3 SWAP2 POP POP JUMP JUMPDEST PUSH1 0x0 DUP1 REVERT JUMPDEST PUSH1 0x0 DUP1 REVERT JUMPDEST PUSH32 0x4E487B7100000000000000000000000000000000000000000000000000000000 PUSH1 0x0 MSTORE PUSH1 0x41 PUSH1 0x4 MSTORE PUSH1 0x24 PUSH1 0x0 REVERT JUMPDEST PUSH2 0xC7E DUP3 PUSH2 0xB4D JUMP JUMPDEST DUP2 ADD DUP2 DUP2 LT PUSH8 0xFFFFFFFFFFFFFFFF DUP3 GT OR ISZERO PUSH2 0xC9D JUMPI PUSH2 0xC9C PUSH2 0xC46 JUMP JUMPDEST JUMPDEST DUP1 PUSH1 0x40 MSTORE POP POP POP JUMP JUMPDEST PUSH1 0x0 PUSH2 0xCB0 PUSH2 0x965 JUMP JUMPDEST SWAP1 POP PUSH2 0xCBC DUP3 DUP3 PUSH2 0xC75 JUMP JUMPDEST SWAP2 SWAP1 POP JUMP JUMPDEST PUSH1 0x0 PUSH8 0xFFFFFFFFFFFFFFFF DUP3 GT ISZERO PUSH2 0xCDC JUMPI PUSH2 0xCDB PUSH2 0xC46 JUMP JUMPDEST JUMPDEST PUSH2 0xCE5 DUP3 PUSH2 0xB4D JUMP JUMPDEST SWAP1 POP PUSH1 0x20 DUP2 ADD SWAP1 POP SWAP2 SWAP1 POP JUMP JUMPDEST DUP3 DUP2 DUP4 CALLDATACOPY PUSH1 0x0 DUP4 DUP4 ADD MSTORE POP POP POP JUMP JUMPDEST PUSH1 0x0 PUSH2 0xD14 PUSH2 0xD0F DUP5 PUSH2 0xCC1 JUMP JUMPDEST PUSH2 0xCA6 JUMP JUMPDEST SWAP1 POP DUP3 DUP2 MSTORE PUSH1 0x20 DUP2 ADD DUP5 DUP5 DUP5 ADD GT ISZERO PUSH2 0xD30 JUMPI PUSH2 0xD2F PUSH2 0xC41 JUMP JUMPDEST JUMPDEST PUSH2 0xD3B DUP5 DUP3 DUP6 PUSH2 0xCF2 JUMP JUMPDEST POP SWAP4 SWAP3 POP POP POP JUMP JUMPDEST PUSH1 0x0 DUP3 PUSH1 0x1F DUP4 ADD SLT PUSH2 0xD58 JUMPI PUSH2 0xD57 PUSH2 0xC3C JUMP JUMPDEST JUMPDEST DUP2 CALLDATALOAD PUSH2 0xD68 DUP5 DUP3 PUSH1 0x20 DUP7 ADD PUSH2 0xD01 JUMP JUMPDEST SWAP2 POP POP SWAP3 SWAP2 POP POP JUMP JUMPDEST PUSH2 0xD7A DUP2 PUSH2 0xBA6 JUMP JUMPDEST DUP2 EQ PUSH2 0xD85 JUMPI PUSH1 0x0 DUP1 REVERT JUMPDEST POP JUMP JUMPDEST PUSH1 0x0 DUP2 CALLDATALOAD SWAP1 POP PUSH2 0xD97 DUP2 PUSH2 0xD71 JUMP JUMPDEST SWAP3 SWAP2 POP POP JUMP JUMPDEST PUSH1 0x0 DUP1 PUSH1 0x0 PUSH1 0x60 DUP5 DUP7 SUB SLT ISZERO PUSH2 0xDB6 JUMPI PUSH2 0xDB5 PUSH2 0x96F JUMP JUMPDEST JUMPDEST PUSH1 0x0 DUP5 ADD CALLDATALOAD PUSH8 0xFFFFFFFFFFFFFFFF DUP2 GT ISZERO PUSH2 0xDD4 JUMPI PUSH2 0xDD3 PUSH2 0x974 JUMP JUMPDEST JUMPDEST PUSH2 0xDE0 DUP7 DUP3 DUP8 ADD PUSH2 0xD43 JUMP JUMPDEST SWAP4 POP POP PUSH1 0x20 PUSH2 0xDF1 DUP7 DUP3 DUP8 ADD PUSH2 0x99A JUMP JUMPDEST SWAP3 POP POP PUSH1 0x40 PUSH2 0xE02 DUP7 DUP3 DUP8 ADD PUSH2 0xD88 JUMP JUMPDEST SWAP2 POP POP SWAP3 POP SWAP3 POP SWAP3 JUMP JUMPDEST PUSH32 0x43616C6C6572206973206E6F7420746865206D616E6167657200000000000000 PUSH1 0x0 DUP3 ADD MSTORE POP JUMP JUMPDEST PUSH1 0x0 PUSH2 0xE42 PUSH1 0x19 DUP4 PUSH2 0xB12 JUMP JUMPDEST SWAP2 POP PUSH2 0xE4D DUP3 PUSH2 0xE0C JUMP JUMPDEST PUSH1 0x20 DUP3 ADD SWAP1 POP SWAP2 SWAP1 POP JUMP JUMPDEST PUSH1 0x0 PUSH1 0x20 DUP3 ADD SWAP1 POP DUP2 DUP2 SUB PUSH1 0x0 DUP4 ADD MSTORE PUSH2 0xE71 DUP2 PUSH2 0xE35 JUMP JUMPDEST SWAP1 POP SWAP2 SWAP1 POP JUMP JUMPDEST PUSH32 0x4E487B7100000000000000000000000000000000000000000000000000000000 PUSH1 0x0 MSTORE PUSH1 0x32 PUSH1 0x4 MSTORE PUSH1 0x24 PUSH1 0x0 REVERT JUMPDEST PUSH32 0x4E487B7100000000000000000000000000000000000000000000000000000000 PUSH1 0x0 MSTORE PUSH1 0x12 PUSH1 0x4 MSTORE PUSH1 0x24 PUSH1 0x0 REVERT JUMPDEST PUSH32 0x4E487B7100000000000000000000000000000000000000000000000000000000 PUSH1 0x0 MSTORE PUSH1 0x11 PUSH1 0x4 MSTORE PUSH1 0x24 PUSH1 0x0 REVERT JUMPDEST PUSH1 0x0 PUSH2 0xF10 DUP3 PUSH2 0x979 JUMP JUMPDEST SWAP2 POP PUSH2 0xF1B DUP4 PUSH2 0x979 JUMP JUMPDEST SWAP3 POP DUP3 PUSH2 0xF2B JUMPI PUSH2 0xF2A PUSH2 0xEA7 JUMP JUMPDEST JUMPDEST DUP3 DUP3 DIV SWAP1 POP SWAP3 SWAP2 POP POP JUMP JUMPDEST PUSH32 0x4E6F7420656E6F75676820617070726F76616C73000000000000000000000000 PUSH1 0x0 DUP3 ADD MSTORE POP JUMP JUMPDEST PUSH1 0x0 PUSH2 0xF6C PUSH1 0x14 DUP4 PUSH2 0xB12 JUMP JUMPDEST SWAP2 POP PUSH2 0xF77 DUP3 PUSH2 0xF36 JUMP JUMPDEST PUSH1 0x20 DUP3 ADD SWAP1 POP SWAP2 SWAP1 POP JUMP JUMPDEST PUSH1 0x0 PUSH1 0x20 DUP3 ADD SWAP1 POP DUP2 DUP2 SUB PUSH1 0x0 DUP4 ADD MSTORE PUSH2 0xF9B DUP2 PUSH2 0xF5F JUMP JUMPDEST SWAP1 POP SWAP2 SWAP1 POP JUMP JUMPDEST PUSH32 0x5265717565737420616C72656164792066696E616C697A656400000000000000 PUSH1 0x0 DUP3 ADD MSTORE POP JUMP JUMPDEST PUSH1 0x0 PUSH2 0xFD8 PUSH1 0x19 DUP4 PUSH2 0xB12 JUMP JUMPDEST SWAP2 POP PUSH2 0xFE3 DUP3 PUSH2 0xFA2 JUMP JUMPDEST PUSH1 0x20 DUP3 ADD SWAP1 POP SWAP2 SWAP1 POP JUMP JUMPDEST PUSH1 0x0 PUSH1 0x20 DUP3 ADD SWAP1 POP DUP2 DUP2 SUB PUSH1 0x0 DUP4 ADD MSTORE PUSH2 0x1007 DUP2 PUSH2 0xFCB JUMP JUMPDEST SWAP1 POP SWAP2 SWAP1 POP JUMP JUMPDEST PUSH32 0x4E487B7100000000000000000000000000000000000000000000000000000000 PUSH1 0x0 MSTORE PUSH1 0x22 PUSH1 0x4 MSTORE PUSH1 0x24 PUSH1 0x0 REVERT JUMPDEST PUSH1 0x0 PUSH1 0x2 DUP3 DIV SWAP1 POP PUSH1 0x1 DUP3 AND DUP1 PUSH2 0x1055 JUMPI PUSH1 0x7F DUP3 AND SWAP2 POP JUMPDEST PUSH1 0x20 DUP3 LT DUP2 SUB PUSH2 0x1068 JUMPI PUSH2 0x1067 PUSH2 0x100E JUMP JUMPDEST JUMPDEST POP SWAP2 SWAP1 POP JUMP JUMPDEST PUSH1 0x0 DUP2 SWAP1 POP DUP2 PUSH1 0x0 MSTORE PUSH1 0x20 PUSH1 0x0 KECCAK256 SWAP1 POP SWAP2 SWAP1 POP JUMP JUMPDEST PUSH1 0x0 PUSH1 0x20 PUSH1 0x1F DUP4 ADD DIV SWAP1 POP SWAP2 SWAP1 POP JUMP JUMPDEST PUSH1 0x0 DUP3 DUP3 SHL SWAP1 POP SWAP3 SWAP2 POP POP JUMP JUMPDEST PUSH1 0x0 PUSH1 0x8 DUP4 MUL PUSH2 0x10D0 PUSH32 0xFFFFFFFFFFFFFFFFFFFFFFFFFFFFFFFFFFFFFFFFFFFFFFFFFFFFFFFFFFFFFFFF DUP3 PUSH2 0x1093 JUMP JUMPDEST PUSH2 0x10DA DUP7 DUP4 PUSH2 0x1093 JUMP JUMPDEST SWAP6 POP DUP1 NOT DUP5 AND SWAP4 POP DUP1 DUP7 AND DUP5 OR SWAP3 POP POP POP SWAP4 SWAP3 POP POP POP JUMP JUMPDEST PUSH1 0x0 DUP2 SWAP1 POP SWAP2 SWAP1 POP JUMP JUMPDEST PUSH1 0x0 PUSH2 0x1117 PUSH2 0x1112 PUSH2 0x110D DUP5 PUSH2 0x979 JUMP JUMPDEST PUSH2 0x10F2 JUMP JUMPDEST PUSH2 0x979 JUMP JUMPDEST SWAP1 POP SWAP2 SWAP1 POP JUMP JUMPDEST PUSH1 0x0 DUP2 SWAP1 POP SWAP2 SWAP1 POP JUMP JUMPDEST PUSH2 0x1131 DUP4 PUSH2 0x10FC JUMP JUMPDEST PUSH2 0x1145 PUSH2 0x113D DUP3 PUSH2 0x111E JUMP JUMPDEST DUP5 DUP5 SLOAD PUSH2 0x10A0 JUMP JUMPDEST DUP3 SSTORE POP POP POP POP JUMP JUMPDEST PUSH1 0x0 SWAP1 JUMP JUMPDEST PUSH2 0x115A PUSH2 0x114D JUMP JUMPDEST PUSH2 0x1165 DUP2 DUP5 DUP5 PUSH2 0x1128 JUMP JUMPDEST POP POP POP JUMP JUMPDEST JUMPDEST DUP2 DUP2 LT ISZERO PUSH2 0x1189 JUMPI PUSH2 0x117E PUSH1 0x0 DUP3 PUSH2 0x1152 JUMP JUMPDEST PUSH1 0x1 DUP2 ADD SWAP1 POP PUSH2 0x116B JUMP JUMPDEST POP POP JUMP JUMPDEST PUSH1 0x1F DUP3 GT ISZERO PUSH2 0x11CE JUMPI PUSH2 0x119F DUP2 PUSH2 0x106E JUMP JUMPDEST PUSH2 0x11A8 DUP5 PUSH2 0x1083 JUMP JUMPDEST DUP2 ADD PUSH1 0x20 DUP6 LT ISZERO PUSH2 0x11B7 JUMPI DUP2 SWAP1 POP JUMPDEST PUSH2 0x11CB PUSH2 0x11C3 DUP6 PUSH2 0x1083 JUMP JUMPDEST DUP4 ADD DUP3 PUSH2 0x116A JUMP JUMPDEST POP POP JUMPDEST POP POP POP JUMP JUMPDEST PUSH1 0x0 DUP3 DUP3 SHR SWAP1 POP SWAP3 SWAP2 POP POP JUMP JUMPDEST PUSH1 0x0 PUSH2 0x11F1 PUSH1 0x0 NOT DUP5 PUSH1 0x8 MUL PUSH2 0x11D3 JUMP JUMPDEST NOT DUP1 DUP4 AND SWAP2 POP POP SWAP3 SWAP2 POP POP JUMP JUMPDEST PUSH1 0x0 PUSH2 0x120A DUP4 DUP4 PUSH2 0x11E0 JUMP JUMPDEST SWAP2 POP DUP3 PUSH1 0x2 MUL DUP3 OR SWAP1 POP SWAP3 SWAP2 POP POP JUMP JUMPDEST PUSH2 0x1223 DUP3 PUSH2 0xB07 JUMP JUMPDEST PUSH8 0xFFFFFFFFFFFFFFFF DUP2 GT ISZERO PUSH2 0x123C JUMPI PUSH2 0x123B PUSH2 0xC46 JUMP JUMPDEST JUMPDEST PUSH2 0x1246 DUP3 SLOAD PUSH2 0x103D JUMP JUMPDEST PUSH2 0x1251 DUP3 DUP3 DUP6 PUSH2 0x118D JUMP JUMPDEST PUSH1 0x0 PUSH1 0x20 SWAP1 POP PUSH1 0x1F DUP4 GT PUSH1 0x1 DUP2 EQ PUSH2 0x1284 JUMPI PUSH1 0x0 DUP5 ISZERO PUSH2 0x1272 JUMPI DUP3 DUP8 ADD MLOAD SWAP1 POP JUMPDEST PUSH2 0x127C DUP6 DUP3 PUSH2 0x11FE JUMP JUMPDEST DUP7 SSTORE POP PUSH2 0x12E4 JUMP JUMPDEST PUSH1 0x1F NOT DUP5 AND PUSH2 0x1292 DUP7 PUSH2 0x106E JUMP JUMPDEST PUSH1 0x0 JUMPDEST DUP3 DUP2 LT ISZERO PUSH2 0x12BA JUMPI DUP5 DUP10 ADD MLOAD DUP3 SSTORE PUSH1 0x1 DUP3 ADD SWAP2 POP PUSH1 0x20 DUP6 ADD SWAP5 POP PUSH1 0x20 DUP2 ADD SWAP1 POP PUSH2 0x1295 JUMP JUMPDEST DUP7 DUP4 LT ISZERO PUSH2 0x12D7 JUMPI DUP5 DUP10 ADD MLOAD PUSH2 0x12D3 PUSH1 0x1F DUP10 AND DUP3 PUSH2 0x11E0 JUMP JUMPDEST DUP4 SSTORE POP JUMPDEST PUSH1 0x1 PUSH1 0x2 DUP9 MUL ADD DUP9 SSTORE POP POP POP JUMPDEST POP POP POP POP POP POP JUMP JUMPDEST PUSH32 0x4D696E696D756D20636F6E747269627574696F6E206973206E6F74206D617463 PUSH1 0x0 DUP3 ADD MSTORE PUSH32 0x6865640000000000000000000000000000000000000000000000000000000000 PUSH1 0x20 DUP3 ADD MSTORE POP JUMP JUMPDEST PUSH1 0x0 PUSH2 0x1348 PUSH1 0x23 DUP4 PUSH2 0xB12 JUMP JUMPDEST SWAP2 POP PUSH2 0x1353 DUP3 PUSH2 0x12EC JUMP JUMPDEST PUSH1 0x40 DUP3 ADD SWAP1 POP SWAP2 SWAP1 POP JUMP JUMPDEST PUSH1 0x0 PUSH1 0x20 DUP3 ADD SWAP1 POP DUP2 DUP2 SUB PUSH1 0x0 DUP4 ADD MSTORE PUSH2 0x1377 DUP2 PUSH2 0x133B JUMP JUMPDEST SWAP1 POP SWAP2 SWAP1 POP JUMP JUMPDEST PUSH1 0x0 PUSH2 0x1389 DUP3 PUSH2 0x979 JUMP JUMPDEST SWAP2 POP PUSH32 0xFFFFFFFFFFFFFFFFFFFFFFFFFFFFFFFFFFFFFFFFFFFFFFFFFFFFFFFFFFFFFFFF DUP3 SUB PUSH2 0x13BB JUMPI PUSH2 0x13BA PUSH2 0xED6 JUMP JUMPDEST JUMPDEST PUSH1 0x1 DUP3 ADD SWAP1 POP SWAP2 SWAP1 POP JUMP INVALID LOG2 PUSH5 0x6970667358 0x22 SLT KECCAK256 DUP6 SWAP4 0xE 0xB3 0xD 0xE1 0xCC 0x5F SWAP14 0xA9 JUMPI EXTCODESIZE 0xAD SWAP5 LT 0xB0 ADD 0x2C SWAP4 BALANCE 0xAB SUB STOP LOG1 MSTORE8 0xFB 0x4D SHR ADDRESS 0x21 MUL LOG1 PUSH5 0x736F6C6343 STOP ADDMOD SGT STOP CALLER "},"gasEstimates":{"creation":{"codeDepositCost":"1023200","executionCost":"infinite","totalCost":"infinite"},"external":{"approveRequest(uint256)":"infinite","approvedAddresses(uint256,address)":"3132","approvers(address)":"2868","approversCount()":"2429","contribute()":"53263","createRequest(string,uint256,address)":"infinite","finalizeRequest(uint256)":"infinite","manager()":"2578","minimumContribution()":"2473","requests(uint256)":"infinite"}},"methodIdentifiers":{"approveRequest(uint256)":"d7d1bbdb","approvedAddresses(uint256,address)":"33f449e5","approvers(address)":"0a144391","approversCount()":"82fde093","contribute()":"d7bb99ba","createRequest(string,uint256,address)":"8a9cfd55","finalizeRequest(uint256)":"03441006","manager()":"481c6a75","minimumContribution()":"937e09b1","requests(uint256)":"81d12c58"}},"storageLayout":{"storage":[{"astId":52,"contract":"Campaign.sol:Campaign","label":"manager","offset":0,"slot":"0","type":"t_address"},{"astId":54,"contract":"Campaign.sol:Campaign","label":"minimumContribution","offset":0,"slot":"1","type":"t_uint256"},{"astId":58,"contract":"Campaign.sol:Campaign","label":"approvers","offset":0,"slot":"2","type":"t_mapping(t_address,t_bool)"},{"astId":60,"contract":"Campaign.sol:Campaign","label":"approversCount","offset":0,"slot":"3","type":"t_uint256"},{"astId":66,"contract":"Campaign.sol:Campaign","label":"approvedAddresses","offset":0,"slot":"4","type":"t_mapping(t_uint256,t_mapping(t_address,t_bool))"},{"astId":70,"contract":"Campaign.sol:Campaign","label":"requests","offset":0,"slot":"5","type":"t_array(t_struct(Request)50_storage)dyn_storage"}],"types":{"t_address":{"encoding":"inplace","label":"address","numberOfBytes":"20"},"t_address_payable":{"encoding":"inplace","label":"address payable","numberOfBytes":"20"},"t_array(t_struct(Request)50_storage)dyn_storage":{"base":"t_struct(Request)50_storage","encoding":"dynamic_array","label":"struct Campaign.Request[]","numberOfBytes":"32"},"t_bool":{"encoding":"inplace","label":"bool","numberOfBytes":"1"},"t_mapping(t_address,t_bool)":{"encoding":"mapping","key":"t_address","label":"mapping(address => bool)","numberOfBytes":"32","value":"t_bool"},"t_mapping(t_uint256,t_mapping(t_address,t_bool))":{"encoding":"mapping","key":"t_uint256","label":"mapping(uint256 => mapping(address => bool))","numberOfBytes":"32","value":"t_mapping(t_address,t_bool)"},"t_string_storage":{"encoding":"bytes","label":"string","numberOfBytes":"32"},"t_struct(Request)50_storage":{"encoding":"inplace","label":"struct Campaign.Request","members":[{"astId":41,"contract":"Campaign.sol:Campaign","label":"description","offset":0,"slot":"0","type":"t_string_storage"},{"astId":43,"contract":"Campaign.sol:Campaign","label":"value","offset":0,"slot":"1","type":"t_uint256"},{"astId":45,"contract":"Campaign.sol:Campaign","label":"recipient","offset":0,"slot":"2","type":"t_address_payable"},{"astId":47,"contract":"Campaign.sol:Campaign","label":"complete","offset":20,"slot":"2","type":"t_bool"},{"astId":49,"contract":"Campaign.sol:Campaign","label":"approvalCount","offset":0,"slot":"3","type":"t_uint256"}],"numberOfBytes":"128"},"t_uint256":{"encoding":"inplace","label":"uint256","numberOfBytes":"32"}}},"userdoc":{"kind":"user","methods":{},"version":1}}