{"abi":[{"inputs":[{"internalType":"uint256","name":"minimum","type":"uint256"},{"internalType":"address","name":"creator","type":"address"}],"stateMutability":"nonpayable","type":"constructor"},{"inputs":[{"internalType":"uint256","name":"index","type":"uint256"}],"name":"approveRequest","outputs":[],"stateMutability":"nonpayable","type":"function"},{"inputs":[{"internalType":"uint256","name":"","type":"uint256"},{"internalType":"address","name":"","type":"address"}],"name":"approvedAddresses","outputs":[{"internalType":"bool","name":"","type":"bool"}],"stateMutability":"view","type":"function"},{"inputs":[{"internalType":"address","name":"","type":"address"}],"name":"approvers","outputs":[{"internalType":"bool","name":"","type":"bool"}],"stateMutability":"view","type":"function"},{"inputs":[],"name":"approversCount","outputs":[{"internalType":"uint256","name":"","type":"uint256"}],"stateMutability":"view","type":"function"},{"inputs":[],"name":"contribute","outputs":[],"stateMutability":"payable","type":"function"},{"inputs":[{"internalType":"string","name":"description","type":"string"},{"internalType":"uint256","name":"value","type":"uint256"},{"internalType":"address payable","name":"recipient","type":"address"}],"name":"createRequest","outputs":[],"stateMutability":"nonpayable","type":"function"},{"inputs":[{"internalType":"uint256","name":"index","type":"uint256"}],"name":"finalizeRequest","outputs":[],"stateMutability":"nonpayable","type":"function"},{"inputs":[],"name":"getRequestsCount","outputs":[{"internalType":"uint256","name":"","type":"uint256"}],"stateMutability":"view","type":"function"},{"inputs":[],"name":"getSummary","outputs":[{"internalType":"uint256","name":"","type":"uint256"},{"internalType":"uint256","name":"","type":"uint256"},{"internalType":"uint256","name":"","type":"uint256"},{"internalType":"uint256","name":"","type":"uint256"},{"internalType":"address","name":"","type":"address"}],"stateMutability":"view","type":"function"},{"inputs":[],"name":"manager","outputs":[{"internalType":"address","name":"","type":"address"}],"stateMutability":"view","type":"function"},{"inputs":[],"name":"minimumContribution","outputs":[{"internalType":"uint256","name":"","type":"uint256"}],"stateMutability":"view","type":"function"},{"inputs":[{"internalType":"uint256","name":"","type":"uint256"}],"name":"requests","outputs":[{"internalType":"string","name":"description","type":"string"},{"internalType":"uint256","name":"value","type":"uint256"},{"internalType":"address payable","name":"recipient","type":"address"},{"internalType":"bool","name":"complete","type":"bool"},{"internalType":"uint256","name":"approvalCount","type":"uint256"}],"stateMutability":"view","type":"function"}],"devdoc":{"kind":"dev","methods":{},"version":1},"evm":{"assembly":"    /* \"Campaign.sol\":427:2790  contract Campaign {... */\n  mstore(0x40, 0x80)\n    /* \"Campaign.sol\":993:1109  constructor(uint minimum, address creator) {... */\n  callvalue\n  dup1\n  iszero\n  tag_1\n  jumpi\n  0x00\n  dup1\n  revert\ntag_1:\n  pop\n  mload(0x40)\n  sub(codesize, bytecodeSize)\n  dup1\n  bytecodeSize\n  dup4\n  codecopy\n  dup2\n  dup2\n  add\n  0x40\n  mstore\n  dup2\n  add\n  swap1\n  tag_2\n  swap2\n  swap1\n  tag_3\n  jump\t// in\ntag_2:\n    /* \"Campaign.sol\":1056:1063  creator */\n  dup1\n    /* \"Campaign.sol\":1046:1053  manager */\n  0x00\n  dup1\n    /* \"Campaign.sol\":1046:1063  manager = creator */\n  0x0100\n  exp\n  dup2\n  sload\n  dup2\n  0xffffffffffffffffffffffffffffffffffffffff\n  mul\n  not\n  and\n  swap1\n  dup4\n  0xffffffffffffffffffffffffffffffffffffffff\n  and\n  mul\n  or\n  swap1\n  sstore\n  pop\n    /* \"Campaign.sol\":1095:1102  minimum */\n  dup2\n    /* \"Campaign.sol\":1073:1092  minimumContribution */\n  0x01\n    /* \"Campaign.sol\":1073:1102  minimumContribution = minimum */\n  dup2\n  swap1\n  sstore\n  pop\n    /* \"Campaign.sol\":993:1109  constructor(uint minimum, address creator) {... */\n  pop\n  pop\n    /* \"Campaign.sol\":427:2790  contract Campaign {... */\n  jump(tag_6)\n    /* \"#utility.yul\":88:205   */\ntag_8:\n    /* \"#utility.yul\":197:198   */\n  0x00\n    /* \"#utility.yul\":194:195   */\n  dup1\n    /* \"#utility.yul\":187:199   */\n  revert\n    /* \"#utility.yul\":334:411   */\ntag_10:\n    /* \"#utility.yul\":371:378   */\n  0x00\n    /* \"#utility.yul\":400:405   */\n  dup2\n    /* \"#utility.yul\":389:405   */\n  swap1\n  pop\n    /* \"#utility.yul\":334:411   */\n  swap2\n  swap1\n  pop\n  jump\t// out\n    /* \"#utility.yul\":417:539   */\ntag_11:\n    /* \"#utility.yul\":490:514   */\n  tag_23\n    /* \"#utility.yul\":508:513   */\n  dup2\n    /* \"#utility.yul\":490:514   */\n  tag_10\n  jump\t// in\ntag_23:\n    /* \"#utility.yul\":483:488   */\n  dup2\n    /* \"#utility.yul\":480:515   */\n  eq\n    /* \"#utility.yul\":470:533   */\n  tag_24\n  jumpi\n    /* \"#utility.yul\":529:530   */\n  0x00\n    /* \"#utility.yul\":526:527   */\n  dup1\n    /* \"#utility.yul\":519:531   */\n  revert\n    /* \"#utility.yul\":470:533   */\ntag_24:\n    /* \"#utility.yul\":417:539   */\n  pop\n  jump\t// out\n    /* \"#utility.yul\":545:688   */\ntag_12:\n    /* \"#utility.yul\":602:607   */\n  0x00\n    /* \"#utility.yul\":633:639   */\n  dup2\n    /* \"#utility.yul\":627:640   */\n  mload\n    /* \"#utility.yul\":618:640   */\n  swap1\n  pop\n    /* \"#utility.yul\":649:682   */\n  tag_26\n    /* \"#utility.yul\":676:681   */\n  dup2\n    /* \"#utility.yul\":649:682   */\n  tag_11\n  jump\t// in\ntag_26:\n    /* \"#utility.yul\":545:688   */\n  swap3\n  swap2\n  pop\n  pop\n  jump\t// out\n    /* \"#utility.yul\":694:820   */\ntag_13:\n    /* \"#utility.yul\":731:738   */\n  0x00\n    /* \"#utility.yul\":771:813   */\n  0xffffffffffffffffffffffffffffffffffffffff\n    /* \"#utility.yul\":764:769   */\n  dup3\n    /* \"#utility.yul\":760:814   */\n  and\n    /* \"#utility.yul\":749:814   */\n  swap1\n  pop\n    /* \"#utility.yul\":694:820   */\n  swap2\n  swap1\n  pop\n  jump\t// out\n    /* \"#utility.yul\":826:922   */\ntag_14:\n    /* \"#utility.yul\":863:870   */\n  0x00\n    /* \"#utility.yul\":892:916   */\n  tag_29\n    /* \"#utility.yul\":910:915   */\n  dup3\n    /* \"#utility.yul\":892:916   */\n  tag_13\n  jump\t// in\ntag_29:\n    /* \"#utility.yul\":881:916   */\n  swap1\n  pop\n    /* \"#utility.yul\":826:922   */\n  swap2\n  swap1\n  pop\n  jump\t// out\n    /* \"#utility.yul\":928:1050   */\ntag_15:\n    /* \"#utility.yul\":1001:1025   */\n  tag_31\n    /* \"#utility.yul\":1019:1024   */\n  dup2\n    /* \"#utility.yul\":1001:1025   */\n  tag_14\n  jump\t// in\ntag_31:\n    /* \"#utility.yul\":994:999   */\n  dup2\n    /* \"#utility.yul\":991:1026   */\n  eq\n    /* \"#utility.yul\":981:1044   */\n  tag_32\n  jumpi\n    /* \"#utility.yul\":1040:1041   */\n  0x00\n    /* \"#utility.yul\":1037:1038   */\n  dup1\n    /* \"#utility.yul\":1030:1042   */\n  revert\n    /* \"#utility.yul\":981:1044   */\ntag_32:\n    /* \"#utility.yul\":928:1050   */\n  pop\n  jump\t// out\n    /* \"#utility.yul\":1056:1199   */\ntag_16:\n    /* \"#utility.yul\":1113:1118   */\n  0x00\n    /* \"#utility.yul\":1144:1150   */\n  dup2\n    /* \"#utility.yul\":1138:1151   */\n  mload\n    /* \"#utility.yul\":1129:1151   */\n  swap1\n  pop\n    /* \"#utility.yul\":1160:1193   */\n  tag_34\n    /* \"#utility.yul\":1187:1192   */\n  dup2\n    /* \"#utility.yul\":1160:1193   */\n  tag_15\n  jump\t// in\ntag_34:\n    /* \"#utility.yul\":1056:1199   */\n  swap3\n  swap2\n  pop\n  pop\n  jump\t// out\n    /* \"#utility.yul\":1205:1712   */\ntag_3:\n    /* \"#utility.yul\":1284:1290   */\n  0x00\n    /* \"#utility.yul\":1292:1298   */\n  dup1\n    /* \"#utility.yul\":1341:1343   */\n  0x40\n    /* \"#utility.yul\":1329:1338   */\n  dup4\n    /* \"#utility.yul\":1320:1327   */\n  dup6\n    /* \"#utility.yul\":1316:1339   */\n  sub\n    /* \"#utility.yul\":1312:1344   */\n  slt\n    /* \"#utility.yul\":1309:1428   */\n  iszero\n  tag_36\n  jumpi\n    /* \"#utility.yul\":1347:1426   */\n  tag_37\n  tag_8\n  jump\t// in\ntag_37:\n    /* \"#utility.yul\":1309:1428   */\ntag_36:\n    /* \"#utility.yul\":1467:1468   */\n  0x00\n    /* \"#utility.yul\":1492:1556   */\n  tag_38\n    /* \"#utility.yul\":1548:1555   */\n  dup6\n    /* \"#utility.yul\":1539:1545   */\n  dup3\n    /* \"#utility.yul\":1528:1537   */\n  dup7\n    /* \"#utility.yul\":1524:1546   */\n  add\n    /* \"#utility.yul\":1492:1556   */\n  tag_12\n  jump\t// in\ntag_38:\n    /* \"#utility.yul\":1482:1556   */\n  swap3\n  pop\n    /* \"#utility.yul\":1438:1566   */\n  pop\n    /* \"#utility.yul\":1605:1607   */\n  0x20\n    /* \"#utility.yul\":1631:1695   */\n  tag_39\n    /* \"#utility.yul\":1687:1694   */\n  dup6\n    /* \"#utility.yul\":1678:1684   */\n  dup3\n    /* \"#utility.yul\":1667:1676   */\n  dup7\n    /* \"#utility.yul\":1663:1685   */\n  add\n    /* \"#utility.yul\":1631:1695   */\n  tag_16\n  jump\t// in\ntag_39:\n    /* \"#utility.yul\":1621:1695   */\n  swap2\n  pop\n    /* \"#utility.yul\":1576:1705   */\n  pop\n    /* \"#utility.yul\":1205:1712   */\n  swap3\n  pop\n  swap3\n  swap1\n  pop\n  jump\t// out\n    /* \"Campaign.sol\":427:2790  contract Campaign {... */\ntag_6:\n  dataSize(sub_0)\n  dup1\n  dataOffset(sub_0)\n  0x00\n  codecopy\n  0x00\n  return\nstop\n\nsub_0: assembly {\n        /* \"Campaign.sol\":427:2790  contract Campaign {... */\n      mstore(0x40, 0x80)\n      jumpi(tag_1, lt(calldatasize, 0x04))\n      shr(0xe0, calldataload(0x00))\n      dup1\n      0x81d12c58\n      gt\n      tag_14\n      jumpi\n      dup1\n      0x81d12c58\n      eq\n      tag_8\n      jumpi\n      dup1\n      0x82fde093\n      eq\n      tag_9\n      jumpi\n      dup1\n      0x8a9cfd55\n      eq\n      tag_10\n      jumpi\n      dup1\n      0x937e09b1\n      eq\n      tag_11\n      jumpi\n      dup1\n      0xd7bb99ba\n      eq\n      tag_12\n      jumpi\n      dup1\n      0xd7d1bbdb\n      eq\n      tag_13\n      jumpi\n      jump(tag_1)\n    tag_14:\n      dup1\n      0x03441006\n      eq\n      tag_2\n      jumpi\n      dup1\n      0x0a144391\n      eq\n      tag_3\n      jumpi\n      dup1\n      0x33f449e5\n      eq\n      tag_4\n      jumpi\n      dup1\n      0x3410452a\n      eq\n      tag_5\n      jumpi\n      dup1\n      0x4051ddac\n      eq\n      tag_6\n      jumpi\n      dup1\n      0x481c6a75\n      eq\n      tag_7\n      jumpi\n    tag_1:\n      0x00\n      dup1\n      revert\n        /* \"Campaign.sol\":2145:2496  function finalizeRequest(uint index) public restricted {... */\n    tag_2:\n      callvalue\n      dup1\n      iszero\n      tag_15\n      jumpi\n      0x00\n      dup1\n      revert\n    tag_15:\n      pop\n      tag_16\n      0x04\n      dup1\n      calldatasize\n      sub\n      dup2\n      add\n      swap1\n      tag_17\n      swap2\n      swap1\n      tag_18\n      jump\t// in\n    tag_17:\n      tag_19\n      jump\t// in\n    tag_16:\n      stop\n        /* \"Campaign.sol\":695:736  mapping(address => bool) public approvers */\n    tag_3:\n      callvalue\n      dup1\n      iszero\n      tag_20\n      jumpi\n      0x00\n      dup1\n      revert\n    tag_20:\n      pop\n      tag_21\n      0x04\n      dup1\n      calldatasize\n      sub\n      dup2\n      add\n      swap1\n      tag_22\n      swap2\n      swap1\n      tag_23\n      jump\t// in\n    tag_22:\n      tag_24\n      jump\t// in\n    tag_21:\n      mload(0x40)\n      tag_25\n      swap2\n      swap1\n      tag_26\n      jump\t// in\n    tag_25:\n      mload(0x40)\n      dup1\n      swap2\n      sub\n      swap1\n      return\n        /* \"Campaign.sol\":774:840  mapping(uint => mapping(address => bool)) public approvedAddresses */\n    tag_4:\n      callvalue\n      dup1\n      iszero\n      tag_27\n      jumpi\n      0x00\n      dup1\n      revert\n    tag_27:\n      pop\n      tag_28\n      0x04\n      dup1\n      calldatasize\n      sub\n      dup2\n      add\n      swap1\n      tag_29\n      swap2\n      swap1\n      tag_30\n      jump\t// in\n    tag_29:\n      tag_31\n      jump\t// in\n    tag_28:\n      mload(0x40)\n      tag_32\n      swap2\n      swap1\n      tag_26\n      jump\t// in\n    tag_32:\n      mload(0x40)\n      dup1\n      swap2\n      sub\n      swap1\n      return\n        /* \"Campaign.sol\":2694:2788  function getRequestsCount() public view returns (uint) {... */\n    tag_5:\n      callvalue\n      dup1\n      iszero\n      tag_33\n      jumpi\n      0x00\n      dup1\n      revert\n    tag_33:\n      pop\n      tag_34\n      tag_35\n      jump\t// in\n    tag_34:\n      mload(0x40)\n      tag_36\n      swap2\n      swap1\n      tag_37\n      jump\t// in\n    tag_36:\n      mload(0x40)\n      dup1\n      swap2\n      sub\n      swap1\n      return\n        /* \"Campaign.sol\":2502:2688  function getSummary() public view returns (uint, uint, uint, uint, address) {... */\n    tag_6:\n      callvalue\n      dup1\n      iszero\n      tag_38\n      jumpi\n      0x00\n      dup1\n      revert\n    tag_38:\n      pop\n      tag_39\n      tag_40\n      jump\t// in\n    tag_39:\n      mload(0x40)\n      tag_41\n      swap6\n      swap5\n      swap4\n      swap3\n      swap2\n      swap1\n      tag_42\n      jump\t// in\n    tag_41:\n      mload(0x40)\n      dup1\n      swap2\n      sub\n      swap1\n      return\n        /* \"Campaign.sol\":630:652  address public manager */\n    tag_7:\n      callvalue\n      dup1\n      iszero\n      tag_43\n      jumpi\n      0x00\n      dup1\n      revert\n    tag_43:\n      pop\n      tag_44\n      tag_45\n      jump\t// in\n    tag_44:\n      mload(0x40)\n      tag_46\n      swap2\n      swap1\n      tag_47\n      jump\t// in\n    tag_46:\n      mload(0x40)\n      dup1\n      swap2\n      sub\n      swap1\n      return\n        /* \"Campaign.sol\":846:871  Request[] public requests */\n    tag_8:\n      callvalue\n      dup1\n      iszero\n      tag_48\n      jumpi\n      0x00\n      dup1\n      revert\n    tag_48:\n      pop\n      tag_49\n      0x04\n      dup1\n      calldatasize\n      sub\n      dup2\n      add\n      swap1\n      tag_50\n      swap2\n      swap1\n      tag_18\n      jump\t// in\n    tag_50:\n      tag_51\n      jump\t// in\n    tag_49:\n      mload(0x40)\n      tag_52\n      swap6\n      swap5\n      swap4\n      swap3\n      swap2\n      swap1\n      tag_53\n      jump\t// in\n    tag_52:\n      mload(0x40)\n      dup1\n      swap2\n      sub\n      swap1\n      return\n        /* \"Campaign.sol\":742:768  uint public approversCount */\n    tag_9:\n      callvalue\n      dup1\n      iszero\n      tag_54\n      jumpi\n      0x00\n      dup1\n      revert\n    tag_54:\n      pop\n      tag_55\n      tag_56\n      jump\t// in\n    tag_55:\n      mload(0x40)\n      tag_57\n      swap2\n      swap1\n      tag_37\n      jump\t// in\n    tag_57:\n      mload(0x40)\n      dup1\n      swap2\n      sub\n      swap1\n      return\n        /* \"Campaign.sol\":1445:1892  function createRequest(string memory description, uint value, address payable recipient) public restricted {... */\n    tag_10:\n      callvalue\n      dup1\n      iszero\n      tag_58\n      jumpi\n      0x00\n      dup1\n      revert\n    tag_58:\n      pop\n      tag_59\n      0x04\n      dup1\n      calldatasize\n      sub\n      dup2\n      add\n      swap1\n      tag_60\n      swap2\n      swap1\n      tag_61\n      jump\t// in\n    tag_60:\n      tag_62\n      jump\t// in\n    tag_59:\n      stop\n        /* \"Campaign.sol\":658:689  uint public minimumContribution */\n    tag_11:\n      callvalue\n      dup1\n      iszero\n      tag_63\n      jumpi\n      0x00\n      dup1\n      revert\n    tag_63:\n      pop\n      tag_64\n      tag_65\n      jump\t// in\n    tag_64:\n      mload(0x40)\n      tag_66\n      swap2\n      swap1\n      tag_37\n      jump\t// in\n    tag_66:\n      mload(0x40)\n      dup1\n      swap2\n      sub\n      swap1\n      return\n        /* \"Campaign.sol\":1115:1439  function contribute() public payable {... */\n    tag_12:\n      tag_67\n      tag_68\n      jump\t// in\n    tag_67:\n      stop\n        /* \"Campaign.sol\":1898:2139  function approveRequest(uint index) public {... */\n    tag_13:\n      callvalue\n      dup1\n      iszero\n      tag_69\n      jumpi\n      0x00\n      dup1\n      revert\n    tag_69:\n      pop\n      tag_70\n      0x04\n      dup1\n      calldatasize\n      sub\n      dup2\n      add\n      swap1\n      tag_71\n      swap2\n      swap1\n      tag_18\n      jump\t// in\n    tag_71:\n      tag_72\n      jump\t// in\n    tag_70:\n      stop\n        /* \"Campaign.sol\":2145:2496  function finalizeRequest(uint index) public restricted {... */\n    tag_19:\n        /* \"Campaign.sol\":932:939  manager */\n      0x00\n      dup1\n      sload\n      swap1\n      0x0100\n      exp\n      swap1\n      div\n      0xffffffffffffffffffffffffffffffffffffffff\n      and\n        /* \"Campaign.sol\":918:939  msg.sender == manager */\n      0xffffffffffffffffffffffffffffffffffffffff\n      and\n        /* \"Campaign.sol\":918:928  msg.sender */\n      caller\n        /* \"Campaign.sol\":918:939  msg.sender == manager */\n      0xffffffffffffffffffffffffffffffffffffffff\n      and\n      eq\n        /* \"Campaign.sol\":910:969  require(msg.sender == manager, \"Caller is not the manager\") */\n      tag_74\n      jumpi\n      mload(0x40)\n      0x08c379a000000000000000000000000000000000000000000000000000000000\n      dup2\n      mstore\n      0x04\n      add\n      tag_75\n      swap1\n      tag_76\n      jump\t// in\n    tag_75:\n      mload(0x40)\n      dup1\n      swap2\n      sub\n      swap1\n      revert\n    tag_74:\n        /* \"Campaign.sol\":2210:2233  Request storage request */\n      0x00\n        /* \"Campaign.sol\":2236:2244  requests */\n      0x05\n        /* \"Campaign.sol\":2245:2250  index */\n      dup3\n        /* \"Campaign.sol\":2236:2251  requests[index] */\n      dup2\n      sload\n      dup2\n      lt\n      tag_78\n      jumpi\n      tag_79\n      tag_80\n      jump\t// in\n    tag_79:\n    tag_78:\n      swap1\n      0x00\n      mstore\n      keccak256(0x00, 0x20)\n      swap1\n      0x04\n      mul\n      add\n        /* \"Campaign.sol\":2210:2251  Request storage request = requests[index] */\n      swap1\n      pop\n        /* \"Campaign.sol\":2312:2313  2 */\n      0x02\n        /* \"Campaign.sol\":2295:2309  approversCount */\n      sload(0x03)\n        /* \"Campaign.sol\":2295:2313  approversCount / 2 */\n      tag_82\n      swap2\n      swap1\n      tag_83\n      jump\t// in\n    tag_82:\n        /* \"Campaign.sol\":2270:2277  request */\n      dup2\n        /* \"Campaign.sol\":2270:2291  request.approvalCount */\n      0x03\n      add\n      sload\n        /* \"Campaign.sol\":2270:2314  request.approvalCount > (approversCount / 2) */\n      gt\n        /* \"Campaign.sol\":2262:2339  require(request.approvalCount > (approversCount / 2), \"Not enough approvals\") */\n      tag_84\n      jumpi\n      mload(0x40)\n      0x08c379a000000000000000000000000000000000000000000000000000000000\n      dup2\n      mstore\n      0x04\n      add\n      tag_85\n      swap1\n      tag_86\n      jump\t// in\n    tag_85:\n      mload(0x40)\n      dup1\n      swap2\n      sub\n      swap1\n      revert\n    tag_84:\n        /* \"Campaign.sol\":2358:2365  request */\n      dup1\n        /* \"Campaign.sol\":2358:2374  request.complete */\n      0x02\n      add\n      0x14\n      swap1\n      sload\n      swap1\n      0x0100\n      exp\n      swap1\n      div\n      0xff\n      and\n        /* \"Campaign.sol\":2357:2374  !request.complete */\n      iszero\n        /* \"Campaign.sol\":2349:2404  require(!request.complete, \"Request already finalized\") */\n      tag_87\n      jumpi\n      mload(0x40)\n      0x08c379a000000000000000000000000000000000000000000000000000000000\n      dup2\n      mstore\n      0x04\n      add\n      tag_88\n      swap1\n      tag_89\n      jump\t// in\n    tag_88:\n      mload(0x40)\n      dup1\n      swap2\n      sub\n      swap1\n      revert\n    tag_87:\n        /* \"Campaign.sol\":2415:2422  request */\n      dup1\n        /* \"Campaign.sol\":2415:2432  request.recipient */\n      0x02\n      add\n      0x00\n      swap1\n      sload\n      swap1\n      0x0100\n      exp\n      swap1\n      div\n      0xffffffffffffffffffffffffffffffffffffffff\n      and\n        /* \"Campaign.sol\":2415:2441  request.recipient.transfer */\n      0xffffffffffffffffffffffffffffffffffffffff\n      and\n        /* \"Campaign.sol\":2415:2456  request.recipient.transfer(request.value) */\n      0x08fc\n        /* \"Campaign.sol\":2442:2449  request */\n      dup3\n        /* \"Campaign.sol\":2442:2455  request.value */\n      0x01\n      add\n      sload\n        /* \"Campaign.sol\":2415:2456  request.recipient.transfer(request.value) */\n      swap1\n      dup2\n      iszero\n      mul\n      swap1\n      mload(0x40)\n      0x00\n      mload(0x40)\n      dup1\n      dup4\n      sub\n      dup2\n      dup6\n      dup9\n      dup9\n      call\n      swap4\n      pop\n      pop\n      pop\n      pop\n      iszero\n      dup1\n      iszero\n      tag_91\n      jumpi\n      returndatasize\n      0x00\n      dup1\n      returndatacopy\n      revert(0x00, returndatasize)\n    tag_91:\n      pop\n        /* \"Campaign.sol\":2485:2489  true */\n      0x01\n        /* \"Campaign.sol\":2466:2473  request */\n      dup2\n        /* \"Campaign.sol\":2466:2482  request.complete */\n      0x02\n      add\n      0x14\n        /* \"Campaign.sol\":2466:2489  request.complete = true */\n      0x0100\n      exp\n      dup2\n      sload\n      dup2\n      0xff\n      mul\n      not\n      and\n      swap1\n      dup4\n      iszero\n      iszero\n      mul\n      or\n      swap1\n      sstore\n      pop\n        /* \"Campaign.sol\":2200:2496  {... */\n      pop\n        /* \"Campaign.sol\":2145:2496  function finalizeRequest(uint index) public restricted {... */\n      pop\n      jump\t// out\n        /* \"Campaign.sol\":695:736  mapping(address => bool) public approvers */\n    tag_24:\n      mstore(0x20, 0x02)\n      dup1\n      0x00\n      mstore\n      keccak256(0x00, 0x40)\n      0x00\n      swap2\n      pop\n      sload\n      swap1\n      0x0100\n      exp\n      swap1\n      div\n      0xff\n      and\n      dup2\n      jump\t// out\n        /* \"Campaign.sol\":774:840  mapping(uint => mapping(address => bool)) public approvedAddresses */\n    tag_31:\n      mstore(0x20, 0x04)\n      dup2\n      0x00\n      mstore\n      mstore(0x20, keccak256(0x00, 0x40))\n      dup1\n      0x00\n      mstore\n      keccak256(0x00, 0x40)\n      0x00\n      swap2\n      pop\n      swap2\n      pop\n      swap1\n      sload\n      swap1\n      0x0100\n      exp\n      swap1\n      div\n      0xff\n      and\n      dup2\n      jump\t// out\n        /* \"Campaign.sol\":2694:2788  function getRequestsCount() public view returns (uint) {... */\n    tag_35:\n        /* \"Campaign.sol\":2743:2747  uint */\n      0x00\n        /* \"Campaign.sol\":2766:2774  requests */\n      0x05\n        /* \"Campaign.sol\":2766:2781  requests.length */\n      dup1\n      sload\n      swap1\n      pop\n        /* \"Campaign.sol\":2759:2781  return requests.length */\n      swap1\n      pop\n        /* \"Campaign.sol\":2694:2788  function getRequestsCount() public view returns (uint) {... */\n      swap1\n      jump\t// out\n        /* \"Campaign.sol\":2502:2688  function getSummary() public view returns (uint, uint, uint, uint, address) {... */\n    tag_40:\n        /* \"Campaign.sol\":2545:2549  uint */\n      0x00\n        /* \"Campaign.sol\":2551:2555  uint */\n      dup1\n        /* \"Campaign.sol\":2557:2561  uint */\n      0x00\n        /* \"Campaign.sol\":2563:2567  uint */\n      dup1\n        /* \"Campaign.sol\":2569:2576  address */\n      0x00\n        /* \"Campaign.sol\":2596:2615  minimumContribution */\n      sload(0x01)\n        /* \"Campaign.sol\":2617:2638  address(this).balance */\n      selfbalance\n        /* \"Campaign.sol\":2640:2648  requests */\n      0x05\n        /* \"Campaign.sol\":2640:2655  requests.length */\n      dup1\n      sload\n      swap1\n      pop\n        /* \"Campaign.sol\":2657:2671  approversCount */\n      sload(0x03)\n        /* \"Campaign.sol\":2673:2680  manager */\n      0x00\n      dup1\n      sload\n      swap1\n      0x0100\n      exp\n      swap1\n      div\n      0xffffffffffffffffffffffffffffffffffffffff\n      and\n        /* \"Campaign.sol\":2588:2681  return (minimumContribution, address(this).balance, requests.length, approversCount, manager) */\n      swap5\n      pop\n      swap5\n      pop\n      swap5\n      pop\n      swap5\n      pop\n      swap5\n      pop\n        /* \"Campaign.sol\":2502:2688  function getSummary() public view returns (uint, uint, uint, uint, address) {... */\n      swap1\n      swap2\n      swap3\n      swap4\n      swap5\n      jump\t// out\n        /* \"Campaign.sol\":630:652  address public manager */\n    tag_45:\n      0x00\n      dup1\n      sload\n      swap1\n      0x0100\n      exp\n      swap1\n      div\n      0xffffffffffffffffffffffffffffffffffffffff\n      and\n      dup2\n      jump\t// out\n        /* \"Campaign.sol\":846:871  Request[] public requests */\n    tag_51:\n      0x05\n      dup2\n      dup2\n      sload\n      dup2\n      lt\n      tag_94\n      jumpi\n      0x00\n      dup1\n      revert\n    tag_94:\n      swap1\n      0x00\n      mstore\n      keccak256(0x00, 0x20)\n      swap1\n      0x04\n      mul\n      add\n      0x00\n      swap2\n      pop\n      swap1\n      pop\n      dup1\n      0x00\n      add\n      dup1\n      sload\n      tag_96\n      swap1\n      tag_97\n      jump\t// in\n    tag_96:\n      dup1\n      0x1f\n      add\n      0x20\n      dup1\n      swap2\n      div\n      mul\n      0x20\n      add\n      mload(0x40)\n      swap1\n      dup2\n      add\n      0x40\n      mstore\n      dup1\n      swap3\n      swap2\n      swap1\n      dup2\n      dup2\n      mstore\n      0x20\n      add\n      dup3\n      dup1\n      sload\n      tag_98\n      swap1\n      tag_97\n      jump\t// in\n    tag_98:\n      dup1\n      iszero\n      tag_99\n      jumpi\n      dup1\n      0x1f\n      lt\n      tag_100\n      jumpi\n      0x0100\n      dup1\n      dup4\n      sload\n      div\n      mul\n      dup4\n      mstore\n      swap2\n      0x20\n      add\n      swap2\n      jump(tag_99)\n    tag_100:\n      dup3\n      add\n      swap2\n      swap1\n      0x00\n      mstore\n      keccak256(0x00, 0x20)\n      swap1\n    tag_101:\n      dup2\n      sload\n      dup2\n      mstore\n      swap1\n      0x01\n      add\n      swap1\n      0x20\n      add\n      dup1\n      dup4\n      gt\n      tag_101\n      jumpi\n      dup3\n      swap1\n      sub\n      0x1f\n      and\n      dup3\n      add\n      swap2\n    tag_99:\n      pop\n      pop\n      pop\n      pop\n      pop\n      swap1\n      dup1\n      0x01\n      add\n      sload\n      swap1\n      dup1\n      0x02\n      add\n      0x00\n      swap1\n      sload\n      swap1\n      0x0100\n      exp\n      swap1\n      div\n      0xffffffffffffffffffffffffffffffffffffffff\n      and\n      swap1\n      dup1\n      0x02\n      add\n      0x14\n      swap1\n      sload\n      swap1\n      0x0100\n      exp\n      swap1\n      div\n      0xff\n      and\n      swap1\n      dup1\n      0x03\n      add\n      sload\n      swap1\n      pop\n      dup6\n      jump\t// out\n        /* \"Campaign.sol\":742:768  uint public approversCount */\n    tag_56:\n      sload(0x03)\n      dup2\n      jump\t// out\n        /* \"Campaign.sol\":1445:1892  function createRequest(string memory description, uint value, address payable recipient) public restricted {... */\n    tag_62:\n        /* \"Campaign.sol\":932:939  manager */\n      0x00\n      dup1\n      sload\n      swap1\n      0x0100\n      exp\n      swap1\n      div\n      0xffffffffffffffffffffffffffffffffffffffff\n      and\n        /* \"Campaign.sol\":918:939  msg.sender == manager */\n      0xffffffffffffffffffffffffffffffffffffffff\n      and\n        /* \"Campaign.sol\":918:928  msg.sender */\n      caller\n        /* \"Campaign.sol\":918:939  msg.sender == manager */\n      0xffffffffffffffffffffffffffffffffffffffff\n      and\n      eq\n        /* \"Campaign.sol\":910:969  require(msg.sender == manager, \"Caller is not the manager\") */\n      tag_103\n      jumpi\n      mload(0x40)\n      0x08c379a000000000000000000000000000000000000000000000000000000000\n      dup2\n      mstore\n      0x04\n      add\n      tag_104\n      swap1\n      tag_76\n      jump\t// in\n    tag_104:\n      mload(0x40)\n      dup1\n      swap2\n      sub\n      swap1\n      revert\n    tag_103:\n        /* \"Campaign.sol\":1605:1631  Request storage newRequest */\n      0x00\n        /* \"Campaign.sol\":1634:1642  requests */\n      0x05\n        /* \"Campaign.sol\":1634:1649  requests.push() */\n      0x01\n      dup2\n      0x01\n      dup2\n      sload\n      add\n      dup1\n      dup3\n      sstore\n      dup1\n      swap2\n      pop\n      pop\n      sub\n      swap1\n      0x00\n      mstore\n      keccak256(0x00, 0x20)\n      swap1\n      0x04\n      mul\n      add\n        /* \"Campaign.sol\":1605:1649  Request storage newRequest = requests.push() */\n      swap1\n      pop\n        /* \"Campaign.sol\":1723:1734  description */\n      dup4\n        /* \"Campaign.sol\":1698:1708  newRequest */\n      dup2\n        /* \"Campaign.sol\":1698:1720  newRequest.description */\n      0x00\n      add\n        /* \"Campaign.sol\":1698:1734  newRequest.description = description */\n      swap1\n      dup2\n      tag_107\n      swap2\n      swap1\n      tag_108\n      jump\t// in\n    tag_107:\n      pop\n        /* \"Campaign.sol\":1763:1768  value */\n      dup3\n        /* \"Campaign.sol\":1744:1754  newRequest */\n      dup2\n        /* \"Campaign.sol\":1744:1760  newRequest.value */\n      0x01\n      add\n        /* \"Campaign.sol\":1744:1768  newRequest.value = value */\n      dup2\n      swap1\n      sstore\n      pop\n        /* \"Campaign.sol\":1801:1810  recipient */\n      dup2\n        /* \"Campaign.sol\":1778:1788  newRequest */\n      dup2\n        /* \"Campaign.sol\":1778:1798  newRequest.recipient */\n      0x02\n      add\n      0x00\n        /* \"Campaign.sol\":1778:1810  newRequest.recipient = recipient */\n      0x0100\n      exp\n      dup2\n      sload\n      dup2\n      0xffffffffffffffffffffffffffffffffffffffff\n      mul\n      not\n      and\n      swap1\n      dup4\n      0xffffffffffffffffffffffffffffffffffffffff\n      and\n      mul\n      or\n      swap1\n      sstore\n      pop\n        /* \"Campaign.sol\":1842:1847  false */\n      0x00\n        /* \"Campaign.sol\":1820:1830  newRequest */\n      dup2\n        /* \"Campaign.sol\":1820:1839  newRequest.complete */\n      0x02\n      add\n      0x14\n        /* \"Campaign.sol\":1820:1847  newRequest.complete = false */\n      0x0100\n      exp\n      dup2\n      sload\n      dup2\n      0xff\n      mul\n      not\n      and\n      swap1\n      dup4\n      iszero\n      iszero\n      mul\n      or\n      swap1\n      sstore\n      pop\n        /* \"Campaign.sol\":1884:1885  0 */\n      0x00\n        /* \"Campaign.sol\":1857:1867  newRequest */\n      dup2\n        /* \"Campaign.sol\":1857:1881  newRequest.approvalCount */\n      0x03\n      add\n        /* \"Campaign.sol\":1857:1885  newRequest.approvalCount = 0 */\n      dup2\n      swap1\n      sstore\n      pop\n        /* \"Campaign.sol\":1552:1892  {... */\n      pop\n        /* \"Campaign.sol\":1445:1892  function createRequest(string memory description, uint value, address payable recipient) public restricted {... */\n      pop\n      pop\n      pop\n      jump\t// out\n        /* \"Campaign.sol\":658:689  uint public minimumContribution */\n    tag_65:\n      sload(0x01)\n      dup2\n      jump\t// out\n        /* \"Campaign.sol\":1115:1439  function contribute() public payable {... */\n    tag_68:\n        /* \"Campaign.sol\":1182:1201  minimumContribution */\n      sload(0x01)\n        /* \"Campaign.sol\":1170:1179  msg.value */\n      callvalue\n        /* \"Campaign.sol\":1170:1201  msg.value > minimumContribution */\n      gt\n        /* \"Campaign.sol\":1162:1241  require(msg.value > minimumContribution, \"Minimum contribution is not matched\") */\n      tag_110\n      jumpi\n      mload(0x40)\n      0x08c379a000000000000000000000000000000000000000000000000000000000\n      dup2\n      mstore\n      0x04\n      add\n      tag_111\n      swap1\n      tag_112\n      jump\t// in\n    tag_111:\n      mload(0x40)\n      dup1\n      swap2\n      sub\n      swap1\n      revert\n    tag_110:\n        /* \"Campaign.sol\":1327:1336  approvers */\n      0x02\n        /* \"Campaign.sol\":1327:1348  approvers[msg.sender] */\n      0x00\n        /* \"Campaign.sol\":1337:1347  msg.sender */\n      caller\n        /* \"Campaign.sol\":1327:1348  approvers[msg.sender] */\n      0xffffffffffffffffffffffffffffffffffffffff\n      and\n      0xffffffffffffffffffffffffffffffffffffffff\n      and\n      dup2\n      mstore\n      0x20\n      add\n      swap1\n      dup2\n      mstore\n      0x20\n      add\n      0x00\n      keccak256\n      0x00\n      swap1\n      sload\n      swap1\n      0x0100\n      exp\n      swap1\n      div\n      0xff\n      and\n        /* \"Campaign.sol\":1322:1433  if (!approvers[msg.sender]) {... */\n      tag_113\n      jumpi\n        /* \"Campaign.sol\":1388:1392  true */\n      0x01\n        /* \"Campaign.sol\":1364:1373  approvers */\n      0x02\n        /* \"Campaign.sol\":1364:1385  approvers[msg.sender] */\n      0x00\n        /* \"Campaign.sol\":1374:1384  msg.sender */\n      caller\n        /* \"Campaign.sol\":1364:1385  approvers[msg.sender] */\n      0xffffffffffffffffffffffffffffffffffffffff\n      and\n      0xffffffffffffffffffffffffffffffffffffffff\n      and\n      dup2\n      mstore\n      0x20\n      add\n      swap1\n      dup2\n      mstore\n      0x20\n      add\n      0x00\n      keccak256\n      0x00\n        /* \"Campaign.sol\":1364:1392  approvers[msg.sender] = true */\n      0x0100\n      exp\n      dup2\n      sload\n      dup2\n      0xff\n      mul\n      not\n      and\n      swap1\n      dup4\n      iszero\n      iszero\n      mul\n      or\n      swap1\n      sstore\n      pop\n        /* \"Campaign.sol\":1406:1420  approversCount */\n      0x03\n      0x00\n        /* \"Campaign.sol\":1406:1422  approversCount++ */\n      dup2\n      sload\n      dup1\n      swap3\n      swap2\n      swap1\n      tag_114\n      swap1\n      tag_115\n      jump\t// in\n    tag_114:\n      swap2\n      swap1\n      pop\n      sstore\n      pop\n        /* \"Campaign.sol\":1322:1433  if (!approvers[msg.sender]) {... */\n    tag_113:\n        /* \"Campaign.sol\":1115:1439  function contribute() public payable {... */\n      jump\t// out\n        /* \"Campaign.sol\":1898:2139  function approveRequest(uint index) public {... */\n    tag_72:\n        /* \"Campaign.sol\":1959:1968  approvers */\n      0x02\n        /* \"Campaign.sol\":1959:1980  approvers[msg.sender] */\n      0x00\n        /* \"Campaign.sol\":1969:1979  msg.sender */\n      caller\n        /* \"Campaign.sol\":1959:1980  approvers[msg.sender] */\n      0xffffffffffffffffffffffffffffffffffffffff\n      and\n      0xffffffffffffffffffffffffffffffffffffffff\n      and\n      dup2\n      mstore\n      0x20\n      add\n      swap1\n      dup2\n      mstore\n      0x20\n      add\n      0x00\n      keccak256\n      0x00\n      swap1\n      sload\n      swap1\n      0x0100\n      exp\n      swap1\n      div\n      0xff\n      and\n        /* \"Campaign.sol\":1951:1981  require(approvers[msg.sender]) */\n      tag_117\n      jumpi\n      0x00\n      dup1\n      revert\n    tag_117:\n        /* \"Campaign.sol\":2000:2017  approvedAddresses */\n      0x04\n        /* \"Campaign.sol\":2000:2024  approvedAddresses[index] */\n      0x00\n        /* \"Campaign.sol\":2018:2023  index */\n      dup3\n        /* \"Campaign.sol\":2000:2024  approvedAddresses[index] */\n      dup2\n      mstore\n      0x20\n      add\n      swap1\n      dup2\n      mstore\n      0x20\n      add\n      0x00\n      keccak256\n        /* \"Campaign.sol\":2000:2036  approvedAddresses[index][msg.sender] */\n      0x00\n        /* \"Campaign.sol\":2025:2035  msg.sender */\n      caller\n        /* \"Campaign.sol\":2000:2036  approvedAddresses[index][msg.sender] */\n      0xffffffffffffffffffffffffffffffffffffffff\n      and\n      0xffffffffffffffffffffffffffffffffffffffff\n      and\n      dup2\n      mstore\n      0x20\n      add\n      swap1\n      dup2\n      mstore\n      0x20\n      add\n      0x00\n      keccak256\n      0x00\n      swap1\n      sload\n      swap1\n      0x0100\n      exp\n      swap1\n      div\n      0xff\n      and\n        /* \"Campaign.sol\":1999:2036  !approvedAddresses[index][msg.sender] */\n      iszero\n        /* \"Campaign.sol\":1991:2037  require(!approvedAddresses[index][msg.sender]) */\n      tag_118\n      jumpi\n      0x00\n      dup1\n      revert\n    tag_118:\n        /* \"Campaign.sol\":2087:2091  true */\n      0x01\n        /* \"Campaign.sol\":2048:2065  approvedAddresses */\n      0x04\n        /* \"Campaign.sol\":2048:2072  approvedAddresses[index] */\n      0x00\n        /* \"Campaign.sol\":2066:2071  index */\n      dup4\n        /* \"Campaign.sol\":2048:2072  approvedAddresses[index] */\n      dup2\n      mstore\n      0x20\n      add\n      swap1\n      dup2\n      mstore\n      0x20\n      add\n      0x00\n      keccak256\n        /* \"Campaign.sol\":2048:2084  approvedAddresses[index][msg.sender] */\n      0x00\n        /* \"Campaign.sol\":2073:2083  msg.sender */\n      caller\n        /* \"Campaign.sol\":2048:2084  approvedAddresses[index][msg.sender] */\n      0xffffffffffffffffffffffffffffffffffffffff\n      and\n      0xffffffffffffffffffffffffffffffffffffffff\n      and\n      dup2\n      mstore\n      0x20\n      add\n      swap1\n      dup2\n      mstore\n      0x20\n      add\n      0x00\n      keccak256\n      0x00\n        /* \"Campaign.sol\":2048:2091  approvedAddresses[index][msg.sender] = true */\n      0x0100\n      exp\n      dup2\n      sload\n      dup2\n      0xff\n      mul\n      not\n      and\n      swap1\n      dup4\n      iszero\n      iszero\n      mul\n      or\n      swap1\n      sstore\n      pop\n        /* \"Campaign.sol\":2101:2109  requests */\n      0x05\n        /* \"Campaign.sol\":2110:2115  index */\n      dup2\n        /* \"Campaign.sol\":2101:2116  requests[index] */\n      dup2\n      sload\n      dup2\n      lt\n      tag_119\n      jumpi\n      tag_120\n      tag_80\n      jump\t// in\n    tag_120:\n    tag_119:\n      swap1\n      0x00\n      mstore\n      keccak256(0x00, 0x20)\n      swap1\n      0x04\n      mul\n      add\n        /* \"Campaign.sol\":2101:2130  requests[index].approvalCount */\n      0x03\n      add\n      0x00\n        /* \"Campaign.sol\":2101:2132  requests[index].approvalCount++ */\n      dup2\n      sload\n      dup1\n      swap3\n      swap2\n      swap1\n      tag_122\n      swap1\n      tag_115\n      jump\t// in\n    tag_122:\n      swap2\n      swap1\n      pop\n      sstore\n      pop\n        /* \"Campaign.sol\":1898:2139  function approveRequest(uint index) public {... */\n      pop\n      jump\t// out\n        /* \"#utility.yul\":7:82   */\n    tag_123:\n        /* \"#utility.yul\":40:46   */\n      0x00\n        /* \"#utility.yul\":73:75   */\n      0x40\n        /* \"#utility.yul\":67:76   */\n      mload\n        /* \"#utility.yul\":57:76   */\n      swap1\n      pop\n        /* \"#utility.yul\":7:82   */\n      swap1\n      jump\t// out\n        /* \"#utility.yul\":88:205   */\n    tag_124:\n        /* \"#utility.yul\":197:198   */\n      0x00\n        /* \"#utility.yul\":194:195   */\n      dup1\n        /* \"#utility.yul\":187:199   */\n      revert\n        /* \"#utility.yul\":211:328   */\n    tag_125:\n        /* \"#utility.yul\":320:321   */\n      0x00\n        /* \"#utility.yul\":317:318   */\n      dup1\n        /* \"#utility.yul\":310:322   */\n      revert\n        /* \"#utility.yul\":334:411   */\n    tag_126:\n        /* \"#utility.yul\":371:378   */\n      0x00\n        /* \"#utility.yul\":400:405   */\n      dup2\n        /* \"#utility.yul\":389:405   */\n      swap1\n      pop\n        /* \"#utility.yul\":334:411   */\n      swap2\n      swap1\n      pop\n      jump\t// out\n        /* \"#utility.yul\":417:539   */\n    tag_127:\n        /* \"#utility.yul\":490:514   */\n      tag_187\n        /* \"#utility.yul\":508:513   */\n      dup2\n        /* \"#utility.yul\":490:514   */\n      tag_126\n      jump\t// in\n    tag_187:\n        /* \"#utility.yul\":483:488   */\n      dup2\n        /* \"#utility.yul\":480:515   */\n      eq\n        /* \"#utility.yul\":470:533   */\n      tag_188\n      jumpi\n        /* \"#utility.yul\":529:530   */\n      0x00\n        /* \"#utility.yul\":526:527   */\n      dup1\n        /* \"#utility.yul\":519:531   */\n      revert\n        /* \"#utility.yul\":470:533   */\n    tag_188:\n        /* \"#utility.yul\":417:539   */\n      pop\n      jump\t// out\n        /* \"#utility.yul\":545:684   */\n    tag_128:\n        /* \"#utility.yul\":591:596   */\n      0x00\n        /* \"#utility.yul\":629:635   */\n      dup2\n        /* \"#utility.yul\":616:636   */\n      calldataload\n        /* \"#utility.yul\":607:636   */\n      swap1\n      pop\n        /* \"#utility.yul\":645:678   */\n      tag_190\n        /* \"#utility.yul\":672:677   */\n      dup2\n        /* \"#utility.yul\":645:678   */\n      tag_127\n      jump\t// in\n    tag_190:\n        /* \"#utility.yul\":545:684   */\n      swap3\n      swap2\n      pop\n      pop\n      jump\t// out\n        /* \"#utility.yul\":690:1019   */\n    tag_18:\n        /* \"#utility.yul\":749:755   */\n      0x00\n        /* \"#utility.yul\":798:800   */\n      0x20\n        /* \"#utility.yul\":786:795   */\n      dup3\n        /* \"#utility.yul\":777:784   */\n      dup5\n        /* \"#utility.yul\":773:796   */\n      sub\n        /* \"#utility.yul\":769:801   */\n      slt\n        /* \"#utility.yul\":766:885   */\n      iszero\n      tag_192\n      jumpi\n        /* \"#utility.yul\":804:883   */\n      tag_193\n      tag_124\n      jump\t// in\n    tag_193:\n        /* \"#utility.yul\":766:885   */\n    tag_192:\n        /* \"#utility.yul\":924:925   */\n      0x00\n        /* \"#utility.yul\":949:1002   */\n      tag_194\n        /* \"#utility.yul\":994:1001   */\n      dup5\n        /* \"#utility.yul\":985:991   */\n      dup3\n        /* \"#utility.yul\":974:983   */\n      dup6\n        /* \"#utility.yul\":970:992   */\n      add\n        /* \"#utility.yul\":949:1002   */\n      tag_128\n      jump\t// in\n    tag_194:\n        /* \"#utility.yul\":939:1002   */\n      swap2\n      pop\n        /* \"#utility.yul\":895:1012   */\n      pop\n        /* \"#utility.yul\":690:1019   */\n      swap3\n      swap2\n      pop\n      pop\n      jump\t// out\n        /* \"#utility.yul\":1025:1151   */\n    tag_129:\n        /* \"#utility.yul\":1062:1069   */\n      0x00\n        /* \"#utility.yul\":1102:1144   */\n      0xffffffffffffffffffffffffffffffffffffffff\n        /* \"#utility.yul\":1095:1100   */\n      dup3\n        /* \"#utility.yul\":1091:1145   */\n      and\n        /* \"#utility.yul\":1080:1145   */\n      swap1\n      pop\n        /* \"#utility.yul\":1025:1151   */\n      swap2\n      swap1\n      pop\n      jump\t// out\n        /* \"#utility.yul\":1157:1253   */\n    tag_130:\n        /* \"#utility.yul\":1194:1201   */\n      0x00\n        /* \"#utility.yul\":1223:1247   */\n      tag_197\n        /* \"#utility.yul\":1241:1246   */\n      dup3\n        /* \"#utility.yul\":1223:1247   */\n      tag_129\n      jump\t// in\n    tag_197:\n        /* \"#utility.yul\":1212:1247   */\n      swap1\n      pop\n        /* \"#utility.yul\":1157:1253   */\n      swap2\n      swap1\n      pop\n      jump\t// out\n        /* \"#utility.yul\":1259:1381   */\n    tag_131:\n        /* \"#utility.yul\":1332:1356   */\n      tag_199\n        /* \"#utility.yul\":1350:1355   */\n      dup2\n        /* \"#utility.yul\":1332:1356   */\n      tag_130\n      jump\t// in\n    tag_199:\n        /* \"#utility.yul\":1325:1330   */\n      dup2\n        /* \"#utility.yul\":1322:1357   */\n      eq\n        /* \"#utility.yul\":1312:1375   */\n      tag_200\n      jumpi\n        /* \"#utility.yul\":1371:1372   */\n      0x00\n        /* \"#utility.yul\":1368:1369   */\n      dup1\n        /* \"#utility.yul\":1361:1373   */\n      revert\n        /* \"#utility.yul\":1312:1375   */\n    tag_200:\n        /* \"#utility.yul\":1259:1381   */\n      pop\n      jump\t// out\n        /* \"#utility.yul\":1387:1526   */\n    tag_132:\n        /* \"#utility.yul\":1433:1438   */\n      0x00\n        /* \"#utility.yul\":1471:1477   */\n      dup2\n        /* \"#utility.yul\":1458:1478   */\n      calldataload\n        /* \"#utility.yul\":1449:1478   */\n      swap1\n      pop\n        /* \"#utility.yul\":1487:1520   */\n      tag_202\n        /* \"#utility.yul\":1514:1519   */\n      dup2\n        /* \"#utility.yul\":1487:1520   */\n      tag_131\n      jump\t// in\n    tag_202:\n        /* \"#utility.yul\":1387:1526   */\n      swap3\n      swap2\n      pop\n      pop\n      jump\t// out\n        /* \"#utility.yul\":1532:1861   */\n    tag_23:\n        /* \"#utility.yul\":1591:1597   */\n      0x00\n        /* \"#utility.yul\":1640:1642   */\n      0x20\n        /* \"#utility.yul\":1628:1637   */\n      dup3\n        /* \"#utility.yul\":1619:1626   */\n      dup5\n        /* \"#utility.yul\":1615:1638   */\n      sub\n        /* \"#utility.yul\":1611:1643   */\n      slt\n        /* \"#utility.yul\":1608:1727   */\n      iszero\n      tag_204\n      jumpi\n        /* \"#utility.yul\":1646:1725   */\n      tag_205\n      tag_124\n      jump\t// in\n    tag_205:\n        /* \"#utility.yul\":1608:1727   */\n    tag_204:\n        /* \"#utility.yul\":1766:1767   */\n      0x00\n        /* \"#utility.yul\":1791:1844   */\n      tag_206\n        /* \"#utility.yul\":1836:1843   */\n      dup5\n        /* \"#utility.yul\":1827:1833   */\n      dup3\n        /* \"#utility.yul\":1816:1825   */\n      dup6\n        /* \"#utility.yul\":1812:1834   */\n      add\n        /* \"#utility.yul\":1791:1844   */\n      tag_132\n      jump\t// in\n    tag_206:\n        /* \"#utility.yul\":1781:1844   */\n      swap2\n      pop\n        /* \"#utility.yul\":1737:1854   */\n      pop\n        /* \"#utility.yul\":1532:1861   */\n      swap3\n      swap2\n      pop\n      pop\n      jump\t// out\n        /* \"#utility.yul\":1867:1957   */\n    tag_133:\n        /* \"#utility.yul\":1901:1908   */\n      0x00\n        /* \"#utility.yul\":1944:1949   */\n      dup2\n        /* \"#utility.yul\":1937:1950   */\n      iszero\n        /* \"#utility.yul\":1930:1951   */\n      iszero\n        /* \"#utility.yul\":1919:1951   */\n      swap1\n      pop\n        /* \"#utility.yul\":1867:1957   */\n      swap2\n      swap1\n      pop\n      jump\t// out\n        /* \"#utility.yul\":1963:2072   */\n    tag_134:\n        /* \"#utility.yul\":2044:2065   */\n      tag_209\n        /* \"#utility.yul\":2059:2064   */\n      dup2\n        /* \"#utility.yul\":2044:2065   */\n      tag_133\n      jump\t// in\n    tag_209:\n        /* \"#utility.yul\":2039:2042   */\n      dup3\n        /* \"#utility.yul\":2032:2066   */\n      mstore\n        /* \"#utility.yul\":1963:2072   */\n      pop\n      pop\n      jump\t// out\n        /* \"#utility.yul\":2078:2288   */\n    tag_26:\n        /* \"#utility.yul\":2165:2169   */\n      0x00\n        /* \"#utility.yul\":2203:2205   */\n      0x20\n        /* \"#utility.yul\":2192:2201   */\n      dup3\n        /* \"#utility.yul\":2188:2206   */\n      add\n        /* \"#utility.yul\":2180:2206   */\n      swap1\n      pop\n        /* \"#utility.yul\":2216:2281   */\n      tag_211\n        /* \"#utility.yul\":2278:2279   */\n      0x00\n        /* \"#utility.yul\":2267:2276   */\n      dup4\n        /* \"#utility.yul\":2263:2280   */\n      add\n        /* \"#utility.yul\":2254:2260   */\n      dup5\n        /* \"#utility.yul\":2216:2281   */\n      tag_134\n      jump\t// in\n    tag_211:\n        /* \"#utility.yul\":2078:2288   */\n      swap3\n      swap2\n      pop\n      pop\n      jump\t// out\n        /* \"#utility.yul\":2294:2768   */\n    tag_30:\n        /* \"#utility.yul\":2362:2368   */\n      0x00\n        /* \"#utility.yul\":2370:2376   */\n      dup1\n        /* \"#utility.yul\":2419:2421   */\n      0x40\n        /* \"#utility.yul\":2407:2416   */\n      dup4\n        /* \"#utility.yul\":2398:2405   */\n      dup6\n        /* \"#utility.yul\":2394:2417   */\n      sub\n        /* \"#utility.yul\":2390:2422   */\n      slt\n        /* \"#utility.yul\":2387:2506   */\n      iszero\n      tag_213\n      jumpi\n        /* \"#utility.yul\":2425:2504   */\n      tag_214\n      tag_124\n      jump\t// in\n    tag_214:\n        /* \"#utility.yul\":2387:2506   */\n    tag_213:\n        /* \"#utility.yul\":2545:2546   */\n      0x00\n        /* \"#utility.yul\":2570:2623   */\n      tag_215\n        /* \"#utility.yul\":2615:2622   */\n      dup6\n        /* \"#utility.yul\":2606:2612   */\n      dup3\n        /* \"#utility.yul\":2595:2604   */\n      dup7\n        /* \"#utility.yul\":2591:2613   */\n      add\n        /* \"#utility.yul\":2570:2623   */\n      tag_128\n      jump\t// in\n    tag_215:\n        /* \"#utility.yul\":2560:2623   */\n      swap3\n      pop\n        /* \"#utility.yul\":2516:2633   */\n      pop\n        /* \"#utility.yul\":2672:2674   */\n      0x20\n        /* \"#utility.yul\":2698:2751   */\n      tag_216\n        /* \"#utility.yul\":2743:2750   */\n      dup6\n        /* \"#utility.yul\":2734:2740   */\n      dup3\n        /* \"#utility.yul\":2723:2732   */\n      dup7\n        /* \"#utility.yul\":2719:2741   */\n      add\n        /* \"#utility.yul\":2698:2751   */\n      tag_132\n      jump\t// in\n    tag_216:\n        /* \"#utility.yul\":2688:2751   */\n      swap2\n      pop\n        /* \"#utility.yul\":2643:2761   */\n      pop\n        /* \"#utility.yul\":2294:2768   */\n      swap3\n      pop\n      swap3\n      swap1\n      pop\n      jump\t// out\n        /* \"#utility.yul\":2774:2892   */\n    tag_135:\n        /* \"#utility.yul\":2861:2885   */\n      tag_218\n        /* \"#utility.yul\":2879:2884   */\n      dup2\n        /* \"#utility.yul\":2861:2885   */\n      tag_126\n      jump\t// in\n    tag_218:\n        /* \"#utility.yul\":2856:2859   */\n      dup3\n        /* \"#utility.yul\":2849:2886   */\n      mstore\n        /* \"#utility.yul\":2774:2892   */\n      pop\n      pop\n      jump\t// out\n        /* \"#utility.yul\":2898:3120   */\n    tag_37:\n        /* \"#utility.yul\":2991:2995   */\n      0x00\n        /* \"#utility.yul\":3029:3031   */\n      0x20\n        /* \"#utility.yul\":3018:3027   */\n      dup3\n        /* \"#utility.yul\":3014:3032   */\n      add\n        /* \"#utility.yul\":3006:3032   */\n      swap1\n      pop\n        /* \"#utility.yul\":3042:3113   */\n      tag_220\n        /* \"#utility.yul\":3110:3111   */\n      0x00\n        /* \"#utility.yul\":3099:3108   */\n      dup4\n        /* \"#utility.yul\":3095:3112   */\n      add\n        /* \"#utility.yul\":3086:3092   */\n      dup5\n        /* \"#utility.yul\":3042:3113   */\n      tag_135\n      jump\t// in\n    tag_220:\n        /* \"#utility.yul\":2898:3120   */\n      swap3\n      swap2\n      pop\n      pop\n      jump\t// out\n        /* \"#utility.yul\":3126:3244   */\n    tag_136:\n        /* \"#utility.yul\":3213:3237   */\n      tag_222\n        /* \"#utility.yul\":3231:3236   */\n      dup2\n        /* \"#utility.yul\":3213:3237   */\n      tag_130\n      jump\t// in\n    tag_222:\n        /* \"#utility.yul\":3208:3211   */\n      dup3\n        /* \"#utility.yul\":3201:3238   */\n      mstore\n        /* \"#utility.yul\":3126:3244   */\n      pop\n      pop\n      jump\t// out\n        /* \"#utility.yul\":3250:3914   */\n    tag_42:\n        /* \"#utility.yul\":3455:3459   */\n      0x00\n        /* \"#utility.yul\":3493:3496   */\n      0xa0\n        /* \"#utility.yul\":3482:3491   */\n      dup3\n        /* \"#utility.yul\":3478:3497   */\n      add\n        /* \"#utility.yul\":3470:3497   */\n      swap1\n      pop\n        /* \"#utility.yul\":3507:3578   */\n      tag_224\n        /* \"#utility.yul\":3575:3576   */\n      0x00\n        /* \"#utility.yul\":3564:3573   */\n      dup4\n        /* \"#utility.yul\":3560:3577   */\n      add\n        /* \"#utility.yul\":3551:3557   */\n      dup9\n        /* \"#utility.yul\":3507:3578   */\n      tag_135\n      jump\t// in\n    tag_224:\n        /* \"#utility.yul\":3588:3660   */\n      tag_225\n        /* \"#utility.yul\":3656:3658   */\n      0x20\n        /* \"#utility.yul\":3645:3654   */\n      dup4\n        /* \"#utility.yul\":3641:3659   */\n      add\n        /* \"#utility.yul\":3632:3638   */\n      dup8\n        /* \"#utility.yul\":3588:3660   */\n      tag_135\n      jump\t// in\n    tag_225:\n        /* \"#utility.yul\":3670:3742   */\n      tag_226\n        /* \"#utility.yul\":3738:3740   */\n      0x40\n        /* \"#utility.yul\":3727:3736   */\n      dup4\n        /* \"#utility.yul\":3723:3741   */\n      add\n        /* \"#utility.yul\":3714:3720   */\n      dup7\n        /* \"#utility.yul\":3670:3742   */\n      tag_135\n      jump\t// in\n    tag_226:\n        /* \"#utility.yul\":3752:3824   */\n      tag_227\n        /* \"#utility.yul\":3820:3822   */\n      0x60\n        /* \"#utility.yul\":3809:3818   */\n      dup4\n        /* \"#utility.yul\":3805:3823   */\n      add\n        /* \"#utility.yul\":3796:3802   */\n      dup6\n        /* \"#utility.yul\":3752:3824   */\n      tag_135\n      jump\t// in\n    tag_227:\n        /* \"#utility.yul\":3834:3907   */\n      tag_228\n        /* \"#utility.yul\":3902:3905   */\n      0x80\n        /* \"#utility.yul\":3891:3900   */\n      dup4\n        /* \"#utility.yul\":3887:3906   */\n      add\n        /* \"#utility.yul\":3878:3884   */\n      dup5\n        /* \"#utility.yul\":3834:3907   */\n      tag_136\n      jump\t// in\n    tag_228:\n        /* \"#utility.yul\":3250:3914   */\n      swap7\n      swap6\n      pop\n      pop\n      pop\n      pop\n      pop\n      pop\n      jump\t// out\n        /* \"#utility.yul\":3920:4142   */\n    tag_47:\n        /* \"#utility.yul\":4013:4017   */\n      0x00\n        /* \"#utility.yul\":4051:4053   */\n      0x20\n        /* \"#utility.yul\":4040:4049   */\n      dup3\n        /* \"#utility.yul\":4036:4054   */\n      add\n        /* \"#utility.yul\":4028:4054   */\n      swap1\n      pop\n        /* \"#utility.yul\":4064:4135   */\n      tag_230\n        /* \"#utility.yul\":4132:4133   */\n      0x00\n        /* \"#utility.yul\":4121:4130   */\n      dup4\n        /* \"#utility.yul\":4117:4134   */\n      add\n        /* \"#utility.yul\":4108:4114   */\n      dup5\n        /* \"#utility.yul\":4064:4135   */\n      tag_136\n      jump\t// in\n    tag_230:\n        /* \"#utility.yul\":3920:4142   */\n      swap3\n      swap2\n      pop\n      pop\n      jump\t// out\n        /* \"#utility.yul\":4148:4247   */\n    tag_137:\n        /* \"#utility.yul\":4200:4206   */\n      0x00\n        /* \"#utility.yul\":4234:4239   */\n      dup2\n        /* \"#utility.yul\":4228:4240   */\n      mload\n        /* \"#utility.yul\":4218:4240   */\n      swap1\n      pop\n        /* \"#utility.yul\":4148:4247   */\n      swap2\n      swap1\n      pop\n      jump\t// out\n        /* \"#utility.yul\":4253:4422   */\n    tag_138:\n        /* \"#utility.yul\":4337:4348   */\n      0x00\n        /* \"#utility.yul\":4371:4377   */\n      dup3\n        /* \"#utility.yul\":4366:4369   */\n      dup3\n        /* \"#utility.yul\":4359:4378   */\n      mstore\n        /* \"#utility.yul\":4411:4415   */\n      0x20\n        /* \"#utility.yul\":4406:4409   */\n      dup3\n        /* \"#utility.yul\":4402:4416   */\n      add\n        /* \"#utility.yul\":4387:4416   */\n      swap1\n      pop\n        /* \"#utility.yul\":4253:4422   */\n      swap3\n      swap2\n      pop\n      pop\n      jump\t// out\n        /* \"#utility.yul\":4428:4674   */\n    tag_139:\n        /* \"#utility.yul\":4509:4510   */\n      0x00\n        /* \"#utility.yul\":4519:4632   */\n    tag_234:\n        /* \"#utility.yul\":4533:4539   */\n      dup4\n        /* \"#utility.yul\":4530:4531   */\n      dup2\n        /* \"#utility.yul\":4527:4540   */\n      lt\n        /* \"#utility.yul\":4519:4632   */\n      iszero\n      tag_236\n      jumpi\n        /* \"#utility.yul\":4618:4619   */\n      dup1\n        /* \"#utility.yul\":4613:4616   */\n      dup3\n        /* \"#utility.yul\":4609:4620   */\n      add\n        /* \"#utility.yul\":4603:4621   */\n      mload\n        /* \"#utility.yul\":4599:4600   */\n      dup2\n        /* \"#utility.yul\":4594:4597   */\n      dup5\n        /* \"#utility.yul\":4590:4601   */\n      add\n        /* \"#utility.yul\":4583:4622   */\n      mstore\n        /* \"#utility.yul\":4555:4557   */\n      0x20\n        /* \"#utility.yul\":4552:4553   */\n      dup2\n        /* \"#utility.yul\":4548:4558   */\n      add\n        /* \"#utility.yul\":4543:4558   */\n      swap1\n      pop\n        /* \"#utility.yul\":4519:4632   */\n      jump(tag_234)\n    tag_236:\n        /* \"#utility.yul\":4666:4667   */\n      0x00\n        /* \"#utility.yul\":4657:4663   */\n      dup5\n        /* \"#utility.yul\":4652:4655   */\n      dup5\n        /* \"#utility.yul\":4648:4664   */\n      add\n        /* \"#utility.yul\":4641:4668   */\n      mstore\n        /* \"#utility.yul\":4490:4674   */\n      pop\n        /* \"#utility.yul\":4428:4674   */\n      pop\n      pop\n      pop\n      jump\t// out\n        /* \"#utility.yul\":4680:4782   */\n    tag_140:\n        /* \"#utility.yul\":4721:4727   */\n      0x00\n        /* \"#utility.yul\":4772:4774   */\n      0x1f\n        /* \"#utility.yul\":4768:4775   */\n      not\n        /* \"#utility.yul\":4763:4765   */\n      0x1f\n        /* \"#utility.yul\":4756:4761   */\n      dup4\n        /* \"#utility.yul\":4752:4766   */\n      add\n        /* \"#utility.yul\":4748:4776   */\n      and\n        /* \"#utility.yul\":4738:4776   */\n      swap1\n      pop\n        /* \"#utility.yul\":4680:4782   */\n      swap2\n      swap1\n      pop\n      jump\t// out\n        /* \"#utility.yul\":4788:5165   */\n    tag_141:\n        /* \"#utility.yul\":4876:4879   */\n      0x00\n        /* \"#utility.yul\":4904:4943   */\n      tag_239\n        /* \"#utility.yul\":4937:4942   */\n      dup3\n        /* \"#utility.yul\":4904:4943   */\n      tag_137\n      jump\t// in\n    tag_239:\n        /* \"#utility.yul\":4959:5030   */\n      tag_240\n        /* \"#utility.yul\":5023:5029   */\n      dup2\n        /* \"#utility.yul\":5018:5021   */\n      dup6\n        /* \"#utility.yul\":4959:5030   */\n      tag_138\n      jump\t// in\n    tag_240:\n        /* \"#utility.yul\":4952:5030   */\n      swap4\n      pop\n        /* \"#utility.yul\":5039:5104   */\n      tag_241\n        /* \"#utility.yul\":5097:5103   */\n      dup2\n        /* \"#utility.yul\":5092:5095   */\n      dup6\n        /* \"#utility.yul\":5085:5089   */\n      0x20\n        /* \"#utility.yul\":5078:5083   */\n      dup7\n        /* \"#utility.yul\":5074:5090   */\n      add\n        /* \"#utility.yul\":5039:5104   */\n      tag_139\n      jump\t// in\n    tag_241:\n        /* \"#utility.yul\":5129:5158   */\n      tag_242\n        /* \"#utility.yul\":5151:5157   */\n      dup2\n        /* \"#utility.yul\":5129:5158   */\n      tag_140\n      jump\t// in\n    tag_242:\n        /* \"#utility.yul\":5124:5127   */\n      dup5\n        /* \"#utility.yul\":5120:5159   */\n      add\n        /* \"#utility.yul\":5113:5159   */\n      swap2\n      pop\n        /* \"#utility.yul\":4880:5165   */\n      pop\n        /* \"#utility.yul\":4788:5165   */\n      swap3\n      swap2\n      pop\n      pop\n      jump\t// out\n        /* \"#utility.yul\":5171:5275   */\n    tag_142:\n        /* \"#utility.yul\":5216:5223   */\n      0x00\n        /* \"#utility.yul\":5245:5269   */\n      tag_244\n        /* \"#utility.yul\":5263:5268   */\n      dup3\n        /* \"#utility.yul\":5245:5269   */\n      tag_129\n      jump\t// in\n    tag_244:\n        /* \"#utility.yul\":5234:5269   */\n      swap1\n      pop\n        /* \"#utility.yul\":5171:5275   */\n      swap2\n      swap1\n      pop\n      jump\t// out\n        /* \"#utility.yul\":5281:5423   */\n    tag_143:\n        /* \"#utility.yul\":5384:5416   */\n      tag_246\n        /* \"#utility.yul\":5410:5415   */\n      dup2\n        /* \"#utility.yul\":5384:5416   */\n      tag_142\n      jump\t// in\n    tag_246:\n        /* \"#utility.yul\":5379:5382   */\n      dup3\n        /* \"#utility.yul\":5372:5417   */\n      mstore\n        /* \"#utility.yul\":5281:5423   */\n      pop\n      pop\n      jump\t// out\n        /* \"#utility.yul\":5429:6204   */\n    tag_53:\n        /* \"#utility.yul\":5664:5668   */\n      0x00\n        /* \"#utility.yul\":5702:5705   */\n      0xa0\n        /* \"#utility.yul\":5691:5700   */\n      dup3\n        /* \"#utility.yul\":5687:5706   */\n      add\n        /* \"#utility.yul\":5679:5706   */\n      swap1\n      pop\n        /* \"#utility.yul\":5752:5761   */\n      dup2\n        /* \"#utility.yul\":5746:5750   */\n      dup2\n        /* \"#utility.yul\":5742:5762   */\n      sub\n        /* \"#utility.yul\":5738:5739   */\n      0x00\n        /* \"#utility.yul\":5727:5736   */\n      dup4\n        /* \"#utility.yul\":5723:5740   */\n      add\n        /* \"#utility.yul\":5716:5763   */\n      mstore\n        /* \"#utility.yul\":5780:5858   */\n      tag_248\n        /* \"#utility.yul\":5853:5857   */\n      dup2\n        /* \"#utility.yul\":5844:5850   */\n      dup9\n        /* \"#utility.yul\":5780:5858   */\n      tag_141\n      jump\t// in\n    tag_248:\n        /* \"#utility.yul\":5772:5858   */\n      swap1\n      pop\n        /* \"#utility.yul\":5868:5940   */\n      tag_249\n        /* \"#utility.yul\":5936:5938   */\n      0x20\n        /* \"#utility.yul\":5925:5934   */\n      dup4\n        /* \"#utility.yul\":5921:5939   */\n      add\n        /* \"#utility.yul\":5912:5918   */\n      dup8\n        /* \"#utility.yul\":5868:5940   */\n      tag_135\n      jump\t// in\n    tag_249:\n        /* \"#utility.yul\":5950:6038   */\n      tag_250\n        /* \"#utility.yul\":6034:6036   */\n      0x40\n        /* \"#utility.yul\":6023:6032   */\n      dup4\n        /* \"#utility.yul\":6019:6037   */\n      add\n        /* \"#utility.yul\":6010:6016   */\n      dup7\n        /* \"#utility.yul\":5950:6038   */\n      tag_143\n      jump\t// in\n    tag_250:\n        /* \"#utility.yul\":6048:6114   */\n      tag_251\n        /* \"#utility.yul\":6110:6112   */\n      0x60\n        /* \"#utility.yul\":6099:6108   */\n      dup4\n        /* \"#utility.yul\":6095:6113   */\n      add\n        /* \"#utility.yul\":6086:6092   */\n      dup6\n        /* \"#utility.yul\":6048:6114   */\n      tag_134\n      jump\t// in\n    tag_251:\n        /* \"#utility.yul\":6124:6197   */\n      tag_252\n        /* \"#utility.yul\":6192:6195   */\n      0x80\n        /* \"#utility.yul\":6181:6190   */\n      dup4\n        /* \"#utility.yul\":6177:6196   */\n      add\n        /* \"#utility.yul\":6168:6174   */\n      dup5\n        /* \"#utility.yul\":6124:6197   */\n      tag_135\n      jump\t// in\n    tag_252:\n        /* \"#utility.yul\":5429:6204   */\n      swap7\n      swap6\n      pop\n      pop\n      pop\n      pop\n      pop\n      pop\n      jump\t// out\n        /* \"#utility.yul\":6210:6327   */\n    tag_144:\n        /* \"#utility.yul\":6319:6320   */\n      0x00\n        /* \"#utility.yul\":6316:6317   */\n      dup1\n        /* \"#utility.yul\":6309:6321   */\n      revert\n        /* \"#utility.yul\":6333:6450   */\n    tag_145:\n        /* \"#utility.yul\":6442:6443   */\n      0x00\n        /* \"#utility.yul\":6439:6440   */\n      dup1\n        /* \"#utility.yul\":6432:6444   */\n      revert\n        /* \"#utility.yul\":6456:6636   */\n    tag_146:\n        /* \"#utility.yul\":6504:6581   */\n      0x4e487b7100000000000000000000000000000000000000000000000000000000\n        /* \"#utility.yul\":6501:6502   */\n      0x00\n        /* \"#utility.yul\":6494:6582   */\n      mstore\n        /* \"#utility.yul\":6601:6605   */\n      0x41\n        /* \"#utility.yul\":6598:6599   */\n      0x04\n        /* \"#utility.yul\":6591:6606   */\n      mstore\n        /* \"#utility.yul\":6625:6629   */\n      0x24\n        /* \"#utility.yul\":6622:6623   */\n      0x00\n        /* \"#utility.yul\":6615:6630   */\n      revert\n        /* \"#utility.yul\":6642:6923   */\n    tag_147:\n        /* \"#utility.yul\":6725:6752   */\n      tag_257\n        /* \"#utility.yul\":6747:6751   */\n      dup3\n        /* \"#utility.yul\":6725:6752   */\n      tag_140\n      jump\t// in\n    tag_257:\n        /* \"#utility.yul\":6717:6723   */\n      dup2\n        /* \"#utility.yul\":6713:6753   */\n      add\n        /* \"#utility.yul\":6855:6861   */\n      dup2\n        /* \"#utility.yul\":6843:6853   */\n      dup2\n        /* \"#utility.yul\":6840:6862   */\n      lt\n        /* \"#utility.yul\":6819:6837   */\n      0xffffffffffffffff\n        /* \"#utility.yul\":6807:6817   */\n      dup3\n        /* \"#utility.yul\":6804:6838   */\n      gt\n        /* \"#utility.yul\":6801:6863   */\n      or\n        /* \"#utility.yul\":6798:6886   */\n      iszero\n      tag_258\n      jumpi\n        /* \"#utility.yul\":6866:6884   */\n      tag_259\n      tag_146\n      jump\t// in\n    tag_259:\n        /* \"#utility.yul\":6798:6886   */\n    tag_258:\n        /* \"#utility.yul\":6906:6916   */\n      dup1\n        /* \"#utility.yul\":6902:6904   */\n      0x40\n        /* \"#utility.yul\":6895:6917   */\n      mstore\n        /* \"#utility.yul\":6685:6923   */\n      pop\n        /* \"#utility.yul\":6642:6923   */\n      pop\n      pop\n      jump\t// out\n        /* \"#utility.yul\":6929:7058   */\n    tag_148:\n        /* \"#utility.yul\":6963:6969   */\n      0x00\n        /* \"#utility.yul\":6990:7010   */\n      tag_261\n      tag_123\n      jump\t// in\n    tag_261:\n        /* \"#utility.yul\":6980:7010   */\n      swap1\n      pop\n        /* \"#utility.yul\":7019:7052   */\n      tag_262\n        /* \"#utility.yul\":7047:7051   */\n      dup3\n        /* \"#utility.yul\":7039:7045   */\n      dup3\n        /* \"#utility.yul\":7019:7052   */\n      tag_147\n      jump\t// in\n    tag_262:\n        /* \"#utility.yul\":6929:7058   */\n      swap2\n      swap1\n      pop\n      jump\t// out\n        /* \"#utility.yul\":7064:7372   */\n    tag_149:\n        /* \"#utility.yul\":7126:7130   */\n      0x00\n        /* \"#utility.yul\":7216:7234   */\n      0xffffffffffffffff\n        /* \"#utility.yul\":7208:7214   */\n      dup3\n        /* \"#utility.yul\":7205:7235   */\n      gt\n        /* \"#utility.yul\":7202:7258   */\n      iszero\n      tag_264\n      jumpi\n        /* \"#utility.yul\":7238:7256   */\n      tag_265\n      tag_146\n      jump\t// in\n    tag_265:\n        /* \"#utility.yul\":7202:7258   */\n    tag_264:\n        /* \"#utility.yul\":7276:7305   */\n      tag_266\n        /* \"#utility.yul\":7298:7304   */\n      dup3\n        /* \"#utility.yul\":7276:7305   */\n      tag_140\n      jump\t// in\n    tag_266:\n        /* \"#utility.yul\":7268:7305   */\n      swap1\n      pop\n        /* \"#utility.yul\":7360:7364   */\n      0x20\n        /* \"#utility.yul\":7354:7358   */\n      dup2\n        /* \"#utility.yul\":7350:7365   */\n      add\n        /* \"#utility.yul\":7342:7365   */\n      swap1\n      pop\n        /* \"#utility.yul\":7064:7372   */\n      swap2\n      swap1\n      pop\n      jump\t// out\n        /* \"#utility.yul\":7378:7524   */\n    tag_150:\n        /* \"#utility.yul\":7475:7481   */\n      dup3\n        /* \"#utility.yul\":7470:7473   */\n      dup2\n        /* \"#utility.yul\":7465:7468   */\n      dup4\n        /* \"#utility.yul\":7452:7482   */\n      calldatacopy\n        /* \"#utility.yul\":7516:7517   */\n      0x00\n        /* \"#utility.yul\":7507:7513   */\n      dup4\n        /* \"#utility.yul\":7502:7505   */\n      dup4\n        /* \"#utility.yul\":7498:7514   */\n      add\n        /* \"#utility.yul\":7491:7518   */\n      mstore\n        /* \"#utility.yul\":7378:7524   */\n      pop\n      pop\n      pop\n      jump\t// out\n        /* \"#utility.yul\":7530:7955   */\n    tag_151:\n        /* \"#utility.yul\":7608:7613   */\n      0x00\n        /* \"#utility.yul\":7633:7699   */\n      tag_269\n        /* \"#utility.yul\":7649:7698   */\n      tag_270\n        /* \"#utility.yul\":7691:7697   */\n      dup5\n        /* \"#utility.yul\":7649:7698   */\n      tag_149\n      jump\t// in\n    tag_270:\n        /* \"#utility.yul\":7633:7699   */\n      tag_148\n      jump\t// in\n    tag_269:\n        /* \"#utility.yul\":7624:7699   */\n      swap1\n      pop\n        /* \"#utility.yul\":7722:7728   */\n      dup3\n        /* \"#utility.yul\":7715:7720   */\n      dup2\n        /* \"#utility.yul\":7708:7729   */\n      mstore\n        /* \"#utility.yul\":7760:7764   */\n      0x20\n        /* \"#utility.yul\":7753:7758   */\n      dup2\n        /* \"#utility.yul\":7749:7765   */\n      add\n        /* \"#utility.yul\":7798:7801   */\n      dup5\n        /* \"#utility.yul\":7789:7795   */\n      dup5\n        /* \"#utility.yul\":7784:7787   */\n      dup5\n        /* \"#utility.yul\":7780:7796   */\n      add\n        /* \"#utility.yul\":7777:7802   */\n      gt\n        /* \"#utility.yul\":7774:7886   */\n      iszero\n      tag_271\n      jumpi\n        /* \"#utility.yul\":7805:7884   */\n      tag_272\n      tag_145\n      jump\t// in\n    tag_272:\n        /* \"#utility.yul\":7774:7886   */\n    tag_271:\n        /* \"#utility.yul\":7895:7949   */\n      tag_273\n        /* \"#utility.yul\":7942:7948   */\n      dup5\n        /* \"#utility.yul\":7937:7940   */\n      dup3\n        /* \"#utility.yul\":7932:7935   */\n      dup6\n        /* \"#utility.yul\":7895:7949   */\n      tag_150\n      jump\t// in\n    tag_273:\n        /* \"#utility.yul\":7614:7955   */\n      pop\n        /* \"#utility.yul\":7530:7955   */\n      swap4\n      swap3\n      pop\n      pop\n      pop\n      jump\t// out\n        /* \"#utility.yul\":7975:8315   */\n    tag_152:\n        /* \"#utility.yul\":8031:8036   */\n      0x00\n        /* \"#utility.yul\":8080:8083   */\n      dup3\n        /* \"#utility.yul\":8073:8077   */\n      0x1f\n        /* \"#utility.yul\":8065:8071   */\n      dup4\n        /* \"#utility.yul\":8061:8078   */\n      add\n        /* \"#utility.yul\":8057:8084   */\n      slt\n        /* \"#utility.yul\":8047:8169   */\n      tag_275\n      jumpi\n        /* \"#utility.yul\":8088:8167   */\n      tag_276\n      tag_144\n      jump\t// in\n    tag_276:\n        /* \"#utility.yul\":8047:8169   */\n    tag_275:\n        /* \"#utility.yul\":8205:8211   */\n      dup2\n        /* \"#utility.yul\":8192:8212   */\n      calldataload\n        /* \"#utility.yul\":8230:8309   */\n      tag_277\n        /* \"#utility.yul\":8305:8308   */\n      dup5\n        /* \"#utility.yul\":8297:8303   */\n      dup3\n        /* \"#utility.yul\":8290:8294   */\n      0x20\n        /* \"#utility.yul\":8282:8288   */\n      dup7\n        /* \"#utility.yul\":8278:8295   */\n      add\n        /* \"#utility.yul\":8230:8309   */\n      tag_151\n      jump\t// in\n    tag_277:\n        /* \"#utility.yul\":8221:8309   */\n      swap2\n      pop\n        /* \"#utility.yul\":8037:8315   */\n      pop\n        /* \"#utility.yul\":7975:8315   */\n      swap3\n      swap2\n      pop\n      pop\n      jump\t// out\n        /* \"#utility.yul\":8321:8459   */\n    tag_153:\n        /* \"#utility.yul\":8402:8434   */\n      tag_279\n        /* \"#utility.yul\":8428:8433   */\n      dup2\n        /* \"#utility.yul\":8402:8434   */\n      tag_142\n      jump\t// in\n    tag_279:\n        /* \"#utility.yul\":8395:8400   */\n      dup2\n        /* \"#utility.yul\":8392:8435   */\n      eq\n        /* \"#utility.yul\":8382:8453   */\n      tag_280\n      jumpi\n        /* \"#utility.yul\":8449:8450   */\n      0x00\n        /* \"#utility.yul\":8446:8447   */\n      dup1\n        /* \"#utility.yul\":8439:8451   */\n      revert\n        /* \"#utility.yul\":8382:8453   */\n    tag_280:\n        /* \"#utility.yul\":8321:8459   */\n      pop\n      jump\t// out\n        /* \"#utility.yul\":8465:8620   */\n    tag_154:\n        /* \"#utility.yul\":8519:8524   */\n      0x00\n        /* \"#utility.yul\":8557:8563   */\n      dup2\n        /* \"#utility.yul\":8544:8564   */\n      calldataload\n        /* \"#utility.yul\":8535:8564   */\n      swap1\n      pop\n        /* \"#utility.yul\":8573:8614   */\n      tag_282\n        /* \"#utility.yul\":8608:8613   */\n      dup2\n        /* \"#utility.yul\":8573:8614   */\n      tag_153\n      jump\t// in\n    tag_282:\n        /* \"#utility.yul\":8465:8620   */\n      swap3\n      swap2\n      pop\n      pop\n      jump\t// out\n        /* \"#utility.yul\":8626:9441   */\n    tag_61:\n        /* \"#utility.yul\":8721:8727   */\n      0x00\n        /* \"#utility.yul\":8729:8735   */\n      dup1\n        /* \"#utility.yul\":8737:8743   */\n      0x00\n        /* \"#utility.yul\":8786:8788   */\n      0x60\n        /* \"#utility.yul\":8774:8783   */\n      dup5\n        /* \"#utility.yul\":8765:8772   */\n      dup7\n        /* \"#utility.yul\":8761:8784   */\n      sub\n        /* \"#utility.yul\":8757:8789   */\n      slt\n        /* \"#utility.yul\":8754:8873   */\n      iszero\n      tag_284\n      jumpi\n        /* \"#utility.yul\":8792:8871   */\n      tag_285\n      tag_124\n      jump\t// in\n    tag_285:\n        /* \"#utility.yul\":8754:8873   */\n    tag_284:\n        /* \"#utility.yul\":8940:8941   */\n      0x00\n        /* \"#utility.yul\":8929:8938   */\n      dup5\n        /* \"#utility.yul\":8925:8942   */\n      add\n        /* \"#utility.yul\":8912:8943   */\n      calldataload\n        /* \"#utility.yul\":8970:8988   */\n      0xffffffffffffffff\n        /* \"#utility.yul\":8962:8968   */\n      dup2\n        /* \"#utility.yul\":8959:8989   */\n      gt\n        /* \"#utility.yul\":8956:9073   */\n      iszero\n      tag_286\n      jumpi\n        /* \"#utility.yul\":8992:9071   */\n      tag_287\n      tag_125\n      jump\t// in\n    tag_287:\n        /* \"#utility.yul\":8956:9073   */\n    tag_286:\n        /* \"#utility.yul\":9097:9160   */\n      tag_288\n        /* \"#utility.yul\":9152:9159   */\n      dup7\n        /* \"#utility.yul\":9143:9149   */\n      dup3\n        /* \"#utility.yul\":9132:9141   */\n      dup8\n        /* \"#utility.yul\":9128:9150   */\n      add\n        /* \"#utility.yul\":9097:9160   */\n      tag_152\n      jump\t// in\n    tag_288:\n        /* \"#utility.yul\":9087:9160   */\n      swap4\n      pop\n        /* \"#utility.yul\":8883:9170   */\n      pop\n        /* \"#utility.yul\":9209:9211   */\n      0x20\n        /* \"#utility.yul\":9235:9288   */\n      tag_289\n        /* \"#utility.yul\":9280:9287   */\n      dup7\n        /* \"#utility.yul\":9271:9277   */\n      dup3\n        /* \"#utility.yul\":9260:9269   */\n      dup8\n        /* \"#utility.yul\":9256:9278   */\n      add\n        /* \"#utility.yul\":9235:9288   */\n      tag_128\n      jump\t// in\n    tag_289:\n        /* \"#utility.yul\":9225:9288   */\n      swap3\n      pop\n        /* \"#utility.yul\":9180:9298   */\n      pop\n        /* \"#utility.yul\":9337:9339   */\n      0x40\n        /* \"#utility.yul\":9363:9424   */\n      tag_290\n        /* \"#utility.yul\":9416:9423   */\n      dup7\n        /* \"#utility.yul\":9407:9413   */\n      dup3\n        /* \"#utility.yul\":9396:9405   */\n      dup8\n        /* \"#utility.yul\":9392:9414   */\n      add\n        /* \"#utility.yul\":9363:9424   */\n      tag_154\n      jump\t// in\n    tag_290:\n        /* \"#utility.yul\":9353:9424   */\n      swap2\n      pop\n        /* \"#utility.yul\":9308:9434   */\n      pop\n        /* \"#utility.yul\":8626:9441   */\n      swap3\n      pop\n      swap3\n      pop\n      swap3\n      jump\t// out\n        /* \"#utility.yul\":9447:9622   */\n    tag_155:\n        /* \"#utility.yul\":9587:9614   */\n      0x43616c6c6572206973206e6f7420746865206d616e6167657200000000000000\n        /* \"#utility.yul\":9583:9584   */\n      0x00\n        /* \"#utility.yul\":9575:9581   */\n      dup3\n        /* \"#utility.yul\":9571:9585   */\n      add\n        /* \"#utility.yul\":9564:9615   */\n      mstore\n        /* \"#utility.yul\":9447:9622   */\n      pop\n      jump\t// out\n        /* \"#utility.yul\":9628:9994   */\n    tag_156:\n        /* \"#utility.yul\":9770:9773   */\n      0x00\n        /* \"#utility.yul\":9791:9858   */\n      tag_293\n        /* \"#utility.yul\":9855:9857   */\n      0x19\n        /* \"#utility.yul\":9850:9853   */\n      dup4\n        /* \"#utility.yul\":9791:9858   */\n      tag_138\n      jump\t// in\n    tag_293:\n        /* \"#utility.yul\":9784:9858   */\n      swap2\n      pop\n        /* \"#utility.yul\":9867:9960   */\n      tag_294\n        /* \"#utility.yul\":9956:9959   */\n      dup3\n        /* \"#utility.yul\":9867:9960   */\n      tag_155\n      jump\t// in\n    tag_294:\n        /* \"#utility.yul\":9985:9987   */\n      0x20\n        /* \"#utility.yul\":9980:9983   */\n      dup3\n        /* \"#utility.yul\":9976:9988   */\n      add\n        /* \"#utility.yul\":9969:9988   */\n      swap1\n      pop\n        /* \"#utility.yul\":9628:9994   */\n      swap2\n      swap1\n      pop\n      jump\t// out\n        /* \"#utility.yul\":10000:10419   */\n    tag_76:\n        /* \"#utility.yul\":10166:10170   */\n      0x00\n        /* \"#utility.yul\":10204:10206   */\n      0x20\n        /* \"#utility.yul\":10193:10202   */\n      dup3\n        /* \"#utility.yul\":10189:10207   */\n      add\n        /* \"#utility.yul\":10181:10207   */\n      swap1\n      pop\n        /* \"#utility.yul\":10253:10262   */\n      dup2\n        /* \"#utility.yul\":10247:10251   */\n      dup2\n        /* \"#utility.yul\":10243:10263   */\n      sub\n        /* \"#utility.yul\":10239:10240   */\n      0x00\n        /* \"#utility.yul\":10228:10237   */\n      dup4\n        /* \"#utility.yul\":10224:10241   */\n      add\n        /* \"#utility.yul\":10217:10264   */\n      mstore\n        /* \"#utility.yul\":10281:10412   */\n      tag_296\n        /* \"#utility.yul\":10407:10411   */\n      dup2\n        /* \"#utility.yul\":10281:10412   */\n      tag_156\n      jump\t// in\n    tag_296:\n        /* \"#utility.yul\":10273:10412   */\n      swap1\n      pop\n        /* \"#utility.yul\":10000:10419   */\n      swap2\n      swap1\n      pop\n      jump\t// out\n        /* \"#utility.yul\":10425:10605   */\n    tag_80:\n        /* \"#utility.yul\":10473:10550   */\n      0x4e487b7100000000000000000000000000000000000000000000000000000000\n        /* \"#utility.yul\":10470:10471   */\n      0x00\n        /* \"#utility.yul\":10463:10551   */\n      mstore\n        /* \"#utility.yul\":10570:10574   */\n      0x32\n        /* \"#utility.yul\":10567:10568   */\n      0x04\n        /* \"#utility.yul\":10560:10575   */\n      mstore\n        /* \"#utility.yul\":10594:10598   */\n      0x24\n        /* \"#utility.yul\":10591:10592   */\n      0x00\n        /* \"#utility.yul\":10584:10599   */\n      revert\n        /* \"#utility.yul\":10611:10791   */\n    tag_157:\n        /* \"#utility.yul\":10659:10736   */\n      0x4e487b7100000000000000000000000000000000000000000000000000000000\n        /* \"#utility.yul\":10656:10657   */\n      0x00\n        /* \"#utility.yul\":10649:10737   */\n      mstore\n        /* \"#utility.yul\":10756:10760   */\n      0x12\n        /* \"#utility.yul\":10753:10754   */\n      0x04\n        /* \"#utility.yul\":10746:10761   */\n      mstore\n        /* \"#utility.yul\":10780:10784   */\n      0x24\n        /* \"#utility.yul\":10777:10778   */\n      0x00\n        /* \"#utility.yul\":10770:10785   */\n      revert\n        /* \"#utility.yul\":10797:10977   */\n    tag_158:\n        /* \"#utility.yul\":10845:10922   */\n      0x4e487b7100000000000000000000000000000000000000000000000000000000\n        /* \"#utility.yul\":10842:10843   */\n      0x00\n        /* \"#utility.yul\":10835:10923   */\n      mstore\n        /* \"#utility.yul\":10942:10946   */\n      0x11\n        /* \"#utility.yul\":10939:10940   */\n      0x04\n        /* \"#utility.yul\":10932:10947   */\n      mstore\n        /* \"#utility.yul\":10966:10970   */\n      0x24\n        /* \"#utility.yul\":10963:10964   */\n      0x00\n        /* \"#utility.yul\":10956:10971   */\n      revert\n        /* \"#utility.yul\":10983:11168   */\n    tag_83:\n        /* \"#utility.yul\":11023:11024   */\n      0x00\n        /* \"#utility.yul\":11040:11060   */\n      tag_301\n        /* \"#utility.yul\":11058:11059   */\n      dup3\n        /* \"#utility.yul\":11040:11060   */\n      tag_126\n      jump\t// in\n    tag_301:\n        /* \"#utility.yul\":11035:11060   */\n      swap2\n      pop\n        /* \"#utility.yul\":11074:11094   */\n      tag_302\n        /* \"#utility.yul\":11092:11093   */\n      dup4\n        /* \"#utility.yul\":11074:11094   */\n      tag_126\n      jump\t// in\n    tag_302:\n        /* \"#utility.yul\":11069:11094   */\n      swap3\n      pop\n        /* \"#utility.yul\":11113:11114   */\n      dup3\n        /* \"#utility.yul\":11103:11138   */\n      tag_303\n      jumpi\n        /* \"#utility.yul\":11118:11136   */\n      tag_304\n      tag_157\n      jump\t// in\n    tag_304:\n        /* \"#utility.yul\":11103:11138   */\n    tag_303:\n        /* \"#utility.yul\":11160:11161   */\n      dup3\n        /* \"#utility.yul\":11157:11158   */\n      dup3\n        /* \"#utility.yul\":11153:11162   */\n      div\n        /* \"#utility.yul\":11148:11162   */\n      swap1\n      pop\n        /* \"#utility.yul\":10983:11168   */\n      swap3\n      swap2\n      pop\n      pop\n      jump\t// out\n        /* \"#utility.yul\":11174:11344   */\n    tag_159:\n        /* \"#utility.yul\":11314:11336   */\n      0x4e6f7420656e6f75676820617070726f76616c73000000000000000000000000\n        /* \"#utility.yul\":11310:11311   */\n      0x00\n        /* \"#utility.yul\":11302:11308   */\n      dup3\n        /* \"#utility.yul\":11298:11312   */\n      add\n        /* \"#utility.yul\":11291:11337   */\n      mstore\n        /* \"#utility.yul\":11174:11344   */\n      pop\n      jump\t// out\n        /* \"#utility.yul\":11350:11716   */\n    tag_160:\n        /* \"#utility.yul\":11492:11495   */\n      0x00\n        /* \"#utility.yul\":11513:11580   */\n      tag_307\n        /* \"#utility.yul\":11577:11579   */\n      0x14\n        /* \"#utility.yul\":11572:11575   */\n      dup4\n        /* \"#utility.yul\":11513:11580   */\n      tag_138\n      jump\t// in\n    tag_307:\n        /* \"#utility.yul\":11506:11580   */\n      swap2\n      pop\n        /* \"#utility.yul\":11589:11682   */\n      tag_308\n        /* \"#utility.yul\":11678:11681   */\n      dup3\n        /* \"#utility.yul\":11589:11682   */\n      tag_159\n      jump\t// in\n    tag_308:\n        /* \"#utility.yul\":11707:11709   */\n      0x20\n        /* \"#utility.yul\":11702:11705   */\n      dup3\n        /* \"#utility.yul\":11698:11710   */\n      add\n        /* \"#utility.yul\":11691:11710   */\n      swap1\n      pop\n        /* \"#utility.yul\":11350:11716   */\n      swap2\n      swap1\n      pop\n      jump\t// out\n        /* \"#utility.yul\":11722:12141   */\n    tag_86:\n        /* \"#utility.yul\":11888:11892   */\n      0x00\n        /* \"#utility.yul\":11926:11928   */\n      0x20\n        /* \"#utility.yul\":11915:11924   */\n      dup3\n        /* \"#utility.yul\":11911:11929   */\n      add\n        /* \"#utility.yul\":11903:11929   */\n      swap1\n      pop\n        /* \"#utility.yul\":11975:11984   */\n      dup2\n        /* \"#utility.yul\":11969:11973   */\n      dup2\n        /* \"#utility.yul\":11965:11985   */\n      sub\n        /* \"#utility.yul\":11961:11962   */\n      0x00\n        /* \"#utility.yul\":11950:11959   */\n      dup4\n        /* \"#utility.yul\":11946:11963   */\n      add\n        /* \"#utility.yul\":11939:11986   */\n      mstore\n        /* \"#utility.yul\":12003:12134   */\n      tag_310\n        /* \"#utility.yul\":12129:12133   */\n      dup2\n        /* \"#utility.yul\":12003:12134   */\n      tag_160\n      jump\t// in\n    tag_310:\n        /* \"#utility.yul\":11995:12134   */\n      swap1\n      pop\n        /* \"#utility.yul\":11722:12141   */\n      swap2\n      swap1\n      pop\n      jump\t// out\n        /* \"#utility.yul\":12147:12322   */\n    tag_161:\n        /* \"#utility.yul\":12287:12314   */\n      0x5265717565737420616c72656164792066696e616c697a656400000000000000\n        /* \"#utility.yul\":12283:12284   */\n      0x00\n        /* \"#utility.yul\":12275:12281   */\n      dup3\n        /* \"#utility.yul\":12271:12285   */\n      add\n        /* \"#utility.yul\":12264:12315   */\n      mstore\n        /* \"#utility.yul\":12147:12322   */\n      pop\n      jump\t// out\n        /* \"#utility.yul\":12328:12694   */\n    tag_162:\n        /* \"#utility.yul\":12470:12473   */\n      0x00\n        /* \"#utility.yul\":12491:12558   */\n      tag_313\n        /* \"#utility.yul\":12555:12557   */\n      0x19\n        /* \"#utility.yul\":12550:12553   */\n      dup4\n        /* \"#utility.yul\":12491:12558   */\n      tag_138\n      jump\t// in\n    tag_313:\n        /* \"#utility.yul\":12484:12558   */\n      swap2\n      pop\n        /* \"#utility.yul\":12567:12660   */\n      tag_314\n        /* \"#utility.yul\":12656:12659   */\n      dup3\n        /* \"#utility.yul\":12567:12660   */\n      tag_161\n      jump\t// in\n    tag_314:\n        /* \"#utility.yul\":12685:12687   */\n      0x20\n        /* \"#utility.yul\":12680:12683   */\n      dup3\n        /* \"#utility.yul\":12676:12688   */\n      add\n        /* \"#utility.yul\":12669:12688   */\n      swap1\n      pop\n        /* \"#utility.yul\":12328:12694   */\n      swap2\n      swap1\n      pop\n      jump\t// out\n        /* \"#utility.yul\":12700:13119   */\n    tag_89:\n        /* \"#utility.yul\":12866:12870   */\n      0x00\n        /* \"#utility.yul\":12904:12906   */\n      0x20\n        /* \"#utility.yul\":12893:12902   */\n      dup3\n        /* \"#utility.yul\":12889:12907   */\n      add\n        /* \"#utility.yul\":12881:12907   */\n      swap1\n      pop\n        /* \"#utility.yul\":12953:12962   */\n      dup2\n        /* \"#utility.yul\":12947:12951   */\n      dup2\n        /* \"#utility.yul\":12943:12963   */\n      sub\n        /* \"#utility.yul\":12939:12940   */\n      0x00\n        /* \"#utility.yul\":12928:12937   */\n      dup4\n        /* \"#utility.yul\":12924:12941   */\n      add\n        /* \"#utility.yul\":12917:12964   */\n      mstore\n        /* \"#utility.yul\":12981:13112   */\n      tag_316\n        /* \"#utility.yul\":13107:13111   */\n      dup2\n        /* \"#utility.yul\":12981:13112   */\n      tag_162\n      jump\t// in\n    tag_316:\n        /* \"#utility.yul\":12973:13112   */\n      swap1\n      pop\n        /* \"#utility.yul\":12700:13119   */\n      swap2\n      swap1\n      pop\n      jump\t// out\n        /* \"#utility.yul\":13125:13305   */\n    tag_163:\n        /* \"#utility.yul\":13173:13250   */\n      0x4e487b7100000000000000000000000000000000000000000000000000000000\n        /* \"#utility.yul\":13170:13171   */\n      0x00\n        /* \"#utility.yul\":13163:13251   */\n      mstore\n        /* \"#utility.yul\":13270:13274   */\n      0x22\n        /* \"#utility.yul\":13267:13268   */\n      0x04\n        /* \"#utility.yul\":13260:13275   */\n      mstore\n        /* \"#utility.yul\":13294:13298   */\n      0x24\n        /* \"#utility.yul\":13291:13292   */\n      0x00\n        /* \"#utility.yul\":13284:13299   */\n      revert\n        /* \"#utility.yul\":13311:13631   */\n    tag_97:\n        /* \"#utility.yul\":13355:13361   */\n      0x00\n        /* \"#utility.yul\":13392:13393   */\n      0x02\n        /* \"#utility.yul\":13386:13390   */\n      dup3\n        /* \"#utility.yul\":13382:13394   */\n      div\n        /* \"#utility.yul\":13372:13394   */\n      swap1\n      pop\n        /* \"#utility.yul\":13439:13440   */\n      0x01\n        /* \"#utility.yul\":13433:13437   */\n      dup3\n        /* \"#utility.yul\":13429:13441   */\n      and\n        /* \"#utility.yul\":13460:13478   */\n      dup1\n        /* \"#utility.yul\":13450:13531   */\n      tag_319\n      jumpi\n        /* \"#utility.yul\":13516:13520   */\n      0x7f\n        /* \"#utility.yul\":13508:13514   */\n      dup3\n        /* \"#utility.yul\":13504:13521   */\n      and\n        /* \"#utility.yul\":13494:13521   */\n      swap2\n      pop\n        /* \"#utility.yul\":13450:13531   */\n    tag_319:\n        /* \"#utility.yul\":13578:13580   */\n      0x20\n        /* \"#utility.yul\":13570:13576   */\n      dup3\n        /* \"#utility.yul\":13567:13581   */\n      lt\n        /* \"#utility.yul\":13547:13565   */\n      dup2\n        /* \"#utility.yul\":13544:13582   */\n      sub\n        /* \"#utility.yul\":13541:13625   */\n      tag_320\n      jumpi\n        /* \"#utility.yul\":13597:13615   */\n      tag_321\n      tag_163\n      jump\t// in\n    tag_321:\n        /* \"#utility.yul\":13541:13625   */\n    tag_320:\n        /* \"#utility.yul\":13362:13631   */\n      pop\n        /* \"#utility.yul\":13311:13631   */\n      swap2\n      swap1\n      pop\n      jump\t// out\n        /* \"#utility.yul\":13637:13778   */\n    tag_164:\n        /* \"#utility.yul\":13686:13690   */\n      0x00\n        /* \"#utility.yul\":13709:13712   */\n      dup2\n        /* \"#utility.yul\":13701:13712   */\n      swap1\n      pop\n        /* \"#utility.yul\":13732:13735   */\n      dup2\n        /* \"#utility.yul\":13729:13730   */\n      0x00\n        /* \"#utility.yul\":13722:13736   */\n      mstore\n        /* \"#utility.yul\":13766:13770   */\n      0x20\n        /* \"#utility.yul\":13763:13764   */\n      0x00\n        /* \"#utility.yul\":13753:13771   */\n      keccak256\n        /* \"#utility.yul\":13745:13771   */\n      swap1\n      pop\n        /* \"#utility.yul\":13637:13778   */\n      swap2\n      swap1\n      pop\n      jump\t// out\n        /* \"#utility.yul\":13784:13877   */\n    tag_165:\n        /* \"#utility.yul\":13821:13827   */\n      0x00\n        /* \"#utility.yul\":13868:13870   */\n      0x20\n        /* \"#utility.yul\":13863:13865   */\n      0x1f\n        /* \"#utility.yul\":13856:13861   */\n      dup4\n        /* \"#utility.yul\":13852:13866   */\n      add\n        /* \"#utility.yul\":13848:13871   */\n      div\n        /* \"#utility.yul\":13838:13871   */\n      swap1\n      pop\n        /* \"#utility.yul\":13784:13877   */\n      swap2\n      swap1\n      pop\n      jump\t// out\n        /* \"#utility.yul\":13883:13990   */\n    tag_166:\n        /* \"#utility.yul\":13927:13935   */\n      0x00\n        /* \"#utility.yul\":13977:13982   */\n      dup3\n        /* \"#utility.yul\":13971:13975   */\n      dup3\n        /* \"#utility.yul\":13967:13983   */\n      shl\n        /* \"#utility.yul\":13946:13983   */\n      swap1\n      pop\n        /* \"#utility.yul\":13883:13990   */\n      swap3\n      swap2\n      pop\n      pop\n      jump\t// out\n        /* \"#utility.yul\":13996:14389   */\n    tag_167:\n        /* \"#utility.yul\":14065:14071   */\n      0x00\n        /* \"#utility.yul\":14115:14116   */\n      0x08\n        /* \"#utility.yul\":14103:14113   */\n      dup4\n        /* \"#utility.yul\":14099:14117   */\n      mul\n        /* \"#utility.yul\":14138:14235   */\n      tag_326\n        /* \"#utility.yul\":14168:14234   */\n      0xffffffffffffffffffffffffffffffffffffffffffffffffffffffffffffffff\n        /* \"#utility.yul\":14157:14166   */\n      dup3\n        /* \"#utility.yul\":14138:14235   */\n      tag_166\n      jump\t// in\n    tag_326:\n        /* \"#utility.yul\":14256:14295   */\n      tag_327\n        /* \"#utility.yul\":14286:14294   */\n      dup7\n        /* \"#utility.yul\":14275:14284   */\n      dup4\n        /* \"#utility.yul\":14256:14295   */\n      tag_166\n      jump\t// in\n    tag_327:\n        /* \"#utility.yul\":14244:14295   */\n      swap6\n      pop\n        /* \"#utility.yul\":14328:14332   */\n      dup1\n        /* \"#utility.yul\":14324:14333   */\n      not\n        /* \"#utility.yul\":14317:14322   */\n      dup5\n        /* \"#utility.yul\":14313:14334   */\n      and\n        /* \"#utility.yul\":14304:14334   */\n      swap4\n      pop\n        /* \"#utility.yul\":14377:14381   */\n      dup1\n        /* \"#utility.yul\":14367:14375   */\n      dup7\n        /* \"#utility.yul\":14363:14382   */\n      and\n        /* \"#utility.yul\":14356:14361   */\n      dup5\n        /* \"#utility.yul\":14353:14383   */\n      or\n        /* \"#utility.yul\":14343:14383   */\n      swap3\n      pop\n        /* \"#utility.yul\":14072:14389   */\n      pop\n      pop\n        /* \"#utility.yul\":13996:14389   */\n      swap4\n      swap3\n      pop\n      pop\n      pop\n      jump\t// out\n        /* \"#utility.yul\":14395:14455   */\n    tag_168:\n        /* \"#utility.yul\":14423:14426   */\n      0x00\n        /* \"#utility.yul\":14444:14449   */\n      dup2\n        /* \"#utility.yul\":14437:14449   */\n      swap1\n      pop\n        /* \"#utility.yul\":14395:14455   */\n      swap2\n      swap1\n      pop\n      jump\t// out\n        /* \"#utility.yul\":14461:14603   */\n    tag_169:\n        /* \"#utility.yul\":14511:14520   */\n      0x00\n        /* \"#utility.yul\":14544:14597   */\n      tag_330\n        /* \"#utility.yul\":14562:14596   */\n      tag_331\n        /* \"#utility.yul\":14571:14595   */\n      tag_332\n        /* \"#utility.yul\":14589:14594   */\n      dup5\n        /* \"#utility.yul\":14571:14595   */\n      tag_126\n      jump\t// in\n    tag_332:\n        /* \"#utility.yul\":14562:14596   */\n      tag_168\n      jump\t// in\n    tag_331:\n        /* \"#utility.yul\":14544:14597   */\n      tag_126\n      jump\t// in\n    tag_330:\n        /* \"#utility.yul\":14531:14597   */\n      swap1\n      pop\n        /* \"#utility.yul\":14461:14603   */\n      swap2\n      swap1\n      pop\n      jump\t// out\n        /* \"#utility.yul\":14609:14684   */\n    tag_170:\n        /* \"#utility.yul\":14652:14655   */\n      0x00\n        /* \"#utility.yul\":14673:14678   */\n      dup2\n        /* \"#utility.yul\":14666:14678   */\n      swap1\n      pop\n        /* \"#utility.yul\":14609:14684   */\n      swap2\n      swap1\n      pop\n      jump\t// out\n        /* \"#utility.yul\":14690:14959   */\n    tag_171:\n        /* \"#utility.yul\":14800:14839   */\n      tag_335\n        /* \"#utility.yul\":14831:14838   */\n      dup4\n        /* \"#utility.yul\":14800:14839   */\n      tag_169\n      jump\t// in\n    tag_335:\n        /* \"#utility.yul\":14861:14952   */\n      tag_336\n        /* \"#utility.yul\":14910:14951   */\n      tag_337\n        /* \"#utility.yul\":14934:14950   */\n      dup3\n        /* \"#utility.yul\":14910:14951   */\n      tag_170\n      jump\t// in\n    tag_337:\n        /* \"#utility.yul\":14902:14908   */\n      dup5\n        /* \"#utility.yul\":14895:14899   */\n      dup5\n        /* \"#utility.yul\":14889:14900   */\n      sload\n        /* \"#utility.yul\":14861:14952   */\n      tag_167\n      jump\t// in\n    tag_336:\n        /* \"#utility.yul\":14855:14859   */\n      dup3\n        /* \"#utility.yul\":14848:14953   */\n      sstore\n        /* \"#utility.yul\":14766:14959   */\n      pop\n        /* \"#utility.yul\":14690:14959   */\n      pop\n      pop\n      pop\n      jump\t// out\n        /* \"#utility.yul\":14965:15038   */\n    tag_172:\n        /* \"#utility.yul\":15010:15013   */\n      0x00\n        /* \"#utility.yul\":14965:15038   */\n      swap1\n      jump\t// out\n        /* \"#utility.yul\":15044:15233   */\n    tag_173:\n        /* \"#utility.yul\":15121:15153   */\n      tag_340\n      tag_172\n      jump\t// in\n    tag_340:\n        /* \"#utility.yul\":15162:15227   */\n      tag_341\n        /* \"#utility.yul\":15220:15226   */\n      dup2\n        /* \"#utility.yul\":15212:15218   */\n      dup5\n        /* \"#utility.yul\":15206:15210   */\n      dup5\n        /* \"#utility.yul\":15162:15227   */\n      tag_171\n      jump\t// in\n    tag_341:\n        /* \"#utility.yul\":15097:15233   */\n      pop\n        /* \"#utility.yul\":15044:15233   */\n      pop\n      pop\n      jump\t// out\n        /* \"#utility.yul\":15239:15425   */\n    tag_174:\n        /* \"#utility.yul\":15299:15419   */\n    tag_343:\n        /* \"#utility.yul\":15316:15319   */\n      dup2\n        /* \"#utility.yul\":15309:15314   */\n      dup2\n        /* \"#utility.yul\":15306:15320   */\n      lt\n        /* \"#utility.yul\":15299:15419   */\n      iszero\n      tag_345\n      jumpi\n        /* \"#utility.yul\":15370:15409   */\n      tag_346\n        /* \"#utility.yul\":15407:15408   */\n      0x00\n        /* \"#utility.yul\":15400:15405   */\n      dup3\n        /* \"#utility.yul\":15370:15409   */\n      tag_173\n      jump\t// in\n    tag_346:\n        /* \"#utility.yul\":15343:15344   */\n      0x01\n        /* \"#utility.yul\":15336:15341   */\n      dup2\n        /* \"#utility.yul\":15332:15345   */\n      add\n        /* \"#utility.yul\":15323:15345   */\n      swap1\n      pop\n        /* \"#utility.yul\":15299:15419   */\n      jump(tag_343)\n    tag_345:\n        /* \"#utility.yul\":15239:15425   */\n      pop\n      pop\n      jump\t// out\n        /* \"#utility.yul\":15431:15974   */\n    tag_175:\n        /* \"#utility.yul\":15532:15534   */\n      0x1f\n        /* \"#utility.yul\":15527:15530   */\n      dup3\n        /* \"#utility.yul\":15524:15535   */\n      gt\n        /* \"#utility.yul\":15521:15967   */\n      iszero\n      tag_348\n      jumpi\n        /* \"#utility.yul\":15566:15604   */\n      tag_349\n        /* \"#utility.yul\":15598:15603   */\n      dup2\n        /* \"#utility.yul\":15566:15604   */\n      tag_164\n      jump\t// in\n    tag_349:\n        /* \"#utility.yul\":15650:15679   */\n      tag_350\n        /* \"#utility.yul\":15668:15678   */\n      dup5\n        /* \"#utility.yul\":15650:15679   */\n      tag_165\n      jump\t// in\n    tag_350:\n        /* \"#utility.yul\":15640:15648   */\n      dup2\n        /* \"#utility.yul\":15636:15680   */\n      add\n        /* \"#utility.yul\":15833:15835   */\n      0x20\n        /* \"#utility.yul\":15821:15831   */\n      dup6\n        /* \"#utility.yul\":15818:15836   */\n      lt\n        /* \"#utility.yul\":15815:15864   */\n      iszero\n      tag_351\n      jumpi\n        /* \"#utility.yul\":15854:15862   */\n      dup2\n        /* \"#utility.yul\":15839:15862   */\n      swap1\n      pop\n        /* \"#utility.yul\":15815:15864   */\n    tag_351:\n        /* \"#utility.yul\":15877:15957   */\n      tag_352\n        /* \"#utility.yul\":15933:15955   */\n      tag_353\n        /* \"#utility.yul\":15951:15954   */\n      dup6\n        /* \"#utility.yul\":15933:15955   */\n      tag_165\n      jump\t// in\n    tag_353:\n        /* \"#utility.yul\":15923:15931   */\n      dup4\n        /* \"#utility.yul\":15919:15956   */\n      add\n        /* \"#utility.yul\":15906:15917   */\n      dup3\n        /* \"#utility.yul\":15877:15957   */\n      tag_174\n      jump\t// in\n    tag_352:\n        /* \"#utility.yul\":15536:15967   */\n      pop\n      pop\n        /* \"#utility.yul\":15521:15967   */\n    tag_348:\n        /* \"#utility.yul\":15431:15974   */\n      pop\n      pop\n      pop\n      jump\t// out\n        /* \"#utility.yul\":15980:16097   */\n    tag_176:\n        /* \"#utility.yul\":16034:16042   */\n      0x00\n        /* \"#utility.yul\":16084:16089   */\n      dup3\n        /* \"#utility.yul\":16078:16082   */\n      dup3\n        /* \"#utility.yul\":16074:16090   */\n      shr\n        /* \"#utility.yul\":16053:16090   */\n      swap1\n      pop\n        /* \"#utility.yul\":15980:16097   */\n      swap3\n      swap2\n      pop\n      pop\n      jump\t// out\n        /* \"#utility.yul\":16103:16272   */\n    tag_177:\n        /* \"#utility.yul\":16147:16153   */\n      0x00\n        /* \"#utility.yul\":16180:16231   */\n      tag_356\n        /* \"#utility.yul\":16228:16229   */\n      0x00\n        /* \"#utility.yul\":16224:16230   */\n      not\n        /* \"#utility.yul\":16216:16221   */\n      dup5\n        /* \"#utility.yul\":16213:16214   */\n      0x08\n        /* \"#utility.yul\":16209:16222   */\n      mul\n        /* \"#utility.yul\":16180:16231   */\n      tag_176\n      jump\t// in\n    tag_356:\n        /* \"#utility.yul\":16176:16232   */\n      not\n        /* \"#utility.yul\":16261:16265   */\n      dup1\n        /* \"#utility.yul\":16255:16259   */\n      dup4\n        /* \"#utility.yul\":16251:16266   */\n      and\n        /* \"#utility.yul\":16241:16266   */\n      swap2\n      pop\n        /* \"#utility.yul\":16154:16272   */\n      pop\n        /* \"#utility.yul\":16103:16272   */\n      swap3\n      swap2\n      pop\n      pop\n      jump\t// out\n        /* \"#utility.yul\":16277:16572   */\n    tag_178:\n        /* \"#utility.yul\":16353:16357   */\n      0x00\n        /* \"#utility.yul\":16499:16528   */\n      tag_358\n        /* \"#utility.yul\":16524:16527   */\n      dup4\n        /* \"#utility.yul\":16518:16522   */\n      dup4\n        /* \"#utility.yul\":16499:16528   */\n      tag_177\n      jump\t// in\n    tag_358:\n        /* \"#utility.yul\":16491:16528   */\n      swap2\n      pop\n        /* \"#utility.yul\":16561:16564   */\n      dup3\n        /* \"#utility.yul\":16558:16559   */\n      0x02\n        /* \"#utility.yul\":16554:16565   */\n      mul\n        /* \"#utility.yul\":16548:16552   */\n      dup3\n        /* \"#utility.yul\":16545:16566   */\n      or\n        /* \"#utility.yul\":16537:16566   */\n      swap1\n      pop\n        /* \"#utility.yul\":16277:16572   */\n      swap3\n      swap2\n      pop\n      pop\n      jump\t// out\n        /* \"#utility.yul\":16577:17972   */\n    tag_108:\n        /* \"#utility.yul\":16694:16731   */\n      tag_360\n        /* \"#utility.yul\":16727:16730   */\n      dup3\n        /* \"#utility.yul\":16694:16731   */\n      tag_137\n      jump\t// in\n    tag_360:\n        /* \"#utility.yul\":16796:16814   */\n      0xffffffffffffffff\n        /* \"#utility.yul\":16788:16794   */\n      dup2\n        /* \"#utility.yul\":16785:16815   */\n      gt\n        /* \"#utility.yul\":16782:16838   */\n      iszero\n      tag_361\n      jumpi\n        /* \"#utility.yul\":16818:16836   */\n      tag_362\n      tag_146\n      jump\t// in\n    tag_362:\n        /* \"#utility.yul\":16782:16838   */\n    tag_361:\n        /* \"#utility.yul\":16862:16900   */\n      tag_363\n        /* \"#utility.yul\":16894:16898   */\n      dup3\n        /* \"#utility.yul\":16888:16899   */\n      sload\n        /* \"#utility.yul\":16862:16900   */\n      tag_97\n      jump\t// in\n    tag_363:\n        /* \"#utility.yul\":16947:17014   */\n      tag_364\n        /* \"#utility.yul\":17007:17013   */\n      dup3\n        /* \"#utility.yul\":16999:17005   */\n      dup3\n        /* \"#utility.yul\":16993:16997   */\n      dup6\n        /* \"#utility.yul\":16947:17014   */\n      tag_175\n      jump\t// in\n    tag_364:\n        /* \"#utility.yul\":17041:17042   */\n      0x00\n        /* \"#utility.yul\":17065:17069   */\n      0x20\n        /* \"#utility.yul\":17052:17069   */\n      swap1\n      pop\n        /* \"#utility.yul\":17097:17099   */\n      0x1f\n        /* \"#utility.yul\":17089:17095   */\n      dup4\n        /* \"#utility.yul\":17086:17100   */\n      gt\n        /* \"#utility.yul\":17114:17115   */\n      0x01\n        /* \"#utility.yul\":17109:17727   */\n      dup2\n      eq\n      tag_366\n      jumpi\n        /* \"#utility.yul\":17771:17772   */\n      0x00\n        /* \"#utility.yul\":17788:17794   */\n      dup5\n        /* \"#utility.yul\":17785:17862   */\n      iszero\n      tag_367\n      jumpi\n        /* \"#utility.yul\":17837:17846   */\n      dup3\n        /* \"#utility.yul\":17832:17835   */\n      dup8\n        /* \"#utility.yul\":17828:17847   */\n      add\n        /* \"#utility.yul\":17822:17848   */\n      mload\n        /* \"#utility.yul\":17813:17848   */\n      swap1\n      pop\n        /* \"#utility.yul\":17785:17862   */\n    tag_367:\n        /* \"#utility.yul\":17888:17955   */\n      tag_368\n        /* \"#utility.yul\":17948:17954   */\n      dup6\n        /* \"#utility.yul\":17941:17946   */\n      dup3\n        /* \"#utility.yul\":17888:17955   */\n      tag_178\n      jump\t// in\n    tag_368:\n        /* \"#utility.yul\":17882:17886   */\n      dup7\n        /* \"#utility.yul\":17875:17956   */\n      sstore\n        /* \"#utility.yul\":17744:17966   */\n      pop\n        /* \"#utility.yul\":17079:17966   */\n      jump(tag_365)\n        /* \"#utility.yul\":17109:17727   */\n    tag_366:\n        /* \"#utility.yul\":17161:17165   */\n      0x1f\n        /* \"#utility.yul\":17157:17166   */\n      not\n        /* \"#utility.yul\":17149:17155   */\n      dup5\n        /* \"#utility.yul\":17145:17167   */\n      and\n        /* \"#utility.yul\":17195:17232   */\n      tag_369\n        /* \"#utility.yul\":17227:17231   */\n      dup7\n        /* \"#utility.yul\":17195:17232   */\n      tag_164\n      jump\t// in\n    tag_369:\n        /* \"#utility.yul\":17254:17255   */\n      0x00\n        /* \"#utility.yul\":17268:17476   */\n    tag_370:\n        /* \"#utility.yul\":17282:17289   */\n      dup3\n        /* \"#utility.yul\":17279:17280   */\n      dup2\n        /* \"#utility.yul\":17276:17290   */\n      lt\n        /* \"#utility.yul\":17268:17476   */\n      iszero\n      tag_372\n      jumpi\n        /* \"#utility.yul\":17361:17370   */\n      dup5\n        /* \"#utility.yul\":17356:17359   */\n      dup10\n        /* \"#utility.yul\":17352:17371   */\n      add\n        /* \"#utility.yul\":17346:17372   */\n      mload\n        /* \"#utility.yul\":17338:17344   */\n      dup3\n        /* \"#utility.yul\":17331:17373   */\n      sstore\n        /* \"#utility.yul\":17412:17413   */\n      0x01\n        /* \"#utility.yul\":17404:17410   */\n      dup3\n        /* \"#utility.yul\":17400:17414   */\n      add\n        /* \"#utility.yul\":17390:17414   */\n      swap2\n      pop\n        /* \"#utility.yul\":17459:17461   */\n      0x20\n        /* \"#utility.yul\":17448:17457   */\n      dup6\n        /* \"#utility.yul\":17444:17462   */\n      add\n        /* \"#utility.yul\":17431:17462   */\n      swap5\n      pop\n        /* \"#utility.yul\":17305:17309   */\n      0x20\n        /* \"#utility.yul\":17302:17303   */\n      dup2\n        /* \"#utility.yul\":17298:17310   */\n      add\n        /* \"#utility.yul\":17293:17310   */\n      swap1\n      pop\n        /* \"#utility.yul\":17268:17476   */\n      jump(tag_370)\n    tag_372:\n        /* \"#utility.yul\":17504:17510   */\n      dup7\n        /* \"#utility.yul\":17495:17502   */\n      dup4\n        /* \"#utility.yul\":17492:17511   */\n      lt\n        /* \"#utility.yul\":17489:17668   */\n      iszero\n      tag_373\n      jumpi\n        /* \"#utility.yul\":17562:17571   */\n      dup5\n        /* \"#utility.yul\":17557:17560   */\n      dup10\n        /* \"#utility.yul\":17553:17572   */\n      add\n        /* \"#utility.yul\":17547:17573   */\n      mload\n        /* \"#utility.yul\":17605:17653   */\n      tag_374\n        /* \"#utility.yul\":17647:17651   */\n      0x1f\n        /* \"#utility.yul\":17639:17645   */\n      dup10\n        /* \"#utility.yul\":17635:17652   */\n      and\n        /* \"#utility.yul\":17624:17633   */\n      dup3\n        /* \"#utility.yul\":17605:17653   */\n      tag_177\n      jump\t// in\n    tag_374:\n        /* \"#utility.yul\":17597:17603   */\n      dup4\n        /* \"#utility.yul\":17590:17654   */\n      sstore\n        /* \"#utility.yul\":17512:17668   */\n      pop\n        /* \"#utility.yul\":17489:17668   */\n    tag_373:\n        /* \"#utility.yul\":17714:17715   */\n      0x01\n        /* \"#utility.yul\":17710:17711   */\n      0x02\n        /* \"#utility.yul\":17702:17708   */\n      dup9\n        /* \"#utility.yul\":17698:17712   */\n      mul\n        /* \"#utility.yul\":17694:17716   */\n      add\n        /* \"#utility.yul\":17688:17692   */\n      dup9\n        /* \"#utility.yul\":17681:17717   */\n      sstore\n        /* \"#utility.yul\":17116:17727   */\n      pop\n      pop\n      pop\n        /* \"#utility.yul\":17079:17966   */\n    tag_365:\n      pop\n        /* \"#utility.yul\":16669:17972   */\n      pop\n      pop\n      pop\n        /* \"#utility.yul\":16577:17972   */\n      pop\n      pop\n      jump\t// out\n        /* \"#utility.yul\":17978:18200   */\n    tag_179:\n        /* \"#utility.yul\":18118:18152   */\n      0x4d696e696d756d20636f6e747269627574696f6e206973206e6f74206d617463\n        /* \"#utility.yul\":18114:18115   */\n      0x00\n        /* \"#utility.yul\":18106:18112   */\n      dup3\n        /* \"#utility.yul\":18102:18116   */\n      add\n        /* \"#utility.yul\":18095:18153   */\n      mstore\n        /* \"#utility.yul\":18187:18192   */\n      0x6865640000000000000000000000000000000000000000000000000000000000\n        /* \"#utility.yul\":18182:18184   */\n      0x20\n        /* \"#utility.yul\":18174:18180   */\n      dup3\n        /* \"#utility.yul\":18170:18185   */\n      add\n        /* \"#utility.yul\":18163:18193   */\n      mstore\n        /* \"#utility.yul\":17978:18200   */\n      pop\n      jump\t// out\n        /* \"#utility.yul\":18206:18572   */\n    tag_180:\n        /* \"#utility.yul\":18348:18351   */\n      0x00\n        /* \"#utility.yul\":18369:18436   */\n      tag_377\n        /* \"#utility.yul\":18433:18435   */\n      0x23\n        /* \"#utility.yul\":18428:18431   */\n      dup4\n        /* \"#utility.yul\":18369:18436   */\n      tag_138\n      jump\t// in\n    tag_377:\n        /* \"#utility.yul\":18362:18436   */\n      swap2\n      pop\n        /* \"#utility.yul\":18445:18538   */\n      tag_378\n        /* \"#utility.yul\":18534:18537   */\n      dup3\n        /* \"#utility.yul\":18445:18538   */\n      tag_179\n      jump\t// in\n    tag_378:\n        /* \"#utility.yul\":18563:18565   */\n      0x40\n        /* \"#utility.yul\":18558:18561   */\n      dup3\n        /* \"#utility.yul\":18554:18566   */\n      add\n        /* \"#utility.yul\":18547:18566   */\n      swap1\n      pop\n        /* \"#utility.yul\":18206:18572   */\n      swap2\n      swap1\n      pop\n      jump\t// out\n        /* \"#utility.yul\":18578:18997   */\n    tag_112:\n        /* \"#utility.yul\":18744:18748   */\n      0x00\n        /* \"#utility.yul\":18782:18784   */\n      0x20\n        /* \"#utility.yul\":18771:18780   */\n      dup3\n        /* \"#utility.yul\":18767:18785   */\n      add\n        /* \"#utility.yul\":18759:18785   */\n      swap1\n      pop\n        /* \"#utility.yul\":18831:18840   */\n      dup2\n        /* \"#utility.yul\":18825:18829   */\n      dup2\n        /* \"#utility.yul\":18821:18841   */\n      sub\n        /* \"#utility.yul\":18817:18818   */\n      0x00\n        /* \"#utility.yul\":18806:18815   */\n      dup4\n        /* \"#utility.yul\":18802:18819   */\n      add\n        /* \"#utility.yul\":18795:18842   */\n      mstore\n        /* \"#utility.yul\":18859:18990   */\n      tag_380\n        /* \"#utility.yul\":18985:18989   */\n      dup2\n        /* \"#utility.yul\":18859:18990   */\n      tag_180\n      jump\t// in\n    tag_380:\n        /* \"#utility.yul\":18851:18990   */\n      swap1\n      pop\n        /* \"#utility.yul\":18578:18997   */\n      swap2\n      swap1\n      pop\n      jump\t// out\n        /* \"#utility.yul\":19003:19236   */\n    tag_115:\n        /* \"#utility.yul\":19042:19045   */\n      0x00\n        /* \"#utility.yul\":19065:19089   */\n      tag_382\n        /* \"#utility.yul\":19083:19088   */\n      dup3\n        /* \"#utility.yul\":19065:19089   */\n      tag_126\n      jump\t// in\n    tag_382:\n        /* \"#utility.yul\":19056:19089   */\n      swap2\n      pop\n        /* \"#utility.yul\":19111:19177   */\n      0xffffffffffffffffffffffffffffffffffffffffffffffffffffffffffffffff\n        /* \"#utility.yul\":19104:19109   */\n      dup3\n        /* \"#utility.yul\":19101:19178   */\n      sub\n        /* \"#utility.yul\":19098:19201   */\n      tag_383\n      jumpi\n        /* \"#utility.yul\":19181:19199   */\n      tag_384\n      tag_158\n      jump\t// in\n    tag_384:\n        /* \"#utility.yul\":19098:19201   */\n    tag_383:\n        /* \"#utility.yul\":19228:19229   */\n      0x01\n        /* \"#utility.yul\":19221:19226   */\n      dup3\n        /* \"#utility.yul\":19217:19230   */\n      add\n        /* \"#utility.yul\":19210:19230   */\n      swap1\n      pop\n        /* \"#utility.yul\":19003:19236   */\n      swap2\n      swap1\n      pop\n      jump\t// out\n\n    auxdata: 0xa264697066735822122095c6a08d8bfd5fa2a4dbe260f12e2ab57a25ad18d5e06d3053d498e7d487acdd64736f6c63430008130033\n}\n","bytecode":{"linkReferences":{},"object":"60806040523480156200001157600080fd5b50604051620016953803806200169583398181016040528101906200003791906200012b565b806000806101000a81548173ffffffffffffffffffffffffffffffffffffffff021916908373ffffffffffffffffffffffffffffffffffffffff16021790555081600181905550505062000172565b600080fd5b6000819050919050565b620000a0816200008b565b8114620000ac57600080fd5b50565b600081519050620000c08162000095565b92915050565b600073ffffffffffffffffffffffffffffffffffffffff82169050919050565b6000620000f382620000c6565b9050919050565b6200010581620000e6565b81146200011157600080fd5b50565b6000815190506200012581620000fa565b92915050565b6000806040838503121562000145576200014462000086565b5b60006200015585828601620000af565b9250506020620001688582860162000114565b9150509250929050565b61151380620001826000396000f3fe6080604052600436106100a75760003560e01c806381d12c581161006457806381d12c58146101d457806382fde093146102155780638a9cfd5514610240578063937e09b114610269578063d7bb99ba14610294578063d7d1bbdb1461029e576100a7565b806303441006146100ac5780630a144391146100d557806333f449e5146101125780633410452a1461014f5780634051ddac1461017a578063481c6a75146101a9575b600080fd5b3480156100b857600080fd5b506100d360048036038101906100ce9190610a73565b6102c7565b005b3480156100e157600080fd5b506100fc60048036038101906100f79190610afe565b6104b1565b6040516101099190610b46565b60405180910390f35b34801561011e57600080fd5b5061013960048036038101906101349190610b61565b6104d1565b6040516101469190610b46565b60405180910390f35b34801561015b57600080fd5b50610164610500565b6040516101719190610bb0565b60405180910390f35b34801561018657600080fd5b5061018f61050d565b6040516101a0959493929190610bda565b60405180910390f35b3480156101b557600080fd5b506101be610554565b6040516101cb9190610c2d565b60405180910390f35b3480156101e057600080fd5b506101fb60048036038101906101f69190610a73565b610578565b60405161020c959493929190610cf9565b60405180910390f35b34801561022157600080fd5b5061022a610673565b6040516102379190610bb0565b60405180910390f35b34801561024c57600080fd5b5061026760048036038101906102629190610eb4565b610679565b005b34801561027557600080fd5b5061027e6107b6565b60405161028b9190610bb0565b60405180910390f35b61029c6107bc565b005b3480156102aa57600080fd5b506102c560048036038101906102c09190610a73565b6108c4565b005b60008054906101000a900473ffffffffffffffffffffffffffffffffffffffff1673ffffffffffffffffffffffffffffffffffffffff163373ffffffffffffffffffffffffffffffffffffffff1614610355576040517f08c379a000000000000000000000000000000000000000000000000000000000815260040161034c90610f6f565b60405180910390fd5b60006005828154811061036b5761036a610f8f565b5b90600052602060002090600402019050600260035461038a919061101c565b8160030154116103cf576040517f08c379a00000000000000000000000000000000000000000000000000000000081526004016103c690611099565b60405180910390fd5b8060020160149054906101000a900460ff1615610421576040517f08c379a000000000000000000000000000000000000000000000000000000000815260040161041890611105565b60405180910390fd5b8060020160009054906101000a900473ffffffffffffffffffffffffffffffffffffffff1673ffffffffffffffffffffffffffffffffffffffff166108fc82600101549081150290604051600060405180830381858888f1935050505015801561048f573d6000803e3d6000fd5b5060018160020160146101000a81548160ff0219169083151502179055505050565b60026020528060005260406000206000915054906101000a900460ff1681565b60046020528160005260406000206020528060005260406000206000915091509054906101000a900460ff1681565b6000600580549050905090565b60008060008060006001544760058054905060035460008054906101000a900473ffffffffffffffffffffffffffffffffffffffff16945094509450945094509091929394565b60008054906101000a900473ffffffffffffffffffffffffffffffffffffffff1681565b6005818154811061058857600080fd5b90600052602060002090600402016000915090508060000180546105ab90611154565b80601f01602080910402602001604051908101604052809291908181526020018280546105d790611154565b80156106245780601f106105f957610100808354040283529160200191610624565b820191906000526020600020905b81548152906001019060200180831161060757829003601f168201915b5050505050908060010154908060020160009054906101000a900473ffffffffffffffffffffffffffffffffffffffff16908060020160149054906101000a900460ff16908060030154905085565b60035481565b60008054906101000a900473ffffffffffffffffffffffffffffffffffffffff1673ffffffffffffffffffffffffffffffffffffffff163373ffffffffffffffffffffffffffffffffffffffff1614610707576040517f08c379a00000000000000000000000000000000000000000000000000000000081526004016106fe90610f6f565b60405180910390fd5b6000600560018160018154018082558091505003906000526020600020906004020190508381600001908161073c9190611331565b50828160010181905550818160020160006101000a81548173ffffffffffffffffffffffffffffffffffffffff021916908373ffffffffffffffffffffffffffffffffffffffff16021790555060008160020160146101000a81548160ff0219169083151502179055506000816003018190555050505050565b60015481565b6001543411610800576040517f08c379a00000000000000000000000000000000000000000000000000000000081526004016107f790611475565b60405180910390fd5b600260003373ffffffffffffffffffffffffffffffffffffffff1673ffffffffffffffffffffffffffffffffffffffff16815260200190815260200160002060009054906101000a900460ff166108c2576001600260003373ffffffffffffffffffffffffffffffffffffffff1673ffffffffffffffffffffffffffffffffffffffff16815260200190815260200160002060006101000a81548160ff021916908315150217905550600360008154809291906108bc90611495565b91905055505b565b600260003373ffffffffffffffffffffffffffffffffffffffff1673ffffffffffffffffffffffffffffffffffffffff16815260200190815260200160002060009054906101000a900460ff1661091a57600080fd5b6004600082815260200190815260200160002060003373ffffffffffffffffffffffffffffffffffffffff1673ffffffffffffffffffffffffffffffffffffffff16815260200190815260200160002060009054906101000a900460ff161561098257600080fd5b60016004600083815260200190815260200160002060003373ffffffffffffffffffffffffffffffffffffffff1673ffffffffffffffffffffffffffffffffffffffff16815260200190815260200160002060006101000a81548160ff021916908315150217905550600581815481106109ff576109fe610f8f565b5b90600052602060002090600402016003016000815480929190610a2190611495565b919050555050565b6000604051905090565b600080fd5b600080fd5b6000819050919050565b610a5081610a3d565b8114610a5b57600080fd5b50565b600081359050610a6d81610a47565b92915050565b600060208284031215610a8957610a88610a33565b5b6000610a9784828501610a5e565b91505092915050565b600073ffffffffffffffffffffffffffffffffffffffff82169050919050565b6000610acb82610aa0565b9050919050565b610adb81610ac0565b8114610ae657600080fd5b50565b600081359050610af881610ad2565b92915050565b600060208284031215610b1457610b13610a33565b5b6000610b2284828501610ae9565b91505092915050565b60008115159050919050565b610b4081610b2b565b82525050565b6000602082019050610b5b6000830184610b37565b92915050565b60008060408385031215610b7857610b77610a33565b5b6000610b8685828601610a5e565b9250506020610b9785828601610ae9565b9150509250929050565b610baa81610a3d565b82525050565b6000602082019050610bc56000830184610ba1565b92915050565b610bd481610ac0565b82525050565b600060a082019050610bef6000830188610ba1565b610bfc6020830187610ba1565b610c096040830186610ba1565b610c166060830185610ba1565b610c236080830184610bcb565b9695505050505050565b6000602082019050610c426000830184610bcb565b92915050565b600081519050919050565b600082825260208201905092915050565b60005b83811015610c82578082015181840152602081019050610c67565b60008484015250505050565b6000601f19601f8301169050919050565b6000610caa82610c48565b610cb48185610c53565b9350610cc4818560208601610c64565b610ccd81610c8e565b840191505092915050565b6000610ce382610aa0565b9050919050565b610cf381610cd8565b82525050565b600060a0820190508181036000830152610d138188610c9f565b9050610d226020830187610ba1565b610d2f6040830186610cea565b610d3c6060830185610b37565b610d496080830184610ba1565b9695505050505050565b600080fd5b600080fd5b7f4e487b7100000000000000000000000000000000000000000000000000000000600052604160045260246000fd5b610d9582610c8e565b810181811067ffffffffffffffff82111715610db457610db3610d5d565b5b80604052505050565b6000610dc7610a29565b9050610dd38282610d8c565b919050565b600067ffffffffffffffff821115610df357610df2610d5d565b5b610dfc82610c8e565b9050602081019050919050565b82818337600083830152505050565b6000610e2b610e2684610dd8565b610dbd565b905082815260208101848484011115610e4757610e46610d58565b5b610e52848285610e09565b509392505050565b600082601f830112610e6f57610e6e610d53565b5b8135610e7f848260208601610e18565b91505092915050565b610e9181610cd8565b8114610e9c57600080fd5b50565b600081359050610eae81610e88565b92915050565b600080600060608486031215610ecd57610ecc610a33565b5b600084013567ffffffffffffffff811115610eeb57610eea610a38565b5b610ef786828701610e5a565b9350506020610f0886828701610a5e565b9250506040610f1986828701610e9f565b9150509250925092565b7f43616c6c6572206973206e6f7420746865206d616e6167657200000000000000600082015250565b6000610f59601983610c53565b9150610f6482610f23565b602082019050919050565b60006020820190508181036000830152610f8881610f4c565b9050919050565b7f4e487b7100000000000000000000000000000000000000000000000000000000600052603260045260246000fd5b7f4e487b7100000000000000000000000000000000000000000000000000000000600052601260045260246000fd5b7f4e487b7100000000000000000000000000000000000000000000000000000000600052601160045260246000fd5b600061102782610a3d565b915061103283610a3d565b92508261104257611041610fbe565b5b828204905092915050565b7f4e6f7420656e6f75676820617070726f76616c73000000000000000000000000600082015250565b6000611083601483610c53565b915061108e8261104d565b602082019050919050565b600060208201905081810360008301526110b281611076565b9050919050565b7f5265717565737420616c72656164792066696e616c697a656400000000000000600082015250565b60006110ef601983610c53565b91506110fa826110b9565b602082019050919050565b6000602082019050818103600083015261111e816110e2565b9050919050565b7f4e487b7100000000000000000000000000000000000000000000000000000000600052602260045260246000fd5b6000600282049050600182168061116c57607f821691505b60208210810361117f5761117e611125565b5b50919050565b60008190508160005260206000209050919050565b60006020601f8301049050919050565b600082821b905092915050565b6000600883026111e77fffffffffffffffffffffffffffffffffffffffffffffffffffffffffffffffff826111aa565b6111f186836111aa565b95508019841693508086168417925050509392505050565b6000819050919050565b600061122e61122961122484610a3d565b611209565b610a3d565b9050919050565b6000819050919050565b61124883611213565b61125c61125482611235565b8484546111b7565b825550505050565b600090565b611271611264565b61127c81848461123f565b505050565b5b818110156112a057611295600082611269565b600181019050611282565b5050565b601f8211156112e5576112b681611185565b6112bf8461119a565b810160208510156112ce578190505b6112e26112da8561119a565b830182611281565b50505b505050565b600082821c905092915050565b6000611308600019846008026112ea565b1980831691505092915050565b600061132183836112f7565b9150826002028217905092915050565b61133a82610c48565b67ffffffffffffffff81111561135357611352610d5d565b5b61135d8254611154565b6113688282856112a4565b600060209050601f83116001811461139b5760008415611389578287015190505b6113938582611315565b8655506113fb565b601f1984166113a986611185565b60005b828110156113d1578489015182556001820191506020850194506020810190506113ac565b868310156113ee57848901516113ea601f8916826112f7565b8355505b6001600288020188555050505b505050505050565b7f4d696e696d756d20636f6e747269627574696f6e206973206e6f74206d61746360008201527f6865640000000000000000000000000000000000000000000000000000000000602082015250565b600061145f602383610c53565b915061146a82611403565b604082019050919050565b6000602082019050818103600083015261148e81611452565b9050919050565b60006114a082610a3d565b91507fffffffffffffffffffffffffffffffffffffffffffffffffffffffffffffffff82036114d2576114d1610fed565b5b60018201905091905056fea264697066735822122095c6a08d8bfd5fa2a4dbe260f12e2ab57a25ad18d5e06d3053d498e7d487acdd64736f6c63430008130033","opcodes":"PUSH1 0x80 PUSH1 0x40 MSTORE CALLVALUE DUP1 ISZERO PUSH3 0x11 JUMPI PUSH1 0x0 DUP1 REVERT JUMPDEST POP PUSH1 0x40 MLOAD PUSH3 0x1695 CODESIZE SUB DUP1 PUSH3 0x1695 DUP4 CODECOPY DUP2 DUP2 ADD PUSH1 0x40 MSTORE DUP2 ADD SWAP1 PUSH3 0x37 SWAP2 SWAP1 PUSH3 0x12B JUMP JUMPDEST DUP1 PUSH1 0x0 DUP1 PUSH2 0x100 EXP DUP2 SLOAD DUP2 PUSH20 0xFFFFFFFFFFFFFFFFFFFFFFFFFFFFFFFFFFFFFFFF MUL NOT AND SWAP1 DUP4 PUSH20 0xFFFFFFFFFFFFFFFFFFFFFFFFFFFFFFFFFFFFFFFF AND MUL OR SWAP1 SSTORE POP DUP2 PUSH1 0x1 DUP2 SWAP1 SSTORE POP POP POP PUSH3 0x172 JUMP JUMPDEST PUSH1 0x0 DUP1 REVERT JUMPDEST PUSH1 0x0 DUP2 SWAP1 POP SWAP2 SWAP1 POP JUMP JUMPDEST PUSH3 0xA0 DUP2 PUSH3 0x8B JUMP JUMPDEST DUP2 EQ PUSH3 0xAC JUMPI PUSH1 0x0 DUP1 REVERT JUMPDEST POP JUMP JUMPDEST PUSH1 0x0 DUP2 MLOAD SWAP1 POP PUSH3 0xC0 DUP2 PUSH3 0x95 JUMP JUMPDEST SWAP3 SWAP2 POP POP JUMP JUMPDEST PUSH1 0x0 PUSH20 0xFFFFFFFFFFFFFFFFFFFFFFFFFFFFFFFFFFFFFFFF DUP3 AND SWAP1 POP SWAP2 SWAP1 POP JUMP JUMPDEST PUSH1 0x0 PUSH3 0xF3 DUP3 PUSH3 0xC6 JUMP JUMPDEST SWAP1 POP SWAP2 SWAP1 POP JUMP JUMPDEST PUSH3 0x105 DUP2 PUSH3 0xE6 JUMP JUMPDEST DUP2 EQ PUSH3 0x111 JUMPI PUSH1 0x0 DUP1 REVERT JUMPDEST POP JUMP JUMPDEST PUSH1 0x0 DUP2 MLOAD SWAP1 POP PUSH3 0x125 DUP2 PUSH3 0xFA JUMP JUMPDEST SWAP3 SWAP2 POP POP JUMP JUMPDEST PUSH1 0x0 DUP1 PUSH1 0x40 DUP4 DUP6 SUB SLT ISZERO PUSH3 0x145 JUMPI PUSH3 0x144 PUSH3 0x86 JUMP JUMPDEST JUMPDEST PUSH1 0x0 PUSH3 0x155 DUP6 DUP3 DUP7 ADD PUSH3 0xAF JUMP JUMPDEST SWAP3 POP POP PUSH1 0x20 PUSH3 0x168 DUP6 DUP3 DUP7 ADD PUSH3 0x114 JUMP JUMPDEST SWAP2 POP POP SWAP3 POP SWAP3 SWAP1 POP JUMP JUMPDEST PUSH2 0x1513 DUP1 PUSH3 0x182 PUSH1 0x0 CODECOPY PUSH1 0x0 RETURN INVALID PUSH1 0x80 PUSH1 0x40 MSTORE PUSH1 0x4 CALLDATASIZE LT PUSH2 0xA7 JUMPI PUSH1 0x0 CALLDATALOAD PUSH1 0xE0 SHR DUP1 PUSH4 0x81D12C58 GT PUSH2 0x64 JUMPI DUP1 PUSH4 0x81D12C58 EQ PUSH2 0x1D4 JUMPI DUP1 PUSH4 0x82FDE093 EQ PUSH2 0x215 JUMPI DUP1 PUSH4 0x8A9CFD55 EQ PUSH2 0x240 JUMPI DUP1 PUSH4 0x937E09B1 EQ PUSH2 0x269 JUMPI DUP1 PUSH4 0xD7BB99BA EQ PUSH2 0x294 JUMPI DUP1 PUSH4 0xD7D1BBDB EQ PUSH2 0x29E JUMPI PUSH2 0xA7 JUMP JUMPDEST DUP1 PUSH4 0x3441006 EQ PUSH2 0xAC JUMPI DUP1 PUSH4 0xA144391 EQ PUSH2 0xD5 JUMPI DUP1 PUSH4 0x33F449E5 EQ PUSH2 0x112 JUMPI DUP1 PUSH4 0x3410452A EQ PUSH2 0x14F JUMPI DUP1 PUSH4 0x4051DDAC EQ PUSH2 0x17A JUMPI DUP1 PUSH4 0x481C6A75 EQ PUSH2 0x1A9 JUMPI JUMPDEST PUSH1 0x0 DUP1 REVERT JUMPDEST CALLVALUE DUP1 ISZERO PUSH2 0xB8 JUMPI PUSH1 0x0 DUP1 REVERT JUMPDEST POP PUSH2 0xD3 PUSH1 0x4 DUP1 CALLDATASIZE SUB DUP2 ADD SWAP1 PUSH2 0xCE SWAP2 SWAP1 PUSH2 0xA73 JUMP JUMPDEST PUSH2 0x2C7 JUMP JUMPDEST STOP JUMPDEST CALLVALUE DUP1 ISZERO PUSH2 0xE1 JUMPI PUSH1 0x0 DUP1 REVERT JUMPDEST POP PUSH2 0xFC PUSH1 0x4 DUP1 CALLDATASIZE SUB DUP2 ADD SWAP1 PUSH2 0xF7 SWAP2 SWAP1 PUSH2 0xAFE JUMP JUMPDEST PUSH2 0x4B1 JUMP JUMPDEST PUSH1 0x40 MLOAD PUSH2 0x109 SWAP2 SWAP1 PUSH2 0xB46 JUMP JUMPDEST PUSH1 0x40 MLOAD DUP1 SWAP2 SUB SWAP1 RETURN JUMPDEST CALLVALUE DUP1 ISZERO PUSH2 0x11E JUMPI PUSH1 0x0 DUP1 REVERT JUMPDEST POP PUSH2 0x139 PUSH1 0x4 DUP1 CALLDATASIZE SUB DUP2 ADD SWAP1 PUSH2 0x134 SWAP2 SWAP1 PUSH2 0xB61 JUMP JUMPDEST PUSH2 0x4D1 JUMP JUMPDEST PUSH1 0x40 MLOAD PUSH2 0x146 SWAP2 SWAP1 PUSH2 0xB46 JUMP JUMPDEST PUSH1 0x40 MLOAD DUP1 SWAP2 SUB SWAP1 RETURN JUMPDEST CALLVALUE DUP1 ISZERO PUSH2 0x15B JUMPI PUSH1 0x0 DUP1 REVERT JUMPDEST POP PUSH2 0x164 PUSH2 0x500 JUMP JUMPDEST PUSH1 0x40 MLOAD PUSH2 0x171 SWAP2 SWAP1 PUSH2 0xBB0 JUMP JUMPDEST PUSH1 0x40 MLOAD DUP1 SWAP2 SUB SWAP1 RETURN JUMPDEST CALLVALUE DUP1 ISZERO PUSH2 0x186 JUMPI PUSH1 0x0 DUP1 REVERT JUMPDEST POP PUSH2 0x18F PUSH2 0x50D JUMP JUMPDEST PUSH1 0x40 MLOAD PUSH2 0x1A0 SWAP6 SWAP5 SWAP4 SWAP3 SWAP2 SWAP1 PUSH2 0xBDA JUMP JUMPDEST PUSH1 0x40 MLOAD DUP1 SWAP2 SUB SWAP1 RETURN JUMPDEST CALLVALUE DUP1 ISZERO PUSH2 0x1B5 JUMPI PUSH1 0x0 DUP1 REVERT JUMPDEST POP PUSH2 0x1BE PUSH2 0x554 JUMP JUMPDEST PUSH1 0x40 MLOAD PUSH2 0x1CB SWAP2 SWAP1 PUSH2 0xC2D JUMP JUMPDEST PUSH1 0x40 MLOAD DUP1 SWAP2 SUB SWAP1 RETURN JUMPDEST CALLVALUE DUP1 ISZERO PUSH2 0x1E0 JUMPI PUSH1 0x0 DUP1 REVERT JUMPDEST POP PUSH2 0x1FB PUSH1 0x4 DUP1 CALLDATASIZE SUB DUP2 ADD SWAP1 PUSH2 0x1F6 SWAP2 SWAP1 PUSH2 0xA73 JUMP JUMPDEST PUSH2 0x578 JUMP JUMPDEST PUSH1 0x40 MLOAD PUSH2 0x20C SWAP6 SWAP5 SWAP4 SWAP3 SWAP2 SWAP1 PUSH2 0xCF9 JUMP JUMPDEST PUSH1 0x40 MLOAD DUP1 SWAP2 SUB SWAP1 RETURN JUMPDEST CALLVALUE DUP1 ISZERO PUSH2 0x221 JUMPI PUSH1 0x0 DUP1 REVERT JUMPDEST POP PUSH2 0x22A PUSH2 0x673 JUMP JUMPDEST PUSH1 0x40 MLOAD PUSH2 0x237 SWAP2 SWAP1 PUSH2 0xBB0 JUMP JUMPDEST PUSH1 0x40 MLOAD DUP1 SWAP2 SUB SWAP1 RETURN JUMPDEST CALLVALUE DUP1 ISZERO PUSH2 0x24C JUMPI PUSH1 0x0 DUP1 REVERT JUMPDEST POP PUSH2 0x267 PUSH1 0x4 DUP1 CALLDATASIZE SUB DUP2 ADD SWAP1 PUSH2 0x262 SWAP2 SWAP1 PUSH2 0xEB4 JUMP JUMPDEST PUSH2 0x679 JUMP JUMPDEST STOP JUMPDEST CALLVALUE DUP1 ISZERO PUSH2 0x275 JUMPI PUSH1 0x0 DUP1 REVERT JUMPDEST POP PUSH2 0x27E PUSH2 0x7B6 JUMP JUMPDEST PUSH1 0x40 MLOAD PUSH2 0x28B SWAP2 SWAP1 PUSH2 0xBB0 JUMP JUMPDEST PUSH1 0x40 MLOAD DUP1 SWAP2 SUB SWAP1 RETURN JUMPDEST PUSH2 0x29C PUSH2 0x7BC JUMP JUMPDEST STOP JUMPDEST CALLVALUE DUP1 ISZERO PUSH2 0x2AA JUMPI PUSH1 0x0 DUP1 REVERT JUMPDEST POP PUSH2 0x2C5 PUSH1 0x4 DUP1 CALLDATASIZE SUB DUP2 ADD SWAP1 PUSH2 0x2C0 SWAP2 SWAP1 PUSH2 0xA73 JUMP JUMPDEST PUSH2 0x8C4 JUMP JUMPDEST STOP JUMPDEST PUSH1 0x0 DUP1 SLOAD SWAP1 PUSH2 0x100 EXP SWAP1 DIV PUSH20 0xFFFFFFFFFFFFFFFFFFFFFFFFFFFFFFFFFFFFFFFF AND PUSH20 0xFFFFFFFFFFFFFFFFFFFFFFFFFFFFFFFFFFFFFFFF AND CALLER PUSH20 0xFFFFFFFFFFFFFFFFFFFFFFFFFFFFFFFFFFFFFFFF AND EQ PUSH2 0x355 JUMPI PUSH1 0x40 MLOAD PUSH32 0x8C379A000000000000000000000000000000000000000000000000000000000 DUP2 MSTORE PUSH1 0x4 ADD PUSH2 0x34C SWAP1 PUSH2 0xF6F JUMP JUMPDEST PUSH1 0x40 MLOAD DUP1 SWAP2 SUB SWAP1 REVERT JUMPDEST PUSH1 0x0 PUSH1 0x5 DUP3 DUP2 SLOAD DUP2 LT PUSH2 0x36B JUMPI PUSH2 0x36A PUSH2 0xF8F JUMP JUMPDEST JUMPDEST SWAP1 PUSH1 0x0 MSTORE PUSH1 0x20 PUSH1 0x0 KECCAK256 SWAP1 PUSH1 0x4 MUL ADD SWAP1 POP PUSH1 0x2 PUSH1 0x3 SLOAD PUSH2 0x38A SWAP2 SWAP1 PUSH2 0x101C JUMP JUMPDEST DUP2 PUSH1 0x3 ADD SLOAD GT PUSH2 0x3CF JUMPI PUSH1 0x40 MLOAD PUSH32 0x8C379A000000000000000000000000000000000000000000000000000000000 DUP2 MSTORE PUSH1 0x4 ADD PUSH2 0x3C6 SWAP1 PUSH2 0x1099 JUMP JUMPDEST PUSH1 0x40 MLOAD DUP1 SWAP2 SUB SWAP1 REVERT JUMPDEST DUP1 PUSH1 0x2 ADD PUSH1 0x14 SWAP1 SLOAD SWAP1 PUSH2 0x100 EXP SWAP1 DIV PUSH1 0xFF AND ISZERO PUSH2 0x421 JUMPI PUSH1 0x40 MLOAD PUSH32 0x8C379A000000000000000000000000000000000000000000000000000000000 DUP2 MSTORE PUSH1 0x4 ADD PUSH2 0x418 SWAP1 PUSH2 0x1105 JUMP JUMPDEST PUSH1 0x40 MLOAD DUP1 SWAP2 SUB SWAP1 REVERT JUMPDEST DUP1 PUSH1 0x2 ADD PUSH1 0x0 SWAP1 SLOAD SWAP1 PUSH2 0x100 EXP SWAP1 DIV PUSH20 0xFFFFFFFFFFFFFFFFFFFFFFFFFFFFFFFFFFFFFFFF AND PUSH20 0xFFFFFFFFFFFFFFFFFFFFFFFFFFFFFFFFFFFFFFFF AND PUSH2 0x8FC DUP3 PUSH1 0x1 ADD SLOAD SWAP1 DUP2 ISZERO MUL SWAP1 PUSH1 0x40 MLOAD PUSH1 0x0 PUSH1 0x40 MLOAD DUP1 DUP4 SUB DUP2 DUP6 DUP9 DUP9 CALL SWAP4 POP POP POP POP ISZERO DUP1 ISZERO PUSH2 0x48F JUMPI RETURNDATASIZE PUSH1 0x0 DUP1 RETURNDATACOPY RETURNDATASIZE PUSH1 0x0 REVERT JUMPDEST POP PUSH1 0x1 DUP2 PUSH1 0x2 ADD PUSH1 0x14 PUSH2 0x100 EXP DUP2 SLOAD DUP2 PUSH1 0xFF MUL NOT AND SWAP1 DUP4 ISZERO ISZERO MUL OR SWAP1 SSTORE POP POP POP JUMP JUMPDEST PUSH1 0x2 PUSH1 0x20 MSTORE DUP1 PUSH1 0x0 MSTORE PUSH1 0x40 PUSH1 0x0 KECCAK256 PUSH1 0x0 SWAP2 POP SLOAD SWAP1 PUSH2 0x100 EXP SWAP1 DIV PUSH1 0xFF AND DUP2 JUMP JUMPDEST PUSH1 0x4 PUSH1 0x20 MSTORE DUP2 PUSH1 0x0 MSTORE PUSH1 0x40 PUSH1 0x0 KECCAK256 PUSH1 0x20 MSTORE DUP1 PUSH1 0x0 MSTORE PUSH1 0x40 PUSH1 0x0 KECCAK256 PUSH1 0x0 SWAP2 POP SWAP2 POP SWAP1 SLOAD SWAP1 PUSH2 0x100 EXP SWAP1 DIV PUSH1 0xFF AND DUP2 JUMP JUMPDEST PUSH1 0x0 PUSH1 0x5 DUP1 SLOAD SWAP1 POP SWAP1 POP SWAP1 JUMP JUMPDEST PUSH1 0x0 DUP1 PUSH1 0x0 DUP1 PUSH1 0x0 PUSH1 0x1 SLOAD SELFBALANCE PUSH1 0x5 DUP1 SLOAD SWAP1 POP PUSH1 0x3 SLOAD PUSH1 0x0 DUP1 SLOAD SWAP1 PUSH2 0x100 EXP SWAP1 DIV PUSH20 0xFFFFFFFFFFFFFFFFFFFFFFFFFFFFFFFFFFFFFFFF AND SWAP5 POP SWAP5 POP SWAP5 POP SWAP5 POP SWAP5 POP SWAP1 SWAP2 SWAP3 SWAP4 SWAP5 JUMP JUMPDEST PUSH1 0x0 DUP1 SLOAD SWAP1 PUSH2 0x100 EXP SWAP1 DIV PUSH20 0xFFFFFFFFFFFFFFFFFFFFFFFFFFFFFFFFFFFFFFFF AND DUP2 JUMP JUMPDEST PUSH1 0x5 DUP2 DUP2 SLOAD DUP2 LT PUSH2 0x588 JUMPI PUSH1 0x0 DUP1 REVERT JUMPDEST SWAP1 PUSH1 0x0 MSTORE PUSH1 0x20 PUSH1 0x0 KECCAK256 SWAP1 PUSH1 0x4 MUL ADD PUSH1 0x0 SWAP2 POP SWAP1 POP DUP1 PUSH1 0x0 ADD DUP1 SLOAD PUSH2 0x5AB SWAP1 PUSH2 0x1154 JUMP JUMPDEST DUP1 PUSH1 0x1F ADD PUSH1 0x20 DUP1 SWAP2 DIV MUL PUSH1 0x20 ADD PUSH1 0x40 MLOAD SWAP1 DUP2 ADD PUSH1 0x40 MSTORE DUP1 SWAP3 SWAP2 SWAP1 DUP2 DUP2 MSTORE PUSH1 0x20 ADD DUP3 DUP1 SLOAD PUSH2 0x5D7 SWAP1 PUSH2 0x1154 JUMP JUMPDEST DUP1 ISZERO PUSH2 0x624 JUMPI DUP1 PUSH1 0x1F LT PUSH2 0x5F9 JUMPI PUSH2 0x100 DUP1 DUP4 SLOAD DIV MUL DUP4 MSTORE SWAP2 PUSH1 0x20 ADD SWAP2 PUSH2 0x624 JUMP JUMPDEST DUP3 ADD SWAP2 SWAP1 PUSH1 0x0 MSTORE PUSH1 0x20 PUSH1 0x0 KECCAK256 SWAP1 JUMPDEST DUP2 SLOAD DUP2 MSTORE SWAP1 PUSH1 0x1 ADD SWAP1 PUSH1 0x20 ADD DUP1 DUP4 GT PUSH2 0x607 JUMPI DUP3 SWAP1 SUB PUSH1 0x1F AND DUP3 ADD SWAP2 JUMPDEST POP POP POP POP POP SWAP1 DUP1 PUSH1 0x1 ADD SLOAD SWAP1 DUP1 PUSH1 0x2 ADD PUSH1 0x0 SWAP1 SLOAD SWAP1 PUSH2 0x100 EXP SWAP1 DIV PUSH20 0xFFFFFFFFFFFFFFFFFFFFFFFFFFFFFFFFFFFFFFFF AND SWAP1 DUP1 PUSH1 0x2 ADD PUSH1 0x14 SWAP1 SLOAD SWAP1 PUSH2 0x100 EXP SWAP1 DIV PUSH1 0xFF AND SWAP1 DUP1 PUSH1 0x3 ADD SLOAD SWAP1 POP DUP6 JUMP JUMPDEST PUSH1 0x3 SLOAD DUP2 JUMP JUMPDEST PUSH1 0x0 DUP1 SLOAD SWAP1 PUSH2 0x100 EXP SWAP1 DIV PUSH20 0xFFFFFFFFFFFFFFFFFFFFFFFFFFFFFFFFFFFFFFFF AND PUSH20 0xFFFFFFFFFFFFFFFFFFFFFFFFFFFFFFFFFFFFFFFF AND CALLER PUSH20 0xFFFFFFFFFFFFFFFFFFFFFFFFFFFFFFFFFFFFFFFF AND EQ PUSH2 0x707 JUMPI PUSH1 0x40 MLOAD PUSH32 0x8C379A000000000000000000000000000000000000000000000000000000000 DUP2 MSTORE PUSH1 0x4 ADD PUSH2 0x6FE SWAP1 PUSH2 0xF6F JUMP JUMPDEST PUSH1 0x40 MLOAD DUP1 SWAP2 SUB SWAP1 REVERT JUMPDEST PUSH1 0x0 PUSH1 0x5 PUSH1 0x1 DUP2 PUSH1 0x1 DUP2 SLOAD ADD DUP1 DUP3 SSTORE DUP1 SWAP2 POP POP SUB SWAP1 PUSH1 0x0 MSTORE PUSH1 0x20 PUSH1 0x0 KECCAK256 SWAP1 PUSH1 0x4 MUL ADD SWAP1 POP DUP4 DUP2 PUSH1 0x0 ADD SWAP1 DUP2 PUSH2 0x73C SWAP2 SWAP1 PUSH2 0x1331 JUMP JUMPDEST POP DUP3 DUP2 PUSH1 0x1 ADD DUP2 SWAP1 SSTORE POP DUP2 DUP2 PUSH1 0x2 ADD PUSH1 0x0 PUSH2 0x100 EXP DUP2 SLOAD DUP2 PUSH20 0xFFFFFFFFFFFFFFFFFFFFFFFFFFFFFFFFFFFFFFFF MUL NOT AND SWAP1 DUP4 PUSH20 0xFFFFFFFFFFFFFFFFFFFFFFFFFFFFFFFFFFFFFFFF AND MUL OR SWAP1 SSTORE POP PUSH1 0x0 DUP2 PUSH1 0x2 ADD PUSH1 0x14 PUSH2 0x100 EXP DUP2 SLOAD DUP2 PUSH1 0xFF MUL NOT AND SWAP1 DUP4 ISZERO ISZERO MUL OR SWAP1 SSTORE POP PUSH1 0x0 DUP2 PUSH1 0x3 ADD DUP2 SWAP1 SSTORE POP POP POP POP POP JUMP JUMPDEST PUSH1 0x1 SLOAD DUP2 JUMP JUMPDEST PUSH1 0x1 SLOAD CALLVALUE GT PUSH2 0x800 JUMPI PUSH1 0x40 MLOAD PUSH32 0x8C379A000000000000000000000000000000000000000000000000000000000 DUP2 MSTORE PUSH1 0x4 ADD PUSH2 0x7F7 SWAP1 PUSH2 0x1475 JUMP JUMPDEST PUSH1 0x40 MLOAD DUP1 SWAP2 SUB SWAP1 REVERT JUMPDEST PUSH1 0x2 PUSH1 0x0 CALLER PUSH20 0xFFFFFFFFFFFFFFFFFFFFFFFFFFFFFFFFFFFFFFFF AND PUSH20 0xFFFFFFFFFFFFFFFFFFFFFFFFFFFFFFFFFFFFFFFF AND DUP2 MSTORE PUSH1 0x20 ADD SWAP1 DUP2 MSTORE PUSH1 0x20 ADD PUSH1 0x0 KECCAK256 PUSH1 0x0 SWAP1 SLOAD SWAP1 PUSH2 0x100 EXP SWAP1 DIV PUSH1 0xFF AND PUSH2 0x8C2 JUMPI PUSH1 0x1 PUSH1 0x2 PUSH1 0x0 CALLER PUSH20 0xFFFFFFFFFFFFFFFFFFFFFFFFFFFFFFFFFFFFFFFF AND PUSH20 0xFFFFFFFFFFFFFFFFFFFFFFFFFFFFFFFFFFFFFFFF AND DUP2 MSTORE PUSH1 0x20 ADD SWAP1 DUP2 MSTORE PUSH1 0x20 ADD PUSH1 0x0 KECCAK256 PUSH1 0x0 PUSH2 0x100 EXP DUP2 SLOAD DUP2 PUSH1 0xFF MUL NOT AND SWAP1 DUP4 ISZERO ISZERO MUL OR SWAP1 SSTORE POP PUSH1 0x3 PUSH1 0x0 DUP2 SLOAD DUP1 SWAP3 SWAP2 SWAP1 PUSH2 0x8BC SWAP1 PUSH2 0x1495 JUMP JUMPDEST SWAP2 SWAP1 POP SSTORE POP JUMPDEST JUMP JUMPDEST PUSH1 0x2 PUSH1 0x0 CALLER PUSH20 0xFFFFFFFFFFFFFFFFFFFFFFFFFFFFFFFFFFFFFFFF AND PUSH20 0xFFFFFFFFFFFFFFFFFFFFFFFFFFFFFFFFFFFFFFFF AND DUP2 MSTORE PUSH1 0x20 ADD SWAP1 DUP2 MSTORE PUSH1 0x20 ADD PUSH1 0x0 KECCAK256 PUSH1 0x0 SWAP1 SLOAD SWAP1 PUSH2 0x100 EXP SWAP1 DIV PUSH1 0xFF AND PUSH2 0x91A JUMPI PUSH1 0x0 DUP1 REVERT JUMPDEST PUSH1 0x4 PUSH1 0x0 DUP3 DUP2 MSTORE PUSH1 0x20 ADD SWAP1 DUP2 MSTORE PUSH1 0x20 ADD PUSH1 0x0 KECCAK256 PUSH1 0x0 CALLER PUSH20 0xFFFFFFFFFFFFFFFFFFFFFFFFFFFFFFFFFFFFFFFF AND PUSH20 0xFFFFFFFFFFFFFFFFFFFFFFFFFFFFFFFFFFFFFFFF AND DUP2 MSTORE PUSH1 0x20 ADD SWAP1 DUP2 MSTORE PUSH1 0x20 ADD PUSH1 0x0 KECCAK256 PUSH1 0x0 SWAP1 SLOAD SWAP1 PUSH2 0x100 EXP SWAP1 DIV PUSH1 0xFF AND ISZERO PUSH2 0x982 JUMPI PUSH1 0x0 DUP1 REVERT JUMPDEST PUSH1 0x1 PUSH1 0x4 PUSH1 0x0 DUP4 DUP2 MSTORE PUSH1 0x20 ADD SWAP1 DUP2 MSTORE PUSH1 0x20 ADD PUSH1 0x0 KECCAK256 PUSH1 0x0 CALLER PUSH20 0xFFFFFFFFFFFFFFFFFFFFFFFFFFFFFFFFFFFFFFFF AND PUSH20 0xFFFFFFFFFFFFFFFFFFFFFFFFFFFFFFFFFFFFFFFF AND DUP2 MSTORE PUSH1 0x20 ADD SWAP1 DUP2 MSTORE PUSH1 0x20 ADD PUSH1 0x0 KECCAK256 PUSH1 0x0 PUSH2 0x100 EXP DUP2 SLOAD DUP2 PUSH1 0xFF MUL NOT AND SWAP1 DUP4 ISZERO ISZERO MUL OR SWAP1 SSTORE POP PUSH1 0x5 DUP2 DUP2 SLOAD DUP2 LT PUSH2 0x9FF JUMPI PUSH2 0x9FE PUSH2 0xF8F JUMP JUMPDEST JUMPDEST SWAP1 PUSH1 0x0 MSTORE PUSH1 0x20 PUSH1 0x0 KECCAK256 SWAP1 PUSH1 0x4 MUL ADD PUSH1 0x3 ADD PUSH1 0x0 DUP2 SLOAD DUP1 SWAP3 SWAP2 SWAP1 PUSH2 0xA21 SWAP1 PUSH2 0x1495 JUMP JUMPDEST SWAP2 SWAP1 POP SSTORE POP POP JUMP JUMPDEST PUSH1 0x0 PUSH1 0x40 MLOAD SWAP1 POP SWAP1 JUMP JUMPDEST PUSH1 0x0 DUP1 REVERT JUMPDEST PUSH1 0x0 DUP1 REVERT JUMPDEST PUSH1 0x0 DUP2 SWAP1 POP SWAP2 SWAP1 POP JUMP JUMPDEST PUSH2 0xA50 DUP2 PUSH2 0xA3D JUMP JUMPDEST DUP2 EQ PUSH2 0xA5B JUMPI PUSH1 0x0 DUP1 REVERT JUMPDEST POP JUMP JUMPDEST PUSH1 0x0 DUP2 CALLDATALOAD SWAP1 POP PUSH2 0xA6D DUP2 PUSH2 0xA47 JUMP JUMPDEST SWAP3 SWAP2 POP POP JUMP JUMPDEST PUSH1 0x0 PUSH1 0x20 DUP3 DUP5 SUB SLT ISZERO PUSH2 0xA89 JUMPI PUSH2 0xA88 PUSH2 0xA33 JUMP JUMPDEST JUMPDEST PUSH1 0x0 PUSH2 0xA97 DUP5 DUP3 DUP6 ADD PUSH2 0xA5E JUMP JUMPDEST SWAP2 POP POP SWAP3 SWAP2 POP POP JUMP JUMPDEST PUSH1 0x0 PUSH20 0xFFFFFFFFFFFFFFFFFFFFFFFFFFFFFFFFFFFFFFFF DUP3 AND SWAP1 POP SWAP2 SWAP1 POP JUMP JUMPDEST PUSH1 0x0 PUSH2 0xACB DUP3 PUSH2 0xAA0 JUMP JUMPDEST SWAP1 POP SWAP2 SWAP1 POP JUMP JUMPDEST PUSH2 0xADB DUP2 PUSH2 0xAC0 JUMP JUMPDEST DUP2 EQ PUSH2 0xAE6 JUMPI PUSH1 0x0 DUP1 REVERT JUMPDEST POP JUMP JUMPDEST PUSH1 0x0 DUP2 CALLDATALOAD SWAP1 POP PUSH2 0xAF8 DUP2 PUSH2 0xAD2 JUMP JUMPDEST SWAP3 SWAP2 POP POP JUMP JUMPDEST PUSH1 0x0 PUSH1 0x20 DUP3 DUP5 SUB SLT ISZERO PUSH2 0xB14 JUMPI PUSH2 0xB13 PUSH2 0xA33 JUMP JUMPDEST JUMPDEST PUSH1 0x0 PUSH2 0xB22 DUP5 DUP3 DUP6 ADD PUSH2 0xAE9 JUMP JUMPDEST SWAP2 POP POP SWAP3 SWAP2 POP POP JUMP JUMPDEST PUSH1 0x0 DUP2 ISZERO ISZERO SWAP1 POP SWAP2 SWAP1 POP JUMP JUMPDEST PUSH2 0xB40 DUP2 PUSH2 0xB2B JUMP JUMPDEST DUP3 MSTORE POP POP JUMP JUMPDEST PUSH1 0x0 PUSH1 0x20 DUP3 ADD SWAP1 POP PUSH2 0xB5B PUSH1 0x0 DUP4 ADD DUP5 PUSH2 0xB37 JUMP JUMPDEST SWAP3 SWAP2 POP POP JUMP JUMPDEST PUSH1 0x0 DUP1 PUSH1 0x40 DUP4 DUP6 SUB SLT ISZERO PUSH2 0xB78 JUMPI PUSH2 0xB77 PUSH2 0xA33 JUMP JUMPDEST JUMPDEST PUSH1 0x0 PUSH2 0xB86 DUP6 DUP3 DUP7 ADD PUSH2 0xA5E JUMP JUMPDEST SWAP3 POP POP PUSH1 0x20 PUSH2 0xB97 DUP6 DUP3 DUP7 ADD PUSH2 0xAE9 JUMP JUMPDEST SWAP2 POP POP SWAP3 POP SWAP3 SWAP1 POP JUMP JUMPDEST PUSH2 0xBAA DUP2 PUSH2 0xA3D JUMP JUMPDEST DUP3 MSTORE POP POP JUMP JUMPDEST PUSH1 0x0 PUSH1 0x20 DUP3 ADD SWAP1 POP PUSH2 0xBC5 PUSH1 0x0 DUP4 ADD DUP5 PUSH2 0xBA1 JUMP JUMPDEST SWAP3 SWAP2 POP POP JUMP JUMPDEST PUSH2 0xBD4 DUP2 PUSH2 0xAC0 JUMP JUMPDEST DUP3 MSTORE POP POP JUMP JUMPDEST PUSH1 0x0 PUSH1 0xA0 DUP3 ADD SWAP1 POP PUSH2 0xBEF PUSH1 0x0 DUP4 ADD DUP9 PUSH2 0xBA1 JUMP JUMPDEST PUSH2 0xBFC PUSH1 0x20 DUP4 ADD DUP8 PUSH2 0xBA1 JUMP JUMPDEST PUSH2 0xC09 PUSH1 0x40 DUP4 ADD DUP7 PUSH2 0xBA1 JUMP JUMPDEST PUSH2 0xC16 PUSH1 0x60 DUP4 ADD DUP6 PUSH2 0xBA1 JUMP JUMPDEST PUSH2 0xC23 PUSH1 0x80 DUP4 ADD DUP5 PUSH2 0xBCB JUMP JUMPDEST SWAP7 SWAP6 POP POP POP POP POP POP JUMP JUMPDEST PUSH1 0x0 PUSH1 0x20 DUP3 ADD SWAP1 POP PUSH2 0xC42 PUSH1 0x0 DUP4 ADD DUP5 PUSH2 0xBCB JUMP JUMPDEST SWAP3 SWAP2 POP POP JUMP JUMPDEST PUSH1 0x0 DUP2 MLOAD SWAP1 POP SWAP2 SWAP1 POP JUMP JUMPDEST PUSH1 0x0 DUP3 DUP3 MSTORE PUSH1 0x20 DUP3 ADD SWAP1 POP SWAP3 SWAP2 POP POP JUMP JUMPDEST PUSH1 0x0 JUMPDEST DUP4 DUP2 LT ISZERO PUSH2 0xC82 JUMPI DUP1 DUP3 ADD MLOAD DUP2 DUP5 ADD MSTORE PUSH1 0x20 DUP2 ADD SWAP1 POP PUSH2 0xC67 JUMP JUMPDEST PUSH1 0x0 DUP5 DUP5 ADD MSTORE POP POP POP POP JUMP JUMPDEST PUSH1 0x0 PUSH1 0x1F NOT PUSH1 0x1F DUP4 ADD AND SWAP1 POP SWAP2 SWAP1 POP JUMP JUMPDEST PUSH1 0x0 PUSH2 0xCAA DUP3 PUSH2 0xC48 JUMP JUMPDEST PUSH2 0xCB4 DUP2 DUP6 PUSH2 0xC53 JUMP JUMPDEST SWAP4 POP PUSH2 0xCC4 DUP2 DUP6 PUSH1 0x20 DUP7 ADD PUSH2 0xC64 JUMP JUMPDEST PUSH2 0xCCD DUP2 PUSH2 0xC8E JUMP JUMPDEST DUP5 ADD SWAP2 POP POP SWAP3 SWAP2 POP POP JUMP JUMPDEST PUSH1 0x0 PUSH2 0xCE3 DUP3 PUSH2 0xAA0 JUMP JUMPDEST SWAP1 POP SWAP2 SWAP1 POP JUMP JUMPDEST PUSH2 0xCF3 DUP2 PUSH2 0xCD8 JUMP JUMPDEST DUP3 MSTORE POP POP JUMP JUMPDEST PUSH1 0x0 PUSH1 0xA0 DUP3 ADD SWAP1 POP DUP2 DUP2 SUB PUSH1 0x0 DUP4 ADD MSTORE PUSH2 0xD13 DUP2 DUP9 PUSH2 0xC9F JUMP JUMPDEST SWAP1 POP PUSH2 0xD22 PUSH1 0x20 DUP4 ADD DUP8 PUSH2 0xBA1 JUMP JUMPDEST PUSH2 0xD2F PUSH1 0x40 DUP4 ADD DUP7 PUSH2 0xCEA JUMP JUMPDEST PUSH2 0xD3C PUSH1 0x60 DUP4 ADD DUP6 PUSH2 0xB37 JUMP JUMPDEST PUSH2 0xD49 PUSH1 0x80 DUP4 ADD DUP5 PUSH2 0xBA1 JUMP JUMPDEST SWAP7 SWAP6 POP POP POP POP POP POP JUMP JUMPDEST PUSH1 0x0 DUP1 REVERT JUMPDEST PUSH1 0x0 DUP1 REVERT JUMPDEST PUSH32 0x4E487B7100000000000000000000000000000000000000000000000000000000 PUSH1 0x0 MSTORE PUSH1 0x41 PUSH1 0x4 MSTORE PUSH1 0x24 PUSH1 0x0 REVERT JUMPDEST PUSH2 0xD95 DUP3 PUSH2 0xC8E JUMP JUMPDEST DUP2 ADD DUP2 DUP2 LT PUSH8 0xFFFFFFFFFFFFFFFF DUP3 GT OR ISZERO PUSH2 0xDB4 JUMPI PUSH2 0xDB3 PUSH2 0xD5D JUMP JUMPDEST JUMPDEST DUP1 PUSH1 0x40 MSTORE POP POP POP JUMP JUMPDEST PUSH1 0x0 PUSH2 0xDC7 PUSH2 0xA29 JUMP JUMPDEST SWAP1 POP PUSH2 0xDD3 DUP3 DUP3 PUSH2 0xD8C JUMP JUMPDEST SWAP2 SWAP1 POP JUMP JUMPDEST PUSH1 0x0 PUSH8 0xFFFFFFFFFFFFFFFF DUP3 GT ISZERO PUSH2 0xDF3 JUMPI PUSH2 0xDF2 PUSH2 0xD5D JUMP JUMPDEST JUMPDEST PUSH2 0xDFC DUP3 PUSH2 0xC8E JUMP JUMPDEST SWAP1 POP PUSH1 0x20 DUP2 ADD SWAP1 POP SWAP2 SWAP1 POP JUMP JUMPDEST DUP3 DUP2 DUP4 CALLDATACOPY PUSH1 0x0 DUP4 DUP4 ADD MSTORE POP POP POP JUMP JUMPDEST PUSH1 0x0 PUSH2 0xE2B PUSH2 0xE26 DUP5 PUSH2 0xDD8 JUMP JUMPDEST PUSH2 0xDBD JUMP JUMPDEST SWAP1 POP DUP3 DUP2 MSTORE PUSH1 0x20 DUP2 ADD DUP5 DUP5 DUP5 ADD GT ISZERO PUSH2 0xE47 JUMPI PUSH2 0xE46 PUSH2 0xD58 JUMP JUMPDEST JUMPDEST PUSH2 0xE52 DUP5 DUP3 DUP6 PUSH2 0xE09 JUMP JUMPDEST POP SWAP4 SWAP3 POP POP POP JUMP JUMPDEST PUSH1 0x0 DUP3 PUSH1 0x1F DUP4 ADD SLT PUSH2 0xE6F JUMPI PUSH2 0xE6E PUSH2 0xD53 JUMP JUMPDEST JUMPDEST DUP2 CALLDATALOAD PUSH2 0xE7F DUP5 DUP3 PUSH1 0x20 DUP7 ADD PUSH2 0xE18 JUMP JUMPDEST SWAP2 POP POP SWAP3 SWAP2 POP POP JUMP JUMPDEST PUSH2 0xE91 DUP2 PUSH2 0xCD8 JUMP JUMPDEST DUP2 EQ PUSH2 0xE9C JUMPI PUSH1 0x0 DUP1 REVERT JUMPDEST POP JUMP JUMPDEST PUSH1 0x0 DUP2 CALLDATALOAD SWAP1 POP PUSH2 0xEAE DUP2 PUSH2 0xE88 JUMP JUMPDEST SWAP3 SWAP2 POP POP JUMP JUMPDEST PUSH1 0x0 DUP1 PUSH1 0x0 PUSH1 0x60 DUP5 DUP7 SUB SLT ISZERO PUSH2 0xECD JUMPI PUSH2 0xECC PUSH2 0xA33 JUMP JUMPDEST JUMPDEST PUSH1 0x0 DUP5 ADD CALLDATALOAD PUSH8 0xFFFFFFFFFFFFFFFF DUP2 GT ISZERO PUSH2 0xEEB JUMPI PUSH2 0xEEA PUSH2 0xA38 JUMP JUMPDEST JUMPDEST PUSH2 0xEF7 DUP7 DUP3 DUP8 ADD PUSH2 0xE5A JUMP JUMPDEST SWAP4 POP POP PUSH1 0x20 PUSH2 0xF08 DUP7 DUP3 DUP8 ADD PUSH2 0xA5E JUMP JUMPDEST SWAP3 POP POP PUSH1 0x40 PUSH2 0xF19 DUP7 DUP3 DUP8 ADD PUSH2 0xE9F JUMP JUMPDEST SWAP2 POP POP SWAP3 POP SWAP3 POP SWAP3 JUMP JUMPDEST PUSH32 0x43616C6C6572206973206E6F7420746865206D616E6167657200000000000000 PUSH1 0x0 DUP3 ADD MSTORE POP JUMP JUMPDEST PUSH1 0x0 PUSH2 0xF59 PUSH1 0x19 DUP4 PUSH2 0xC53 JUMP JUMPDEST SWAP2 POP PUSH2 0xF64 DUP3 PUSH2 0xF23 JUMP JUMPDEST PUSH1 0x20 DUP3 ADD SWAP1 POP SWAP2 SWAP1 POP JUMP JUMPDEST PUSH1 0x0 PUSH1 0x20 DUP3 ADD SWAP1 POP DUP2 DUP2 SUB PUSH1 0x0 DUP4 ADD MSTORE PUSH2 0xF88 DUP2 PUSH2 0xF4C JUMP JUMPDEST SWAP1 POP SWAP2 SWAP1 POP JUMP JUMPDEST PUSH32 0x4E487B7100000000000000000000000000000000000000000000000000000000 PUSH1 0x0 MSTORE PUSH1 0x32 PUSH1 0x4 MSTORE PUSH1 0x24 PUSH1 0x0 REVERT JUMPDEST PUSH32 0x4E487B7100000000000000000000000000000000000000000000000000000000 PUSH1 0x0 MSTORE PUSH1 0x12 PUSH1 0x4 MSTORE PUSH1 0x24 PUSH1 0x0 REVERT JUMPDEST PUSH32 0x4E487B7100000000000000000000000000000000000000000000000000000000 PUSH1 0x0 MSTORE PUSH1 0x11 PUSH1 0x4 MSTORE PUSH1 0x24 PUSH1 0x0 REVERT JUMPDEST PUSH1 0x0 PUSH2 0x1027 DUP3 PUSH2 0xA3D JUMP JUMPDEST SWAP2 POP PUSH2 0x1032 DUP4 PUSH2 0xA3D JUMP JUMPDEST SWAP3 POP DUP3 PUSH2 0x1042 JUMPI PUSH2 0x1041 PUSH2 0xFBE JUMP JUMPDEST JUMPDEST DUP3 DUP3 DIV SWAP1 POP SWAP3 SWAP2 POP POP JUMP JUMPDEST PUSH32 0x4E6F7420656E6F75676820617070726F76616C73000000000000000000000000 PUSH1 0x0 DUP3 ADD MSTORE POP JUMP JUMPDEST PUSH1 0x0 PUSH2 0x1083 PUSH1 0x14 DUP4 PUSH2 0xC53 JUMP JUMPDEST SWAP2 POP PUSH2 0x108E DUP3 PUSH2 0x104D JUMP JUMPDEST PUSH1 0x20 DUP3 ADD SWAP1 POP SWAP2 SWAP1 POP JUMP JUMPDEST PUSH1 0x0 PUSH1 0x20 DUP3 ADD SWAP1 POP DUP2 DUP2 SUB PUSH1 0x0 DUP4 ADD MSTORE PUSH2 0x10B2 DUP2 PUSH2 0x1076 JUMP JUMPDEST SWAP1 POP SWAP2 SWAP1 POP JUMP JUMPDEST PUSH32 0x5265717565737420616C72656164792066696E616C697A656400000000000000 PUSH1 0x0 DUP3 ADD MSTORE POP JUMP JUMPDEST PUSH1 0x0 PUSH2 0x10EF PUSH1 0x19 DUP4 PUSH2 0xC53 JUMP JUMPDEST SWAP2 POP PUSH2 0x10FA DUP3 PUSH2 0x10B9 JUMP JUMPDEST PUSH1 0x20 DUP3 ADD SWAP1 POP SWAP2 SWAP1 POP JUMP JUMPDEST PUSH1 0x0 PUSH1 0x20 DUP3 ADD SWAP1 POP DUP2 DUP2 SUB PUSH1 0x0 DUP4 ADD MSTORE PUSH2 0x111E DUP2 PUSH2 0x10E2 JUMP JUMPDEST SWAP1 POP SWAP2 SWAP1 POP JUMP JUMPDEST PUSH32 0x4E487B7100000000000000000000000000000000000000000000000000000000 PUSH1 0x0 MSTORE PUSH1 0x22 PUSH1 0x4 MSTORE PUSH1 0x24 PUSH1 0x0 REVERT JUMPDEST PUSH1 0x0 PUSH1 0x2 DUP3 DIV SWAP1 POP PUSH1 0x1 DUP3 AND DUP1 PUSH2 0x116C JUMPI PUSH1 0x7F DUP3 AND SWAP2 POP JUMPDEST PUSH1 0x20 DUP3 LT DUP2 SUB PUSH2 0x117F JUMPI PUSH2 0x117E PUSH2 0x1125 JUMP JUMPDEST JUMPDEST POP SWAP2 SWAP1 POP JUMP JUMPDEST PUSH1 0x0 DUP2 SWAP1 POP DUP2 PUSH1 0x0 MSTORE PUSH1 0x20 PUSH1 0x0 KECCAK256 SWAP1 POP SWAP2 SWAP1 POP JUMP JUMPDEST PUSH1 0x0 PUSH1 0x20 PUSH1 0x1F DUP4 ADD DIV SWAP1 POP SWAP2 SWAP1 POP JUMP JUMPDEST PUSH1 0x0 DUP3 DUP3 SHL SWAP1 POP SWAP3 SWAP2 POP POP JUMP JUMPDEST PUSH1 0x0 PUSH1 0x8 DUP4 MUL PUSH2 0x11E7 PUSH32 0xFFFFFFFFFFFFFFFFFFFFFFFFFFFFFFFFFFFFFFFFFFFFFFFFFFFFFFFFFFFFFFFF DUP3 PUSH2 0x11AA JUMP JUMPDEST PUSH2 0x11F1 DUP7 DUP4 PUSH2 0x11AA JUMP JUMPDEST SWAP6 POP DUP1 NOT DUP5 AND SWAP4 POP DUP1 DUP7 AND DUP5 OR SWAP3 POP POP POP SWAP4 SWAP3 POP POP POP JUMP JUMPDEST PUSH1 0x0 DUP2 SWAP1 POP SWAP2 SWAP1 POP JUMP JUMPDEST PUSH1 0x0 PUSH2 0x122E PUSH2 0x1229 PUSH2 0x1224 DUP5 PUSH2 0xA3D JUMP JUMPDEST PUSH2 0x1209 JUMP JUMPDEST PUSH2 0xA3D JUMP JUMPDEST SWAP1 POP SWAP2 SWAP1 POP JUMP JUMPDEST PUSH1 0x0 DUP2 SWAP1 POP SWAP2 SWAP1 POP JUMP JUMPDEST PUSH2 0x1248 DUP4 PUSH2 0x1213 JUMP JUMPDEST PUSH2 0x125C PUSH2 0x1254 DUP3 PUSH2 0x1235 JUMP JUMPDEST DUP5 DUP5 SLOAD PUSH2 0x11B7 JUMP JUMPDEST DUP3 SSTORE POP POP POP POP JUMP JUMPDEST PUSH1 0x0 SWAP1 JUMP JUMPDEST PUSH2 0x1271 PUSH2 0x1264 JUMP JUMPDEST PUSH2 0x127C DUP2 DUP5 DUP5 PUSH2 0x123F JUMP JUMPDEST POP POP POP JUMP JUMPDEST JUMPDEST DUP2 DUP2 LT ISZERO PUSH2 0x12A0 JUMPI PUSH2 0x1295 PUSH1 0x0 DUP3 PUSH2 0x1269 JUMP JUMPDEST PUSH1 0x1 DUP2 ADD SWAP1 POP PUSH2 0x1282 JUMP JUMPDEST POP POP JUMP JUMPDEST PUSH1 0x1F DUP3 GT ISZERO PUSH2 0x12E5 JUMPI PUSH2 0x12B6 DUP2 PUSH2 0x1185 JUMP JUMPDEST PUSH2 0x12BF DUP5 PUSH2 0x119A JUMP JUMPDEST DUP2 ADD PUSH1 0x20 DUP6 LT ISZERO PUSH2 0x12CE JUMPI DUP2 SWAP1 POP JUMPDEST PUSH2 0x12E2 PUSH2 0x12DA DUP6 PUSH2 0x119A JUMP JUMPDEST DUP4 ADD DUP3 PUSH2 0x1281 JUMP JUMPDEST POP POP JUMPDEST POP POP POP JUMP JUMPDEST PUSH1 0x0 DUP3 DUP3 SHR SWAP1 POP SWAP3 SWAP2 POP POP JUMP JUMPDEST PUSH1 0x0 PUSH2 0x1308 PUSH1 0x0 NOT DUP5 PUSH1 0x8 MUL PUSH2 0x12EA JUMP JUMPDEST NOT DUP1 DUP4 AND SWAP2 POP POP SWAP3 SWAP2 POP POP JUMP JUMPDEST PUSH1 0x0 PUSH2 0x1321 DUP4 DUP4 PUSH2 0x12F7 JUMP JUMPDEST SWAP2 POP DUP3 PUSH1 0x2 MUL DUP3 OR SWAP1 POP SWAP3 SWAP2 POP POP JUMP JUMPDEST PUSH2 0x133A DUP3 PUSH2 0xC48 JUMP JUMPDEST PUSH8 0xFFFFFFFFFFFFFFFF DUP2 GT ISZERO PUSH2 0x1353 JUMPI PUSH2 0x1352 PUSH2 0xD5D JUMP JUMPDEST JUMPDEST PUSH2 0x135D DUP3 SLOAD PUSH2 0x1154 JUMP JUMPDEST PUSH2 0x1368 DUP3 DUP3 DUP6 PUSH2 0x12A4 JUMP JUMPDEST PUSH1 0x0 PUSH1 0x20 SWAP1 POP PUSH1 0x1F DUP4 GT PUSH1 0x1 DUP2 EQ PUSH2 0x139B JUMPI PUSH1 0x0 DUP5 ISZERO PUSH2 0x1389 JUMPI DUP3 DUP8 ADD MLOAD SWAP1 POP JUMPDEST PUSH2 0x1393 DUP6 DUP3 PUSH2 0x1315 JUMP JUMPDEST DUP7 SSTORE POP PUSH2 0x13FB JUMP JUMPDEST PUSH1 0x1F NOT DUP5 AND PUSH2 0x13A9 DUP7 PUSH2 0x1185 JUMP JUMPDEST PUSH1 0x0 JUMPDEST DUP3 DUP2 LT ISZERO PUSH2 0x13D1 JUMPI DUP5 DUP10 ADD MLOAD DUP3 SSTORE PUSH1 0x1 DUP3 ADD SWAP2 POP PUSH1 0x20 DUP6 ADD SWAP5 POP PUSH1 0x20 DUP2 ADD SWAP1 POP PUSH2 0x13AC JUMP JUMPDEST DUP7 DUP4 LT ISZERO PUSH2 0x13EE JUMPI DUP5 DUP10 ADD MLOAD PUSH2 0x13EA PUSH1 0x1F DUP10 AND DUP3 PUSH2 0x12F7 JUMP JUMPDEST DUP4 SSTORE POP JUMPDEST PUSH1 0x1 PUSH1 0x2 DUP9 MUL ADD DUP9 SSTORE POP POP POP JUMPDEST POP POP POP POP POP POP JUMP JUMPDEST PUSH32 0x4D696E696D756D20636F6E747269627574696F6E206973206E6F74206D617463 PUSH1 0x0 DUP3 ADD MSTORE PUSH32 0x6865640000000000000000000000000000000000000000000000000000000000 PUSH1 0x20 DUP3 ADD MSTORE POP JUMP JUMPDEST PUSH1 0x0 PUSH2 0x145F PUSH1 0x23 DUP4 PUSH2 0xC53 JUMP JUMPDEST SWAP2 POP PUSH2 0x146A DUP3 PUSH2 0x1403 JUMP JUMPDEST PUSH1 0x40 DUP3 ADD SWAP1 POP SWAP2 SWAP1 POP JUMP JUMPDEST PUSH1 0x0 PUSH1 0x20 DUP3 ADD SWAP1 POP DUP2 DUP2 SUB PUSH1 0x0 DUP4 ADD MSTORE PUSH2 0x148E DUP2 PUSH2 0x1452 JUMP JUMPDEST SWAP1 POP SWAP2 SWAP1 POP JUMP JUMPDEST PUSH1 0x0 PUSH2 0x14A0 DUP3 PUSH2 0xA3D JUMP JUMPDEST SWAP2 POP PUSH32 0xFFFFFFFFFFFFFFFFFFFFFFFFFFFFFFFFFFFFFFFFFFFFFFFFFFFFFFFFFFFFFFFF DUP3 SUB PUSH2 0x14D2 JUMPI PUSH2 0x14D1 PUSH2 0xFED JUMP JUMPDEST JUMPDEST PUSH1 0x1 DUP3 ADD SWAP1 POP SWAP2 SWAP1 POP JUMP INVALID LOG2 PUSH5 0x6970667358 0x22 SLT KECCAK256 SWAP6 0xC6 LOG0 DUP14 DUP12 REVERT 0x5F LOG2 LOG4 0xDB 0xE2 PUSH1 0xF1 0x2E 0x2A 0xB5 PUSH27 0x25AD18D5E06D3053D498E7D487ACDD64736F6C6343000813003300 "},"gasEstimates":{"creation":{"codeDepositCost":"1079000","executionCost":"infinite","totalCost":"infinite"},"external":{"approveRequest(uint256)":"infinite","approvedAddresses(uint256,address)":"3132","approvers(address)":"2868","approversCount()":"2451","contribute()":"53285","createRequest(string,uint256,address)":"infinite","finalizeRequest(uint256)":"infinite","getRequestsCount()":"2512","getSummary()":"infinite","manager()":"2622","minimumContribution()":"2495","requests(uint256)":"infinite"}},"methodIdentifiers":{"approveRequest(uint256)":"d7d1bbdb","approvedAddresses(uint256,address)":"33f449e5","approvers(address)":"0a144391","approversCount()":"82fde093","contribute()":"d7bb99ba","createRequest(string,uint256,address)":"8a9cfd55","finalizeRequest(uint256)":"03441006","getRequestsCount()":"3410452a","getSummary()":"4051ddac","manager()":"481c6a75","minimumContribution()":"937e09b1","requests(uint256)":"81d12c58"}},"storageLayout":{"storage":[{"astId":52,"contract":"Campaign.sol:Campaign","label":"manager","offset":0,"slot":"0","type":"t_address"},{"astId":54,"contract":"Campaign.sol:Campaign","label":"minimumContribution","offset":0,"slot":"1","type":"t_uint256"},{"astId":58,"contract":"Campaign.sol:Campaign","label":"approvers","offset":0,"slot":"2","type":"t_mapping(t_address,t_bool)"},{"astId":60,"contract":"Campaign.sol:Campaign","label":"approversCount","offset":0,"slot":"3","type":"t_uint256"},{"astId":66,"contract":"Campaign.sol:Campaign","label":"approvedAddresses","offset":0,"slot":"4","type":"t_mapping(t_uint256,t_mapping(t_address,t_bool))"},{"astId":70,"contract":"Campaign.sol:Campaign","label":"requests","offset":0,"slot":"5","type":"t_array(t_struct(Request)50_storage)dyn_storage"}],"types":{"t_address":{"encoding":"inplace","label":"address","numberOfBytes":"20"},"t_address_payable":{"encoding":"inplace","label":"address payable","numberOfBytes":"20"},"t_array(t_struct(Request)50_storage)dyn_storage":{"base":"t_struct(Request)50_storage","encoding":"dynamic_array","label":"struct Campaign.Request[]","numberOfBytes":"32"},"t_bool":{"encoding":"inplace","label":"bool","numberOfBytes":"1"},"t_mapping(t_address,t_bool)":{"encoding":"mapping","key":"t_address","label":"mapping(address => bool)","numberOfBytes":"32","value":"t_bool"},"t_mapping(t_uint256,t_mapping(t_address,t_bool))":{"encoding":"mapping","key":"t_uint256","label":"mapping(uint256 => mapping(address => bool))","numberOfBytes":"32","value":"t_mapping(t_address,t_bool)"},"t_string_storage":{"encoding":"bytes","label":"string","numberOfBytes":"32"},"t_struct(Request)50_storage":{"encoding":"inplace","label":"struct Campaign.Request","members":[{"astId":41,"contract":"Campaign.sol:Campaign","label":"description","offset":0,"slot":"0","type":"t_string_storage"},{"astId":43,"contract":"Campaign.sol:Campaign","label":"value","offset":0,"slot":"1","type":"t_uint256"},{"astId":45,"contract":"Campaign.sol:Campaign","label":"recipient","offset":0,"slot":"2","type":"t_address_payable"},{"astId":47,"contract":"Campaign.sol:Campaign","label":"complete","offset":20,"slot":"2","type":"t_bool"},{"astId":49,"contract":"Campaign.sol:Campaign","label":"approvalCount","offset":0,"slot":"3","type":"t_uint256"}],"numberOfBytes":"128"},"t_uint256":{"encoding":"inplace","label":"uint256","numberOfBytes":"32"}}},"userdoc":{"kind":"user","methods":{},"version":1}}