{"abi":[{"inputs":[{"internalType":"uint256","name":"minimum","type":"uint256"},{"internalType":"address","name":"creator","type":"address"},{"internalType":"string","name":"title","type":"string"},{"internalType":"string","name":"description","type":"string"}],"stateMutability":"nonpayable","type":"constructor"},{"inputs":[{"internalType":"uint256","name":"index","type":"uint256"}],"name":"approveRequest","outputs":[],"stateMutability":"nonpayable","type":"function"},{"inputs":[{"internalType":"uint256","name":"","type":"uint256"},{"internalType":"address","name":"","type":"address"}],"name":"approvedAddresses","outputs":[{"internalType":"bool","name":"","type":"bool"}],"stateMutability":"view","type":"function"},{"inputs":[{"internalType":"address","name":"","type":"address"}],"name":"approvers","outputs":[{"internalType":"bool","name":"","type":"bool"}],"stateMutability":"view","type":"function"},{"inputs":[],"name":"approversCount","outputs":[{"internalType":"uint256","name":"","type":"uint256"}],"stateMutability":"view","type":"function"},{"inputs":[],"name":"campaignDescription","outputs":[{"internalType":"string","name":"","type":"string"}],"stateMutability":"view","type":"function"},{"inputs":[],"name":"campaignTitle","outputs":[{"internalType":"string","name":"","type":"string"}],"stateMutability":"view","type":"function"},{"inputs":[],"name":"contribute","outputs":[],"stateMutability":"payable","type":"function"},{"inputs":[{"internalType":"string","name":"description","type":"string"},{"internalType":"uint256","name":"value","type":"uint256"},{"internalType":"address payable","name":"recipient","type":"address"}],"name":"createRequest","outputs":[],"stateMutability":"nonpayable","type":"function"},{"inputs":[{"internalType":"uint256","name":"index","type":"uint256"}],"name":"finalizeRequest","outputs":[],"stateMutability":"nonpayable","type":"function"},{"inputs":[],"name":"getDetails","outputs":[{"internalType":"string","name":"title","type":"string"},{"internalType":"string","name":"description","type":"string"},{"internalType":"uint256","name":"minimumContributionAmount","type":"uint256"},{"internalType":"uint256","name":"balance","type":"uint256"},{"internalType":"address","name":"managerAddress","type":"address"},{"internalType":"uint256","name":"requestsCount","type":"uint256"},{"internalType":"uint256","name":"campaignApproversCount","type":"uint256"}],"stateMutability":"view","type":"function"},{"inputs":[],"name":"getRequestsCount","outputs":[{"internalType":"uint256","name":"","type":"uint256"}],"stateMutability":"view","type":"function"},{"inputs":[],"name":"manager","outputs":[{"internalType":"address","name":"","type":"address"}],"stateMutability":"view","type":"function"},{"inputs":[],"name":"minimumContribution","outputs":[{"internalType":"uint256","name":"","type":"uint256"}],"stateMutability":"view","type":"function"},{"inputs":[{"internalType":"uint256","name":"","type":"uint256"}],"name":"requests","outputs":[{"internalType":"string","name":"description","type":"string"},{"internalType":"uint256","name":"value","type":"uint256"},{"internalType":"address payable","name":"recipient","type":"address"},{"internalType":"bool","name":"complete","type":"bool"},{"internalType":"uint256","name":"approvalCount","type":"uint256"}],"stateMutability":"view","type":"function"}],"devdoc":{"kind":"dev","methods":{},"version":1},"evm":{"assembly":"    /* \"Campaign.sol\":495:3378  contract Campaign {... */\n  mstore(0x40, 0x80)\n    /* \"Campaign.sol\":1133:1371  constructor(uint minimum, address creator, string memory title, string memory description) {... */\n  callvalue\n  dup1\n  iszero\n  tag_1\n  jumpi\n  0x00\n  dup1\n  revert\ntag_1:\n  pop\n  mload(0x40)\n  sub(codesize, bytecodeSize)\n  dup1\n  bytecodeSize\n  dup4\n  codecopy\n  dup2\n  dup2\n  add\n  0x40\n  mstore\n  dup2\n  add\n  swap1\n  tag_2\n  swap2\n  swap1\n  tag_3\n  jump\t// in\ntag_2:\n    /* \"Campaign.sol\":1244:1251  creator */\n  dup3\n    /* \"Campaign.sol\":1234:1241  manager */\n  0x00\n  dup1\n    /* \"Campaign.sol\":1234:1251  manager = creator */\n  0x0100\n  exp\n  dup2\n  sload\n  dup2\n  0xffffffffffffffffffffffffffffffffffffffff\n  mul\n  not\n  and\n  swap1\n  dup4\n  0xffffffffffffffffffffffffffffffffffffffff\n  and\n  mul\n  or\n  swap1\n  sstore\n  pop\n    /* \"Campaign.sol\":1283:1290  minimum */\n  dup4\n    /* \"Campaign.sol\":1261:1280  minimumContribution */\n  0x03\n    /* \"Campaign.sol\":1261:1290  minimumContribution = minimum */\n  dup2\n  swap1\n  sstore\n  pop\n    /* \"Campaign.sol\":1316:1321  title */\n  dup2\n    /* \"Campaign.sol\":1300:1313  campaignTitle */\n  0x01\n    /* \"Campaign.sol\":1300:1321  campaignTitle = title */\n  swap1\n  dup2\n  tag_6\n  swap2\n  swap1\n  tag_7\n  jump\t// in\ntag_6:\n  pop\n    /* \"Campaign.sol\":1353:1364  description */\n  dup1\n    /* \"Campaign.sol\":1331:1350  campaignDescription */\n  0x02\n    /* \"Campaign.sol\":1331:1364  campaignDescription = description */\n  swap1\n  dup2\n  tag_8\n  swap2\n  swap1\n  tag_7\n  jump\t// in\ntag_8:\n  pop\n    /* \"Campaign.sol\":1133:1371  constructor(uint minimum, address creator, string memory title, string memory description) {... */\n  pop\n  pop\n  pop\n  pop\n    /* \"Campaign.sol\":495:3378  contract Campaign {... */\n  jump(tag_9)\n    /* \"#utility.yul\":7:82   */\ntag_10:\n    /* \"#utility.yul\":40:46   */\n  0x00\n    /* \"#utility.yul\":73:75   */\n  0x40\n    /* \"#utility.yul\":67:76   */\n  mload\n    /* \"#utility.yul\":57:76   */\n  swap1\n  pop\n    /* \"#utility.yul\":7:82   */\n  swap1\n  jump\t// out\n    /* \"#utility.yul\":88:205   */\ntag_11:\n    /* \"#utility.yul\":197:198   */\n  0x00\n    /* \"#utility.yul\":194:195   */\n  dup1\n    /* \"#utility.yul\":187:199   */\n  revert\n    /* \"#utility.yul\":211:328   */\ntag_12:\n    /* \"#utility.yul\":320:321   */\n  0x00\n    /* \"#utility.yul\":317:318   */\n  dup1\n    /* \"#utility.yul\":310:322   */\n  revert\n    /* \"#utility.yul\":334:411   */\ntag_13:\n    /* \"#utility.yul\":371:378   */\n  0x00\n    /* \"#utility.yul\":400:405   */\n  dup2\n    /* \"#utility.yul\":389:405   */\n  swap1\n  pop\n    /* \"#utility.yul\":334:411   */\n  swap2\n  swap1\n  pop\n  jump\t// out\n    /* \"#utility.yul\":417:539   */\ntag_14:\n    /* \"#utility.yul\":490:514   */\n  tag_54\n    /* \"#utility.yul\":508:513   */\n  dup2\n    /* \"#utility.yul\":490:514   */\n  tag_13\n  jump\t// in\ntag_54:\n    /* \"#utility.yul\":483:488   */\n  dup2\n    /* \"#utility.yul\":480:515   */\n  eq\n    /* \"#utility.yul\":470:533   */\n  tag_55\n  jumpi\n    /* \"#utility.yul\":529:530   */\n  0x00\n    /* \"#utility.yul\":526:527   */\n  dup1\n    /* \"#utility.yul\":519:531   */\n  revert\n    /* \"#utility.yul\":470:533   */\ntag_55:\n    /* \"#utility.yul\":417:539   */\n  pop\n  jump\t// out\n    /* \"#utility.yul\":545:688   */\ntag_15:\n    /* \"#utility.yul\":602:607   */\n  0x00\n    /* \"#utility.yul\":633:639   */\n  dup2\n    /* \"#utility.yul\":627:640   */\n  mload\n    /* \"#utility.yul\":618:640   */\n  swap1\n  pop\n    /* \"#utility.yul\":649:682   */\n  tag_57\n    /* \"#utility.yul\":676:681   */\n  dup2\n    /* \"#utility.yul\":649:682   */\n  tag_14\n  jump\t// in\ntag_57:\n    /* \"#utility.yul\":545:688   */\n  swap3\n  swap2\n  pop\n  pop\n  jump\t// out\n    /* \"#utility.yul\":694:820   */\ntag_16:\n    /* \"#utility.yul\":731:738   */\n  0x00\n    /* \"#utility.yul\":771:813   */\n  0xffffffffffffffffffffffffffffffffffffffff\n    /* \"#utility.yul\":764:769   */\n  dup3\n    /* \"#utility.yul\":760:814   */\n  and\n    /* \"#utility.yul\":749:814   */\n  swap1\n  pop\n    /* \"#utility.yul\":694:820   */\n  swap2\n  swap1\n  pop\n  jump\t// out\n    /* \"#utility.yul\":826:922   */\ntag_17:\n    /* \"#utility.yul\":863:870   */\n  0x00\n    /* \"#utility.yul\":892:916   */\n  tag_60\n    /* \"#utility.yul\":910:915   */\n  dup3\n    /* \"#utility.yul\":892:916   */\n  tag_16\n  jump\t// in\ntag_60:\n    /* \"#utility.yul\":881:916   */\n  swap1\n  pop\n    /* \"#utility.yul\":826:922   */\n  swap2\n  swap1\n  pop\n  jump\t// out\n    /* \"#utility.yul\":928:1050   */\ntag_18:\n    /* \"#utility.yul\":1001:1025   */\n  tag_62\n    /* \"#utility.yul\":1019:1024   */\n  dup2\n    /* \"#utility.yul\":1001:1025   */\n  tag_17\n  jump\t// in\ntag_62:\n    /* \"#utility.yul\":994:999   */\n  dup2\n    /* \"#utility.yul\":991:1026   */\n  eq\n    /* \"#utility.yul\":981:1044   */\n  tag_63\n  jumpi\n    /* \"#utility.yul\":1040:1041   */\n  0x00\n    /* \"#utility.yul\":1037:1038   */\n  dup1\n    /* \"#utility.yul\":1030:1042   */\n  revert\n    /* \"#utility.yul\":981:1044   */\ntag_63:\n    /* \"#utility.yul\":928:1050   */\n  pop\n  jump\t// out\n    /* \"#utility.yul\":1056:1199   */\ntag_19:\n    /* \"#utility.yul\":1113:1118   */\n  0x00\n    /* \"#utility.yul\":1144:1150   */\n  dup2\n    /* \"#utility.yul\":1138:1151   */\n  mload\n    /* \"#utility.yul\":1129:1151   */\n  swap1\n  pop\n    /* \"#utility.yul\":1160:1193   */\n  tag_65\n    /* \"#utility.yul\":1187:1192   */\n  dup2\n    /* \"#utility.yul\":1160:1193   */\n  tag_18\n  jump\t// in\ntag_65:\n    /* \"#utility.yul\":1056:1199   */\n  swap3\n  swap2\n  pop\n  pop\n  jump\t// out\n    /* \"#utility.yul\":1205:1322   */\ntag_20:\n    /* \"#utility.yul\":1314:1315   */\n  0x00\n    /* \"#utility.yul\":1311:1312   */\n  dup1\n    /* \"#utility.yul\":1304:1316   */\n  revert\n    /* \"#utility.yul\":1328:1445   */\ntag_21:\n    /* \"#utility.yul\":1437:1438   */\n  0x00\n    /* \"#utility.yul\":1434:1435   */\n  dup1\n    /* \"#utility.yul\":1427:1439   */\n  revert\n    /* \"#utility.yul\":1451:1553   */\ntag_22:\n    /* \"#utility.yul\":1492:1498   */\n  0x00\n    /* \"#utility.yul\":1543:1545   */\n  0x1f\n    /* \"#utility.yul\":1539:1546   */\n  not\n    /* \"#utility.yul\":1534:1536   */\n  0x1f\n    /* \"#utility.yul\":1527:1532   */\n  dup4\n    /* \"#utility.yul\":1523:1537   */\n  add\n    /* \"#utility.yul\":1519:1547   */\n  and\n    /* \"#utility.yul\":1509:1547   */\n  swap1\n  pop\n    /* \"#utility.yul\":1451:1553   */\n  swap2\n  swap1\n  pop\n  jump\t// out\n    /* \"#utility.yul\":1559:1739   */\ntag_23:\n    /* \"#utility.yul\":1607:1684   */\n  0x4e487b7100000000000000000000000000000000000000000000000000000000\n    /* \"#utility.yul\":1604:1605   */\n  0x00\n    /* \"#utility.yul\":1597:1685   */\n  mstore\n    /* \"#utility.yul\":1704:1708   */\n  0x41\n    /* \"#utility.yul\":1701:1702   */\n  0x04\n    /* \"#utility.yul\":1694:1709   */\n  mstore\n    /* \"#utility.yul\":1728:1732   */\n  0x24\n    /* \"#utility.yul\":1725:1726   */\n  0x00\n    /* \"#utility.yul\":1718:1733   */\n  revert\n    /* \"#utility.yul\":1745:2026   */\ntag_24:\n    /* \"#utility.yul\":1828:1855   */\n  tag_71\n    /* \"#utility.yul\":1850:1854   */\n  dup3\n    /* \"#utility.yul\":1828:1855   */\n  tag_22\n  jump\t// in\ntag_71:\n    /* \"#utility.yul\":1820:1826   */\n  dup2\n    /* \"#utility.yul\":1816:1856   */\n  add\n    /* \"#utility.yul\":1958:1964   */\n  dup2\n    /* \"#utility.yul\":1946:1956   */\n  dup2\n    /* \"#utility.yul\":1943:1965   */\n  lt\n    /* \"#utility.yul\":1922:1940   */\n  0xffffffffffffffff\n    /* \"#utility.yul\":1910:1920   */\n  dup3\n    /* \"#utility.yul\":1907:1941   */\n  gt\n    /* \"#utility.yul\":1904:1966   */\n  or\n    /* \"#utility.yul\":1901:1989   */\n  iszero\n  tag_72\n  jumpi\n    /* \"#utility.yul\":1969:1987   */\n  tag_73\n  tag_23\n  jump\t// in\ntag_73:\n    /* \"#utility.yul\":1901:1989   */\ntag_72:\n    /* \"#utility.yul\":2009:2019   */\n  dup1\n    /* \"#utility.yul\":2005:2007   */\n  0x40\n    /* \"#utility.yul\":1998:2020   */\n  mstore\n    /* \"#utility.yul\":1788:2026   */\n  pop\n    /* \"#utility.yul\":1745:2026   */\n  pop\n  pop\n  jump\t// out\n    /* \"#utility.yul\":2032:2161   */\ntag_25:\n    /* \"#utility.yul\":2066:2072   */\n  0x00\n    /* \"#utility.yul\":2093:2113   */\n  tag_75\n  tag_10\n  jump\t// in\ntag_75:\n    /* \"#utility.yul\":2083:2113   */\n  swap1\n  pop\n    /* \"#utility.yul\":2122:2155   */\n  tag_76\n    /* \"#utility.yul\":2150:2154   */\n  dup3\n    /* \"#utility.yul\":2142:2148   */\n  dup3\n    /* \"#utility.yul\":2122:2155   */\n  tag_24\n  jump\t// in\ntag_76:\n    /* \"#utility.yul\":2032:2161   */\n  swap2\n  swap1\n  pop\n  jump\t// out\n    /* \"#utility.yul\":2167:2475   */\ntag_26:\n    /* \"#utility.yul\":2229:2233   */\n  0x00\n    /* \"#utility.yul\":2319:2337   */\n  0xffffffffffffffff\n    /* \"#utility.yul\":2311:2317   */\n  dup3\n    /* \"#utility.yul\":2308:2338   */\n  gt\n    /* \"#utility.yul\":2305:2361   */\n  iszero\n  tag_78\n  jumpi\n    /* \"#utility.yul\":2341:2359   */\n  tag_79\n  tag_23\n  jump\t// in\ntag_79:\n    /* \"#utility.yul\":2305:2361   */\ntag_78:\n    /* \"#utility.yul\":2379:2408   */\n  tag_80\n    /* \"#utility.yul\":2401:2407   */\n  dup3\n    /* \"#utility.yul\":2379:2408   */\n  tag_22\n  jump\t// in\ntag_80:\n    /* \"#utility.yul\":2371:2408   */\n  swap1\n  pop\n    /* \"#utility.yul\":2463:2467   */\n  0x20\n    /* \"#utility.yul\":2457:2461   */\n  dup2\n    /* \"#utility.yul\":2453:2468   */\n  add\n    /* \"#utility.yul\":2445:2468   */\n  swap1\n  pop\n    /* \"#utility.yul\":2167:2475   */\n  swap2\n  swap1\n  pop\n  jump\t// out\n    /* \"#utility.yul\":2481:2727   */\ntag_27:\n    /* \"#utility.yul\":2562:2563   */\n  0x00\n    /* \"#utility.yul\":2572:2685   */\ntag_82:\n    /* \"#utility.yul\":2586:2592   */\n  dup4\n    /* \"#utility.yul\":2583:2584   */\n  dup2\n    /* \"#utility.yul\":2580:2593   */\n  lt\n    /* \"#utility.yul\":2572:2685   */\n  iszero\n  tag_84\n  jumpi\n    /* \"#utility.yul\":2671:2672   */\n  dup1\n    /* \"#utility.yul\":2666:2669   */\n  dup3\n    /* \"#utility.yul\":2662:2673   */\n  add\n    /* \"#utility.yul\":2656:2674   */\n  mload\n    /* \"#utility.yul\":2652:2653   */\n  dup2\n    /* \"#utility.yul\":2647:2650   */\n  dup5\n    /* \"#utility.yul\":2643:2654   */\n  add\n    /* \"#utility.yul\":2636:2675   */\n  mstore\n    /* \"#utility.yul\":2608:2610   */\n  0x20\n    /* \"#utility.yul\":2605:2606   */\n  dup2\n    /* \"#utility.yul\":2601:2611   */\n  add\n    /* \"#utility.yul\":2596:2611   */\n  swap1\n  pop\n    /* \"#utility.yul\":2572:2685   */\n  jump(tag_82)\ntag_84:\n    /* \"#utility.yul\":2719:2720   */\n  0x00\n    /* \"#utility.yul\":2710:2716   */\n  dup5\n    /* \"#utility.yul\":2705:2708   */\n  dup5\n    /* \"#utility.yul\":2701:2717   */\n  add\n    /* \"#utility.yul\":2694:2721   */\n  mstore\n    /* \"#utility.yul\":2543:2727   */\n  pop\n    /* \"#utility.yul\":2481:2727   */\n  pop\n  pop\n  pop\n  jump\t// out\n    /* \"#utility.yul\":2733:3167   */\ntag_28:\n    /* \"#utility.yul\":2822:2827   */\n  0x00\n    /* \"#utility.yul\":2847:2913   */\n  tag_86\n    /* \"#utility.yul\":2863:2912   */\n  tag_87\n    /* \"#utility.yul\":2905:2911   */\n  dup5\n    /* \"#utility.yul\":2863:2912   */\n  tag_26\n  jump\t// in\ntag_87:\n    /* \"#utility.yul\":2847:2913   */\n  tag_25\n  jump\t// in\ntag_86:\n    /* \"#utility.yul\":2838:2913   */\n  swap1\n  pop\n    /* \"#utility.yul\":2936:2942   */\n  dup3\n    /* \"#utility.yul\":2929:2934   */\n  dup2\n    /* \"#utility.yul\":2922:2943   */\n  mstore\n    /* \"#utility.yul\":2974:2978   */\n  0x20\n    /* \"#utility.yul\":2967:2972   */\n  dup2\n    /* \"#utility.yul\":2963:2979   */\n  add\n    /* \"#utility.yul\":3012:3015   */\n  dup5\n    /* \"#utility.yul\":3003:3009   */\n  dup5\n    /* \"#utility.yul\":2998:3001   */\n  dup5\n    /* \"#utility.yul\":2994:3010   */\n  add\n    /* \"#utility.yul\":2991:3016   */\n  gt\n    /* \"#utility.yul\":2988:3100   */\n  iszero\n  tag_88\n  jumpi\n    /* \"#utility.yul\":3019:3098   */\n  tag_89\n  tag_21\n  jump\t// in\ntag_89:\n    /* \"#utility.yul\":2988:3100   */\ntag_88:\n    /* \"#utility.yul\":3109:3161   */\n  tag_90\n    /* \"#utility.yul\":3154:3160   */\n  dup5\n    /* \"#utility.yul\":3149:3152   */\n  dup3\n    /* \"#utility.yul\":3144:3147   */\n  dup6\n    /* \"#utility.yul\":3109:3161   */\n  tag_27\n  jump\t// in\ntag_90:\n    /* \"#utility.yul\":2828:3167   */\n  pop\n    /* \"#utility.yul\":2733:3167   */\n  swap4\n  swap3\n  pop\n  pop\n  pop\n  jump\t// out\n    /* \"#utility.yul\":3187:3542   */\ntag_29:\n    /* \"#utility.yul\":3254:3259   */\n  0x00\n    /* \"#utility.yul\":3303:3306   */\n  dup3\n    /* \"#utility.yul\":3296:3300   */\n  0x1f\n    /* \"#utility.yul\":3288:3294   */\n  dup4\n    /* \"#utility.yul\":3284:3301   */\n  add\n    /* \"#utility.yul\":3280:3307   */\n  slt\n    /* \"#utility.yul\":3270:3392   */\n  tag_92\n  jumpi\n    /* \"#utility.yul\":3311:3390   */\n  tag_93\n  tag_20\n  jump\t// in\ntag_93:\n    /* \"#utility.yul\":3270:3392   */\ntag_92:\n    /* \"#utility.yul\":3421:3427   */\n  dup2\n    /* \"#utility.yul\":3415:3428   */\n  mload\n    /* \"#utility.yul\":3446:3536   */\n  tag_94\n    /* \"#utility.yul\":3532:3535   */\n  dup5\n    /* \"#utility.yul\":3524:3530   */\n  dup3\n    /* \"#utility.yul\":3517:3521   */\n  0x20\n    /* \"#utility.yul\":3509:3515   */\n  dup7\n    /* \"#utility.yul\":3505:3522   */\n  add\n    /* \"#utility.yul\":3446:3536   */\n  tag_28\n  jump\t// in\ntag_94:\n    /* \"#utility.yul\":3437:3536   */\n  swap2\n  pop\n    /* \"#utility.yul\":3260:3542   */\n  pop\n    /* \"#utility.yul\":3187:3542   */\n  swap3\n  swap2\n  pop\n  pop\n  jump\t// out\n    /* \"#utility.yul\":3548:4714   */\ntag_3:\n    /* \"#utility.yul\":3665:3671   */\n  0x00\n    /* \"#utility.yul\":3673:3679   */\n  dup1\n    /* \"#utility.yul\":3681:3687   */\n  0x00\n    /* \"#utility.yul\":3689:3695   */\n  dup1\n    /* \"#utility.yul\":3738:3741   */\n  0x80\n    /* \"#utility.yul\":3726:3735   */\n  dup6\n    /* \"#utility.yul\":3717:3724   */\n  dup8\n    /* \"#utility.yul\":3713:3736   */\n  sub\n    /* \"#utility.yul\":3709:3742   */\n  slt\n    /* \"#utility.yul\":3706:3826   */\n  iszero\n  tag_96\n  jumpi\n    /* \"#utility.yul\":3745:3824   */\n  tag_97\n  tag_11\n  jump\t// in\ntag_97:\n    /* \"#utility.yul\":3706:3826   */\ntag_96:\n    /* \"#utility.yul\":3865:3866   */\n  0x00\n    /* \"#utility.yul\":3890:3954   */\n  tag_98\n    /* \"#utility.yul\":3946:3953   */\n  dup8\n    /* \"#utility.yul\":3937:3943   */\n  dup3\n    /* \"#utility.yul\":3926:3935   */\n  dup9\n    /* \"#utility.yul\":3922:3944   */\n  add\n    /* \"#utility.yul\":3890:3954   */\n  tag_15\n  jump\t// in\ntag_98:\n    /* \"#utility.yul\":3880:3954   */\n  swap5\n  pop\n    /* \"#utility.yul\":3836:3964   */\n  pop\n    /* \"#utility.yul\":4003:4005   */\n  0x20\n    /* \"#utility.yul\":4029:4093   */\n  tag_99\n    /* \"#utility.yul\":4085:4092   */\n  dup8\n    /* \"#utility.yul\":4076:4082   */\n  dup3\n    /* \"#utility.yul\":4065:4074   */\n  dup9\n    /* \"#utility.yul\":4061:4083   */\n  add\n    /* \"#utility.yul\":4029:4093   */\n  tag_19\n  jump\t// in\ntag_99:\n    /* \"#utility.yul\":4019:4093   */\n  swap4\n  pop\n    /* \"#utility.yul\":3974:4103   */\n  pop\n    /* \"#utility.yul\":4163:4165   */\n  0x40\n    /* \"#utility.yul\":4152:4161   */\n  dup6\n    /* \"#utility.yul\":4148:4166   */\n  add\n    /* \"#utility.yul\":4142:4167   */\n  mload\n    /* \"#utility.yul\":4194:4212   */\n  0xffffffffffffffff\n    /* \"#utility.yul\":4186:4192   */\n  dup2\n    /* \"#utility.yul\":4183:4213   */\n  gt\n    /* \"#utility.yul\":4180:4297   */\n  iszero\n  tag_100\n  jumpi\n    /* \"#utility.yul\":4216:4295   */\n  tag_101\n  tag_12\n  jump\t// in\ntag_101:\n    /* \"#utility.yul\":4180:4297   */\ntag_100:\n    /* \"#utility.yul\":4321:4395   */\n  tag_102\n    /* \"#utility.yul\":4387:4394   */\n  dup8\n    /* \"#utility.yul\":4378:4384   */\n  dup3\n    /* \"#utility.yul\":4367:4376   */\n  dup9\n    /* \"#utility.yul\":4363:4385   */\n  add\n    /* \"#utility.yul\":4321:4395   */\n  tag_29\n  jump\t// in\ntag_102:\n    /* \"#utility.yul\":4311:4395   */\n  swap3\n  pop\n    /* \"#utility.yul\":4113:4405   */\n  pop\n    /* \"#utility.yul\":4465:4467   */\n  0x60\n    /* \"#utility.yul\":4454:4463   */\n  dup6\n    /* \"#utility.yul\":4450:4468   */\n  add\n    /* \"#utility.yul\":4444:4469   */\n  mload\n    /* \"#utility.yul\":4496:4514   */\n  0xffffffffffffffff\n    /* \"#utility.yul\":4488:4494   */\n  dup2\n    /* \"#utility.yul\":4485:4515   */\n  gt\n    /* \"#utility.yul\":4482:4599   */\n  iszero\n  tag_103\n  jumpi\n    /* \"#utility.yul\":4518:4597   */\n  tag_104\n  tag_12\n  jump\t// in\ntag_104:\n    /* \"#utility.yul\":4482:4599   */\ntag_103:\n    /* \"#utility.yul\":4623:4697   */\n  tag_105\n    /* \"#utility.yul\":4689:4696   */\n  dup8\n    /* \"#utility.yul\":4680:4686   */\n  dup3\n    /* \"#utility.yul\":4669:4678   */\n  dup9\n    /* \"#utility.yul\":4665:4687   */\n  add\n    /* \"#utility.yul\":4623:4697   */\n  tag_29\n  jump\t// in\ntag_105:\n    /* \"#utility.yul\":4613:4697   */\n  swap2\n  pop\n    /* \"#utility.yul\":4415:4707   */\n  pop\n    /* \"#utility.yul\":3548:4714   */\n  swap3\n  swap6\n  swap2\n  swap5\n  pop\n  swap3\n  pop\n  jump\t// out\n    /* \"#utility.yul\":4720:4819   */\ntag_30:\n    /* \"#utility.yul\":4772:4778   */\n  0x00\n    /* \"#utility.yul\":4806:4811   */\n  dup2\n    /* \"#utility.yul\":4800:4812   */\n  mload\n    /* \"#utility.yul\":4790:4812   */\n  swap1\n  pop\n    /* \"#utility.yul\":4720:4819   */\n  swap2\n  swap1\n  pop\n  jump\t// out\n    /* \"#utility.yul\":4825:5005   */\ntag_31:\n    /* \"#utility.yul\":4873:4950   */\n  0x4e487b7100000000000000000000000000000000000000000000000000000000\n    /* \"#utility.yul\":4870:4871   */\n  0x00\n    /* \"#utility.yul\":4863:4951   */\n  mstore\n    /* \"#utility.yul\":4970:4974   */\n  0x22\n    /* \"#utility.yul\":4967:4968   */\n  0x04\n    /* \"#utility.yul\":4960:4975   */\n  mstore\n    /* \"#utility.yul\":4994:4998   */\n  0x24\n    /* \"#utility.yul\":4991:4992   */\n  0x00\n    /* \"#utility.yul\":4984:4999   */\n  revert\n    /* \"#utility.yul\":5011:5331   */\ntag_32:\n    /* \"#utility.yul\":5055:5061   */\n  0x00\n    /* \"#utility.yul\":5092:5093   */\n  0x02\n    /* \"#utility.yul\":5086:5090   */\n  dup3\n    /* \"#utility.yul\":5082:5094   */\n  div\n    /* \"#utility.yul\":5072:5094   */\n  swap1\n  pop\n    /* \"#utility.yul\":5139:5140   */\n  0x01\n    /* \"#utility.yul\":5133:5137   */\n  dup3\n    /* \"#utility.yul\":5129:5141   */\n  and\n    /* \"#utility.yul\":5160:5178   */\n  dup1\n    /* \"#utility.yul\":5150:5231   */\n  tag_109\n  jumpi\n    /* \"#utility.yul\":5216:5220   */\n  0x7f\n    /* \"#utility.yul\":5208:5214   */\n  dup3\n    /* \"#utility.yul\":5204:5221   */\n  and\n    /* \"#utility.yul\":5194:5221   */\n  swap2\n  pop\n    /* \"#utility.yul\":5150:5231   */\ntag_109:\n    /* \"#utility.yul\":5278:5280   */\n  0x20\n    /* \"#utility.yul\":5270:5276   */\n  dup3\n    /* \"#utility.yul\":5267:5281   */\n  lt\n    /* \"#utility.yul\":5247:5265   */\n  dup2\n    /* \"#utility.yul\":5244:5282   */\n  sub\n    /* \"#utility.yul\":5241:5325   */\n  tag_110\n  jumpi\n    /* \"#utility.yul\":5297:5315   */\n  tag_111\n  tag_31\n  jump\t// in\ntag_111:\n    /* \"#utility.yul\":5241:5325   */\ntag_110:\n    /* \"#utility.yul\":5062:5331   */\n  pop\n    /* \"#utility.yul\":5011:5331   */\n  swap2\n  swap1\n  pop\n  jump\t// out\n    /* \"#utility.yul\":5337:5478   */\ntag_33:\n    /* \"#utility.yul\":5386:5390   */\n  0x00\n    /* \"#utility.yul\":5409:5412   */\n  dup2\n    /* \"#utility.yul\":5401:5412   */\n  swap1\n  pop\n    /* \"#utility.yul\":5432:5435   */\n  dup2\n    /* \"#utility.yul\":5429:5430   */\n  0x00\n    /* \"#utility.yul\":5422:5436   */\n  mstore\n    /* \"#utility.yul\":5466:5470   */\n  0x20\n    /* \"#utility.yul\":5463:5464   */\n  0x00\n    /* \"#utility.yul\":5453:5471   */\n  keccak256\n    /* \"#utility.yul\":5445:5471   */\n  swap1\n  pop\n    /* \"#utility.yul\":5337:5478   */\n  swap2\n  swap1\n  pop\n  jump\t// out\n    /* \"#utility.yul\":5484:5577   */\ntag_34:\n    /* \"#utility.yul\":5521:5527   */\n  0x00\n    /* \"#utility.yul\":5568:5570   */\n  0x20\n    /* \"#utility.yul\":5563:5565   */\n  0x1f\n    /* \"#utility.yul\":5556:5561   */\n  dup4\n    /* \"#utility.yul\":5552:5566   */\n  add\n    /* \"#utility.yul\":5548:5571   */\n  div\n    /* \"#utility.yul\":5538:5571   */\n  swap1\n  pop\n    /* \"#utility.yul\":5484:5577   */\n  swap2\n  swap1\n  pop\n  jump\t// out\n    /* \"#utility.yul\":5583:5690   */\ntag_35:\n    /* \"#utility.yul\":5627:5635   */\n  0x00\n    /* \"#utility.yul\":5677:5682   */\n  dup3\n    /* \"#utility.yul\":5671:5675   */\n  dup3\n    /* \"#utility.yul\":5667:5683   */\n  shl\n    /* \"#utility.yul\":5646:5683   */\n  swap1\n  pop\n    /* \"#utility.yul\":5583:5690   */\n  swap3\n  swap2\n  pop\n  pop\n  jump\t// out\n    /* \"#utility.yul\":5696:6089   */\ntag_36:\n    /* \"#utility.yul\":5765:5771   */\n  0x00\n    /* \"#utility.yul\":5815:5816   */\n  0x08\n    /* \"#utility.yul\":5803:5813   */\n  dup4\n    /* \"#utility.yul\":5799:5817   */\n  mul\n    /* \"#utility.yul\":5838:5935   */\n  tag_116\n    /* \"#utility.yul\":5868:5934   */\n  0xffffffffffffffffffffffffffffffffffffffffffffffffffffffffffffffff\n    /* \"#utility.yul\":5857:5866   */\n  dup3\n    /* \"#utility.yul\":5838:5935   */\n  tag_35\n  jump\t// in\ntag_116:\n    /* \"#utility.yul\":5956:5995   */\n  tag_117\n    /* \"#utility.yul\":5986:5994   */\n  dup7\n    /* \"#utility.yul\":5975:5984   */\n  dup4\n    /* \"#utility.yul\":5956:5995   */\n  tag_35\n  jump\t// in\ntag_117:\n    /* \"#utility.yul\":5944:5995   */\n  swap6\n  pop\n    /* \"#utility.yul\":6028:6032   */\n  dup1\n    /* \"#utility.yul\":6024:6033   */\n  not\n    /* \"#utility.yul\":6017:6022   */\n  dup5\n    /* \"#utility.yul\":6013:6034   */\n  and\n    /* \"#utility.yul\":6004:6034   */\n  swap4\n  pop\n    /* \"#utility.yul\":6077:6081   */\n  dup1\n    /* \"#utility.yul\":6067:6075   */\n  dup7\n    /* \"#utility.yul\":6063:6082   */\n  and\n    /* \"#utility.yul\":6056:6061   */\n  dup5\n    /* \"#utility.yul\":6053:6083   */\n  or\n    /* \"#utility.yul\":6043:6083   */\n  swap3\n  pop\n    /* \"#utility.yul\":5772:6089   */\n  pop\n  pop\n    /* \"#utility.yul\":5696:6089   */\n  swap4\n  swap3\n  pop\n  pop\n  pop\n  jump\t// out\n    /* \"#utility.yul\":6095:6155   */\ntag_37:\n    /* \"#utility.yul\":6123:6126   */\n  0x00\n    /* \"#utility.yul\":6144:6149   */\n  dup2\n    /* \"#utility.yul\":6137:6149   */\n  swap1\n  pop\n    /* \"#utility.yul\":6095:6155   */\n  swap2\n  swap1\n  pop\n  jump\t// out\n    /* \"#utility.yul\":6161:6303   */\ntag_38:\n    /* \"#utility.yul\":6211:6220   */\n  0x00\n    /* \"#utility.yul\":6244:6297   */\n  tag_120\n    /* \"#utility.yul\":6262:6296   */\n  tag_121\n    /* \"#utility.yul\":6271:6295   */\n  tag_122\n    /* \"#utility.yul\":6289:6294   */\n  dup5\n    /* \"#utility.yul\":6271:6295   */\n  tag_13\n  jump\t// in\ntag_122:\n    /* \"#utility.yul\":6262:6296   */\n  tag_37\n  jump\t// in\ntag_121:\n    /* \"#utility.yul\":6244:6297   */\n  tag_13\n  jump\t// in\ntag_120:\n    /* \"#utility.yul\":6231:6297   */\n  swap1\n  pop\n    /* \"#utility.yul\":6161:6303   */\n  swap2\n  swap1\n  pop\n  jump\t// out\n    /* \"#utility.yul\":6309:6384   */\ntag_39:\n    /* \"#utility.yul\":6352:6355   */\n  0x00\n    /* \"#utility.yul\":6373:6378   */\n  dup2\n    /* \"#utility.yul\":6366:6378   */\n  swap1\n  pop\n    /* \"#utility.yul\":6309:6384   */\n  swap2\n  swap1\n  pop\n  jump\t// out\n    /* \"#utility.yul\":6390:6659   */\ntag_40:\n    /* \"#utility.yul\":6500:6539   */\n  tag_125\n    /* \"#utility.yul\":6531:6538   */\n  dup4\n    /* \"#utility.yul\":6500:6539   */\n  tag_38\n  jump\t// in\ntag_125:\n    /* \"#utility.yul\":6561:6652   */\n  tag_126\n    /* \"#utility.yul\":6610:6651   */\n  tag_127\n    /* \"#utility.yul\":6634:6650   */\n  dup3\n    /* \"#utility.yul\":6610:6651   */\n  tag_39\n  jump\t// in\ntag_127:\n    /* \"#utility.yul\":6602:6608   */\n  dup5\n    /* \"#utility.yul\":6595:6599   */\n  dup5\n    /* \"#utility.yul\":6589:6600   */\n  sload\n    /* \"#utility.yul\":6561:6652   */\n  tag_36\n  jump\t// in\ntag_126:\n    /* \"#utility.yul\":6555:6559   */\n  dup3\n    /* \"#utility.yul\":6548:6653   */\n  sstore\n    /* \"#utility.yul\":6466:6659   */\n  pop\n    /* \"#utility.yul\":6390:6659   */\n  pop\n  pop\n  pop\n  jump\t// out\n    /* \"#utility.yul\":6665:6738   */\ntag_41:\n    /* \"#utility.yul\":6710:6713   */\n  0x00\n    /* \"#utility.yul\":6665:6738   */\n  swap1\n  jump\t// out\n    /* \"#utility.yul\":6744:6933   */\ntag_42:\n    /* \"#utility.yul\":6821:6853   */\n  tag_130\n  tag_41\n  jump\t// in\ntag_130:\n    /* \"#utility.yul\":6862:6927   */\n  tag_131\n    /* \"#utility.yul\":6920:6926   */\n  dup2\n    /* \"#utility.yul\":6912:6918   */\n  dup5\n    /* \"#utility.yul\":6906:6910   */\n  dup5\n    /* \"#utility.yul\":6862:6927   */\n  tag_40\n  jump\t// in\ntag_131:\n    /* \"#utility.yul\":6797:6933   */\n  pop\n    /* \"#utility.yul\":6744:6933   */\n  pop\n  pop\n  jump\t// out\n    /* \"#utility.yul\":6939:7125   */\ntag_43:\n    /* \"#utility.yul\":6999:7119   */\ntag_133:\n    /* \"#utility.yul\":7016:7019   */\n  dup2\n    /* \"#utility.yul\":7009:7014   */\n  dup2\n    /* \"#utility.yul\":7006:7020   */\n  lt\n    /* \"#utility.yul\":6999:7119   */\n  iszero\n  tag_135\n  jumpi\n    /* \"#utility.yul\":7070:7109   */\n  tag_136\n    /* \"#utility.yul\":7107:7108   */\n  0x00\n    /* \"#utility.yul\":7100:7105   */\n  dup3\n    /* \"#utility.yul\":7070:7109   */\n  tag_42\n  jump\t// in\ntag_136:\n    /* \"#utility.yul\":7043:7044   */\n  0x01\n    /* \"#utility.yul\":7036:7041   */\n  dup2\n    /* \"#utility.yul\":7032:7045   */\n  add\n    /* \"#utility.yul\":7023:7045   */\n  swap1\n  pop\n    /* \"#utility.yul\":6999:7119   */\n  jump(tag_133)\ntag_135:\n    /* \"#utility.yul\":6939:7125   */\n  pop\n  pop\n  jump\t// out\n    /* \"#utility.yul\":7131:7674   */\ntag_44:\n    /* \"#utility.yul\":7232:7234   */\n  0x1f\n    /* \"#utility.yul\":7227:7230   */\n  dup3\n    /* \"#utility.yul\":7224:7235   */\n  gt\n    /* \"#utility.yul\":7221:7667   */\n  iszero\n  tag_138\n  jumpi\n    /* \"#utility.yul\":7266:7304   */\n  tag_139\n    /* \"#utility.yul\":7298:7303   */\n  dup2\n    /* \"#utility.yul\":7266:7304   */\n  tag_33\n  jump\t// in\ntag_139:\n    /* \"#utility.yul\":7350:7379   */\n  tag_140\n    /* \"#utility.yul\":7368:7378   */\n  dup5\n    /* \"#utility.yul\":7350:7379   */\n  tag_34\n  jump\t// in\ntag_140:\n    /* \"#utility.yul\":7340:7348   */\n  dup2\n    /* \"#utility.yul\":7336:7380   */\n  add\n    /* \"#utility.yul\":7533:7535   */\n  0x20\n    /* \"#utility.yul\":7521:7531   */\n  dup6\n    /* \"#utility.yul\":7518:7536   */\n  lt\n    /* \"#utility.yul\":7515:7564   */\n  iszero\n  tag_141\n  jumpi\n    /* \"#utility.yul\":7554:7562   */\n  dup2\n    /* \"#utility.yul\":7539:7562   */\n  swap1\n  pop\n    /* \"#utility.yul\":7515:7564   */\ntag_141:\n    /* \"#utility.yul\":7577:7657   */\n  tag_142\n    /* \"#utility.yul\":7633:7655   */\n  tag_143\n    /* \"#utility.yul\":7651:7654   */\n  dup6\n    /* \"#utility.yul\":7633:7655   */\n  tag_34\n  jump\t// in\ntag_143:\n    /* \"#utility.yul\":7623:7631   */\n  dup4\n    /* \"#utility.yul\":7619:7656   */\n  add\n    /* \"#utility.yul\":7606:7617   */\n  dup3\n    /* \"#utility.yul\":7577:7657   */\n  tag_43\n  jump\t// in\ntag_142:\n    /* \"#utility.yul\":7236:7667   */\n  pop\n  pop\n    /* \"#utility.yul\":7221:7667   */\ntag_138:\n    /* \"#utility.yul\":7131:7674   */\n  pop\n  pop\n  pop\n  jump\t// out\n    /* \"#utility.yul\":7680:7797   */\ntag_45:\n    /* \"#utility.yul\":7734:7742   */\n  0x00\n    /* \"#utility.yul\":7784:7789   */\n  dup3\n    /* \"#utility.yul\":7778:7782   */\n  dup3\n    /* \"#utility.yul\":7774:7790   */\n  shr\n    /* \"#utility.yul\":7753:7790   */\n  swap1\n  pop\n    /* \"#utility.yul\":7680:7797   */\n  swap3\n  swap2\n  pop\n  pop\n  jump\t// out\n    /* \"#utility.yul\":7803:7972   */\ntag_46:\n    /* \"#utility.yul\":7847:7853   */\n  0x00\n    /* \"#utility.yul\":7880:7931   */\n  tag_146\n    /* \"#utility.yul\":7928:7929   */\n  0x00\n    /* \"#utility.yul\":7924:7930   */\n  not\n    /* \"#utility.yul\":7916:7921   */\n  dup5\n    /* \"#utility.yul\":7913:7914   */\n  0x08\n    /* \"#utility.yul\":7909:7922   */\n  mul\n    /* \"#utility.yul\":7880:7931   */\n  tag_45\n  jump\t// in\ntag_146:\n    /* \"#utility.yul\":7876:7932   */\n  not\n    /* \"#utility.yul\":7961:7965   */\n  dup1\n    /* \"#utility.yul\":7955:7959   */\n  dup4\n    /* \"#utility.yul\":7951:7966   */\n  and\n    /* \"#utility.yul\":7941:7966   */\n  swap2\n  pop\n    /* \"#utility.yul\":7854:7972   */\n  pop\n    /* \"#utility.yul\":7803:7972   */\n  swap3\n  swap2\n  pop\n  pop\n  jump\t// out\n    /* \"#utility.yul\":7977:8272   */\ntag_47:\n    /* \"#utility.yul\":8053:8057   */\n  0x00\n    /* \"#utility.yul\":8199:8228   */\n  tag_148\n    /* \"#utility.yul\":8224:8227   */\n  dup4\n    /* \"#utility.yul\":8218:8222   */\n  dup4\n    /* \"#utility.yul\":8199:8228   */\n  tag_46\n  jump\t// in\ntag_148:\n    /* \"#utility.yul\":8191:8228   */\n  swap2\n  pop\n    /* \"#utility.yul\":8261:8264   */\n  dup3\n    /* \"#utility.yul\":8258:8259   */\n  0x02\n    /* \"#utility.yul\":8254:8265   */\n  mul\n    /* \"#utility.yul\":8248:8252   */\n  dup3\n    /* \"#utility.yul\":8245:8266   */\n  or\n    /* \"#utility.yul\":8237:8266   */\n  swap1\n  pop\n    /* \"#utility.yul\":7977:8272   */\n  swap3\n  swap2\n  pop\n  pop\n  jump\t// out\n    /* \"#utility.yul\":8277:9672   */\ntag_7:\n    /* \"#utility.yul\":8394:8431   */\n  tag_150\n    /* \"#utility.yul\":8427:8430   */\n  dup3\n    /* \"#utility.yul\":8394:8431   */\n  tag_30\n  jump\t// in\ntag_150:\n    /* \"#utility.yul\":8496:8514   */\n  0xffffffffffffffff\n    /* \"#utility.yul\":8488:8494   */\n  dup2\n    /* \"#utility.yul\":8485:8515   */\n  gt\n    /* \"#utility.yul\":8482:8538   */\n  iszero\n  tag_151\n  jumpi\n    /* \"#utility.yul\":8518:8536   */\n  tag_152\n  tag_23\n  jump\t// in\ntag_152:\n    /* \"#utility.yul\":8482:8538   */\ntag_151:\n    /* \"#utility.yul\":8562:8600   */\n  tag_153\n    /* \"#utility.yul\":8594:8598   */\n  dup3\n    /* \"#utility.yul\":8588:8599   */\n  sload\n    /* \"#utility.yul\":8562:8600   */\n  tag_32\n  jump\t// in\ntag_153:\n    /* \"#utility.yul\":8647:8714   */\n  tag_154\n    /* \"#utility.yul\":8707:8713   */\n  dup3\n    /* \"#utility.yul\":8699:8705   */\n  dup3\n    /* \"#utility.yul\":8693:8697   */\n  dup6\n    /* \"#utility.yul\":8647:8714   */\n  tag_44\n  jump\t// in\ntag_154:\n    /* \"#utility.yul\":8741:8742   */\n  0x00\n    /* \"#utility.yul\":8765:8769   */\n  0x20\n    /* \"#utility.yul\":8752:8769   */\n  swap1\n  pop\n    /* \"#utility.yul\":8797:8799   */\n  0x1f\n    /* \"#utility.yul\":8789:8795   */\n  dup4\n    /* \"#utility.yul\":8786:8800   */\n  gt\n    /* \"#utility.yul\":8814:8815   */\n  0x01\n    /* \"#utility.yul\":8809:9427   */\n  dup2\n  eq\n  tag_156\n  jumpi\n    /* \"#utility.yul\":9471:9472   */\n  0x00\n    /* \"#utility.yul\":9488:9494   */\n  dup5\n    /* \"#utility.yul\":9485:9562   */\n  iszero\n  tag_157\n  jumpi\n    /* \"#utility.yul\":9537:9546   */\n  dup3\n    /* \"#utility.yul\":9532:9535   */\n  dup8\n    /* \"#utility.yul\":9528:9547   */\n  add\n    /* \"#utility.yul\":9522:9548   */\n  mload\n    /* \"#utility.yul\":9513:9548   */\n  swap1\n  pop\n    /* \"#utility.yul\":9485:9562   */\ntag_157:\n    /* \"#utility.yul\":9588:9655   */\n  tag_158\n    /* \"#utility.yul\":9648:9654   */\n  dup6\n    /* \"#utility.yul\":9641:9646   */\n  dup3\n    /* \"#utility.yul\":9588:9655   */\n  tag_47\n  jump\t// in\ntag_158:\n    /* \"#utility.yul\":9582:9586   */\n  dup7\n    /* \"#utility.yul\":9575:9656   */\n  sstore\n    /* \"#utility.yul\":9444:9666   */\n  pop\n    /* \"#utility.yul\":8779:9666   */\n  jump(tag_155)\n    /* \"#utility.yul\":8809:9427   */\ntag_156:\n    /* \"#utility.yul\":8861:8865   */\n  0x1f\n    /* \"#utility.yul\":8857:8866   */\n  not\n    /* \"#utility.yul\":8849:8855   */\n  dup5\n    /* \"#utility.yul\":8845:8867   */\n  and\n    /* \"#utility.yul\":8895:8932   */\n  tag_159\n    /* \"#utility.yul\":8927:8931   */\n  dup7\n    /* \"#utility.yul\":8895:8932   */\n  tag_33\n  jump\t// in\ntag_159:\n    /* \"#utility.yul\":8954:8955   */\n  0x00\n    /* \"#utility.yul\":8968:9176   */\ntag_160:\n    /* \"#utility.yul\":8982:8989   */\n  dup3\n    /* \"#utility.yul\":8979:8980   */\n  dup2\n    /* \"#utility.yul\":8976:8990   */\n  lt\n    /* \"#utility.yul\":8968:9176   */\n  iszero\n  tag_162\n  jumpi\n    /* \"#utility.yul\":9061:9070   */\n  dup5\n    /* \"#utility.yul\":9056:9059   */\n  dup10\n    /* \"#utility.yul\":9052:9071   */\n  add\n    /* \"#utility.yul\":9046:9072   */\n  mload\n    /* \"#utility.yul\":9038:9044   */\n  dup3\n    /* \"#utility.yul\":9031:9073   */\n  sstore\n    /* \"#utility.yul\":9112:9113   */\n  0x01\n    /* \"#utility.yul\":9104:9110   */\n  dup3\n    /* \"#utility.yul\":9100:9114   */\n  add\n    /* \"#utility.yul\":9090:9114   */\n  swap2\n  pop\n    /* \"#utility.yul\":9159:9161   */\n  0x20\n    /* \"#utility.yul\":9148:9157   */\n  dup6\n    /* \"#utility.yul\":9144:9162   */\n  add\n    /* \"#utility.yul\":9131:9162   */\n  swap5\n  pop\n    /* \"#utility.yul\":9005:9009   */\n  0x20\n    /* \"#utility.yul\":9002:9003   */\n  dup2\n    /* \"#utility.yul\":8998:9010   */\n  add\n    /* \"#utility.yul\":8993:9010   */\n  swap1\n  pop\n    /* \"#utility.yul\":8968:9176   */\n  jump(tag_160)\ntag_162:\n    /* \"#utility.yul\":9204:9210   */\n  dup7\n    /* \"#utility.yul\":9195:9202   */\n  dup4\n    /* \"#utility.yul\":9192:9211   */\n  lt\n    /* \"#utility.yul\":9189:9368   */\n  iszero\n  tag_163\n  jumpi\n    /* \"#utility.yul\":9262:9271   */\n  dup5\n    /* \"#utility.yul\":9257:9260   */\n  dup10\n    /* \"#utility.yul\":9253:9272   */\n  add\n    /* \"#utility.yul\":9247:9273   */\n  mload\n    /* \"#utility.yul\":9305:9353   */\n  tag_164\n    /* \"#utility.yul\":9347:9351   */\n  0x1f\n    /* \"#utility.yul\":9339:9345   */\n  dup10\n    /* \"#utility.yul\":9335:9352   */\n  and\n    /* \"#utility.yul\":9324:9333   */\n  dup3\n    /* \"#utility.yul\":9305:9353   */\n  tag_46\n  jump\t// in\ntag_164:\n    /* \"#utility.yul\":9297:9303   */\n  dup4\n    /* \"#utility.yul\":9290:9354   */\n  sstore\n    /* \"#utility.yul\":9212:9368   */\n  pop\n    /* \"#utility.yul\":9189:9368   */\ntag_163:\n    /* \"#utility.yul\":9414:9415   */\n  0x01\n    /* \"#utility.yul\":9410:9411   */\n  0x02\n    /* \"#utility.yul\":9402:9408   */\n  dup9\n    /* \"#utility.yul\":9398:9412   */\n  mul\n    /* \"#utility.yul\":9394:9416   */\n  add\n    /* \"#utility.yul\":9388:9392   */\n  dup9\n    /* \"#utility.yul\":9381:9417   */\n  sstore\n    /* \"#utility.yul\":8816:9427   */\n  pop\n  pop\n  pop\n    /* \"#utility.yul\":8779:9666   */\ntag_155:\n  pop\n    /* \"#utility.yul\":8369:9672   */\n  pop\n  pop\n  pop\n    /* \"#utility.yul\":8277:9672   */\n  pop\n  pop\n  jump\t// out\n    /* \"Campaign.sol\":495:3378  contract Campaign {... */\ntag_9:\n  dataSize(sub_0)\n  dup1\n  dataOffset(sub_0)\n  0x00\n  codecopy\n  0x00\n  return\nstop\n\nsub_0: assembly {\n        /* \"Campaign.sol\":495:3378  contract Campaign {... */\n      mstore(0x40, 0x80)\n      jumpi(tag_1, lt(calldatasize, 0x04))\n      shr(0xe0, calldataload(0x00))\n      dup1\n      0x82fde093\n      gt\n      tag_16\n      jumpi\n      dup1\n      0x937e09b1\n      gt\n      tag_17\n      jumpi\n      dup1\n      0x937e09b1\n      eq\n      tag_12\n      jumpi\n      dup1\n      0xd7bb99ba\n      eq\n      tag_13\n      jumpi\n      dup1\n      0xd7d1bbdb\n      eq\n      tag_14\n      jumpi\n      dup1\n      0xfbbf93a0\n      eq\n      tag_15\n      jumpi\n      jump(tag_1)\n    tag_17:\n      dup1\n      0x82fde093\n      eq\n      tag_9\n      jumpi\n      dup1\n      0x835a6172\n      eq\n      tag_10\n      jumpi\n      dup1\n      0x8a9cfd55\n      eq\n      tag_11\n      jumpi\n      jump(tag_1)\n    tag_16:\n      dup1\n      0x33f449e5\n      gt\n      tag_18\n      jumpi\n      dup1\n      0x33f449e5\n      eq\n      tag_5\n      jumpi\n      dup1\n      0x3410452a\n      eq\n      tag_6\n      jumpi\n      dup1\n      0x481c6a75\n      eq\n      tag_7\n      jumpi\n      dup1\n      0x81d12c58\n      eq\n      tag_8\n      jumpi\n      jump(tag_1)\n    tag_18:\n      dup1\n      0x03441006\n      eq\n      tag_2\n      jumpi\n      dup1\n      0x0a144391\n      eq\n      tag_3\n      jumpi\n      dup1\n      0x110842cb\n      eq\n      tag_4\n      jumpi\n    tag_1:\n      0x00\n      dup1\n      revert\n        /* \"Campaign.sol\":2407:2758  function finalizeRequest(uint index) public restricted {... */\n    tag_2:\n      callvalue\n      dup1\n      iszero\n      tag_19\n      jumpi\n      0x00\n      dup1\n      revert\n    tag_19:\n      pop\n      tag_20\n      0x04\n      dup1\n      calldatasize\n      sub\n      dup2\n      add\n      swap1\n      tag_21\n      swap2\n      swap1\n      tag_22\n      jump\t// in\n    tag_21:\n      tag_23\n      jump\t// in\n    tag_20:\n      stop\n        /* \"Campaign.sol\":835:876  mapping(address => bool) public approvers */\n    tag_3:\n      callvalue\n      dup1\n      iszero\n      tag_24\n      jumpi\n      0x00\n      dup1\n      revert\n    tag_24:\n      pop\n      tag_25\n      0x04\n      dup1\n      calldatasize\n      sub\n      dup2\n      add\n      swap1\n      tag_26\n      swap2\n      swap1\n      tag_27\n      jump\t// in\n    tag_26:\n      tag_28\n      jump\t// in\n    tag_25:\n      mload(0x40)\n      tag_29\n      swap2\n      swap1\n      tag_30\n      jump\t// in\n    tag_29:\n      mload(0x40)\n      dup1\n      swap2\n      sub\n      swap1\n      return\n        /* \"Campaign.sol\":759:792  string public campaignDescription */\n    tag_4:\n      callvalue\n      dup1\n      iszero\n      tag_31\n      jumpi\n      0x00\n      dup1\n      revert\n    tag_31:\n      pop\n      tag_32\n      tag_33\n      jump\t// in\n    tag_32:\n      mload(0x40)\n      tag_34\n      swap2\n      swap1\n      tag_35\n      jump\t// in\n    tag_34:\n      mload(0x40)\n      dup1\n      swap2\n      sub\n      swap1\n      return\n        /* \"Campaign.sol\":914:980  mapping(uint => mapping(address => bool)) public approvedAddresses */\n    tag_5:\n      callvalue\n      dup1\n      iszero\n      tag_36\n      jumpi\n      0x00\n      dup1\n      revert\n    tag_36:\n      pop\n      tag_37\n      0x04\n      dup1\n      calldatasize\n      sub\n      dup2\n      add\n      swap1\n      tag_38\n      swap2\n      swap1\n      tag_39\n      jump\t// in\n    tag_38:\n      tag_40\n      jump\t// in\n    tag_37:\n      mload(0x40)\n      tag_41\n      swap2\n      swap1\n      tag_30\n      jump\t// in\n    tag_41:\n      mload(0x40)\n      dup1\n      swap2\n      sub\n      swap1\n      return\n        /* \"Campaign.sol\":2764:2858  function getRequestsCount() public view returns (uint) {... */\n    tag_6:\n      callvalue\n      dup1\n      iszero\n      tag_42\n      jumpi\n      0x00\n      dup1\n      revert\n    tag_42:\n      pop\n      tag_43\n      tag_44\n      jump\t// in\n    tag_43:\n      mload(0x40)\n      tag_45\n      swap2\n      swap1\n      tag_46\n      jump\t// in\n    tag_45:\n      mload(0x40)\n      dup1\n      swap2\n      sub\n      swap1\n      return\n        /* \"Campaign.sol\":698:720  address public manager */\n    tag_7:\n      callvalue\n      dup1\n      iszero\n      tag_47\n      jumpi\n      0x00\n      dup1\n      revert\n    tag_47:\n      pop\n      tag_48\n      tag_49\n      jump\t// in\n    tag_48:\n      mload(0x40)\n      tag_50\n      swap2\n      swap1\n      tag_51\n      jump\t// in\n    tag_50:\n      mload(0x40)\n      dup1\n      swap2\n      sub\n      swap1\n      return\n        /* \"Campaign.sol\":986:1011  Request[] public requests */\n    tag_8:\n      callvalue\n      dup1\n      iszero\n      tag_52\n      jumpi\n      0x00\n      dup1\n      revert\n    tag_52:\n      pop\n      tag_53\n      0x04\n      dup1\n      calldatasize\n      sub\n      dup2\n      add\n      swap1\n      tag_54\n      swap2\n      swap1\n      tag_22\n      jump\t// in\n    tag_54:\n      tag_55\n      jump\t// in\n    tag_53:\n      mload(0x40)\n      tag_56\n      swap6\n      swap5\n      swap4\n      swap3\n      swap2\n      swap1\n      tag_57\n      jump\t// in\n    tag_56:\n      mload(0x40)\n      dup1\n      swap2\n      sub\n      swap1\n      return\n        /* \"Campaign.sol\":882:908  uint public approversCount */\n    tag_9:\n      callvalue\n      dup1\n      iszero\n      tag_58\n      jumpi\n      0x00\n      dup1\n      revert\n    tag_58:\n      pop\n      tag_59\n      tag_60\n      jump\t// in\n    tag_59:\n      mload(0x40)\n      tag_61\n      swap2\n      swap1\n      tag_46\n      jump\t// in\n    tag_61:\n      mload(0x40)\n      dup1\n      swap2\n      sub\n      swap1\n      return\n        /* \"Campaign.sol\":726:753  string public campaignTitle */\n    tag_10:\n      callvalue\n      dup1\n      iszero\n      tag_62\n      jumpi\n      0x00\n      dup1\n      revert\n    tag_62:\n      pop\n      tag_63\n      tag_64\n      jump\t// in\n    tag_63:\n      mload(0x40)\n      tag_65\n      swap2\n      swap1\n      tag_35\n      jump\t// in\n    tag_65:\n      mload(0x40)\n      dup1\n      swap2\n      sub\n      swap1\n      return\n        /* \"Campaign.sol\":1707:2154  function createRequest(string memory description, uint value, address payable recipient) public restricted {... */\n    tag_11:\n      callvalue\n      dup1\n      iszero\n      tag_66\n      jumpi\n      0x00\n      dup1\n      revert\n    tag_66:\n      pop\n      tag_67\n      0x04\n      dup1\n      calldatasize\n      sub\n      dup2\n      add\n      swap1\n      tag_68\n      swap2\n      swap1\n      tag_69\n      jump\t// in\n    tag_68:\n      tag_70\n      jump\t// in\n    tag_67:\n      stop\n        /* \"Campaign.sol\":798:829  uint public minimumContribution */\n    tag_12:\n      callvalue\n      dup1\n      iszero\n      tag_71\n      jumpi\n      0x00\n      dup1\n      revert\n    tag_71:\n      pop\n      tag_72\n      tag_73\n      jump\t// in\n    tag_72:\n      mload(0x40)\n      tag_74\n      swap2\n      swap1\n      tag_46\n      jump\t// in\n    tag_74:\n      mload(0x40)\n      dup1\n      swap2\n      sub\n      swap1\n      return\n        /* \"Campaign.sol\":1377:1701  function contribute() public payable {... */\n    tag_13:\n      tag_75\n      tag_76\n      jump\t// in\n    tag_75:\n      stop\n        /* \"Campaign.sol\":2160:2401  function approveRequest(uint index) public {... */\n    tag_14:\n      callvalue\n      dup1\n      iszero\n      tag_77\n      jumpi\n      0x00\n      dup1\n      revert\n    tag_77:\n      pop\n      tag_78\n      0x04\n      dup1\n      calldatasize\n      sub\n      dup2\n      add\n      swap1\n      tag_79\n      swap2\n      swap1\n      tag_22\n      jump\t// in\n    tag_79:\n      tag_80\n      jump\t// in\n    tag_78:\n      stop\n        /* \"Campaign.sol\":2864:3376  function getDetails() public view returns (... */\n    tag_15:\n      callvalue\n      dup1\n      iszero\n      tag_81\n      jumpi\n      0x00\n      dup1\n      revert\n    tag_81:\n      pop\n      tag_82\n      tag_83\n      jump\t// in\n    tag_82:\n      mload(0x40)\n      tag_84\n      swap8\n      swap7\n      swap6\n      swap5\n      swap4\n      swap3\n      swap2\n      swap1\n      tag_85\n      jump\t// in\n    tag_84:\n      mload(0x40)\n      dup1\n      swap2\n      sub\n      swap1\n      return\n        /* \"Campaign.sol\":2407:2758  function finalizeRequest(uint index) public restricted {... */\n    tag_23:\n        /* \"Campaign.sol\":1072:1079  manager */\n      0x00\n      dup1\n      sload\n      swap1\n      0x0100\n      exp\n      swap1\n      div\n      0xffffffffffffffffffffffffffffffffffffffff\n      and\n        /* \"Campaign.sol\":1058:1079  msg.sender == manager */\n      0xffffffffffffffffffffffffffffffffffffffff\n      and\n        /* \"Campaign.sol\":1058:1068  msg.sender */\n      caller\n        /* \"Campaign.sol\":1058:1079  msg.sender == manager */\n      0xffffffffffffffffffffffffffffffffffffffff\n      and\n      eq\n        /* \"Campaign.sol\":1050:1109  require(msg.sender == manager, \"Caller is not the manager\") */\n      tag_87\n      jumpi\n      mload(0x40)\n      0x08c379a000000000000000000000000000000000000000000000000000000000\n      dup2\n      mstore\n      0x04\n      add\n      tag_88\n      swap1\n      tag_89\n      jump\t// in\n    tag_88:\n      mload(0x40)\n      dup1\n      swap2\n      sub\n      swap1\n      revert\n    tag_87:\n        /* \"Campaign.sol\":2472:2495  Request storage request */\n      0x00\n        /* \"Campaign.sol\":2498:2506  requests */\n      0x07\n        /* \"Campaign.sol\":2507:2512  index */\n      dup3\n        /* \"Campaign.sol\":2498:2513  requests[index] */\n      dup2\n      sload\n      dup2\n      lt\n      tag_91\n      jumpi\n      tag_92\n      tag_93\n      jump\t// in\n    tag_92:\n    tag_91:\n      swap1\n      0x00\n      mstore\n      keccak256(0x00, 0x20)\n      swap1\n      0x04\n      mul\n      add\n        /* \"Campaign.sol\":2472:2513  Request storage request = requests[index] */\n      swap1\n      pop\n        /* \"Campaign.sol\":2574:2575  2 */\n      0x02\n        /* \"Campaign.sol\":2557:2571  approversCount */\n      sload(0x05)\n        /* \"Campaign.sol\":2557:2575  approversCount / 2 */\n      tag_95\n      swap2\n      swap1\n      tag_96\n      jump\t// in\n    tag_95:\n        /* \"Campaign.sol\":2532:2539  request */\n      dup2\n        /* \"Campaign.sol\":2532:2553  request.approvalCount */\n      0x03\n      add\n      sload\n        /* \"Campaign.sol\":2532:2576  request.approvalCount > (approversCount / 2) */\n      gt\n        /* \"Campaign.sol\":2524:2601  require(request.approvalCount > (approversCount / 2), \"Not enough approvals\") */\n      tag_97\n      jumpi\n      mload(0x40)\n      0x08c379a000000000000000000000000000000000000000000000000000000000\n      dup2\n      mstore\n      0x04\n      add\n      tag_98\n      swap1\n      tag_99\n      jump\t// in\n    tag_98:\n      mload(0x40)\n      dup1\n      swap2\n      sub\n      swap1\n      revert\n    tag_97:\n        /* \"Campaign.sol\":2620:2627  request */\n      dup1\n        /* \"Campaign.sol\":2620:2636  request.complete */\n      0x02\n      add\n      0x14\n      swap1\n      sload\n      swap1\n      0x0100\n      exp\n      swap1\n      div\n      0xff\n      and\n        /* \"Campaign.sol\":2619:2636  !request.complete */\n      iszero\n        /* \"Campaign.sol\":2611:2666  require(!request.complete, \"Request already finalized\") */\n      tag_100\n      jumpi\n      mload(0x40)\n      0x08c379a000000000000000000000000000000000000000000000000000000000\n      dup2\n      mstore\n      0x04\n      add\n      tag_101\n      swap1\n      tag_102\n      jump\t// in\n    tag_101:\n      mload(0x40)\n      dup1\n      swap2\n      sub\n      swap1\n      revert\n    tag_100:\n        /* \"Campaign.sol\":2677:2684  request */\n      dup1\n        /* \"Campaign.sol\":2677:2694  request.recipient */\n      0x02\n      add\n      0x00\n      swap1\n      sload\n      swap1\n      0x0100\n      exp\n      swap1\n      div\n      0xffffffffffffffffffffffffffffffffffffffff\n      and\n        /* \"Campaign.sol\":2677:2703  request.recipient.transfer */\n      0xffffffffffffffffffffffffffffffffffffffff\n      and\n        /* \"Campaign.sol\":2677:2718  request.recipient.transfer(request.value) */\n      0x08fc\n        /* \"Campaign.sol\":2704:2711  request */\n      dup3\n        /* \"Campaign.sol\":2704:2717  request.value */\n      0x01\n      add\n      sload\n        /* \"Campaign.sol\":2677:2718  request.recipient.transfer(request.value) */\n      swap1\n      dup2\n      iszero\n      mul\n      swap1\n      mload(0x40)\n      0x00\n      mload(0x40)\n      dup1\n      dup4\n      sub\n      dup2\n      dup6\n      dup9\n      dup9\n      call\n      swap4\n      pop\n      pop\n      pop\n      pop\n      iszero\n      dup1\n      iszero\n      tag_104\n      jumpi\n      returndatasize\n      0x00\n      dup1\n      returndatacopy\n      revert(0x00, returndatasize)\n    tag_104:\n      pop\n        /* \"Campaign.sol\":2747:2751  true */\n      0x01\n        /* \"Campaign.sol\":2728:2735  request */\n      dup2\n        /* \"Campaign.sol\":2728:2744  request.complete */\n      0x02\n      add\n      0x14\n        /* \"Campaign.sol\":2728:2751  request.complete = true */\n      0x0100\n      exp\n      dup2\n      sload\n      dup2\n      0xff\n      mul\n      not\n      and\n      swap1\n      dup4\n      iszero\n      iszero\n      mul\n      or\n      swap1\n      sstore\n      pop\n        /* \"Campaign.sol\":2462:2758  {... */\n      pop\n        /* \"Campaign.sol\":2407:2758  function finalizeRequest(uint index) public restricted {... */\n      pop\n      jump\t// out\n        /* \"Campaign.sol\":835:876  mapping(address => bool) public approvers */\n    tag_28:\n      mstore(0x20, 0x04)\n      dup1\n      0x00\n      mstore\n      keccak256(0x00, 0x40)\n      0x00\n      swap2\n      pop\n      sload\n      swap1\n      0x0100\n      exp\n      swap1\n      div\n      0xff\n      and\n      dup2\n      jump\t// out\n        /* \"Campaign.sol\":759:792  string public campaignDescription */\n    tag_33:\n      0x02\n      dup1\n      sload\n      tag_105\n      swap1\n      tag_106\n      jump\t// in\n    tag_105:\n      dup1\n      0x1f\n      add\n      0x20\n      dup1\n      swap2\n      div\n      mul\n      0x20\n      add\n      mload(0x40)\n      swap1\n      dup2\n      add\n      0x40\n      mstore\n      dup1\n      swap3\n      swap2\n      swap1\n      dup2\n      dup2\n      mstore\n      0x20\n      add\n      dup3\n      dup1\n      sload\n      tag_107\n      swap1\n      tag_106\n      jump\t// in\n    tag_107:\n      dup1\n      iszero\n      tag_108\n      jumpi\n      dup1\n      0x1f\n      lt\n      tag_109\n      jumpi\n      0x0100\n      dup1\n      dup4\n      sload\n      div\n      mul\n      dup4\n      mstore\n      swap2\n      0x20\n      add\n      swap2\n      jump(tag_108)\n    tag_109:\n      dup3\n      add\n      swap2\n      swap1\n      0x00\n      mstore\n      keccak256(0x00, 0x20)\n      swap1\n    tag_110:\n      dup2\n      sload\n      dup2\n      mstore\n      swap1\n      0x01\n      add\n      swap1\n      0x20\n      add\n      dup1\n      dup4\n      gt\n      tag_110\n      jumpi\n      dup3\n      swap1\n      sub\n      0x1f\n      and\n      dup3\n      add\n      swap2\n    tag_108:\n      pop\n      pop\n      pop\n      pop\n      pop\n      dup2\n      jump\t// out\n        /* \"Campaign.sol\":914:980  mapping(uint => mapping(address => bool)) public approvedAddresses */\n    tag_40:\n      mstore(0x20, 0x06)\n      dup2\n      0x00\n      mstore\n      mstore(0x20, keccak256(0x00, 0x40))\n      dup1\n      0x00\n      mstore\n      keccak256(0x00, 0x40)\n      0x00\n      swap2\n      pop\n      swap2\n      pop\n      swap1\n      sload\n      swap1\n      0x0100\n      exp\n      swap1\n      div\n      0xff\n      and\n      dup2\n      jump\t// out\n        /* \"Campaign.sol\":2764:2858  function getRequestsCount() public view returns (uint) {... */\n    tag_44:\n        /* \"Campaign.sol\":2813:2817  uint */\n      0x00\n        /* \"Campaign.sol\":2836:2844  requests */\n      0x07\n        /* \"Campaign.sol\":2836:2851  requests.length */\n      dup1\n      sload\n      swap1\n      pop\n        /* \"Campaign.sol\":2829:2851  return requests.length */\n      swap1\n      pop\n        /* \"Campaign.sol\":2764:2858  function getRequestsCount() public view returns (uint) {... */\n      swap1\n      jump\t// out\n        /* \"Campaign.sol\":698:720  address public manager */\n    tag_49:\n      0x00\n      dup1\n      sload\n      swap1\n      0x0100\n      exp\n      swap1\n      div\n      0xffffffffffffffffffffffffffffffffffffffff\n      and\n      dup2\n      jump\t// out\n        /* \"Campaign.sol\":986:1011  Request[] public requests */\n    tag_55:\n      0x07\n      dup2\n      dup2\n      sload\n      dup2\n      lt\n      tag_112\n      jumpi\n      0x00\n      dup1\n      revert\n    tag_112:\n      swap1\n      0x00\n      mstore\n      keccak256(0x00, 0x20)\n      swap1\n      0x04\n      mul\n      add\n      0x00\n      swap2\n      pop\n      swap1\n      pop\n      dup1\n      0x00\n      add\n      dup1\n      sload\n      tag_114\n      swap1\n      tag_106\n      jump\t// in\n    tag_114:\n      dup1\n      0x1f\n      add\n      0x20\n      dup1\n      swap2\n      div\n      mul\n      0x20\n      add\n      mload(0x40)\n      swap1\n      dup2\n      add\n      0x40\n      mstore\n      dup1\n      swap3\n      swap2\n      swap1\n      dup2\n      dup2\n      mstore\n      0x20\n      add\n      dup3\n      dup1\n      sload\n      tag_115\n      swap1\n      tag_106\n      jump\t// in\n    tag_115:\n      dup1\n      iszero\n      tag_116\n      jumpi\n      dup1\n      0x1f\n      lt\n      tag_117\n      jumpi\n      0x0100\n      dup1\n      dup4\n      sload\n      div\n      mul\n      dup4\n      mstore\n      swap2\n      0x20\n      add\n      swap2\n      jump(tag_116)\n    tag_117:\n      dup3\n      add\n      swap2\n      swap1\n      0x00\n      mstore\n      keccak256(0x00, 0x20)\n      swap1\n    tag_118:\n      dup2\n      sload\n      dup2\n      mstore\n      swap1\n      0x01\n      add\n      swap1\n      0x20\n      add\n      dup1\n      dup4\n      gt\n      tag_118\n      jumpi\n      dup3\n      swap1\n      sub\n      0x1f\n      and\n      dup3\n      add\n      swap2\n    tag_116:\n      pop\n      pop\n      pop\n      pop\n      pop\n      swap1\n      dup1\n      0x01\n      add\n      sload\n      swap1\n      dup1\n      0x02\n      add\n      0x00\n      swap1\n      sload\n      swap1\n      0x0100\n      exp\n      swap1\n      div\n      0xffffffffffffffffffffffffffffffffffffffff\n      and\n      swap1\n      dup1\n      0x02\n      add\n      0x14\n      swap1\n      sload\n      swap1\n      0x0100\n      exp\n      swap1\n      div\n      0xff\n      and\n      swap1\n      dup1\n      0x03\n      add\n      sload\n      swap1\n      pop\n      dup6\n      jump\t// out\n        /* \"Campaign.sol\":882:908  uint public approversCount */\n    tag_60:\n      sload(0x05)\n      dup2\n      jump\t// out\n        /* \"Campaign.sol\":726:753  string public campaignTitle */\n    tag_64:\n      0x01\n      dup1\n      sload\n      tag_119\n      swap1\n      tag_106\n      jump\t// in\n    tag_119:\n      dup1\n      0x1f\n      add\n      0x20\n      dup1\n      swap2\n      div\n      mul\n      0x20\n      add\n      mload(0x40)\n      swap1\n      dup2\n      add\n      0x40\n      mstore\n      dup1\n      swap3\n      swap2\n      swap1\n      dup2\n      dup2\n      mstore\n      0x20\n      add\n      dup3\n      dup1\n      sload\n      tag_120\n      swap1\n      tag_106\n      jump\t// in\n    tag_120:\n      dup1\n      iszero\n      tag_121\n      jumpi\n      dup1\n      0x1f\n      lt\n      tag_122\n      jumpi\n      0x0100\n      dup1\n      dup4\n      sload\n      div\n      mul\n      dup4\n      mstore\n      swap2\n      0x20\n      add\n      swap2\n      jump(tag_121)\n    tag_122:\n      dup3\n      add\n      swap2\n      swap1\n      0x00\n      mstore\n      keccak256(0x00, 0x20)\n      swap1\n    tag_123:\n      dup2\n      sload\n      dup2\n      mstore\n      swap1\n      0x01\n      add\n      swap1\n      0x20\n      add\n      dup1\n      dup4\n      gt\n      tag_123\n      jumpi\n      dup3\n      swap1\n      sub\n      0x1f\n      and\n      dup3\n      add\n      swap2\n    tag_121:\n      pop\n      pop\n      pop\n      pop\n      pop\n      dup2\n      jump\t// out\n        /* \"Campaign.sol\":1707:2154  function createRequest(string memory description, uint value, address payable recipient) public restricted {... */\n    tag_70:\n        /* \"Campaign.sol\":1072:1079  manager */\n      0x00\n      dup1\n      sload\n      swap1\n      0x0100\n      exp\n      swap1\n      div\n      0xffffffffffffffffffffffffffffffffffffffff\n      and\n        /* \"Campaign.sol\":1058:1079  msg.sender == manager */\n      0xffffffffffffffffffffffffffffffffffffffff\n      and\n        /* \"Campaign.sol\":1058:1068  msg.sender */\n      caller\n        /* \"Campaign.sol\":1058:1079  msg.sender == manager */\n      0xffffffffffffffffffffffffffffffffffffffff\n      and\n      eq\n        /* \"Campaign.sol\":1050:1109  require(msg.sender == manager, \"Caller is not the manager\") */\n      tag_125\n      jumpi\n      mload(0x40)\n      0x08c379a000000000000000000000000000000000000000000000000000000000\n      dup2\n      mstore\n      0x04\n      add\n      tag_126\n      swap1\n      tag_89\n      jump\t// in\n    tag_126:\n      mload(0x40)\n      dup1\n      swap2\n      sub\n      swap1\n      revert\n    tag_125:\n        /* \"Campaign.sol\":1867:1893  Request storage newRequest */\n      0x00\n        /* \"Campaign.sol\":1896:1904  requests */\n      0x07\n        /* \"Campaign.sol\":1896:1911  requests.push() */\n      0x01\n      dup2\n      0x01\n      dup2\n      sload\n      add\n      dup1\n      dup3\n      sstore\n      dup1\n      swap2\n      pop\n      pop\n      sub\n      swap1\n      0x00\n      mstore\n      keccak256(0x00, 0x20)\n      swap1\n      0x04\n      mul\n      add\n        /* \"Campaign.sol\":1867:1911  Request storage newRequest = requests.push() */\n      swap1\n      pop\n        /* \"Campaign.sol\":1985:1996  description */\n      dup4\n        /* \"Campaign.sol\":1960:1970  newRequest */\n      dup2\n        /* \"Campaign.sol\":1960:1982  newRequest.description */\n      0x00\n      add\n        /* \"Campaign.sol\":1960:1996  newRequest.description = description */\n      swap1\n      dup2\n      tag_129\n      swap2\n      swap1\n      tag_130\n      jump\t// in\n    tag_129:\n      pop\n        /* \"Campaign.sol\":2025:2030  value */\n      dup3\n        /* \"Campaign.sol\":2006:2016  newRequest */\n      dup2\n        /* \"Campaign.sol\":2006:2022  newRequest.value */\n      0x01\n      add\n        /* \"Campaign.sol\":2006:2030  newRequest.value = value */\n      dup2\n      swap1\n      sstore\n      pop\n        /* \"Campaign.sol\":2063:2072  recipient */\n      dup2\n        /* \"Campaign.sol\":2040:2050  newRequest */\n      dup2\n        /* \"Campaign.sol\":2040:2060  newRequest.recipient */\n      0x02\n      add\n      0x00\n        /* \"Campaign.sol\":2040:2072  newRequest.recipient = recipient */\n      0x0100\n      exp\n      dup2\n      sload\n      dup2\n      0xffffffffffffffffffffffffffffffffffffffff\n      mul\n      not\n      and\n      swap1\n      dup4\n      0xffffffffffffffffffffffffffffffffffffffff\n      and\n      mul\n      or\n      swap1\n      sstore\n      pop\n        /* \"Campaign.sol\":2104:2109  false */\n      0x00\n        /* \"Campaign.sol\":2082:2092  newRequest */\n      dup2\n        /* \"Campaign.sol\":2082:2101  newRequest.complete */\n      0x02\n      add\n      0x14\n        /* \"Campaign.sol\":2082:2109  newRequest.complete = false */\n      0x0100\n      exp\n      dup2\n      sload\n      dup2\n      0xff\n      mul\n      not\n      and\n      swap1\n      dup4\n      iszero\n      iszero\n      mul\n      or\n      swap1\n      sstore\n      pop\n        /* \"Campaign.sol\":2146:2147  0 */\n      0x00\n        /* \"Campaign.sol\":2119:2129  newRequest */\n      dup2\n        /* \"Campaign.sol\":2119:2143  newRequest.approvalCount */\n      0x03\n      add\n        /* \"Campaign.sol\":2119:2147  newRequest.approvalCount = 0 */\n      dup2\n      swap1\n      sstore\n      pop\n        /* \"Campaign.sol\":1814:2154  {... */\n      pop\n        /* \"Campaign.sol\":1707:2154  function createRequest(string memory description, uint value, address payable recipient) public restricted {... */\n      pop\n      pop\n      pop\n      jump\t// out\n        /* \"Campaign.sol\":798:829  uint public minimumContribution */\n    tag_73:\n      sload(0x03)\n      dup2\n      jump\t// out\n        /* \"Campaign.sol\":1377:1701  function contribute() public payable {... */\n    tag_76:\n        /* \"Campaign.sol\":1444:1463  minimumContribution */\n      sload(0x03)\n        /* \"Campaign.sol\":1432:1441  msg.value */\n      callvalue\n        /* \"Campaign.sol\":1432:1463  msg.value > minimumContribution */\n      gt\n        /* \"Campaign.sol\":1424:1503  require(msg.value > minimumContribution, \"Minimum contribution is not matched\") */\n      tag_132\n      jumpi\n      mload(0x40)\n      0x08c379a000000000000000000000000000000000000000000000000000000000\n      dup2\n      mstore\n      0x04\n      add\n      tag_133\n      swap1\n      tag_134\n      jump\t// in\n    tag_133:\n      mload(0x40)\n      dup1\n      swap2\n      sub\n      swap1\n      revert\n    tag_132:\n        /* \"Campaign.sol\":1589:1598  approvers */\n      0x04\n        /* \"Campaign.sol\":1589:1610  approvers[msg.sender] */\n      0x00\n        /* \"Campaign.sol\":1599:1609  msg.sender */\n      caller\n        /* \"Campaign.sol\":1589:1610  approvers[msg.sender] */\n      0xffffffffffffffffffffffffffffffffffffffff\n      and\n      0xffffffffffffffffffffffffffffffffffffffff\n      and\n      dup2\n      mstore\n      0x20\n      add\n      swap1\n      dup2\n      mstore\n      0x20\n      add\n      0x00\n      keccak256\n      0x00\n      swap1\n      sload\n      swap1\n      0x0100\n      exp\n      swap1\n      div\n      0xff\n      and\n        /* \"Campaign.sol\":1584:1695  if (!approvers[msg.sender]) {... */\n      tag_135\n      jumpi\n        /* \"Campaign.sol\":1650:1654  true */\n      0x01\n        /* \"Campaign.sol\":1626:1635  approvers */\n      0x04\n        /* \"Campaign.sol\":1626:1647  approvers[msg.sender] */\n      0x00\n        /* \"Campaign.sol\":1636:1646  msg.sender */\n      caller\n        /* \"Campaign.sol\":1626:1647  approvers[msg.sender] */\n      0xffffffffffffffffffffffffffffffffffffffff\n      and\n      0xffffffffffffffffffffffffffffffffffffffff\n      and\n      dup2\n      mstore\n      0x20\n      add\n      swap1\n      dup2\n      mstore\n      0x20\n      add\n      0x00\n      keccak256\n      0x00\n        /* \"Campaign.sol\":1626:1654  approvers[msg.sender] = true */\n      0x0100\n      exp\n      dup2\n      sload\n      dup2\n      0xff\n      mul\n      not\n      and\n      swap1\n      dup4\n      iszero\n      iszero\n      mul\n      or\n      swap1\n      sstore\n      pop\n        /* \"Campaign.sol\":1668:1682  approversCount */\n      0x05\n      0x00\n        /* \"Campaign.sol\":1668:1684  approversCount++ */\n      dup2\n      sload\n      dup1\n      swap3\n      swap2\n      swap1\n      tag_136\n      swap1\n      tag_137\n      jump\t// in\n    tag_136:\n      swap2\n      swap1\n      pop\n      sstore\n      pop\n        /* \"Campaign.sol\":1584:1695  if (!approvers[msg.sender]) {... */\n    tag_135:\n        /* \"Campaign.sol\":1377:1701  function contribute() public payable {... */\n      jump\t// out\n        /* \"Campaign.sol\":2160:2401  function approveRequest(uint index) public {... */\n    tag_80:\n        /* \"Campaign.sol\":2221:2230  approvers */\n      0x04\n        /* \"Campaign.sol\":2221:2242  approvers[msg.sender] */\n      0x00\n        /* \"Campaign.sol\":2231:2241  msg.sender */\n      caller\n        /* \"Campaign.sol\":2221:2242  approvers[msg.sender] */\n      0xffffffffffffffffffffffffffffffffffffffff\n      and\n      0xffffffffffffffffffffffffffffffffffffffff\n      and\n      dup2\n      mstore\n      0x20\n      add\n      swap1\n      dup2\n      mstore\n      0x20\n      add\n      0x00\n      keccak256\n      0x00\n      swap1\n      sload\n      swap1\n      0x0100\n      exp\n      swap1\n      div\n      0xff\n      and\n        /* \"Campaign.sol\":2213:2243  require(approvers[msg.sender]) */\n      tag_139\n      jumpi\n      0x00\n      dup1\n      revert\n    tag_139:\n        /* \"Campaign.sol\":2262:2279  approvedAddresses */\n      0x06\n        /* \"Campaign.sol\":2262:2286  approvedAddresses[index] */\n      0x00\n        /* \"Campaign.sol\":2280:2285  index */\n      dup3\n        /* \"Campaign.sol\":2262:2286  approvedAddresses[index] */\n      dup2\n      mstore\n      0x20\n      add\n      swap1\n      dup2\n      mstore\n      0x20\n      add\n      0x00\n      keccak256\n        /* \"Campaign.sol\":2262:2298  approvedAddresses[index][msg.sender] */\n      0x00\n        /* \"Campaign.sol\":2287:2297  msg.sender */\n      caller\n        /* \"Campaign.sol\":2262:2298  approvedAddresses[index][msg.sender] */\n      0xffffffffffffffffffffffffffffffffffffffff\n      and\n      0xffffffffffffffffffffffffffffffffffffffff\n      and\n      dup2\n      mstore\n      0x20\n      add\n      swap1\n      dup2\n      mstore\n      0x20\n      add\n      0x00\n      keccak256\n      0x00\n      swap1\n      sload\n      swap1\n      0x0100\n      exp\n      swap1\n      div\n      0xff\n      and\n        /* \"Campaign.sol\":2261:2298  !approvedAddresses[index][msg.sender] */\n      iszero\n        /* \"Campaign.sol\":2253:2299  require(!approvedAddresses[index][msg.sender]) */\n      tag_140\n      jumpi\n      0x00\n      dup1\n      revert\n    tag_140:\n        /* \"Campaign.sol\":2349:2353  true */\n      0x01\n        /* \"Campaign.sol\":2310:2327  approvedAddresses */\n      0x06\n        /* \"Campaign.sol\":2310:2334  approvedAddresses[index] */\n      0x00\n        /* \"Campaign.sol\":2328:2333  index */\n      dup4\n        /* \"Campaign.sol\":2310:2334  approvedAddresses[index] */\n      dup2\n      mstore\n      0x20\n      add\n      swap1\n      dup2\n      mstore\n      0x20\n      add\n      0x00\n      keccak256\n        /* \"Campaign.sol\":2310:2346  approvedAddresses[index][msg.sender] */\n      0x00\n        /* \"Campaign.sol\":2335:2345  msg.sender */\n      caller\n        /* \"Campaign.sol\":2310:2346  approvedAddresses[index][msg.sender] */\n      0xffffffffffffffffffffffffffffffffffffffff\n      and\n      0xffffffffffffffffffffffffffffffffffffffff\n      and\n      dup2\n      mstore\n      0x20\n      add\n      swap1\n      dup2\n      mstore\n      0x20\n      add\n      0x00\n      keccak256\n      0x00\n        /* \"Campaign.sol\":2310:2353  approvedAddresses[index][msg.sender] = true */\n      0x0100\n      exp\n      dup2\n      sload\n      dup2\n      0xff\n      mul\n      not\n      and\n      swap1\n      dup4\n      iszero\n      iszero\n      mul\n      or\n      swap1\n      sstore\n      pop\n        /* \"Campaign.sol\":2363:2371  requests */\n      0x07\n        /* \"Campaign.sol\":2372:2377  index */\n      dup2\n        /* \"Campaign.sol\":2363:2378  requests[index] */\n      dup2\n      sload\n      dup2\n      lt\n      tag_141\n      jumpi\n      tag_142\n      tag_93\n      jump\t// in\n    tag_142:\n    tag_141:\n      swap1\n      0x00\n      mstore\n      keccak256(0x00, 0x20)\n      swap1\n      0x04\n      mul\n      add\n        /* \"Campaign.sol\":2363:2392  requests[index].approvalCount */\n      0x03\n      add\n      0x00\n        /* \"Campaign.sol\":2363:2394  requests[index].approvalCount++ */\n      dup2\n      sload\n      dup1\n      swap3\n      swap2\n      swap1\n      tag_144\n      swap1\n      tag_137\n      jump\t// in\n    tag_144:\n      swap2\n      swap1\n      pop\n      sstore\n      pop\n        /* \"Campaign.sol\":2160:2401  function approveRequest(uint index) public {... */\n      pop\n      jump\t// out\n        /* \"Campaign.sol\":2864:3376  function getDetails() public view returns (... */\n    tag_83:\n        /* \"Campaign.sol\":2916:2935  string memory title */\n      0x60\n        /* \"Campaign.sol\":2945:2970  string memory description */\n      dup1\n        /* \"Campaign.sol\":2980:3010  uint minimumContributionAmount */\n      0x00\n        /* \"Campaign.sol\":3020:3032  uint balance */\n      dup1\n        /* \"Campaign.sol\":3042:3064  address managerAddress */\n      0x00\n        /* \"Campaign.sol\":3074:3092  uint requestsCount */\n      dup1\n        /* \"Campaign.sol\":3102:3129  uint campaignApproversCount */\n      0x00\n        /* \"Campaign.sol\":3167:3180  campaignTitle */\n      0x01\n        /* \"Campaign.sol\":3194:3213  campaignDescription */\n      0x02\n        /* \"Campaign.sol\":3227:3246  minimumContribution */\n      sload(0x03)\n        /* \"Campaign.sol\":3260:3281  address(this).balance */\n      selfbalance\n        /* \"Campaign.sol\":3295:3302  manager */\n      0x00\n      dup1\n      sload\n      swap1\n      0x0100\n      exp\n      swap1\n      div\n      0xffffffffffffffffffffffffffffffffffffffff\n      and\n        /* \"Campaign.sol\":3316:3324  requests */\n      0x07\n        /* \"Campaign.sol\":3316:3331  requests.length */\n      dup1\n      sload\n      swap1\n      pop\n        /* \"Campaign.sol\":3345:3359  approversCount */\n      sload(0x05)\n        /* \"Campaign.sol\":3146:3369  return (... */\n      dup7\n      dup1\n      sload\n      tag_146\n      swap1\n      tag_106\n      jump\t// in\n    tag_146:\n      dup1\n      0x1f\n      add\n      0x20\n      dup1\n      swap2\n      div\n      mul\n      0x20\n      add\n      mload(0x40)\n      swap1\n      dup2\n      add\n      0x40\n      mstore\n      dup1\n      swap3\n      swap2\n      swap1\n      dup2\n      dup2\n      mstore\n      0x20\n      add\n      dup3\n      dup1\n      sload\n      tag_147\n      swap1\n      tag_106\n      jump\t// in\n    tag_147:\n      dup1\n      iszero\n      tag_148\n      jumpi\n      dup1\n      0x1f\n      lt\n      tag_149\n      jumpi\n      0x0100\n      dup1\n      dup4\n      sload\n      div\n      mul\n      dup4\n      mstore\n      swap2\n      0x20\n      add\n      swap2\n      jump(tag_148)\n    tag_149:\n      dup3\n      add\n      swap2\n      swap1\n      0x00\n      mstore\n      keccak256(0x00, 0x20)\n      swap1\n    tag_150:\n      dup2\n      sload\n      dup2\n      mstore\n      swap1\n      0x01\n      add\n      swap1\n      0x20\n      add\n      dup1\n      dup4\n      gt\n      tag_150\n      jumpi\n      dup3\n      swap1\n      sub\n      0x1f\n      and\n      dup3\n      add\n      swap2\n    tag_148:\n      pop\n      pop\n      pop\n      pop\n      pop\n      swap7\n      pop\n      dup6\n      dup1\n      sload\n      tag_151\n      swap1\n      tag_106\n      jump\t// in\n    tag_151:\n      dup1\n      0x1f\n      add\n      0x20\n      dup1\n      swap2\n      div\n      mul\n      0x20\n      add\n      mload(0x40)\n      swap1\n      dup2\n      add\n      0x40\n      mstore\n      dup1\n      swap3\n      swap2\n      swap1\n      dup2\n      dup2\n      mstore\n      0x20\n      add\n      dup3\n      dup1\n      sload\n      tag_152\n      swap1\n      tag_106\n      jump\t// in\n    tag_152:\n      dup1\n      iszero\n      tag_153\n      jumpi\n      dup1\n      0x1f\n      lt\n      tag_154\n      jumpi\n      0x0100\n      dup1\n      dup4\n      sload\n      div\n      mul\n      dup4\n      mstore\n      swap2\n      0x20\n      add\n      swap2\n      jump(tag_153)\n    tag_154:\n      dup3\n      add\n      swap2\n      swap1\n      0x00\n      mstore\n      keccak256(0x00, 0x20)\n      swap1\n    tag_155:\n      dup2\n      sload\n      dup2\n      mstore\n      swap1\n      0x01\n      add\n      swap1\n      0x20\n      add\n      dup1\n      dup4\n      gt\n      tag_155\n      jumpi\n      dup3\n      swap1\n      sub\n      0x1f\n      and\n      dup3\n      add\n      swap2\n    tag_153:\n      pop\n      pop\n      pop\n      pop\n      pop\n      swap6\n      pop\n      swap7\n      pop\n      swap7\n      pop\n      swap7\n      pop\n      swap7\n      pop\n      swap7\n      pop\n      swap7\n      pop\n      swap7\n      pop\n        /* \"Campaign.sol\":2864:3376  function getDetails() public view returns (... */\n      swap1\n      swap2\n      swap3\n      swap4\n      swap5\n      swap6\n      swap7\n      jump\t// out\n        /* \"#utility.yul\":7:82   */\n    tag_156:\n        /* \"#utility.yul\":40:46   */\n      0x00\n        /* \"#utility.yul\":73:75   */\n      0x40\n        /* \"#utility.yul\":67:76   */\n      mload\n        /* \"#utility.yul\":57:76   */\n      swap1\n      pop\n        /* \"#utility.yul\":7:82   */\n      swap1\n      jump\t// out\n        /* \"#utility.yul\":88:205   */\n    tag_157:\n        /* \"#utility.yul\":197:198   */\n      0x00\n        /* \"#utility.yul\":194:195   */\n      dup1\n        /* \"#utility.yul\":187:199   */\n      revert\n        /* \"#utility.yul\":211:328   */\n    tag_158:\n        /* \"#utility.yul\":320:321   */\n      0x00\n        /* \"#utility.yul\":317:318   */\n      dup1\n        /* \"#utility.yul\":310:322   */\n      revert\n        /* \"#utility.yul\":334:411   */\n    tag_159:\n        /* \"#utility.yul\":371:378   */\n      0x00\n        /* \"#utility.yul\":400:405   */\n      dup2\n        /* \"#utility.yul\":389:405   */\n      swap1\n      pop\n        /* \"#utility.yul\":334:411   */\n      swap2\n      swap1\n      pop\n      jump\t// out\n        /* \"#utility.yul\":417:539   */\n    tag_160:\n        /* \"#utility.yul\":490:514   */\n      tag_220\n        /* \"#utility.yul\":508:513   */\n      dup2\n        /* \"#utility.yul\":490:514   */\n      tag_159\n      jump\t// in\n    tag_220:\n        /* \"#utility.yul\":483:488   */\n      dup2\n        /* \"#utility.yul\":480:515   */\n      eq\n        /* \"#utility.yul\":470:533   */\n      tag_221\n      jumpi\n        /* \"#utility.yul\":529:530   */\n      0x00\n        /* \"#utility.yul\":526:527   */\n      dup1\n        /* \"#utility.yul\":519:531   */\n      revert\n        /* \"#utility.yul\":470:533   */\n    tag_221:\n        /* \"#utility.yul\":417:539   */\n      pop\n      jump\t// out\n        /* \"#utility.yul\":545:684   */\n    tag_161:\n        /* \"#utility.yul\":591:596   */\n      0x00\n        /* \"#utility.yul\":629:635   */\n      dup2\n        /* \"#utility.yul\":616:636   */\n      calldataload\n        /* \"#utility.yul\":607:636   */\n      swap1\n      pop\n        /* \"#utility.yul\":645:678   */\n      tag_223\n        /* \"#utility.yul\":672:677   */\n      dup2\n        /* \"#utility.yul\":645:678   */\n      tag_160\n      jump\t// in\n    tag_223:\n        /* \"#utility.yul\":545:684   */\n      swap3\n      swap2\n      pop\n      pop\n      jump\t// out\n        /* \"#utility.yul\":690:1019   */\n    tag_22:\n        /* \"#utility.yul\":749:755   */\n      0x00\n        /* \"#utility.yul\":798:800   */\n      0x20\n        /* \"#utility.yul\":786:795   */\n      dup3\n        /* \"#utility.yul\":777:784   */\n      dup5\n        /* \"#utility.yul\":773:796   */\n      sub\n        /* \"#utility.yul\":769:801   */\n      slt\n        /* \"#utility.yul\":766:885   */\n      iszero\n      tag_225\n      jumpi\n        /* \"#utility.yul\":804:883   */\n      tag_226\n      tag_157\n      jump\t// in\n    tag_226:\n        /* \"#utility.yul\":766:885   */\n    tag_225:\n        /* \"#utility.yul\":924:925   */\n      0x00\n        /* \"#utility.yul\":949:1002   */\n      tag_227\n        /* \"#utility.yul\":994:1001   */\n      dup5\n        /* \"#utility.yul\":985:991   */\n      dup3\n        /* \"#utility.yul\":974:983   */\n      dup6\n        /* \"#utility.yul\":970:992   */\n      add\n        /* \"#utility.yul\":949:1002   */\n      tag_161\n      jump\t// in\n    tag_227:\n        /* \"#utility.yul\":939:1002   */\n      swap2\n      pop\n        /* \"#utility.yul\":895:1012   */\n      pop\n        /* \"#utility.yul\":690:1019   */\n      swap3\n      swap2\n      pop\n      pop\n      jump\t// out\n        /* \"#utility.yul\":1025:1151   */\n    tag_162:\n        /* \"#utility.yul\":1062:1069   */\n      0x00\n        /* \"#utility.yul\":1102:1144   */\n      0xffffffffffffffffffffffffffffffffffffffff\n        /* \"#utility.yul\":1095:1100   */\n      dup3\n        /* \"#utility.yul\":1091:1145   */\n      and\n        /* \"#utility.yul\":1080:1145   */\n      swap1\n      pop\n        /* \"#utility.yul\":1025:1151   */\n      swap2\n      swap1\n      pop\n      jump\t// out\n        /* \"#utility.yul\":1157:1253   */\n    tag_163:\n        /* \"#utility.yul\":1194:1201   */\n      0x00\n        /* \"#utility.yul\":1223:1247   */\n      tag_230\n        /* \"#utility.yul\":1241:1246   */\n      dup3\n        /* \"#utility.yul\":1223:1247   */\n      tag_162\n      jump\t// in\n    tag_230:\n        /* \"#utility.yul\":1212:1247   */\n      swap1\n      pop\n        /* \"#utility.yul\":1157:1253   */\n      swap2\n      swap1\n      pop\n      jump\t// out\n        /* \"#utility.yul\":1259:1381   */\n    tag_164:\n        /* \"#utility.yul\":1332:1356   */\n      tag_232\n        /* \"#utility.yul\":1350:1355   */\n      dup2\n        /* \"#utility.yul\":1332:1356   */\n      tag_163\n      jump\t// in\n    tag_232:\n        /* \"#utility.yul\":1325:1330   */\n      dup2\n        /* \"#utility.yul\":1322:1357   */\n      eq\n        /* \"#utility.yul\":1312:1375   */\n      tag_233\n      jumpi\n        /* \"#utility.yul\":1371:1372   */\n      0x00\n        /* \"#utility.yul\":1368:1369   */\n      dup1\n        /* \"#utility.yul\":1361:1373   */\n      revert\n        /* \"#utility.yul\":1312:1375   */\n    tag_233:\n        /* \"#utility.yul\":1259:1381   */\n      pop\n      jump\t// out\n        /* \"#utility.yul\":1387:1526   */\n    tag_165:\n        /* \"#utility.yul\":1433:1438   */\n      0x00\n        /* \"#utility.yul\":1471:1477   */\n      dup2\n        /* \"#utility.yul\":1458:1478   */\n      calldataload\n        /* \"#utility.yul\":1449:1478   */\n      swap1\n      pop\n        /* \"#utility.yul\":1487:1520   */\n      tag_235\n        /* \"#utility.yul\":1514:1519   */\n      dup2\n        /* \"#utility.yul\":1487:1520   */\n      tag_164\n      jump\t// in\n    tag_235:\n        /* \"#utility.yul\":1387:1526   */\n      swap3\n      swap2\n      pop\n      pop\n      jump\t// out\n        /* \"#utility.yul\":1532:1861   */\n    tag_27:\n        /* \"#utility.yul\":1591:1597   */\n      0x00\n        /* \"#utility.yul\":1640:1642   */\n      0x20\n        /* \"#utility.yul\":1628:1637   */\n      dup3\n        /* \"#utility.yul\":1619:1626   */\n      dup5\n        /* \"#utility.yul\":1615:1638   */\n      sub\n        /* \"#utility.yul\":1611:1643   */\n      slt\n        /* \"#utility.yul\":1608:1727   */\n      iszero\n      tag_237\n      jumpi\n        /* \"#utility.yul\":1646:1725   */\n      tag_238\n      tag_157\n      jump\t// in\n    tag_238:\n        /* \"#utility.yul\":1608:1727   */\n    tag_237:\n        /* \"#utility.yul\":1766:1767   */\n      0x00\n        /* \"#utility.yul\":1791:1844   */\n      tag_239\n        /* \"#utility.yul\":1836:1843   */\n      dup5\n        /* \"#utility.yul\":1827:1833   */\n      dup3\n        /* \"#utility.yul\":1816:1825   */\n      dup6\n        /* \"#utility.yul\":1812:1834   */\n      add\n        /* \"#utility.yul\":1791:1844   */\n      tag_165\n      jump\t// in\n    tag_239:\n        /* \"#utility.yul\":1781:1844   */\n      swap2\n      pop\n        /* \"#utility.yul\":1737:1854   */\n      pop\n        /* \"#utility.yul\":1532:1861   */\n      swap3\n      swap2\n      pop\n      pop\n      jump\t// out\n        /* \"#utility.yul\":1867:1957   */\n    tag_166:\n        /* \"#utility.yul\":1901:1908   */\n      0x00\n        /* \"#utility.yul\":1944:1949   */\n      dup2\n        /* \"#utility.yul\":1937:1950   */\n      iszero\n        /* \"#utility.yul\":1930:1951   */\n      iszero\n        /* \"#utility.yul\":1919:1951   */\n      swap1\n      pop\n        /* \"#utility.yul\":1867:1957   */\n      swap2\n      swap1\n      pop\n      jump\t// out\n        /* \"#utility.yul\":1963:2072   */\n    tag_167:\n        /* \"#utility.yul\":2044:2065   */\n      tag_242\n        /* \"#utility.yul\":2059:2064   */\n      dup2\n        /* \"#utility.yul\":2044:2065   */\n      tag_166\n      jump\t// in\n    tag_242:\n        /* \"#utility.yul\":2039:2042   */\n      dup3\n        /* \"#utility.yul\":2032:2066   */\n      mstore\n        /* \"#utility.yul\":1963:2072   */\n      pop\n      pop\n      jump\t// out\n        /* \"#utility.yul\":2078:2288   */\n    tag_30:\n        /* \"#utility.yul\":2165:2169   */\n      0x00\n        /* \"#utility.yul\":2203:2205   */\n      0x20\n        /* \"#utility.yul\":2192:2201   */\n      dup3\n        /* \"#utility.yul\":2188:2206   */\n      add\n        /* \"#utility.yul\":2180:2206   */\n      swap1\n      pop\n        /* \"#utility.yul\":2216:2281   */\n      tag_244\n        /* \"#utility.yul\":2278:2279   */\n      0x00\n        /* \"#utility.yul\":2267:2276   */\n      dup4\n        /* \"#utility.yul\":2263:2280   */\n      add\n        /* \"#utility.yul\":2254:2260   */\n      dup5\n        /* \"#utility.yul\":2216:2281   */\n      tag_167\n      jump\t// in\n    tag_244:\n        /* \"#utility.yul\":2078:2288   */\n      swap3\n      swap2\n      pop\n      pop\n      jump\t// out\n        /* \"#utility.yul\":2294:2393   */\n    tag_168:\n        /* \"#utility.yul\":2346:2352   */\n      0x00\n        /* \"#utility.yul\":2380:2385   */\n      dup2\n        /* \"#utility.yul\":2374:2386   */\n      mload\n        /* \"#utility.yul\":2364:2386   */\n      swap1\n      pop\n        /* \"#utility.yul\":2294:2393   */\n      swap2\n      swap1\n      pop\n      jump\t// out\n        /* \"#utility.yul\":2399:2568   */\n    tag_169:\n        /* \"#utility.yul\":2483:2494   */\n      0x00\n        /* \"#utility.yul\":2517:2523   */\n      dup3\n        /* \"#utility.yul\":2512:2515   */\n      dup3\n        /* \"#utility.yul\":2505:2524   */\n      mstore\n        /* \"#utility.yul\":2557:2561   */\n      0x20\n        /* \"#utility.yul\":2552:2555   */\n      dup3\n        /* \"#utility.yul\":2548:2562   */\n      add\n        /* \"#utility.yul\":2533:2562   */\n      swap1\n      pop\n        /* \"#utility.yul\":2399:2568   */\n      swap3\n      swap2\n      pop\n      pop\n      jump\t// out\n        /* \"#utility.yul\":2574:2820   */\n    tag_170:\n        /* \"#utility.yul\":2655:2656   */\n      0x00\n        /* \"#utility.yul\":2665:2778   */\n    tag_248:\n        /* \"#utility.yul\":2679:2685   */\n      dup4\n        /* \"#utility.yul\":2676:2677   */\n      dup2\n        /* \"#utility.yul\":2673:2686   */\n      lt\n        /* \"#utility.yul\":2665:2778   */\n      iszero\n      tag_250\n      jumpi\n        /* \"#utility.yul\":2764:2765   */\n      dup1\n        /* \"#utility.yul\":2759:2762   */\n      dup3\n        /* \"#utility.yul\":2755:2766   */\n      add\n        /* \"#utility.yul\":2749:2767   */\n      mload\n        /* \"#utility.yul\":2745:2746   */\n      dup2\n        /* \"#utility.yul\":2740:2743   */\n      dup5\n        /* \"#utility.yul\":2736:2747   */\n      add\n        /* \"#utility.yul\":2729:2768   */\n      mstore\n        /* \"#utility.yul\":2701:2703   */\n      0x20\n        /* \"#utility.yul\":2698:2699   */\n      dup2\n        /* \"#utility.yul\":2694:2704   */\n      add\n        /* \"#utility.yul\":2689:2704   */\n      swap1\n      pop\n        /* \"#utility.yul\":2665:2778   */\n      jump(tag_248)\n    tag_250:\n        /* \"#utility.yul\":2812:2813   */\n      0x00\n        /* \"#utility.yul\":2803:2809   */\n      dup5\n        /* \"#utility.yul\":2798:2801   */\n      dup5\n        /* \"#utility.yul\":2794:2810   */\n      add\n        /* \"#utility.yul\":2787:2814   */\n      mstore\n        /* \"#utility.yul\":2636:2820   */\n      pop\n        /* \"#utility.yul\":2574:2820   */\n      pop\n      pop\n      pop\n      jump\t// out\n        /* \"#utility.yul\":2826:2928   */\n    tag_171:\n        /* \"#utility.yul\":2867:2873   */\n      0x00\n        /* \"#utility.yul\":2918:2920   */\n      0x1f\n        /* \"#utility.yul\":2914:2921   */\n      not\n        /* \"#utility.yul\":2909:2911   */\n      0x1f\n        /* \"#utility.yul\":2902:2907   */\n      dup4\n        /* \"#utility.yul\":2898:2912   */\n      add\n        /* \"#utility.yul\":2894:2922   */\n      and\n        /* \"#utility.yul\":2884:2922   */\n      swap1\n      pop\n        /* \"#utility.yul\":2826:2928   */\n      swap2\n      swap1\n      pop\n      jump\t// out\n        /* \"#utility.yul\":2934:3311   */\n    tag_172:\n        /* \"#utility.yul\":3022:3025   */\n      0x00\n        /* \"#utility.yul\":3050:3089   */\n      tag_253\n        /* \"#utility.yul\":3083:3088   */\n      dup3\n        /* \"#utility.yul\":3050:3089   */\n      tag_168\n      jump\t// in\n    tag_253:\n        /* \"#utility.yul\":3105:3176   */\n      tag_254\n        /* \"#utility.yul\":3169:3175   */\n      dup2\n        /* \"#utility.yul\":3164:3167   */\n      dup6\n        /* \"#utility.yul\":3105:3176   */\n      tag_169\n      jump\t// in\n    tag_254:\n        /* \"#utility.yul\":3098:3176   */\n      swap4\n      pop\n        /* \"#utility.yul\":3185:3250   */\n      tag_255\n        /* \"#utility.yul\":3243:3249   */\n      dup2\n        /* \"#utility.yul\":3238:3241   */\n      dup6\n        /* \"#utility.yul\":3231:3235   */\n      0x20\n        /* \"#utility.yul\":3224:3229   */\n      dup7\n        /* \"#utility.yul\":3220:3236   */\n      add\n        /* \"#utility.yul\":3185:3250   */\n      tag_170\n      jump\t// in\n    tag_255:\n        /* \"#utility.yul\":3275:3304   */\n      tag_256\n        /* \"#utility.yul\":3297:3303   */\n      dup2\n        /* \"#utility.yul\":3275:3304   */\n      tag_171\n      jump\t// in\n    tag_256:\n        /* \"#utility.yul\":3270:3273   */\n      dup5\n        /* \"#utility.yul\":3266:3305   */\n      add\n        /* \"#utility.yul\":3259:3305   */\n      swap2\n      pop\n        /* \"#utility.yul\":3026:3311   */\n      pop\n        /* \"#utility.yul\":2934:3311   */\n      swap3\n      swap2\n      pop\n      pop\n      jump\t// out\n        /* \"#utility.yul\":3317:3630   */\n    tag_35:\n        /* \"#utility.yul\":3430:3434   */\n      0x00\n        /* \"#utility.yul\":3468:3470   */\n      0x20\n        /* \"#utility.yul\":3457:3466   */\n      dup3\n        /* \"#utility.yul\":3453:3471   */\n      add\n        /* \"#utility.yul\":3445:3471   */\n      swap1\n      pop\n        /* \"#utility.yul\":3517:3526   */\n      dup2\n        /* \"#utility.yul\":3511:3515   */\n      dup2\n        /* \"#utility.yul\":3507:3527   */\n      sub\n        /* \"#utility.yul\":3503:3504   */\n      0x00\n        /* \"#utility.yul\":3492:3501   */\n      dup4\n        /* \"#utility.yul\":3488:3505   */\n      add\n        /* \"#utility.yul\":3481:3528   */\n      mstore\n        /* \"#utility.yul\":3545:3623   */\n      tag_258\n        /* \"#utility.yul\":3618:3622   */\n      dup2\n        /* \"#utility.yul\":3609:3615   */\n      dup5\n        /* \"#utility.yul\":3545:3623   */\n      tag_172\n      jump\t// in\n    tag_258:\n        /* \"#utility.yul\":3537:3623   */\n      swap1\n      pop\n        /* \"#utility.yul\":3317:3630   */\n      swap3\n      swap2\n      pop\n      pop\n      jump\t// out\n        /* \"#utility.yul\":3636:4110   */\n    tag_39:\n        /* \"#utility.yul\":3704:3710   */\n      0x00\n        /* \"#utility.yul\":3712:3718   */\n      dup1\n        /* \"#utility.yul\":3761:3763   */\n      0x40\n        /* \"#utility.yul\":3749:3758   */\n      dup4\n        /* \"#utility.yul\":3740:3747   */\n      dup6\n        /* \"#utility.yul\":3736:3759   */\n      sub\n        /* \"#utility.yul\":3732:3764   */\n      slt\n        /* \"#utility.yul\":3729:3848   */\n      iszero\n      tag_260\n      jumpi\n        /* \"#utility.yul\":3767:3846   */\n      tag_261\n      tag_157\n      jump\t// in\n    tag_261:\n        /* \"#utility.yul\":3729:3848   */\n    tag_260:\n        /* \"#utility.yul\":3887:3888   */\n      0x00\n        /* \"#utility.yul\":3912:3965   */\n      tag_262\n        /* \"#utility.yul\":3957:3964   */\n      dup6\n        /* \"#utility.yul\":3948:3954   */\n      dup3\n        /* \"#utility.yul\":3937:3946   */\n      dup7\n        /* \"#utility.yul\":3933:3955   */\n      add\n        /* \"#utility.yul\":3912:3965   */\n      tag_161\n      jump\t// in\n    tag_262:\n        /* \"#utility.yul\":3902:3965   */\n      swap3\n      pop\n        /* \"#utility.yul\":3858:3975   */\n      pop\n        /* \"#utility.yul\":4014:4016   */\n      0x20\n        /* \"#utility.yul\":4040:4093   */\n      tag_263\n        /* \"#utility.yul\":4085:4092   */\n      dup6\n        /* \"#utility.yul\":4076:4082   */\n      dup3\n        /* \"#utility.yul\":4065:4074   */\n      dup7\n        /* \"#utility.yul\":4061:4083   */\n      add\n        /* \"#utility.yul\":4040:4093   */\n      tag_165\n      jump\t// in\n    tag_263:\n        /* \"#utility.yul\":4030:4093   */\n      swap2\n      pop\n        /* \"#utility.yul\":3985:4103   */\n      pop\n        /* \"#utility.yul\":3636:4110   */\n      swap3\n      pop\n      swap3\n      swap1\n      pop\n      jump\t// out\n        /* \"#utility.yul\":4116:4234   */\n    tag_173:\n        /* \"#utility.yul\":4203:4227   */\n      tag_265\n        /* \"#utility.yul\":4221:4226   */\n      dup2\n        /* \"#utility.yul\":4203:4227   */\n      tag_159\n      jump\t// in\n    tag_265:\n        /* \"#utility.yul\":4198:4201   */\n      dup3\n        /* \"#utility.yul\":4191:4228   */\n      mstore\n        /* \"#utility.yul\":4116:4234   */\n      pop\n      pop\n      jump\t// out\n        /* \"#utility.yul\":4240:4462   */\n    tag_46:\n        /* \"#utility.yul\":4333:4337   */\n      0x00\n        /* \"#utility.yul\":4371:4373   */\n      0x20\n        /* \"#utility.yul\":4360:4369   */\n      dup3\n        /* \"#utility.yul\":4356:4374   */\n      add\n        /* \"#utility.yul\":4348:4374   */\n      swap1\n      pop\n        /* \"#utility.yul\":4384:4455   */\n      tag_267\n        /* \"#utility.yul\":4452:4453   */\n      0x00\n        /* \"#utility.yul\":4441:4450   */\n      dup4\n        /* \"#utility.yul\":4437:4454   */\n      add\n        /* \"#utility.yul\":4428:4434   */\n      dup5\n        /* \"#utility.yul\":4384:4455   */\n      tag_173\n      jump\t// in\n    tag_267:\n        /* \"#utility.yul\":4240:4462   */\n      swap3\n      swap2\n      pop\n      pop\n      jump\t// out\n        /* \"#utility.yul\":4468:4586   */\n    tag_174:\n        /* \"#utility.yul\":4555:4579   */\n      tag_269\n        /* \"#utility.yul\":4573:4578   */\n      dup2\n        /* \"#utility.yul\":4555:4579   */\n      tag_163\n      jump\t// in\n    tag_269:\n        /* \"#utility.yul\":4550:4553   */\n      dup3\n        /* \"#utility.yul\":4543:4580   */\n      mstore\n        /* \"#utility.yul\":4468:4586   */\n      pop\n      pop\n      jump\t// out\n        /* \"#utility.yul\":4592:4814   */\n    tag_51:\n        /* \"#utility.yul\":4685:4689   */\n      0x00\n        /* \"#utility.yul\":4723:4725   */\n      0x20\n        /* \"#utility.yul\":4712:4721   */\n      dup3\n        /* \"#utility.yul\":4708:4726   */\n      add\n        /* \"#utility.yul\":4700:4726   */\n      swap1\n      pop\n        /* \"#utility.yul\":4736:4807   */\n      tag_271\n        /* \"#utility.yul\":4804:4805   */\n      0x00\n        /* \"#utility.yul\":4793:4802   */\n      dup4\n        /* \"#utility.yul\":4789:4806   */\n      add\n        /* \"#utility.yul\":4780:4786   */\n      dup5\n        /* \"#utility.yul\":4736:4807   */\n      tag_174\n      jump\t// in\n    tag_271:\n        /* \"#utility.yul\":4592:4814   */\n      swap3\n      swap2\n      pop\n      pop\n      jump\t// out\n        /* \"#utility.yul\":4820:4924   */\n    tag_175:\n        /* \"#utility.yul\":4865:4872   */\n      0x00\n        /* \"#utility.yul\":4894:4918   */\n      tag_273\n        /* \"#utility.yul\":4912:4917   */\n      dup3\n        /* \"#utility.yul\":4894:4918   */\n      tag_162\n      jump\t// in\n    tag_273:\n        /* \"#utility.yul\":4883:4918   */\n      swap1\n      pop\n        /* \"#utility.yul\":4820:4924   */\n      swap2\n      swap1\n      pop\n      jump\t// out\n        /* \"#utility.yul\":4930:5072   */\n    tag_176:\n        /* \"#utility.yul\":5033:5065   */\n      tag_275\n        /* \"#utility.yul\":5059:5064   */\n      dup2\n        /* \"#utility.yul\":5033:5065   */\n      tag_175\n      jump\t// in\n    tag_275:\n        /* \"#utility.yul\":5028:5031   */\n      dup3\n        /* \"#utility.yul\":5021:5066   */\n      mstore\n        /* \"#utility.yul\":4930:5072   */\n      pop\n      pop\n      jump\t// out\n        /* \"#utility.yul\":5078:5853   */\n    tag_57:\n        /* \"#utility.yul\":5313:5317   */\n      0x00\n        /* \"#utility.yul\":5351:5354   */\n      0xa0\n        /* \"#utility.yul\":5340:5349   */\n      dup3\n        /* \"#utility.yul\":5336:5355   */\n      add\n        /* \"#utility.yul\":5328:5355   */\n      swap1\n      pop\n        /* \"#utility.yul\":5401:5410   */\n      dup2\n        /* \"#utility.yul\":5395:5399   */\n      dup2\n        /* \"#utility.yul\":5391:5411   */\n      sub\n        /* \"#utility.yul\":5387:5388   */\n      0x00\n        /* \"#utility.yul\":5376:5385   */\n      dup4\n        /* \"#utility.yul\":5372:5389   */\n      add\n        /* \"#utility.yul\":5365:5412   */\n      mstore\n        /* \"#utility.yul\":5429:5507   */\n      tag_277\n        /* \"#utility.yul\":5502:5506   */\n      dup2\n        /* \"#utility.yul\":5493:5499   */\n      dup9\n        /* \"#utility.yul\":5429:5507   */\n      tag_172\n      jump\t// in\n    tag_277:\n        /* \"#utility.yul\":5421:5507   */\n      swap1\n      pop\n        /* \"#utility.yul\":5517:5589   */\n      tag_278\n        /* \"#utility.yul\":5585:5587   */\n      0x20\n        /* \"#utility.yul\":5574:5583   */\n      dup4\n        /* \"#utility.yul\":5570:5588   */\n      add\n        /* \"#utility.yul\":5561:5567   */\n      dup8\n        /* \"#utility.yul\":5517:5589   */\n      tag_173\n      jump\t// in\n    tag_278:\n        /* \"#utility.yul\":5599:5687   */\n      tag_279\n        /* \"#utility.yul\":5683:5685   */\n      0x40\n        /* \"#utility.yul\":5672:5681   */\n      dup4\n        /* \"#utility.yul\":5668:5686   */\n      add\n        /* \"#utility.yul\":5659:5665   */\n      dup7\n        /* \"#utility.yul\":5599:5687   */\n      tag_176\n      jump\t// in\n    tag_279:\n        /* \"#utility.yul\":5697:5763   */\n      tag_280\n        /* \"#utility.yul\":5759:5761   */\n      0x60\n        /* \"#utility.yul\":5748:5757   */\n      dup4\n        /* \"#utility.yul\":5744:5762   */\n      add\n        /* \"#utility.yul\":5735:5741   */\n      dup6\n        /* \"#utility.yul\":5697:5763   */\n      tag_167\n      jump\t// in\n    tag_280:\n        /* \"#utility.yul\":5773:5846   */\n      tag_281\n        /* \"#utility.yul\":5841:5844   */\n      0x80\n        /* \"#utility.yul\":5830:5839   */\n      dup4\n        /* \"#utility.yul\":5826:5845   */\n      add\n        /* \"#utility.yul\":5817:5823   */\n      dup5\n        /* \"#utility.yul\":5773:5846   */\n      tag_173\n      jump\t// in\n    tag_281:\n        /* \"#utility.yul\":5078:5853   */\n      swap7\n      swap6\n      pop\n      pop\n      pop\n      pop\n      pop\n      pop\n      jump\t// out\n        /* \"#utility.yul\":5859:5976   */\n    tag_177:\n        /* \"#utility.yul\":5968:5969   */\n      0x00\n        /* \"#utility.yul\":5965:5966   */\n      dup1\n        /* \"#utility.yul\":5958:5970   */\n      revert\n        /* \"#utility.yul\":5982:6099   */\n    tag_178:\n        /* \"#utility.yul\":6091:6092   */\n      0x00\n        /* \"#utility.yul\":6088:6089   */\n      dup1\n        /* \"#utility.yul\":6081:6093   */\n      revert\n        /* \"#utility.yul\":6105:6285   */\n    tag_179:\n        /* \"#utility.yul\":6153:6230   */\n      0x4e487b7100000000000000000000000000000000000000000000000000000000\n        /* \"#utility.yul\":6150:6151   */\n      0x00\n        /* \"#utility.yul\":6143:6231   */\n      mstore\n        /* \"#utility.yul\":6250:6254   */\n      0x41\n        /* \"#utility.yul\":6247:6248   */\n      0x04\n        /* \"#utility.yul\":6240:6255   */\n      mstore\n        /* \"#utility.yul\":6274:6278   */\n      0x24\n        /* \"#utility.yul\":6271:6272   */\n      0x00\n        /* \"#utility.yul\":6264:6279   */\n      revert\n        /* \"#utility.yul\":6291:6572   */\n    tag_180:\n        /* \"#utility.yul\":6374:6401   */\n      tag_286\n        /* \"#utility.yul\":6396:6400   */\n      dup3\n        /* \"#utility.yul\":6374:6401   */\n      tag_171\n      jump\t// in\n    tag_286:\n        /* \"#utility.yul\":6366:6372   */\n      dup2\n        /* \"#utility.yul\":6362:6402   */\n      add\n        /* \"#utility.yul\":6504:6510   */\n      dup2\n        /* \"#utility.yul\":6492:6502   */\n      dup2\n        /* \"#utility.yul\":6489:6511   */\n      lt\n        /* \"#utility.yul\":6468:6486   */\n      0xffffffffffffffff\n        /* \"#utility.yul\":6456:6466   */\n      dup3\n        /* \"#utility.yul\":6453:6487   */\n      gt\n        /* \"#utility.yul\":6450:6512   */\n      or\n        /* \"#utility.yul\":6447:6535   */\n      iszero\n      tag_287\n      jumpi\n        /* \"#utility.yul\":6515:6533   */\n      tag_288\n      tag_179\n      jump\t// in\n    tag_288:\n        /* \"#utility.yul\":6447:6535   */\n    tag_287:\n        /* \"#utility.yul\":6555:6565   */\n      dup1\n        /* \"#utility.yul\":6551:6553   */\n      0x40\n        /* \"#utility.yul\":6544:6566   */\n      mstore\n        /* \"#utility.yul\":6334:6572   */\n      pop\n        /* \"#utility.yul\":6291:6572   */\n      pop\n      pop\n      jump\t// out\n        /* \"#utility.yul\":6578:6707   */\n    tag_181:\n        /* \"#utility.yul\":6612:6618   */\n      0x00\n        /* \"#utility.yul\":6639:6659   */\n      tag_290\n      tag_156\n      jump\t// in\n    tag_290:\n        /* \"#utility.yul\":6629:6659   */\n      swap1\n      pop\n        /* \"#utility.yul\":6668:6701   */\n      tag_291\n        /* \"#utility.yul\":6696:6700   */\n      dup3\n        /* \"#utility.yul\":6688:6694   */\n      dup3\n        /* \"#utility.yul\":6668:6701   */\n      tag_180\n      jump\t// in\n    tag_291:\n        /* \"#utility.yul\":6578:6707   */\n      swap2\n      swap1\n      pop\n      jump\t// out\n        /* \"#utility.yul\":6713:7021   */\n    tag_182:\n        /* \"#utility.yul\":6775:6779   */\n      0x00\n        /* \"#utility.yul\":6865:6883   */\n      0xffffffffffffffff\n        /* \"#utility.yul\":6857:6863   */\n      dup3\n        /* \"#utility.yul\":6854:6884   */\n      gt\n        /* \"#utility.yul\":6851:6907   */\n      iszero\n      tag_293\n      jumpi\n        /* \"#utility.yul\":6887:6905   */\n      tag_294\n      tag_179\n      jump\t// in\n    tag_294:\n        /* \"#utility.yul\":6851:6907   */\n    tag_293:\n        /* \"#utility.yul\":6925:6954   */\n      tag_295\n        /* \"#utility.yul\":6947:6953   */\n      dup3\n        /* \"#utility.yul\":6925:6954   */\n      tag_171\n      jump\t// in\n    tag_295:\n        /* \"#utility.yul\":6917:6954   */\n      swap1\n      pop\n        /* \"#utility.yul\":7009:7013   */\n      0x20\n        /* \"#utility.yul\":7003:7007   */\n      dup2\n        /* \"#utility.yul\":6999:7014   */\n      add\n        /* \"#utility.yul\":6991:7014   */\n      swap1\n      pop\n        /* \"#utility.yul\":6713:7021   */\n      swap2\n      swap1\n      pop\n      jump\t// out\n        /* \"#utility.yul\":7027:7173   */\n    tag_183:\n        /* \"#utility.yul\":7124:7130   */\n      dup3\n        /* \"#utility.yul\":7119:7122   */\n      dup2\n        /* \"#utility.yul\":7114:7117   */\n      dup4\n        /* \"#utility.yul\":7101:7131   */\n      calldatacopy\n        /* \"#utility.yul\":7165:7166   */\n      0x00\n        /* \"#utility.yul\":7156:7162   */\n      dup4\n        /* \"#utility.yul\":7151:7154   */\n      dup4\n        /* \"#utility.yul\":7147:7163   */\n      add\n        /* \"#utility.yul\":7140:7167   */\n      mstore\n        /* \"#utility.yul\":7027:7173   */\n      pop\n      pop\n      pop\n      jump\t// out\n        /* \"#utility.yul\":7179:7604   */\n    tag_184:\n        /* \"#utility.yul\":7257:7262   */\n      0x00\n        /* \"#utility.yul\":7282:7348   */\n      tag_298\n        /* \"#utility.yul\":7298:7347   */\n      tag_299\n        /* \"#utility.yul\":7340:7346   */\n      dup5\n        /* \"#utility.yul\":7298:7347   */\n      tag_182\n      jump\t// in\n    tag_299:\n        /* \"#utility.yul\":7282:7348   */\n      tag_181\n      jump\t// in\n    tag_298:\n        /* \"#utility.yul\":7273:7348   */\n      swap1\n      pop\n        /* \"#utility.yul\":7371:7377   */\n      dup3\n        /* \"#utility.yul\":7364:7369   */\n      dup2\n        /* \"#utility.yul\":7357:7378   */\n      mstore\n        /* \"#utility.yul\":7409:7413   */\n      0x20\n        /* \"#utility.yul\":7402:7407   */\n      dup2\n        /* \"#utility.yul\":7398:7414   */\n      add\n        /* \"#utility.yul\":7447:7450   */\n      dup5\n        /* \"#utility.yul\":7438:7444   */\n      dup5\n        /* \"#utility.yul\":7433:7436   */\n      dup5\n        /* \"#utility.yul\":7429:7445   */\n      add\n        /* \"#utility.yul\":7426:7451   */\n      gt\n        /* \"#utility.yul\":7423:7535   */\n      iszero\n      tag_300\n      jumpi\n        /* \"#utility.yul\":7454:7533   */\n      tag_301\n      tag_178\n      jump\t// in\n    tag_301:\n        /* \"#utility.yul\":7423:7535   */\n    tag_300:\n        /* \"#utility.yul\":7544:7598   */\n      tag_302\n        /* \"#utility.yul\":7591:7597   */\n      dup5\n        /* \"#utility.yul\":7586:7589   */\n      dup3\n        /* \"#utility.yul\":7581:7584   */\n      dup6\n        /* \"#utility.yul\":7544:7598   */\n      tag_183\n      jump\t// in\n    tag_302:\n        /* \"#utility.yul\":7263:7604   */\n      pop\n        /* \"#utility.yul\":7179:7604   */\n      swap4\n      swap3\n      pop\n      pop\n      pop\n      jump\t// out\n        /* \"#utility.yul\":7624:7964   */\n    tag_185:\n        /* \"#utility.yul\":7680:7685   */\n      0x00\n        /* \"#utility.yul\":7729:7732   */\n      dup3\n        /* \"#utility.yul\":7722:7726   */\n      0x1f\n        /* \"#utility.yul\":7714:7720   */\n      dup4\n        /* \"#utility.yul\":7710:7727   */\n      add\n        /* \"#utility.yul\":7706:7733   */\n      slt\n        /* \"#utility.yul\":7696:7818   */\n      tag_304\n      jumpi\n        /* \"#utility.yul\":7737:7816   */\n      tag_305\n      tag_177\n      jump\t// in\n    tag_305:\n        /* \"#utility.yul\":7696:7818   */\n    tag_304:\n        /* \"#utility.yul\":7854:7860   */\n      dup2\n        /* \"#utility.yul\":7841:7861   */\n      calldataload\n        /* \"#utility.yul\":7879:7958   */\n      tag_306\n        /* \"#utility.yul\":7954:7957   */\n      dup5\n        /* \"#utility.yul\":7946:7952   */\n      dup3\n        /* \"#utility.yul\":7939:7943   */\n      0x20\n        /* \"#utility.yul\":7931:7937   */\n      dup7\n        /* \"#utility.yul\":7927:7944   */\n      add\n        /* \"#utility.yul\":7879:7958   */\n      tag_184\n      jump\t// in\n    tag_306:\n        /* \"#utility.yul\":7870:7958   */\n      swap2\n      pop\n        /* \"#utility.yul\":7686:7964   */\n      pop\n        /* \"#utility.yul\":7624:7964   */\n      swap3\n      swap2\n      pop\n      pop\n      jump\t// out\n        /* \"#utility.yul\":7970:8108   */\n    tag_186:\n        /* \"#utility.yul\":8051:8083   */\n      tag_308\n        /* \"#utility.yul\":8077:8082   */\n      dup2\n        /* \"#utility.yul\":8051:8083   */\n      tag_175\n      jump\t// in\n    tag_308:\n        /* \"#utility.yul\":8044:8049   */\n      dup2\n        /* \"#utility.yul\":8041:8084   */\n      eq\n        /* \"#utility.yul\":8031:8102   */\n      tag_309\n      jumpi\n        /* \"#utility.yul\":8098:8099   */\n      0x00\n        /* \"#utility.yul\":8095:8096   */\n      dup1\n        /* \"#utility.yul\":8088:8100   */\n      revert\n        /* \"#utility.yul\":8031:8102   */\n    tag_309:\n        /* \"#utility.yul\":7970:8108   */\n      pop\n      jump\t// out\n        /* \"#utility.yul\":8114:8269   */\n    tag_187:\n        /* \"#utility.yul\":8168:8173   */\n      0x00\n        /* \"#utility.yul\":8206:8212   */\n      dup2\n        /* \"#utility.yul\":8193:8213   */\n      calldataload\n        /* \"#utility.yul\":8184:8213   */\n      swap1\n      pop\n        /* \"#utility.yul\":8222:8263   */\n      tag_311\n        /* \"#utility.yul\":8257:8262   */\n      dup2\n        /* \"#utility.yul\":8222:8263   */\n      tag_186\n      jump\t// in\n    tag_311:\n        /* \"#utility.yul\":8114:8269   */\n      swap3\n      swap2\n      pop\n      pop\n      jump\t// out\n        /* \"#utility.yul\":8275:9090   */\n    tag_69:\n        /* \"#utility.yul\":8370:8376   */\n      0x00\n        /* \"#utility.yul\":8378:8384   */\n      dup1\n        /* \"#utility.yul\":8386:8392   */\n      0x00\n        /* \"#utility.yul\":8435:8437   */\n      0x60\n        /* \"#utility.yul\":8423:8432   */\n      dup5\n        /* \"#utility.yul\":8414:8421   */\n      dup7\n        /* \"#utility.yul\":8410:8433   */\n      sub\n        /* \"#utility.yul\":8406:8438   */\n      slt\n        /* \"#utility.yul\":8403:8522   */\n      iszero\n      tag_313\n      jumpi\n        /* \"#utility.yul\":8441:8520   */\n      tag_314\n      tag_157\n      jump\t// in\n    tag_314:\n        /* \"#utility.yul\":8403:8522   */\n    tag_313:\n        /* \"#utility.yul\":8589:8590   */\n      0x00\n        /* \"#utility.yul\":8578:8587   */\n      dup5\n        /* \"#utility.yul\":8574:8591   */\n      add\n        /* \"#utility.yul\":8561:8592   */\n      calldataload\n        /* \"#utility.yul\":8619:8637   */\n      0xffffffffffffffff\n        /* \"#utility.yul\":8611:8617   */\n      dup2\n        /* \"#utility.yul\":8608:8638   */\n      gt\n        /* \"#utility.yul\":8605:8722   */\n      iszero\n      tag_315\n      jumpi\n        /* \"#utility.yul\":8641:8720   */\n      tag_316\n      tag_158\n      jump\t// in\n    tag_316:\n        /* \"#utility.yul\":8605:8722   */\n    tag_315:\n        /* \"#utility.yul\":8746:8809   */\n      tag_317\n        /* \"#utility.yul\":8801:8808   */\n      dup7\n        /* \"#utility.yul\":8792:8798   */\n      dup3\n        /* \"#utility.yul\":8781:8790   */\n      dup8\n        /* \"#utility.yul\":8777:8799   */\n      add\n        /* \"#utility.yul\":8746:8809   */\n      tag_185\n      jump\t// in\n    tag_317:\n        /* \"#utility.yul\":8736:8809   */\n      swap4\n      pop\n        /* \"#utility.yul\":8532:8819   */\n      pop\n        /* \"#utility.yul\":8858:8860   */\n      0x20\n        /* \"#utility.yul\":8884:8937   */\n      tag_318\n        /* \"#utility.yul\":8929:8936   */\n      dup7\n        /* \"#utility.yul\":8920:8926   */\n      dup3\n        /* \"#utility.yul\":8909:8918   */\n      dup8\n        /* \"#utility.yul\":8905:8927   */\n      add\n        /* \"#utility.yul\":8884:8937   */\n      tag_161\n      jump\t// in\n    tag_318:\n        /* \"#utility.yul\":8874:8937   */\n      swap3\n      pop\n        /* \"#utility.yul\":8829:8947   */\n      pop\n        /* \"#utility.yul\":8986:8988   */\n      0x40\n        /* \"#utility.yul\":9012:9073   */\n      tag_319\n        /* \"#utility.yul\":9065:9072   */\n      dup7\n        /* \"#utility.yul\":9056:9062   */\n      dup3\n        /* \"#utility.yul\":9045:9054   */\n      dup8\n        /* \"#utility.yul\":9041:9063   */\n      add\n        /* \"#utility.yul\":9012:9073   */\n      tag_187\n      jump\t// in\n    tag_319:\n        /* \"#utility.yul\":9002:9073   */\n      swap2\n      pop\n        /* \"#utility.yul\":8957:9083   */\n      pop\n        /* \"#utility.yul\":8275:9090   */\n      swap3\n      pop\n      swap3\n      pop\n      swap3\n      jump\t// out\n        /* \"#utility.yul\":9096:10164   */\n    tag_85:\n        /* \"#utility.yul\":9397:9401   */\n      0x00\n        /* \"#utility.yul\":9435:9438   */\n      0xe0\n        /* \"#utility.yul\":9424:9433   */\n      dup3\n        /* \"#utility.yul\":9420:9439   */\n      add\n        /* \"#utility.yul\":9412:9439   */\n      swap1\n      pop\n        /* \"#utility.yul\":9485:9494   */\n      dup2\n        /* \"#utility.yul\":9479:9483   */\n      dup2\n        /* \"#utility.yul\":9475:9495   */\n      sub\n        /* \"#utility.yul\":9471:9472   */\n      0x00\n        /* \"#utility.yul\":9460:9469   */\n      dup4\n        /* \"#utility.yul\":9456:9473   */\n      add\n        /* \"#utility.yul\":9449:9496   */\n      mstore\n        /* \"#utility.yul\":9513:9591   */\n      tag_321\n        /* \"#utility.yul\":9586:9590   */\n      dup2\n        /* \"#utility.yul\":9577:9583   */\n      dup11\n        /* \"#utility.yul\":9513:9591   */\n      tag_172\n      jump\t// in\n    tag_321:\n        /* \"#utility.yul\":9505:9591   */\n      swap1\n      pop\n        /* \"#utility.yul\":9638:9647   */\n      dup2\n        /* \"#utility.yul\":9632:9636   */\n      dup2\n        /* \"#utility.yul\":9628:9648   */\n      sub\n        /* \"#utility.yul\":9623:9625   */\n      0x20\n        /* \"#utility.yul\":9612:9621   */\n      dup4\n        /* \"#utility.yul\":9608:9626   */\n      add\n        /* \"#utility.yul\":9601:9649   */\n      mstore\n        /* \"#utility.yul\":9666:9744   */\n      tag_322\n        /* \"#utility.yul\":9739:9743   */\n      dup2\n        /* \"#utility.yul\":9730:9736   */\n      dup10\n        /* \"#utility.yul\":9666:9744   */\n      tag_172\n      jump\t// in\n    tag_322:\n        /* \"#utility.yul\":9658:9744   */\n      swap1\n      pop\n        /* \"#utility.yul\":9754:9826   */\n      tag_323\n        /* \"#utility.yul\":9822:9824   */\n      0x40\n        /* \"#utility.yul\":9811:9820   */\n      dup4\n        /* \"#utility.yul\":9807:9825   */\n      add\n        /* \"#utility.yul\":9798:9804   */\n      dup9\n        /* \"#utility.yul\":9754:9826   */\n      tag_173\n      jump\t// in\n    tag_323:\n        /* \"#utility.yul\":9836:9908   */\n      tag_324\n        /* \"#utility.yul\":9904:9906   */\n      0x60\n        /* \"#utility.yul\":9893:9902   */\n      dup4\n        /* \"#utility.yul\":9889:9907   */\n      add\n        /* \"#utility.yul\":9880:9886   */\n      dup8\n        /* \"#utility.yul\":9836:9908   */\n      tag_173\n      jump\t// in\n    tag_324:\n        /* \"#utility.yul\":9918:9991   */\n      tag_325\n        /* \"#utility.yul\":9986:9989   */\n      0x80\n        /* \"#utility.yul\":9975:9984   */\n      dup4\n        /* \"#utility.yul\":9971:9990   */\n      add\n        /* \"#utility.yul\":9962:9968   */\n      dup7\n        /* \"#utility.yul\":9918:9991   */\n      tag_174\n      jump\t// in\n    tag_325:\n        /* \"#utility.yul\":10001:10074   */\n      tag_326\n        /* \"#utility.yul\":10069:10072   */\n      0xa0\n        /* \"#utility.yul\":10058:10067   */\n      dup4\n        /* \"#utility.yul\":10054:10073   */\n      add\n        /* \"#utility.yul\":10045:10051   */\n      dup6\n        /* \"#utility.yul\":10001:10074   */\n      tag_173\n      jump\t// in\n    tag_326:\n        /* \"#utility.yul\":10084:10157   */\n      tag_327\n        /* \"#utility.yul\":10152:10155   */\n      0xc0\n        /* \"#utility.yul\":10141:10150   */\n      dup4\n        /* \"#utility.yul\":10137:10156   */\n      add\n        /* \"#utility.yul\":10128:10134   */\n      dup5\n        /* \"#utility.yul\":10084:10157   */\n      tag_173\n      jump\t// in\n    tag_327:\n        /* \"#utility.yul\":9096:10164   */\n      swap9\n      swap8\n      pop\n      pop\n      pop\n      pop\n      pop\n      pop\n      pop\n      pop\n      jump\t// out\n        /* \"#utility.yul\":10170:10345   */\n    tag_188:\n        /* \"#utility.yul\":10310:10337   */\n      0x43616c6c6572206973206e6f7420746865206d616e6167657200000000000000\n        /* \"#utility.yul\":10306:10307   */\n      0x00\n        /* \"#utility.yul\":10298:10304   */\n      dup3\n        /* \"#utility.yul\":10294:10308   */\n      add\n        /* \"#utility.yul\":10287:10338   */\n      mstore\n        /* \"#utility.yul\":10170:10345   */\n      pop\n      jump\t// out\n        /* \"#utility.yul\":10351:10717   */\n    tag_189:\n        /* \"#utility.yul\":10493:10496   */\n      0x00\n        /* \"#utility.yul\":10514:10581   */\n      tag_330\n        /* \"#utility.yul\":10578:10580   */\n      0x19\n        /* \"#utility.yul\":10573:10576   */\n      dup4\n        /* \"#utility.yul\":10514:10581   */\n      tag_169\n      jump\t// in\n    tag_330:\n        /* \"#utility.yul\":10507:10581   */\n      swap2\n      pop\n        /* \"#utility.yul\":10590:10683   */\n      tag_331\n        /* \"#utility.yul\":10679:10682   */\n      dup3\n        /* \"#utility.yul\":10590:10683   */\n      tag_188\n      jump\t// in\n    tag_331:\n        /* \"#utility.yul\":10708:10710   */\n      0x20\n        /* \"#utility.yul\":10703:10706   */\n      dup3\n        /* \"#utility.yul\":10699:10711   */\n      add\n        /* \"#utility.yul\":10692:10711   */\n      swap1\n      pop\n        /* \"#utility.yul\":10351:10717   */\n      swap2\n      swap1\n      pop\n      jump\t// out\n        /* \"#utility.yul\":10723:11142   */\n    tag_89:\n        /* \"#utility.yul\":10889:10893   */\n      0x00\n        /* \"#utility.yul\":10927:10929   */\n      0x20\n        /* \"#utility.yul\":10916:10925   */\n      dup3\n        /* \"#utility.yul\":10912:10930   */\n      add\n        /* \"#utility.yul\":10904:10930   */\n      swap1\n      pop\n        /* \"#utility.yul\":10976:10985   */\n      dup2\n        /* \"#utility.yul\":10970:10974   */\n      dup2\n        /* \"#utility.yul\":10966:10986   */\n      sub\n        /* \"#utility.yul\":10962:10963   */\n      0x00\n        /* \"#utility.yul\":10951:10960   */\n      dup4\n        /* \"#utility.yul\":10947:10964   */\n      add\n        /* \"#utility.yul\":10940:10987   */\n      mstore\n        /* \"#utility.yul\":11004:11135   */\n      tag_333\n        /* \"#utility.yul\":11130:11134   */\n      dup2\n        /* \"#utility.yul\":11004:11135   */\n      tag_189\n      jump\t// in\n    tag_333:\n        /* \"#utility.yul\":10996:11135   */\n      swap1\n      pop\n        /* \"#utility.yul\":10723:11142   */\n      swap2\n      swap1\n      pop\n      jump\t// out\n        /* \"#utility.yul\":11148:11328   */\n    tag_93:\n        /* \"#utility.yul\":11196:11273   */\n      0x4e487b7100000000000000000000000000000000000000000000000000000000\n        /* \"#utility.yul\":11193:11194   */\n      0x00\n        /* \"#utility.yul\":11186:11274   */\n      mstore\n        /* \"#utility.yul\":11293:11297   */\n      0x32\n        /* \"#utility.yul\":11290:11291   */\n      0x04\n        /* \"#utility.yul\":11283:11298   */\n      mstore\n        /* \"#utility.yul\":11317:11321   */\n      0x24\n        /* \"#utility.yul\":11314:11315   */\n      0x00\n        /* \"#utility.yul\":11307:11322   */\n      revert\n        /* \"#utility.yul\":11334:11514   */\n    tag_190:\n        /* \"#utility.yul\":11382:11459   */\n      0x4e487b7100000000000000000000000000000000000000000000000000000000\n        /* \"#utility.yul\":11379:11380   */\n      0x00\n        /* \"#utility.yul\":11372:11460   */\n      mstore\n        /* \"#utility.yul\":11479:11483   */\n      0x12\n        /* \"#utility.yul\":11476:11477   */\n      0x04\n        /* \"#utility.yul\":11469:11484   */\n      mstore\n        /* \"#utility.yul\":11503:11507   */\n      0x24\n        /* \"#utility.yul\":11500:11501   */\n      0x00\n        /* \"#utility.yul\":11493:11508   */\n      revert\n        /* \"#utility.yul\":11520:11700   */\n    tag_191:\n        /* \"#utility.yul\":11568:11645   */\n      0x4e487b7100000000000000000000000000000000000000000000000000000000\n        /* \"#utility.yul\":11565:11566   */\n      0x00\n        /* \"#utility.yul\":11558:11646   */\n      mstore\n        /* \"#utility.yul\":11665:11669   */\n      0x11\n        /* \"#utility.yul\":11662:11663   */\n      0x04\n        /* \"#utility.yul\":11655:11670   */\n      mstore\n        /* \"#utility.yul\":11689:11693   */\n      0x24\n        /* \"#utility.yul\":11686:11687   */\n      0x00\n        /* \"#utility.yul\":11679:11694   */\n      revert\n        /* \"#utility.yul\":11706:11891   */\n    tag_96:\n        /* \"#utility.yul\":11746:11747   */\n      0x00\n        /* \"#utility.yul\":11763:11783   */\n      tag_338\n        /* \"#utility.yul\":11781:11782   */\n      dup3\n        /* \"#utility.yul\":11763:11783   */\n      tag_159\n      jump\t// in\n    tag_338:\n        /* \"#utility.yul\":11758:11783   */\n      swap2\n      pop\n        /* \"#utility.yul\":11797:11817   */\n      tag_339\n        /* \"#utility.yul\":11815:11816   */\n      dup4\n        /* \"#utility.yul\":11797:11817   */\n      tag_159\n      jump\t// in\n    tag_339:\n        /* \"#utility.yul\":11792:11817   */\n      swap3\n      pop\n        /* \"#utility.yul\":11836:11837   */\n      dup3\n        /* \"#utility.yul\":11826:11861   */\n      tag_340\n      jumpi\n        /* \"#utility.yul\":11841:11859   */\n      tag_341\n      tag_190\n      jump\t// in\n    tag_341:\n        /* \"#utility.yul\":11826:11861   */\n    tag_340:\n        /* \"#utility.yul\":11883:11884   */\n      dup3\n        /* \"#utility.yul\":11880:11881   */\n      dup3\n        /* \"#utility.yul\":11876:11885   */\n      div\n        /* \"#utility.yul\":11871:11885   */\n      swap1\n      pop\n        /* \"#utility.yul\":11706:11891   */\n      swap3\n      swap2\n      pop\n      pop\n      jump\t// out\n        /* \"#utility.yul\":11897:12067   */\n    tag_192:\n        /* \"#utility.yul\":12037:12059   */\n      0x4e6f7420656e6f75676820617070726f76616c73000000000000000000000000\n        /* \"#utility.yul\":12033:12034   */\n      0x00\n        /* \"#utility.yul\":12025:12031   */\n      dup3\n        /* \"#utility.yul\":12021:12035   */\n      add\n        /* \"#utility.yul\":12014:12060   */\n      mstore\n        /* \"#utility.yul\":11897:12067   */\n      pop\n      jump\t// out\n        /* \"#utility.yul\":12073:12439   */\n    tag_193:\n        /* \"#utility.yul\":12215:12218   */\n      0x00\n        /* \"#utility.yul\":12236:12303   */\n      tag_344\n        /* \"#utility.yul\":12300:12302   */\n      0x14\n        /* \"#utility.yul\":12295:12298   */\n      dup4\n        /* \"#utility.yul\":12236:12303   */\n      tag_169\n      jump\t// in\n    tag_344:\n        /* \"#utility.yul\":12229:12303   */\n      swap2\n      pop\n        /* \"#utility.yul\":12312:12405   */\n      tag_345\n        /* \"#utility.yul\":12401:12404   */\n      dup3\n        /* \"#utility.yul\":12312:12405   */\n      tag_192\n      jump\t// in\n    tag_345:\n        /* \"#utility.yul\":12430:12432   */\n      0x20\n        /* \"#utility.yul\":12425:12428   */\n      dup3\n        /* \"#utility.yul\":12421:12433   */\n      add\n        /* \"#utility.yul\":12414:12433   */\n      swap1\n      pop\n        /* \"#utility.yul\":12073:12439   */\n      swap2\n      swap1\n      pop\n      jump\t// out\n        /* \"#utility.yul\":12445:12864   */\n    tag_99:\n        /* \"#utility.yul\":12611:12615   */\n      0x00\n        /* \"#utility.yul\":12649:12651   */\n      0x20\n        /* \"#utility.yul\":12638:12647   */\n      dup3\n        /* \"#utility.yul\":12634:12652   */\n      add\n        /* \"#utility.yul\":12626:12652   */\n      swap1\n      pop\n        /* \"#utility.yul\":12698:12707   */\n      dup2\n        /* \"#utility.yul\":12692:12696   */\n      dup2\n        /* \"#utility.yul\":12688:12708   */\n      sub\n        /* \"#utility.yul\":12684:12685   */\n      0x00\n        /* \"#utility.yul\":12673:12682   */\n      dup4\n        /* \"#utility.yul\":12669:12686   */\n      add\n        /* \"#utility.yul\":12662:12709   */\n      mstore\n        /* \"#utility.yul\":12726:12857   */\n      tag_347\n        /* \"#utility.yul\":12852:12856   */\n      dup2\n        /* \"#utility.yul\":12726:12857   */\n      tag_193\n      jump\t// in\n    tag_347:\n        /* \"#utility.yul\":12718:12857   */\n      swap1\n      pop\n        /* \"#utility.yul\":12445:12864   */\n      swap2\n      swap1\n      pop\n      jump\t// out\n        /* \"#utility.yul\":12870:13045   */\n    tag_194:\n        /* \"#utility.yul\":13010:13037   */\n      0x5265717565737420616c72656164792066696e616c697a656400000000000000\n        /* \"#utility.yul\":13006:13007   */\n      0x00\n        /* \"#utility.yul\":12998:13004   */\n      dup3\n        /* \"#utility.yul\":12994:13008   */\n      add\n        /* \"#utility.yul\":12987:13038   */\n      mstore\n        /* \"#utility.yul\":12870:13045   */\n      pop\n      jump\t// out\n        /* \"#utility.yul\":13051:13417   */\n    tag_195:\n        /* \"#utility.yul\":13193:13196   */\n      0x00\n        /* \"#utility.yul\":13214:13281   */\n      tag_350\n        /* \"#utility.yul\":13278:13280   */\n      0x19\n        /* \"#utility.yul\":13273:13276   */\n      dup4\n        /* \"#utility.yul\":13214:13281   */\n      tag_169\n      jump\t// in\n    tag_350:\n        /* \"#utility.yul\":13207:13281   */\n      swap2\n      pop\n        /* \"#utility.yul\":13290:13383   */\n      tag_351\n        /* \"#utility.yul\":13379:13382   */\n      dup3\n        /* \"#utility.yul\":13290:13383   */\n      tag_194\n      jump\t// in\n    tag_351:\n        /* \"#utility.yul\":13408:13410   */\n      0x20\n        /* \"#utility.yul\":13403:13406   */\n      dup3\n        /* \"#utility.yul\":13399:13411   */\n      add\n        /* \"#utility.yul\":13392:13411   */\n      swap1\n      pop\n        /* \"#utility.yul\":13051:13417   */\n      swap2\n      swap1\n      pop\n      jump\t// out\n        /* \"#utility.yul\":13423:13842   */\n    tag_102:\n        /* \"#utility.yul\":13589:13593   */\n      0x00\n        /* \"#utility.yul\":13627:13629   */\n      0x20\n        /* \"#utility.yul\":13616:13625   */\n      dup3\n        /* \"#utility.yul\":13612:13630   */\n      add\n        /* \"#utility.yul\":13604:13630   */\n      swap1\n      pop\n        /* \"#utility.yul\":13676:13685   */\n      dup2\n        /* \"#utility.yul\":13670:13674   */\n      dup2\n        /* \"#utility.yul\":13666:13686   */\n      sub\n        /* \"#utility.yul\":13662:13663   */\n      0x00\n        /* \"#utility.yul\":13651:13660   */\n      dup4\n        /* \"#utility.yul\":13647:13664   */\n      add\n        /* \"#utility.yul\":13640:13687   */\n      mstore\n        /* \"#utility.yul\":13704:13835   */\n      tag_353\n        /* \"#utility.yul\":13830:13834   */\n      dup2\n        /* \"#utility.yul\":13704:13835   */\n      tag_195\n      jump\t// in\n    tag_353:\n        /* \"#utility.yul\":13696:13835   */\n      swap1\n      pop\n        /* \"#utility.yul\":13423:13842   */\n      swap2\n      swap1\n      pop\n      jump\t// out\n        /* \"#utility.yul\":13848:14028   */\n    tag_196:\n        /* \"#utility.yul\":13896:13973   */\n      0x4e487b7100000000000000000000000000000000000000000000000000000000\n        /* \"#utility.yul\":13893:13894   */\n      0x00\n        /* \"#utility.yul\":13886:13974   */\n      mstore\n        /* \"#utility.yul\":13993:13997   */\n      0x22\n        /* \"#utility.yul\":13990:13991   */\n      0x04\n        /* \"#utility.yul\":13983:13998   */\n      mstore\n        /* \"#utility.yul\":14017:14021   */\n      0x24\n        /* \"#utility.yul\":14014:14015   */\n      0x00\n        /* \"#utility.yul\":14007:14022   */\n      revert\n        /* \"#utility.yul\":14034:14354   */\n    tag_106:\n        /* \"#utility.yul\":14078:14084   */\n      0x00\n        /* \"#utility.yul\":14115:14116   */\n      0x02\n        /* \"#utility.yul\":14109:14113   */\n      dup3\n        /* \"#utility.yul\":14105:14117   */\n      div\n        /* \"#utility.yul\":14095:14117   */\n      swap1\n      pop\n        /* \"#utility.yul\":14162:14163   */\n      0x01\n        /* \"#utility.yul\":14156:14160   */\n      dup3\n        /* \"#utility.yul\":14152:14164   */\n      and\n        /* \"#utility.yul\":14183:14201   */\n      dup1\n        /* \"#utility.yul\":14173:14254   */\n      tag_356\n      jumpi\n        /* \"#utility.yul\":14239:14243   */\n      0x7f\n        /* \"#utility.yul\":14231:14237   */\n      dup3\n        /* \"#utility.yul\":14227:14244   */\n      and\n        /* \"#utility.yul\":14217:14244   */\n      swap2\n      pop\n        /* \"#utility.yul\":14173:14254   */\n    tag_356:\n        /* \"#utility.yul\":14301:14303   */\n      0x20\n        /* \"#utility.yul\":14293:14299   */\n      dup3\n        /* \"#utility.yul\":14290:14304   */\n      lt\n        /* \"#utility.yul\":14270:14288   */\n      dup2\n        /* \"#utility.yul\":14267:14305   */\n      sub\n        /* \"#utility.yul\":14264:14348   */\n      tag_357\n      jumpi\n        /* \"#utility.yul\":14320:14338   */\n      tag_358\n      tag_196\n      jump\t// in\n    tag_358:\n        /* \"#utility.yul\":14264:14348   */\n    tag_357:\n        /* \"#utility.yul\":14085:14354   */\n      pop\n        /* \"#utility.yul\":14034:14354   */\n      swap2\n      swap1\n      pop\n      jump\t// out\n        /* \"#utility.yul\":14360:14501   */\n    tag_197:\n        /* \"#utility.yul\":14409:14413   */\n      0x00\n        /* \"#utility.yul\":14432:14435   */\n      dup2\n        /* \"#utility.yul\":14424:14435   */\n      swap1\n      pop\n        /* \"#utility.yul\":14455:14458   */\n      dup2\n        /* \"#utility.yul\":14452:14453   */\n      0x00\n        /* \"#utility.yul\":14445:14459   */\n      mstore\n        /* \"#utility.yul\":14489:14493   */\n      0x20\n        /* \"#utility.yul\":14486:14487   */\n      0x00\n        /* \"#utility.yul\":14476:14494   */\n      keccak256\n        /* \"#utility.yul\":14468:14494   */\n      swap1\n      pop\n        /* \"#utility.yul\":14360:14501   */\n      swap2\n      swap1\n      pop\n      jump\t// out\n        /* \"#utility.yul\":14507:14600   */\n    tag_198:\n        /* \"#utility.yul\":14544:14550   */\n      0x00\n        /* \"#utility.yul\":14591:14593   */\n      0x20\n        /* \"#utility.yul\":14586:14588   */\n      0x1f\n        /* \"#utility.yul\":14579:14584   */\n      dup4\n        /* \"#utility.yul\":14575:14589   */\n      add\n        /* \"#utility.yul\":14571:14594   */\n      div\n        /* \"#utility.yul\":14561:14594   */\n      swap1\n      pop\n        /* \"#utility.yul\":14507:14600   */\n      swap2\n      swap1\n      pop\n      jump\t// out\n        /* \"#utility.yul\":14606:14713   */\n    tag_199:\n        /* \"#utility.yul\":14650:14658   */\n      0x00\n        /* \"#utility.yul\":14700:14705   */\n      dup3\n        /* \"#utility.yul\":14694:14698   */\n      dup3\n        /* \"#utility.yul\":14690:14706   */\n      shl\n        /* \"#utility.yul\":14669:14706   */\n      swap1\n      pop\n        /* \"#utility.yul\":14606:14713   */\n      swap3\n      swap2\n      pop\n      pop\n      jump\t// out\n        /* \"#utility.yul\":14719:15112   */\n    tag_200:\n        /* \"#utility.yul\":14788:14794   */\n      0x00\n        /* \"#utility.yul\":14838:14839   */\n      0x08\n        /* \"#utility.yul\":14826:14836   */\n      dup4\n        /* \"#utility.yul\":14822:14840   */\n      mul\n        /* \"#utility.yul\":14861:14958   */\n      tag_363\n        /* \"#utility.yul\":14891:14957   */\n      0xffffffffffffffffffffffffffffffffffffffffffffffffffffffffffffffff\n        /* \"#utility.yul\":14880:14889   */\n      dup3\n        /* \"#utility.yul\":14861:14958   */\n      tag_199\n      jump\t// in\n    tag_363:\n        /* \"#utility.yul\":14979:15018   */\n      tag_364\n        /* \"#utility.yul\":15009:15017   */\n      dup7\n        /* \"#utility.yul\":14998:15007   */\n      dup4\n        /* \"#utility.yul\":14979:15018   */\n      tag_199\n      jump\t// in\n    tag_364:\n        /* \"#utility.yul\":14967:15018   */\n      swap6\n      pop\n        /* \"#utility.yul\":15051:15055   */\n      dup1\n        /* \"#utility.yul\":15047:15056   */\n      not\n        /* \"#utility.yul\":15040:15045   */\n      dup5\n        /* \"#utility.yul\":15036:15057   */\n      and\n        /* \"#utility.yul\":15027:15057   */\n      swap4\n      pop\n        /* \"#utility.yul\":15100:15104   */\n      dup1\n        /* \"#utility.yul\":15090:15098   */\n      dup7\n        /* \"#utility.yul\":15086:15105   */\n      and\n        /* \"#utility.yul\":15079:15084   */\n      dup5\n        /* \"#utility.yul\":15076:15106   */\n      or\n        /* \"#utility.yul\":15066:15106   */\n      swap3\n      pop\n        /* \"#utility.yul\":14795:15112   */\n      pop\n      pop\n        /* \"#utility.yul\":14719:15112   */\n      swap4\n      swap3\n      pop\n      pop\n      pop\n      jump\t// out\n        /* \"#utility.yul\":15118:15178   */\n    tag_201:\n        /* \"#utility.yul\":15146:15149   */\n      0x00\n        /* \"#utility.yul\":15167:15172   */\n      dup2\n        /* \"#utility.yul\":15160:15172   */\n      swap1\n      pop\n        /* \"#utility.yul\":15118:15178   */\n      swap2\n      swap1\n      pop\n      jump\t// out\n        /* \"#utility.yul\":15184:15326   */\n    tag_202:\n        /* \"#utility.yul\":15234:15243   */\n      0x00\n        /* \"#utility.yul\":15267:15320   */\n      tag_367\n        /* \"#utility.yul\":15285:15319   */\n      tag_368\n        /* \"#utility.yul\":15294:15318   */\n      tag_369\n        /* \"#utility.yul\":15312:15317   */\n      dup5\n        /* \"#utility.yul\":15294:15318   */\n      tag_159\n      jump\t// in\n    tag_369:\n        /* \"#utility.yul\":15285:15319   */\n      tag_201\n      jump\t// in\n    tag_368:\n        /* \"#utility.yul\":15267:15320   */\n      tag_159\n      jump\t// in\n    tag_367:\n        /* \"#utility.yul\":15254:15320   */\n      swap1\n      pop\n        /* \"#utility.yul\":15184:15326   */\n      swap2\n      swap1\n      pop\n      jump\t// out\n        /* \"#utility.yul\":15332:15407   */\n    tag_203:\n        /* \"#utility.yul\":15375:15378   */\n      0x00\n        /* \"#utility.yul\":15396:15401   */\n      dup2\n        /* \"#utility.yul\":15389:15401   */\n      swap1\n      pop\n        /* \"#utility.yul\":15332:15407   */\n      swap2\n      swap1\n      pop\n      jump\t// out\n        /* \"#utility.yul\":15413:15682   */\n    tag_204:\n        /* \"#utility.yul\":15523:15562   */\n      tag_372\n        /* \"#utility.yul\":15554:15561   */\n      dup4\n        /* \"#utility.yul\":15523:15562   */\n      tag_202\n      jump\t// in\n    tag_372:\n        /* \"#utility.yul\":15584:15675   */\n      tag_373\n        /* \"#utility.yul\":15633:15674   */\n      tag_374\n        /* \"#utility.yul\":15657:15673   */\n      dup3\n        /* \"#utility.yul\":15633:15674   */\n      tag_203\n      jump\t// in\n    tag_374:\n        /* \"#utility.yul\":15625:15631   */\n      dup5\n        /* \"#utility.yul\":15618:15622   */\n      dup5\n        /* \"#utility.yul\":15612:15623   */\n      sload\n        /* \"#utility.yul\":15584:15675   */\n      tag_200\n      jump\t// in\n    tag_373:\n        /* \"#utility.yul\":15578:15582   */\n      dup3\n        /* \"#utility.yul\":15571:15676   */\n      sstore\n        /* \"#utility.yul\":15489:15682   */\n      pop\n        /* \"#utility.yul\":15413:15682   */\n      pop\n      pop\n      pop\n      jump\t// out\n        /* \"#utility.yul\":15688:15761   */\n    tag_205:\n        /* \"#utility.yul\":15733:15736   */\n      0x00\n        /* \"#utility.yul\":15688:15761   */\n      swap1\n      jump\t// out\n        /* \"#utility.yul\":15767:15956   */\n    tag_206:\n        /* \"#utility.yul\":15844:15876   */\n      tag_377\n      tag_205\n      jump\t// in\n    tag_377:\n        /* \"#utility.yul\":15885:15950   */\n      tag_378\n        /* \"#utility.yul\":15943:15949   */\n      dup2\n        /* \"#utility.yul\":15935:15941   */\n      dup5\n        /* \"#utility.yul\":15929:15933   */\n      dup5\n        /* \"#utility.yul\":15885:15950   */\n      tag_204\n      jump\t// in\n    tag_378:\n        /* \"#utility.yul\":15820:15956   */\n      pop\n        /* \"#utility.yul\":15767:15956   */\n      pop\n      pop\n      jump\t// out\n        /* \"#utility.yul\":15962:16148   */\n    tag_207:\n        /* \"#utility.yul\":16022:16142   */\n    tag_380:\n        /* \"#utility.yul\":16039:16042   */\n      dup2\n        /* \"#utility.yul\":16032:16037   */\n      dup2\n        /* \"#utility.yul\":16029:16043   */\n      lt\n        /* \"#utility.yul\":16022:16142   */\n      iszero\n      tag_382\n      jumpi\n        /* \"#utility.yul\":16093:16132   */\n      tag_383\n        /* \"#utility.yul\":16130:16131   */\n      0x00\n        /* \"#utility.yul\":16123:16128   */\n      dup3\n        /* \"#utility.yul\":16093:16132   */\n      tag_206\n      jump\t// in\n    tag_383:\n        /* \"#utility.yul\":16066:16067   */\n      0x01\n        /* \"#utility.yul\":16059:16064   */\n      dup2\n        /* \"#utility.yul\":16055:16068   */\n      add\n        /* \"#utility.yul\":16046:16068   */\n      swap1\n      pop\n        /* \"#utility.yul\":16022:16142   */\n      jump(tag_380)\n    tag_382:\n        /* \"#utility.yul\":15962:16148   */\n      pop\n      pop\n      jump\t// out\n        /* \"#utility.yul\":16154:16697   */\n    tag_208:\n        /* \"#utility.yul\":16255:16257   */\n      0x1f\n        /* \"#utility.yul\":16250:16253   */\n      dup3\n        /* \"#utility.yul\":16247:16258   */\n      gt\n        /* \"#utility.yul\":16244:16690   */\n      iszero\n      tag_385\n      jumpi\n        /* \"#utility.yul\":16289:16327   */\n      tag_386\n        /* \"#utility.yul\":16321:16326   */\n      dup2\n        /* \"#utility.yul\":16289:16327   */\n      tag_197\n      jump\t// in\n    tag_386:\n        /* \"#utility.yul\":16373:16402   */\n      tag_387\n        /* \"#utility.yul\":16391:16401   */\n      dup5\n        /* \"#utility.yul\":16373:16402   */\n      tag_198\n      jump\t// in\n    tag_387:\n        /* \"#utility.yul\":16363:16371   */\n      dup2\n        /* \"#utility.yul\":16359:16403   */\n      add\n        /* \"#utility.yul\":16556:16558   */\n      0x20\n        /* \"#utility.yul\":16544:16554   */\n      dup6\n        /* \"#utility.yul\":16541:16559   */\n      lt\n        /* \"#utility.yul\":16538:16587   */\n      iszero\n      tag_388\n      jumpi\n        /* \"#utility.yul\":16577:16585   */\n      dup2\n        /* \"#utility.yul\":16562:16585   */\n      swap1\n      pop\n        /* \"#utility.yul\":16538:16587   */\n    tag_388:\n        /* \"#utility.yul\":16600:16680   */\n      tag_389\n        /* \"#utility.yul\":16656:16678   */\n      tag_390\n        /* \"#utility.yul\":16674:16677   */\n      dup6\n        /* \"#utility.yul\":16656:16678   */\n      tag_198\n      jump\t// in\n    tag_390:\n        /* \"#utility.yul\":16646:16654   */\n      dup4\n        /* \"#utility.yul\":16642:16679   */\n      add\n        /* \"#utility.yul\":16629:16640   */\n      dup3\n        /* \"#utility.yul\":16600:16680   */\n      tag_207\n      jump\t// in\n    tag_389:\n        /* \"#utility.yul\":16259:16690   */\n      pop\n      pop\n        /* \"#utility.yul\":16244:16690   */\n    tag_385:\n        /* \"#utility.yul\":16154:16697   */\n      pop\n      pop\n      pop\n      jump\t// out\n        /* \"#utility.yul\":16703:16820   */\n    tag_209:\n        /* \"#utility.yul\":16757:16765   */\n      0x00\n        /* \"#utility.yul\":16807:16812   */\n      dup3\n        /* \"#utility.yul\":16801:16805   */\n      dup3\n        /* \"#utility.yul\":16797:16813   */\n      shr\n        /* \"#utility.yul\":16776:16813   */\n      swap1\n      pop\n        /* \"#utility.yul\":16703:16820   */\n      swap3\n      swap2\n      pop\n      pop\n      jump\t// out\n        /* \"#utility.yul\":16826:16995   */\n    tag_210:\n        /* \"#utility.yul\":16870:16876   */\n      0x00\n        /* \"#utility.yul\":16903:16954   */\n      tag_393\n        /* \"#utility.yul\":16951:16952   */\n      0x00\n        /* \"#utility.yul\":16947:16953   */\n      not\n        /* \"#utility.yul\":16939:16944   */\n      dup5\n        /* \"#utility.yul\":16936:16937   */\n      0x08\n        /* \"#utility.yul\":16932:16945   */\n      mul\n        /* \"#utility.yul\":16903:16954   */\n      tag_209\n      jump\t// in\n    tag_393:\n        /* \"#utility.yul\":16899:16955   */\n      not\n        /* \"#utility.yul\":16984:16988   */\n      dup1\n        /* \"#utility.yul\":16978:16982   */\n      dup4\n        /* \"#utility.yul\":16974:16989   */\n      and\n        /* \"#utility.yul\":16964:16989   */\n      swap2\n      pop\n        /* \"#utility.yul\":16877:16995   */\n      pop\n        /* \"#utility.yul\":16826:16995   */\n      swap3\n      swap2\n      pop\n      pop\n      jump\t// out\n        /* \"#utility.yul\":17000:17295   */\n    tag_211:\n        /* \"#utility.yul\":17076:17080   */\n      0x00\n        /* \"#utility.yul\":17222:17251   */\n      tag_395\n        /* \"#utility.yul\":17247:17250   */\n      dup4\n        /* \"#utility.yul\":17241:17245   */\n      dup4\n        /* \"#utility.yul\":17222:17251   */\n      tag_210\n      jump\t// in\n    tag_395:\n        /* \"#utility.yul\":17214:17251   */\n      swap2\n      pop\n        /* \"#utility.yul\":17284:17287   */\n      dup3\n        /* \"#utility.yul\":17281:17282   */\n      0x02\n        /* \"#utility.yul\":17277:17288   */\n      mul\n        /* \"#utility.yul\":17271:17275   */\n      dup3\n        /* \"#utility.yul\":17268:17289   */\n      or\n        /* \"#utility.yul\":17260:17289   */\n      swap1\n      pop\n        /* \"#utility.yul\":17000:17295   */\n      swap3\n      swap2\n      pop\n      pop\n      jump\t// out\n        /* \"#utility.yul\":17300:18695   */\n    tag_130:\n        /* \"#utility.yul\":17417:17454   */\n      tag_397\n        /* \"#utility.yul\":17450:17453   */\n      dup3\n        /* \"#utility.yul\":17417:17454   */\n      tag_168\n      jump\t// in\n    tag_397:\n        /* \"#utility.yul\":17519:17537   */\n      0xffffffffffffffff\n        /* \"#utility.yul\":17511:17517   */\n      dup2\n        /* \"#utility.yul\":17508:17538   */\n      gt\n        /* \"#utility.yul\":17505:17561   */\n      iszero\n      tag_398\n      jumpi\n        /* \"#utility.yul\":17541:17559   */\n      tag_399\n      tag_179\n      jump\t// in\n    tag_399:\n        /* \"#utility.yul\":17505:17561   */\n    tag_398:\n        /* \"#utility.yul\":17585:17623   */\n      tag_400\n        /* \"#utility.yul\":17617:17621   */\n      dup3\n        /* \"#utility.yul\":17611:17622   */\n      sload\n        /* \"#utility.yul\":17585:17623   */\n      tag_106\n      jump\t// in\n    tag_400:\n        /* \"#utility.yul\":17670:17737   */\n      tag_401\n        /* \"#utility.yul\":17730:17736   */\n      dup3\n        /* \"#utility.yul\":17722:17728   */\n      dup3\n        /* \"#utility.yul\":17716:17720   */\n      dup6\n        /* \"#utility.yul\":17670:17737   */\n      tag_208\n      jump\t// in\n    tag_401:\n        /* \"#utility.yul\":17764:17765   */\n      0x00\n        /* \"#utility.yul\":17788:17792   */\n      0x20\n        /* \"#utility.yul\":17775:17792   */\n      swap1\n      pop\n        /* \"#utility.yul\":17820:17822   */\n      0x1f\n        /* \"#utility.yul\":17812:17818   */\n      dup4\n        /* \"#utility.yul\":17809:17823   */\n      gt\n        /* \"#utility.yul\":17837:17838   */\n      0x01\n        /* \"#utility.yul\":17832:18450   */\n      dup2\n      eq\n      tag_403\n      jumpi\n        /* \"#utility.yul\":18494:18495   */\n      0x00\n        /* \"#utility.yul\":18511:18517   */\n      dup5\n        /* \"#utility.yul\":18508:18585   */\n      iszero\n      tag_404\n      jumpi\n        /* \"#utility.yul\":18560:18569   */\n      dup3\n        /* \"#utility.yul\":18555:18558   */\n      dup8\n        /* \"#utility.yul\":18551:18570   */\n      add\n        /* \"#utility.yul\":18545:18571   */\n      mload\n        /* \"#utility.yul\":18536:18571   */\n      swap1\n      pop\n        /* \"#utility.yul\":18508:18585   */\n    tag_404:\n        /* \"#utility.yul\":18611:18678   */\n      tag_405\n        /* \"#utility.yul\":18671:18677   */\n      dup6\n        /* \"#utility.yul\":18664:18669   */\n      dup3\n        /* \"#utility.yul\":18611:18678   */\n      tag_211\n      jump\t// in\n    tag_405:\n        /* \"#utility.yul\":18605:18609   */\n      dup7\n        /* \"#utility.yul\":18598:18679   */\n      sstore\n        /* \"#utility.yul\":18467:18689   */\n      pop\n        /* \"#utility.yul\":17802:18689   */\n      jump(tag_402)\n        /* \"#utility.yul\":17832:18450   */\n    tag_403:\n        /* \"#utility.yul\":17884:17888   */\n      0x1f\n        /* \"#utility.yul\":17880:17889   */\n      not\n        /* \"#utility.yul\":17872:17878   */\n      dup5\n        /* \"#utility.yul\":17868:17890   */\n      and\n        /* \"#utility.yul\":17918:17955   */\n      tag_406\n        /* \"#utility.yul\":17950:17954   */\n      dup7\n        /* \"#utility.yul\":17918:17955   */\n      tag_197\n      jump\t// in\n    tag_406:\n        /* \"#utility.yul\":17977:17978   */\n      0x00\n        /* \"#utility.yul\":17991:18199   */\n    tag_407:\n        /* \"#utility.yul\":18005:18012   */\n      dup3\n        /* \"#utility.yul\":18002:18003   */\n      dup2\n        /* \"#utility.yul\":17999:18013   */\n      lt\n        /* \"#utility.yul\":17991:18199   */\n      iszero\n      tag_409\n      jumpi\n        /* \"#utility.yul\":18084:18093   */\n      dup5\n        /* \"#utility.yul\":18079:18082   */\n      dup10\n        /* \"#utility.yul\":18075:18094   */\n      add\n        /* \"#utility.yul\":18069:18095   */\n      mload\n        /* \"#utility.yul\":18061:18067   */\n      dup3\n        /* \"#utility.yul\":18054:18096   */\n      sstore\n        /* \"#utility.yul\":18135:18136   */\n      0x01\n        /* \"#utility.yul\":18127:18133   */\n      dup3\n        /* \"#utility.yul\":18123:18137   */\n      add\n        /* \"#utility.yul\":18113:18137   */\n      swap2\n      pop\n        /* \"#utility.yul\":18182:18184   */\n      0x20\n        /* \"#utility.yul\":18171:18180   */\n      dup6\n        /* \"#utility.yul\":18167:18185   */\n      add\n        /* \"#utility.yul\":18154:18185   */\n      swap5\n      pop\n        /* \"#utility.yul\":18028:18032   */\n      0x20\n        /* \"#utility.yul\":18025:18026   */\n      dup2\n        /* \"#utility.yul\":18021:18033   */\n      add\n        /* \"#utility.yul\":18016:18033   */\n      swap1\n      pop\n        /* \"#utility.yul\":17991:18199   */\n      jump(tag_407)\n    tag_409:\n        /* \"#utility.yul\":18227:18233   */\n      dup7\n        /* \"#utility.yul\":18218:18225   */\n      dup4\n        /* \"#utility.yul\":18215:18234   */\n      lt\n        /* \"#utility.yul\":18212:18391   */\n      iszero\n      tag_410\n      jumpi\n        /* \"#utility.yul\":18285:18294   */\n      dup5\n        /* \"#utility.yul\":18280:18283   */\n      dup10\n        /* \"#utility.yul\":18276:18295   */\n      add\n        /* \"#utility.yul\":18270:18296   */\n      mload\n        /* \"#utility.yul\":18328:18376   */\n      tag_411\n        /* \"#utility.yul\":18370:18374   */\n      0x1f\n        /* \"#utility.yul\":18362:18368   */\n      dup10\n        /* \"#utility.yul\":18358:18375   */\n      and\n        /* \"#utility.yul\":18347:18356   */\n      dup3\n        /* \"#utility.yul\":18328:18376   */\n      tag_210\n      jump\t// in\n    tag_411:\n        /* \"#utility.yul\":18320:18326   */\n      dup4\n        /* \"#utility.yul\":18313:18377   */\n      sstore\n        /* \"#utility.yul\":18235:18391   */\n      pop\n        /* \"#utility.yul\":18212:18391   */\n    tag_410:\n        /* \"#utility.yul\":18437:18438   */\n      0x01\n        /* \"#utility.yul\":18433:18434   */\n      0x02\n        /* \"#utility.yul\":18425:18431   */\n      dup9\n        /* \"#utility.yul\":18421:18435   */\n      mul\n        /* \"#utility.yul\":18417:18439   */\n      add\n        /* \"#utility.yul\":18411:18415   */\n      dup9\n        /* \"#utility.yul\":18404:18440   */\n      sstore\n        /* \"#utility.yul\":17839:18450   */\n      pop\n      pop\n      pop\n        /* \"#utility.yul\":17802:18689   */\n    tag_402:\n      pop\n        /* \"#utility.yul\":17392:18695   */\n      pop\n      pop\n      pop\n        /* \"#utility.yul\":17300:18695   */\n      pop\n      pop\n      jump\t// out\n        /* \"#utility.yul\":18701:18923   */\n    tag_212:\n        /* \"#utility.yul\":18841:18875   */\n      0x4d696e696d756d20636f6e747269627574696f6e206973206e6f74206d617463\n        /* \"#utility.yul\":18837:18838   */\n      0x00\n        /* \"#utility.yul\":18829:18835   */\n      dup3\n        /* \"#utility.yul\":18825:18839   */\n      add\n        /* \"#utility.yul\":18818:18876   */\n      mstore\n        /* \"#utility.yul\":18910:18915   */\n      0x6865640000000000000000000000000000000000000000000000000000000000\n        /* \"#utility.yul\":18905:18907   */\n      0x20\n        /* \"#utility.yul\":18897:18903   */\n      dup3\n        /* \"#utility.yul\":18893:18908   */\n      add\n        /* \"#utility.yul\":18886:18916   */\n      mstore\n        /* \"#utility.yul\":18701:18923   */\n      pop\n      jump\t// out\n        /* \"#utility.yul\":18929:19295   */\n    tag_213:\n        /* \"#utility.yul\":19071:19074   */\n      0x00\n        /* \"#utility.yul\":19092:19159   */\n      tag_414\n        /* \"#utility.yul\":19156:19158   */\n      0x23\n        /* \"#utility.yul\":19151:19154   */\n      dup4\n        /* \"#utility.yul\":19092:19159   */\n      tag_169\n      jump\t// in\n    tag_414:\n        /* \"#utility.yul\":19085:19159   */\n      swap2\n      pop\n        /* \"#utility.yul\":19168:19261   */\n      tag_415\n        /* \"#utility.yul\":19257:19260   */\n      dup3\n        /* \"#utility.yul\":19168:19261   */\n      tag_212\n      jump\t// in\n    tag_415:\n        /* \"#utility.yul\":19286:19288   */\n      0x40\n        /* \"#utility.yul\":19281:19284   */\n      dup3\n        /* \"#utility.yul\":19277:19289   */\n      add\n        /* \"#utility.yul\":19270:19289   */\n      swap1\n      pop\n        /* \"#utility.yul\":18929:19295   */\n      swap2\n      swap1\n      pop\n      jump\t// out\n        /* \"#utility.yul\":19301:19720   */\n    tag_134:\n        /* \"#utility.yul\":19467:19471   */\n      0x00\n        /* \"#utility.yul\":19505:19507   */\n      0x20\n        /* \"#utility.yul\":19494:19503   */\n      dup3\n        /* \"#utility.yul\":19490:19508   */\n      add\n        /* \"#utility.yul\":19482:19508   */\n      swap1\n      pop\n        /* \"#utility.yul\":19554:19563   */\n      dup2\n        /* \"#utility.yul\":19548:19552   */\n      dup2\n        /* \"#utility.yul\":19544:19564   */\n      sub\n        /* \"#utility.yul\":19540:19541   */\n      0x00\n        /* \"#utility.yul\":19529:19538   */\n      dup4\n        /* \"#utility.yul\":19525:19542   */\n      add\n        /* \"#utility.yul\":19518:19565   */\n      mstore\n        /* \"#utility.yul\":19582:19713   */\n      tag_417\n        /* \"#utility.yul\":19708:19712   */\n      dup2\n        /* \"#utility.yul\":19582:19713   */\n      tag_213\n      jump\t// in\n    tag_417:\n        /* \"#utility.yul\":19574:19713   */\n      swap1\n      pop\n        /* \"#utility.yul\":19301:19720   */\n      swap2\n      swap1\n      pop\n      jump\t// out\n        /* \"#utility.yul\":19726:19959   */\n    tag_137:\n        /* \"#utility.yul\":19765:19768   */\n      0x00\n        /* \"#utility.yul\":19788:19812   */\n      tag_419\n        /* \"#utility.yul\":19806:19811   */\n      dup3\n        /* \"#utility.yul\":19788:19812   */\n      tag_159\n      jump\t// in\n    tag_419:\n        /* \"#utility.yul\":19779:19812   */\n      swap2\n      pop\n        /* \"#utility.yul\":19834:19900   */\n      0xffffffffffffffffffffffffffffffffffffffffffffffffffffffffffffffff\n        /* \"#utility.yul\":19827:19832   */\n      dup3\n        /* \"#utility.yul\":19824:19901   */\n      sub\n        /* \"#utility.yul\":19821:19924   */\n      tag_420\n      jumpi\n        /* \"#utility.yul\":19904:19922   */\n      tag_421\n      tag_191\n      jump\t// in\n    tag_421:\n        /* \"#utility.yul\":19821:19924   */\n    tag_420:\n        /* \"#utility.yul\":19951:19952   */\n      0x01\n        /* \"#utility.yul\":19944:19949   */\n      dup3\n        /* \"#utility.yul\":19940:19953   */\n      add\n        /* \"#utility.yul\":19933:19953   */\n      swap1\n      pop\n        /* \"#utility.yul\":19726:19959   */\n      swap2\n      swap1\n      pop\n      jump\t// out\n\n    auxdata: 0xa264697066735822122017181a13c2b1fece726ed9ef621a9635382448f77be8a1167a48184b359630cf64736f6c63430008130033\n}\n","bytecode":{"linkReferences":{},"object":"60806040523480156200001157600080fd5b5060405162001ef538038062001ef58339818101604052810190620000379190620002df565b826000806101000a81548173ffffffffffffffffffffffffffffffffffffffff021916908373ffffffffffffffffffffffffffffffffffffffff1602179055508360038190555081600190816200008f9190620005d0565b508060029081620000a19190620005d0565b5050505050620006b7565b6000604051905090565b600080fd5b600080fd5b6000819050919050565b620000d581620000c0565b8114620000e157600080fd5b50565b600081519050620000f581620000ca565b92915050565b600073ffffffffffffffffffffffffffffffffffffffff82169050919050565b60006200012882620000fb565b9050919050565b6200013a816200011b565b81146200014657600080fd5b50565b6000815190506200015a816200012f565b92915050565b600080fd5b600080fd5b6000601f19601f8301169050919050565b7f4e487b7100000000000000000000000000000000000000000000000000000000600052604160045260246000fd5b620001b5826200016a565b810181811067ffffffffffffffff82111715620001d757620001d66200017b565b5b80604052505050565b6000620001ec620000ac565b9050620001fa8282620001aa565b919050565b600067ffffffffffffffff8211156200021d576200021c6200017b565b5b62000228826200016a565b9050602081019050919050565b60005b838110156200025557808201518184015260208101905062000238565b60008484015250505050565b6000620002786200027284620001ff565b620001e0565b90508281526020810184848401111562000297576200029662000165565b5b620002a484828562000235565b509392505050565b600082601f830112620002c457620002c362000160565b5b8151620002d684826020860162000261565b91505092915050565b60008060008060808587031215620002fc57620002fb620000b6565b5b60006200030c87828801620000e4565b94505060206200031f8782880162000149565b935050604085015167ffffffffffffffff811115620003435762000342620000bb565b5b6200035187828801620002ac565b925050606085015167ffffffffffffffff811115620003755762000374620000bb565b5b6200038387828801620002ac565b91505092959194509250565b600081519050919050565b7f4e487b7100000000000000000000000000000000000000000000000000000000600052602260045260246000fd5b60006002820490506001821680620003e257607f821691505b602082108103620003f857620003f76200039a565b5b50919050565b60008190508160005260206000209050919050565b60006020601f8301049050919050565b600082821b905092915050565b600060088302620004627fffffffffffffffffffffffffffffffffffffffffffffffffffffffffffffffff8262000423565b6200046e868362000423565b95508019841693508086168417925050509392505050565b6000819050919050565b6000620004b1620004ab620004a584620000c0565b62000486565b620000c0565b9050919050565b6000819050919050565b620004cd8362000490565b620004e5620004dc82620004b8565b84845462000430565b825550505050565b600090565b620004fc620004ed565b62000509818484620004c2565b505050565b5b81811015620005315762000525600082620004f2565b6001810190506200050f565b5050565b601f82111562000580576200054a81620003fe565b620005558462000413565b8101602085101562000565578190505b6200057d620005748562000413565b8301826200050e565b50505b505050565b600082821c905092915050565b6000620005a56000198460080262000585565b1980831691505092915050565b6000620005c0838362000592565b9150826002028217905092915050565b620005db826200038f565b67ffffffffffffffff811115620005f757620005f66200017b565b5b620006038254620003c9565b6200061082828562000535565b600060209050601f83116001811462000648576000841562000633578287015190505b6200063f8582620005b2565b865550620006af565b601f1984166200065886620003fe565b60005b8281101562000682578489015182556001820191506020850194506020810190506200065b565b86831015620006a257848901516200069e601f89168262000592565b8355505b6001600288020188555050505b505050505050565b61182e80620006c76000396000f3fe6080604052600436106100dd5760003560e01c806382fde0931161007f578063937e09b111610059578063937e09b1146102c6578063d7bb99ba146102f1578063d7d1bbdb146102fb578063fbbf93a014610324576100dd565b806382fde09314610247578063835a6172146102725780638a9cfd551461029d576100dd565b806333f449e5116100bb57806333f449e5146101735780633410452a146101b0578063481c6a75146101db57806381d12c5814610206576100dd565b806303441006146100e25780630a1443911461010b578063110842cb14610148575b600080fd5b3480156100ee57600080fd5b5061010960048036038101906101049190610d42565b610355565b005b34801561011757600080fd5b50610132600480360381019061012d9190610dcd565b61053f565b60405161013f9190610e15565b60405180910390f35b34801561015457600080fd5b5061015d61055f565b60405161016a9190610ec0565b60405180910390f35b34801561017f57600080fd5b5061019a60048036038101906101959190610ee2565b6105ed565b6040516101a79190610e15565b60405180910390f35b3480156101bc57600080fd5b506101c561061c565b6040516101d29190610f31565b60405180910390f35b3480156101e757600080fd5b506101f0610629565b6040516101fd9190610f5b565b60405180910390f35b34801561021257600080fd5b5061022d60048036038101906102289190610d42565b61064d565b60405161023e959493929190610f97565b60405180910390f35b34801561025357600080fd5b5061025c610748565b6040516102699190610f31565b60405180910390f35b34801561027e57600080fd5b5061028761074e565b6040516102949190610ec0565b60405180910390f35b3480156102a957600080fd5b506102c460048036038101906102bf9190611152565b6107dc565b005b3480156102d257600080fd5b506102db610919565b6040516102e89190610f31565b60405180910390f35b6102f961091f565b005b34801561030757600080fd5b50610322600480360381019061031d9190610d42565b610a27565b005b34801561033057600080fd5b50610339610b8c565b60405161034c97969594939291906111c1565b60405180910390f35b60008054906101000a900473ffffffffffffffffffffffffffffffffffffffff1673ffffffffffffffffffffffffffffffffffffffff163373ffffffffffffffffffffffffffffffffffffffff16146103e3576040517f08c379a00000000000000000000000000000000000000000000000000000000081526004016103da9061128a565b60405180910390fd5b6000600782815481106103f9576103f86112aa565b5b9060005260206000209060040201905060026005546104189190611337565b81600301541161045d576040517f08c379a0000000000000000000000000000000000000000000000000000000008152600401610454906113b4565b60405180910390fd5b8060020160149054906101000a900460ff16156104af576040517f08c379a00000000000000000000000000000000000000000000000000000000081526004016104a690611420565b60405180910390fd5b8060020160009054906101000a900473ffffffffffffffffffffffffffffffffffffffff1673ffffffffffffffffffffffffffffffffffffffff166108fc82600101549081150290604051600060405180830381858888f1935050505015801561051d573d6000803e3d6000fd5b5060018160020160146101000a81548160ff0219169083151502179055505050565b60046020528060005260406000206000915054906101000a900460ff1681565b6002805461056c9061146f565b80601f01602080910402602001604051908101604052809291908181526020018280546105989061146f565b80156105e55780601f106105ba576101008083540402835291602001916105e5565b820191906000526020600020905b8154815290600101906020018083116105c857829003601f168201915b505050505081565b60066020528160005260406000206020528060005260406000206000915091509054906101000a900460ff1681565b6000600780549050905090565b60008054906101000a900473ffffffffffffffffffffffffffffffffffffffff1681565b6007818154811061065d57600080fd5b90600052602060002090600402016000915090508060000180546106809061146f565b80601f01602080910402602001604051908101604052809291908181526020018280546106ac9061146f565b80156106f95780601f106106ce576101008083540402835291602001916106f9565b820191906000526020600020905b8154815290600101906020018083116106dc57829003601f168201915b5050505050908060010154908060020160009054906101000a900473ffffffffffffffffffffffffffffffffffffffff16908060020160149054906101000a900460ff16908060030154905085565b60055481565b6001805461075b9061146f565b80601f01602080910402602001604051908101604052809291908181526020018280546107879061146f565b80156107d45780601f106107a9576101008083540402835291602001916107d4565b820191906000526020600020905b8154815290600101906020018083116107b757829003601f168201915b505050505081565b60008054906101000a900473ffffffffffffffffffffffffffffffffffffffff1673ffffffffffffffffffffffffffffffffffffffff163373ffffffffffffffffffffffffffffffffffffffff161461086a576040517f08c379a00000000000000000000000000000000000000000000000000000000081526004016108619061128a565b60405180910390fd5b6000600760018160018154018082558091505003906000526020600020906004020190508381600001908161089f919061164c565b50828160010181905550818160020160006101000a81548173ffffffffffffffffffffffffffffffffffffffff021916908373ffffffffffffffffffffffffffffffffffffffff16021790555060008160020160146101000a81548160ff0219169083151502179055506000816003018190555050505050565b60035481565b6003543411610963576040517f08c379a000000000000000000000000000000000000000000000000000000000815260040161095a90611790565b60405180910390fd5b600460003373ffffffffffffffffffffffffffffffffffffffff1673ffffffffffffffffffffffffffffffffffffffff16815260200190815260200160002060009054906101000a900460ff16610a25576001600460003373ffffffffffffffffffffffffffffffffffffffff1673ffffffffffffffffffffffffffffffffffffffff16815260200190815260200160002060006101000a81548160ff02191690831515021790555060056000815480929190610a1f906117b0565b91905055505b565b600460003373ffffffffffffffffffffffffffffffffffffffff1673ffffffffffffffffffffffffffffffffffffffff16815260200190815260200160002060009054906101000a900460ff16610a7d57600080fd5b6006600082815260200190815260200160002060003373ffffffffffffffffffffffffffffffffffffffff1673ffffffffffffffffffffffffffffffffffffffff16815260200190815260200160002060009054906101000a900460ff1615610ae557600080fd5b60016006600083815260200190815260200160002060003373ffffffffffffffffffffffffffffffffffffffff1673ffffffffffffffffffffffffffffffffffffffff16815260200190815260200160002060006101000a81548160ff02191690831515021790555060078181548110610b6257610b616112aa565b5b90600052602060002090600402016003016000815480929190610b84906117b0565b919050555050565b6060806000806000806000600160026003544760008054906101000a900473ffffffffffffffffffffffffffffffffffffffff16600780549050600554868054610bd59061146f565b80601f0160208091040260200160405190810160405280929190818152602001828054610c019061146f565b8015610c4e5780601f10610c2357610100808354040283529160200191610c4e565b820191906000526020600020905b815481529060010190602001808311610c3157829003601f168201915b50505050509650858054610c619061146f565b80601f0160208091040260200160405190810160405280929190818152602001828054610c8d9061146f565b8015610cda5780601f10610caf57610100808354040283529160200191610cda565b820191906000526020600020905b815481529060010190602001808311610cbd57829003601f168201915b50505050509550965096509650965096509650965090919293949596565b6000604051905090565b600080fd5b600080fd5b6000819050919050565b610d1f81610d0c565b8114610d2a57600080fd5b50565b600081359050610d3c81610d16565b92915050565b600060208284031215610d5857610d57610d02565b5b6000610d6684828501610d2d565b91505092915050565b600073ffffffffffffffffffffffffffffffffffffffff82169050919050565b6000610d9a82610d6f565b9050919050565b610daa81610d8f565b8114610db557600080fd5b50565b600081359050610dc781610da1565b92915050565b600060208284031215610de357610de2610d02565b5b6000610df184828501610db8565b91505092915050565b60008115159050919050565b610e0f81610dfa565b82525050565b6000602082019050610e2a6000830184610e06565b92915050565b600081519050919050565b600082825260208201905092915050565b60005b83811015610e6a578082015181840152602081019050610e4f565b60008484015250505050565b6000601f19601f8301169050919050565b6000610e9282610e30565b610e9c8185610e3b565b9350610eac818560208601610e4c565b610eb581610e76565b840191505092915050565b60006020820190508181036000830152610eda8184610e87565b905092915050565b60008060408385031215610ef957610ef8610d02565b5b6000610f0785828601610d2d565b9250506020610f1885828601610db8565b9150509250929050565b610f2b81610d0c565b82525050565b6000602082019050610f466000830184610f22565b92915050565b610f5581610d8f565b82525050565b6000602082019050610f706000830184610f4c565b92915050565b6000610f8182610d6f565b9050919050565b610f9181610f76565b82525050565b600060a0820190508181036000830152610fb18188610e87565b9050610fc06020830187610f22565b610fcd6040830186610f88565b610fda6060830185610e06565b610fe76080830184610f22565b9695505050505050565b600080fd5b600080fd5b7f4e487b7100000000000000000000000000000000000000000000000000000000600052604160045260246000fd5b61103382610e76565b810181811067ffffffffffffffff8211171561105257611051610ffb565b5b80604052505050565b6000611065610cf8565b9050611071828261102a565b919050565b600067ffffffffffffffff82111561109157611090610ffb565b5b61109a82610e76565b9050602081019050919050565b82818337600083830152505050565b60006110c96110c484611076565b61105b565b9050828152602081018484840111156110e5576110e4610ff6565b5b6110f08482856110a7565b509392505050565b600082601f83011261110d5761110c610ff1565b5b813561111d8482602086016110b6565b91505092915050565b61112f81610f76565b811461113a57600080fd5b50565b60008135905061114c81611126565b92915050565b60008060006060848603121561116b5761116a610d02565b5b600084013567ffffffffffffffff81111561118957611188610d07565b5b611195868287016110f8565b93505060206111a686828701610d2d565b92505060406111b78682870161113d565b9150509250925092565b600060e08201905081810360008301526111db818a610e87565b905081810360208301526111ef8189610e87565b90506111fe6040830188610f22565b61120b6060830187610f22565b6112186080830186610f4c565b61122560a0830185610f22565b61123260c0830184610f22565b98975050505050505050565b7f43616c6c6572206973206e6f7420746865206d616e6167657200000000000000600082015250565b6000611274601983610e3b565b915061127f8261123e565b602082019050919050565b600060208201905081810360008301526112a381611267565b9050919050565b7f4e487b7100000000000000000000000000000000000000000000000000000000600052603260045260246000fd5b7f4e487b7100000000000000000000000000000000000000000000000000000000600052601260045260246000fd5b7f4e487b7100000000000000000000000000000000000000000000000000000000600052601160045260246000fd5b600061134282610d0c565b915061134d83610d0c565b92508261135d5761135c6112d9565b5b828204905092915050565b7f4e6f7420656e6f75676820617070726f76616c73000000000000000000000000600082015250565b600061139e601483610e3b565b91506113a982611368565b602082019050919050565b600060208201905081810360008301526113cd81611391565b9050919050565b7f5265717565737420616c72656164792066696e616c697a656400000000000000600082015250565b600061140a601983610e3b565b9150611415826113d4565b602082019050919050565b60006020820190508181036000830152611439816113fd565b9050919050565b7f4e487b7100000000000000000000000000000000000000000000000000000000600052602260045260246000fd5b6000600282049050600182168061148757607f821691505b60208210810361149a57611499611440565b5b50919050565b60008190508160005260206000209050919050565b60006020601f8301049050919050565b600082821b905092915050565b6000600883026115027fffffffffffffffffffffffffffffffffffffffffffffffffffffffffffffffff826114c5565b61150c86836114c5565b95508019841693508086168417925050509392505050565b6000819050919050565b600061154961154461153f84610d0c565b611524565b610d0c565b9050919050565b6000819050919050565b6115638361152e565b61157761156f82611550565b8484546114d2565b825550505050565b600090565b61158c61157f565b61159781848461155a565b505050565b5b818110156115bb576115b0600082611584565b60018101905061159d565b5050565b601f821115611600576115d1816114a0565b6115da846114b5565b810160208510156115e9578190505b6115fd6115f5856114b5565b83018261159c565b50505b505050565b600082821c905092915050565b600061162360001984600802611605565b1980831691505092915050565b600061163c8383611612565b9150826002028217905092915050565b61165582610e30565b67ffffffffffffffff81111561166e5761166d610ffb565b5b611678825461146f565b6116838282856115bf565b600060209050601f8311600181146116b657600084156116a4578287015190505b6116ae8582611630565b865550611716565b601f1984166116c4866114a0565b60005b828110156116ec578489015182556001820191506020850194506020810190506116c7565b868310156117095784890151611705601f891682611612565b8355505b6001600288020188555050505b505050505050565b7f4d696e696d756d20636f6e747269627574696f6e206973206e6f74206d61746360008201527f6865640000000000000000000000000000000000000000000000000000000000602082015250565b600061177a602383610e3b565b91506117858261171e565b604082019050919050565b600060208201905081810360008301526117a98161176d565b9050919050565b60006117bb82610d0c565b91507fffffffffffffffffffffffffffffffffffffffffffffffffffffffffffffffff82036117ed576117ec611308565b5b60018201905091905056fea264697066735822122017181a13c2b1fece726ed9ef621a9635382448f77be8a1167a48184b359630cf64736f6c63430008130033","opcodes":"PUSH1 0x80 PUSH1 0x40 MSTORE CALLVALUE DUP1 ISZERO PUSH3 0x11 JUMPI PUSH1 0x0 DUP1 REVERT JUMPDEST POP PUSH1 0x40 MLOAD PUSH3 0x1EF5 CODESIZE SUB DUP1 PUSH3 0x1EF5 DUP4 CODECOPY DUP2 DUP2 ADD PUSH1 0x40 MSTORE DUP2 ADD SWAP1 PUSH3 0x37 SWAP2 SWAP1 PUSH3 0x2DF JUMP JUMPDEST DUP3 PUSH1 0x0 DUP1 PUSH2 0x100 EXP DUP2 SLOAD DUP2 PUSH20 0xFFFFFFFFFFFFFFFFFFFFFFFFFFFFFFFFFFFFFFFF MUL NOT AND SWAP1 DUP4 PUSH20 0xFFFFFFFFFFFFFFFFFFFFFFFFFFFFFFFFFFFFFFFF AND MUL OR SWAP1 SSTORE POP DUP4 PUSH1 0x3 DUP2 SWAP1 SSTORE POP DUP2 PUSH1 0x1 SWAP1 DUP2 PUSH3 0x8F SWAP2 SWAP1 PUSH3 0x5D0 JUMP JUMPDEST POP DUP1 PUSH1 0x2 SWAP1 DUP2 PUSH3 0xA1 SWAP2 SWAP1 PUSH3 0x5D0 JUMP JUMPDEST POP POP POP POP POP PUSH3 0x6B7 JUMP JUMPDEST PUSH1 0x0 PUSH1 0x40 MLOAD SWAP1 POP SWAP1 JUMP JUMPDEST PUSH1 0x0 DUP1 REVERT JUMPDEST PUSH1 0x0 DUP1 REVERT JUMPDEST PUSH1 0x0 DUP2 SWAP1 POP SWAP2 SWAP1 POP JUMP JUMPDEST PUSH3 0xD5 DUP2 PUSH3 0xC0 JUMP JUMPDEST DUP2 EQ PUSH3 0xE1 JUMPI PUSH1 0x0 DUP1 REVERT JUMPDEST POP JUMP JUMPDEST PUSH1 0x0 DUP2 MLOAD SWAP1 POP PUSH3 0xF5 DUP2 PUSH3 0xCA JUMP JUMPDEST SWAP3 SWAP2 POP POP JUMP JUMPDEST PUSH1 0x0 PUSH20 0xFFFFFFFFFFFFFFFFFFFFFFFFFFFFFFFFFFFFFFFF DUP3 AND SWAP1 POP SWAP2 SWAP1 POP JUMP JUMPDEST PUSH1 0x0 PUSH3 0x128 DUP3 PUSH3 0xFB JUMP JUMPDEST SWAP1 POP SWAP2 SWAP1 POP JUMP JUMPDEST PUSH3 0x13A DUP2 PUSH3 0x11B JUMP JUMPDEST DUP2 EQ PUSH3 0x146 JUMPI PUSH1 0x0 DUP1 REVERT JUMPDEST POP JUMP JUMPDEST PUSH1 0x0 DUP2 MLOAD SWAP1 POP PUSH3 0x15A DUP2 PUSH3 0x12F JUMP JUMPDEST SWAP3 SWAP2 POP POP JUMP JUMPDEST PUSH1 0x0 DUP1 REVERT JUMPDEST PUSH1 0x0 DUP1 REVERT JUMPDEST PUSH1 0x0 PUSH1 0x1F NOT PUSH1 0x1F DUP4 ADD AND SWAP1 POP SWAP2 SWAP1 POP JUMP JUMPDEST PUSH32 0x4E487B7100000000000000000000000000000000000000000000000000000000 PUSH1 0x0 MSTORE PUSH1 0x41 PUSH1 0x4 MSTORE PUSH1 0x24 PUSH1 0x0 REVERT JUMPDEST PUSH3 0x1B5 DUP3 PUSH3 0x16A JUMP JUMPDEST DUP2 ADD DUP2 DUP2 LT PUSH8 0xFFFFFFFFFFFFFFFF DUP3 GT OR ISZERO PUSH3 0x1D7 JUMPI PUSH3 0x1D6 PUSH3 0x17B JUMP JUMPDEST JUMPDEST DUP1 PUSH1 0x40 MSTORE POP POP POP JUMP JUMPDEST PUSH1 0x0 PUSH3 0x1EC PUSH3 0xAC JUMP JUMPDEST SWAP1 POP PUSH3 0x1FA DUP3 DUP3 PUSH3 0x1AA JUMP JUMPDEST SWAP2 SWAP1 POP JUMP JUMPDEST PUSH1 0x0 PUSH8 0xFFFFFFFFFFFFFFFF DUP3 GT ISZERO PUSH3 0x21D JUMPI PUSH3 0x21C PUSH3 0x17B JUMP JUMPDEST JUMPDEST PUSH3 0x228 DUP3 PUSH3 0x16A JUMP JUMPDEST SWAP1 POP PUSH1 0x20 DUP2 ADD SWAP1 POP SWAP2 SWAP1 POP JUMP JUMPDEST PUSH1 0x0 JUMPDEST DUP4 DUP2 LT ISZERO PUSH3 0x255 JUMPI DUP1 DUP3 ADD MLOAD DUP2 DUP5 ADD MSTORE PUSH1 0x20 DUP2 ADD SWAP1 POP PUSH3 0x238 JUMP JUMPDEST PUSH1 0x0 DUP5 DUP5 ADD MSTORE POP POP POP POP JUMP JUMPDEST PUSH1 0x0 PUSH3 0x278 PUSH3 0x272 DUP5 PUSH3 0x1FF JUMP JUMPDEST PUSH3 0x1E0 JUMP JUMPDEST SWAP1 POP DUP3 DUP2 MSTORE PUSH1 0x20 DUP2 ADD DUP5 DUP5 DUP5 ADD GT ISZERO PUSH3 0x297 JUMPI PUSH3 0x296 PUSH3 0x165 JUMP JUMPDEST JUMPDEST PUSH3 0x2A4 DUP5 DUP3 DUP6 PUSH3 0x235 JUMP JUMPDEST POP SWAP4 SWAP3 POP POP POP JUMP JUMPDEST PUSH1 0x0 DUP3 PUSH1 0x1F DUP4 ADD SLT PUSH3 0x2C4 JUMPI PUSH3 0x2C3 PUSH3 0x160 JUMP JUMPDEST JUMPDEST DUP2 MLOAD PUSH3 0x2D6 DUP5 DUP3 PUSH1 0x20 DUP7 ADD PUSH3 0x261 JUMP JUMPDEST SWAP2 POP POP SWAP3 SWAP2 POP POP JUMP JUMPDEST PUSH1 0x0 DUP1 PUSH1 0x0 DUP1 PUSH1 0x80 DUP6 DUP8 SUB SLT ISZERO PUSH3 0x2FC JUMPI PUSH3 0x2FB PUSH3 0xB6 JUMP JUMPDEST JUMPDEST PUSH1 0x0 PUSH3 0x30C DUP8 DUP3 DUP9 ADD PUSH3 0xE4 JUMP JUMPDEST SWAP5 POP POP PUSH1 0x20 PUSH3 0x31F DUP8 DUP3 DUP9 ADD PUSH3 0x149 JUMP JUMPDEST SWAP4 POP POP PUSH1 0x40 DUP6 ADD MLOAD PUSH8 0xFFFFFFFFFFFFFFFF DUP2 GT ISZERO PUSH3 0x343 JUMPI PUSH3 0x342 PUSH3 0xBB JUMP JUMPDEST JUMPDEST PUSH3 0x351 DUP8 DUP3 DUP9 ADD PUSH3 0x2AC JUMP JUMPDEST SWAP3 POP POP PUSH1 0x60 DUP6 ADD MLOAD PUSH8 0xFFFFFFFFFFFFFFFF DUP2 GT ISZERO PUSH3 0x375 JUMPI PUSH3 0x374 PUSH3 0xBB JUMP JUMPDEST JUMPDEST PUSH3 0x383 DUP8 DUP3 DUP9 ADD PUSH3 0x2AC JUMP JUMPDEST SWAP2 POP POP SWAP3 SWAP6 SWAP2 SWAP5 POP SWAP3 POP JUMP JUMPDEST PUSH1 0x0 DUP2 MLOAD SWAP1 POP SWAP2 SWAP1 POP JUMP JUMPDEST PUSH32 0x4E487B7100000000000000000000000000000000000000000000000000000000 PUSH1 0x0 MSTORE PUSH1 0x22 PUSH1 0x4 MSTORE PUSH1 0x24 PUSH1 0x0 REVERT JUMPDEST PUSH1 0x0 PUSH1 0x2 DUP3 DIV SWAP1 POP PUSH1 0x1 DUP3 AND DUP1 PUSH3 0x3E2 JUMPI PUSH1 0x7F DUP3 AND SWAP2 POP JUMPDEST PUSH1 0x20 DUP3 LT DUP2 SUB PUSH3 0x3F8 JUMPI PUSH3 0x3F7 PUSH3 0x39A JUMP JUMPDEST JUMPDEST POP SWAP2 SWAP1 POP JUMP JUMPDEST PUSH1 0x0 DUP2 SWAP1 POP DUP2 PUSH1 0x0 MSTORE PUSH1 0x20 PUSH1 0x0 KECCAK256 SWAP1 POP SWAP2 SWAP1 POP JUMP JUMPDEST PUSH1 0x0 PUSH1 0x20 PUSH1 0x1F DUP4 ADD DIV SWAP1 POP SWAP2 SWAP1 POP JUMP JUMPDEST PUSH1 0x0 DUP3 DUP3 SHL SWAP1 POP SWAP3 SWAP2 POP POP JUMP JUMPDEST PUSH1 0x0 PUSH1 0x8 DUP4 MUL PUSH3 0x462 PUSH32 0xFFFFFFFFFFFFFFFFFFFFFFFFFFFFFFFFFFFFFFFFFFFFFFFFFFFFFFFFFFFFFFFF DUP3 PUSH3 0x423 JUMP JUMPDEST PUSH3 0x46E DUP7 DUP4 PUSH3 0x423 JUMP JUMPDEST SWAP6 POP DUP1 NOT DUP5 AND SWAP4 POP DUP1 DUP7 AND DUP5 OR SWAP3 POP POP POP SWAP4 SWAP3 POP POP POP JUMP JUMPDEST PUSH1 0x0 DUP2 SWAP1 POP SWAP2 SWAP1 POP JUMP JUMPDEST PUSH1 0x0 PUSH3 0x4B1 PUSH3 0x4AB PUSH3 0x4A5 DUP5 PUSH3 0xC0 JUMP JUMPDEST PUSH3 0x486 JUMP JUMPDEST PUSH3 0xC0 JUMP JUMPDEST SWAP1 POP SWAP2 SWAP1 POP JUMP JUMPDEST PUSH1 0x0 DUP2 SWAP1 POP SWAP2 SWAP1 POP JUMP JUMPDEST PUSH3 0x4CD DUP4 PUSH3 0x490 JUMP JUMPDEST PUSH3 0x4E5 PUSH3 0x4DC DUP3 PUSH3 0x4B8 JUMP JUMPDEST DUP5 DUP5 SLOAD PUSH3 0x430 JUMP JUMPDEST DUP3 SSTORE POP POP POP POP JUMP JUMPDEST PUSH1 0x0 SWAP1 JUMP JUMPDEST PUSH3 0x4FC PUSH3 0x4ED JUMP JUMPDEST PUSH3 0x509 DUP2 DUP5 DUP5 PUSH3 0x4C2 JUMP JUMPDEST POP POP POP JUMP JUMPDEST JUMPDEST DUP2 DUP2 LT ISZERO PUSH3 0x531 JUMPI PUSH3 0x525 PUSH1 0x0 DUP3 PUSH3 0x4F2 JUMP JUMPDEST PUSH1 0x1 DUP2 ADD SWAP1 POP PUSH3 0x50F JUMP JUMPDEST POP POP JUMP JUMPDEST PUSH1 0x1F DUP3 GT ISZERO PUSH3 0x580 JUMPI PUSH3 0x54A DUP2 PUSH3 0x3FE JUMP JUMPDEST PUSH3 0x555 DUP5 PUSH3 0x413 JUMP JUMPDEST DUP2 ADD PUSH1 0x20 DUP6 LT ISZERO PUSH3 0x565 JUMPI DUP2 SWAP1 POP JUMPDEST PUSH3 0x57D PUSH3 0x574 DUP6 PUSH3 0x413 JUMP JUMPDEST DUP4 ADD DUP3 PUSH3 0x50E JUMP JUMPDEST POP POP JUMPDEST POP POP POP JUMP JUMPDEST PUSH1 0x0 DUP3 DUP3 SHR SWAP1 POP SWAP3 SWAP2 POP POP JUMP JUMPDEST PUSH1 0x0 PUSH3 0x5A5 PUSH1 0x0 NOT DUP5 PUSH1 0x8 MUL PUSH3 0x585 JUMP JUMPDEST NOT DUP1 DUP4 AND SWAP2 POP POP SWAP3 SWAP2 POP POP JUMP JUMPDEST PUSH1 0x0 PUSH3 0x5C0 DUP4 DUP4 PUSH3 0x592 JUMP JUMPDEST SWAP2 POP DUP3 PUSH1 0x2 MUL DUP3 OR SWAP1 POP SWAP3 SWAP2 POP POP JUMP JUMPDEST PUSH3 0x5DB DUP3 PUSH3 0x38F JUMP JUMPDEST PUSH8 0xFFFFFFFFFFFFFFFF DUP2 GT ISZERO PUSH3 0x5F7 JUMPI PUSH3 0x5F6 PUSH3 0x17B JUMP JUMPDEST JUMPDEST PUSH3 0x603 DUP3 SLOAD PUSH3 0x3C9 JUMP JUMPDEST PUSH3 0x610 DUP3 DUP3 DUP6 PUSH3 0x535 JUMP JUMPDEST PUSH1 0x0 PUSH1 0x20 SWAP1 POP PUSH1 0x1F DUP4 GT PUSH1 0x1 DUP2 EQ PUSH3 0x648 JUMPI PUSH1 0x0 DUP5 ISZERO PUSH3 0x633 JUMPI DUP3 DUP8 ADD MLOAD SWAP1 POP JUMPDEST PUSH3 0x63F DUP6 DUP3 PUSH3 0x5B2 JUMP JUMPDEST DUP7 SSTORE POP PUSH3 0x6AF JUMP JUMPDEST PUSH1 0x1F NOT DUP5 AND PUSH3 0x658 DUP7 PUSH3 0x3FE JUMP JUMPDEST PUSH1 0x0 JUMPDEST DUP3 DUP2 LT ISZERO PUSH3 0x682 JUMPI DUP5 DUP10 ADD MLOAD DUP3 SSTORE PUSH1 0x1 DUP3 ADD SWAP2 POP PUSH1 0x20 DUP6 ADD SWAP5 POP PUSH1 0x20 DUP2 ADD SWAP1 POP PUSH3 0x65B JUMP JUMPDEST DUP7 DUP4 LT ISZERO PUSH3 0x6A2 JUMPI DUP5 DUP10 ADD MLOAD PUSH3 0x69E PUSH1 0x1F DUP10 AND DUP3 PUSH3 0x592 JUMP JUMPDEST DUP4 SSTORE POP JUMPDEST PUSH1 0x1 PUSH1 0x2 DUP9 MUL ADD DUP9 SSTORE POP POP POP JUMPDEST POP POP POP POP POP POP JUMP JUMPDEST PUSH2 0x182E DUP1 PUSH3 0x6C7 PUSH1 0x0 CODECOPY PUSH1 0x0 RETURN INVALID PUSH1 0x80 PUSH1 0x40 MSTORE PUSH1 0x4 CALLDATASIZE LT PUSH2 0xDD JUMPI PUSH1 0x0 CALLDATALOAD PUSH1 0xE0 SHR DUP1 PUSH4 0x82FDE093 GT PUSH2 0x7F JUMPI DUP1 PUSH4 0x937E09B1 GT PUSH2 0x59 JUMPI DUP1 PUSH4 0x937E09B1 EQ PUSH2 0x2C6 JUMPI DUP1 PUSH4 0xD7BB99BA EQ PUSH2 0x2F1 JUMPI DUP1 PUSH4 0xD7D1BBDB EQ PUSH2 0x2FB JUMPI DUP1 PUSH4 0xFBBF93A0 EQ PUSH2 0x324 JUMPI PUSH2 0xDD JUMP JUMPDEST DUP1 PUSH4 0x82FDE093 EQ PUSH2 0x247 JUMPI DUP1 PUSH4 0x835A6172 EQ PUSH2 0x272 JUMPI DUP1 PUSH4 0x8A9CFD55 EQ PUSH2 0x29D JUMPI PUSH2 0xDD JUMP JUMPDEST DUP1 PUSH4 0x33F449E5 GT PUSH2 0xBB JUMPI DUP1 PUSH4 0x33F449E5 EQ PUSH2 0x173 JUMPI DUP1 PUSH4 0x3410452A EQ PUSH2 0x1B0 JUMPI DUP1 PUSH4 0x481C6A75 EQ PUSH2 0x1DB JUMPI DUP1 PUSH4 0x81D12C58 EQ PUSH2 0x206 JUMPI PUSH2 0xDD JUMP JUMPDEST DUP1 PUSH4 0x3441006 EQ PUSH2 0xE2 JUMPI DUP1 PUSH4 0xA144391 EQ PUSH2 0x10B JUMPI DUP1 PUSH4 0x110842CB EQ PUSH2 0x148 JUMPI JUMPDEST PUSH1 0x0 DUP1 REVERT JUMPDEST CALLVALUE DUP1 ISZERO PUSH2 0xEE JUMPI PUSH1 0x0 DUP1 REVERT JUMPDEST POP PUSH2 0x109 PUSH1 0x4 DUP1 CALLDATASIZE SUB DUP2 ADD SWAP1 PUSH2 0x104 SWAP2 SWAP1 PUSH2 0xD42 JUMP JUMPDEST PUSH2 0x355 JUMP JUMPDEST STOP JUMPDEST CALLVALUE DUP1 ISZERO PUSH2 0x117 JUMPI PUSH1 0x0 DUP1 REVERT JUMPDEST POP PUSH2 0x132 PUSH1 0x4 DUP1 CALLDATASIZE SUB DUP2 ADD SWAP1 PUSH2 0x12D SWAP2 SWAP1 PUSH2 0xDCD JUMP JUMPDEST PUSH2 0x53F JUMP JUMPDEST PUSH1 0x40 MLOAD PUSH2 0x13F SWAP2 SWAP1 PUSH2 0xE15 JUMP JUMPDEST PUSH1 0x40 MLOAD DUP1 SWAP2 SUB SWAP1 RETURN JUMPDEST CALLVALUE DUP1 ISZERO PUSH2 0x154 JUMPI PUSH1 0x0 DUP1 REVERT JUMPDEST POP PUSH2 0x15D PUSH2 0x55F JUMP JUMPDEST PUSH1 0x40 MLOAD PUSH2 0x16A SWAP2 SWAP1 PUSH2 0xEC0 JUMP JUMPDEST PUSH1 0x40 MLOAD DUP1 SWAP2 SUB SWAP1 RETURN JUMPDEST CALLVALUE DUP1 ISZERO PUSH2 0x17F JUMPI PUSH1 0x0 DUP1 REVERT JUMPDEST POP PUSH2 0x19A PUSH1 0x4 DUP1 CALLDATASIZE SUB DUP2 ADD SWAP1 PUSH2 0x195 SWAP2 SWAP1 PUSH2 0xEE2 JUMP JUMPDEST PUSH2 0x5ED JUMP JUMPDEST PUSH1 0x40 MLOAD PUSH2 0x1A7 SWAP2 SWAP1 PUSH2 0xE15 JUMP JUMPDEST PUSH1 0x40 MLOAD DUP1 SWAP2 SUB SWAP1 RETURN JUMPDEST CALLVALUE DUP1 ISZERO PUSH2 0x1BC JUMPI PUSH1 0x0 DUP1 REVERT JUMPDEST POP PUSH2 0x1C5 PUSH2 0x61C JUMP JUMPDEST PUSH1 0x40 MLOAD PUSH2 0x1D2 SWAP2 SWAP1 PUSH2 0xF31 JUMP JUMPDEST PUSH1 0x40 MLOAD DUP1 SWAP2 SUB SWAP1 RETURN JUMPDEST CALLVALUE DUP1 ISZERO PUSH2 0x1E7 JUMPI PUSH1 0x0 DUP1 REVERT JUMPDEST POP PUSH2 0x1F0 PUSH2 0x629 JUMP JUMPDEST PUSH1 0x40 MLOAD PUSH2 0x1FD SWAP2 SWAP1 PUSH2 0xF5B JUMP JUMPDEST PUSH1 0x40 MLOAD DUP1 SWAP2 SUB SWAP1 RETURN JUMPDEST CALLVALUE DUP1 ISZERO PUSH2 0x212 JUMPI PUSH1 0x0 DUP1 REVERT JUMPDEST POP PUSH2 0x22D PUSH1 0x4 DUP1 CALLDATASIZE SUB DUP2 ADD SWAP1 PUSH2 0x228 SWAP2 SWAP1 PUSH2 0xD42 JUMP JUMPDEST PUSH2 0x64D JUMP JUMPDEST PUSH1 0x40 MLOAD PUSH2 0x23E SWAP6 SWAP5 SWAP4 SWAP3 SWAP2 SWAP1 PUSH2 0xF97 JUMP JUMPDEST PUSH1 0x40 MLOAD DUP1 SWAP2 SUB SWAP1 RETURN JUMPDEST CALLVALUE DUP1 ISZERO PUSH2 0x253 JUMPI PUSH1 0x0 DUP1 REVERT JUMPDEST POP PUSH2 0x25C PUSH2 0x748 JUMP JUMPDEST PUSH1 0x40 MLOAD PUSH2 0x269 SWAP2 SWAP1 PUSH2 0xF31 JUMP JUMPDEST PUSH1 0x40 MLOAD DUP1 SWAP2 SUB SWAP1 RETURN JUMPDEST CALLVALUE DUP1 ISZERO PUSH2 0x27E JUMPI PUSH1 0x0 DUP1 REVERT JUMPDEST POP PUSH2 0x287 PUSH2 0x74E JUMP JUMPDEST PUSH1 0x40 MLOAD PUSH2 0x294 SWAP2 SWAP1 PUSH2 0xEC0 JUMP JUMPDEST PUSH1 0x40 MLOAD DUP1 SWAP2 SUB SWAP1 RETURN JUMPDEST CALLVALUE DUP1 ISZERO PUSH2 0x2A9 JUMPI PUSH1 0x0 DUP1 REVERT JUMPDEST POP PUSH2 0x2C4 PUSH1 0x4 DUP1 CALLDATASIZE SUB DUP2 ADD SWAP1 PUSH2 0x2BF SWAP2 SWAP1 PUSH2 0x1152 JUMP JUMPDEST PUSH2 0x7DC JUMP JUMPDEST STOP JUMPDEST CALLVALUE DUP1 ISZERO PUSH2 0x2D2 JUMPI PUSH1 0x0 DUP1 REVERT JUMPDEST POP PUSH2 0x2DB PUSH2 0x919 JUMP JUMPDEST PUSH1 0x40 MLOAD PUSH2 0x2E8 SWAP2 SWAP1 PUSH2 0xF31 JUMP JUMPDEST PUSH1 0x40 MLOAD DUP1 SWAP2 SUB SWAP1 RETURN JUMPDEST PUSH2 0x2F9 PUSH2 0x91F JUMP JUMPDEST STOP JUMPDEST CALLVALUE DUP1 ISZERO PUSH2 0x307 JUMPI PUSH1 0x0 DUP1 REVERT JUMPDEST POP PUSH2 0x322 PUSH1 0x4 DUP1 CALLDATASIZE SUB DUP2 ADD SWAP1 PUSH2 0x31D SWAP2 SWAP1 PUSH2 0xD42 JUMP JUMPDEST PUSH2 0xA27 JUMP JUMPDEST STOP JUMPDEST CALLVALUE DUP1 ISZERO PUSH2 0x330 JUMPI PUSH1 0x0 DUP1 REVERT JUMPDEST POP PUSH2 0x339 PUSH2 0xB8C JUMP JUMPDEST PUSH1 0x40 MLOAD PUSH2 0x34C SWAP8 SWAP7 SWAP6 SWAP5 SWAP4 SWAP3 SWAP2 SWAP1 PUSH2 0x11C1 JUMP JUMPDEST PUSH1 0x40 MLOAD DUP1 SWAP2 SUB SWAP1 RETURN JUMPDEST PUSH1 0x0 DUP1 SLOAD SWAP1 PUSH2 0x100 EXP SWAP1 DIV PUSH20 0xFFFFFFFFFFFFFFFFFFFFFFFFFFFFFFFFFFFFFFFF AND PUSH20 0xFFFFFFFFFFFFFFFFFFFFFFFFFFFFFFFFFFFFFFFF AND CALLER PUSH20 0xFFFFFFFFFFFFFFFFFFFFFFFFFFFFFFFFFFFFFFFF AND EQ PUSH2 0x3E3 JUMPI PUSH1 0x40 MLOAD PUSH32 0x8C379A000000000000000000000000000000000000000000000000000000000 DUP2 MSTORE PUSH1 0x4 ADD PUSH2 0x3DA SWAP1 PUSH2 0x128A JUMP JUMPDEST PUSH1 0x40 MLOAD DUP1 SWAP2 SUB SWAP1 REVERT JUMPDEST PUSH1 0x0 PUSH1 0x7 DUP3 DUP2 SLOAD DUP2 LT PUSH2 0x3F9 JUMPI PUSH2 0x3F8 PUSH2 0x12AA JUMP JUMPDEST JUMPDEST SWAP1 PUSH1 0x0 MSTORE PUSH1 0x20 PUSH1 0x0 KECCAK256 SWAP1 PUSH1 0x4 MUL ADD SWAP1 POP PUSH1 0x2 PUSH1 0x5 SLOAD PUSH2 0x418 SWAP2 SWAP1 PUSH2 0x1337 JUMP JUMPDEST DUP2 PUSH1 0x3 ADD SLOAD GT PUSH2 0x45D JUMPI PUSH1 0x40 MLOAD PUSH32 0x8C379A000000000000000000000000000000000000000000000000000000000 DUP2 MSTORE PUSH1 0x4 ADD PUSH2 0x454 SWAP1 PUSH2 0x13B4 JUMP JUMPDEST PUSH1 0x40 MLOAD DUP1 SWAP2 SUB SWAP1 REVERT JUMPDEST DUP1 PUSH1 0x2 ADD PUSH1 0x14 SWAP1 SLOAD SWAP1 PUSH2 0x100 EXP SWAP1 DIV PUSH1 0xFF AND ISZERO PUSH2 0x4AF JUMPI PUSH1 0x40 MLOAD PUSH32 0x8C379A000000000000000000000000000000000000000000000000000000000 DUP2 MSTORE PUSH1 0x4 ADD PUSH2 0x4A6 SWAP1 PUSH2 0x1420 JUMP JUMPDEST PUSH1 0x40 MLOAD DUP1 SWAP2 SUB SWAP1 REVERT JUMPDEST DUP1 PUSH1 0x2 ADD PUSH1 0x0 SWAP1 SLOAD SWAP1 PUSH2 0x100 EXP SWAP1 DIV PUSH20 0xFFFFFFFFFFFFFFFFFFFFFFFFFFFFFFFFFFFFFFFF AND PUSH20 0xFFFFFFFFFFFFFFFFFFFFFFFFFFFFFFFFFFFFFFFF AND PUSH2 0x8FC DUP3 PUSH1 0x1 ADD SLOAD SWAP1 DUP2 ISZERO MUL SWAP1 PUSH1 0x40 MLOAD PUSH1 0x0 PUSH1 0x40 MLOAD DUP1 DUP4 SUB DUP2 DUP6 DUP9 DUP9 CALL SWAP4 POP POP POP POP ISZERO DUP1 ISZERO PUSH2 0x51D JUMPI RETURNDATASIZE PUSH1 0x0 DUP1 RETURNDATACOPY RETURNDATASIZE PUSH1 0x0 REVERT JUMPDEST POP PUSH1 0x1 DUP2 PUSH1 0x2 ADD PUSH1 0x14 PUSH2 0x100 EXP DUP2 SLOAD DUP2 PUSH1 0xFF MUL NOT AND SWAP1 DUP4 ISZERO ISZERO MUL OR SWAP1 SSTORE POP POP POP JUMP JUMPDEST PUSH1 0x4 PUSH1 0x20 MSTORE DUP1 PUSH1 0x0 MSTORE PUSH1 0x40 PUSH1 0x0 KECCAK256 PUSH1 0x0 SWAP2 POP SLOAD SWAP1 PUSH2 0x100 EXP SWAP1 DIV PUSH1 0xFF AND DUP2 JUMP JUMPDEST PUSH1 0x2 DUP1 SLOAD PUSH2 0x56C SWAP1 PUSH2 0x146F JUMP JUMPDEST DUP1 PUSH1 0x1F ADD PUSH1 0x20 DUP1 SWAP2 DIV MUL PUSH1 0x20 ADD PUSH1 0x40 MLOAD SWAP1 DUP2 ADD PUSH1 0x40 MSTORE DUP1 SWAP3 SWAP2 SWAP1 DUP2 DUP2 MSTORE PUSH1 0x20 ADD DUP3 DUP1 SLOAD PUSH2 0x598 SWAP1 PUSH2 0x146F JUMP JUMPDEST DUP1 ISZERO PUSH2 0x5E5 JUMPI DUP1 PUSH1 0x1F LT PUSH2 0x5BA JUMPI PUSH2 0x100 DUP1 DUP4 SLOAD DIV MUL DUP4 MSTORE SWAP2 PUSH1 0x20 ADD SWAP2 PUSH2 0x5E5 JUMP JUMPDEST DUP3 ADD SWAP2 SWAP1 PUSH1 0x0 MSTORE PUSH1 0x20 PUSH1 0x0 KECCAK256 SWAP1 JUMPDEST DUP2 SLOAD DUP2 MSTORE SWAP1 PUSH1 0x1 ADD SWAP1 PUSH1 0x20 ADD DUP1 DUP4 GT PUSH2 0x5C8 JUMPI DUP3 SWAP1 SUB PUSH1 0x1F AND DUP3 ADD SWAP2 JUMPDEST POP POP POP POP POP DUP2 JUMP JUMPDEST PUSH1 0x6 PUSH1 0x20 MSTORE DUP2 PUSH1 0x0 MSTORE PUSH1 0x40 PUSH1 0x0 KECCAK256 PUSH1 0x20 MSTORE DUP1 PUSH1 0x0 MSTORE PUSH1 0x40 PUSH1 0x0 KECCAK256 PUSH1 0x0 SWAP2 POP SWAP2 POP SWAP1 SLOAD SWAP1 PUSH2 0x100 EXP SWAP1 DIV PUSH1 0xFF AND DUP2 JUMP JUMPDEST PUSH1 0x0 PUSH1 0x7 DUP1 SLOAD SWAP1 POP SWAP1 POP SWAP1 JUMP JUMPDEST PUSH1 0x0 DUP1 SLOAD SWAP1 PUSH2 0x100 EXP SWAP1 DIV PUSH20 0xFFFFFFFFFFFFFFFFFFFFFFFFFFFFFFFFFFFFFFFF AND DUP2 JUMP JUMPDEST PUSH1 0x7 DUP2 DUP2 SLOAD DUP2 LT PUSH2 0x65D JUMPI PUSH1 0x0 DUP1 REVERT JUMPDEST SWAP1 PUSH1 0x0 MSTORE PUSH1 0x20 PUSH1 0x0 KECCAK256 SWAP1 PUSH1 0x4 MUL ADD PUSH1 0x0 SWAP2 POP SWAP1 POP DUP1 PUSH1 0x0 ADD DUP1 SLOAD PUSH2 0x680 SWAP1 PUSH2 0x146F JUMP JUMPDEST DUP1 PUSH1 0x1F ADD PUSH1 0x20 DUP1 SWAP2 DIV MUL PUSH1 0x20 ADD PUSH1 0x40 MLOAD SWAP1 DUP2 ADD PUSH1 0x40 MSTORE DUP1 SWAP3 SWAP2 SWAP1 DUP2 DUP2 MSTORE PUSH1 0x20 ADD DUP3 DUP1 SLOAD PUSH2 0x6AC SWAP1 PUSH2 0x146F JUMP JUMPDEST DUP1 ISZERO PUSH2 0x6F9 JUMPI DUP1 PUSH1 0x1F LT PUSH2 0x6CE JUMPI PUSH2 0x100 DUP1 DUP4 SLOAD DIV MUL DUP4 MSTORE SWAP2 PUSH1 0x20 ADD SWAP2 PUSH2 0x6F9 JUMP JUMPDEST DUP3 ADD SWAP2 SWAP1 PUSH1 0x0 MSTORE PUSH1 0x20 PUSH1 0x0 KECCAK256 SWAP1 JUMPDEST DUP2 SLOAD DUP2 MSTORE SWAP1 PUSH1 0x1 ADD SWAP1 PUSH1 0x20 ADD DUP1 DUP4 GT PUSH2 0x6DC JUMPI DUP3 SWAP1 SUB PUSH1 0x1F AND DUP3 ADD SWAP2 JUMPDEST POP POP POP POP POP SWAP1 DUP1 PUSH1 0x1 ADD SLOAD SWAP1 DUP1 PUSH1 0x2 ADD PUSH1 0x0 SWAP1 SLOAD SWAP1 PUSH2 0x100 EXP SWAP1 DIV PUSH20 0xFFFFFFFFFFFFFFFFFFFFFFFFFFFFFFFFFFFFFFFF AND SWAP1 DUP1 PUSH1 0x2 ADD PUSH1 0x14 SWAP1 SLOAD SWAP1 PUSH2 0x100 EXP SWAP1 DIV PUSH1 0xFF AND SWAP1 DUP1 PUSH1 0x3 ADD SLOAD SWAP1 POP DUP6 JUMP JUMPDEST PUSH1 0x5 SLOAD DUP2 JUMP JUMPDEST PUSH1 0x1 DUP1 SLOAD PUSH2 0x75B SWAP1 PUSH2 0x146F JUMP JUMPDEST DUP1 PUSH1 0x1F ADD PUSH1 0x20 DUP1 SWAP2 DIV MUL PUSH1 0x20 ADD PUSH1 0x40 MLOAD SWAP1 DUP2 ADD PUSH1 0x40 MSTORE DUP1 SWAP3 SWAP2 SWAP1 DUP2 DUP2 MSTORE PUSH1 0x20 ADD DUP3 DUP1 SLOAD PUSH2 0x787 SWAP1 PUSH2 0x146F JUMP JUMPDEST DUP1 ISZERO PUSH2 0x7D4 JUMPI DUP1 PUSH1 0x1F LT PUSH2 0x7A9 JUMPI PUSH2 0x100 DUP1 DUP4 SLOAD DIV MUL DUP4 MSTORE SWAP2 PUSH1 0x20 ADD SWAP2 PUSH2 0x7D4 JUMP JUMPDEST DUP3 ADD SWAP2 SWAP1 PUSH1 0x0 MSTORE PUSH1 0x20 PUSH1 0x0 KECCAK256 SWAP1 JUMPDEST DUP2 SLOAD DUP2 MSTORE SWAP1 PUSH1 0x1 ADD SWAP1 PUSH1 0x20 ADD DUP1 DUP4 GT PUSH2 0x7B7 JUMPI DUP3 SWAP1 SUB PUSH1 0x1F AND DUP3 ADD SWAP2 JUMPDEST POP POP POP POP POP DUP2 JUMP JUMPDEST PUSH1 0x0 DUP1 SLOAD SWAP1 PUSH2 0x100 EXP SWAP1 DIV PUSH20 0xFFFFFFFFFFFFFFFFFFFFFFFFFFFFFFFFFFFFFFFF AND PUSH20 0xFFFFFFFFFFFFFFFFFFFFFFFFFFFFFFFFFFFFFFFF AND CALLER PUSH20 0xFFFFFFFFFFFFFFFFFFFFFFFFFFFFFFFFFFFFFFFF AND EQ PUSH2 0x86A JUMPI PUSH1 0x40 MLOAD PUSH32 0x8C379A000000000000000000000000000000000000000000000000000000000 DUP2 MSTORE PUSH1 0x4 ADD PUSH2 0x861 SWAP1 PUSH2 0x128A JUMP JUMPDEST PUSH1 0x40 MLOAD DUP1 SWAP2 SUB SWAP1 REVERT JUMPDEST PUSH1 0x0 PUSH1 0x7 PUSH1 0x1 DUP2 PUSH1 0x1 DUP2 SLOAD ADD DUP1 DUP3 SSTORE DUP1 SWAP2 POP POP SUB SWAP1 PUSH1 0x0 MSTORE PUSH1 0x20 PUSH1 0x0 KECCAK256 SWAP1 PUSH1 0x4 MUL ADD SWAP1 POP DUP4 DUP2 PUSH1 0x0 ADD SWAP1 DUP2 PUSH2 0x89F SWAP2 SWAP1 PUSH2 0x164C JUMP JUMPDEST POP DUP3 DUP2 PUSH1 0x1 ADD DUP2 SWAP1 SSTORE POP DUP2 DUP2 PUSH1 0x2 ADD PUSH1 0x0 PUSH2 0x100 EXP DUP2 SLOAD DUP2 PUSH20 0xFFFFFFFFFFFFFFFFFFFFFFFFFFFFFFFFFFFFFFFF MUL NOT AND SWAP1 DUP4 PUSH20 0xFFFFFFFFFFFFFFFFFFFFFFFFFFFFFFFFFFFFFFFF AND MUL OR SWAP1 SSTORE POP PUSH1 0x0 DUP2 PUSH1 0x2 ADD PUSH1 0x14 PUSH2 0x100 EXP DUP2 SLOAD DUP2 PUSH1 0xFF MUL NOT AND SWAP1 DUP4 ISZERO ISZERO MUL OR SWAP1 SSTORE POP PUSH1 0x0 DUP2 PUSH1 0x3 ADD DUP2 SWAP1 SSTORE POP POP POP POP POP JUMP JUMPDEST PUSH1 0x3 SLOAD DUP2 JUMP JUMPDEST PUSH1 0x3 SLOAD CALLVALUE GT PUSH2 0x963 JUMPI PUSH1 0x40 MLOAD PUSH32 0x8C379A000000000000000000000000000000000000000000000000000000000 DUP2 MSTORE PUSH1 0x4 ADD PUSH2 0x95A SWAP1 PUSH2 0x1790 JUMP JUMPDEST PUSH1 0x40 MLOAD DUP1 SWAP2 SUB SWAP1 REVERT JUMPDEST PUSH1 0x4 PUSH1 0x0 CALLER PUSH20 0xFFFFFFFFFFFFFFFFFFFFFFFFFFFFFFFFFFFFFFFF AND PUSH20 0xFFFFFFFFFFFFFFFFFFFFFFFFFFFFFFFFFFFFFFFF AND DUP2 MSTORE PUSH1 0x20 ADD SWAP1 DUP2 MSTORE PUSH1 0x20 ADD PUSH1 0x0 KECCAK256 PUSH1 0x0 SWAP1 SLOAD SWAP1 PUSH2 0x100 EXP SWAP1 DIV PUSH1 0xFF AND PUSH2 0xA25 JUMPI PUSH1 0x1 PUSH1 0x4 PUSH1 0x0 CALLER PUSH20 0xFFFFFFFFFFFFFFFFFFFFFFFFFFFFFFFFFFFFFFFF AND PUSH20 0xFFFFFFFFFFFFFFFFFFFFFFFFFFFFFFFFFFFFFFFF AND DUP2 MSTORE PUSH1 0x20 ADD SWAP1 DUP2 MSTORE PUSH1 0x20 ADD PUSH1 0x0 KECCAK256 PUSH1 0x0 PUSH2 0x100 EXP DUP2 SLOAD DUP2 PUSH1 0xFF MUL NOT AND SWAP1 DUP4 ISZERO ISZERO MUL OR SWAP1 SSTORE POP PUSH1 0x5 PUSH1 0x0 DUP2 SLOAD DUP1 SWAP3 SWAP2 SWAP1 PUSH2 0xA1F SWAP1 PUSH2 0x17B0 JUMP JUMPDEST SWAP2 SWAP1 POP SSTORE POP JUMPDEST JUMP JUMPDEST PUSH1 0x4 PUSH1 0x0 CALLER PUSH20 0xFFFFFFFFFFFFFFFFFFFFFFFFFFFFFFFFFFFFFFFF AND PUSH20 0xFFFFFFFFFFFFFFFFFFFFFFFFFFFFFFFFFFFFFFFF AND DUP2 MSTORE PUSH1 0x20 ADD SWAP1 DUP2 MSTORE PUSH1 0x20 ADD PUSH1 0x0 KECCAK256 PUSH1 0x0 SWAP1 SLOAD SWAP1 PUSH2 0x100 EXP SWAP1 DIV PUSH1 0xFF AND PUSH2 0xA7D JUMPI PUSH1 0x0 DUP1 REVERT JUMPDEST PUSH1 0x6 PUSH1 0x0 DUP3 DUP2 MSTORE PUSH1 0x20 ADD SWAP1 DUP2 MSTORE PUSH1 0x20 ADD PUSH1 0x0 KECCAK256 PUSH1 0x0 CALLER PUSH20 0xFFFFFFFFFFFFFFFFFFFFFFFFFFFFFFFFFFFFFFFF AND PUSH20 0xFFFFFFFFFFFFFFFFFFFFFFFFFFFFFFFFFFFFFFFF AND DUP2 MSTORE PUSH1 0x20 ADD SWAP1 DUP2 MSTORE PUSH1 0x20 ADD PUSH1 0x0 KECCAK256 PUSH1 0x0 SWAP1 SLOAD SWAP1 PUSH2 0x100 EXP SWAP1 DIV PUSH1 0xFF AND ISZERO PUSH2 0xAE5 JUMPI PUSH1 0x0 DUP1 REVERT JUMPDEST PUSH1 0x1 PUSH1 0x6 PUSH1 0x0 DUP4 DUP2 MSTORE PUSH1 0x20 ADD SWAP1 DUP2 MSTORE PUSH1 0x20 ADD PUSH1 0x0 KECCAK256 PUSH1 0x0 CALLER PUSH20 0xFFFFFFFFFFFFFFFFFFFFFFFFFFFFFFFFFFFFFFFF AND PUSH20 0xFFFFFFFFFFFFFFFFFFFFFFFFFFFFFFFFFFFFFFFF AND DUP2 MSTORE PUSH1 0x20 ADD SWAP1 DUP2 MSTORE PUSH1 0x20 ADD PUSH1 0x0 KECCAK256 PUSH1 0x0 PUSH2 0x100 EXP DUP2 SLOAD DUP2 PUSH1 0xFF MUL NOT AND SWAP1 DUP4 ISZERO ISZERO MUL OR SWAP1 SSTORE POP PUSH1 0x7 DUP2 DUP2 SLOAD DUP2 LT PUSH2 0xB62 JUMPI PUSH2 0xB61 PUSH2 0x12AA JUMP JUMPDEST JUMPDEST SWAP1 PUSH1 0x0 MSTORE PUSH1 0x20 PUSH1 0x0 KECCAK256 SWAP1 PUSH1 0x4 MUL ADD PUSH1 0x3 ADD PUSH1 0x0 DUP2 SLOAD DUP1 SWAP3 SWAP2 SWAP1 PUSH2 0xB84 SWAP1 PUSH2 0x17B0 JUMP JUMPDEST SWAP2 SWAP1 POP SSTORE POP POP JUMP JUMPDEST PUSH1 0x60 DUP1 PUSH1 0x0 DUP1 PUSH1 0x0 DUP1 PUSH1 0x0 PUSH1 0x1 PUSH1 0x2 PUSH1 0x3 SLOAD SELFBALANCE PUSH1 0x0 DUP1 SLOAD SWAP1 PUSH2 0x100 EXP SWAP1 DIV PUSH20 0xFFFFFFFFFFFFFFFFFFFFFFFFFFFFFFFFFFFFFFFF AND PUSH1 0x7 DUP1 SLOAD SWAP1 POP PUSH1 0x5 SLOAD DUP7 DUP1 SLOAD PUSH2 0xBD5 SWAP1 PUSH2 0x146F JUMP JUMPDEST DUP1 PUSH1 0x1F ADD PUSH1 0x20 DUP1 SWAP2 DIV MUL PUSH1 0x20 ADD PUSH1 0x40 MLOAD SWAP1 DUP2 ADD PUSH1 0x40 MSTORE DUP1 SWAP3 SWAP2 SWAP1 DUP2 DUP2 MSTORE PUSH1 0x20 ADD DUP3 DUP1 SLOAD PUSH2 0xC01 SWAP1 PUSH2 0x146F JUMP JUMPDEST DUP1 ISZERO PUSH2 0xC4E JUMPI DUP1 PUSH1 0x1F LT PUSH2 0xC23 JUMPI PUSH2 0x100 DUP1 DUP4 SLOAD DIV MUL DUP4 MSTORE SWAP2 PUSH1 0x20 ADD SWAP2 PUSH2 0xC4E JUMP JUMPDEST DUP3 ADD SWAP2 SWAP1 PUSH1 0x0 MSTORE PUSH1 0x20 PUSH1 0x0 KECCAK256 SWAP1 JUMPDEST DUP2 SLOAD DUP2 MSTORE SWAP1 PUSH1 0x1 ADD SWAP1 PUSH1 0x20 ADD DUP1 DUP4 GT PUSH2 0xC31 JUMPI DUP3 SWAP1 SUB PUSH1 0x1F AND DUP3 ADD SWAP2 JUMPDEST POP POP POP POP POP SWAP7 POP DUP6 DUP1 SLOAD PUSH2 0xC61 SWAP1 PUSH2 0x146F JUMP JUMPDEST DUP1 PUSH1 0x1F ADD PUSH1 0x20 DUP1 SWAP2 DIV MUL PUSH1 0x20 ADD PUSH1 0x40 MLOAD SWAP1 DUP2 ADD PUSH1 0x40 MSTORE DUP1 SWAP3 SWAP2 SWAP1 DUP2 DUP2 MSTORE PUSH1 0x20 ADD DUP3 DUP1 SLOAD PUSH2 0xC8D SWAP1 PUSH2 0x146F JUMP JUMPDEST DUP1 ISZERO PUSH2 0xCDA JUMPI DUP1 PUSH1 0x1F LT PUSH2 0xCAF JUMPI PUSH2 0x100 DUP1 DUP4 SLOAD DIV MUL DUP4 MSTORE SWAP2 PUSH1 0x20 ADD SWAP2 PUSH2 0xCDA JUMP JUMPDEST DUP3 ADD SWAP2 SWAP1 PUSH1 0x0 MSTORE PUSH1 0x20 PUSH1 0x0 KECCAK256 SWAP1 JUMPDEST DUP2 SLOAD DUP2 MSTORE SWAP1 PUSH1 0x1 ADD SWAP1 PUSH1 0x20 ADD DUP1 DUP4 GT PUSH2 0xCBD JUMPI DUP3 SWAP1 SUB PUSH1 0x1F AND DUP3 ADD SWAP2 JUMPDEST POP POP POP POP POP SWAP6 POP SWAP7 POP SWAP7 POP SWAP7 POP SWAP7 POP SWAP7 POP SWAP7 POP SWAP7 POP SWAP1 SWAP2 SWAP3 SWAP4 SWAP5 SWAP6 SWAP7 JUMP JUMPDEST PUSH1 0x0 PUSH1 0x40 MLOAD SWAP1 POP SWAP1 JUMP JUMPDEST PUSH1 0x0 DUP1 REVERT JUMPDEST PUSH1 0x0 DUP1 REVERT JUMPDEST PUSH1 0x0 DUP2 SWAP1 POP SWAP2 SWAP1 POP JUMP JUMPDEST PUSH2 0xD1F DUP2 PUSH2 0xD0C JUMP JUMPDEST DUP2 EQ PUSH2 0xD2A JUMPI PUSH1 0x0 DUP1 REVERT JUMPDEST POP JUMP JUMPDEST PUSH1 0x0 DUP2 CALLDATALOAD SWAP1 POP PUSH2 0xD3C DUP2 PUSH2 0xD16 JUMP JUMPDEST SWAP3 SWAP2 POP POP JUMP JUMPDEST PUSH1 0x0 PUSH1 0x20 DUP3 DUP5 SUB SLT ISZERO PUSH2 0xD58 JUMPI PUSH2 0xD57 PUSH2 0xD02 JUMP JUMPDEST JUMPDEST PUSH1 0x0 PUSH2 0xD66 DUP5 DUP3 DUP6 ADD PUSH2 0xD2D JUMP JUMPDEST SWAP2 POP POP SWAP3 SWAP2 POP POP JUMP JUMPDEST PUSH1 0x0 PUSH20 0xFFFFFFFFFFFFFFFFFFFFFFFFFFFFFFFFFFFFFFFF DUP3 AND SWAP1 POP SWAP2 SWAP1 POP JUMP JUMPDEST PUSH1 0x0 PUSH2 0xD9A DUP3 PUSH2 0xD6F JUMP JUMPDEST SWAP1 POP SWAP2 SWAP1 POP JUMP JUMPDEST PUSH2 0xDAA DUP2 PUSH2 0xD8F JUMP JUMPDEST DUP2 EQ PUSH2 0xDB5 JUMPI PUSH1 0x0 DUP1 REVERT JUMPDEST POP JUMP JUMPDEST PUSH1 0x0 DUP2 CALLDATALOAD SWAP1 POP PUSH2 0xDC7 DUP2 PUSH2 0xDA1 JUMP JUMPDEST SWAP3 SWAP2 POP POP JUMP JUMPDEST PUSH1 0x0 PUSH1 0x20 DUP3 DUP5 SUB SLT ISZERO PUSH2 0xDE3 JUMPI PUSH2 0xDE2 PUSH2 0xD02 JUMP JUMPDEST JUMPDEST PUSH1 0x0 PUSH2 0xDF1 DUP5 DUP3 DUP6 ADD PUSH2 0xDB8 JUMP JUMPDEST SWAP2 POP POP SWAP3 SWAP2 POP POP JUMP JUMPDEST PUSH1 0x0 DUP2 ISZERO ISZERO SWAP1 POP SWAP2 SWAP1 POP JUMP JUMPDEST PUSH2 0xE0F DUP2 PUSH2 0xDFA JUMP JUMPDEST DUP3 MSTORE POP POP JUMP JUMPDEST PUSH1 0x0 PUSH1 0x20 DUP3 ADD SWAP1 POP PUSH2 0xE2A PUSH1 0x0 DUP4 ADD DUP5 PUSH2 0xE06 JUMP JUMPDEST SWAP3 SWAP2 POP POP JUMP JUMPDEST PUSH1 0x0 DUP2 MLOAD SWAP1 POP SWAP2 SWAP1 POP JUMP JUMPDEST PUSH1 0x0 DUP3 DUP3 MSTORE PUSH1 0x20 DUP3 ADD SWAP1 POP SWAP3 SWAP2 POP POP JUMP JUMPDEST PUSH1 0x0 JUMPDEST DUP4 DUP2 LT ISZERO PUSH2 0xE6A JUMPI DUP1 DUP3 ADD MLOAD DUP2 DUP5 ADD MSTORE PUSH1 0x20 DUP2 ADD SWAP1 POP PUSH2 0xE4F JUMP JUMPDEST PUSH1 0x0 DUP5 DUP5 ADD MSTORE POP POP POP POP JUMP JUMPDEST PUSH1 0x0 PUSH1 0x1F NOT PUSH1 0x1F DUP4 ADD AND SWAP1 POP SWAP2 SWAP1 POP JUMP JUMPDEST PUSH1 0x0 PUSH2 0xE92 DUP3 PUSH2 0xE30 JUMP JUMPDEST PUSH2 0xE9C DUP2 DUP6 PUSH2 0xE3B JUMP JUMPDEST SWAP4 POP PUSH2 0xEAC DUP2 DUP6 PUSH1 0x20 DUP7 ADD PUSH2 0xE4C JUMP JUMPDEST PUSH2 0xEB5 DUP2 PUSH2 0xE76 JUMP JUMPDEST DUP5 ADD SWAP2 POP POP SWAP3 SWAP2 POP POP JUMP JUMPDEST PUSH1 0x0 PUSH1 0x20 DUP3 ADD SWAP1 POP DUP2 DUP2 SUB PUSH1 0x0 DUP4 ADD MSTORE PUSH2 0xEDA DUP2 DUP5 PUSH2 0xE87 JUMP JUMPDEST SWAP1 POP SWAP3 SWAP2 POP POP JUMP JUMPDEST PUSH1 0x0 DUP1 PUSH1 0x40 DUP4 DUP6 SUB SLT ISZERO PUSH2 0xEF9 JUMPI PUSH2 0xEF8 PUSH2 0xD02 JUMP JUMPDEST JUMPDEST PUSH1 0x0 PUSH2 0xF07 DUP6 DUP3 DUP7 ADD PUSH2 0xD2D JUMP JUMPDEST SWAP3 POP POP PUSH1 0x20 PUSH2 0xF18 DUP6 DUP3 DUP7 ADD PUSH2 0xDB8 JUMP JUMPDEST SWAP2 POP POP SWAP3 POP SWAP3 SWAP1 POP JUMP JUMPDEST PUSH2 0xF2B DUP2 PUSH2 0xD0C JUMP JUMPDEST DUP3 MSTORE POP POP JUMP JUMPDEST PUSH1 0x0 PUSH1 0x20 DUP3 ADD SWAP1 POP PUSH2 0xF46 PUSH1 0x0 DUP4 ADD DUP5 PUSH2 0xF22 JUMP JUMPDEST SWAP3 SWAP2 POP POP JUMP JUMPDEST PUSH2 0xF55 DUP2 PUSH2 0xD8F JUMP JUMPDEST DUP3 MSTORE POP POP JUMP JUMPDEST PUSH1 0x0 PUSH1 0x20 DUP3 ADD SWAP1 POP PUSH2 0xF70 PUSH1 0x0 DUP4 ADD DUP5 PUSH2 0xF4C JUMP JUMPDEST SWAP3 SWAP2 POP POP JUMP JUMPDEST PUSH1 0x0 PUSH2 0xF81 DUP3 PUSH2 0xD6F JUMP JUMPDEST SWAP1 POP SWAP2 SWAP1 POP JUMP JUMPDEST PUSH2 0xF91 DUP2 PUSH2 0xF76 JUMP JUMPDEST DUP3 MSTORE POP POP JUMP JUMPDEST PUSH1 0x0 PUSH1 0xA0 DUP3 ADD SWAP1 POP DUP2 DUP2 SUB PUSH1 0x0 DUP4 ADD MSTORE PUSH2 0xFB1 DUP2 DUP9 PUSH2 0xE87 JUMP JUMPDEST SWAP1 POP PUSH2 0xFC0 PUSH1 0x20 DUP4 ADD DUP8 PUSH2 0xF22 JUMP JUMPDEST PUSH2 0xFCD PUSH1 0x40 DUP4 ADD DUP7 PUSH2 0xF88 JUMP JUMPDEST PUSH2 0xFDA PUSH1 0x60 DUP4 ADD DUP6 PUSH2 0xE06 JUMP JUMPDEST PUSH2 0xFE7 PUSH1 0x80 DUP4 ADD DUP5 PUSH2 0xF22 JUMP JUMPDEST SWAP7 SWAP6 POP POP POP POP POP POP JUMP JUMPDEST PUSH1 0x0 DUP1 REVERT JUMPDEST PUSH1 0x0 DUP1 REVERT JUMPDEST PUSH32 0x4E487B7100000000000000000000000000000000000000000000000000000000 PUSH1 0x0 MSTORE PUSH1 0x41 PUSH1 0x4 MSTORE PUSH1 0x24 PUSH1 0x0 REVERT JUMPDEST PUSH2 0x1033 DUP3 PUSH2 0xE76 JUMP JUMPDEST DUP2 ADD DUP2 DUP2 LT PUSH8 0xFFFFFFFFFFFFFFFF DUP3 GT OR ISZERO PUSH2 0x1052 JUMPI PUSH2 0x1051 PUSH2 0xFFB JUMP JUMPDEST JUMPDEST DUP1 PUSH1 0x40 MSTORE POP POP POP JUMP JUMPDEST PUSH1 0x0 PUSH2 0x1065 PUSH2 0xCF8 JUMP JUMPDEST SWAP1 POP PUSH2 0x1071 DUP3 DUP3 PUSH2 0x102A JUMP JUMPDEST SWAP2 SWAP1 POP JUMP JUMPDEST PUSH1 0x0 PUSH8 0xFFFFFFFFFFFFFFFF DUP3 GT ISZERO PUSH2 0x1091 JUMPI PUSH2 0x1090 PUSH2 0xFFB JUMP JUMPDEST JUMPDEST PUSH2 0x109A DUP3 PUSH2 0xE76 JUMP JUMPDEST SWAP1 POP PUSH1 0x20 DUP2 ADD SWAP1 POP SWAP2 SWAP1 POP JUMP JUMPDEST DUP3 DUP2 DUP4 CALLDATACOPY PUSH1 0x0 DUP4 DUP4 ADD MSTORE POP POP POP JUMP JUMPDEST PUSH1 0x0 PUSH2 0x10C9 PUSH2 0x10C4 DUP5 PUSH2 0x1076 JUMP JUMPDEST PUSH2 0x105B JUMP JUMPDEST SWAP1 POP DUP3 DUP2 MSTORE PUSH1 0x20 DUP2 ADD DUP5 DUP5 DUP5 ADD GT ISZERO PUSH2 0x10E5 JUMPI PUSH2 0x10E4 PUSH2 0xFF6 JUMP JUMPDEST JUMPDEST PUSH2 0x10F0 DUP5 DUP3 DUP6 PUSH2 0x10A7 JUMP JUMPDEST POP SWAP4 SWAP3 POP POP POP JUMP JUMPDEST PUSH1 0x0 DUP3 PUSH1 0x1F DUP4 ADD SLT PUSH2 0x110D JUMPI PUSH2 0x110C PUSH2 0xFF1 JUMP JUMPDEST JUMPDEST DUP2 CALLDATALOAD PUSH2 0x111D DUP5 DUP3 PUSH1 0x20 DUP7 ADD PUSH2 0x10B6 JUMP JUMPDEST SWAP2 POP POP SWAP3 SWAP2 POP POP JUMP JUMPDEST PUSH2 0x112F DUP2 PUSH2 0xF76 JUMP JUMPDEST DUP2 EQ PUSH2 0x113A JUMPI PUSH1 0x0 DUP1 REVERT JUMPDEST POP JUMP JUMPDEST PUSH1 0x0 DUP2 CALLDATALOAD SWAP1 POP PUSH2 0x114C DUP2 PUSH2 0x1126 JUMP JUMPDEST SWAP3 SWAP2 POP POP JUMP JUMPDEST PUSH1 0x0 DUP1 PUSH1 0x0 PUSH1 0x60 DUP5 DUP7 SUB SLT ISZERO PUSH2 0x116B JUMPI PUSH2 0x116A PUSH2 0xD02 JUMP JUMPDEST JUMPDEST PUSH1 0x0 DUP5 ADD CALLDATALOAD PUSH8 0xFFFFFFFFFFFFFFFF DUP2 GT ISZERO PUSH2 0x1189 JUMPI PUSH2 0x1188 PUSH2 0xD07 JUMP JUMPDEST JUMPDEST PUSH2 0x1195 DUP7 DUP3 DUP8 ADD PUSH2 0x10F8 JUMP JUMPDEST SWAP4 POP POP PUSH1 0x20 PUSH2 0x11A6 DUP7 DUP3 DUP8 ADD PUSH2 0xD2D JUMP JUMPDEST SWAP3 POP POP PUSH1 0x40 PUSH2 0x11B7 DUP7 DUP3 DUP8 ADD PUSH2 0x113D JUMP JUMPDEST SWAP2 POP POP SWAP3 POP SWAP3 POP SWAP3 JUMP JUMPDEST PUSH1 0x0 PUSH1 0xE0 DUP3 ADD SWAP1 POP DUP2 DUP2 SUB PUSH1 0x0 DUP4 ADD MSTORE PUSH2 0x11DB DUP2 DUP11 PUSH2 0xE87 JUMP JUMPDEST SWAP1 POP DUP2 DUP2 SUB PUSH1 0x20 DUP4 ADD MSTORE PUSH2 0x11EF DUP2 DUP10 PUSH2 0xE87 JUMP JUMPDEST SWAP1 POP PUSH2 0x11FE PUSH1 0x40 DUP4 ADD DUP9 PUSH2 0xF22 JUMP JUMPDEST PUSH2 0x120B PUSH1 0x60 DUP4 ADD DUP8 PUSH2 0xF22 JUMP JUMPDEST PUSH2 0x1218 PUSH1 0x80 DUP4 ADD DUP7 PUSH2 0xF4C JUMP JUMPDEST PUSH2 0x1225 PUSH1 0xA0 DUP4 ADD DUP6 PUSH2 0xF22 JUMP JUMPDEST PUSH2 0x1232 PUSH1 0xC0 DUP4 ADD DUP5 PUSH2 0xF22 JUMP JUMPDEST SWAP9 SWAP8 POP POP POP POP POP POP POP POP JUMP JUMPDEST PUSH32 0x43616C6C6572206973206E6F7420746865206D616E6167657200000000000000 PUSH1 0x0 DUP3 ADD MSTORE POP JUMP JUMPDEST PUSH1 0x0 PUSH2 0x1274 PUSH1 0x19 DUP4 PUSH2 0xE3B JUMP JUMPDEST SWAP2 POP PUSH2 0x127F DUP3 PUSH2 0x123E JUMP JUMPDEST PUSH1 0x20 DUP3 ADD SWAP1 POP SWAP2 SWAP1 POP JUMP JUMPDEST PUSH1 0x0 PUSH1 0x20 DUP3 ADD SWAP1 POP DUP2 DUP2 SUB PUSH1 0x0 DUP4 ADD MSTORE PUSH2 0x12A3 DUP2 PUSH2 0x1267 JUMP JUMPDEST SWAP1 POP SWAP2 SWAP1 POP JUMP JUMPDEST PUSH32 0x4E487B7100000000000000000000000000000000000000000000000000000000 PUSH1 0x0 MSTORE PUSH1 0x32 PUSH1 0x4 MSTORE PUSH1 0x24 PUSH1 0x0 REVERT JUMPDEST PUSH32 0x4E487B7100000000000000000000000000000000000000000000000000000000 PUSH1 0x0 MSTORE PUSH1 0x12 PUSH1 0x4 MSTORE PUSH1 0x24 PUSH1 0x0 REVERT JUMPDEST PUSH32 0x4E487B7100000000000000000000000000000000000000000000000000000000 PUSH1 0x0 MSTORE PUSH1 0x11 PUSH1 0x4 MSTORE PUSH1 0x24 PUSH1 0x0 REVERT JUMPDEST PUSH1 0x0 PUSH2 0x1342 DUP3 PUSH2 0xD0C JUMP JUMPDEST SWAP2 POP PUSH2 0x134D DUP4 PUSH2 0xD0C JUMP JUMPDEST SWAP3 POP DUP3 PUSH2 0x135D JUMPI PUSH2 0x135C PUSH2 0x12D9 JUMP JUMPDEST JUMPDEST DUP3 DUP3 DIV SWAP1 POP SWAP3 SWAP2 POP POP JUMP JUMPDEST PUSH32 0x4E6F7420656E6F75676820617070726F76616C73000000000000000000000000 PUSH1 0x0 DUP3 ADD MSTORE POP JUMP JUMPDEST PUSH1 0x0 PUSH2 0x139E PUSH1 0x14 DUP4 PUSH2 0xE3B JUMP JUMPDEST SWAP2 POP PUSH2 0x13A9 DUP3 PUSH2 0x1368 JUMP JUMPDEST PUSH1 0x20 DUP3 ADD SWAP1 POP SWAP2 SWAP1 POP JUMP JUMPDEST PUSH1 0x0 PUSH1 0x20 DUP3 ADD SWAP1 POP DUP2 DUP2 SUB PUSH1 0x0 DUP4 ADD MSTORE PUSH2 0x13CD DUP2 PUSH2 0x1391 JUMP JUMPDEST SWAP1 POP SWAP2 SWAP1 POP JUMP JUMPDEST PUSH32 0x5265717565737420616C72656164792066696E616C697A656400000000000000 PUSH1 0x0 DUP3 ADD MSTORE POP JUMP JUMPDEST PUSH1 0x0 PUSH2 0x140A PUSH1 0x19 DUP4 PUSH2 0xE3B JUMP JUMPDEST SWAP2 POP PUSH2 0x1415 DUP3 PUSH2 0x13D4 JUMP JUMPDEST PUSH1 0x20 DUP3 ADD SWAP1 POP SWAP2 SWAP1 POP JUMP JUMPDEST PUSH1 0x0 PUSH1 0x20 DUP3 ADD SWAP1 POP DUP2 DUP2 SUB PUSH1 0x0 DUP4 ADD MSTORE PUSH2 0x1439 DUP2 PUSH2 0x13FD JUMP JUMPDEST SWAP1 POP SWAP2 SWAP1 POP JUMP JUMPDEST PUSH32 0x4E487B7100000000000000000000000000000000000000000000000000000000 PUSH1 0x0 MSTORE PUSH1 0x22 PUSH1 0x4 MSTORE PUSH1 0x24 PUSH1 0x0 REVERT JUMPDEST PUSH1 0x0 PUSH1 0x2 DUP3 DIV SWAP1 POP PUSH1 0x1 DUP3 AND DUP1 PUSH2 0x1487 JUMPI PUSH1 0x7F DUP3 AND SWAP2 POP JUMPDEST PUSH1 0x20 DUP3 LT DUP2 SUB PUSH2 0x149A JUMPI PUSH2 0x1499 PUSH2 0x1440 JUMP JUMPDEST JUMPDEST POP SWAP2 SWAP1 POP JUMP JUMPDEST PUSH1 0x0 DUP2 SWAP1 POP DUP2 PUSH1 0x0 MSTORE PUSH1 0x20 PUSH1 0x0 KECCAK256 SWAP1 POP SWAP2 SWAP1 POP JUMP JUMPDEST PUSH1 0x0 PUSH1 0x20 PUSH1 0x1F DUP4 ADD DIV SWAP1 POP SWAP2 SWAP1 POP JUMP JUMPDEST PUSH1 0x0 DUP3 DUP3 SHL SWAP1 POP SWAP3 SWAP2 POP POP JUMP JUMPDEST PUSH1 0x0 PUSH1 0x8 DUP4 MUL PUSH2 0x1502 PUSH32 0xFFFFFFFFFFFFFFFFFFFFFFFFFFFFFFFFFFFFFFFFFFFFFFFFFFFFFFFFFFFFFFFF DUP3 PUSH2 0x14C5 JUMP JUMPDEST PUSH2 0x150C DUP7 DUP4 PUSH2 0x14C5 JUMP JUMPDEST SWAP6 POP DUP1 NOT DUP5 AND SWAP4 POP DUP1 DUP7 AND DUP5 OR SWAP3 POP POP POP SWAP4 SWAP3 POP POP POP JUMP JUMPDEST PUSH1 0x0 DUP2 SWAP1 POP SWAP2 SWAP1 POP JUMP JUMPDEST PUSH1 0x0 PUSH2 0x1549 PUSH2 0x1544 PUSH2 0x153F DUP5 PUSH2 0xD0C JUMP JUMPDEST PUSH2 0x1524 JUMP JUMPDEST PUSH2 0xD0C JUMP JUMPDEST SWAP1 POP SWAP2 SWAP1 POP JUMP JUMPDEST PUSH1 0x0 DUP2 SWAP1 POP SWAP2 SWAP1 POP JUMP JUMPDEST PUSH2 0x1563 DUP4 PUSH2 0x152E JUMP JUMPDEST PUSH2 0x1577 PUSH2 0x156F DUP3 PUSH2 0x1550 JUMP JUMPDEST DUP5 DUP5 SLOAD PUSH2 0x14D2 JUMP JUMPDEST DUP3 SSTORE POP POP POP POP JUMP JUMPDEST PUSH1 0x0 SWAP1 JUMP JUMPDEST PUSH2 0x158C PUSH2 0x157F JUMP JUMPDEST PUSH2 0x1597 DUP2 DUP5 DUP5 PUSH2 0x155A JUMP JUMPDEST POP POP POP JUMP JUMPDEST JUMPDEST DUP2 DUP2 LT ISZERO PUSH2 0x15BB JUMPI PUSH2 0x15B0 PUSH1 0x0 DUP3 PUSH2 0x1584 JUMP JUMPDEST PUSH1 0x1 DUP2 ADD SWAP1 POP PUSH2 0x159D JUMP JUMPDEST POP POP JUMP JUMPDEST PUSH1 0x1F DUP3 GT ISZERO PUSH2 0x1600 JUMPI PUSH2 0x15D1 DUP2 PUSH2 0x14A0 JUMP JUMPDEST PUSH2 0x15DA DUP5 PUSH2 0x14B5 JUMP JUMPDEST DUP2 ADD PUSH1 0x20 DUP6 LT ISZERO PUSH2 0x15E9 JUMPI DUP2 SWAP1 POP JUMPDEST PUSH2 0x15FD PUSH2 0x15F5 DUP6 PUSH2 0x14B5 JUMP JUMPDEST DUP4 ADD DUP3 PUSH2 0x159C JUMP JUMPDEST POP POP JUMPDEST POP POP POP JUMP JUMPDEST PUSH1 0x0 DUP3 DUP3 SHR SWAP1 POP SWAP3 SWAP2 POP POP JUMP JUMPDEST PUSH1 0x0 PUSH2 0x1623 PUSH1 0x0 NOT DUP5 PUSH1 0x8 MUL PUSH2 0x1605 JUMP JUMPDEST NOT DUP1 DUP4 AND SWAP2 POP POP SWAP3 SWAP2 POP POP JUMP JUMPDEST PUSH1 0x0 PUSH2 0x163C DUP4 DUP4 PUSH2 0x1612 JUMP JUMPDEST SWAP2 POP DUP3 PUSH1 0x2 MUL DUP3 OR SWAP1 POP SWAP3 SWAP2 POP POP JUMP JUMPDEST PUSH2 0x1655 DUP3 PUSH2 0xE30 JUMP JUMPDEST PUSH8 0xFFFFFFFFFFFFFFFF DUP2 GT ISZERO PUSH2 0x166E JUMPI PUSH2 0x166D PUSH2 0xFFB JUMP JUMPDEST JUMPDEST PUSH2 0x1678 DUP3 SLOAD PUSH2 0x146F JUMP JUMPDEST PUSH2 0x1683 DUP3 DUP3 DUP6 PUSH2 0x15BF JUMP JUMPDEST PUSH1 0x0 PUSH1 0x20 SWAP1 POP PUSH1 0x1F DUP4 GT PUSH1 0x1 DUP2 EQ PUSH2 0x16B6 JUMPI PUSH1 0x0 DUP5 ISZERO PUSH2 0x16A4 JUMPI DUP3 DUP8 ADD MLOAD SWAP1 POP JUMPDEST PUSH2 0x16AE DUP6 DUP3 PUSH2 0x1630 JUMP JUMPDEST DUP7 SSTORE POP PUSH2 0x1716 JUMP JUMPDEST PUSH1 0x1F NOT DUP5 AND PUSH2 0x16C4 DUP7 PUSH2 0x14A0 JUMP JUMPDEST PUSH1 0x0 JUMPDEST DUP3 DUP2 LT ISZERO PUSH2 0x16EC JUMPI DUP5 DUP10 ADD MLOAD DUP3 SSTORE PUSH1 0x1 DUP3 ADD SWAP2 POP PUSH1 0x20 DUP6 ADD SWAP5 POP PUSH1 0x20 DUP2 ADD SWAP1 POP PUSH2 0x16C7 JUMP JUMPDEST DUP7 DUP4 LT ISZERO PUSH2 0x1709 JUMPI DUP5 DUP10 ADD MLOAD PUSH2 0x1705 PUSH1 0x1F DUP10 AND DUP3 PUSH2 0x1612 JUMP JUMPDEST DUP4 SSTORE POP JUMPDEST PUSH1 0x1 PUSH1 0x2 DUP9 MUL ADD DUP9 SSTORE POP POP POP JUMPDEST POP POP POP POP POP POP JUMP JUMPDEST PUSH32 0x4D696E696D756D20636F6E747269627574696F6E206973206E6F74206D617463 PUSH1 0x0 DUP3 ADD MSTORE PUSH32 0x6865640000000000000000000000000000000000000000000000000000000000 PUSH1 0x20 DUP3 ADD MSTORE POP JUMP JUMPDEST PUSH1 0x0 PUSH2 0x177A PUSH1 0x23 DUP4 PUSH2 0xE3B JUMP JUMPDEST SWAP2 POP PUSH2 0x1785 DUP3 PUSH2 0x171E JUMP JUMPDEST PUSH1 0x40 DUP3 ADD SWAP1 POP SWAP2 SWAP1 POP JUMP JUMPDEST PUSH1 0x0 PUSH1 0x20 DUP3 ADD SWAP1 POP DUP2 DUP2 SUB PUSH1 0x0 DUP4 ADD MSTORE PUSH2 0x17A9 DUP2 PUSH2 0x176D JUMP JUMPDEST SWAP1 POP SWAP2 SWAP1 POP JUMP JUMPDEST PUSH1 0x0 PUSH2 0x17BB DUP3 PUSH2 0xD0C JUMP JUMPDEST SWAP2 POP PUSH32 0xFFFFFFFFFFFFFFFFFFFFFFFFFFFFFFFFFFFFFFFFFFFFFFFFFFFFFFFFFFFFFFFF DUP3 SUB PUSH2 0x17ED JUMPI PUSH2 0x17EC PUSH2 0x1308 JUMP JUMPDEST JUMPDEST PUSH1 0x1 DUP3 ADD SWAP1 POP SWAP2 SWAP1 POP JUMP INVALID LOG2 PUSH5 0x6970667358 0x22 SLT KECCAK256 OR XOR BYTE SGT 0xC2 0xB1 INVALID 0xCE PUSH19 0x6ED9EF621A9635382448F77BE8A1167A48184B CALLDATALOAD SWAP7 ADDRESS 0xCF PUSH5 0x736F6C6343 STOP ADDMOD SGT STOP CALLER "},"gasEstimates":{"creation":{"codeDepositCost":"1238000","executionCost":"infinite","totalCost":"infinite"},"external":{"approveRequest(uint256)":"infinite","approvedAddresses(uint256,address)":"3110","approvers(address)":"2891","approversCount()":"2452","campaignDescription()":"infinite","campaignTitle()":"infinite","contribute()":"53241","createRequest(string,uint256,address)":"infinite","finalizeRequest(uint256)":"infinite","getDetails()":"infinite","getRequestsCount()":"2490","manager()":"2578","minimumContribution()":"2451","requests(uint256)":"infinite"}},"methodIdentifiers":{"approveRequest(uint256)":"d7d1bbdb","approvedAddresses(uint256,address)":"33f449e5","approvers(address)":"0a144391","approversCount()":"82fde093","campaignDescription()":"110842cb","campaignTitle()":"835a6172","contribute()":"d7bb99ba","createRequest(string,uint256,address)":"8a9cfd55","finalizeRequest(uint256)":"03441006","getDetails()":"fbbf93a0","getRequestsCount()":"3410452a","manager()":"481c6a75","minimumContribution()":"937e09b1","requests(uint256)":"81d12c58"}},"storageLayout":{"storage":[{"astId":58,"contract":"Campaign.sol:Campaign","label":"manager","offset":0,"slot":"0","type":"t_address"},{"astId":60,"contract":"Campaign.sol:Campaign","label":"campaignTitle","offset":0,"slot":"1","type":"t_string_storage"},{"astId":62,"contract":"Campaign.sol:Campaign","label":"campaignDescription","offset":0,"slot":"2","type":"t_string_storage"},{"astId":64,"contract":"Campaign.sol:Campaign","label":"minimumContribution","offset":0,"slot":"3","type":"t_uint256"},{"astId":68,"contract":"Campaign.sol:Campaign","label":"approvers","offset":0,"slot":"4","type":"t_mapping(t_address,t_bool)"},{"astId":70,"contract":"Campaign.sol:Campaign","label":"approversCount","offset":0,"slot":"5","type":"t_uint256"},{"astId":76,"contract":"Campaign.sol:Campaign","label":"approvedAddresses","offset":0,"slot":"6","type":"t_mapping(t_uint256,t_mapping(t_address,t_bool))"},{"astId":80,"contract":"Campaign.sol:Campaign","label":"requests","offset":0,"slot":"7","type":"t_array(t_struct(Request)56_storage)dyn_storage"}],"types":{"t_address":{"encoding":"inplace","label":"address","numberOfBytes":"20"},"t_address_payable":{"encoding":"inplace","label":"address payable","numberOfBytes":"20"},"t_array(t_struct(Request)56_storage)dyn_storage":{"base":"t_struct(Request)56_storage","encoding":"dynamic_array","label":"struct Campaign.Request[]","numberOfBytes":"32"},"t_bool":{"encoding":"inplace","label":"bool","numberOfBytes":"1"},"t_mapping(t_address,t_bool)":{"encoding":"mapping","key":"t_address","label":"mapping(address => bool)","numberOfBytes":"32","value":"t_bool"},"t_mapping(t_uint256,t_mapping(t_address,t_bool))":{"encoding":"mapping","key":"t_uint256","label":"mapping(uint256 => mapping(address => bool))","numberOfBytes":"32","value":"t_mapping(t_address,t_bool)"},"t_string_storage":{"encoding":"bytes","label":"string","numberOfBytes":"32"},"t_struct(Request)56_storage":{"encoding":"inplace","label":"struct Campaign.Request","members":[{"astId":47,"contract":"Campaign.sol:Campaign","label":"description","offset":0,"slot":"0","type":"t_string_storage"},{"astId":49,"contract":"Campaign.sol:Campaign","label":"value","offset":0,"slot":"1","type":"t_uint256"},{"astId":51,"contract":"Campaign.sol:Campaign","label":"recipient","offset":0,"slot":"2","type":"t_address_payable"},{"astId":53,"contract":"Campaign.sol:Campaign","label":"complete","offset":20,"slot":"2","type":"t_bool"},{"astId":55,"contract":"Campaign.sol:Campaign","label":"approvalCount","offset":0,"slot":"3","type":"t_uint256"}],"numberOfBytes":"128"},"t_uint256":{"encoding":"inplace","label":"uint256","numberOfBytes":"32"}}},"userdoc":{"kind":"user","methods":{},"version":1}}