{"abi":[{"inputs":[{"internalType":"uint256","name":"minimum","type":"uint256"},{"internalType":"string","name":"title","type":"string"},{"internalType":"string","name":"description","type":"string"}],"name":"createCampaign","outputs":[],"stateMutability":"nonpayable","type":"function"},{"inputs":[{"internalType":"uint256","name":"","type":"uint256"}],"name":"deployedCampaigns","outputs":[{"internalType":"address","name":"","type":"address"}],"stateMutability":"view","type":"function"},{"inputs":[],"name":"getDeployedCampaigns","outputs":[{"internalType":"address[]","name":"","type":"address[]"}],"stateMutability":"view","type":"function"}],"devdoc":{"kind":"dev","methods":{},"version":1},"evm":{"assembly":"    /* \"Campaign.sol\":59:493  contract CampaignFactory {... */\n  mstore(0x40, 0x80)\n  callvalue\n  dup1\n  iszero\n  tag_1\n  jumpi\n  0x00\n  dup1\n  revert\ntag_1:\n  pop\n  dataSize(sub_0)\n  dup1\n  dataOffset(sub_0)\n  0x00\n  codecopy\n  0x00\n  return\nstop\n\nsub_0: assembly {\n        /* \"Campaign.sol\":59:493  contract CampaignFactory {... */\n      mstore(0x40, 0x80)\n      callvalue\n      dup1\n      iszero\n      tag_1\n      jumpi\n      0x00\n      dup1\n      revert\n    tag_1:\n      pop\n      jumpi(tag_2, lt(calldatasize, 0x04))\n      shr(0xe0, calldataload(0x00))\n      dup1\n      0x339d50a5\n      eq\n      tag_3\n      jumpi\n      dup1\n      0x4acb9d4f\n      eq\n      tag_4\n      jumpi\n      dup1\n      0xfad4dee3\n      eq\n      tag_5\n      jumpi\n    tag_2:\n      0x00\n      dup1\n      revert\n        /* \"Campaign.sol\":90:124  address[] public deployedCampaigns */\n    tag_3:\n      tag_6\n      0x04\n      dup1\n      calldatasize\n      sub\n      dup2\n      add\n      swap1\n      tag_7\n      swap2\n      swap1\n      tag_8\n      jump\t// in\n    tag_7:\n      tag_9\n      jump\t// in\n    tag_6:\n      mload(0x40)\n      tag_10\n      swap2\n      swap1\n      tag_11\n      jump\t// in\n    tag_10:\n      mload(0x40)\n      dup1\n      swap2\n      sub\n      swap1\n      return\n        /* \"Campaign.sol\":376:487  function getDeployedCampaigns() public view returns(address[] memory) {... */\n    tag_4:\n      tag_12\n      tag_13\n      jump\t// in\n    tag_12:\n      mload(0x40)\n      tag_14\n      swap2\n      swap1\n      tag_15\n      jump\t// in\n    tag_14:\n      mload(0x40)\n      dup1\n      swap2\n      sub\n      swap1\n      return\n        /* \"Campaign.sol\":131:370  function createCampaign(uint minimum, string memory title, string memory description) public {... */\n    tag_5:\n      tag_16\n      0x04\n      dup1\n      calldatasize\n      sub\n      dup2\n      add\n      swap1\n      tag_17\n      swap2\n      swap1\n      tag_18\n      jump\t// in\n    tag_17:\n      tag_19\n      jump\t// in\n    tag_16:\n      stop\n        /* \"Campaign.sol\":90:124  address[] public deployedCampaigns */\n    tag_9:\n      0x00\n      dup2\n      dup2\n      sload\n      dup2\n      lt\n      tag_20\n      jumpi\n      0x00\n      dup1\n      revert\n    tag_20:\n      swap1\n      0x00\n      mstore\n      keccak256(0x00, 0x20)\n      add\n      0x00\n      swap2\n      pop\n      sload\n      swap1\n      0x0100\n      exp\n      swap1\n      div\n      0xffffffffffffffffffffffffffffffffffffffff\n      and\n      dup2\n      jump\t// out\n        /* \"Campaign.sol\":376:487  function getDeployedCampaigns() public view returns(address[] memory) {... */\n    tag_13:\n        /* \"Campaign.sol\":428:444  address[] memory */\n      0x60\n        /* \"Campaign.sol\":463:480  deployedCampaigns */\n      0x00\n        /* \"Campaign.sol\":456:480  return deployedCampaigns */\n      dup1\n      sload\n      dup1\n      0x20\n      mul\n      0x20\n      add\n      mload(0x40)\n      swap1\n      dup2\n      add\n      0x40\n      mstore\n      dup1\n      swap3\n      swap2\n      swap1\n      dup2\n      dup2\n      mstore\n      0x20\n      add\n      dup3\n      dup1\n      sload\n      dup1\n      iszero\n      tag_23\n      jumpi\n      0x20\n      mul\n      dup3\n      add\n      swap2\n      swap1\n      0x00\n      mstore\n      keccak256(0x00, 0x20)\n      swap1\n    tag_24:\n      dup2\n      0x00\n      swap1\n      sload\n      swap1\n      0x0100\n      exp\n      swap1\n      div\n      0xffffffffffffffffffffffffffffffffffffffff\n      and\n      0xffffffffffffffffffffffffffffffffffffffff\n      and\n      dup2\n      mstore\n      0x20\n      add\n      swap1\n      0x01\n      add\n      swap1\n      dup1\n      dup4\n      gt\n      tag_24\n      jumpi\n    tag_23:\n      pop\n      pop\n      pop\n      pop\n      pop\n      swap1\n      pop\n        /* \"Campaign.sol\":376:487  function getDeployedCampaigns() public view returns(address[] memory) {... */\n      swap1\n      jump\t// out\n        /* \"Campaign.sol\":131:370  function createCampaign(uint minimum, string memory title, string memory description) public {... */\n    tag_19:\n        /* \"Campaign.sol\":234:253  address newCampaign */\n      0x00\n        /* \"Campaign.sol\":277:284  minimum */\n      dup4\n        /* \"Campaign.sol\":286:296  msg.sender */\n      caller\n        /* \"Campaign.sol\":298:303  title */\n      dup5\n        /* \"Campaign.sol\":305:316  description */\n      dup5\n        /* \"Campaign.sol\":264:317  new Campaign(minimum, msg.sender, title, description) */\n      mload(0x40)\n      tag_26\n      swap1\n      tag_27\n      jump\t// in\n    tag_26:\n      tag_28\n      swap5\n      swap4\n      swap3\n      swap2\n      swap1\n      tag_29\n      jump\t// in\n    tag_28:\n      mload(0x40)\n      dup1\n      swap2\n      sub\n      swap1\n      0x00\n      create\n      dup1\n      iszero\n      dup1\n      iszero\n      tag_30\n      jumpi\n      returndatasize\n      0x00\n      dup1\n      returndatacopy\n      revert(0x00, returndatasize)\n    tag_30:\n      pop\n        /* \"Campaign.sol\":234:318  address newCampaign = address(new Campaign(minimum, msg.sender, title, description)) */\n      swap1\n      pop\n        /* \"Campaign.sol\":328:345  deployedCampaigns */\n      0x00\n        /* \"Campaign.sol\":351:362  newCampaign */\n      dup2\n        /* \"Campaign.sol\":328:363  deployedCampaigns.push(newCampaign) */\n      swap1\n      dup1\n      0x01\n      dup2\n      sload\n      add\n      dup1\n      dup3\n      sstore\n      dup1\n      swap2\n      pop\n      pop\n      0x01\n      swap1\n      sub\n      swap1\n      0x00\n      mstore\n      keccak256(0x00, 0x20)\n      add\n      0x00\n      swap1\n      swap2\n      swap1\n      swap2\n      swap1\n      swap2\n      0x0100\n      exp\n      dup2\n      sload\n      dup2\n      0xffffffffffffffffffffffffffffffffffffffff\n      mul\n      not\n      and\n      swap1\n      dup4\n      0xffffffffffffffffffffffffffffffffffffffff\n      and\n      mul\n      or\n      swap1\n      sstore\n      pop\n        /* \"Campaign.sol\":224:370  {... */\n      pop\n        /* \"Campaign.sol\":131:370  function createCampaign(uint minimum, string memory title, string memory description) public {... */\n      pop\n      pop\n      pop\n      jump\t// out\n    tag_27:\n      dataSize(sub_0)\n      dup1\n      dataOffset(sub_0)\n      dup4\n      codecopy\n      add\n      swap1\n      jump\t// out\n        /* \"#utility.yul\":7:82   */\n    tag_32:\n        /* \"#utility.yul\":40:46   */\n      0x00\n        /* \"#utility.yul\":73:75   */\n      0x40\n        /* \"#utility.yul\":67:76   */\n      mload\n        /* \"#utility.yul\":57:76   */\n      swap1\n      pop\n        /* \"#utility.yul\":7:82   */\n      swap1\n      jump\t// out\n        /* \"#utility.yul\":88:205   */\n    tag_33:\n        /* \"#utility.yul\":197:198   */\n      0x00\n        /* \"#utility.yul\":194:195   */\n      dup1\n        /* \"#utility.yul\":187:199   */\n      revert\n        /* \"#utility.yul\":211:328   */\n    tag_34:\n        /* \"#utility.yul\":320:321   */\n      0x00\n        /* \"#utility.yul\":317:318   */\n      dup1\n        /* \"#utility.yul\":310:322   */\n      revert\n        /* \"#utility.yul\":334:411   */\n    tag_35:\n        /* \"#utility.yul\":371:378   */\n      0x00\n        /* \"#utility.yul\":400:405   */\n      dup2\n        /* \"#utility.yul\":389:405   */\n      swap1\n      pop\n        /* \"#utility.yul\":334:411   */\n      swap2\n      swap1\n      pop\n      jump\t// out\n        /* \"#utility.yul\":417:539   */\n    tag_36:\n        /* \"#utility.yul\":490:514   */\n      tag_69\n        /* \"#utility.yul\":508:513   */\n      dup2\n        /* \"#utility.yul\":490:514   */\n      tag_35\n      jump\t// in\n    tag_69:\n        /* \"#utility.yul\":483:488   */\n      dup2\n        /* \"#utility.yul\":480:515   */\n      eq\n        /* \"#utility.yul\":470:533   */\n      tag_70\n      jumpi\n        /* \"#utility.yul\":529:530   */\n      0x00\n        /* \"#utility.yul\":526:527   */\n      dup1\n        /* \"#utility.yul\":519:531   */\n      revert\n        /* \"#utility.yul\":470:533   */\n    tag_70:\n        /* \"#utility.yul\":417:539   */\n      pop\n      jump\t// out\n        /* \"#utility.yul\":545:684   */\n    tag_37:\n        /* \"#utility.yul\":591:596   */\n      0x00\n        /* \"#utility.yul\":629:635   */\n      dup2\n        /* \"#utility.yul\":616:636   */\n      calldataload\n        /* \"#utility.yul\":607:636   */\n      swap1\n      pop\n        /* \"#utility.yul\":645:678   */\n      tag_72\n        /* \"#utility.yul\":672:677   */\n      dup2\n        /* \"#utility.yul\":645:678   */\n      tag_36\n      jump\t// in\n    tag_72:\n        /* \"#utility.yul\":545:684   */\n      swap3\n      swap2\n      pop\n      pop\n      jump\t// out\n        /* \"#utility.yul\":690:1019   */\n    tag_8:\n        /* \"#utility.yul\":749:755   */\n      0x00\n        /* \"#utility.yul\":798:800   */\n      0x20\n        /* \"#utility.yul\":786:795   */\n      dup3\n        /* \"#utility.yul\":777:784   */\n      dup5\n        /* \"#utility.yul\":773:796   */\n      sub\n        /* \"#utility.yul\":769:801   */\n      slt\n        /* \"#utility.yul\":766:885   */\n      iszero\n      tag_74\n      jumpi\n        /* \"#utility.yul\":804:883   */\n      tag_75\n      tag_33\n      jump\t// in\n    tag_75:\n        /* \"#utility.yul\":766:885   */\n    tag_74:\n        /* \"#utility.yul\":924:925   */\n      0x00\n        /* \"#utility.yul\":949:1002   */\n      tag_76\n        /* \"#utility.yul\":994:1001   */\n      dup5\n        /* \"#utility.yul\":985:991   */\n      dup3\n        /* \"#utility.yul\":974:983   */\n      dup6\n        /* \"#utility.yul\":970:992   */\n      add\n        /* \"#utility.yul\":949:1002   */\n      tag_37\n      jump\t// in\n    tag_76:\n        /* \"#utility.yul\":939:1002   */\n      swap2\n      pop\n        /* \"#utility.yul\":895:1012   */\n      pop\n        /* \"#utility.yul\":690:1019   */\n      swap3\n      swap2\n      pop\n      pop\n      jump\t// out\n        /* \"#utility.yul\":1025:1151   */\n    tag_38:\n        /* \"#utility.yul\":1062:1069   */\n      0x00\n        /* \"#utility.yul\":1102:1144   */\n      0xffffffffffffffffffffffffffffffffffffffff\n        /* \"#utility.yul\":1095:1100   */\n      dup3\n        /* \"#utility.yul\":1091:1145   */\n      and\n        /* \"#utility.yul\":1080:1145   */\n      swap1\n      pop\n        /* \"#utility.yul\":1025:1151   */\n      swap2\n      swap1\n      pop\n      jump\t// out\n        /* \"#utility.yul\":1157:1253   */\n    tag_39:\n        /* \"#utility.yul\":1194:1201   */\n      0x00\n        /* \"#utility.yul\":1223:1247   */\n      tag_79\n        /* \"#utility.yul\":1241:1246   */\n      dup3\n        /* \"#utility.yul\":1223:1247   */\n      tag_38\n      jump\t// in\n    tag_79:\n        /* \"#utility.yul\":1212:1247   */\n      swap1\n      pop\n        /* \"#utility.yul\":1157:1253   */\n      swap2\n      swap1\n      pop\n      jump\t// out\n        /* \"#utility.yul\":1259:1377   */\n    tag_40:\n        /* \"#utility.yul\":1346:1370   */\n      tag_81\n        /* \"#utility.yul\":1364:1369   */\n      dup2\n        /* \"#utility.yul\":1346:1370   */\n      tag_39\n      jump\t// in\n    tag_81:\n        /* \"#utility.yul\":1341:1344   */\n      dup3\n        /* \"#utility.yul\":1334:1371   */\n      mstore\n        /* \"#utility.yul\":1259:1377   */\n      pop\n      pop\n      jump\t// out\n        /* \"#utility.yul\":1383:1605   */\n    tag_11:\n        /* \"#utility.yul\":1476:1480   */\n      0x00\n        /* \"#utility.yul\":1514:1516   */\n      0x20\n        /* \"#utility.yul\":1503:1512   */\n      dup3\n        /* \"#utility.yul\":1499:1517   */\n      add\n        /* \"#utility.yul\":1491:1517   */\n      swap1\n      pop\n        /* \"#utility.yul\":1527:1598   */\n      tag_83\n        /* \"#utility.yul\":1595:1596   */\n      0x00\n        /* \"#utility.yul\":1584:1593   */\n      dup4\n        /* \"#utility.yul\":1580:1597   */\n      add\n        /* \"#utility.yul\":1571:1577   */\n      dup5\n        /* \"#utility.yul\":1527:1598   */\n      tag_40\n      jump\t// in\n    tag_83:\n        /* \"#utility.yul\":1383:1605   */\n      swap3\n      swap2\n      pop\n      pop\n      jump\t// out\n        /* \"#utility.yul\":1611:1725   */\n    tag_41:\n        /* \"#utility.yul\":1678:1684   */\n      0x00\n        /* \"#utility.yul\":1712:1717   */\n      dup2\n        /* \"#utility.yul\":1706:1718   */\n      mload\n        /* \"#utility.yul\":1696:1718   */\n      swap1\n      pop\n        /* \"#utility.yul\":1611:1725   */\n      swap2\n      swap1\n      pop\n      jump\t// out\n        /* \"#utility.yul\":1731:1915   */\n    tag_42:\n        /* \"#utility.yul\":1830:1841   */\n      0x00\n        /* \"#utility.yul\":1864:1870   */\n      dup3\n        /* \"#utility.yul\":1859:1862   */\n      dup3\n        /* \"#utility.yul\":1852:1871   */\n      mstore\n        /* \"#utility.yul\":1904:1908   */\n      0x20\n        /* \"#utility.yul\":1899:1902   */\n      dup3\n        /* \"#utility.yul\":1895:1909   */\n      add\n        /* \"#utility.yul\":1880:1909   */\n      swap1\n      pop\n        /* \"#utility.yul\":1731:1915   */\n      swap3\n      swap2\n      pop\n      pop\n      jump\t// out\n        /* \"#utility.yul\":1921:2053   */\n    tag_43:\n        /* \"#utility.yul\":1988:1992   */\n      0x00\n        /* \"#utility.yul\":2011:2014   */\n      dup2\n        /* \"#utility.yul\":2003:2014   */\n      swap1\n      pop\n        /* \"#utility.yul\":2041:2045   */\n      0x20\n        /* \"#utility.yul\":2036:2039   */\n      dup3\n        /* \"#utility.yul\":2032:2046   */\n      add\n        /* \"#utility.yul\":2024:2046   */\n      swap1\n      pop\n        /* \"#utility.yul\":1921:2053   */\n      swap2\n      swap1\n      pop\n      jump\t// out\n        /* \"#utility.yul\":2059:2167   */\n    tag_44:\n        /* \"#utility.yul\":2136:2160   */\n      tag_88\n        /* \"#utility.yul\":2154:2159   */\n      dup2\n        /* \"#utility.yul\":2136:2160   */\n      tag_39\n      jump\t// in\n    tag_88:\n        /* \"#utility.yul\":2131:2134   */\n      dup3\n        /* \"#utility.yul\":2124:2161   */\n      mstore\n        /* \"#utility.yul\":2059:2167   */\n      pop\n      pop\n      jump\t// out\n        /* \"#utility.yul\":2173:2352   */\n    tag_45:\n        /* \"#utility.yul\":2242:2252   */\n      0x00\n        /* \"#utility.yul\":2263:2309   */\n      tag_90\n        /* \"#utility.yul\":2305:2308   */\n      dup4\n        /* \"#utility.yul\":2297:2303   */\n      dup4\n        /* \"#utility.yul\":2263:2309   */\n      tag_44\n      jump\t// in\n    tag_90:\n        /* \"#utility.yul\":2341:2345   */\n      0x20\n        /* \"#utility.yul\":2336:2339   */\n      dup4\n        /* \"#utility.yul\":2332:2346   */\n      add\n        /* \"#utility.yul\":2318:2346   */\n      swap1\n      pop\n        /* \"#utility.yul\":2173:2352   */\n      swap3\n      swap2\n      pop\n      pop\n      jump\t// out\n        /* \"#utility.yul\":2358:2471   */\n    tag_46:\n        /* \"#utility.yul\":2428:2432   */\n      0x00\n        /* \"#utility.yul\":2460:2464   */\n      0x20\n        /* \"#utility.yul\":2455:2458   */\n      dup3\n        /* \"#utility.yul\":2451:2465   */\n      add\n        /* \"#utility.yul\":2443:2465   */\n      swap1\n      pop\n        /* \"#utility.yul\":2358:2471   */\n      swap2\n      swap1\n      pop\n      jump\t// out\n        /* \"#utility.yul\":2507:3239   */\n    tag_47:\n        /* \"#utility.yul\":2626:2629   */\n      0x00\n        /* \"#utility.yul\":2655:2709   */\n      tag_93\n        /* \"#utility.yul\":2703:2708   */\n      dup3\n        /* \"#utility.yul\":2655:2709   */\n      tag_41\n      jump\t// in\n    tag_93:\n        /* \"#utility.yul\":2725:2811   */\n      tag_94\n        /* \"#utility.yul\":2804:2810   */\n      dup2\n        /* \"#utility.yul\":2799:2802   */\n      dup6\n        /* \"#utility.yul\":2725:2811   */\n      tag_42\n      jump\t// in\n    tag_94:\n        /* \"#utility.yul\":2718:2811   */\n      swap4\n      pop\n        /* \"#utility.yul\":2835:2891   */\n      tag_95\n        /* \"#utility.yul\":2885:2890   */\n      dup4\n        /* \"#utility.yul\":2835:2891   */\n      tag_43\n      jump\t// in\n    tag_95:\n        /* \"#utility.yul\":2914:2921   */\n      dup1\n        /* \"#utility.yul\":2945:2946   */\n      0x00\n        /* \"#utility.yul\":2930:3214   */\n    tag_96:\n        /* \"#utility.yul\":2955:2961   */\n      dup4\n        /* \"#utility.yul\":2952:2953   */\n      dup2\n        /* \"#utility.yul\":2949:2962   */\n      lt\n        /* \"#utility.yul\":2930:3214   */\n      iszero\n      tag_98\n      jumpi\n        /* \"#utility.yul\":3031:3037   */\n      dup2\n        /* \"#utility.yul\":3025:3038   */\n      mload\n        /* \"#utility.yul\":3058:3121   */\n      tag_99\n        /* \"#utility.yul\":3117:3120   */\n      dup9\n        /* \"#utility.yul\":3102:3115   */\n      dup3\n        /* \"#utility.yul\":3058:3121   */\n      tag_45\n      jump\t// in\n    tag_99:\n        /* \"#utility.yul\":3051:3121   */\n      swap8\n      pop\n        /* \"#utility.yul\":3144:3204   */\n      tag_100\n        /* \"#utility.yul\":3197:3203   */\n      dup4\n        /* \"#utility.yul\":3144:3204   */\n      tag_46\n      jump\t// in\n    tag_100:\n        /* \"#utility.yul\":3134:3204   */\n      swap3\n      pop\n        /* \"#utility.yul\":2990:3214   */\n      pop\n        /* \"#utility.yul\":2977:2978   */\n      0x01\n        /* \"#utility.yul\":2974:2975   */\n      dup2\n        /* \"#utility.yul\":2970:2979   */\n      add\n        /* \"#utility.yul\":2965:2979   */\n      swap1\n      pop\n        /* \"#utility.yul\":2930:3214   */\n      jump(tag_96)\n    tag_98:\n        /* \"#utility.yul\":2934:2948   */\n      pop\n        /* \"#utility.yul\":3230:3233   */\n      dup6\n        /* \"#utility.yul\":3223:3233   */\n      swap4\n      pop\n        /* \"#utility.yul\":2631:3239   */\n      pop\n      pop\n      pop\n        /* \"#utility.yul\":2507:3239   */\n      swap3\n      swap2\n      pop\n      pop\n      jump\t// out\n        /* \"#utility.yul\":3245:3618   */\n    tag_15:\n        /* \"#utility.yul\":3388:3392   */\n      0x00\n        /* \"#utility.yul\":3426:3428   */\n      0x20\n        /* \"#utility.yul\":3415:3424   */\n      dup3\n        /* \"#utility.yul\":3411:3429   */\n      add\n        /* \"#utility.yul\":3403:3429   */\n      swap1\n      pop\n        /* \"#utility.yul\":3475:3484   */\n      dup2\n        /* \"#utility.yul\":3469:3473   */\n      dup2\n        /* \"#utility.yul\":3465:3485   */\n      sub\n        /* \"#utility.yul\":3461:3462   */\n      0x00\n        /* \"#utility.yul\":3450:3459   */\n      dup4\n        /* \"#utility.yul\":3446:3463   */\n      add\n        /* \"#utility.yul\":3439:3486   */\n      mstore\n        /* \"#utility.yul\":3503:3611   */\n      tag_102\n        /* \"#utility.yul\":3606:3610   */\n      dup2\n        /* \"#utility.yul\":3597:3603   */\n      dup5\n        /* \"#utility.yul\":3503:3611   */\n      tag_47\n      jump\t// in\n    tag_102:\n        /* \"#utility.yul\":3495:3611   */\n      swap1\n      pop\n        /* \"#utility.yul\":3245:3618   */\n      swap3\n      swap2\n      pop\n      pop\n      jump\t// out\n        /* \"#utility.yul\":3624:3741   */\n    tag_48:\n        /* \"#utility.yul\":3733:3734   */\n      0x00\n        /* \"#utility.yul\":3730:3731   */\n      dup1\n        /* \"#utility.yul\":3723:3735   */\n      revert\n        /* \"#utility.yul\":3747:3864   */\n    tag_49:\n        /* \"#utility.yul\":3856:3857   */\n      0x00\n        /* \"#utility.yul\":3853:3854   */\n      dup1\n        /* \"#utility.yul\":3846:3858   */\n      revert\n        /* \"#utility.yul\":3870:3972   */\n    tag_50:\n        /* \"#utility.yul\":3911:3917   */\n      0x00\n        /* \"#utility.yul\":3962:3964   */\n      0x1f\n        /* \"#utility.yul\":3958:3965   */\n      not\n        /* \"#utility.yul\":3953:3955   */\n      0x1f\n        /* \"#utility.yul\":3946:3951   */\n      dup4\n        /* \"#utility.yul\":3942:3956   */\n      add\n        /* \"#utility.yul\":3938:3966   */\n      and\n        /* \"#utility.yul\":3928:3966   */\n      swap1\n      pop\n        /* \"#utility.yul\":3870:3972   */\n      swap2\n      swap1\n      pop\n      jump\t// out\n        /* \"#utility.yul\":3978:4158   */\n    tag_51:\n        /* \"#utility.yul\":4026:4103   */\n      0x4e487b7100000000000000000000000000000000000000000000000000000000\n        /* \"#utility.yul\":4023:4024   */\n      0x00\n        /* \"#utility.yul\":4016:4104   */\n      mstore\n        /* \"#utility.yul\":4123:4127   */\n      0x41\n        /* \"#utility.yul\":4120:4121   */\n      0x04\n        /* \"#utility.yul\":4113:4128   */\n      mstore\n        /* \"#utility.yul\":4147:4151   */\n      0x24\n        /* \"#utility.yul\":4144:4145   */\n      0x00\n        /* \"#utility.yul\":4137:4152   */\n      revert\n        /* \"#utility.yul\":4164:4445   */\n    tag_52:\n        /* \"#utility.yul\":4247:4274   */\n      tag_108\n        /* \"#utility.yul\":4269:4273   */\n      dup3\n        /* \"#utility.yul\":4247:4274   */\n      tag_50\n      jump\t// in\n    tag_108:\n        /* \"#utility.yul\":4239:4245   */\n      dup2\n        /* \"#utility.yul\":4235:4275   */\n      add\n        /* \"#utility.yul\":4377:4383   */\n      dup2\n        /* \"#utility.yul\":4365:4375   */\n      dup2\n        /* \"#utility.yul\":4362:4384   */\n      lt\n        /* \"#utility.yul\":4341:4359   */\n      0xffffffffffffffff\n        /* \"#utility.yul\":4329:4339   */\n      dup3\n        /* \"#utility.yul\":4326:4360   */\n      gt\n        /* \"#utility.yul\":4323:4385   */\n      or\n        /* \"#utility.yul\":4320:4408   */\n      iszero\n      tag_109\n      jumpi\n        /* \"#utility.yul\":4388:4406   */\n      tag_110\n      tag_51\n      jump\t// in\n    tag_110:\n        /* \"#utility.yul\":4320:4408   */\n    tag_109:\n        /* \"#utility.yul\":4428:4438   */\n      dup1\n        /* \"#utility.yul\":4424:4426   */\n      0x40\n        /* \"#utility.yul\":4417:4439   */\n      mstore\n        /* \"#utility.yul\":4207:4445   */\n      pop\n        /* \"#utility.yul\":4164:4445   */\n      pop\n      pop\n      jump\t// out\n        /* \"#utility.yul\":4451:4580   */\n    tag_53:\n        /* \"#utility.yul\":4485:4491   */\n      0x00\n        /* \"#utility.yul\":4512:4532   */\n      tag_112\n      tag_32\n      jump\t// in\n    tag_112:\n        /* \"#utility.yul\":4502:4532   */\n      swap1\n      pop\n        /* \"#utility.yul\":4541:4574   */\n      tag_113\n        /* \"#utility.yul\":4569:4573   */\n      dup3\n        /* \"#utility.yul\":4561:4567   */\n      dup3\n        /* \"#utility.yul\":4541:4574   */\n      tag_52\n      jump\t// in\n    tag_113:\n        /* \"#utility.yul\":4451:4580   */\n      swap2\n      swap1\n      pop\n      jump\t// out\n        /* \"#utility.yul\":4586:4894   */\n    tag_54:\n        /* \"#utility.yul\":4648:4652   */\n      0x00\n        /* \"#utility.yul\":4738:4756   */\n      0xffffffffffffffff\n        /* \"#utility.yul\":4730:4736   */\n      dup3\n        /* \"#utility.yul\":4727:4757   */\n      gt\n        /* \"#utility.yul\":4724:4780   */\n      iszero\n      tag_115\n      jumpi\n        /* \"#utility.yul\":4760:4778   */\n      tag_116\n      tag_51\n      jump\t// in\n    tag_116:\n        /* \"#utility.yul\":4724:4780   */\n    tag_115:\n        /* \"#utility.yul\":4798:4827   */\n      tag_117\n        /* \"#utility.yul\":4820:4826   */\n      dup3\n        /* \"#utility.yul\":4798:4827   */\n      tag_50\n      jump\t// in\n    tag_117:\n        /* \"#utility.yul\":4790:4827   */\n      swap1\n      pop\n        /* \"#utility.yul\":4882:4886   */\n      0x20\n        /* \"#utility.yul\":4876:4880   */\n      dup2\n        /* \"#utility.yul\":4872:4887   */\n      add\n        /* \"#utility.yul\":4864:4887   */\n      swap1\n      pop\n        /* \"#utility.yul\":4586:4894   */\n      swap2\n      swap1\n      pop\n      jump\t// out\n        /* \"#utility.yul\":4900:5046   */\n    tag_55:\n        /* \"#utility.yul\":4997:5003   */\n      dup3\n        /* \"#utility.yul\":4992:4995   */\n      dup2\n        /* \"#utility.yul\":4987:4990   */\n      dup4\n        /* \"#utility.yul\":4974:5004   */\n      calldatacopy\n        /* \"#utility.yul\":5038:5039   */\n      0x00\n        /* \"#utility.yul\":5029:5035   */\n      dup4\n        /* \"#utility.yul\":5024:5027   */\n      dup4\n        /* \"#utility.yul\":5020:5036   */\n      add\n        /* \"#utility.yul\":5013:5040   */\n      mstore\n        /* \"#utility.yul\":4900:5046   */\n      pop\n      pop\n      pop\n      jump\t// out\n        /* \"#utility.yul\":5052:5477   */\n    tag_56:\n        /* \"#utility.yul\":5130:5135   */\n      0x00\n        /* \"#utility.yul\":5155:5221   */\n      tag_120\n        /* \"#utility.yul\":5171:5220   */\n      tag_121\n        /* \"#utility.yul\":5213:5219   */\n      dup5\n        /* \"#utility.yul\":5171:5220   */\n      tag_54\n      jump\t// in\n    tag_121:\n        /* \"#utility.yul\":5155:5221   */\n      tag_53\n      jump\t// in\n    tag_120:\n        /* \"#utility.yul\":5146:5221   */\n      swap1\n      pop\n        /* \"#utility.yul\":5244:5250   */\n      dup3\n        /* \"#utility.yul\":5237:5242   */\n      dup2\n        /* \"#utility.yul\":5230:5251   */\n      mstore\n        /* \"#utility.yul\":5282:5286   */\n      0x20\n        /* \"#utility.yul\":5275:5280   */\n      dup2\n        /* \"#utility.yul\":5271:5287   */\n      add\n        /* \"#utility.yul\":5320:5323   */\n      dup5\n        /* \"#utility.yul\":5311:5317   */\n      dup5\n        /* \"#utility.yul\":5306:5309   */\n      dup5\n        /* \"#utility.yul\":5302:5318   */\n      add\n        /* \"#utility.yul\":5299:5324   */\n      gt\n        /* \"#utility.yul\":5296:5408   */\n      iszero\n      tag_122\n      jumpi\n        /* \"#utility.yul\":5327:5406   */\n      tag_123\n      tag_49\n      jump\t// in\n    tag_123:\n        /* \"#utility.yul\":5296:5408   */\n    tag_122:\n        /* \"#utility.yul\":5417:5471   */\n      tag_124\n        /* \"#utility.yul\":5464:5470   */\n      dup5\n        /* \"#utility.yul\":5459:5462   */\n      dup3\n        /* \"#utility.yul\":5454:5457   */\n      dup6\n        /* \"#utility.yul\":5417:5471   */\n      tag_55\n      jump\t// in\n    tag_124:\n        /* \"#utility.yul\":5136:5477   */\n      pop\n        /* \"#utility.yul\":5052:5477   */\n      swap4\n      swap3\n      pop\n      pop\n      pop\n      jump\t// out\n        /* \"#utility.yul\":5497:5837   */\n    tag_57:\n        /* \"#utility.yul\":5553:5558   */\n      0x00\n        /* \"#utility.yul\":5602:5605   */\n      dup3\n        /* \"#utility.yul\":5595:5599   */\n      0x1f\n        /* \"#utility.yul\":5587:5593   */\n      dup4\n        /* \"#utility.yul\":5583:5600   */\n      add\n        /* \"#utility.yul\":5579:5606   */\n      slt\n        /* \"#utility.yul\":5569:5691   */\n      tag_126\n      jumpi\n        /* \"#utility.yul\":5610:5689   */\n      tag_127\n      tag_48\n      jump\t// in\n    tag_127:\n        /* \"#utility.yul\":5569:5691   */\n    tag_126:\n        /* \"#utility.yul\":5727:5733   */\n      dup2\n        /* \"#utility.yul\":5714:5734   */\n      calldataload\n        /* \"#utility.yul\":5752:5831   */\n      tag_128\n        /* \"#utility.yul\":5827:5830   */\n      dup5\n        /* \"#utility.yul\":5819:5825   */\n      dup3\n        /* \"#utility.yul\":5812:5816   */\n      0x20\n        /* \"#utility.yul\":5804:5810   */\n      dup7\n        /* \"#utility.yul\":5800:5817   */\n      add\n        /* \"#utility.yul\":5752:5831   */\n      tag_56\n      jump\t// in\n    tag_128:\n        /* \"#utility.yul\":5743:5831   */\n      swap2\n      pop\n        /* \"#utility.yul\":5559:5837   */\n      pop\n        /* \"#utility.yul\":5497:5837   */\n      swap3\n      swap2\n      pop\n      pop\n      jump\t// out\n        /* \"#utility.yul\":5843:6822   */\n    tag_18:\n        /* \"#utility.yul\":5940:5946   */\n      0x00\n        /* \"#utility.yul\":5948:5954   */\n      dup1\n        /* \"#utility.yul\":5956:5962   */\n      0x00\n        /* \"#utility.yul\":6005:6007   */\n      0x60\n        /* \"#utility.yul\":5993:6002   */\n      dup5\n        /* \"#utility.yul\":5984:5991   */\n      dup7\n        /* \"#utility.yul\":5980:6003   */\n      sub\n        /* \"#utility.yul\":5976:6008   */\n      slt\n        /* \"#utility.yul\":5973:6092   */\n      iszero\n      tag_130\n      jumpi\n        /* \"#utility.yul\":6011:6090   */\n      tag_131\n      tag_33\n      jump\t// in\n    tag_131:\n        /* \"#utility.yul\":5973:6092   */\n    tag_130:\n        /* \"#utility.yul\":6131:6132   */\n      0x00\n        /* \"#utility.yul\":6156:6209   */\n      tag_132\n        /* \"#utility.yul\":6201:6208   */\n      dup7\n        /* \"#utility.yul\":6192:6198   */\n      dup3\n        /* \"#utility.yul\":6181:6190   */\n      dup8\n        /* \"#utility.yul\":6177:6199   */\n      add\n        /* \"#utility.yul\":6156:6209   */\n      tag_37\n      jump\t// in\n    tag_132:\n        /* \"#utility.yul\":6146:6209   */\n      swap4\n      pop\n        /* \"#utility.yul\":6102:6219   */\n      pop\n        /* \"#utility.yul\":6286:6288   */\n      0x20\n        /* \"#utility.yul\":6275:6284   */\n      dup5\n        /* \"#utility.yul\":6271:6289   */\n      add\n        /* \"#utility.yul\":6258:6290   */\n      calldataload\n        /* \"#utility.yul\":6317:6335   */\n      0xffffffffffffffff\n        /* \"#utility.yul\":6309:6315   */\n      dup2\n        /* \"#utility.yul\":6306:6336   */\n      gt\n        /* \"#utility.yul\":6303:6420   */\n      iszero\n      tag_133\n      jumpi\n        /* \"#utility.yul\":6339:6418   */\n      tag_134\n      tag_34\n      jump\t// in\n    tag_134:\n        /* \"#utility.yul\":6303:6420   */\n    tag_133:\n        /* \"#utility.yul\":6444:6507   */\n      tag_135\n        /* \"#utility.yul\":6499:6506   */\n      dup7\n        /* \"#utility.yul\":6490:6496   */\n      dup3\n        /* \"#utility.yul\":6479:6488   */\n      dup8\n        /* \"#utility.yul\":6475:6497   */\n      add\n        /* \"#utility.yul\":6444:6507   */\n      tag_57\n      jump\t// in\n    tag_135:\n        /* \"#utility.yul\":6434:6507   */\n      swap3\n      pop\n        /* \"#utility.yul\":6229:6517   */\n      pop\n        /* \"#utility.yul\":6584:6586   */\n      0x40\n        /* \"#utility.yul\":6573:6582   */\n      dup5\n        /* \"#utility.yul\":6569:6587   */\n      add\n        /* \"#utility.yul\":6556:6588   */\n      calldataload\n        /* \"#utility.yul\":6615:6633   */\n      0xffffffffffffffff\n        /* \"#utility.yul\":6607:6613   */\n      dup2\n        /* \"#utility.yul\":6604:6634   */\n      gt\n        /* \"#utility.yul\":6601:6718   */\n      iszero\n      tag_136\n      jumpi\n        /* \"#utility.yul\":6637:6716   */\n      tag_137\n      tag_34\n      jump\t// in\n    tag_137:\n        /* \"#utility.yul\":6601:6718   */\n    tag_136:\n        /* \"#utility.yul\":6742:6805   */\n      tag_138\n        /* \"#utility.yul\":6797:6804   */\n      dup7\n        /* \"#utility.yul\":6788:6794   */\n      dup3\n        /* \"#utility.yul\":6777:6786   */\n      dup8\n        /* \"#utility.yul\":6773:6795   */\n      add\n        /* \"#utility.yul\":6742:6805   */\n      tag_57\n      jump\t// in\n    tag_138:\n        /* \"#utility.yul\":6732:6805   */\n      swap2\n      pop\n        /* \"#utility.yul\":6527:6815   */\n      pop\n        /* \"#utility.yul\":5843:6822   */\n      swap3\n      pop\n      swap3\n      pop\n      swap3\n      jump\t// out\n        /* \"#utility.yul\":6828:6946   */\n    tag_58:\n        /* \"#utility.yul\":6915:6939   */\n      tag_140\n        /* \"#utility.yul\":6933:6938   */\n      dup2\n        /* \"#utility.yul\":6915:6939   */\n      tag_35\n      jump\t// in\n    tag_140:\n        /* \"#utility.yul\":6910:6913   */\n      dup3\n        /* \"#utility.yul\":6903:6940   */\n      mstore\n        /* \"#utility.yul\":6828:6946   */\n      pop\n      pop\n      jump\t// out\n        /* \"#utility.yul\":6952:7051   */\n    tag_59:\n        /* \"#utility.yul\":7004:7010   */\n      0x00\n        /* \"#utility.yul\":7038:7043   */\n      dup2\n        /* \"#utility.yul\":7032:7044   */\n      mload\n        /* \"#utility.yul\":7022:7044   */\n      swap1\n      pop\n        /* \"#utility.yul\":6952:7051   */\n      swap2\n      swap1\n      pop\n      jump\t// out\n        /* \"#utility.yul\":7057:7226   */\n    tag_60:\n        /* \"#utility.yul\":7141:7152   */\n      0x00\n        /* \"#utility.yul\":7175:7181   */\n      dup3\n        /* \"#utility.yul\":7170:7173   */\n      dup3\n        /* \"#utility.yul\":7163:7182   */\n      mstore\n        /* \"#utility.yul\":7215:7219   */\n      0x20\n        /* \"#utility.yul\":7210:7213   */\n      dup3\n        /* \"#utility.yul\":7206:7220   */\n      add\n        /* \"#utility.yul\":7191:7220   */\n      swap1\n      pop\n        /* \"#utility.yul\":7057:7226   */\n      swap3\n      swap2\n      pop\n      pop\n      jump\t// out\n        /* \"#utility.yul\":7232:7478   */\n    tag_61:\n        /* \"#utility.yul\":7313:7314   */\n      0x00\n        /* \"#utility.yul\":7323:7436   */\n    tag_144:\n        /* \"#utility.yul\":7337:7343   */\n      dup4\n        /* \"#utility.yul\":7334:7335   */\n      dup2\n        /* \"#utility.yul\":7331:7344   */\n      lt\n        /* \"#utility.yul\":7323:7436   */\n      iszero\n      tag_146\n      jumpi\n        /* \"#utility.yul\":7422:7423   */\n      dup1\n        /* \"#utility.yul\":7417:7420   */\n      dup3\n        /* \"#utility.yul\":7413:7424   */\n      add\n        /* \"#utility.yul\":7407:7425   */\n      mload\n        /* \"#utility.yul\":7403:7404   */\n      dup2\n        /* \"#utility.yul\":7398:7401   */\n      dup5\n        /* \"#utility.yul\":7394:7405   */\n      add\n        /* \"#utility.yul\":7387:7426   */\n      mstore\n        /* \"#utility.yul\":7359:7361   */\n      0x20\n        /* \"#utility.yul\":7356:7357   */\n      dup2\n        /* \"#utility.yul\":7352:7362   */\n      add\n        /* \"#utility.yul\":7347:7362   */\n      swap1\n      pop\n        /* \"#utility.yul\":7323:7436   */\n      jump(tag_144)\n    tag_146:\n        /* \"#utility.yul\":7470:7471   */\n      0x00\n        /* \"#utility.yul\":7461:7467   */\n      dup5\n        /* \"#utility.yul\":7456:7459   */\n      dup5\n        /* \"#utility.yul\":7452:7468   */\n      add\n        /* \"#utility.yul\":7445:7472   */\n      mstore\n        /* \"#utility.yul\":7294:7478   */\n      pop\n        /* \"#utility.yul\":7232:7478   */\n      pop\n      pop\n      pop\n      jump\t// out\n        /* \"#utility.yul\":7484:7861   */\n    tag_62:\n        /* \"#utility.yul\":7572:7575   */\n      0x00\n        /* \"#utility.yul\":7600:7639   */\n      tag_148\n        /* \"#utility.yul\":7633:7638   */\n      dup3\n        /* \"#utility.yul\":7600:7639   */\n      tag_59\n      jump\t// in\n    tag_148:\n        /* \"#utility.yul\":7655:7726   */\n      tag_149\n        /* \"#utility.yul\":7719:7725   */\n      dup2\n        /* \"#utility.yul\":7714:7717   */\n      dup6\n        /* \"#utility.yul\":7655:7726   */\n      tag_60\n      jump\t// in\n    tag_149:\n        /* \"#utility.yul\":7648:7726   */\n      swap4\n      pop\n        /* \"#utility.yul\":7735:7800   */\n      tag_150\n        /* \"#utility.yul\":7793:7799   */\n      dup2\n        /* \"#utility.yul\":7788:7791   */\n      dup6\n        /* \"#utility.yul\":7781:7785   */\n      0x20\n        /* \"#utility.yul\":7774:7779   */\n      dup7\n        /* \"#utility.yul\":7770:7786   */\n      add\n        /* \"#utility.yul\":7735:7800   */\n      tag_61\n      jump\t// in\n    tag_150:\n        /* \"#utility.yul\":7825:7854   */\n      tag_151\n        /* \"#utility.yul\":7847:7853   */\n      dup2\n        /* \"#utility.yul\":7825:7854   */\n      tag_50\n      jump\t// in\n    tag_151:\n        /* \"#utility.yul\":7820:7823   */\n      dup5\n        /* \"#utility.yul\":7816:7855   */\n      add\n        /* \"#utility.yul\":7809:7855   */\n      swap2\n      pop\n        /* \"#utility.yul\":7576:7861   */\n      pop\n        /* \"#utility.yul\":7484:7861   */\n      swap3\n      swap2\n      pop\n      pop\n      jump\t// out\n        /* \"#utility.yul\":7867:8602   */\n    tag_29:\n        /* \"#utility.yul\":8084:8088   */\n      0x00\n        /* \"#utility.yul\":8122:8125   */\n      0x80\n        /* \"#utility.yul\":8111:8120   */\n      dup3\n        /* \"#utility.yul\":8107:8126   */\n      add\n        /* \"#utility.yul\":8099:8126   */\n      swap1\n      pop\n        /* \"#utility.yul\":8136:8207   */\n      tag_153\n        /* \"#utility.yul\":8204:8205   */\n      0x00\n        /* \"#utility.yul\":8193:8202   */\n      dup4\n        /* \"#utility.yul\":8189:8206   */\n      add\n        /* \"#utility.yul\":8180:8186   */\n      dup8\n        /* \"#utility.yul\":8136:8207   */\n      tag_58\n      jump\t// in\n    tag_153:\n        /* \"#utility.yul\":8217:8289   */\n      tag_154\n        /* \"#utility.yul\":8285:8287   */\n      0x20\n        /* \"#utility.yul\":8274:8283   */\n      dup4\n        /* \"#utility.yul\":8270:8288   */\n      add\n        /* \"#utility.yul\":8261:8267   */\n      dup7\n        /* \"#utility.yul\":8217:8289   */\n      tag_40\n      jump\t// in\n    tag_154:\n        /* \"#utility.yul\":8336:8345   */\n      dup2\n        /* \"#utility.yul\":8330:8334   */\n      dup2\n        /* \"#utility.yul\":8326:8346   */\n      sub\n        /* \"#utility.yul\":8321:8323   */\n      0x40\n        /* \"#utility.yul\":8310:8319   */\n      dup4\n        /* \"#utility.yul\":8306:8324   */\n      add\n        /* \"#utility.yul\":8299:8347   */\n      mstore\n        /* \"#utility.yul\":8364:8442   */\n      tag_155\n        /* \"#utility.yul\":8437:8441   */\n      dup2\n        /* \"#utility.yul\":8428:8434   */\n      dup6\n        /* \"#utility.yul\":8364:8442   */\n      tag_62\n      jump\t// in\n    tag_155:\n        /* \"#utility.yul\":8356:8442   */\n      swap1\n      pop\n        /* \"#utility.yul\":8489:8498   */\n      dup2\n        /* \"#utility.yul\":8483:8487   */\n      dup2\n        /* \"#utility.yul\":8479:8499   */\n      sub\n        /* \"#utility.yul\":8474:8476   */\n      0x60\n        /* \"#utility.yul\":8463:8472   */\n      dup4\n        /* \"#utility.yul\":8459:8477   */\n      add\n        /* \"#utility.yul\":8452:8500   */\n      mstore\n        /* \"#utility.yul\":8517:8595   */\n      tag_156\n        /* \"#utility.yul\":8590:8594   */\n      dup2\n        /* \"#utility.yul\":8581:8587   */\n      dup5\n        /* \"#utility.yul\":8517:8595   */\n      tag_62\n      jump\t// in\n    tag_156:\n        /* \"#utility.yul\":8509:8595   */\n      swap1\n      pop\n        /* \"#utility.yul\":7867:8602   */\n      swap6\n      swap5\n      pop\n      pop\n      pop\n      pop\n      pop\n      jump\t// out\n    stop\n\n    sub_0: assembly {\n            /* \"Campaign.sol\":495:3052  contract Campaign {... */\n          mstore(0x40, 0x80)\n            /* \"Campaign.sol\":1133:1371  constructor(uint minimum, address creator, string memory title, string memory description) {... */\n          callvalue\n          dup1\n          iszero\n          tag_1\n          jumpi\n          0x00\n          dup1\n          revert\n        tag_1:\n          pop\n          mload(0x40)\n          sub(codesize, bytecodeSize)\n          dup1\n          bytecodeSize\n          dup4\n          codecopy\n          dup2\n          dup2\n          add\n          0x40\n          mstore\n          dup2\n          add\n          swap1\n          tag_2\n          swap2\n          swap1\n          tag_3\n          jump\t// in\n        tag_2:\n            /* \"Campaign.sol\":1244:1251  creator */\n          dup3\n            /* \"Campaign.sol\":1234:1241  manager */\n          0x00\n          dup1\n            /* \"Campaign.sol\":1234:1251  manager = creator */\n          0x0100\n          exp\n          dup2\n          sload\n          dup2\n          0xffffffffffffffffffffffffffffffffffffffff\n          mul\n          not\n          and\n          swap1\n          dup4\n          0xffffffffffffffffffffffffffffffffffffffff\n          and\n          mul\n          or\n          swap1\n          sstore\n          pop\n            /* \"Campaign.sol\":1283:1290  minimum */\n          dup4\n            /* \"Campaign.sol\":1261:1280  minimumContribution */\n          0x03\n            /* \"Campaign.sol\":1261:1290  minimumContribution = minimum */\n          dup2\n          swap1\n          sstore\n          pop\n            /* \"Campaign.sol\":1316:1321  title */\n          dup2\n            /* \"Campaign.sol\":1300:1313  campaignTitle */\n          0x01\n            /* \"Campaign.sol\":1300:1321  campaignTitle = title */\n          swap1\n          dup2\n          tag_6\n          swap2\n          swap1\n          tag_7\n          jump\t// in\n        tag_6:\n          pop\n            /* \"Campaign.sol\":1353:1364  description */\n          dup1\n            /* \"Campaign.sol\":1331:1350  campaignDescription */\n          0x02\n            /* \"Campaign.sol\":1331:1364  campaignDescription = description */\n          swap1\n          dup2\n          tag_8\n          swap2\n          swap1\n          tag_7\n          jump\t// in\n        tag_8:\n          pop\n            /* \"Campaign.sol\":1133:1371  constructor(uint minimum, address creator, string memory title, string memory description) {... */\n          pop\n          pop\n          pop\n          pop\n            /* \"Campaign.sol\":495:3052  contract Campaign {... */\n          jump(tag_9)\n            /* \"#utility.yul\":7:82   */\n        tag_10:\n            /* \"#utility.yul\":40:46   */\n          0x00\n            /* \"#utility.yul\":73:75   */\n          0x40\n            /* \"#utility.yul\":67:76   */\n          mload\n            /* \"#utility.yul\":57:76   */\n          swap1\n          pop\n            /* \"#utility.yul\":7:82   */\n          swap1\n          jump\t// out\n            /* \"#utility.yul\":88:205   */\n        tag_11:\n            /* \"#utility.yul\":197:198   */\n          0x00\n            /* \"#utility.yul\":194:195   */\n          dup1\n            /* \"#utility.yul\":187:199   */\n          revert\n            /* \"#utility.yul\":211:328   */\n        tag_12:\n            /* \"#utility.yul\":320:321   */\n          0x00\n            /* \"#utility.yul\":317:318   */\n          dup1\n            /* \"#utility.yul\":310:322   */\n          revert\n            /* \"#utility.yul\":334:411   */\n        tag_13:\n            /* \"#utility.yul\":371:378   */\n          0x00\n            /* \"#utility.yul\":400:405   */\n          dup2\n            /* \"#utility.yul\":389:405   */\n          swap1\n          pop\n            /* \"#utility.yul\":334:411   */\n          swap2\n          swap1\n          pop\n          jump\t// out\n            /* \"#utility.yul\":417:539   */\n        tag_14:\n            /* \"#utility.yul\":490:514   */\n          tag_54\n            /* \"#utility.yul\":508:513   */\n          dup2\n            /* \"#utility.yul\":490:514   */\n          tag_13\n          jump\t// in\n        tag_54:\n            /* \"#utility.yul\":483:488   */\n          dup2\n            /* \"#utility.yul\":480:515   */\n          eq\n            /* \"#utility.yul\":470:533   */\n          tag_55\n          jumpi\n            /* \"#utility.yul\":529:530   */\n          0x00\n            /* \"#utility.yul\":526:527   */\n          dup1\n            /* \"#utility.yul\":519:531   */\n          revert\n            /* \"#utility.yul\":470:533   */\n        tag_55:\n            /* \"#utility.yul\":417:539   */\n          pop\n          jump\t// out\n            /* \"#utility.yul\":545:688   */\n        tag_15:\n            /* \"#utility.yul\":602:607   */\n          0x00\n            /* \"#utility.yul\":633:639   */\n          dup2\n            /* \"#utility.yul\":627:640   */\n          mload\n            /* \"#utility.yul\":618:640   */\n          swap1\n          pop\n            /* \"#utility.yul\":649:682   */\n          tag_57\n            /* \"#utility.yul\":676:681   */\n          dup2\n            /* \"#utility.yul\":649:682   */\n          tag_14\n          jump\t// in\n        tag_57:\n            /* \"#utility.yul\":545:688   */\n          swap3\n          swap2\n          pop\n          pop\n          jump\t// out\n            /* \"#utility.yul\":694:820   */\n        tag_16:\n            /* \"#utility.yul\":731:738   */\n          0x00\n            /* \"#utility.yul\":771:813   */\n          0xffffffffffffffffffffffffffffffffffffffff\n            /* \"#utility.yul\":764:769   */\n          dup3\n            /* \"#utility.yul\":760:814   */\n          and\n            /* \"#utility.yul\":749:814   */\n          swap1\n          pop\n            /* \"#utility.yul\":694:820   */\n          swap2\n          swap1\n          pop\n          jump\t// out\n            /* \"#utility.yul\":826:922   */\n        tag_17:\n            /* \"#utility.yul\":863:870   */\n          0x00\n            /* \"#utility.yul\":892:916   */\n          tag_60\n            /* \"#utility.yul\":910:915   */\n          dup3\n            /* \"#utility.yul\":892:916   */\n          tag_16\n          jump\t// in\n        tag_60:\n            /* \"#utility.yul\":881:916   */\n          swap1\n          pop\n            /* \"#utility.yul\":826:922   */\n          swap2\n          swap1\n          pop\n          jump\t// out\n            /* \"#utility.yul\":928:1050   */\n        tag_18:\n            /* \"#utility.yul\":1001:1025   */\n          tag_62\n            /* \"#utility.yul\":1019:1024   */\n          dup2\n            /* \"#utility.yul\":1001:1025   */\n          tag_17\n          jump\t// in\n        tag_62:\n            /* \"#utility.yul\":994:999   */\n          dup2\n            /* \"#utility.yul\":991:1026   */\n          eq\n            /* \"#utility.yul\":981:1044   */\n          tag_63\n          jumpi\n            /* \"#utility.yul\":1040:1041   */\n          0x00\n            /* \"#utility.yul\":1037:1038   */\n          dup1\n            /* \"#utility.yul\":1030:1042   */\n          revert\n            /* \"#utility.yul\":981:1044   */\n        tag_63:\n            /* \"#utility.yul\":928:1050   */\n          pop\n          jump\t// out\n            /* \"#utility.yul\":1056:1199   */\n        tag_19:\n            /* \"#utility.yul\":1113:1118   */\n          0x00\n            /* \"#utility.yul\":1144:1150   */\n          dup2\n            /* \"#utility.yul\":1138:1151   */\n          mload\n            /* \"#utility.yul\":1129:1151   */\n          swap1\n          pop\n            /* \"#utility.yul\":1160:1193   */\n          tag_65\n            /* \"#utility.yul\":1187:1192   */\n          dup2\n            /* \"#utility.yul\":1160:1193   */\n          tag_18\n          jump\t// in\n        tag_65:\n            /* \"#utility.yul\":1056:1199   */\n          swap3\n          swap2\n          pop\n          pop\n          jump\t// out\n            /* \"#utility.yul\":1205:1322   */\n        tag_20:\n            /* \"#utility.yul\":1314:1315   */\n          0x00\n            /* \"#utility.yul\":1311:1312   */\n          dup1\n            /* \"#utility.yul\":1304:1316   */\n          revert\n            /* \"#utility.yul\":1328:1445   */\n        tag_21:\n            /* \"#utility.yul\":1437:1438   */\n          0x00\n            /* \"#utility.yul\":1434:1435   */\n          dup1\n            /* \"#utility.yul\":1427:1439   */\n          revert\n            /* \"#utility.yul\":1451:1553   */\n        tag_22:\n            /* \"#utility.yul\":1492:1498   */\n          0x00\n            /* \"#utility.yul\":1543:1545   */\n          0x1f\n            /* \"#utility.yul\":1539:1546   */\n          not\n            /* \"#utility.yul\":1534:1536   */\n          0x1f\n            /* \"#utility.yul\":1527:1532   */\n          dup4\n            /* \"#utility.yul\":1523:1537   */\n          add\n            /* \"#utility.yul\":1519:1547   */\n          and\n            /* \"#utility.yul\":1509:1547   */\n          swap1\n          pop\n            /* \"#utility.yul\":1451:1553   */\n          swap2\n          swap1\n          pop\n          jump\t// out\n            /* \"#utility.yul\":1559:1739   */\n        tag_23:\n            /* \"#utility.yul\":1607:1684   */\n          0x4e487b7100000000000000000000000000000000000000000000000000000000\n            /* \"#utility.yul\":1604:1605   */\n          0x00\n            /* \"#utility.yul\":1597:1685   */\n          mstore\n            /* \"#utility.yul\":1704:1708   */\n          0x41\n            /* \"#utility.yul\":1701:1702   */\n          0x04\n            /* \"#utility.yul\":1694:1709   */\n          mstore\n            /* \"#utility.yul\":1728:1732   */\n          0x24\n            /* \"#utility.yul\":1725:1726   */\n          0x00\n            /* \"#utility.yul\":1718:1733   */\n          revert\n            /* \"#utility.yul\":1745:2026   */\n        tag_24:\n            /* \"#utility.yul\":1828:1855   */\n          tag_71\n            /* \"#utility.yul\":1850:1854   */\n          dup3\n            /* \"#utility.yul\":1828:1855   */\n          tag_22\n          jump\t// in\n        tag_71:\n            /* \"#utility.yul\":1820:1826   */\n          dup2\n            /* \"#utility.yul\":1816:1856   */\n          add\n            /* \"#utility.yul\":1958:1964   */\n          dup2\n            /* \"#utility.yul\":1946:1956   */\n          dup2\n            /* \"#utility.yul\":1943:1965   */\n          lt\n            /* \"#utility.yul\":1922:1940   */\n          0xffffffffffffffff\n            /* \"#utility.yul\":1910:1920   */\n          dup3\n            /* \"#utility.yul\":1907:1941   */\n          gt\n            /* \"#utility.yul\":1904:1966   */\n          or\n            /* \"#utility.yul\":1901:1989   */\n          iszero\n          tag_72\n          jumpi\n            /* \"#utility.yul\":1969:1987   */\n          tag_73\n          tag_23\n          jump\t// in\n        tag_73:\n            /* \"#utility.yul\":1901:1989   */\n        tag_72:\n            /* \"#utility.yul\":2009:2019   */\n          dup1\n            /* \"#utility.yul\":2005:2007   */\n          0x40\n            /* \"#utility.yul\":1998:2020   */\n          mstore\n            /* \"#utility.yul\":1788:2026   */\n          pop\n            /* \"#utility.yul\":1745:2026   */\n          pop\n          pop\n          jump\t// out\n            /* \"#utility.yul\":2032:2161   */\n        tag_25:\n            /* \"#utility.yul\":2066:2072   */\n          0x00\n            /* \"#utility.yul\":2093:2113   */\n          tag_75\n          tag_10\n          jump\t// in\n        tag_75:\n            /* \"#utility.yul\":2083:2113   */\n          swap1\n          pop\n            /* \"#utility.yul\":2122:2155   */\n          tag_76\n            /* \"#utility.yul\":2150:2154   */\n          dup3\n            /* \"#utility.yul\":2142:2148   */\n          dup3\n            /* \"#utility.yul\":2122:2155   */\n          tag_24\n          jump\t// in\n        tag_76:\n            /* \"#utility.yul\":2032:2161   */\n          swap2\n          swap1\n          pop\n          jump\t// out\n            /* \"#utility.yul\":2167:2475   */\n        tag_26:\n            /* \"#utility.yul\":2229:2233   */\n          0x00\n            /* \"#utility.yul\":2319:2337   */\n          0xffffffffffffffff\n            /* \"#utility.yul\":2311:2317   */\n          dup3\n            /* \"#utility.yul\":2308:2338   */\n          gt\n            /* \"#utility.yul\":2305:2361   */\n          iszero\n          tag_78\n          jumpi\n            /* \"#utility.yul\":2341:2359   */\n          tag_79\n          tag_23\n          jump\t// in\n        tag_79:\n            /* \"#utility.yul\":2305:2361   */\n        tag_78:\n            /* \"#utility.yul\":2379:2408   */\n          tag_80\n            /* \"#utility.yul\":2401:2407   */\n          dup3\n            /* \"#utility.yul\":2379:2408   */\n          tag_22\n          jump\t// in\n        tag_80:\n            /* \"#utility.yul\":2371:2408   */\n          swap1\n          pop\n            /* \"#utility.yul\":2463:2467   */\n          0x20\n            /* \"#utility.yul\":2457:2461   */\n          dup2\n            /* \"#utility.yul\":2453:2468   */\n          add\n            /* \"#utility.yul\":2445:2468   */\n          swap1\n          pop\n            /* \"#utility.yul\":2167:2475   */\n          swap2\n          swap1\n          pop\n          jump\t// out\n            /* \"#utility.yul\":2481:2727   */\n        tag_27:\n            /* \"#utility.yul\":2562:2563   */\n          0x00\n            /* \"#utility.yul\":2572:2685   */\n        tag_82:\n            /* \"#utility.yul\":2586:2592   */\n          dup4\n            /* \"#utility.yul\":2583:2584   */\n          dup2\n            /* \"#utility.yul\":2580:2593   */\n          lt\n            /* \"#utility.yul\":2572:2685   */\n          iszero\n          tag_84\n          jumpi\n            /* \"#utility.yul\":2671:2672   */\n          dup1\n            /* \"#utility.yul\":2666:2669   */\n          dup3\n            /* \"#utility.yul\":2662:2673   */\n          add\n            /* \"#utility.yul\":2656:2674   */\n          mload\n            /* \"#utility.yul\":2652:2653   */\n          dup2\n            /* \"#utility.yul\":2647:2650   */\n          dup5\n            /* \"#utility.yul\":2643:2654   */\n          add\n            /* \"#utility.yul\":2636:2675   */\n          mstore\n            /* \"#utility.yul\":2608:2610   */\n          0x20\n            /* \"#utility.yul\":2605:2606   */\n          dup2\n            /* \"#utility.yul\":2601:2611   */\n          add\n            /* \"#utility.yul\":2596:2611   */\n          swap1\n          pop\n            /* \"#utility.yul\":2572:2685   */\n          jump(tag_82)\n        tag_84:\n            /* \"#utility.yul\":2719:2720   */\n          0x00\n            /* \"#utility.yul\":2710:2716   */\n          dup5\n            /* \"#utility.yul\":2705:2708   */\n          dup5\n            /* \"#utility.yul\":2701:2717   */\n          add\n            /* \"#utility.yul\":2694:2721   */\n          mstore\n            /* \"#utility.yul\":2543:2727   */\n          pop\n            /* \"#utility.yul\":2481:2727   */\n          pop\n          pop\n          pop\n          jump\t// out\n            /* \"#utility.yul\":2733:3167   */\n        tag_28:\n            /* \"#utility.yul\":2822:2827   */\n          0x00\n            /* \"#utility.yul\":2847:2913   */\n          tag_86\n            /* \"#utility.yul\":2863:2912   */\n          tag_87\n            /* \"#utility.yul\":2905:2911   */\n          dup5\n            /* \"#utility.yul\":2863:2912   */\n          tag_26\n          jump\t// in\n        tag_87:\n            /* \"#utility.yul\":2847:2913   */\n          tag_25\n          jump\t// in\n        tag_86:\n            /* \"#utility.yul\":2838:2913   */\n          swap1\n          pop\n            /* \"#utility.yul\":2936:2942   */\n          dup3\n            /* \"#utility.yul\":2929:2934   */\n          dup2\n            /* \"#utility.yul\":2922:2943   */\n          mstore\n            /* \"#utility.yul\":2974:2978   */\n          0x20\n            /* \"#utility.yul\":2967:2972   */\n          dup2\n            /* \"#utility.yul\":2963:2979   */\n          add\n            /* \"#utility.yul\":3012:3015   */\n          dup5\n            /* \"#utility.yul\":3003:3009   */\n          dup5\n            /* \"#utility.yul\":2998:3001   */\n          dup5\n            /* \"#utility.yul\":2994:3010   */\n          add\n            /* \"#utility.yul\":2991:3016   */\n          gt\n            /* \"#utility.yul\":2988:3100   */\n          iszero\n          tag_88\n          jumpi\n            /* \"#utility.yul\":3019:3098   */\n          tag_89\n          tag_21\n          jump\t// in\n        tag_89:\n            /* \"#utility.yul\":2988:3100   */\n        tag_88:\n            /* \"#utility.yul\":3109:3161   */\n          tag_90\n            /* \"#utility.yul\":3154:3160   */\n          dup5\n            /* \"#utility.yul\":3149:3152   */\n          dup3\n            /* \"#utility.yul\":3144:3147   */\n          dup6\n            /* \"#utility.yul\":3109:3161   */\n          tag_27\n          jump\t// in\n        tag_90:\n            /* \"#utility.yul\":2828:3167   */\n          pop\n            /* \"#utility.yul\":2733:3167   */\n          swap4\n          swap3\n          pop\n          pop\n          pop\n          jump\t// out\n            /* \"#utility.yul\":3187:3542   */\n        tag_29:\n            /* \"#utility.yul\":3254:3259   */\n          0x00\n            /* \"#utility.yul\":3303:3306   */\n          dup3\n            /* \"#utility.yul\":3296:3300   */\n          0x1f\n            /* \"#utility.yul\":3288:3294   */\n          dup4\n            /* \"#utility.yul\":3284:3301   */\n          add\n            /* \"#utility.yul\":3280:3307   */\n          slt\n            /* \"#utility.yul\":3270:3392   */\n          tag_92\n          jumpi\n            /* \"#utility.yul\":3311:3390   */\n          tag_93\n          tag_20\n          jump\t// in\n        tag_93:\n            /* \"#utility.yul\":3270:3392   */\n        tag_92:\n            /* \"#utility.yul\":3421:3427   */\n          dup2\n            /* \"#utility.yul\":3415:3428   */\n          mload\n            /* \"#utility.yul\":3446:3536   */\n          tag_94\n            /* \"#utility.yul\":3532:3535   */\n          dup5\n            /* \"#utility.yul\":3524:3530   */\n          dup3\n            /* \"#utility.yul\":3517:3521   */\n          0x20\n            /* \"#utility.yul\":3509:3515   */\n          dup7\n            /* \"#utility.yul\":3505:3522   */\n          add\n            /* \"#utility.yul\":3446:3536   */\n          tag_28\n          jump\t// in\n        tag_94:\n            /* \"#utility.yul\":3437:3536   */\n          swap2\n          pop\n            /* \"#utility.yul\":3260:3542   */\n          pop\n            /* \"#utility.yul\":3187:3542   */\n          swap3\n          swap2\n          pop\n          pop\n          jump\t// out\n            /* \"#utility.yul\":3548:4714   */\n        tag_3:\n            /* \"#utility.yul\":3665:3671   */\n          0x00\n            /* \"#utility.yul\":3673:3679   */\n          dup1\n            /* \"#utility.yul\":3681:3687   */\n          0x00\n            /* \"#utility.yul\":3689:3695   */\n          dup1\n            /* \"#utility.yul\":3738:3741   */\n          0x80\n            /* \"#utility.yul\":3726:3735   */\n          dup6\n            /* \"#utility.yul\":3717:3724   */\n          dup8\n            /* \"#utility.yul\":3713:3736   */\n          sub\n            /* \"#utility.yul\":3709:3742   */\n          slt\n            /* \"#utility.yul\":3706:3826   */\n          iszero\n          tag_96\n          jumpi\n            /* \"#utility.yul\":3745:3824   */\n          tag_97\n          tag_11\n          jump\t// in\n        tag_97:\n            /* \"#utility.yul\":3706:3826   */\n        tag_96:\n            /* \"#utility.yul\":3865:3866   */\n          0x00\n            /* \"#utility.yul\":3890:3954   */\n          tag_98\n            /* \"#utility.yul\":3946:3953   */\n          dup8\n            /* \"#utility.yul\":3937:3943   */\n          dup3\n            /* \"#utility.yul\":3926:3935   */\n          dup9\n            /* \"#utility.yul\":3922:3944   */\n          add\n            /* \"#utility.yul\":3890:3954   */\n          tag_15\n          jump\t// in\n        tag_98:\n            /* \"#utility.yul\":3880:3954   */\n          swap5\n          pop\n            /* \"#utility.yul\":3836:3964   */\n          pop\n            /* \"#utility.yul\":4003:4005   */\n          0x20\n            /* \"#utility.yul\":4029:4093   */\n          tag_99\n            /* \"#utility.yul\":4085:4092   */\n          dup8\n            /* \"#utility.yul\":4076:4082   */\n          dup3\n            /* \"#utility.yul\":4065:4074   */\n          dup9\n            /* \"#utility.yul\":4061:4083   */\n          add\n            /* \"#utility.yul\":4029:4093   */\n          tag_19\n          jump\t// in\n        tag_99:\n            /* \"#utility.yul\":4019:4093   */\n          swap4\n          pop\n            /* \"#utility.yul\":3974:4103   */\n          pop\n            /* \"#utility.yul\":4163:4165   */\n          0x40\n            /* \"#utility.yul\":4152:4161   */\n          dup6\n            /* \"#utility.yul\":4148:4166   */\n          add\n            /* \"#utility.yul\":4142:4167   */\n          mload\n            /* \"#utility.yul\":4194:4212   */\n          0xffffffffffffffff\n            /* \"#utility.yul\":4186:4192   */\n          dup2\n            /* \"#utility.yul\":4183:4213   */\n          gt\n            /* \"#utility.yul\":4180:4297   */\n          iszero\n          tag_100\n          jumpi\n            /* \"#utility.yul\":4216:4295   */\n          tag_101\n          tag_12\n          jump\t// in\n        tag_101:\n            /* \"#utility.yul\":4180:4297   */\n        tag_100:\n            /* \"#utility.yul\":4321:4395   */\n          tag_102\n            /* \"#utility.yul\":4387:4394   */\n          dup8\n            /* \"#utility.yul\":4378:4384   */\n          dup3\n            /* \"#utility.yul\":4367:4376   */\n          dup9\n            /* \"#utility.yul\":4363:4385   */\n          add\n            /* \"#utility.yul\":4321:4395   */\n          tag_29\n          jump\t// in\n        tag_102:\n            /* \"#utility.yul\":4311:4395   */\n          swap3\n          pop\n            /* \"#utility.yul\":4113:4405   */\n          pop\n            /* \"#utility.yul\":4465:4467   */\n          0x60\n            /* \"#utility.yul\":4454:4463   */\n          dup6\n            /* \"#utility.yul\":4450:4468   */\n          add\n            /* \"#utility.yul\":4444:4469   */\n          mload\n            /* \"#utility.yul\":4496:4514   */\n          0xffffffffffffffff\n            /* \"#utility.yul\":4488:4494   */\n          dup2\n            /* \"#utility.yul\":4485:4515   */\n          gt\n            /* \"#utility.yul\":4482:4599   */\n          iszero\n          tag_103\n          jumpi\n            /* \"#utility.yul\":4518:4597   */\n          tag_104\n          tag_12\n          jump\t// in\n        tag_104:\n            /* \"#utility.yul\":4482:4599   */\n        tag_103:\n            /* \"#utility.yul\":4623:4697   */\n          tag_105\n            /* \"#utility.yul\":4689:4696   */\n          dup8\n            /* \"#utility.yul\":4680:4686   */\n          dup3\n            /* \"#utility.yul\":4669:4678   */\n          dup9\n            /* \"#utility.yul\":4665:4687   */\n          add\n            /* \"#utility.yul\":4623:4697   */\n          tag_29\n          jump\t// in\n        tag_105:\n            /* \"#utility.yul\":4613:4697   */\n          swap2\n          pop\n            /* \"#utility.yul\":4415:4707   */\n          pop\n            /* \"#utility.yul\":3548:4714   */\n          swap3\n          swap6\n          swap2\n          swap5\n          pop\n          swap3\n          pop\n          jump\t// out\n            /* \"#utility.yul\":4720:4819   */\n        tag_30:\n            /* \"#utility.yul\":4772:4778   */\n          0x00\n            /* \"#utility.yul\":4806:4811   */\n          dup2\n            /* \"#utility.yul\":4800:4812   */\n          mload\n            /* \"#utility.yul\":4790:4812   */\n          swap1\n          pop\n            /* \"#utility.yul\":4720:4819   */\n          swap2\n          swap1\n          pop\n          jump\t// out\n            /* \"#utility.yul\":4825:5005   */\n        tag_31:\n            /* \"#utility.yul\":4873:4950   */\n          0x4e487b7100000000000000000000000000000000000000000000000000000000\n            /* \"#utility.yul\":4870:4871   */\n          0x00\n            /* \"#utility.yul\":4863:4951   */\n          mstore\n            /* \"#utility.yul\":4970:4974   */\n          0x22\n            /* \"#utility.yul\":4967:4968   */\n          0x04\n            /* \"#utility.yul\":4960:4975   */\n          mstore\n            /* \"#utility.yul\":4994:4998   */\n          0x24\n            /* \"#utility.yul\":4991:4992   */\n          0x00\n            /* \"#utility.yul\":4984:4999   */\n          revert\n            /* \"#utility.yul\":5011:5331   */\n        tag_32:\n            /* \"#utility.yul\":5055:5061   */\n          0x00\n            /* \"#utility.yul\":5092:5093   */\n          0x02\n            /* \"#utility.yul\":5086:5090   */\n          dup3\n            /* \"#utility.yul\":5082:5094   */\n          div\n            /* \"#utility.yul\":5072:5094   */\n          swap1\n          pop\n            /* \"#utility.yul\":5139:5140   */\n          0x01\n            /* \"#utility.yul\":5133:5137   */\n          dup3\n            /* \"#utility.yul\":5129:5141   */\n          and\n            /* \"#utility.yul\":5160:5178   */\n          dup1\n            /* \"#utility.yul\":5150:5231   */\n          tag_109\n          jumpi\n            /* \"#utility.yul\":5216:5220   */\n          0x7f\n            /* \"#utility.yul\":5208:5214   */\n          dup3\n            /* \"#utility.yul\":5204:5221   */\n          and\n            /* \"#utility.yul\":5194:5221   */\n          swap2\n          pop\n            /* \"#utility.yul\":5150:5231   */\n        tag_109:\n            /* \"#utility.yul\":5278:5280   */\n          0x20\n            /* \"#utility.yul\":5270:5276   */\n          dup3\n            /* \"#utility.yul\":5267:5281   */\n          lt\n            /* \"#utility.yul\":5247:5265   */\n          dup2\n            /* \"#utility.yul\":5244:5282   */\n          sub\n            /* \"#utility.yul\":5241:5325   */\n          tag_110\n          jumpi\n            /* \"#utility.yul\":5297:5315   */\n          tag_111\n          tag_31\n          jump\t// in\n        tag_111:\n            /* \"#utility.yul\":5241:5325   */\n        tag_110:\n            /* \"#utility.yul\":5062:5331   */\n          pop\n            /* \"#utility.yul\":5011:5331   */\n          swap2\n          swap1\n          pop\n          jump\t// out\n            /* \"#utility.yul\":5337:5478   */\n        tag_33:\n            /* \"#utility.yul\":5386:5390   */\n          0x00\n            /* \"#utility.yul\":5409:5412   */\n          dup2\n            /* \"#utility.yul\":5401:5412   */\n          swap1\n          pop\n            /* \"#utility.yul\":5432:5435   */\n          dup2\n            /* \"#utility.yul\":5429:5430   */\n          0x00\n            /* \"#utility.yul\":5422:5436   */\n          mstore\n            /* \"#utility.yul\":5466:5470   */\n          0x20\n            /* \"#utility.yul\":5463:5464   */\n          0x00\n            /* \"#utility.yul\":5453:5471   */\n          keccak256\n            /* \"#utility.yul\":5445:5471   */\n          swap1\n          pop\n            /* \"#utility.yul\":5337:5478   */\n          swap2\n          swap1\n          pop\n          jump\t// out\n            /* \"#utility.yul\":5484:5577   */\n        tag_34:\n            /* \"#utility.yul\":5521:5527   */\n          0x00\n            /* \"#utility.yul\":5568:5570   */\n          0x20\n            /* \"#utility.yul\":5563:5565   */\n          0x1f\n            /* \"#utility.yul\":5556:5561   */\n          dup4\n            /* \"#utility.yul\":5552:5566   */\n          add\n            /* \"#utility.yul\":5548:5571   */\n          div\n            /* \"#utility.yul\":5538:5571   */\n          swap1\n          pop\n            /* \"#utility.yul\":5484:5577   */\n          swap2\n          swap1\n          pop\n          jump\t// out\n            /* \"#utility.yul\":5583:5690   */\n        tag_35:\n            /* \"#utility.yul\":5627:5635   */\n          0x00\n            /* \"#utility.yul\":5677:5682   */\n          dup3\n            /* \"#utility.yul\":5671:5675   */\n          dup3\n            /* \"#utility.yul\":5667:5683   */\n          shl\n            /* \"#utility.yul\":5646:5683   */\n          swap1\n          pop\n            /* \"#utility.yul\":5583:5690   */\n          swap3\n          swap2\n          pop\n          pop\n          jump\t// out\n            /* \"#utility.yul\":5696:6089   */\n        tag_36:\n            /* \"#utility.yul\":5765:5771   */\n          0x00\n            /* \"#utility.yul\":5815:5816   */\n          0x08\n            /* \"#utility.yul\":5803:5813   */\n          dup4\n            /* \"#utility.yul\":5799:5817   */\n          mul\n            /* \"#utility.yul\":5838:5935   */\n          tag_116\n            /* \"#utility.yul\":5868:5934   */\n          0xffffffffffffffffffffffffffffffffffffffffffffffffffffffffffffffff\n            /* \"#utility.yul\":5857:5866   */\n          dup3\n            /* \"#utility.yul\":5838:5935   */\n          tag_35\n          jump\t// in\n        tag_116:\n            /* \"#utility.yul\":5956:5995   */\n          tag_117\n            /* \"#utility.yul\":5986:5994   */\n          dup7\n            /* \"#utility.yul\":5975:5984   */\n          dup4\n            /* \"#utility.yul\":5956:5995   */\n          tag_35\n          jump\t// in\n        tag_117:\n            /* \"#utility.yul\":5944:5995   */\n          swap6\n          pop\n            /* \"#utility.yul\":6028:6032   */\n          dup1\n            /* \"#utility.yul\":6024:6033   */\n          not\n            /* \"#utility.yul\":6017:6022   */\n          dup5\n            /* \"#utility.yul\":6013:6034   */\n          and\n            /* \"#utility.yul\":6004:6034   */\n          swap4\n          pop\n            /* \"#utility.yul\":6077:6081   */\n          dup1\n            /* \"#utility.yul\":6067:6075   */\n          dup7\n            /* \"#utility.yul\":6063:6082   */\n          and\n            /* \"#utility.yul\":6056:6061   */\n          dup5\n            /* \"#utility.yul\":6053:6083   */\n          or\n            /* \"#utility.yul\":6043:6083   */\n          swap3\n          pop\n            /* \"#utility.yul\":5772:6089   */\n          pop\n          pop\n            /* \"#utility.yul\":5696:6089   */\n          swap4\n          swap3\n          pop\n          pop\n          pop\n          jump\t// out\n            /* \"#utility.yul\":6095:6155   */\n        tag_37:\n            /* \"#utility.yul\":6123:6126   */\n          0x00\n            /* \"#utility.yul\":6144:6149   */\n          dup2\n            /* \"#utility.yul\":6137:6149   */\n          swap1\n          pop\n            /* \"#utility.yul\":6095:6155   */\n          swap2\n          swap1\n          pop\n          jump\t// out\n            /* \"#utility.yul\":6161:6303   */\n        tag_38:\n            /* \"#utility.yul\":6211:6220   */\n          0x00\n            /* \"#utility.yul\":6244:6297   */\n          tag_120\n            /* \"#utility.yul\":6262:6296   */\n          tag_121\n            /* \"#utility.yul\":6271:6295   */\n          tag_122\n            /* \"#utility.yul\":6289:6294   */\n          dup5\n            /* \"#utility.yul\":6271:6295   */\n          tag_13\n          jump\t// in\n        tag_122:\n            /* \"#utility.yul\":6262:6296   */\n          tag_37\n          jump\t// in\n        tag_121:\n            /* \"#utility.yul\":6244:6297   */\n          tag_13\n          jump\t// in\n        tag_120:\n            /* \"#utility.yul\":6231:6297   */\n          swap1\n          pop\n            /* \"#utility.yul\":6161:6303   */\n          swap2\n          swap1\n          pop\n          jump\t// out\n            /* \"#utility.yul\":6309:6384   */\n        tag_39:\n            /* \"#utility.yul\":6352:6355   */\n          0x00\n            /* \"#utility.yul\":6373:6378   */\n          dup2\n            /* \"#utility.yul\":6366:6378   */\n          swap1\n          pop\n            /* \"#utility.yul\":6309:6384   */\n          swap2\n          swap1\n          pop\n          jump\t// out\n            /* \"#utility.yul\":6390:6659   */\n        tag_40:\n            /* \"#utility.yul\":6500:6539   */\n          tag_125\n            /* \"#utility.yul\":6531:6538   */\n          dup4\n            /* \"#utility.yul\":6500:6539   */\n          tag_38\n          jump\t// in\n        tag_125:\n            /* \"#utility.yul\":6561:6652   */\n          tag_126\n            /* \"#utility.yul\":6610:6651   */\n          tag_127\n            /* \"#utility.yul\":6634:6650   */\n          dup3\n            /* \"#utility.yul\":6610:6651   */\n          tag_39\n          jump\t// in\n        tag_127:\n            /* \"#utility.yul\":6602:6608   */\n          dup5\n            /* \"#utility.yul\":6595:6599   */\n          dup5\n            /* \"#utility.yul\":6589:6600   */\n          sload\n            /* \"#utility.yul\":6561:6652   */\n          tag_36\n          jump\t// in\n        tag_126:\n            /* \"#utility.yul\":6555:6559   */\n          dup3\n            /* \"#utility.yul\":6548:6653   */\n          sstore\n            /* \"#utility.yul\":6466:6659   */\n          pop\n            /* \"#utility.yul\":6390:6659   */\n          pop\n          pop\n          pop\n          jump\t// out\n            /* \"#utility.yul\":6665:6738   */\n        tag_41:\n            /* \"#utility.yul\":6710:6713   */\n          0x00\n            /* \"#utility.yul\":6665:6738   */\n          swap1\n          jump\t// out\n            /* \"#utility.yul\":6744:6933   */\n        tag_42:\n            /* \"#utility.yul\":6821:6853   */\n          tag_130\n          tag_41\n          jump\t// in\n        tag_130:\n            /* \"#utility.yul\":6862:6927   */\n          tag_131\n            /* \"#utility.yul\":6920:6926   */\n          dup2\n            /* \"#utility.yul\":6912:6918   */\n          dup5\n            /* \"#utility.yul\":6906:6910   */\n          dup5\n            /* \"#utility.yul\":6862:6927   */\n          tag_40\n          jump\t// in\n        tag_131:\n            /* \"#utility.yul\":6797:6933   */\n          pop\n            /* \"#utility.yul\":6744:6933   */\n          pop\n          pop\n          jump\t// out\n            /* \"#utility.yul\":6939:7125   */\n        tag_43:\n            /* \"#utility.yul\":6999:7119   */\n        tag_133:\n            /* \"#utility.yul\":7016:7019   */\n          dup2\n            /* \"#utility.yul\":7009:7014   */\n          dup2\n            /* \"#utility.yul\":7006:7020   */\n          lt\n            /* \"#utility.yul\":6999:7119   */\n          iszero\n          tag_135\n          jumpi\n            /* \"#utility.yul\":7070:7109   */\n          tag_136\n            /* \"#utility.yul\":7107:7108   */\n          0x00\n            /* \"#utility.yul\":7100:7105   */\n          dup3\n            /* \"#utility.yul\":7070:7109   */\n          tag_42\n          jump\t// in\n        tag_136:\n            /* \"#utility.yul\":7043:7044   */\n          0x01\n            /* \"#utility.yul\":7036:7041   */\n          dup2\n            /* \"#utility.yul\":7032:7045   */\n          add\n            /* \"#utility.yul\":7023:7045   */\n          swap1\n          pop\n            /* \"#utility.yul\":6999:7119   */\n          jump(tag_133)\n        tag_135:\n            /* \"#utility.yul\":6939:7125   */\n          pop\n          pop\n          jump\t// out\n            /* \"#utility.yul\":7131:7674   */\n        tag_44:\n            /* \"#utility.yul\":7232:7234   */\n          0x1f\n            /* \"#utility.yul\":7227:7230   */\n          dup3\n            /* \"#utility.yul\":7224:7235   */\n          gt\n            /* \"#utility.yul\":7221:7667   */\n          iszero\n          tag_138\n          jumpi\n            /* \"#utility.yul\":7266:7304   */\n          tag_139\n            /* \"#utility.yul\":7298:7303   */\n          dup2\n            /* \"#utility.yul\":7266:7304   */\n          tag_33\n          jump\t// in\n        tag_139:\n            /* \"#utility.yul\":7350:7379   */\n          tag_140\n            /* \"#utility.yul\":7368:7378   */\n          dup5\n            /* \"#utility.yul\":7350:7379   */\n          tag_34\n          jump\t// in\n        tag_140:\n            /* \"#utility.yul\":7340:7348   */\n          dup2\n            /* \"#utility.yul\":7336:7380   */\n          add\n            /* \"#utility.yul\":7533:7535   */\n          0x20\n            /* \"#utility.yul\":7521:7531   */\n          dup6\n            /* \"#utility.yul\":7518:7536   */\n          lt\n            /* \"#utility.yul\":7515:7564   */\n          iszero\n          tag_141\n          jumpi\n            /* \"#utility.yul\":7554:7562   */\n          dup2\n            /* \"#utility.yul\":7539:7562   */\n          swap1\n          pop\n            /* \"#utility.yul\":7515:7564   */\n        tag_141:\n            /* \"#utility.yul\":7577:7657   */\n          tag_142\n            /* \"#utility.yul\":7633:7655   */\n          tag_143\n            /* \"#utility.yul\":7651:7654   */\n          dup6\n            /* \"#utility.yul\":7633:7655   */\n          tag_34\n          jump\t// in\n        tag_143:\n            /* \"#utility.yul\":7623:7631   */\n          dup4\n            /* \"#utility.yul\":7619:7656   */\n          add\n            /* \"#utility.yul\":7606:7617   */\n          dup3\n            /* \"#utility.yul\":7577:7657   */\n          tag_43\n          jump\t// in\n        tag_142:\n            /* \"#utility.yul\":7236:7667   */\n          pop\n          pop\n            /* \"#utility.yul\":7221:7667   */\n        tag_138:\n            /* \"#utility.yul\":7131:7674   */\n          pop\n          pop\n          pop\n          jump\t// out\n            /* \"#utility.yul\":7680:7797   */\n        tag_45:\n            /* \"#utility.yul\":7734:7742   */\n          0x00\n            /* \"#utility.yul\":7784:7789   */\n          dup3\n            /* \"#utility.yul\":7778:7782   */\n          dup3\n            /* \"#utility.yul\":7774:7790   */\n          shr\n            /* \"#utility.yul\":7753:7790   */\n          swap1\n          pop\n            /* \"#utility.yul\":7680:7797   */\n          swap3\n          swap2\n          pop\n          pop\n          jump\t// out\n            /* \"#utility.yul\":7803:7972   */\n        tag_46:\n            /* \"#utility.yul\":7847:7853   */\n          0x00\n            /* \"#utility.yul\":7880:7931   */\n          tag_146\n            /* \"#utility.yul\":7928:7929   */\n          0x00\n            /* \"#utility.yul\":7924:7930   */\n          not\n            /* \"#utility.yul\":7916:7921   */\n          dup5\n            /* \"#utility.yul\":7913:7914   */\n          0x08\n            /* \"#utility.yul\":7909:7922   */\n          mul\n            /* \"#utility.yul\":7880:7931   */\n          tag_45\n          jump\t// in\n        tag_146:\n            /* \"#utility.yul\":7876:7932   */\n          not\n            /* \"#utility.yul\":7961:7965   */\n          dup1\n            /* \"#utility.yul\":7955:7959   */\n          dup4\n            /* \"#utility.yul\":7951:7966   */\n          and\n            /* \"#utility.yul\":7941:7966   */\n          swap2\n          pop\n            /* \"#utility.yul\":7854:7972   */\n          pop\n            /* \"#utility.yul\":7803:7972   */\n          swap3\n          swap2\n          pop\n          pop\n          jump\t// out\n            /* \"#utility.yul\":7977:8272   */\n        tag_47:\n            /* \"#utility.yul\":8053:8057   */\n          0x00\n            /* \"#utility.yul\":8199:8228   */\n          tag_148\n            /* \"#utility.yul\":8224:8227   */\n          dup4\n            /* \"#utility.yul\":8218:8222   */\n          dup4\n            /* \"#utility.yul\":8199:8228   */\n          tag_46\n          jump\t// in\n        tag_148:\n            /* \"#utility.yul\":8191:8228   */\n          swap2\n          pop\n            /* \"#utility.yul\":8261:8264   */\n          dup3\n            /* \"#utility.yul\":8258:8259   */\n          0x02\n            /* \"#utility.yul\":8254:8265   */\n          mul\n            /* \"#utility.yul\":8248:8252   */\n          dup3\n            /* \"#utility.yul\":8245:8266   */\n          or\n            /* \"#utility.yul\":8237:8266   */\n          swap1\n          pop\n            /* \"#utility.yul\":7977:8272   */\n          swap3\n          swap2\n          pop\n          pop\n          jump\t// out\n            /* \"#utility.yul\":8277:9672   */\n        tag_7:\n            /* \"#utility.yul\":8394:8431   */\n          tag_150\n            /* \"#utility.yul\":8427:8430   */\n          dup3\n            /* \"#utility.yul\":8394:8431   */\n          tag_30\n          jump\t// in\n        tag_150:\n            /* \"#utility.yul\":8496:8514   */\n          0xffffffffffffffff\n            /* \"#utility.yul\":8488:8494   */\n          dup2\n            /* \"#utility.yul\":8485:8515   */\n          gt\n            /* \"#utility.yul\":8482:8538   */\n          iszero\n          tag_151\n          jumpi\n            /* \"#utility.yul\":8518:8536   */\n          tag_152\n          tag_23\n          jump\t// in\n        tag_152:\n            /* \"#utility.yul\":8482:8538   */\n        tag_151:\n            /* \"#utility.yul\":8562:8600   */\n          tag_153\n            /* \"#utility.yul\":8594:8598   */\n          dup3\n            /* \"#utility.yul\":8588:8599   */\n          sload\n            /* \"#utility.yul\":8562:8600   */\n          tag_32\n          jump\t// in\n        tag_153:\n            /* \"#utility.yul\":8647:8714   */\n          tag_154\n            /* \"#utility.yul\":8707:8713   */\n          dup3\n            /* \"#utility.yul\":8699:8705   */\n          dup3\n            /* \"#utility.yul\":8693:8697   */\n          dup6\n            /* \"#utility.yul\":8647:8714   */\n          tag_44\n          jump\t// in\n        tag_154:\n            /* \"#utility.yul\":8741:8742   */\n          0x00\n            /* \"#utility.yul\":8765:8769   */\n          0x20\n            /* \"#utility.yul\":8752:8769   */\n          swap1\n          pop\n            /* \"#utility.yul\":8797:8799   */\n          0x1f\n            /* \"#utility.yul\":8789:8795   */\n          dup4\n            /* \"#utility.yul\":8786:8800   */\n          gt\n            /* \"#utility.yul\":8814:8815   */\n          0x01\n            /* \"#utility.yul\":8809:9427   */\n          dup2\n          eq\n          tag_156\n          jumpi\n            /* \"#utility.yul\":9471:9472   */\n          0x00\n            /* \"#utility.yul\":9488:9494   */\n          dup5\n            /* \"#utility.yul\":9485:9562   */\n          iszero\n          tag_157\n          jumpi\n            /* \"#utility.yul\":9537:9546   */\n          dup3\n            /* \"#utility.yul\":9532:9535   */\n          dup8\n            /* \"#utility.yul\":9528:9547   */\n          add\n            /* \"#utility.yul\":9522:9548   */\n          mload\n            /* \"#utility.yul\":9513:9548   */\n          swap1\n          pop\n            /* \"#utility.yul\":9485:9562   */\n        tag_157:\n            /* \"#utility.yul\":9588:9655   */\n          tag_158\n            /* \"#utility.yul\":9648:9654   */\n          dup6\n            /* \"#utility.yul\":9641:9646   */\n          dup3\n            /* \"#utility.yul\":9588:9655   */\n          tag_47\n          jump\t// in\n        tag_158:\n            /* \"#utility.yul\":9582:9586   */\n          dup7\n            /* \"#utility.yul\":9575:9656   */\n          sstore\n            /* \"#utility.yul\":9444:9666   */\n          pop\n            /* \"#utility.yul\":8779:9666   */\n          jump(tag_155)\n            /* \"#utility.yul\":8809:9427   */\n        tag_156:\n            /* \"#utility.yul\":8861:8865   */\n          0x1f\n            /* \"#utility.yul\":8857:8866   */\n          not\n            /* \"#utility.yul\":8849:8855   */\n          dup5\n            /* \"#utility.yul\":8845:8867   */\n          and\n            /* \"#utility.yul\":8895:8932   */\n          tag_159\n            /* \"#utility.yul\":8927:8931   */\n          dup7\n            /* \"#utility.yul\":8895:8932   */\n          tag_33\n          jump\t// in\n        tag_159:\n            /* \"#utility.yul\":8954:8955   */\n          0x00\n            /* \"#utility.yul\":8968:9176   */\n        tag_160:\n            /* \"#utility.yul\":8982:8989   */\n          dup3\n            /* \"#utility.yul\":8979:8980   */\n          dup2\n            /* \"#utility.yul\":8976:8990   */\n          lt\n            /* \"#utility.yul\":8968:9176   */\n          iszero\n          tag_162\n          jumpi\n            /* \"#utility.yul\":9061:9070   */\n          dup5\n            /* \"#utility.yul\":9056:9059   */\n          dup10\n            /* \"#utility.yul\":9052:9071   */\n          add\n            /* \"#utility.yul\":9046:9072   */\n          mload\n            /* \"#utility.yul\":9038:9044   */\n          dup3\n            /* \"#utility.yul\":9031:9073   */\n          sstore\n            /* \"#utility.yul\":9112:9113   */\n          0x01\n            /* \"#utility.yul\":9104:9110   */\n          dup3\n            /* \"#utility.yul\":9100:9114   */\n          add\n            /* \"#utility.yul\":9090:9114   */\n          swap2\n          pop\n            /* \"#utility.yul\":9159:9161   */\n          0x20\n            /* \"#utility.yul\":9148:9157   */\n          dup6\n            /* \"#utility.yul\":9144:9162   */\n          add\n            /* \"#utility.yul\":9131:9162   */\n          swap5\n          pop\n            /* \"#utility.yul\":9005:9009   */\n          0x20\n            /* \"#utility.yul\":9002:9003   */\n          dup2\n            /* \"#utility.yul\":8998:9010   */\n          add\n            /* \"#utility.yul\":8993:9010   */\n          swap1\n          pop\n            /* \"#utility.yul\":8968:9176   */\n          jump(tag_160)\n        tag_162:\n            /* \"#utility.yul\":9204:9210   */\n          dup7\n            /* \"#utility.yul\":9195:9202   */\n          dup4\n            /* \"#utility.yul\":9192:9211   */\n          lt\n            /* \"#utility.yul\":9189:9368   */\n          iszero\n          tag_163\n          jumpi\n            /* \"#utility.yul\":9262:9271   */\n          dup5\n            /* \"#utility.yul\":9257:9260   */\n          dup10\n            /* \"#utility.yul\":9253:9272   */\n          add\n            /* \"#utility.yul\":9247:9273   */\n          mload\n            /* \"#utility.yul\":9305:9353   */\n          tag_164\n            /* \"#utility.yul\":9347:9351   */\n          0x1f\n            /* \"#utility.yul\":9339:9345   */\n          dup10\n            /* \"#utility.yul\":9335:9352   */\n          and\n            /* \"#utility.yul\":9324:9333   */\n          dup3\n            /* \"#utility.yul\":9305:9353   */\n          tag_46\n          jump\t// in\n        tag_164:\n            /* \"#utility.yul\":9297:9303   */\n          dup4\n            /* \"#utility.yul\":9290:9354   */\n          sstore\n            /* \"#utility.yul\":9212:9368   */\n          pop\n            /* \"#utility.yul\":9189:9368   */\n        tag_163:\n            /* \"#utility.yul\":9414:9415   */\n          0x01\n            /* \"#utility.yul\":9410:9411   */\n          0x02\n            /* \"#utility.yul\":9402:9408   */\n          dup9\n            /* \"#utility.yul\":9398:9412   */\n          mul\n            /* \"#utility.yul\":9394:9416   */\n          add\n            /* \"#utility.yul\":9388:9392   */\n          dup9\n            /* \"#utility.yul\":9381:9417   */\n          sstore\n            /* \"#utility.yul\":8816:9427   */\n          pop\n          pop\n          pop\n            /* \"#utility.yul\":8779:9666   */\n        tag_155:\n          pop\n            /* \"#utility.yul\":8369:9672   */\n          pop\n          pop\n          pop\n            /* \"#utility.yul\":8277:9672   */\n          pop\n          pop\n          jump\t// out\n            /* \"Campaign.sol\":495:3052  contract Campaign {... */\n        tag_9:\n          dataSize(sub_0)\n          dup1\n          dataOffset(sub_0)\n          0x00\n          codecopy\n          0x00\n          return\n        stop\n\n        sub_0: assembly {\n                /* \"Campaign.sol\":495:3052  contract Campaign {... */\n              mstore(0x40, 0x80)\n              jumpi(tag_1, lt(calldatasize, 0x04))\n              shr(0xe0, calldataload(0x00))\n              dup1\n              0x81d12c58\n              gt\n              tag_16\n              jumpi\n              dup1\n              0x8a9cfd55\n              gt\n              tag_17\n              jumpi\n              dup1\n              0x8a9cfd55\n              eq\n              tag_12\n              jumpi\n              dup1\n              0x937e09b1\n              eq\n              tag_13\n              jumpi\n              dup1\n              0xd7bb99ba\n              eq\n              tag_14\n              jumpi\n              dup1\n              0xd7d1bbdb\n              eq\n              tag_15\n              jumpi\n              jump(tag_1)\n            tag_17:\n              dup1\n              0x81d12c58\n              eq\n              tag_9\n              jumpi\n              dup1\n              0x82fde093\n              eq\n              tag_10\n              jumpi\n              dup1\n              0x835a6172\n              eq\n              tag_11\n              jumpi\n              jump(tag_1)\n            tag_16:\n              dup1\n              0x33f449e5\n              gt\n              tag_18\n              jumpi\n              dup1\n              0x33f449e5\n              eq\n              tag_5\n              jumpi\n              dup1\n              0x3410452a\n              eq\n              tag_6\n              jumpi\n              dup1\n              0x4051ddac\n              eq\n              tag_7\n              jumpi\n              dup1\n              0x481c6a75\n              eq\n              tag_8\n              jumpi\n              jump(tag_1)\n            tag_18:\n              dup1\n              0x03441006\n              eq\n              tag_2\n              jumpi\n              dup1\n              0x0a144391\n              eq\n              tag_3\n              jumpi\n              dup1\n              0x110842cb\n              eq\n              tag_4\n              jumpi\n            tag_1:\n              0x00\n              dup1\n              revert\n                /* \"Campaign.sol\":2407:2758  function finalizeRequest(uint index) public restricted {... */\n            tag_2:\n              callvalue\n              dup1\n              iszero\n              tag_19\n              jumpi\n              0x00\n              dup1\n              revert\n            tag_19:\n              pop\n              tag_20\n              0x04\n              dup1\n              calldatasize\n              sub\n              dup2\n              add\n              swap1\n              tag_21\n              swap2\n              swap1\n              tag_22\n              jump\t// in\n            tag_21:\n              tag_23\n              jump\t// in\n            tag_20:\n              stop\n                /* \"Campaign.sol\":835:876  mapping(address => bool) public approvers */\n            tag_3:\n              callvalue\n              dup1\n              iszero\n              tag_24\n              jumpi\n              0x00\n              dup1\n              revert\n            tag_24:\n              pop\n              tag_25\n              0x04\n              dup1\n              calldatasize\n              sub\n              dup2\n              add\n              swap1\n              tag_26\n              swap2\n              swap1\n              tag_27\n              jump\t// in\n            tag_26:\n              tag_28\n              jump\t// in\n            tag_25:\n              mload(0x40)\n              tag_29\n              swap2\n              swap1\n              tag_30\n              jump\t// in\n            tag_29:\n              mload(0x40)\n              dup1\n              swap2\n              sub\n              swap1\n              return\n                /* \"Campaign.sol\":759:792  string public campaignDescription */\n            tag_4:\n              callvalue\n              dup1\n              iszero\n              tag_31\n              jumpi\n              0x00\n              dup1\n              revert\n            tag_31:\n              pop\n              tag_32\n              tag_33\n              jump\t// in\n            tag_32:\n              mload(0x40)\n              tag_34\n              swap2\n              swap1\n              tag_35\n              jump\t// in\n            tag_34:\n              mload(0x40)\n              dup1\n              swap2\n              sub\n              swap1\n              return\n                /* \"Campaign.sol\":914:980  mapping(uint => mapping(address => bool)) public approvedAddresses */\n            tag_5:\n              callvalue\n              dup1\n              iszero\n              tag_36\n              jumpi\n              0x00\n              dup1\n              revert\n            tag_36:\n              pop\n              tag_37\n              0x04\n              dup1\n              calldatasize\n              sub\n              dup2\n              add\n              swap1\n              tag_38\n              swap2\n              swap1\n              tag_39\n              jump\t// in\n            tag_38:\n              tag_40\n              jump\t// in\n            tag_37:\n              mload(0x40)\n              tag_41\n              swap2\n              swap1\n              tag_30\n              jump\t// in\n            tag_41:\n              mload(0x40)\n              dup1\n              swap2\n              sub\n              swap1\n              return\n                /* \"Campaign.sol\":2956:3050  function getRequestsCount() public view returns (uint) {... */\n            tag_6:\n              callvalue\n              dup1\n              iszero\n              tag_42\n              jumpi\n              0x00\n              dup1\n              revert\n            tag_42:\n              pop\n              tag_43\n              tag_44\n              jump\t// in\n            tag_43:\n              mload(0x40)\n              tag_45\n              swap2\n              swap1\n              tag_46\n              jump\t// in\n            tag_45:\n              mload(0x40)\n              dup1\n              swap2\n              sub\n              swap1\n              return\n                /* \"Campaign.sol\":2764:2950  function getSummary() public view returns (uint, uint, uint, uint, address) {... */\n            tag_7:\n              callvalue\n              dup1\n              iszero\n              tag_47\n              jumpi\n              0x00\n              dup1\n              revert\n            tag_47:\n              pop\n              tag_48\n              tag_49\n              jump\t// in\n            tag_48:\n              mload(0x40)\n              tag_50\n              swap6\n              swap5\n              swap4\n              swap3\n              swap2\n              swap1\n              tag_51\n              jump\t// in\n            tag_50:\n              mload(0x40)\n              dup1\n              swap2\n              sub\n              swap1\n              return\n                /* \"Campaign.sol\":698:720  address public manager */\n            tag_8:\n              callvalue\n              dup1\n              iszero\n              tag_52\n              jumpi\n              0x00\n              dup1\n              revert\n            tag_52:\n              pop\n              tag_53\n              tag_54\n              jump\t// in\n            tag_53:\n              mload(0x40)\n              tag_55\n              swap2\n              swap1\n              tag_56\n              jump\t// in\n            tag_55:\n              mload(0x40)\n              dup1\n              swap2\n              sub\n              swap1\n              return\n                /* \"Campaign.sol\":986:1011  Request[] public requests */\n            tag_9:\n              callvalue\n              dup1\n              iszero\n              tag_57\n              jumpi\n              0x00\n              dup1\n              revert\n            tag_57:\n              pop\n              tag_58\n              0x04\n              dup1\n              calldatasize\n              sub\n              dup2\n              add\n              swap1\n              tag_59\n              swap2\n              swap1\n              tag_22\n              jump\t// in\n            tag_59:\n              tag_60\n              jump\t// in\n            tag_58:\n              mload(0x40)\n              tag_61\n              swap6\n              swap5\n              swap4\n              swap3\n              swap2\n              swap1\n              tag_62\n              jump\t// in\n            tag_61:\n              mload(0x40)\n              dup1\n              swap2\n              sub\n              swap1\n              return\n                /* \"Campaign.sol\":882:908  uint public approversCount */\n            tag_10:\n              callvalue\n              dup1\n              iszero\n              tag_63\n              jumpi\n              0x00\n              dup1\n              revert\n            tag_63:\n              pop\n              tag_64\n              tag_65\n              jump\t// in\n            tag_64:\n              mload(0x40)\n              tag_66\n              swap2\n              swap1\n              tag_46\n              jump\t// in\n            tag_66:\n              mload(0x40)\n              dup1\n              swap2\n              sub\n              swap1\n              return\n                /* \"Campaign.sol\":726:753  string public campaignTitle */\n            tag_11:\n              callvalue\n              dup1\n              iszero\n              tag_67\n              jumpi\n              0x00\n              dup1\n              revert\n            tag_67:\n              pop\n              tag_68\n              tag_69\n              jump\t// in\n            tag_68:\n              mload(0x40)\n              tag_70\n              swap2\n              swap1\n              tag_35\n              jump\t// in\n            tag_70:\n              mload(0x40)\n              dup1\n              swap2\n              sub\n              swap1\n              return\n                /* \"Campaign.sol\":1707:2154  function createRequest(string memory description, uint value, address payable recipient) public restricted {... */\n            tag_12:\n              callvalue\n              dup1\n              iszero\n              tag_71\n              jumpi\n              0x00\n              dup1\n              revert\n            tag_71:\n              pop\n              tag_72\n              0x04\n              dup1\n              calldatasize\n              sub\n              dup2\n              add\n              swap1\n              tag_73\n              swap2\n              swap1\n              tag_74\n              jump\t// in\n            tag_73:\n              tag_75\n              jump\t// in\n            tag_72:\n              stop\n                /* \"Campaign.sol\":798:829  uint public minimumContribution */\n            tag_13:\n              callvalue\n              dup1\n              iszero\n              tag_76\n              jumpi\n              0x00\n              dup1\n              revert\n            tag_76:\n              pop\n              tag_77\n              tag_78\n              jump\t// in\n            tag_77:\n              mload(0x40)\n              tag_79\n              swap2\n              swap1\n              tag_46\n              jump\t// in\n            tag_79:\n              mload(0x40)\n              dup1\n              swap2\n              sub\n              swap1\n              return\n                /* \"Campaign.sol\":1377:1701  function contribute() public payable {... */\n            tag_14:\n              tag_80\n              tag_81\n              jump\t// in\n            tag_80:\n              stop\n                /* \"Campaign.sol\":2160:2401  function approveRequest(uint index) public {... */\n            tag_15:\n              callvalue\n              dup1\n              iszero\n              tag_82\n              jumpi\n              0x00\n              dup1\n              revert\n            tag_82:\n              pop\n              tag_83\n              0x04\n              dup1\n              calldatasize\n              sub\n              dup2\n              add\n              swap1\n              tag_84\n              swap2\n              swap1\n              tag_22\n              jump\t// in\n            tag_84:\n              tag_85\n              jump\t// in\n            tag_83:\n              stop\n                /* \"Campaign.sol\":2407:2758  function finalizeRequest(uint index) public restricted {... */\n            tag_23:\n                /* \"Campaign.sol\":1072:1079  manager */\n              0x00\n              dup1\n              sload\n              swap1\n              0x0100\n              exp\n              swap1\n              div\n              0xffffffffffffffffffffffffffffffffffffffff\n              and\n                /* \"Campaign.sol\":1058:1079  msg.sender == manager */\n              0xffffffffffffffffffffffffffffffffffffffff\n              and\n                /* \"Campaign.sol\":1058:1068  msg.sender */\n              caller\n                /* \"Campaign.sol\":1058:1079  msg.sender == manager */\n              0xffffffffffffffffffffffffffffffffffffffff\n              and\n              eq\n                /* \"Campaign.sol\":1050:1109  require(msg.sender == manager, \"Caller is not the manager\") */\n              tag_87\n              jumpi\n              mload(0x40)\n              0x08c379a000000000000000000000000000000000000000000000000000000000\n              dup2\n              mstore\n              0x04\n              add\n              tag_88\n              swap1\n              tag_89\n              jump\t// in\n            tag_88:\n              mload(0x40)\n              dup1\n              swap2\n              sub\n              swap1\n              revert\n            tag_87:\n                /* \"Campaign.sol\":2472:2495  Request storage request */\n              0x00\n                /* \"Campaign.sol\":2498:2506  requests */\n              0x07\n                /* \"Campaign.sol\":2507:2512  index */\n              dup3\n                /* \"Campaign.sol\":2498:2513  requests[index] */\n              dup2\n              sload\n              dup2\n              lt\n              tag_91\n              jumpi\n              tag_92\n              tag_93\n              jump\t// in\n            tag_92:\n            tag_91:\n              swap1\n              0x00\n              mstore\n              keccak256(0x00, 0x20)\n              swap1\n              0x04\n              mul\n              add\n                /* \"Campaign.sol\":2472:2513  Request storage request = requests[index] */\n              swap1\n              pop\n                /* \"Campaign.sol\":2574:2575  2 */\n              0x02\n                /* \"Campaign.sol\":2557:2571  approversCount */\n              sload(0x05)\n                /* \"Campaign.sol\":2557:2575  approversCount / 2 */\n              tag_95\n              swap2\n              swap1\n              tag_96\n              jump\t// in\n            tag_95:\n                /* \"Campaign.sol\":2532:2539  request */\n              dup2\n                /* \"Campaign.sol\":2532:2553  request.approvalCount */\n              0x03\n              add\n              sload\n                /* \"Campaign.sol\":2532:2576  request.approvalCount > (approversCount / 2) */\n              gt\n                /* \"Campaign.sol\":2524:2601  require(request.approvalCount > (approversCount / 2), \"Not enough approvals\") */\n              tag_97\n              jumpi\n              mload(0x40)\n              0x08c379a000000000000000000000000000000000000000000000000000000000\n              dup2\n              mstore\n              0x04\n              add\n              tag_98\n              swap1\n              tag_99\n              jump\t// in\n            tag_98:\n              mload(0x40)\n              dup1\n              swap2\n              sub\n              swap1\n              revert\n            tag_97:\n                /* \"Campaign.sol\":2620:2627  request */\n              dup1\n                /* \"Campaign.sol\":2620:2636  request.complete */\n              0x02\n              add\n              0x14\n              swap1\n              sload\n              swap1\n              0x0100\n              exp\n              swap1\n              div\n              0xff\n              and\n                /* \"Campaign.sol\":2619:2636  !request.complete */\n              iszero\n                /* \"Campaign.sol\":2611:2666  require(!request.complete, \"Request already finalized\") */\n              tag_100\n              jumpi\n              mload(0x40)\n              0x08c379a000000000000000000000000000000000000000000000000000000000\n              dup2\n              mstore\n              0x04\n              add\n              tag_101\n              swap1\n              tag_102\n              jump\t// in\n            tag_101:\n              mload(0x40)\n              dup1\n              swap2\n              sub\n              swap1\n              revert\n            tag_100:\n                /* \"Campaign.sol\":2677:2684  request */\n              dup1\n                /* \"Campaign.sol\":2677:2694  request.recipient */\n              0x02\n              add\n              0x00\n              swap1\n              sload\n              swap1\n              0x0100\n              exp\n              swap1\n              div\n              0xffffffffffffffffffffffffffffffffffffffff\n              and\n                /* \"Campaign.sol\":2677:2703  request.recipient.transfer */\n              0xffffffffffffffffffffffffffffffffffffffff\n              and\n                /* \"Campaign.sol\":2677:2718  request.recipient.transfer(request.value) */\n              0x08fc\n                /* \"Campaign.sol\":2704:2711  request */\n              dup3\n                /* \"Campaign.sol\":2704:2717  request.value */\n              0x01\n              add\n              sload\n                /* \"Campaign.sol\":2677:2718  request.recipient.transfer(request.value) */\n              swap1\n              dup2\n              iszero\n              mul\n              swap1\n              mload(0x40)\n              0x00\n              mload(0x40)\n              dup1\n              dup4\n              sub\n              dup2\n              dup6\n              dup9\n              dup9\n              call\n              swap4\n              pop\n              pop\n              pop\n              pop\n              iszero\n              dup1\n              iszero\n              tag_104\n              jumpi\n              returndatasize\n              0x00\n              dup1\n              returndatacopy\n              revert(0x00, returndatasize)\n            tag_104:\n              pop\n                /* \"Campaign.sol\":2747:2751  true */\n              0x01\n                /* \"Campaign.sol\":2728:2735  request */\n              dup2\n                /* \"Campaign.sol\":2728:2744  request.complete */\n              0x02\n              add\n              0x14\n                /* \"Campaign.sol\":2728:2751  request.complete = true */\n              0x0100\n              exp\n              dup2\n              sload\n              dup2\n              0xff\n              mul\n              not\n              and\n              swap1\n              dup4\n              iszero\n              iszero\n              mul\n              or\n              swap1\n              sstore\n              pop\n                /* \"Campaign.sol\":2462:2758  {... */\n              pop\n                /* \"Campaign.sol\":2407:2758  function finalizeRequest(uint index) public restricted {... */\n              pop\n              jump\t// out\n                /* \"Campaign.sol\":835:876  mapping(address => bool) public approvers */\n            tag_28:\n              mstore(0x20, 0x04)\n              dup1\n              0x00\n              mstore\n              keccak256(0x00, 0x40)\n              0x00\n              swap2\n              pop\n              sload\n              swap1\n              0x0100\n              exp\n              swap1\n              div\n              0xff\n              and\n              dup2\n              jump\t// out\n                /* \"Campaign.sol\":759:792  string public campaignDescription */\n            tag_33:\n              0x02\n              dup1\n              sload\n              tag_105\n              swap1\n              tag_106\n              jump\t// in\n            tag_105:\n              dup1\n              0x1f\n              add\n              0x20\n              dup1\n              swap2\n              div\n              mul\n              0x20\n              add\n              mload(0x40)\n              swap1\n              dup2\n              add\n              0x40\n              mstore\n              dup1\n              swap3\n              swap2\n              swap1\n              dup2\n              dup2\n              mstore\n              0x20\n              add\n              dup3\n              dup1\n              sload\n              tag_107\n              swap1\n              tag_106\n              jump\t// in\n            tag_107:\n              dup1\n              iszero\n              tag_108\n              jumpi\n              dup1\n              0x1f\n              lt\n              tag_109\n              jumpi\n              0x0100\n              dup1\n              dup4\n              sload\n              div\n              mul\n              dup4\n              mstore\n              swap2\n              0x20\n              add\n              swap2\n              jump(tag_108)\n            tag_109:\n              dup3\n              add\n              swap2\n              swap1\n              0x00\n              mstore\n              keccak256(0x00, 0x20)\n              swap1\n            tag_110:\n              dup2\n              sload\n              dup2\n              mstore\n              swap1\n              0x01\n              add\n              swap1\n              0x20\n              add\n              dup1\n              dup4\n              gt\n              tag_110\n              jumpi\n              dup3\n              swap1\n              sub\n              0x1f\n              and\n              dup3\n              add\n              swap2\n            tag_108:\n              pop\n              pop\n              pop\n              pop\n              pop\n              dup2\n              jump\t// out\n                /* \"Campaign.sol\":914:980  mapping(uint => mapping(address => bool)) public approvedAddresses */\n            tag_40:\n              mstore(0x20, 0x06)\n              dup2\n              0x00\n              mstore\n              mstore(0x20, keccak256(0x00, 0x40))\n              dup1\n              0x00\n              mstore\n              keccak256(0x00, 0x40)\n              0x00\n              swap2\n              pop\n              swap2\n              pop\n              swap1\n              sload\n              swap1\n              0x0100\n              exp\n              swap1\n              div\n              0xff\n              and\n              dup2\n              jump\t// out\n                /* \"Campaign.sol\":2956:3050  function getRequestsCount() public view returns (uint) {... */\n            tag_44:\n                /* \"Campaign.sol\":3005:3009  uint */\n              0x00\n                /* \"Campaign.sol\":3028:3036  requests */\n              0x07\n                /* \"Campaign.sol\":3028:3043  requests.length */\n              dup1\n              sload\n              swap1\n              pop\n                /* \"Campaign.sol\":3021:3043  return requests.length */\n              swap1\n              pop\n                /* \"Campaign.sol\":2956:3050  function getRequestsCount() public view returns (uint) {... */\n              swap1\n              jump\t// out\n                /* \"Campaign.sol\":2764:2950  function getSummary() public view returns (uint, uint, uint, uint, address) {... */\n            tag_49:\n                /* \"Campaign.sol\":2807:2811  uint */\n              0x00\n                /* \"Campaign.sol\":2813:2817  uint */\n              dup1\n                /* \"Campaign.sol\":2819:2823  uint */\n              0x00\n                /* \"Campaign.sol\":2825:2829  uint */\n              dup1\n                /* \"Campaign.sol\":2831:2838  address */\n              0x00\n                /* \"Campaign.sol\":2858:2877  minimumContribution */\n              sload(0x03)\n                /* \"Campaign.sol\":2879:2900  address(this).balance */\n              selfbalance\n                /* \"Campaign.sol\":2902:2910  requests */\n              0x07\n                /* \"Campaign.sol\":2902:2917  requests.length */\n              dup1\n              sload\n              swap1\n              pop\n                /* \"Campaign.sol\":2919:2933  approversCount */\n              sload(0x05)\n                /* \"Campaign.sol\":2935:2942  manager */\n              0x00\n              dup1\n              sload\n              swap1\n              0x0100\n              exp\n              swap1\n              div\n              0xffffffffffffffffffffffffffffffffffffffff\n              and\n                /* \"Campaign.sol\":2850:2943  return (minimumContribution, address(this).balance, requests.length, approversCount, manager) */\n              swap5\n              pop\n              swap5\n              pop\n              swap5\n              pop\n              swap5\n              pop\n              swap5\n              pop\n                /* \"Campaign.sol\":2764:2950  function getSummary() public view returns (uint, uint, uint, uint, address) {... */\n              swap1\n              swap2\n              swap3\n              swap4\n              swap5\n              jump\t// out\n                /* \"Campaign.sol\":698:720  address public manager */\n            tag_54:\n              0x00\n              dup1\n              sload\n              swap1\n              0x0100\n              exp\n              swap1\n              div\n              0xffffffffffffffffffffffffffffffffffffffff\n              and\n              dup2\n              jump\t// out\n                /* \"Campaign.sol\":986:1011  Request[] public requests */\n            tag_60:\n              0x07\n              dup2\n              dup2\n              sload\n              dup2\n              lt\n              tag_113\n              jumpi\n              0x00\n              dup1\n              revert\n            tag_113:\n              swap1\n              0x00\n              mstore\n              keccak256(0x00, 0x20)\n              swap1\n              0x04\n              mul\n              add\n              0x00\n              swap2\n              pop\n              swap1\n              pop\n              dup1\n              0x00\n              add\n              dup1\n              sload\n              tag_115\n              swap1\n              tag_106\n              jump\t// in\n            tag_115:\n              dup1\n              0x1f\n              add\n              0x20\n              dup1\n              swap2\n              div\n              mul\n              0x20\n              add\n              mload(0x40)\n              swap1\n              dup2\n              add\n              0x40\n              mstore\n              dup1\n              swap3\n              swap2\n              swap1\n              dup2\n              dup2\n              mstore\n              0x20\n              add\n              dup3\n              dup1\n              sload\n              tag_116\n              swap1\n              tag_106\n              jump\t// in\n            tag_116:\n              dup1\n              iszero\n              tag_117\n              jumpi\n              dup1\n              0x1f\n              lt\n              tag_118\n              jumpi\n              0x0100\n              dup1\n              dup4\n              sload\n              div\n              mul\n              dup4\n              mstore\n              swap2\n              0x20\n              add\n              swap2\n              jump(tag_117)\n            tag_118:\n              dup3\n              add\n              swap2\n              swap1\n              0x00\n              mstore\n              keccak256(0x00, 0x20)\n              swap1\n            tag_119:\n              dup2\n              sload\n              dup2\n              mstore\n              swap1\n              0x01\n              add\n              swap1\n              0x20\n              add\n              dup1\n              dup4\n              gt\n              tag_119\n              jumpi\n              dup3\n              swap1\n              sub\n              0x1f\n              and\n              dup3\n              add\n              swap2\n            tag_117:\n              pop\n              pop\n              pop\n              pop\n              pop\n              swap1\n              dup1\n              0x01\n              add\n              sload\n              swap1\n              dup1\n              0x02\n              add\n              0x00\n              swap1\n              sload\n              swap1\n              0x0100\n              exp\n              swap1\n              div\n              0xffffffffffffffffffffffffffffffffffffffff\n              and\n              swap1\n              dup1\n              0x02\n              add\n              0x14\n              swap1\n              sload\n              swap1\n              0x0100\n              exp\n              swap1\n              div\n              0xff\n              and\n              swap1\n              dup1\n              0x03\n              add\n              sload\n              swap1\n              pop\n              dup6\n              jump\t// out\n                /* \"Campaign.sol\":882:908  uint public approversCount */\n            tag_65:\n              sload(0x05)\n              dup2\n              jump\t// out\n                /* \"Campaign.sol\":726:753  string public campaignTitle */\n            tag_69:\n              0x01\n              dup1\n              sload\n              tag_120\n              swap1\n              tag_106\n              jump\t// in\n            tag_120:\n              dup1\n              0x1f\n              add\n              0x20\n              dup1\n              swap2\n              div\n              mul\n              0x20\n              add\n              mload(0x40)\n              swap1\n              dup2\n              add\n              0x40\n              mstore\n              dup1\n              swap3\n              swap2\n              swap1\n              dup2\n              dup2\n              mstore\n              0x20\n              add\n              dup3\n              dup1\n              sload\n              tag_121\n              swap1\n              tag_106\n              jump\t// in\n            tag_121:\n              dup1\n              iszero\n              tag_122\n              jumpi\n              dup1\n              0x1f\n              lt\n              tag_123\n              jumpi\n              0x0100\n              dup1\n              dup4\n              sload\n              div\n              mul\n              dup4\n              mstore\n              swap2\n              0x20\n              add\n              swap2\n              jump(tag_122)\n            tag_123:\n              dup3\n              add\n              swap2\n              swap1\n              0x00\n              mstore\n              keccak256(0x00, 0x20)\n              swap1\n            tag_124:\n              dup2\n              sload\n              dup2\n              mstore\n              swap1\n              0x01\n              add\n              swap1\n              0x20\n              add\n              dup1\n              dup4\n              gt\n              tag_124\n              jumpi\n              dup3\n              swap1\n              sub\n              0x1f\n              and\n              dup3\n              add\n              swap2\n            tag_122:\n              pop\n              pop\n              pop\n              pop\n              pop\n              dup2\n              jump\t// out\n                /* \"Campaign.sol\":1707:2154  function createRequest(string memory description, uint value, address payable recipient) public restricted {... */\n            tag_75:\n                /* \"Campaign.sol\":1072:1079  manager */\n              0x00\n              dup1\n              sload\n              swap1\n              0x0100\n              exp\n              swap1\n              div\n              0xffffffffffffffffffffffffffffffffffffffff\n              and\n                /* \"Campaign.sol\":1058:1079  msg.sender == manager */\n              0xffffffffffffffffffffffffffffffffffffffff\n              and\n                /* \"Campaign.sol\":1058:1068  msg.sender */\n              caller\n                /* \"Campaign.sol\":1058:1079  msg.sender == manager */\n              0xffffffffffffffffffffffffffffffffffffffff\n              and\n              eq\n                /* \"Campaign.sol\":1050:1109  require(msg.sender == manager, \"Caller is not the manager\") */\n              tag_126\n              jumpi\n              mload(0x40)\n              0x08c379a000000000000000000000000000000000000000000000000000000000\n              dup2\n              mstore\n              0x04\n              add\n              tag_127\n              swap1\n              tag_89\n              jump\t// in\n            tag_127:\n              mload(0x40)\n              dup1\n              swap2\n              sub\n              swap1\n              revert\n            tag_126:\n                /* \"Campaign.sol\":1867:1893  Request storage newRequest */\n              0x00\n                /* \"Campaign.sol\":1896:1904  requests */\n              0x07\n                /* \"Campaign.sol\":1896:1911  requests.push() */\n              0x01\n              dup2\n              0x01\n              dup2\n              sload\n              add\n              dup1\n              dup3\n              sstore\n              dup1\n              swap2\n              pop\n              pop\n              sub\n              swap1\n              0x00\n              mstore\n              keccak256(0x00, 0x20)\n              swap1\n              0x04\n              mul\n              add\n                /* \"Campaign.sol\":1867:1911  Request storage newRequest = requests.push() */\n              swap1\n              pop\n                /* \"Campaign.sol\":1985:1996  description */\n              dup4\n                /* \"Campaign.sol\":1960:1970  newRequest */\n              dup2\n                /* \"Campaign.sol\":1960:1982  newRequest.description */\n              0x00\n              add\n                /* \"Campaign.sol\":1960:1996  newRequest.description = description */\n              swap1\n              dup2\n              tag_130\n              swap2\n              swap1\n              tag_131\n              jump\t// in\n            tag_130:\n              pop\n                /* \"Campaign.sol\":2025:2030  value */\n              dup3\n                /* \"Campaign.sol\":2006:2016  newRequest */\n              dup2\n                /* \"Campaign.sol\":2006:2022  newRequest.value */\n              0x01\n              add\n                /* \"Campaign.sol\":2006:2030  newRequest.value = value */\n              dup2\n              swap1\n              sstore\n              pop\n                /* \"Campaign.sol\":2063:2072  recipient */\n              dup2\n                /* \"Campaign.sol\":2040:2050  newRequest */\n              dup2\n                /* \"Campaign.sol\":2040:2060  newRequest.recipient */\n              0x02\n              add\n              0x00\n                /* \"Campaign.sol\":2040:2072  newRequest.recipient = recipient */\n              0x0100\n              exp\n              dup2\n              sload\n              dup2\n              0xffffffffffffffffffffffffffffffffffffffff\n              mul\n              not\n              and\n              swap1\n              dup4\n              0xffffffffffffffffffffffffffffffffffffffff\n              and\n              mul\n              or\n              swap1\n              sstore\n              pop\n                /* \"Campaign.sol\":2104:2109  false */\n              0x00\n                /* \"Campaign.sol\":2082:2092  newRequest */\n              dup2\n                /* \"Campaign.sol\":2082:2101  newRequest.complete */\n              0x02\n              add\n              0x14\n                /* \"Campaign.sol\":2082:2109  newRequest.complete = false */\n              0x0100\n              exp\n              dup2\n              sload\n              dup2\n              0xff\n              mul\n              not\n              and\n              swap1\n              dup4\n              iszero\n              iszero\n              mul\n              or\n              swap1\n              sstore\n              pop\n                /* \"Campaign.sol\":2146:2147  0 */\n              0x00\n                /* \"Campaign.sol\":2119:2129  newRequest */\n              dup2\n                /* \"Campaign.sol\":2119:2143  newRequest.approvalCount */\n              0x03\n              add\n                /* \"Campaign.sol\":2119:2147  newRequest.approvalCount = 0 */\n              dup2\n              swap1\n              sstore\n              pop\n                /* \"Campaign.sol\":1814:2154  {... */\n              pop\n                /* \"Campaign.sol\":1707:2154  function createRequest(string memory description, uint value, address payable recipient) public restricted {... */\n              pop\n              pop\n              pop\n              jump\t// out\n                /* \"Campaign.sol\":798:829  uint public minimumContribution */\n            tag_78:\n              sload(0x03)\n              dup2\n              jump\t// out\n                /* \"Campaign.sol\":1377:1701  function contribute() public payable {... */\n            tag_81:\n                /* \"Campaign.sol\":1444:1463  minimumContribution */\n              sload(0x03)\n                /* \"Campaign.sol\":1432:1441  msg.value */\n              callvalue\n                /* \"Campaign.sol\":1432:1463  msg.value > minimumContribution */\n              gt\n                /* \"Campaign.sol\":1424:1503  require(msg.value > minimumContribution, \"Minimum contribution is not matched\") */\n              tag_133\n              jumpi\n              mload(0x40)\n              0x08c379a000000000000000000000000000000000000000000000000000000000\n              dup2\n              mstore\n              0x04\n              add\n              tag_134\n              swap1\n              tag_135\n              jump\t// in\n            tag_134:\n              mload(0x40)\n              dup1\n              swap2\n              sub\n              swap1\n              revert\n            tag_133:\n                /* \"Campaign.sol\":1589:1598  approvers */\n              0x04\n                /* \"Campaign.sol\":1589:1610  approvers[msg.sender] */\n              0x00\n                /* \"Campaign.sol\":1599:1609  msg.sender */\n              caller\n                /* \"Campaign.sol\":1589:1610  approvers[msg.sender] */\n              0xffffffffffffffffffffffffffffffffffffffff\n              and\n              0xffffffffffffffffffffffffffffffffffffffff\n              and\n              dup2\n              mstore\n              0x20\n              add\n              swap1\n              dup2\n              mstore\n              0x20\n              add\n              0x00\n              keccak256\n              0x00\n              swap1\n              sload\n              swap1\n              0x0100\n              exp\n              swap1\n              div\n              0xff\n              and\n                /* \"Campaign.sol\":1584:1695  if (!approvers[msg.sender]) {... */\n              tag_136\n              jumpi\n                /* \"Campaign.sol\":1650:1654  true */\n              0x01\n                /* \"Campaign.sol\":1626:1635  approvers */\n              0x04\n                /* \"Campaign.sol\":1626:1647  approvers[msg.sender] */\n              0x00\n                /* \"Campaign.sol\":1636:1646  msg.sender */\n              caller\n                /* \"Campaign.sol\":1626:1647  approvers[msg.sender] */\n              0xffffffffffffffffffffffffffffffffffffffff\n              and\n              0xffffffffffffffffffffffffffffffffffffffff\n              and\n              dup2\n              mstore\n              0x20\n              add\n              swap1\n              dup2\n              mstore\n              0x20\n              add\n              0x00\n              keccak256\n              0x00\n                /* \"Campaign.sol\":1626:1654  approvers[msg.sender] = true */\n              0x0100\n              exp\n              dup2\n              sload\n              dup2\n              0xff\n              mul\n              not\n              and\n              swap1\n              dup4\n              iszero\n              iszero\n              mul\n              or\n              swap1\n              sstore\n              pop\n                /* \"Campaign.sol\":1668:1682  approversCount */\n              0x05\n              0x00\n                /* \"Campaign.sol\":1668:1684  approversCount++ */\n              dup2\n              sload\n              dup1\n              swap3\n              swap2\n              swap1\n              tag_137\n              swap1\n              tag_138\n              jump\t// in\n            tag_137:\n              swap2\n              swap1\n              pop\n              sstore\n              pop\n                /* \"Campaign.sol\":1584:1695  if (!approvers[msg.sender]) {... */\n            tag_136:\n                /* \"Campaign.sol\":1377:1701  function contribute() public payable {... */\n              jump\t// out\n                /* \"Campaign.sol\":2160:2401  function approveRequest(uint index) public {... */\n            tag_85:\n                /* \"Campaign.sol\":2221:2230  approvers */\n              0x04\n                /* \"Campaign.sol\":2221:2242  approvers[msg.sender] */\n              0x00\n                /* \"Campaign.sol\":2231:2241  msg.sender */\n              caller\n                /* \"Campaign.sol\":2221:2242  approvers[msg.sender] */\n              0xffffffffffffffffffffffffffffffffffffffff\n              and\n              0xffffffffffffffffffffffffffffffffffffffff\n              and\n              dup2\n              mstore\n              0x20\n              add\n              swap1\n              dup2\n              mstore\n              0x20\n              add\n              0x00\n              keccak256\n              0x00\n              swap1\n              sload\n              swap1\n              0x0100\n              exp\n              swap1\n              div\n              0xff\n              and\n                /* \"Campaign.sol\":2213:2243  require(approvers[msg.sender]) */\n              tag_140\n              jumpi\n              0x00\n              dup1\n              revert\n            tag_140:\n                /* \"Campaign.sol\":2262:2279  approvedAddresses */\n              0x06\n                /* \"Campaign.sol\":2262:2286  approvedAddresses[index] */\n              0x00\n                /* \"Campaign.sol\":2280:2285  index */\n              dup3\n                /* \"Campaign.sol\":2262:2286  approvedAddresses[index] */\n              dup2\n              mstore\n              0x20\n              add\n              swap1\n              dup2\n              mstore\n              0x20\n              add\n              0x00\n              keccak256\n                /* \"Campaign.sol\":2262:2298  approvedAddresses[index][msg.sender] */\n              0x00\n                /* \"Campaign.sol\":2287:2297  msg.sender */\n              caller\n                /* \"Campaign.sol\":2262:2298  approvedAddresses[index][msg.sender] */\n              0xffffffffffffffffffffffffffffffffffffffff\n              and\n              0xffffffffffffffffffffffffffffffffffffffff\n              and\n              dup2\n              mstore\n              0x20\n              add\n              swap1\n              dup2\n              mstore\n              0x20\n              add\n              0x00\n              keccak256\n              0x00\n              swap1\n              sload\n              swap1\n              0x0100\n              exp\n              swap1\n              div\n              0xff\n              and\n                /* \"Campaign.sol\":2261:2298  !approvedAddresses[index][msg.sender] */\n              iszero\n                /* \"Campaign.sol\":2253:2299  require(!approvedAddresses[index][msg.sender]) */\n              tag_141\n              jumpi\n              0x00\n              dup1\n              revert\n            tag_141:\n                /* \"Campaign.sol\":2349:2353  true */\n              0x01\n                /* \"Campaign.sol\":2310:2327  approvedAddresses */\n              0x06\n                /* \"Campaign.sol\":2310:2334  approvedAddresses[index] */\n              0x00\n                /* \"Campaign.sol\":2328:2333  index */\n              dup4\n                /* \"Campaign.sol\":2310:2334  approvedAddresses[index] */\n              dup2\n              mstore\n              0x20\n              add\n              swap1\n              dup2\n              mstore\n              0x20\n              add\n              0x00\n              keccak256\n                /* \"Campaign.sol\":2310:2346  approvedAddresses[index][msg.sender] */\n              0x00\n                /* \"Campaign.sol\":2335:2345  msg.sender */\n              caller\n                /* \"Campaign.sol\":2310:2346  approvedAddresses[index][msg.sender] */\n              0xffffffffffffffffffffffffffffffffffffffff\n              and\n              0xffffffffffffffffffffffffffffffffffffffff\n              and\n              dup2\n              mstore\n              0x20\n              add\n              swap1\n              dup2\n              mstore\n              0x20\n              add\n              0x00\n              keccak256\n              0x00\n                /* \"Campaign.sol\":2310:2353  approvedAddresses[index][msg.sender] = true */\n              0x0100\n              exp\n              dup2\n              sload\n              dup2\n              0xff\n              mul\n              not\n              and\n              swap1\n              dup4\n              iszero\n              iszero\n              mul\n              or\n              swap1\n              sstore\n              pop\n                /* \"Campaign.sol\":2363:2371  requests */\n              0x07\n                /* \"Campaign.sol\":2372:2377  index */\n              dup2\n                /* \"Campaign.sol\":2363:2378  requests[index] */\n              dup2\n              sload\n              dup2\n              lt\n              tag_142\n              jumpi\n              tag_143\n              tag_93\n              jump\t// in\n            tag_143:\n            tag_142:\n              swap1\n              0x00\n              mstore\n              keccak256(0x00, 0x20)\n              swap1\n              0x04\n              mul\n              add\n                /* \"Campaign.sol\":2363:2392  requests[index].approvalCount */\n              0x03\n              add\n              0x00\n                /* \"Campaign.sol\":2363:2394  requests[index].approvalCount++ */\n              dup2\n              sload\n              dup1\n              swap3\n              swap2\n              swap1\n              tag_145\n              swap1\n              tag_138\n              jump\t// in\n            tag_145:\n              swap2\n              swap1\n              pop\n              sstore\n              pop\n                /* \"Campaign.sol\":2160:2401  function approveRequest(uint index) public {... */\n              pop\n              jump\t// out\n                /* \"#utility.yul\":7:82   */\n            tag_146:\n                /* \"#utility.yul\":40:46   */\n              0x00\n                /* \"#utility.yul\":73:75   */\n              0x40\n                /* \"#utility.yul\":67:76   */\n              mload\n                /* \"#utility.yul\":57:76   */\n              swap1\n              pop\n                /* \"#utility.yul\":7:82   */\n              swap1\n              jump\t// out\n                /* \"#utility.yul\":88:205   */\n            tag_147:\n                /* \"#utility.yul\":197:198   */\n              0x00\n                /* \"#utility.yul\":194:195   */\n              dup1\n                /* \"#utility.yul\":187:199   */\n              revert\n                /* \"#utility.yul\":211:328   */\n            tag_148:\n                /* \"#utility.yul\":320:321   */\n              0x00\n                /* \"#utility.yul\":317:318   */\n              dup1\n                /* \"#utility.yul\":310:322   */\n              revert\n                /* \"#utility.yul\":334:411   */\n            tag_149:\n                /* \"#utility.yul\":371:378   */\n              0x00\n                /* \"#utility.yul\":400:405   */\n              dup2\n                /* \"#utility.yul\":389:405   */\n              swap1\n              pop\n                /* \"#utility.yul\":334:411   */\n              swap2\n              swap1\n              pop\n              jump\t// out\n                /* \"#utility.yul\":417:539   */\n            tag_150:\n                /* \"#utility.yul\":490:514   */\n              tag_210\n                /* \"#utility.yul\":508:513   */\n              dup2\n                /* \"#utility.yul\":490:514   */\n              tag_149\n              jump\t// in\n            tag_210:\n                /* \"#utility.yul\":483:488   */\n              dup2\n                /* \"#utility.yul\":480:515   */\n              eq\n                /* \"#utility.yul\":470:533   */\n              tag_211\n              jumpi\n                /* \"#utility.yul\":529:530   */\n              0x00\n                /* \"#utility.yul\":526:527   */\n              dup1\n                /* \"#utility.yul\":519:531   */\n              revert\n                /* \"#utility.yul\":470:533   */\n            tag_211:\n                /* \"#utility.yul\":417:539   */\n              pop\n              jump\t// out\n                /* \"#utility.yul\":545:684   */\n            tag_151:\n                /* \"#utility.yul\":591:596   */\n              0x00\n                /* \"#utility.yul\":629:635   */\n              dup2\n                /* \"#utility.yul\":616:636   */\n              calldataload\n                /* \"#utility.yul\":607:636   */\n              swap1\n              pop\n                /* \"#utility.yul\":645:678   */\n              tag_213\n                /* \"#utility.yul\":672:677   */\n              dup2\n                /* \"#utility.yul\":645:678   */\n              tag_150\n              jump\t// in\n            tag_213:\n                /* \"#utility.yul\":545:684   */\n              swap3\n              swap2\n              pop\n              pop\n              jump\t// out\n                /* \"#utility.yul\":690:1019   */\n            tag_22:\n                /* \"#utility.yul\":749:755   */\n              0x00\n                /* \"#utility.yul\":798:800   */\n              0x20\n                /* \"#utility.yul\":786:795   */\n              dup3\n                /* \"#utility.yul\":777:784   */\n              dup5\n                /* \"#utility.yul\":773:796   */\n              sub\n                /* \"#utility.yul\":769:801   */\n              slt\n                /* \"#utility.yul\":766:885   */\n              iszero\n              tag_215\n              jumpi\n                /* \"#utility.yul\":804:883   */\n              tag_216\n              tag_147\n              jump\t// in\n            tag_216:\n                /* \"#utility.yul\":766:885   */\n            tag_215:\n                /* \"#utility.yul\":924:925   */\n              0x00\n                /* \"#utility.yul\":949:1002   */\n              tag_217\n                /* \"#utility.yul\":994:1001   */\n              dup5\n                /* \"#utility.yul\":985:991   */\n              dup3\n                /* \"#utility.yul\":974:983   */\n              dup6\n                /* \"#utility.yul\":970:992   */\n              add\n                /* \"#utility.yul\":949:1002   */\n              tag_151\n              jump\t// in\n            tag_217:\n                /* \"#utility.yul\":939:1002   */\n              swap2\n              pop\n                /* \"#utility.yul\":895:1012   */\n              pop\n                /* \"#utility.yul\":690:1019   */\n              swap3\n              swap2\n              pop\n              pop\n              jump\t// out\n                /* \"#utility.yul\":1025:1151   */\n            tag_152:\n                /* \"#utility.yul\":1062:1069   */\n              0x00\n                /* \"#utility.yul\":1102:1144   */\n              0xffffffffffffffffffffffffffffffffffffffff\n                /* \"#utility.yul\":1095:1100   */\n              dup3\n                /* \"#utility.yul\":1091:1145   */\n              and\n                /* \"#utility.yul\":1080:1145   */\n              swap1\n              pop\n                /* \"#utility.yul\":1025:1151   */\n              swap2\n              swap1\n              pop\n              jump\t// out\n                /* \"#utility.yul\":1157:1253   */\n            tag_153:\n                /* \"#utility.yul\":1194:1201   */\n              0x00\n                /* \"#utility.yul\":1223:1247   */\n              tag_220\n                /* \"#utility.yul\":1241:1246   */\n              dup3\n                /* \"#utility.yul\":1223:1247   */\n              tag_152\n              jump\t// in\n            tag_220:\n                /* \"#utility.yul\":1212:1247   */\n              swap1\n              pop\n                /* \"#utility.yul\":1157:1253   */\n              swap2\n              swap1\n              pop\n              jump\t// out\n                /* \"#utility.yul\":1259:1381   */\n            tag_154:\n                /* \"#utility.yul\":1332:1356   */\n              tag_222\n                /* \"#utility.yul\":1350:1355   */\n              dup2\n                /* \"#utility.yul\":1332:1356   */\n              tag_153\n              jump\t// in\n            tag_222:\n                /* \"#utility.yul\":1325:1330   */\n              dup2\n                /* \"#utility.yul\":1322:1357   */\n              eq\n                /* \"#utility.yul\":1312:1375   */\n              tag_223\n              jumpi\n                /* \"#utility.yul\":1371:1372   */\n              0x00\n                /* \"#utility.yul\":1368:1369   */\n              dup1\n                /* \"#utility.yul\":1361:1373   */\n              revert\n                /* \"#utility.yul\":1312:1375   */\n            tag_223:\n                /* \"#utility.yul\":1259:1381   */\n              pop\n              jump\t// out\n                /* \"#utility.yul\":1387:1526   */\n            tag_155:\n                /* \"#utility.yul\":1433:1438   */\n              0x00\n                /* \"#utility.yul\":1471:1477   */\n              dup2\n                /* \"#utility.yul\":1458:1478   */\n              calldataload\n                /* \"#utility.yul\":1449:1478   */\n              swap1\n              pop\n                /* \"#utility.yul\":1487:1520   */\n              tag_225\n                /* \"#utility.yul\":1514:1519   */\n              dup2\n                /* \"#utility.yul\":1487:1520   */\n              tag_154\n              jump\t// in\n            tag_225:\n                /* \"#utility.yul\":1387:1526   */\n              swap3\n              swap2\n              pop\n              pop\n              jump\t// out\n                /* \"#utility.yul\":1532:1861   */\n            tag_27:\n                /* \"#utility.yul\":1591:1597   */\n              0x00\n                /* \"#utility.yul\":1640:1642   */\n              0x20\n                /* \"#utility.yul\":1628:1637   */\n              dup3\n                /* \"#utility.yul\":1619:1626   */\n              dup5\n                /* \"#utility.yul\":1615:1638   */\n              sub\n                /* \"#utility.yul\":1611:1643   */\n              slt\n                /* \"#utility.yul\":1608:1727   */\n              iszero\n              tag_227\n              jumpi\n                /* \"#utility.yul\":1646:1725   */\n              tag_228\n              tag_147\n              jump\t// in\n            tag_228:\n                /* \"#utility.yul\":1608:1727   */\n            tag_227:\n                /* \"#utility.yul\":1766:1767   */\n              0x00\n                /* \"#utility.yul\":1791:1844   */\n              tag_229\n                /* \"#utility.yul\":1836:1843   */\n              dup5\n                /* \"#utility.yul\":1827:1833   */\n              dup3\n                /* \"#utility.yul\":1816:1825   */\n              dup6\n                /* \"#utility.yul\":1812:1834   */\n              add\n                /* \"#utility.yul\":1791:1844   */\n              tag_155\n              jump\t// in\n            tag_229:\n                /* \"#utility.yul\":1781:1844   */\n              swap2\n              pop\n                /* \"#utility.yul\":1737:1854   */\n              pop\n                /* \"#utility.yul\":1532:1861   */\n              swap3\n              swap2\n              pop\n              pop\n              jump\t// out\n                /* \"#utility.yul\":1867:1957   */\n            tag_156:\n                /* \"#utility.yul\":1901:1908   */\n              0x00\n                /* \"#utility.yul\":1944:1949   */\n              dup2\n                /* \"#utility.yul\":1937:1950   */\n              iszero\n                /* \"#utility.yul\":1930:1951   */\n              iszero\n                /* \"#utility.yul\":1919:1951   */\n              swap1\n              pop\n                /* \"#utility.yul\":1867:1957   */\n              swap2\n              swap1\n              pop\n              jump\t// out\n                /* \"#utility.yul\":1963:2072   */\n            tag_157:\n                /* \"#utility.yul\":2044:2065   */\n              tag_232\n                /* \"#utility.yul\":2059:2064   */\n              dup2\n                /* \"#utility.yul\":2044:2065   */\n              tag_156\n              jump\t// in\n            tag_232:\n                /* \"#utility.yul\":2039:2042   */\n              dup3\n                /* \"#utility.yul\":2032:2066   */\n              mstore\n                /* \"#utility.yul\":1963:2072   */\n              pop\n              pop\n              jump\t// out\n                /* \"#utility.yul\":2078:2288   */\n            tag_30:\n                /* \"#utility.yul\":2165:2169   */\n              0x00\n                /* \"#utility.yul\":2203:2205   */\n              0x20\n                /* \"#utility.yul\":2192:2201   */\n              dup3\n                /* \"#utility.yul\":2188:2206   */\n              add\n                /* \"#utility.yul\":2180:2206   */\n              swap1\n              pop\n                /* \"#utility.yul\":2216:2281   */\n              tag_234\n                /* \"#utility.yul\":2278:2279   */\n              0x00\n                /* \"#utility.yul\":2267:2276   */\n              dup4\n                /* \"#utility.yul\":2263:2280   */\n              add\n                /* \"#utility.yul\":2254:2260   */\n              dup5\n                /* \"#utility.yul\":2216:2281   */\n              tag_157\n              jump\t// in\n            tag_234:\n                /* \"#utility.yul\":2078:2288   */\n              swap3\n              swap2\n              pop\n              pop\n              jump\t// out\n                /* \"#utility.yul\":2294:2393   */\n            tag_158:\n                /* \"#utility.yul\":2346:2352   */\n              0x00\n                /* \"#utility.yul\":2380:2385   */\n              dup2\n                /* \"#utility.yul\":2374:2386   */\n              mload\n                /* \"#utility.yul\":2364:2386   */\n              swap1\n              pop\n                /* \"#utility.yul\":2294:2393   */\n              swap2\n              swap1\n              pop\n              jump\t// out\n                /* \"#utility.yul\":2399:2568   */\n            tag_159:\n                /* \"#utility.yul\":2483:2494   */\n              0x00\n                /* \"#utility.yul\":2517:2523   */\n              dup3\n                /* \"#utility.yul\":2512:2515   */\n              dup3\n                /* \"#utility.yul\":2505:2524   */\n              mstore\n                /* \"#utility.yul\":2557:2561   */\n              0x20\n                /* \"#utility.yul\":2552:2555   */\n              dup3\n                /* \"#utility.yul\":2548:2562   */\n              add\n                /* \"#utility.yul\":2533:2562   */\n              swap1\n              pop\n                /* \"#utility.yul\":2399:2568   */\n              swap3\n              swap2\n              pop\n              pop\n              jump\t// out\n                /* \"#utility.yul\":2574:2820   */\n            tag_160:\n                /* \"#utility.yul\":2655:2656   */\n              0x00\n                /* \"#utility.yul\":2665:2778   */\n            tag_238:\n                /* \"#utility.yul\":2679:2685   */\n              dup4\n                /* \"#utility.yul\":2676:2677   */\n              dup2\n                /* \"#utility.yul\":2673:2686   */\n              lt\n                /* \"#utility.yul\":2665:2778   */\n              iszero\n              tag_240\n              jumpi\n                /* \"#utility.yul\":2764:2765   */\n              dup1\n                /* \"#utility.yul\":2759:2762   */\n              dup3\n                /* \"#utility.yul\":2755:2766   */\n              add\n                /* \"#utility.yul\":2749:2767   */\n              mload\n                /* \"#utility.yul\":2745:2746   */\n              dup2\n                /* \"#utility.yul\":2740:2743   */\n              dup5\n                /* \"#utility.yul\":2736:2747   */\n              add\n                /* \"#utility.yul\":2729:2768   */\n              mstore\n                /* \"#utility.yul\":2701:2703   */\n              0x20\n                /* \"#utility.yul\":2698:2699   */\n              dup2\n                /* \"#utility.yul\":2694:2704   */\n              add\n                /* \"#utility.yul\":2689:2704   */\n              swap1\n              pop\n                /* \"#utility.yul\":2665:2778   */\n              jump(tag_238)\n            tag_240:\n                /* \"#utility.yul\":2812:2813   */\n              0x00\n                /* \"#utility.yul\":2803:2809   */\n              dup5\n                /* \"#utility.yul\":2798:2801   */\n              dup5\n                /* \"#utility.yul\":2794:2810   */\n              add\n                /* \"#utility.yul\":2787:2814   */\n              mstore\n                /* \"#utility.yul\":2636:2820   */\n              pop\n                /* \"#utility.yul\":2574:2820   */\n              pop\n              pop\n              pop\n              jump\t// out\n                /* \"#utility.yul\":2826:2928   */\n            tag_161:\n                /* \"#utility.yul\":2867:2873   */\n              0x00\n                /* \"#utility.yul\":2918:2920   */\n              0x1f\n                /* \"#utility.yul\":2914:2921   */\n              not\n                /* \"#utility.yul\":2909:2911   */\n              0x1f\n                /* \"#utility.yul\":2902:2907   */\n              dup4\n                /* \"#utility.yul\":2898:2912   */\n              add\n                /* \"#utility.yul\":2894:2922   */\n              and\n                /* \"#utility.yul\":2884:2922   */\n              swap1\n              pop\n                /* \"#utility.yul\":2826:2928   */\n              swap2\n              swap1\n              pop\n              jump\t// out\n                /* \"#utility.yul\":2934:3311   */\n            tag_162:\n                /* \"#utility.yul\":3022:3025   */\n              0x00\n                /* \"#utility.yul\":3050:3089   */\n              tag_243\n                /* \"#utility.yul\":3083:3088   */\n              dup3\n                /* \"#utility.yul\":3050:3089   */\n              tag_158\n              jump\t// in\n            tag_243:\n                /* \"#utility.yul\":3105:3176   */\n              tag_244\n                /* \"#utility.yul\":3169:3175   */\n              dup2\n                /* \"#utility.yul\":3164:3167   */\n              dup6\n                /* \"#utility.yul\":3105:3176   */\n              tag_159\n              jump\t// in\n            tag_244:\n                /* \"#utility.yul\":3098:3176   */\n              swap4\n              pop\n                /* \"#utility.yul\":3185:3250   */\n              tag_245\n                /* \"#utility.yul\":3243:3249   */\n              dup2\n                /* \"#utility.yul\":3238:3241   */\n              dup6\n                /* \"#utility.yul\":3231:3235   */\n              0x20\n                /* \"#utility.yul\":3224:3229   */\n              dup7\n                /* \"#utility.yul\":3220:3236   */\n              add\n                /* \"#utility.yul\":3185:3250   */\n              tag_160\n              jump\t// in\n            tag_245:\n                /* \"#utility.yul\":3275:3304   */\n              tag_246\n                /* \"#utility.yul\":3297:3303   */\n              dup2\n                /* \"#utility.yul\":3275:3304   */\n              tag_161\n              jump\t// in\n            tag_246:\n                /* \"#utility.yul\":3270:3273   */\n              dup5\n                /* \"#utility.yul\":3266:3305   */\n              add\n                /* \"#utility.yul\":3259:3305   */\n              swap2\n              pop\n                /* \"#utility.yul\":3026:3311   */\n              pop\n                /* \"#utility.yul\":2934:3311   */\n              swap3\n              swap2\n              pop\n              pop\n              jump\t// out\n                /* \"#utility.yul\":3317:3630   */\n            tag_35:\n                /* \"#utility.yul\":3430:3434   */\n              0x00\n                /* \"#utility.yul\":3468:3470   */\n              0x20\n                /* \"#utility.yul\":3457:3466   */\n              dup3\n                /* \"#utility.yul\":3453:3471   */\n              add\n                /* \"#utility.yul\":3445:3471   */\n              swap1\n              pop\n                /* \"#utility.yul\":3517:3526   */\n              dup2\n                /* \"#utility.yul\":3511:3515   */\n              dup2\n                /* \"#utility.yul\":3507:3527   */\n              sub\n                /* \"#utility.yul\":3503:3504   */\n              0x00\n                /* \"#utility.yul\":3492:3501   */\n              dup4\n                /* \"#utility.yul\":3488:3505   */\n              add\n                /* \"#utility.yul\":3481:3528   */\n              mstore\n                /* \"#utility.yul\":3545:3623   */\n              tag_248\n                /* \"#utility.yul\":3618:3622   */\n              dup2\n                /* \"#utility.yul\":3609:3615   */\n              dup5\n                /* \"#utility.yul\":3545:3623   */\n              tag_162\n              jump\t// in\n            tag_248:\n                /* \"#utility.yul\":3537:3623   */\n              swap1\n              pop\n                /* \"#utility.yul\":3317:3630   */\n              swap3\n              swap2\n              pop\n              pop\n              jump\t// out\n                /* \"#utility.yul\":3636:4110   */\n            tag_39:\n                /* \"#utility.yul\":3704:3710   */\n              0x00\n                /* \"#utility.yul\":3712:3718   */\n              dup1\n                /* \"#utility.yul\":3761:3763   */\n              0x40\n                /* \"#utility.yul\":3749:3758   */\n              dup4\n                /* \"#utility.yul\":3740:3747   */\n              dup6\n                /* \"#utility.yul\":3736:3759   */\n              sub\n                /* \"#utility.yul\":3732:3764   */\n              slt\n                /* \"#utility.yul\":3729:3848   */\n              iszero\n              tag_250\n              jumpi\n                /* \"#utility.yul\":3767:3846   */\n              tag_251\n              tag_147\n              jump\t// in\n            tag_251:\n                /* \"#utility.yul\":3729:3848   */\n            tag_250:\n                /* \"#utility.yul\":3887:3888   */\n              0x00\n                /* \"#utility.yul\":3912:3965   */\n              tag_252\n                /* \"#utility.yul\":3957:3964   */\n              dup6\n                /* \"#utility.yul\":3948:3954   */\n              dup3\n                /* \"#utility.yul\":3937:3946   */\n              dup7\n                /* \"#utility.yul\":3933:3955   */\n              add\n                /* \"#utility.yul\":3912:3965   */\n              tag_151\n              jump\t// in\n            tag_252:\n                /* \"#utility.yul\":3902:3965   */\n              swap3\n              pop\n                /* \"#utility.yul\":3858:3975   */\n              pop\n                /* \"#utility.yul\":4014:4016   */\n              0x20\n                /* \"#utility.yul\":4040:4093   */\n              tag_253\n                /* \"#utility.yul\":4085:4092   */\n              dup6\n                /* \"#utility.yul\":4076:4082   */\n              dup3\n                /* \"#utility.yul\":4065:4074   */\n              dup7\n                /* \"#utility.yul\":4061:4083   */\n              add\n                /* \"#utility.yul\":4040:4093   */\n              tag_155\n              jump\t// in\n            tag_253:\n                /* \"#utility.yul\":4030:4093   */\n              swap2\n              pop\n                /* \"#utility.yul\":3985:4103   */\n              pop\n                /* \"#utility.yul\":3636:4110   */\n              swap3\n              pop\n              swap3\n              swap1\n              pop\n              jump\t// out\n                /* \"#utility.yul\":4116:4234   */\n            tag_163:\n                /* \"#utility.yul\":4203:4227   */\n              tag_255\n                /* \"#utility.yul\":4221:4226   */\n              dup2\n                /* \"#utility.yul\":4203:4227   */\n              tag_149\n              jump\t// in\n            tag_255:\n                /* \"#utility.yul\":4198:4201   */\n              dup3\n                /* \"#utility.yul\":4191:4228   */\n              mstore\n                /* \"#utility.yul\":4116:4234   */\n              pop\n              pop\n              jump\t// out\n                /* \"#utility.yul\":4240:4462   */\n            tag_46:\n                /* \"#utility.yul\":4333:4337   */\n              0x00\n                /* \"#utility.yul\":4371:4373   */\n              0x20\n                /* \"#utility.yul\":4360:4369   */\n              dup3\n                /* \"#utility.yul\":4356:4374   */\n              add\n                /* \"#utility.yul\":4348:4374   */\n              swap1\n              pop\n                /* \"#utility.yul\":4384:4455   */\n              tag_257\n                /* \"#utility.yul\":4452:4453   */\n              0x00\n                /* \"#utility.yul\":4441:4450   */\n              dup4\n                /* \"#utility.yul\":4437:4454   */\n              add\n                /* \"#utility.yul\":4428:4434   */\n              dup5\n                /* \"#utility.yul\":4384:4455   */\n              tag_163\n              jump\t// in\n            tag_257:\n                /* \"#utility.yul\":4240:4462   */\n              swap3\n              swap2\n              pop\n              pop\n              jump\t// out\n                /* \"#utility.yul\":4468:4586   */\n            tag_164:\n                /* \"#utility.yul\":4555:4579   */\n              tag_259\n                /* \"#utility.yul\":4573:4578   */\n              dup2\n                /* \"#utility.yul\":4555:4579   */\n              tag_153\n              jump\t// in\n            tag_259:\n                /* \"#utility.yul\":4550:4553   */\n              dup3\n                /* \"#utility.yul\":4543:4580   */\n              mstore\n                /* \"#utility.yul\":4468:4586   */\n              pop\n              pop\n              jump\t// out\n                /* \"#utility.yul\":4592:5256   */\n            tag_51:\n                /* \"#utility.yul\":4797:4801   */\n              0x00\n                /* \"#utility.yul\":4835:4838   */\n              0xa0\n                /* \"#utility.yul\":4824:4833   */\n              dup3\n                /* \"#utility.yul\":4820:4839   */\n              add\n                /* \"#utility.yul\":4812:4839   */\n              swap1\n              pop\n                /* \"#utility.yul\":4849:4920   */\n              tag_261\n                /* \"#utility.yul\":4917:4918   */\n              0x00\n                /* \"#utility.yul\":4906:4915   */\n              dup4\n                /* \"#utility.yul\":4902:4919   */\n              add\n                /* \"#utility.yul\":4893:4899   */\n              dup9\n                /* \"#utility.yul\":4849:4920   */\n              tag_163\n              jump\t// in\n            tag_261:\n                /* \"#utility.yul\":4930:5002   */\n              tag_262\n                /* \"#utility.yul\":4998:5000   */\n              0x20\n                /* \"#utility.yul\":4987:4996   */\n              dup4\n                /* \"#utility.yul\":4983:5001   */\n              add\n                /* \"#utility.yul\":4974:4980   */\n              dup8\n                /* \"#utility.yul\":4930:5002   */\n              tag_163\n              jump\t// in\n            tag_262:\n                /* \"#utility.yul\":5012:5084   */\n              tag_263\n                /* \"#utility.yul\":5080:5082   */\n              0x40\n                /* \"#utility.yul\":5069:5078   */\n              dup4\n                /* \"#utility.yul\":5065:5083   */\n              add\n                /* \"#utility.yul\":5056:5062   */\n              dup7\n                /* \"#utility.yul\":5012:5084   */\n              tag_163\n              jump\t// in\n            tag_263:\n                /* \"#utility.yul\":5094:5166   */\n              tag_264\n                /* \"#utility.yul\":5162:5164   */\n              0x60\n                /* \"#utility.yul\":5151:5160   */\n              dup4\n                /* \"#utility.yul\":5147:5165   */\n              add\n                /* \"#utility.yul\":5138:5144   */\n              dup6\n                /* \"#utility.yul\":5094:5166   */\n              tag_163\n              jump\t// in\n            tag_264:\n                /* \"#utility.yul\":5176:5249   */\n              tag_265\n                /* \"#utility.yul\":5244:5247   */\n              0x80\n                /* \"#utility.yul\":5233:5242   */\n              dup4\n                /* \"#utility.yul\":5229:5248   */\n              add\n                /* \"#utility.yul\":5220:5226   */\n              dup5\n                /* \"#utility.yul\":5176:5249   */\n              tag_164\n              jump\t// in\n            tag_265:\n                /* \"#utility.yul\":4592:5256   */\n              swap7\n              swap6\n              pop\n              pop\n              pop\n              pop\n              pop\n              pop\n              jump\t// out\n                /* \"#utility.yul\":5262:5484   */\n            tag_56:\n                /* \"#utility.yul\":5355:5359   */\n              0x00\n                /* \"#utility.yul\":5393:5395   */\n              0x20\n                /* \"#utility.yul\":5382:5391   */\n              dup3\n                /* \"#utility.yul\":5378:5396   */\n              add\n                /* \"#utility.yul\":5370:5396   */\n              swap1\n              pop\n                /* \"#utility.yul\":5406:5477   */\n              tag_267\n                /* \"#utility.yul\":5474:5475   */\n              0x00\n                /* \"#utility.yul\":5463:5472   */\n              dup4\n                /* \"#utility.yul\":5459:5476   */\n              add\n                /* \"#utility.yul\":5450:5456   */\n              dup5\n                /* \"#utility.yul\":5406:5477   */\n              tag_164\n              jump\t// in\n            tag_267:\n                /* \"#utility.yul\":5262:5484   */\n              swap3\n              swap2\n              pop\n              pop\n              jump\t// out\n                /* \"#utility.yul\":5490:5594   */\n            tag_165:\n                /* \"#utility.yul\":5535:5542   */\n              0x00\n                /* \"#utility.yul\":5564:5588   */\n              tag_269\n                /* \"#utility.yul\":5582:5587   */\n              dup3\n                /* \"#utility.yul\":5564:5588   */\n              tag_152\n              jump\t// in\n            tag_269:\n                /* \"#utility.yul\":5553:5588   */\n              swap1\n              pop\n                /* \"#utility.yul\":5490:5594   */\n              swap2\n              swap1\n              pop\n              jump\t// out\n                /* \"#utility.yul\":5600:5742   */\n            tag_166:\n                /* \"#utility.yul\":5703:5735   */\n              tag_271\n                /* \"#utility.yul\":5729:5734   */\n              dup2\n                /* \"#utility.yul\":5703:5735   */\n              tag_165\n              jump\t// in\n            tag_271:\n                /* \"#utility.yul\":5698:5701   */\n              dup3\n                /* \"#utility.yul\":5691:5736   */\n              mstore\n                /* \"#utility.yul\":5600:5742   */\n              pop\n              pop\n              jump\t// out\n                /* \"#utility.yul\":5748:6523   */\n            tag_62:\n                /* \"#utility.yul\":5983:5987   */\n              0x00\n                /* \"#utility.yul\":6021:6024   */\n              0xa0\n                /* \"#utility.yul\":6010:6019   */\n              dup3\n                /* \"#utility.yul\":6006:6025   */\n              add\n                /* \"#utility.yul\":5998:6025   */\n              swap1\n              pop\n                /* \"#utility.yul\":6071:6080   */\n              dup2\n                /* \"#utility.yul\":6065:6069   */\n              dup2\n                /* \"#utility.yul\":6061:6081   */\n              sub\n                /* \"#utility.yul\":6057:6058   */\n              0x00\n                /* \"#utility.yul\":6046:6055   */\n              dup4\n                /* \"#utility.yul\":6042:6059   */\n              add\n                /* \"#utility.yul\":6035:6082   */\n              mstore\n                /* \"#utility.yul\":6099:6177   */\n              tag_273\n                /* \"#utility.yul\":6172:6176   */\n              dup2\n                /* \"#utility.yul\":6163:6169   */\n              dup9\n                /* \"#utility.yul\":6099:6177   */\n              tag_162\n              jump\t// in\n            tag_273:\n                /* \"#utility.yul\":6091:6177   */\n              swap1\n              pop\n                /* \"#utility.yul\":6187:6259   */\n              tag_274\n                /* \"#utility.yul\":6255:6257   */\n              0x20\n                /* \"#utility.yul\":6244:6253   */\n              dup4\n                /* \"#utility.yul\":6240:6258   */\n              add\n                /* \"#utility.yul\":6231:6237   */\n              dup8\n                /* \"#utility.yul\":6187:6259   */\n              tag_163\n              jump\t// in\n            tag_274:\n                /* \"#utility.yul\":6269:6357   */\n              tag_275\n                /* \"#utility.yul\":6353:6355   */\n              0x40\n                /* \"#utility.yul\":6342:6351   */\n              dup4\n                /* \"#utility.yul\":6338:6356   */\n              add\n                /* \"#utility.yul\":6329:6335   */\n              dup7\n                /* \"#utility.yul\":6269:6357   */\n              tag_166\n              jump\t// in\n            tag_275:\n                /* \"#utility.yul\":6367:6433   */\n              tag_276\n                /* \"#utility.yul\":6429:6431   */\n              0x60\n                /* \"#utility.yul\":6418:6427   */\n              dup4\n                /* \"#utility.yul\":6414:6432   */\n              add\n                /* \"#utility.yul\":6405:6411   */\n              dup6\n                /* \"#utility.yul\":6367:6433   */\n              tag_157\n              jump\t// in\n            tag_276:\n                /* \"#utility.yul\":6443:6516   */\n              tag_277\n                /* \"#utility.yul\":6511:6514   */\n              0x80\n                /* \"#utility.yul\":6500:6509   */\n              dup4\n                /* \"#utility.yul\":6496:6515   */\n              add\n                /* \"#utility.yul\":6487:6493   */\n              dup5\n                /* \"#utility.yul\":6443:6516   */\n              tag_163\n              jump\t// in\n            tag_277:\n                /* \"#utility.yul\":5748:6523   */\n              swap7\n              swap6\n              pop\n              pop\n              pop\n              pop\n              pop\n              pop\n              jump\t// out\n                /* \"#utility.yul\":6529:6646   */\n            tag_167:\n                /* \"#utility.yul\":6638:6639   */\n              0x00\n                /* \"#utility.yul\":6635:6636   */\n              dup1\n                /* \"#utility.yul\":6628:6640   */\n              revert\n                /* \"#utility.yul\":6652:6769   */\n            tag_168:\n                /* \"#utility.yul\":6761:6762   */\n              0x00\n                /* \"#utility.yul\":6758:6759   */\n              dup1\n                /* \"#utility.yul\":6751:6763   */\n              revert\n                /* \"#utility.yul\":6775:6955   */\n            tag_169:\n                /* \"#utility.yul\":6823:6900   */\n              0x4e487b7100000000000000000000000000000000000000000000000000000000\n                /* \"#utility.yul\":6820:6821   */\n              0x00\n                /* \"#utility.yul\":6813:6901   */\n              mstore\n                /* \"#utility.yul\":6920:6924   */\n              0x41\n                /* \"#utility.yul\":6917:6918   */\n              0x04\n                /* \"#utility.yul\":6910:6925   */\n              mstore\n                /* \"#utility.yul\":6944:6948   */\n              0x24\n                /* \"#utility.yul\":6941:6942   */\n              0x00\n                /* \"#utility.yul\":6934:6949   */\n              revert\n                /* \"#utility.yul\":6961:7242   */\n            tag_170:\n                /* \"#utility.yul\":7044:7071   */\n              tag_282\n                /* \"#utility.yul\":7066:7070   */\n              dup3\n                /* \"#utility.yul\":7044:7071   */\n              tag_161\n              jump\t// in\n            tag_282:\n                /* \"#utility.yul\":7036:7042   */\n              dup2\n                /* \"#utility.yul\":7032:7072   */\n              add\n                /* \"#utility.yul\":7174:7180   */\n              dup2\n                /* \"#utility.yul\":7162:7172   */\n              dup2\n                /* \"#utility.yul\":7159:7181   */\n              lt\n                /* \"#utility.yul\":7138:7156   */\n              0xffffffffffffffff\n                /* \"#utility.yul\":7126:7136   */\n              dup3\n                /* \"#utility.yul\":7123:7157   */\n              gt\n                /* \"#utility.yul\":7120:7182   */\n              or\n                /* \"#utility.yul\":7117:7205   */\n              iszero\n              tag_283\n              jumpi\n                /* \"#utility.yul\":7185:7203   */\n              tag_284\n              tag_169\n              jump\t// in\n            tag_284:\n                /* \"#utility.yul\":7117:7205   */\n            tag_283:\n                /* \"#utility.yul\":7225:7235   */\n              dup1\n                /* \"#utility.yul\":7221:7223   */\n              0x40\n                /* \"#utility.yul\":7214:7236   */\n              mstore\n                /* \"#utility.yul\":7004:7242   */\n              pop\n                /* \"#utility.yul\":6961:7242   */\n              pop\n              pop\n              jump\t// out\n                /* \"#utility.yul\":7248:7377   */\n            tag_171:\n                /* \"#utility.yul\":7282:7288   */\n              0x00\n                /* \"#utility.yul\":7309:7329   */\n              tag_286\n              tag_146\n              jump\t// in\n            tag_286:\n                /* \"#utility.yul\":7299:7329   */\n              swap1\n              pop\n                /* \"#utility.yul\":7338:7371   */\n              tag_287\n                /* \"#utility.yul\":7366:7370   */\n              dup3\n                /* \"#utility.yul\":7358:7364   */\n              dup3\n                /* \"#utility.yul\":7338:7371   */\n              tag_170\n              jump\t// in\n            tag_287:\n                /* \"#utility.yul\":7248:7377   */\n              swap2\n              swap1\n              pop\n              jump\t// out\n                /* \"#utility.yul\":7383:7691   */\n            tag_172:\n                /* \"#utility.yul\":7445:7449   */\n              0x00\n                /* \"#utility.yul\":7535:7553   */\n              0xffffffffffffffff\n                /* \"#utility.yul\":7527:7533   */\n              dup3\n                /* \"#utility.yul\":7524:7554   */\n              gt\n                /* \"#utility.yul\":7521:7577   */\n              iszero\n              tag_289\n              jumpi\n                /* \"#utility.yul\":7557:7575   */\n              tag_290\n              tag_169\n              jump\t// in\n            tag_290:\n                /* \"#utility.yul\":7521:7577   */\n            tag_289:\n                /* \"#utility.yul\":7595:7624   */\n              tag_291\n                /* \"#utility.yul\":7617:7623   */\n              dup3\n                /* \"#utility.yul\":7595:7624   */\n              tag_161\n              jump\t// in\n            tag_291:\n                /* \"#utility.yul\":7587:7624   */\n              swap1\n              pop\n                /* \"#utility.yul\":7679:7683   */\n              0x20\n                /* \"#utility.yul\":7673:7677   */\n              dup2\n                /* \"#utility.yul\":7669:7684   */\n              add\n                /* \"#utility.yul\":7661:7684   */\n              swap1\n              pop\n                /* \"#utility.yul\":7383:7691   */\n              swap2\n              swap1\n              pop\n              jump\t// out\n                /* \"#utility.yul\":7697:7843   */\n            tag_173:\n                /* \"#utility.yul\":7794:7800   */\n              dup3\n                /* \"#utility.yul\":7789:7792   */\n              dup2\n                /* \"#utility.yul\":7784:7787   */\n              dup4\n                /* \"#utility.yul\":7771:7801   */\n              calldatacopy\n                /* \"#utility.yul\":7835:7836   */\n              0x00\n                /* \"#utility.yul\":7826:7832   */\n              dup4\n                /* \"#utility.yul\":7821:7824   */\n              dup4\n                /* \"#utility.yul\":7817:7833   */\n              add\n                /* \"#utility.yul\":7810:7837   */\n              mstore\n                /* \"#utility.yul\":7697:7843   */\n              pop\n              pop\n              pop\n              jump\t// out\n                /* \"#utility.yul\":7849:8274   */\n            tag_174:\n                /* \"#utility.yul\":7927:7932   */\n              0x00\n                /* \"#utility.yul\":7952:8018   */\n              tag_294\n                /* \"#utility.yul\":7968:8017   */\n              tag_295\n                /* \"#utility.yul\":8010:8016   */\n              dup5\n                /* \"#utility.yul\":7968:8017   */\n              tag_172\n              jump\t// in\n            tag_295:\n                /* \"#utility.yul\":7952:8018   */\n              tag_171\n              jump\t// in\n            tag_294:\n                /* \"#utility.yul\":7943:8018   */\n              swap1\n              pop\n                /* \"#utility.yul\":8041:8047   */\n              dup3\n                /* \"#utility.yul\":8034:8039   */\n              dup2\n                /* \"#utility.yul\":8027:8048   */\n              mstore\n                /* \"#utility.yul\":8079:8083   */\n              0x20\n                /* \"#utility.yul\":8072:8077   */\n              dup2\n                /* \"#utility.yul\":8068:8084   */\n              add\n                /* \"#utility.yul\":8117:8120   */\n              dup5\n                /* \"#utility.yul\":8108:8114   */\n              dup5\n                /* \"#utility.yul\":8103:8106   */\n              dup5\n                /* \"#utility.yul\":8099:8115   */\n              add\n                /* \"#utility.yul\":8096:8121   */\n              gt\n                /* \"#utility.yul\":8093:8205   */\n              iszero\n              tag_296\n              jumpi\n                /* \"#utility.yul\":8124:8203   */\n              tag_297\n              tag_168\n              jump\t// in\n            tag_297:\n                /* \"#utility.yul\":8093:8205   */\n            tag_296:\n                /* \"#utility.yul\":8214:8268   */\n              tag_298\n                /* \"#utility.yul\":8261:8267   */\n              dup5\n                /* \"#utility.yul\":8256:8259   */\n              dup3\n                /* \"#utility.yul\":8251:8254   */\n              dup6\n                /* \"#utility.yul\":8214:8268   */\n              tag_173\n              jump\t// in\n            tag_298:\n                /* \"#utility.yul\":7933:8274   */\n              pop\n                /* \"#utility.yul\":7849:8274   */\n              swap4\n              swap3\n              pop\n              pop\n              pop\n              jump\t// out\n                /* \"#utility.yul\":8294:8634   */\n            tag_175:\n                /* \"#utility.yul\":8350:8355   */\n              0x00\n                /* \"#utility.yul\":8399:8402   */\n              dup3\n                /* \"#utility.yul\":8392:8396   */\n              0x1f\n                /* \"#utility.yul\":8384:8390   */\n              dup4\n                /* \"#utility.yul\":8380:8397   */\n              add\n                /* \"#utility.yul\":8376:8403   */\n              slt\n                /* \"#utility.yul\":8366:8488   */\n              tag_300\n              jumpi\n                /* \"#utility.yul\":8407:8486   */\n              tag_301\n              tag_167\n              jump\t// in\n            tag_301:\n                /* \"#utility.yul\":8366:8488   */\n            tag_300:\n                /* \"#utility.yul\":8524:8530   */\n              dup2\n                /* \"#utility.yul\":8511:8531   */\n              calldataload\n                /* \"#utility.yul\":8549:8628   */\n              tag_302\n                /* \"#utility.yul\":8624:8627   */\n              dup5\n                /* \"#utility.yul\":8616:8622   */\n              dup3\n                /* \"#utility.yul\":8609:8613   */\n              0x20\n                /* \"#utility.yul\":8601:8607   */\n              dup7\n                /* \"#utility.yul\":8597:8614   */\n              add\n                /* \"#utility.yul\":8549:8628   */\n              tag_174\n              jump\t// in\n            tag_302:\n                /* \"#utility.yul\":8540:8628   */\n              swap2\n              pop\n                /* \"#utility.yul\":8356:8634   */\n              pop\n                /* \"#utility.yul\":8294:8634   */\n              swap3\n              swap2\n              pop\n              pop\n              jump\t// out\n                /* \"#utility.yul\":8640:8778   */\n            tag_176:\n                /* \"#utility.yul\":8721:8753   */\n              tag_304\n                /* \"#utility.yul\":8747:8752   */\n              dup2\n                /* \"#utility.yul\":8721:8753   */\n              tag_165\n              jump\t// in\n            tag_304:\n                /* \"#utility.yul\":8714:8719   */\n              dup2\n                /* \"#utility.yul\":8711:8754   */\n              eq\n                /* \"#utility.yul\":8701:8772   */\n              tag_305\n              jumpi\n                /* \"#utility.yul\":8768:8769   */\n              0x00\n                /* \"#utility.yul\":8765:8766   */\n              dup1\n                /* \"#utility.yul\":8758:8770   */\n              revert\n                /* \"#utility.yul\":8701:8772   */\n            tag_305:\n                /* \"#utility.yul\":8640:8778   */\n              pop\n              jump\t// out\n                /* \"#utility.yul\":8784:8939   */\n            tag_177:\n                /* \"#utility.yul\":8838:8843   */\n              0x00\n                /* \"#utility.yul\":8876:8882   */\n              dup2\n                /* \"#utility.yul\":8863:8883   */\n              calldataload\n                /* \"#utility.yul\":8854:8883   */\n              swap1\n              pop\n                /* \"#utility.yul\":8892:8933   */\n              tag_307\n                /* \"#utility.yul\":8927:8932   */\n              dup2\n                /* \"#utility.yul\":8892:8933   */\n              tag_176\n              jump\t// in\n            tag_307:\n                /* \"#utility.yul\":8784:8939   */\n              swap3\n              swap2\n              pop\n              pop\n              jump\t// out\n                /* \"#utility.yul\":8945:9760   */\n            tag_74:\n                /* \"#utility.yul\":9040:9046   */\n              0x00\n                /* \"#utility.yul\":9048:9054   */\n              dup1\n                /* \"#utility.yul\":9056:9062   */\n              0x00\n                /* \"#utility.yul\":9105:9107   */\n              0x60\n                /* \"#utility.yul\":9093:9102   */\n              dup5\n                /* \"#utility.yul\":9084:9091   */\n              dup7\n                /* \"#utility.yul\":9080:9103   */\n              sub\n                /* \"#utility.yul\":9076:9108   */\n              slt\n                /* \"#utility.yul\":9073:9192   */\n              iszero\n              tag_309\n              jumpi\n                /* \"#utility.yul\":9111:9190   */\n              tag_310\n              tag_147\n              jump\t// in\n            tag_310:\n                /* \"#utility.yul\":9073:9192   */\n            tag_309:\n                /* \"#utility.yul\":9259:9260   */\n              0x00\n                /* \"#utility.yul\":9248:9257   */\n              dup5\n                /* \"#utility.yul\":9244:9261   */\n              add\n                /* \"#utility.yul\":9231:9262   */\n              calldataload\n                /* \"#utility.yul\":9289:9307   */\n              0xffffffffffffffff\n                /* \"#utility.yul\":9281:9287   */\n              dup2\n                /* \"#utility.yul\":9278:9308   */\n              gt\n                /* \"#utility.yul\":9275:9392   */\n              iszero\n              tag_311\n              jumpi\n                /* \"#utility.yul\":9311:9390   */\n              tag_312\n              tag_148\n              jump\t// in\n            tag_312:\n                /* \"#utility.yul\":9275:9392   */\n            tag_311:\n                /* \"#utility.yul\":9416:9479   */\n              tag_313\n                /* \"#utility.yul\":9471:9478   */\n              dup7\n                /* \"#utility.yul\":9462:9468   */\n              dup3\n                /* \"#utility.yul\":9451:9460   */\n              dup8\n                /* \"#utility.yul\":9447:9469   */\n              add\n                /* \"#utility.yul\":9416:9479   */\n              tag_175\n              jump\t// in\n            tag_313:\n                /* \"#utility.yul\":9406:9479   */\n              swap4\n              pop\n                /* \"#utility.yul\":9202:9489   */\n              pop\n                /* \"#utility.yul\":9528:9530   */\n              0x20\n                /* \"#utility.yul\":9554:9607   */\n              tag_314\n                /* \"#utility.yul\":9599:9606   */\n              dup7\n                /* \"#utility.yul\":9590:9596   */\n              dup3\n                /* \"#utility.yul\":9579:9588   */\n              dup8\n                /* \"#utility.yul\":9575:9597   */\n              add\n                /* \"#utility.yul\":9554:9607   */\n              tag_151\n              jump\t// in\n            tag_314:\n                /* \"#utility.yul\":9544:9607   */\n              swap3\n              pop\n                /* \"#utility.yul\":9499:9617   */\n              pop\n                /* \"#utility.yul\":9656:9658   */\n              0x40\n                /* \"#utility.yul\":9682:9743   */\n              tag_315\n                /* \"#utility.yul\":9735:9742   */\n              dup7\n                /* \"#utility.yul\":9726:9732   */\n              dup3\n                /* \"#utility.yul\":9715:9724   */\n              dup8\n                /* \"#utility.yul\":9711:9733   */\n              add\n                /* \"#utility.yul\":9682:9743   */\n              tag_177\n              jump\t// in\n            tag_315:\n                /* \"#utility.yul\":9672:9743   */\n              swap2\n              pop\n                /* \"#utility.yul\":9627:9753   */\n              pop\n                /* \"#utility.yul\":8945:9760   */\n              swap3\n              pop\n              swap3\n              pop\n              swap3\n              jump\t// out\n                /* \"#utility.yul\":9766:9941   */\n            tag_178:\n                /* \"#utility.yul\":9906:9933   */\n              0x43616c6c6572206973206e6f7420746865206d616e6167657200000000000000\n                /* \"#utility.yul\":9902:9903   */\n              0x00\n                /* \"#utility.yul\":9894:9900   */\n              dup3\n                /* \"#utility.yul\":9890:9904   */\n              add\n                /* \"#utility.yul\":9883:9934   */\n              mstore\n                /* \"#utility.yul\":9766:9941   */\n              pop\n              jump\t// out\n                /* \"#utility.yul\":9947:10313   */\n            tag_179:\n                /* \"#utility.yul\":10089:10092   */\n              0x00\n                /* \"#utility.yul\":10110:10177   */\n              tag_318\n                /* \"#utility.yul\":10174:10176   */\n              0x19\n                /* \"#utility.yul\":10169:10172   */\n              dup4\n                /* \"#utility.yul\":10110:10177   */\n              tag_159\n              jump\t// in\n            tag_318:\n                /* \"#utility.yul\":10103:10177   */\n              swap2\n              pop\n                /* \"#utility.yul\":10186:10279   */\n              tag_319\n                /* \"#utility.yul\":10275:10278   */\n              dup3\n                /* \"#utility.yul\":10186:10279   */\n              tag_178\n              jump\t// in\n            tag_319:\n                /* \"#utility.yul\":10304:10306   */\n              0x20\n                /* \"#utility.yul\":10299:10302   */\n              dup3\n                /* \"#utility.yul\":10295:10307   */\n              add\n                /* \"#utility.yul\":10288:10307   */\n              swap1\n              pop\n                /* \"#utility.yul\":9947:10313   */\n              swap2\n              swap1\n              pop\n              jump\t// out\n                /* \"#utility.yul\":10319:10738   */\n            tag_89:\n                /* \"#utility.yul\":10485:10489   */\n              0x00\n                /* \"#utility.yul\":10523:10525   */\n              0x20\n                /* \"#utility.yul\":10512:10521   */\n              dup3\n                /* \"#utility.yul\":10508:10526   */\n              add\n                /* \"#utility.yul\":10500:10526   */\n              swap1\n              pop\n                /* \"#utility.yul\":10572:10581   */\n              dup2\n                /* \"#utility.yul\":10566:10570   */\n              dup2\n                /* \"#utility.yul\":10562:10582   */\n              sub\n                /* \"#utility.yul\":10558:10559   */\n              0x00\n                /* \"#utility.yul\":10547:10556   */\n              dup4\n                /* \"#utility.yul\":10543:10560   */\n              add\n                /* \"#utility.yul\":10536:10583   */\n              mstore\n                /* \"#utility.yul\":10600:10731   */\n              tag_321\n                /* \"#utility.yul\":10726:10730   */\n              dup2\n                /* \"#utility.yul\":10600:10731   */\n              tag_179\n              jump\t// in\n            tag_321:\n                /* \"#utility.yul\":10592:10731   */\n              swap1\n              pop\n                /* \"#utility.yul\":10319:10738   */\n              swap2\n              swap1\n              pop\n              jump\t// out\n                /* \"#utility.yul\":10744:10924   */\n            tag_93:\n                /* \"#utility.yul\":10792:10869   */\n              0x4e487b7100000000000000000000000000000000000000000000000000000000\n                /* \"#utility.yul\":10789:10790   */\n              0x00\n                /* \"#utility.yul\":10782:10870   */\n              mstore\n                /* \"#utility.yul\":10889:10893   */\n              0x32\n                /* \"#utility.yul\":10886:10887   */\n              0x04\n                /* \"#utility.yul\":10879:10894   */\n              mstore\n                /* \"#utility.yul\":10913:10917   */\n              0x24\n                /* \"#utility.yul\":10910:10911   */\n              0x00\n                /* \"#utility.yul\":10903:10918   */\n              revert\n                /* \"#utility.yul\":10930:11110   */\n            tag_180:\n                /* \"#utility.yul\":10978:11055   */\n              0x4e487b7100000000000000000000000000000000000000000000000000000000\n                /* \"#utility.yul\":10975:10976   */\n              0x00\n                /* \"#utility.yul\":10968:11056   */\n              mstore\n                /* \"#utility.yul\":11075:11079   */\n              0x12\n                /* \"#utility.yul\":11072:11073   */\n              0x04\n                /* \"#utility.yul\":11065:11080   */\n              mstore\n                /* \"#utility.yul\":11099:11103   */\n              0x24\n                /* \"#utility.yul\":11096:11097   */\n              0x00\n                /* \"#utility.yul\":11089:11104   */\n              revert\n                /* \"#utility.yul\":11116:11296   */\n            tag_181:\n                /* \"#utility.yul\":11164:11241   */\n              0x4e487b7100000000000000000000000000000000000000000000000000000000\n                /* \"#utility.yul\":11161:11162   */\n              0x00\n                /* \"#utility.yul\":11154:11242   */\n              mstore\n                /* \"#utility.yul\":11261:11265   */\n              0x11\n                /* \"#utility.yul\":11258:11259   */\n              0x04\n                /* \"#utility.yul\":11251:11266   */\n              mstore\n                /* \"#utility.yul\":11285:11289   */\n              0x24\n                /* \"#utility.yul\":11282:11283   */\n              0x00\n                /* \"#utility.yul\":11275:11290   */\n              revert\n                /* \"#utility.yul\":11302:11487   */\n            tag_96:\n                /* \"#utility.yul\":11342:11343   */\n              0x00\n                /* \"#utility.yul\":11359:11379   */\n              tag_326\n                /* \"#utility.yul\":11377:11378   */\n              dup3\n                /* \"#utility.yul\":11359:11379   */\n              tag_149\n              jump\t// in\n            tag_326:\n                /* \"#utility.yul\":11354:11379   */\n              swap2\n              pop\n                /* \"#utility.yul\":11393:11413   */\n              tag_327\n                /* \"#utility.yul\":11411:11412   */\n              dup4\n                /* \"#utility.yul\":11393:11413   */\n              tag_149\n              jump\t// in\n            tag_327:\n                /* \"#utility.yul\":11388:11413   */\n              swap3\n              pop\n                /* \"#utility.yul\":11432:11433   */\n              dup3\n                /* \"#utility.yul\":11422:11457   */\n              tag_328\n              jumpi\n                /* \"#utility.yul\":11437:11455   */\n              tag_329\n              tag_180\n              jump\t// in\n            tag_329:\n                /* \"#utility.yul\":11422:11457   */\n            tag_328:\n                /* \"#utility.yul\":11479:11480   */\n              dup3\n                /* \"#utility.yul\":11476:11477   */\n              dup3\n                /* \"#utility.yul\":11472:11481   */\n              div\n                /* \"#utility.yul\":11467:11481   */\n              swap1\n              pop\n                /* \"#utility.yul\":11302:11487   */\n              swap3\n              swap2\n              pop\n              pop\n              jump\t// out\n                /* \"#utility.yul\":11493:11663   */\n            tag_182:\n                /* \"#utility.yul\":11633:11655   */\n              0x4e6f7420656e6f75676820617070726f76616c73000000000000000000000000\n                /* \"#utility.yul\":11629:11630   */\n              0x00\n                /* \"#utility.yul\":11621:11627   */\n              dup3\n                /* \"#utility.yul\":11617:11631   */\n              add\n                /* \"#utility.yul\":11610:11656   */\n              mstore\n                /* \"#utility.yul\":11493:11663   */\n              pop\n              jump\t// out\n                /* \"#utility.yul\":11669:12035   */\n            tag_183:\n                /* \"#utility.yul\":11811:11814   */\n              0x00\n                /* \"#utility.yul\":11832:11899   */\n              tag_332\n                /* \"#utility.yul\":11896:11898   */\n              0x14\n                /* \"#utility.yul\":11891:11894   */\n              dup4\n                /* \"#utility.yul\":11832:11899   */\n              tag_159\n              jump\t// in\n            tag_332:\n                /* \"#utility.yul\":11825:11899   */\n              swap2\n              pop\n                /* \"#utility.yul\":11908:12001   */\n              tag_333\n                /* \"#utility.yul\":11997:12000   */\n              dup3\n                /* \"#utility.yul\":11908:12001   */\n              tag_182\n              jump\t// in\n            tag_333:\n                /* \"#utility.yul\":12026:12028   */\n              0x20\n                /* \"#utility.yul\":12021:12024   */\n              dup3\n                /* \"#utility.yul\":12017:12029   */\n              add\n                /* \"#utility.yul\":12010:12029   */\n              swap1\n              pop\n                /* \"#utility.yul\":11669:12035   */\n              swap2\n              swap1\n              pop\n              jump\t// out\n                /* \"#utility.yul\":12041:12460   */\n            tag_99:\n                /* \"#utility.yul\":12207:12211   */\n              0x00\n                /* \"#utility.yul\":12245:12247   */\n              0x20\n                /* \"#utility.yul\":12234:12243   */\n              dup3\n                /* \"#utility.yul\":12230:12248   */\n              add\n                /* \"#utility.yul\":12222:12248   */\n              swap1\n              pop\n                /* \"#utility.yul\":12294:12303   */\n              dup2\n                /* \"#utility.yul\":12288:12292   */\n              dup2\n                /* \"#utility.yul\":12284:12304   */\n              sub\n                /* \"#utility.yul\":12280:12281   */\n              0x00\n                /* \"#utility.yul\":12269:12278   */\n              dup4\n                /* \"#utility.yul\":12265:12282   */\n              add\n                /* \"#utility.yul\":12258:12305   */\n              mstore\n                /* \"#utility.yul\":12322:12453   */\n              tag_335\n                /* \"#utility.yul\":12448:12452   */\n              dup2\n                /* \"#utility.yul\":12322:12453   */\n              tag_183\n              jump\t// in\n            tag_335:\n                /* \"#utility.yul\":12314:12453   */\n              swap1\n              pop\n                /* \"#utility.yul\":12041:12460   */\n              swap2\n              swap1\n              pop\n              jump\t// out\n                /* \"#utility.yul\":12466:12641   */\n            tag_184:\n                /* \"#utility.yul\":12606:12633   */\n              0x5265717565737420616c72656164792066696e616c697a656400000000000000\n                /* \"#utility.yul\":12602:12603   */\n              0x00\n                /* \"#utility.yul\":12594:12600   */\n              dup3\n                /* \"#utility.yul\":12590:12604   */\n              add\n                /* \"#utility.yul\":12583:12634   */\n              mstore\n                /* \"#utility.yul\":12466:12641   */\n              pop\n              jump\t// out\n                /* \"#utility.yul\":12647:13013   */\n            tag_185:\n                /* \"#utility.yul\":12789:12792   */\n              0x00\n                /* \"#utility.yul\":12810:12877   */\n              tag_338\n                /* \"#utility.yul\":12874:12876   */\n              0x19\n                /* \"#utility.yul\":12869:12872   */\n              dup4\n                /* \"#utility.yul\":12810:12877   */\n              tag_159\n              jump\t// in\n            tag_338:\n                /* \"#utility.yul\":12803:12877   */\n              swap2\n              pop\n                /* \"#utility.yul\":12886:12979   */\n              tag_339\n                /* \"#utility.yul\":12975:12978   */\n              dup3\n                /* \"#utility.yul\":12886:12979   */\n              tag_184\n              jump\t// in\n            tag_339:\n                /* \"#utility.yul\":13004:13006   */\n              0x20\n                /* \"#utility.yul\":12999:13002   */\n              dup3\n                /* \"#utility.yul\":12995:13007   */\n              add\n                /* \"#utility.yul\":12988:13007   */\n              swap1\n              pop\n                /* \"#utility.yul\":12647:13013   */\n              swap2\n              swap1\n              pop\n              jump\t// out\n                /* \"#utility.yul\":13019:13438   */\n            tag_102:\n                /* \"#utility.yul\":13185:13189   */\n              0x00\n                /* \"#utility.yul\":13223:13225   */\n              0x20\n                /* \"#utility.yul\":13212:13221   */\n              dup3\n                /* \"#utility.yul\":13208:13226   */\n              add\n                /* \"#utility.yul\":13200:13226   */\n              swap1\n              pop\n                /* \"#utility.yul\":13272:13281   */\n              dup2\n                /* \"#utility.yul\":13266:13270   */\n              dup2\n                /* \"#utility.yul\":13262:13282   */\n              sub\n                /* \"#utility.yul\":13258:13259   */\n              0x00\n                /* \"#utility.yul\":13247:13256   */\n              dup4\n                /* \"#utility.yul\":13243:13260   */\n              add\n                /* \"#utility.yul\":13236:13283   */\n              mstore\n                /* \"#utility.yul\":13300:13431   */\n              tag_341\n                /* \"#utility.yul\":13426:13430   */\n              dup2\n                /* \"#utility.yul\":13300:13431   */\n              tag_185\n              jump\t// in\n            tag_341:\n                /* \"#utility.yul\":13292:13431   */\n              swap1\n              pop\n                /* \"#utility.yul\":13019:13438   */\n              swap2\n              swap1\n              pop\n              jump\t// out\n                /* \"#utility.yul\":13444:13624   */\n            tag_186:\n                /* \"#utility.yul\":13492:13569   */\n              0x4e487b7100000000000000000000000000000000000000000000000000000000\n                /* \"#utility.yul\":13489:13490   */\n              0x00\n                /* \"#utility.yul\":13482:13570   */\n              mstore\n                /* \"#utility.yul\":13589:13593   */\n              0x22\n                /* \"#utility.yul\":13586:13587   */\n              0x04\n                /* \"#utility.yul\":13579:13594   */\n              mstore\n                /* \"#utility.yul\":13613:13617   */\n              0x24\n                /* \"#utility.yul\":13610:13611   */\n              0x00\n                /* \"#utility.yul\":13603:13618   */\n              revert\n                /* \"#utility.yul\":13630:13950   */\n            tag_106:\n                /* \"#utility.yul\":13674:13680   */\n              0x00\n                /* \"#utility.yul\":13711:13712   */\n              0x02\n                /* \"#utility.yul\":13705:13709   */\n              dup3\n                /* \"#utility.yul\":13701:13713   */\n              div\n                /* \"#utility.yul\":13691:13713   */\n              swap1\n              pop\n                /* \"#utility.yul\":13758:13759   */\n              0x01\n                /* \"#utility.yul\":13752:13756   */\n              dup3\n                /* \"#utility.yul\":13748:13760   */\n              and\n                /* \"#utility.yul\":13779:13797   */\n              dup1\n                /* \"#utility.yul\":13769:13850   */\n              tag_344\n              jumpi\n                /* \"#utility.yul\":13835:13839   */\n              0x7f\n                /* \"#utility.yul\":13827:13833   */\n              dup3\n                /* \"#utility.yul\":13823:13840   */\n              and\n                /* \"#utility.yul\":13813:13840   */\n              swap2\n              pop\n                /* \"#utility.yul\":13769:13850   */\n            tag_344:\n                /* \"#utility.yul\":13897:13899   */\n              0x20\n                /* \"#utility.yul\":13889:13895   */\n              dup3\n                /* \"#utility.yul\":13886:13900   */\n              lt\n                /* \"#utility.yul\":13866:13884   */\n              dup2\n                /* \"#utility.yul\":13863:13901   */\n              sub\n                /* \"#utility.yul\":13860:13944   */\n              tag_345\n              jumpi\n                /* \"#utility.yul\":13916:13934   */\n              tag_346\n              tag_186\n              jump\t// in\n            tag_346:\n                /* \"#utility.yul\":13860:13944   */\n            tag_345:\n                /* \"#utility.yul\":13681:13950   */\n              pop\n                /* \"#utility.yul\":13630:13950   */\n              swap2\n              swap1\n              pop\n              jump\t// out\n                /* \"#utility.yul\":13956:14097   */\n            tag_187:\n                /* \"#utility.yul\":14005:14009   */\n              0x00\n                /* \"#utility.yul\":14028:14031   */\n              dup2\n                /* \"#utility.yul\":14020:14031   */\n              swap1\n              pop\n                /* \"#utility.yul\":14051:14054   */\n              dup2\n                /* \"#utility.yul\":14048:14049   */\n              0x00\n                /* \"#utility.yul\":14041:14055   */\n              mstore\n                /* \"#utility.yul\":14085:14089   */\n              0x20\n                /* \"#utility.yul\":14082:14083   */\n              0x00\n                /* \"#utility.yul\":14072:14090   */\n              keccak256\n                /* \"#utility.yul\":14064:14090   */\n              swap1\n              pop\n                /* \"#utility.yul\":13956:14097   */\n              swap2\n              swap1\n              pop\n              jump\t// out\n                /* \"#utility.yul\":14103:14196   */\n            tag_188:\n                /* \"#utility.yul\":14140:14146   */\n              0x00\n                /* \"#utility.yul\":14187:14189   */\n              0x20\n                /* \"#utility.yul\":14182:14184   */\n              0x1f\n                /* \"#utility.yul\":14175:14180   */\n              dup4\n                /* \"#utility.yul\":14171:14185   */\n              add\n                /* \"#utility.yul\":14167:14190   */\n              div\n                /* \"#utility.yul\":14157:14190   */\n              swap1\n              pop\n                /* \"#utility.yul\":14103:14196   */\n              swap2\n              swap1\n              pop\n              jump\t// out\n                /* \"#utility.yul\":14202:14309   */\n            tag_189:\n                /* \"#utility.yul\":14246:14254   */\n              0x00\n                /* \"#utility.yul\":14296:14301   */\n              dup3\n                /* \"#utility.yul\":14290:14294   */\n              dup3\n                /* \"#utility.yul\":14286:14302   */\n              shl\n                /* \"#utility.yul\":14265:14302   */\n              swap1\n              pop\n                /* \"#utility.yul\":14202:14309   */\n              swap3\n              swap2\n              pop\n              pop\n              jump\t// out\n                /* \"#utility.yul\":14315:14708   */\n            tag_190:\n                /* \"#utility.yul\":14384:14390   */\n              0x00\n                /* \"#utility.yul\":14434:14435   */\n              0x08\n                /* \"#utility.yul\":14422:14432   */\n              dup4\n                /* \"#utility.yul\":14418:14436   */\n              mul\n                /* \"#utility.yul\":14457:14554   */\n              tag_351\n                /* \"#utility.yul\":14487:14553   */\n              0xffffffffffffffffffffffffffffffffffffffffffffffffffffffffffffffff\n                /* \"#utility.yul\":14476:14485   */\n              dup3\n                /* \"#utility.yul\":14457:14554   */\n              tag_189\n              jump\t// in\n            tag_351:\n                /* \"#utility.yul\":14575:14614   */\n              tag_352\n                /* \"#utility.yul\":14605:14613   */\n              dup7\n                /* \"#utility.yul\":14594:14603   */\n              dup4\n                /* \"#utility.yul\":14575:14614   */\n              tag_189\n              jump\t// in\n            tag_352:\n                /* \"#utility.yul\":14563:14614   */\n              swap6\n              pop\n                /* \"#utility.yul\":14647:14651   */\n              dup1\n                /* \"#utility.yul\":14643:14652   */\n              not\n                /* \"#utility.yul\":14636:14641   */\n              dup5\n                /* \"#utility.yul\":14632:14653   */\n              and\n                /* \"#utility.yul\":14623:14653   */\n              swap4\n              pop\n                /* \"#utility.yul\":14696:14700   */\n              dup1\n                /* \"#utility.yul\":14686:14694   */\n              dup7\n                /* \"#utility.yul\":14682:14701   */\n              and\n                /* \"#utility.yul\":14675:14680   */\n              dup5\n                /* \"#utility.yul\":14672:14702   */\n              or\n                /* \"#utility.yul\":14662:14702   */\n              swap3\n              pop\n                /* \"#utility.yul\":14391:14708   */\n              pop\n              pop\n                /* \"#utility.yul\":14315:14708   */\n              swap4\n              swap3\n              pop\n              pop\n              pop\n              jump\t// out\n                /* \"#utility.yul\":14714:14774   */\n            tag_191:\n                /* \"#utility.yul\":14742:14745   */\n              0x00\n                /* \"#utility.yul\":14763:14768   */\n              dup2\n                /* \"#utility.yul\":14756:14768   */\n              swap1\n              pop\n                /* \"#utility.yul\":14714:14774   */\n              swap2\n              swap1\n              pop\n              jump\t// out\n                /* \"#utility.yul\":14780:14922   */\n            tag_192:\n                /* \"#utility.yul\":14830:14839   */\n              0x00\n                /* \"#utility.yul\":14863:14916   */\n              tag_355\n                /* \"#utility.yul\":14881:14915   */\n              tag_356\n                /* \"#utility.yul\":14890:14914   */\n              tag_357\n                /* \"#utility.yul\":14908:14913   */\n              dup5\n                /* \"#utility.yul\":14890:14914   */\n              tag_149\n              jump\t// in\n            tag_357:\n                /* \"#utility.yul\":14881:14915   */\n              tag_191\n              jump\t// in\n            tag_356:\n                /* \"#utility.yul\":14863:14916   */\n              tag_149\n              jump\t// in\n            tag_355:\n                /* \"#utility.yul\":14850:14916   */\n              swap1\n              pop\n                /* \"#utility.yul\":14780:14922   */\n              swap2\n              swap1\n              pop\n              jump\t// out\n                /* \"#utility.yul\":14928:15003   */\n            tag_193:\n                /* \"#utility.yul\":14971:14974   */\n              0x00\n                /* \"#utility.yul\":14992:14997   */\n              dup2\n                /* \"#utility.yul\":14985:14997   */\n              swap1\n              pop\n                /* \"#utility.yul\":14928:15003   */\n              swap2\n              swap1\n              pop\n              jump\t// out\n                /* \"#utility.yul\":15009:15278   */\n            tag_194:\n                /* \"#utility.yul\":15119:15158   */\n              tag_360\n                /* \"#utility.yul\":15150:15157   */\n              dup4\n                /* \"#utility.yul\":15119:15158   */\n              tag_192\n              jump\t// in\n            tag_360:\n                /* \"#utility.yul\":15180:15271   */\n              tag_361\n                /* \"#utility.yul\":15229:15270   */\n              tag_362\n                /* \"#utility.yul\":15253:15269   */\n              dup3\n                /* \"#utility.yul\":15229:15270   */\n              tag_193\n              jump\t// in\n            tag_362:\n                /* \"#utility.yul\":15221:15227   */\n              dup5\n                /* \"#utility.yul\":15214:15218   */\n              dup5\n                /* \"#utility.yul\":15208:15219   */\n              sload\n                /* \"#utility.yul\":15180:15271   */\n              tag_190\n              jump\t// in\n            tag_361:\n                /* \"#utility.yul\":15174:15178   */\n              dup3\n                /* \"#utility.yul\":15167:15272   */\n              sstore\n                /* \"#utility.yul\":15085:15278   */\n              pop\n                /* \"#utility.yul\":15009:15278   */\n              pop\n              pop\n              pop\n              jump\t// out\n                /* \"#utility.yul\":15284:15357   */\n            tag_195:\n                /* \"#utility.yul\":15329:15332   */\n              0x00\n                /* \"#utility.yul\":15284:15357   */\n              swap1\n              jump\t// out\n                /* \"#utility.yul\":15363:15552   */\n            tag_196:\n                /* \"#utility.yul\":15440:15472   */\n              tag_365\n              tag_195\n              jump\t// in\n            tag_365:\n                /* \"#utility.yul\":15481:15546   */\n              tag_366\n                /* \"#utility.yul\":15539:15545   */\n              dup2\n                /* \"#utility.yul\":15531:15537   */\n              dup5\n                /* \"#utility.yul\":15525:15529   */\n              dup5\n                /* \"#utility.yul\":15481:15546   */\n              tag_194\n              jump\t// in\n            tag_366:\n                /* \"#utility.yul\":15416:15552   */\n              pop\n                /* \"#utility.yul\":15363:15552   */\n              pop\n              pop\n              jump\t// out\n                /* \"#utility.yul\":15558:15744   */\n            tag_197:\n                /* \"#utility.yul\":15618:15738   */\n            tag_368:\n                /* \"#utility.yul\":15635:15638   */\n              dup2\n                /* \"#utility.yul\":15628:15633   */\n              dup2\n                /* \"#utility.yul\":15625:15639   */\n              lt\n                /* \"#utility.yul\":15618:15738   */\n              iszero\n              tag_370\n              jumpi\n                /* \"#utility.yul\":15689:15728   */\n              tag_371\n                /* \"#utility.yul\":15726:15727   */\n              0x00\n                /* \"#utility.yul\":15719:15724   */\n              dup3\n                /* \"#utility.yul\":15689:15728   */\n              tag_196\n              jump\t// in\n            tag_371:\n                /* \"#utility.yul\":15662:15663   */\n              0x01\n                /* \"#utility.yul\":15655:15660   */\n              dup2\n                /* \"#utility.yul\":15651:15664   */\n              add\n                /* \"#utility.yul\":15642:15664   */\n              swap1\n              pop\n                /* \"#utility.yul\":15618:15738   */\n              jump(tag_368)\n            tag_370:\n                /* \"#utility.yul\":15558:15744   */\n              pop\n              pop\n              jump\t// out\n                /* \"#utility.yul\":15750:16293   */\n            tag_198:\n                /* \"#utility.yul\":15851:15853   */\n              0x1f\n                /* \"#utility.yul\":15846:15849   */\n              dup3\n                /* \"#utility.yul\":15843:15854   */\n              gt\n                /* \"#utility.yul\":15840:16286   */\n              iszero\n              tag_373\n              jumpi\n                /* \"#utility.yul\":15885:15923   */\n              tag_374\n                /* \"#utility.yul\":15917:15922   */\n              dup2\n                /* \"#utility.yul\":15885:15923   */\n              tag_187\n              jump\t// in\n            tag_374:\n                /* \"#utility.yul\":15969:15998   */\n              tag_375\n                /* \"#utility.yul\":15987:15997   */\n              dup5\n                /* \"#utility.yul\":15969:15998   */\n              tag_188\n              jump\t// in\n            tag_375:\n                /* \"#utility.yul\":15959:15967   */\n              dup2\n                /* \"#utility.yul\":15955:15999   */\n              add\n                /* \"#utility.yul\":16152:16154   */\n              0x20\n                /* \"#utility.yul\":16140:16150   */\n              dup6\n                /* \"#utility.yul\":16137:16155   */\n              lt\n                /* \"#utility.yul\":16134:16183   */\n              iszero\n              tag_376\n              jumpi\n                /* \"#utility.yul\":16173:16181   */\n              dup2\n                /* \"#utility.yul\":16158:16181   */\n              swap1\n              pop\n                /* \"#utility.yul\":16134:16183   */\n            tag_376:\n                /* \"#utility.yul\":16196:16276   */\n              tag_377\n                /* \"#utility.yul\":16252:16274   */\n              tag_378\n                /* \"#utility.yul\":16270:16273   */\n              dup6\n                /* \"#utility.yul\":16252:16274   */\n              tag_188\n              jump\t// in\n            tag_378:\n                /* \"#utility.yul\":16242:16250   */\n              dup4\n                /* \"#utility.yul\":16238:16275   */\n              add\n                /* \"#utility.yul\":16225:16236   */\n              dup3\n                /* \"#utility.yul\":16196:16276   */\n              tag_197\n              jump\t// in\n            tag_377:\n                /* \"#utility.yul\":15855:16286   */\n              pop\n              pop\n                /* \"#utility.yul\":15840:16286   */\n            tag_373:\n                /* \"#utility.yul\":15750:16293   */\n              pop\n              pop\n              pop\n              jump\t// out\n                /* \"#utility.yul\":16299:16416   */\n            tag_199:\n                /* \"#utility.yul\":16353:16361   */\n              0x00\n                /* \"#utility.yul\":16403:16408   */\n              dup3\n                /* \"#utility.yul\":16397:16401   */\n              dup3\n                /* \"#utility.yul\":16393:16409   */\n              shr\n                /* \"#utility.yul\":16372:16409   */\n              swap1\n              pop\n                /* \"#utility.yul\":16299:16416   */\n              swap3\n              swap2\n              pop\n              pop\n              jump\t// out\n                /* \"#utility.yul\":16422:16591   */\n            tag_200:\n                /* \"#utility.yul\":16466:16472   */\n              0x00\n                /* \"#utility.yul\":16499:16550   */\n              tag_381\n                /* \"#utility.yul\":16547:16548   */\n              0x00\n                /* \"#utility.yul\":16543:16549   */\n              not\n                /* \"#utility.yul\":16535:16540   */\n              dup5\n                /* \"#utility.yul\":16532:16533   */\n              0x08\n                /* \"#utility.yul\":16528:16541   */\n              mul\n                /* \"#utility.yul\":16499:16550   */\n              tag_199\n              jump\t// in\n            tag_381:\n                /* \"#utility.yul\":16495:16551   */\n              not\n                /* \"#utility.yul\":16580:16584   */\n              dup1\n                /* \"#utility.yul\":16574:16578   */\n              dup4\n                /* \"#utility.yul\":16570:16585   */\n              and\n                /* \"#utility.yul\":16560:16585   */\n              swap2\n              pop\n                /* \"#utility.yul\":16473:16591   */\n              pop\n                /* \"#utility.yul\":16422:16591   */\n              swap3\n              swap2\n              pop\n              pop\n              jump\t// out\n                /* \"#utility.yul\":16596:16891   */\n            tag_201:\n                /* \"#utility.yul\":16672:16676   */\n              0x00\n                /* \"#utility.yul\":16818:16847   */\n              tag_383\n                /* \"#utility.yul\":16843:16846   */\n              dup4\n                /* \"#utility.yul\":16837:16841   */\n              dup4\n                /* \"#utility.yul\":16818:16847   */\n              tag_200\n              jump\t// in\n            tag_383:\n                /* \"#utility.yul\":16810:16847   */\n              swap2\n              pop\n                /* \"#utility.yul\":16880:16883   */\n              dup3\n                /* \"#utility.yul\":16877:16878   */\n              0x02\n                /* \"#utility.yul\":16873:16884   */\n              mul\n                /* \"#utility.yul\":16867:16871   */\n              dup3\n                /* \"#utility.yul\":16864:16885   */\n              or\n                /* \"#utility.yul\":16856:16885   */\n              swap1\n              pop\n                /* \"#utility.yul\":16596:16891   */\n              swap3\n              swap2\n              pop\n              pop\n              jump\t// out\n                /* \"#utility.yul\":16896:18291   */\n            tag_131:\n                /* \"#utility.yul\":17013:17050   */\n              tag_385\n                /* \"#utility.yul\":17046:17049   */\n              dup3\n                /* \"#utility.yul\":17013:17050   */\n              tag_158\n              jump\t// in\n            tag_385:\n                /* \"#utility.yul\":17115:17133   */\n              0xffffffffffffffff\n                /* \"#utility.yul\":17107:17113   */\n              dup2\n                /* \"#utility.yul\":17104:17134   */\n              gt\n                /* \"#utility.yul\":17101:17157   */\n              iszero\n              tag_386\n              jumpi\n                /* \"#utility.yul\":17137:17155   */\n              tag_387\n              tag_169\n              jump\t// in\n            tag_387:\n                /* \"#utility.yul\":17101:17157   */\n            tag_386:\n                /* \"#utility.yul\":17181:17219   */\n              tag_388\n                /* \"#utility.yul\":17213:17217   */\n              dup3\n                /* \"#utility.yul\":17207:17218   */\n              sload\n                /* \"#utility.yul\":17181:17219   */\n              tag_106\n              jump\t// in\n            tag_388:\n                /* \"#utility.yul\":17266:17333   */\n              tag_389\n                /* \"#utility.yul\":17326:17332   */\n              dup3\n                /* \"#utility.yul\":17318:17324   */\n              dup3\n                /* \"#utility.yul\":17312:17316   */\n              dup6\n                /* \"#utility.yul\":17266:17333   */\n              tag_198\n              jump\t// in\n            tag_389:\n                /* \"#utility.yul\":17360:17361   */\n              0x00\n                /* \"#utility.yul\":17384:17388   */\n              0x20\n                /* \"#utility.yul\":17371:17388   */\n              swap1\n              pop\n                /* \"#utility.yul\":17416:17418   */\n              0x1f\n                /* \"#utility.yul\":17408:17414   */\n              dup4\n                /* \"#utility.yul\":17405:17419   */\n              gt\n                /* \"#utility.yul\":17433:17434   */\n              0x01\n                /* \"#utility.yul\":17428:18046   */\n              dup2\n              eq\n              tag_391\n              jumpi\n                /* \"#utility.yul\":18090:18091   */\n              0x00\n                /* \"#utility.yul\":18107:18113   */\n              dup5\n                /* \"#utility.yul\":18104:18181   */\n              iszero\n              tag_392\n              jumpi\n                /* \"#utility.yul\":18156:18165   */\n              dup3\n                /* \"#utility.yul\":18151:18154   */\n              dup8\n                /* \"#utility.yul\":18147:18166   */\n              add\n                /* \"#utility.yul\":18141:18167   */\n              mload\n                /* \"#utility.yul\":18132:18167   */\n              swap1\n              pop\n                /* \"#utility.yul\":18104:18181   */\n            tag_392:\n                /* \"#utility.yul\":18207:18274   */\n              tag_393\n                /* \"#utility.yul\":18267:18273   */\n              dup6\n                /* \"#utility.yul\":18260:18265   */\n              dup3\n                /* \"#utility.yul\":18207:18274   */\n              tag_201\n              jump\t// in\n            tag_393:\n                /* \"#utility.yul\":18201:18205   */\n              dup7\n                /* \"#utility.yul\":18194:18275   */\n              sstore\n                /* \"#utility.yul\":18063:18285   */\n              pop\n                /* \"#utility.yul\":17398:18285   */\n              jump(tag_390)\n                /* \"#utility.yul\":17428:18046   */\n            tag_391:\n                /* \"#utility.yul\":17480:17484   */\n              0x1f\n                /* \"#utility.yul\":17476:17485   */\n              not\n                /* \"#utility.yul\":17468:17474   */\n              dup5\n                /* \"#utility.yul\":17464:17486   */\n              and\n                /* \"#utility.yul\":17514:17551   */\n              tag_394\n                /* \"#utility.yul\":17546:17550   */\n              dup7\n                /* \"#utility.yul\":17514:17551   */\n              tag_187\n              jump\t// in\n            tag_394:\n                /* \"#utility.yul\":17573:17574   */\n              0x00\n                /* \"#utility.yul\":17587:17795   */\n            tag_395:\n                /* \"#utility.yul\":17601:17608   */\n              dup3\n                /* \"#utility.yul\":17598:17599   */\n              dup2\n                /* \"#utility.yul\":17595:17609   */\n              lt\n                /* \"#utility.yul\":17587:17795   */\n              iszero\n              tag_397\n              jumpi\n                /* \"#utility.yul\":17680:17689   */\n              dup5\n                /* \"#utility.yul\":17675:17678   */\n              dup10\n                /* \"#utility.yul\":17671:17690   */\n              add\n                /* \"#utility.yul\":17665:17691   */\n              mload\n                /* \"#utility.yul\":17657:17663   */\n              dup3\n                /* \"#utility.yul\":17650:17692   */\n              sstore\n                /* \"#utility.yul\":17731:17732   */\n              0x01\n                /* \"#utility.yul\":17723:17729   */\n              dup3\n                /* \"#utility.yul\":17719:17733   */\n              add\n                /* \"#utility.yul\":17709:17733   */\n              swap2\n              pop\n                /* \"#utility.yul\":17778:17780   */\n              0x20\n                /* \"#utility.yul\":17767:17776   */\n              dup6\n                /* \"#utility.yul\":17763:17781   */\n              add\n                /* \"#utility.yul\":17750:17781   */\n              swap5\n              pop\n                /* \"#utility.yul\":17624:17628   */\n              0x20\n                /* \"#utility.yul\":17621:17622   */\n              dup2\n                /* \"#utility.yul\":17617:17629   */\n              add\n                /* \"#utility.yul\":17612:17629   */\n              swap1\n              pop\n                /* \"#utility.yul\":17587:17795   */\n              jump(tag_395)\n            tag_397:\n                /* \"#utility.yul\":17823:17829   */\n              dup7\n                /* \"#utility.yul\":17814:17821   */\n              dup4\n                /* \"#utility.yul\":17811:17830   */\n              lt\n                /* \"#utility.yul\":17808:17987   */\n              iszero\n              tag_398\n              jumpi\n                /* \"#utility.yul\":17881:17890   */\n              dup5\n                /* \"#utility.yul\":17876:17879   */\n              dup10\n                /* \"#utility.yul\":17872:17891   */\n              add\n                /* \"#utility.yul\":17866:17892   */\n              mload\n                /* \"#utility.yul\":17924:17972   */\n              tag_399\n                /* \"#utility.yul\":17966:17970   */\n              0x1f\n                /* \"#utility.yul\":17958:17964   */\n              dup10\n                /* \"#utility.yul\":17954:17971   */\n              and\n                /* \"#utility.yul\":17943:17952   */\n              dup3\n                /* \"#utility.yul\":17924:17972   */\n              tag_200\n              jump\t// in\n            tag_399:\n                /* \"#utility.yul\":17916:17922   */\n              dup4\n                /* \"#utility.yul\":17909:17973   */\n              sstore\n                /* \"#utility.yul\":17831:17987   */\n              pop\n                /* \"#utility.yul\":17808:17987   */\n            tag_398:\n                /* \"#utility.yul\":18033:18034   */\n              0x01\n                /* \"#utility.yul\":18029:18030   */\n              0x02\n                /* \"#utility.yul\":18021:18027   */\n              dup9\n                /* \"#utility.yul\":18017:18031   */\n              mul\n                /* \"#utility.yul\":18013:18035   */\n              add\n                /* \"#utility.yul\":18007:18011   */\n              dup9\n                /* \"#utility.yul\":18000:18036   */\n              sstore\n                /* \"#utility.yul\":17435:18046   */\n              pop\n              pop\n              pop\n                /* \"#utility.yul\":17398:18285   */\n            tag_390:\n              pop\n                /* \"#utility.yul\":16988:18291   */\n              pop\n              pop\n              pop\n                /* \"#utility.yul\":16896:18291   */\n              pop\n              pop\n              jump\t// out\n                /* \"#utility.yul\":18297:18519   */\n            tag_202:\n                /* \"#utility.yul\":18437:18471   */\n              0x4d696e696d756d20636f6e747269627574696f6e206973206e6f74206d617463\n                /* \"#utility.yul\":18433:18434   */\n              0x00\n                /* \"#utility.yul\":18425:18431   */\n              dup3\n                /* \"#utility.yul\":18421:18435   */\n              add\n                /* \"#utility.yul\":18414:18472   */\n              mstore\n                /* \"#utility.yul\":18506:18511   */\n              0x6865640000000000000000000000000000000000000000000000000000000000\n                /* \"#utility.yul\":18501:18503   */\n              0x20\n                /* \"#utility.yul\":18493:18499   */\n              dup3\n                /* \"#utility.yul\":18489:18504   */\n              add\n                /* \"#utility.yul\":18482:18512   */\n              mstore\n                /* \"#utility.yul\":18297:18519   */\n              pop\n              jump\t// out\n                /* \"#utility.yul\":18525:18891   */\n            tag_203:\n                /* \"#utility.yul\":18667:18670   */\n              0x00\n                /* \"#utility.yul\":18688:18755   */\n              tag_402\n                /* \"#utility.yul\":18752:18754   */\n              0x23\n                /* \"#utility.yul\":18747:18750   */\n              dup4\n                /* \"#utility.yul\":18688:18755   */\n              tag_159\n              jump\t// in\n            tag_402:\n                /* \"#utility.yul\":18681:18755   */\n              swap2\n              pop\n                /* \"#utility.yul\":18764:18857   */\n              tag_403\n                /* \"#utility.yul\":18853:18856   */\n              dup3\n                /* \"#utility.yul\":18764:18857   */\n              tag_202\n              jump\t// in\n            tag_403:\n                /* \"#utility.yul\":18882:18884   */\n              0x40\n                /* \"#utility.yul\":18877:18880   */\n              dup3\n                /* \"#utility.yul\":18873:18885   */\n              add\n                /* \"#utility.yul\":18866:18885   */\n              swap1\n              pop\n                /* \"#utility.yul\":18525:18891   */\n              swap2\n              swap1\n              pop\n              jump\t// out\n                /* \"#utility.yul\":18897:19316   */\n            tag_135:\n                /* \"#utility.yul\":19063:19067   */\n              0x00\n                /* \"#utility.yul\":19101:19103   */\n              0x20\n                /* \"#utility.yul\":19090:19099   */\n              dup3\n                /* \"#utility.yul\":19086:19104   */\n              add\n                /* \"#utility.yul\":19078:19104   */\n              swap1\n              pop\n                /* \"#utility.yul\":19150:19159   */\n              dup2\n                /* \"#utility.yul\":19144:19148   */\n              dup2\n                /* \"#utility.yul\":19140:19160   */\n              sub\n                /* \"#utility.yul\":19136:19137   */\n              0x00\n                /* \"#utility.yul\":19125:19134   */\n              dup4\n                /* \"#utility.yul\":19121:19138   */\n              add\n                /* \"#utility.yul\":19114:19161   */\n              mstore\n                /* \"#utility.yul\":19178:19309   */\n              tag_405\n                /* \"#utility.yul\":19304:19308   */\n              dup2\n                /* \"#utility.yul\":19178:19309   */\n              tag_203\n              jump\t// in\n            tag_405:\n                /* \"#utility.yul\":19170:19309   */\n              swap1\n              pop\n                /* \"#utility.yul\":18897:19316   */\n              swap2\n              swap1\n              pop\n              jump\t// out\n                /* \"#utility.yul\":19322:19555   */\n            tag_138:\n                /* \"#utility.yul\":19361:19364   */\n              0x00\n                /* \"#utility.yul\":19384:19408   */\n              tag_407\n                /* \"#utility.yul\":19402:19407   */\n              dup3\n                /* \"#utility.yul\":19384:19408   */\n              tag_149\n              jump\t// in\n            tag_407:\n                /* \"#utility.yul\":19375:19408   */\n              swap2\n              pop\n                /* \"#utility.yul\":19430:19496   */\n              0xffffffffffffffffffffffffffffffffffffffffffffffffffffffffffffffff\n                /* \"#utility.yul\":19423:19428   */\n              dup3\n                /* \"#utility.yul\":19420:19497   */\n              sub\n                /* \"#utility.yul\":19417:19520   */\n              tag_408\n              jumpi\n                /* \"#utility.yul\":19500:19518   */\n              tag_409\n              tag_181\n              jump\t// in\n            tag_409:\n                /* \"#utility.yul\":19417:19520   */\n            tag_408:\n                /* \"#utility.yul\":19547:19548   */\n              0x01\n                /* \"#utility.yul\":19540:19545   */\n              dup3\n                /* \"#utility.yul\":19536:19549   */\n              add\n                /* \"#utility.yul\":19529:19549   */\n              swap1\n              pop\n                /* \"#utility.yul\":19322:19555   */\n              swap2\n              swap1\n              pop\n              jump\t// out\n\n            auxdata: 0xa2646970667358221220dd185fe239657fba842fc79d74308a0eba45f0860174fcefa9b776bcf7fb24b164736f6c63430008130033\n        }\n    }\n\n    auxdata: 0xa2646970667358221220127ed0a66ece9e2911931c843acda93be6d45218334e8b5f756253d81e9a9ba264736f6c63430008130033\n}\n","bytecode":{"linkReferences":{},"object":"608060405234801561001057600080fd5b506124ed806100206000396000f3fe60806040523480156200001157600080fd5b5060043610620000465760003560e01c8063339d50a5146200004b5780634acb9d4f1462000081578063fad4dee314620000a3575b600080fd5b6200006960048036038101906200006391906200029c565b620000c3565b60405162000078919062000313565b60405180910390f35b6200008b62000103565b6040516200009a9190620003fe565b60405180910390f35b620000c16004803603810190620000bb919062000584565b62000193565b005b60008181548110620000d457600080fd5b906000526020600020016000915054906101000a900473ffffffffffffffffffffffffffffffffffffffff1681565b606060008054806020026020016040519081016040528092919081815260200182805480156200018957602002820191906000526020600020905b8160009054906101000a900473ffffffffffffffffffffffffffffffffffffffff1673ffffffffffffffffffffffffffffffffffffffff16815260200190600101908083116200013e575b5050505050905090565b600083338484604051620001a7906200023f565b620001b69493929190620006b8565b604051809103906000f080158015620001d3573d6000803e3d6000fd5b5090506000819080600181540180825580915050600190039060005260206000200160009091909190916101000a81548173ffffffffffffffffffffffffffffffffffffffff021916908373ffffffffffffffffffffffffffffffffffffffff16021790555050505050565b611da4806200071483390190565b6000604051905090565b600080fd5b600080fd5b6000819050919050565b620002768162000261565b81146200028257600080fd5b50565b60008135905062000296816200026b565b92915050565b600060208284031215620002b557620002b462000257565b5b6000620002c58482850162000285565b91505092915050565b600073ffffffffffffffffffffffffffffffffffffffff82169050919050565b6000620002fb82620002ce565b9050919050565b6200030d81620002ee565b82525050565b60006020820190506200032a600083018462000302565b92915050565b600081519050919050565b600082825260208201905092915050565b6000819050602082019050919050565b6200036781620002ee565b82525050565b60006200037b83836200035c565b60208301905092915050565b6000602082019050919050565b6000620003a18262000330565b620003ad81856200033b565b9350620003ba836200034c565b8060005b83811015620003f1578151620003d588826200036d565b9750620003e28362000387565b925050600181019050620003be565b5085935050505092915050565b600060208201905081810360008301526200041a818462000394565b905092915050565b600080fd5b600080fd5b6000601f19601f8301169050919050565b7f4e487b7100000000000000000000000000000000000000000000000000000000600052604160045260246000fd5b62000477826200042c565b810181811067ffffffffffffffff821117156200049957620004986200043d565b5b80604052505050565b6000620004ae6200024d565b9050620004bc82826200046c565b919050565b600067ffffffffffffffff821115620004df57620004de6200043d565b5b620004ea826200042c565b9050602081019050919050565b82818337600083830152505050565b60006200051d6200051784620004c1565b620004a2565b9050828152602081018484840111156200053c576200053b62000427565b5b62000549848285620004f7565b509392505050565b600082601f83011262000569576200056862000422565b5b81356200057b84826020860162000506565b91505092915050565b600080600060608486031215620005a0576200059f62000257565b5b6000620005b08682870162000285565b935050602084013567ffffffffffffffff811115620005d457620005d36200025c565b5b620005e28682870162000551565b925050604084013567ffffffffffffffff8111156200060657620006056200025c565b5b620006148682870162000551565b9150509250925092565b620006298162000261565b82525050565b600081519050919050565b600082825260208201905092915050565b60005b838110156200066b5780820151818401526020810190506200064e565b60008484015250505050565b600062000684826200062f565b6200069081856200063a565b9350620006a28185602086016200064b565b620006ad816200042c565b840191505092915050565b6000608082019050620006cf60008301876200061e565b620006de602083018662000302565b8181036040830152620006f2818562000677565b9050818103606083015262000708818462000677565b90509594505050505056fe60806040523480156200001157600080fd5b5060405162001da438038062001da48339818101604052810190620000379190620002df565b826000806101000a81548173ffffffffffffffffffffffffffffffffffffffff021916908373ffffffffffffffffffffffffffffffffffffffff1602179055508360038190555081600190816200008f9190620005d0565b508060029081620000a19190620005d0565b5050505050620006b7565b6000604051905090565b600080fd5b600080fd5b6000819050919050565b620000d581620000c0565b8114620000e157600080fd5b50565b600081519050620000f581620000ca565b92915050565b600073ffffffffffffffffffffffffffffffffffffffff82169050919050565b60006200012882620000fb565b9050919050565b6200013a816200011b565b81146200014657600080fd5b50565b6000815190506200015a816200012f565b92915050565b600080fd5b600080fd5b6000601f19601f8301169050919050565b7f4e487b7100000000000000000000000000000000000000000000000000000000600052604160045260246000fd5b620001b5826200016a565b810181811067ffffffffffffffff82111715620001d757620001d66200017b565b5b80604052505050565b6000620001ec620000ac565b9050620001fa8282620001aa565b919050565b600067ffffffffffffffff8211156200021d576200021c6200017b565b5b62000228826200016a565b9050602081019050919050565b60005b838110156200025557808201518184015260208101905062000238565b60008484015250505050565b6000620002786200027284620001ff565b620001e0565b90508281526020810184848401111562000297576200029662000165565b5b620002a484828562000235565b509392505050565b600082601f830112620002c457620002c362000160565b5b8151620002d684826020860162000261565b91505092915050565b60008060008060808587031215620002fc57620002fb620000b6565b5b60006200030c87828801620000e4565b94505060206200031f8782880162000149565b935050604085015167ffffffffffffffff811115620003435762000342620000bb565b5b6200035187828801620002ac565b925050606085015167ffffffffffffffff811115620003755762000374620000bb565b5b6200038387828801620002ac565b91505092959194509250565b600081519050919050565b7f4e487b7100000000000000000000000000000000000000000000000000000000600052602260045260246000fd5b60006002820490506001821680620003e257607f821691505b602082108103620003f857620003f76200039a565b5b50919050565b60008190508160005260206000209050919050565b60006020601f8301049050919050565b600082821b905092915050565b600060088302620004627fffffffffffffffffffffffffffffffffffffffffffffffffffffffffffffffff8262000423565b6200046e868362000423565b95508019841693508086168417925050509392505050565b6000819050919050565b6000620004b1620004ab620004a584620000c0565b62000486565b620000c0565b9050919050565b6000819050919050565b620004cd8362000490565b620004e5620004dc82620004b8565b84845462000430565b825550505050565b600090565b620004fc620004ed565b62000509818484620004c2565b505050565b5b81811015620005315762000525600082620004f2565b6001810190506200050f565b5050565b601f82111562000580576200054a81620003fe565b620005558462000413565b8101602085101562000565578190505b6200057d620005748562000413565b8301826200050e565b50505b505050565b600082821c905092915050565b6000620005a56000198460080262000585565b1980831691505092915050565b6000620005c0838362000592565b9150826002028217905092915050565b620005db826200038f565b67ffffffffffffffff811115620005f757620005f66200017b565b5b620006038254620003c9565b6200061082828562000535565b600060209050601f83116001811462000648576000841562000633578287015190505b6200063f8582620005b2565b865550620006af565b601f1984166200065886620003fe565b60005b8281101562000682578489015182556001820191506020850194506020810190506200065b565b86831015620006a257848901516200069e601f89168262000592565b8355505b6001600288020188555050505b505050505050565b6116dd80620006c76000396000f3fe6080604052600436106100dd5760003560e01c806381d12c581161007f5780638a9cfd55116100595780638a9cfd55146102cc578063937e09b1146102f5578063d7bb99ba14610320578063d7d1bbdb1461032a576100dd565b806381d12c581461023557806382fde09314610276578063835a6172146102a1576100dd565b806333f449e5116100bb57806333f449e5146101735780633410452a146101b05780634051ddac146101db578063481c6a751461020a576100dd565b806303441006146100e25780630a1443911461010b578063110842cb14610148575b600080fd5b3480156100ee57600080fd5b5061010960048036038101906101049190610c1b565b610353565b005b34801561011757600080fd5b50610132600480360381019061012d9190610ca6565b61053d565b60405161013f9190610cee565b60405180910390f35b34801561015457600080fd5b5061015d61055d565b60405161016a9190610d99565b60405180910390f35b34801561017f57600080fd5b5061019a60048036038101906101959190610dbb565b6105eb565b6040516101a79190610cee565b60405180910390f35b3480156101bc57600080fd5b506101c561061a565b6040516101d29190610e0a565b60405180910390f35b3480156101e757600080fd5b506101f0610627565b604051610201959493929190610e34565b60405180910390f35b34801561021657600080fd5b5061021f61066e565b60405161022c9190610e87565b60405180910390f35b34801561024157600080fd5b5061025c60048036038101906102579190610c1b565b610692565b60405161026d959493929190610ec3565b60405180910390f35b34801561028257600080fd5b5061028b61078d565b6040516102989190610e0a565b60405180910390f35b3480156102ad57600080fd5b506102b6610793565b6040516102c39190610d99565b60405180910390f35b3480156102d857600080fd5b506102f360048036038101906102ee919061107e565b610821565b005b34801561030157600080fd5b5061030a61095e565b6040516103179190610e0a565b60405180910390f35b610328610964565b005b34801561033657600080fd5b50610351600480360381019061034c9190610c1b565b610a6c565b005b60008054906101000a900473ffffffffffffffffffffffffffffffffffffffff1673ffffffffffffffffffffffffffffffffffffffff163373ffffffffffffffffffffffffffffffffffffffff16146103e1576040517f08c379a00000000000000000000000000000000000000000000000000000000081526004016103d890611139565b60405180910390fd5b6000600782815481106103f7576103f6611159565b5b90600052602060002090600402019050600260055461041691906111e6565b81600301541161045b576040517f08c379a000000000000000000000000000000000000000000000000000000000815260040161045290611263565b60405180910390fd5b8060020160149054906101000a900460ff16156104ad576040517f08c379a00000000000000000000000000000000000000000000000000000000081526004016104a4906112cf565b60405180910390fd5b8060020160009054906101000a900473ffffffffffffffffffffffffffffffffffffffff1673ffffffffffffffffffffffffffffffffffffffff166108fc82600101549081150290604051600060405180830381858888f1935050505015801561051b573d6000803e3d6000fd5b5060018160020160146101000a81548160ff0219169083151502179055505050565b60046020528060005260406000206000915054906101000a900460ff1681565b6002805461056a9061131e565b80601f01602080910402602001604051908101604052809291908181526020018280546105969061131e565b80156105e35780601f106105b8576101008083540402835291602001916105e3565b820191906000526020600020905b8154815290600101906020018083116105c657829003601f168201915b505050505081565b60066020528160005260406000206020528060005260406000206000915091509054906101000a900460ff1681565b6000600780549050905090565b60008060008060006003544760078054905060055460008054906101000a900473ffffffffffffffffffffffffffffffffffffffff16945094509450945094509091929394565b60008054906101000a900473ffffffffffffffffffffffffffffffffffffffff1681565b600781815481106106a257600080fd5b90600052602060002090600402016000915090508060000180546106c59061131e565b80601f01602080910402602001604051908101604052809291908181526020018280546106f19061131e565b801561073e5780601f106107135761010080835404028352916020019161073e565b820191906000526020600020905b81548152906001019060200180831161072157829003601f168201915b5050505050908060010154908060020160009054906101000a900473ffffffffffffffffffffffffffffffffffffffff16908060020160149054906101000a900460ff16908060030154905085565b60055481565b600180546107a09061131e565b80601f01602080910402602001604051908101604052809291908181526020018280546107cc9061131e565b80156108195780601f106107ee57610100808354040283529160200191610819565b820191906000526020600020905b8154815290600101906020018083116107fc57829003601f168201915b505050505081565b60008054906101000a900473ffffffffffffffffffffffffffffffffffffffff1673ffffffffffffffffffffffffffffffffffffffff163373ffffffffffffffffffffffffffffffffffffffff16146108af576040517f08c379a00000000000000000000000000000000000000000000000000000000081526004016108a690611139565b60405180910390fd5b600060076001816001815401808255809150500390600052602060002090600402019050838160000190816108e491906114fb565b50828160010181905550818160020160006101000a81548173ffffffffffffffffffffffffffffffffffffffff021916908373ffffffffffffffffffffffffffffffffffffffff16021790555060008160020160146101000a81548160ff0219169083151502179055506000816003018190555050505050565b60035481565b60035434116109a8576040517f08c379a000000000000000000000000000000000000000000000000000000000815260040161099f9061163f565b60405180910390fd5b600460003373ffffffffffffffffffffffffffffffffffffffff1673ffffffffffffffffffffffffffffffffffffffff16815260200190815260200160002060009054906101000a900460ff16610a6a576001600460003373ffffffffffffffffffffffffffffffffffffffff1673ffffffffffffffffffffffffffffffffffffffff16815260200190815260200160002060006101000a81548160ff02191690831515021790555060056000815480929190610a649061165f565b91905055505b565b600460003373ffffffffffffffffffffffffffffffffffffffff1673ffffffffffffffffffffffffffffffffffffffff16815260200190815260200160002060009054906101000a900460ff16610ac257600080fd5b6006600082815260200190815260200160002060003373ffffffffffffffffffffffffffffffffffffffff1673ffffffffffffffffffffffffffffffffffffffff16815260200190815260200160002060009054906101000a900460ff1615610b2a57600080fd5b60016006600083815260200190815260200160002060003373ffffffffffffffffffffffffffffffffffffffff1673ffffffffffffffffffffffffffffffffffffffff16815260200190815260200160002060006101000a81548160ff02191690831515021790555060078181548110610ba757610ba6611159565b5b90600052602060002090600402016003016000815480929190610bc99061165f565b919050555050565b6000604051905090565b600080fd5b600080fd5b6000819050919050565b610bf881610be5565b8114610c0357600080fd5b50565b600081359050610c1581610bef565b92915050565b600060208284031215610c3157610c30610bdb565b5b6000610c3f84828501610c06565b91505092915050565b600073ffffffffffffffffffffffffffffffffffffffff82169050919050565b6000610c7382610c48565b9050919050565b610c8381610c68565b8114610c8e57600080fd5b50565b600081359050610ca081610c7a565b92915050565b600060208284031215610cbc57610cbb610bdb565b5b6000610cca84828501610c91565b91505092915050565b60008115159050919050565b610ce881610cd3565b82525050565b6000602082019050610d036000830184610cdf565b92915050565b600081519050919050565b600082825260208201905092915050565b60005b83811015610d43578082015181840152602081019050610d28565b60008484015250505050565b6000601f19601f8301169050919050565b6000610d6b82610d09565b610d758185610d14565b9350610d85818560208601610d25565b610d8e81610d4f565b840191505092915050565b60006020820190508181036000830152610db38184610d60565b905092915050565b60008060408385031215610dd257610dd1610bdb565b5b6000610de085828601610c06565b9250506020610df185828601610c91565b9150509250929050565b610e0481610be5565b82525050565b6000602082019050610e1f6000830184610dfb565b92915050565b610e2e81610c68565b82525050565b600060a082019050610e496000830188610dfb565b610e566020830187610dfb565b610e636040830186610dfb565b610e706060830185610dfb565b610e7d6080830184610e25565b9695505050505050565b6000602082019050610e9c6000830184610e25565b92915050565b6000610ead82610c48565b9050919050565b610ebd81610ea2565b82525050565b600060a0820190508181036000830152610edd8188610d60565b9050610eec6020830187610dfb565b610ef96040830186610eb4565b610f066060830185610cdf565b610f136080830184610dfb565b9695505050505050565b600080fd5b600080fd5b7f4e487b7100000000000000000000000000000000000000000000000000000000600052604160045260246000fd5b610f5f82610d4f565b810181811067ffffffffffffffff82111715610f7e57610f7d610f27565b5b80604052505050565b6000610f91610bd1565b9050610f9d8282610f56565b919050565b600067ffffffffffffffff821115610fbd57610fbc610f27565b5b610fc682610d4f565b9050602081019050919050565b82818337600083830152505050565b6000610ff5610ff084610fa2565b610f87565b90508281526020810184848401111561101157611010610f22565b5b61101c848285610fd3565b509392505050565b600082601f83011261103957611038610f1d565b5b8135611049848260208601610fe2565b91505092915050565b61105b81610ea2565b811461106657600080fd5b50565b60008135905061107881611052565b92915050565b60008060006060848603121561109757611096610bdb565b5b600084013567ffffffffffffffff8111156110b5576110b4610be0565b5b6110c186828701611024565b93505060206110d286828701610c06565b92505060406110e386828701611069565b9150509250925092565b7f43616c6c6572206973206e6f7420746865206d616e6167657200000000000000600082015250565b6000611123601983610d14565b915061112e826110ed565b602082019050919050565b6000602082019050818103600083015261115281611116565b9050919050565b7f4e487b7100000000000000000000000000000000000000000000000000000000600052603260045260246000fd5b7f4e487b7100000000000000000000000000000000000000000000000000000000600052601260045260246000fd5b7f4e487b7100000000000000000000000000000000000000000000000000000000600052601160045260246000fd5b60006111f182610be5565b91506111fc83610be5565b92508261120c5761120b611188565b5b828204905092915050565b7f4e6f7420656e6f75676820617070726f76616c73000000000000000000000000600082015250565b600061124d601483610d14565b915061125882611217565b602082019050919050565b6000602082019050818103600083015261127c81611240565b9050919050565b7f5265717565737420616c72656164792066696e616c697a656400000000000000600082015250565b60006112b9601983610d14565b91506112c482611283565b602082019050919050565b600060208201905081810360008301526112e8816112ac565b9050919050565b7f4e487b7100000000000000000000000000000000000000000000000000000000600052602260045260246000fd5b6000600282049050600182168061133657607f821691505b602082108103611349576113486112ef565b5b50919050565b60008190508160005260206000209050919050565b60006020601f8301049050919050565b600082821b905092915050565b6000600883026113b17fffffffffffffffffffffffffffffffffffffffffffffffffffffffffffffffff82611374565b6113bb8683611374565b95508019841693508086168417925050509392505050565b6000819050919050565b60006113f86113f36113ee84610be5565b6113d3565b610be5565b9050919050565b6000819050919050565b611412836113dd565b61142661141e826113ff565b848454611381565b825550505050565b600090565b61143b61142e565b611446818484611409565b505050565b5b8181101561146a5761145f600082611433565b60018101905061144c565b5050565b601f8211156114af576114808161134f565b61148984611364565b81016020851015611498578190505b6114ac6114a485611364565b83018261144b565b50505b505050565b600082821c905092915050565b60006114d2600019846008026114b4565b1980831691505092915050565b60006114eb83836114c1565b9150826002028217905092915050565b61150482610d09565b67ffffffffffffffff81111561151d5761151c610f27565b5b611527825461131e565b61153282828561146e565b600060209050601f8311600181146115655760008415611553578287015190505b61155d85826114df565b8655506115c5565b601f1984166115738661134f565b60005b8281101561159b57848901518255600182019150602085019450602081019050611576565b868310156115b857848901516115b4601f8916826114c1565b8355505b6001600288020188555050505b505050505050565b7f4d696e696d756d20636f6e747269627574696f6e206973206e6f74206d61746360008201527f6865640000000000000000000000000000000000000000000000000000000000602082015250565b6000611629602383610d14565b9150611634826115cd565b604082019050919050565b600060208201905081810360008301526116588161161c565b9050919050565b600061166a82610be5565b91507fffffffffffffffffffffffffffffffffffffffffffffffffffffffffffffffff820361169c5761169b6111b7565b5b60018201905091905056fea2646970667358221220dd185fe239657fba842fc79d74308a0eba45f0860174fcefa9b776bcf7fb24b164736f6c63430008130033a2646970667358221220127ed0a66ece9e2911931c843acda93be6d45218334e8b5f756253d81e9a9ba264736f6c63430008130033","opcodes":"PUSH1 0x80 PUSH1 0x40 MSTORE CALLVALUE DUP1 ISZERO PUSH2 0x10 JUMPI PUSH1 0x0 DUP1 REVERT JUMPDEST POP PUSH2 0x24ED DUP1 PUSH2 0x20 PUSH1 0x0 CODECOPY PUSH1 0x0 RETURN INVALID PUSH1 0x80 PUSH1 0x40 MSTORE CALLVALUE DUP1 ISZERO PUSH3 0x11 JUMPI PUSH1 0x0 DUP1 REVERT JUMPDEST POP PUSH1 0x4 CALLDATASIZE LT PUSH3 0x46 JUMPI PUSH1 0x0 CALLDATALOAD PUSH1 0xE0 SHR DUP1 PUSH4 0x339D50A5 EQ PUSH3 0x4B JUMPI DUP1 PUSH4 0x4ACB9D4F EQ PUSH3 0x81 JUMPI DUP1 PUSH4 0xFAD4DEE3 EQ PUSH3 0xA3 JUMPI JUMPDEST PUSH1 0x0 DUP1 REVERT JUMPDEST PUSH3 0x69 PUSH1 0x4 DUP1 CALLDATASIZE SUB DUP2 ADD SWAP1 PUSH3 0x63 SWAP2 SWAP1 PUSH3 0x29C JUMP JUMPDEST PUSH3 0xC3 JUMP JUMPDEST PUSH1 0x40 MLOAD PUSH3 0x78 SWAP2 SWAP1 PUSH3 0x313 JUMP JUMPDEST PUSH1 0x40 MLOAD DUP1 SWAP2 SUB SWAP1 RETURN JUMPDEST PUSH3 0x8B PUSH3 0x103 JUMP JUMPDEST PUSH1 0x40 MLOAD PUSH3 0x9A SWAP2 SWAP1 PUSH3 0x3FE JUMP JUMPDEST PUSH1 0x40 MLOAD DUP1 SWAP2 SUB SWAP1 RETURN JUMPDEST PUSH3 0xC1 PUSH1 0x4 DUP1 CALLDATASIZE SUB DUP2 ADD SWAP1 PUSH3 0xBB SWAP2 SWAP1 PUSH3 0x584 JUMP JUMPDEST PUSH3 0x193 JUMP JUMPDEST STOP JUMPDEST PUSH1 0x0 DUP2 DUP2 SLOAD DUP2 LT PUSH3 0xD4 JUMPI PUSH1 0x0 DUP1 REVERT JUMPDEST SWAP1 PUSH1 0x0 MSTORE PUSH1 0x20 PUSH1 0x0 KECCAK256 ADD PUSH1 0x0 SWAP2 POP SLOAD SWAP1 PUSH2 0x100 EXP SWAP1 DIV PUSH20 0xFFFFFFFFFFFFFFFFFFFFFFFFFFFFFFFFFFFFFFFF AND DUP2 JUMP JUMPDEST PUSH1 0x60 PUSH1 0x0 DUP1 SLOAD DUP1 PUSH1 0x20 MUL PUSH1 0x20 ADD PUSH1 0x40 MLOAD SWAP1 DUP2 ADD PUSH1 0x40 MSTORE DUP1 SWAP3 SWAP2 SWAP1 DUP2 DUP2 MSTORE PUSH1 0x20 ADD DUP3 DUP1 SLOAD DUP1 ISZERO PUSH3 0x189 JUMPI PUSH1 0x20 MUL DUP3 ADD SWAP2 SWAP1 PUSH1 0x0 MSTORE PUSH1 0x20 PUSH1 0x0 KECCAK256 SWAP1 JUMPDEST DUP2 PUSH1 0x0 SWAP1 SLOAD SWAP1 PUSH2 0x100 EXP SWAP1 DIV PUSH20 0xFFFFFFFFFFFFFFFFFFFFFFFFFFFFFFFFFFFFFFFF AND PUSH20 0xFFFFFFFFFFFFFFFFFFFFFFFFFFFFFFFFFFFFFFFF AND DUP2 MSTORE PUSH1 0x20 ADD SWAP1 PUSH1 0x1 ADD SWAP1 DUP1 DUP4 GT PUSH3 0x13E JUMPI JUMPDEST POP POP POP POP POP SWAP1 POP SWAP1 JUMP JUMPDEST PUSH1 0x0 DUP4 CALLER DUP5 DUP5 PUSH1 0x40 MLOAD PUSH3 0x1A7 SWAP1 PUSH3 0x23F JUMP JUMPDEST PUSH3 0x1B6 SWAP5 SWAP4 SWAP3 SWAP2 SWAP1 PUSH3 0x6B8 JUMP JUMPDEST PUSH1 0x40 MLOAD DUP1 SWAP2 SUB SWAP1 PUSH1 0x0 CREATE DUP1 ISZERO DUP1 ISZERO PUSH3 0x1D3 JUMPI RETURNDATASIZE PUSH1 0x0 DUP1 RETURNDATACOPY RETURNDATASIZE PUSH1 0x0 REVERT JUMPDEST POP SWAP1 POP PUSH1 0x0 DUP2 SWAP1 DUP1 PUSH1 0x1 DUP2 SLOAD ADD DUP1 DUP3 SSTORE DUP1 SWAP2 POP POP PUSH1 0x1 SWAP1 SUB SWAP1 PUSH1 0x0 MSTORE PUSH1 0x20 PUSH1 0x0 KECCAK256 ADD PUSH1 0x0 SWAP1 SWAP2 SWAP1 SWAP2 SWAP1 SWAP2 PUSH2 0x100 EXP DUP2 SLOAD DUP2 PUSH20 0xFFFFFFFFFFFFFFFFFFFFFFFFFFFFFFFFFFFFFFFF MUL NOT AND SWAP1 DUP4 PUSH20 0xFFFFFFFFFFFFFFFFFFFFFFFFFFFFFFFFFFFFFFFF AND MUL OR SWAP1 SSTORE POP POP POP POP POP JUMP JUMPDEST PUSH2 0x1DA4 DUP1 PUSH3 0x714 DUP4 CODECOPY ADD SWAP1 JUMP JUMPDEST PUSH1 0x0 PUSH1 0x40 MLOAD SWAP1 POP SWAP1 JUMP JUMPDEST PUSH1 0x0 DUP1 REVERT JUMPDEST PUSH1 0x0 DUP1 REVERT JUMPDEST PUSH1 0x0 DUP2 SWAP1 POP SWAP2 SWAP1 POP JUMP JUMPDEST PUSH3 0x276 DUP2 PUSH3 0x261 JUMP JUMPDEST DUP2 EQ PUSH3 0x282 JUMPI PUSH1 0x0 DUP1 REVERT JUMPDEST POP JUMP JUMPDEST PUSH1 0x0 DUP2 CALLDATALOAD SWAP1 POP PUSH3 0x296 DUP2 PUSH3 0x26B JUMP JUMPDEST SWAP3 SWAP2 POP POP JUMP JUMPDEST PUSH1 0x0 PUSH1 0x20 DUP3 DUP5 SUB SLT ISZERO PUSH3 0x2B5 JUMPI PUSH3 0x2B4 PUSH3 0x257 JUMP JUMPDEST JUMPDEST PUSH1 0x0 PUSH3 0x2C5 DUP5 DUP3 DUP6 ADD PUSH3 0x285 JUMP JUMPDEST SWAP2 POP POP SWAP3 SWAP2 POP POP JUMP JUMPDEST PUSH1 0x0 PUSH20 0xFFFFFFFFFFFFFFFFFFFFFFFFFFFFFFFFFFFFFFFF DUP3 AND SWAP1 POP SWAP2 SWAP1 POP JUMP JUMPDEST PUSH1 0x0 PUSH3 0x2FB DUP3 PUSH3 0x2CE JUMP JUMPDEST SWAP1 POP SWAP2 SWAP1 POP JUMP JUMPDEST PUSH3 0x30D DUP2 PUSH3 0x2EE JUMP JUMPDEST DUP3 MSTORE POP POP JUMP JUMPDEST PUSH1 0x0 PUSH1 0x20 DUP3 ADD SWAP1 POP PUSH3 0x32A PUSH1 0x0 DUP4 ADD DUP5 PUSH3 0x302 JUMP JUMPDEST SWAP3 SWAP2 POP POP JUMP JUMPDEST PUSH1 0x0 DUP2 MLOAD SWAP1 POP SWAP2 SWAP1 POP JUMP JUMPDEST PUSH1 0x0 DUP3 DUP3 MSTORE PUSH1 0x20 DUP3 ADD SWAP1 POP SWAP3 SWAP2 POP POP JUMP JUMPDEST PUSH1 0x0 DUP2 SWAP1 POP PUSH1 0x20 DUP3 ADD SWAP1 POP SWAP2 SWAP1 POP JUMP JUMPDEST PUSH3 0x367 DUP2 PUSH3 0x2EE JUMP JUMPDEST DUP3 MSTORE POP POP JUMP JUMPDEST PUSH1 0x0 PUSH3 0x37B DUP4 DUP4 PUSH3 0x35C JUMP JUMPDEST PUSH1 0x20 DUP4 ADD SWAP1 POP SWAP3 SWAP2 POP POP JUMP JUMPDEST PUSH1 0x0 PUSH1 0x20 DUP3 ADD SWAP1 POP SWAP2 SWAP1 POP JUMP JUMPDEST PUSH1 0x0 PUSH3 0x3A1 DUP3 PUSH3 0x330 JUMP JUMPDEST PUSH3 0x3AD DUP2 DUP6 PUSH3 0x33B JUMP JUMPDEST SWAP4 POP PUSH3 0x3BA DUP4 PUSH3 0x34C JUMP JUMPDEST DUP1 PUSH1 0x0 JUMPDEST DUP4 DUP2 LT ISZERO PUSH3 0x3F1 JUMPI DUP2 MLOAD PUSH3 0x3D5 DUP9 DUP3 PUSH3 0x36D JUMP JUMPDEST SWAP8 POP PUSH3 0x3E2 DUP4 PUSH3 0x387 JUMP JUMPDEST SWAP3 POP POP PUSH1 0x1 DUP2 ADD SWAP1 POP PUSH3 0x3BE JUMP JUMPDEST POP DUP6 SWAP4 POP POP POP POP SWAP3 SWAP2 POP POP JUMP JUMPDEST PUSH1 0x0 PUSH1 0x20 DUP3 ADD SWAP1 POP DUP2 DUP2 SUB PUSH1 0x0 DUP4 ADD MSTORE PUSH3 0x41A DUP2 DUP5 PUSH3 0x394 JUMP JUMPDEST SWAP1 POP SWAP3 SWAP2 POP POP JUMP JUMPDEST PUSH1 0x0 DUP1 REVERT JUMPDEST PUSH1 0x0 DUP1 REVERT JUMPDEST PUSH1 0x0 PUSH1 0x1F NOT PUSH1 0x1F DUP4 ADD AND SWAP1 POP SWAP2 SWAP1 POP JUMP JUMPDEST PUSH32 0x4E487B7100000000000000000000000000000000000000000000000000000000 PUSH1 0x0 MSTORE PUSH1 0x41 PUSH1 0x4 MSTORE PUSH1 0x24 PUSH1 0x0 REVERT JUMPDEST PUSH3 0x477 DUP3 PUSH3 0x42C JUMP JUMPDEST DUP2 ADD DUP2 DUP2 LT PUSH8 0xFFFFFFFFFFFFFFFF DUP3 GT OR ISZERO PUSH3 0x499 JUMPI PUSH3 0x498 PUSH3 0x43D JUMP JUMPDEST JUMPDEST DUP1 PUSH1 0x40 MSTORE POP POP POP JUMP JUMPDEST PUSH1 0x0 PUSH3 0x4AE PUSH3 0x24D JUMP JUMPDEST SWAP1 POP PUSH3 0x4BC DUP3 DUP3 PUSH3 0x46C JUMP JUMPDEST SWAP2 SWAP1 POP JUMP JUMPDEST PUSH1 0x0 PUSH8 0xFFFFFFFFFFFFFFFF DUP3 GT ISZERO PUSH3 0x4DF JUMPI PUSH3 0x4DE PUSH3 0x43D JUMP JUMPDEST JUMPDEST PUSH3 0x4EA DUP3 PUSH3 0x42C JUMP JUMPDEST SWAP1 POP PUSH1 0x20 DUP2 ADD SWAP1 POP SWAP2 SWAP1 POP JUMP JUMPDEST DUP3 DUP2 DUP4 CALLDATACOPY PUSH1 0x0 DUP4 DUP4 ADD MSTORE POP POP POP JUMP JUMPDEST PUSH1 0x0 PUSH3 0x51D PUSH3 0x517 DUP5 PUSH3 0x4C1 JUMP JUMPDEST PUSH3 0x4A2 JUMP JUMPDEST SWAP1 POP DUP3 DUP2 MSTORE PUSH1 0x20 DUP2 ADD DUP5 DUP5 DUP5 ADD GT ISZERO PUSH3 0x53C JUMPI PUSH3 0x53B PUSH3 0x427 JUMP JUMPDEST JUMPDEST PUSH3 0x549 DUP5 DUP3 DUP6 PUSH3 0x4F7 JUMP JUMPDEST POP SWAP4 SWAP3 POP POP POP JUMP JUMPDEST PUSH1 0x0 DUP3 PUSH1 0x1F DUP4 ADD SLT PUSH3 0x569 JUMPI PUSH3 0x568 PUSH3 0x422 JUMP JUMPDEST JUMPDEST DUP2 CALLDATALOAD PUSH3 0x57B DUP5 DUP3 PUSH1 0x20 DUP7 ADD PUSH3 0x506 JUMP JUMPDEST SWAP2 POP POP SWAP3 SWAP2 POP POP JUMP JUMPDEST PUSH1 0x0 DUP1 PUSH1 0x0 PUSH1 0x60 DUP5 DUP7 SUB SLT ISZERO PUSH3 0x5A0 JUMPI PUSH3 0x59F PUSH3 0x257 JUMP JUMPDEST JUMPDEST PUSH1 0x0 PUSH3 0x5B0 DUP7 DUP3 DUP8 ADD PUSH3 0x285 JUMP JUMPDEST SWAP4 POP POP PUSH1 0x20 DUP5 ADD CALLDATALOAD PUSH8 0xFFFFFFFFFFFFFFFF DUP2 GT ISZERO PUSH3 0x5D4 JUMPI PUSH3 0x5D3 PUSH3 0x25C JUMP JUMPDEST JUMPDEST PUSH3 0x5E2 DUP7 DUP3 DUP8 ADD PUSH3 0x551 JUMP JUMPDEST SWAP3 POP POP PUSH1 0x40 DUP5 ADD CALLDATALOAD PUSH8 0xFFFFFFFFFFFFFFFF DUP2 GT ISZERO PUSH3 0x606 JUMPI PUSH3 0x605 PUSH3 0x25C JUMP JUMPDEST JUMPDEST PUSH3 0x614 DUP7 DUP3 DUP8 ADD PUSH3 0x551 JUMP JUMPDEST SWAP2 POP POP SWAP3 POP SWAP3 POP SWAP3 JUMP JUMPDEST PUSH3 0x629 DUP2 PUSH3 0x261 JUMP JUMPDEST DUP3 MSTORE POP POP JUMP JUMPDEST PUSH1 0x0 DUP2 MLOAD SWAP1 POP SWAP2 SWAP1 POP JUMP JUMPDEST PUSH1 0x0 DUP3 DUP3 MSTORE PUSH1 0x20 DUP3 ADD SWAP1 POP SWAP3 SWAP2 POP POP JUMP JUMPDEST PUSH1 0x0 JUMPDEST DUP4 DUP2 LT ISZERO PUSH3 0x66B JUMPI DUP1 DUP3 ADD MLOAD DUP2 DUP5 ADD MSTORE PUSH1 0x20 DUP2 ADD SWAP1 POP PUSH3 0x64E JUMP JUMPDEST PUSH1 0x0 DUP5 DUP5 ADD MSTORE POP POP POP POP JUMP JUMPDEST PUSH1 0x0 PUSH3 0x684 DUP3 PUSH3 0x62F JUMP JUMPDEST PUSH3 0x690 DUP2 DUP6 PUSH3 0x63A JUMP JUMPDEST SWAP4 POP PUSH3 0x6A2 DUP2 DUP6 PUSH1 0x20 DUP7 ADD PUSH3 0x64B JUMP JUMPDEST PUSH3 0x6AD DUP2 PUSH3 0x42C JUMP JUMPDEST DUP5 ADD SWAP2 POP POP SWAP3 SWAP2 POP POP JUMP JUMPDEST PUSH1 0x0 PUSH1 0x80 DUP3 ADD SWAP1 POP PUSH3 0x6CF PUSH1 0x0 DUP4 ADD DUP8 PUSH3 0x61E JUMP JUMPDEST PUSH3 0x6DE PUSH1 0x20 DUP4 ADD DUP7 PUSH3 0x302 JUMP JUMPDEST DUP2 DUP2 SUB PUSH1 0x40 DUP4 ADD MSTORE PUSH3 0x6F2 DUP2 DUP6 PUSH3 0x677 JUMP JUMPDEST SWAP1 POP DUP2 DUP2 SUB PUSH1 0x60 DUP4 ADD MSTORE PUSH3 0x708 DUP2 DUP5 PUSH3 0x677 JUMP JUMPDEST SWAP1 POP SWAP6 SWAP5 POP POP POP POP POP JUMP INVALID PUSH1 0x80 PUSH1 0x40 MSTORE CALLVALUE DUP1 ISZERO PUSH3 0x11 JUMPI PUSH1 0x0 DUP1 REVERT JUMPDEST POP PUSH1 0x40 MLOAD PUSH3 0x1DA4 CODESIZE SUB DUP1 PUSH3 0x1DA4 DUP4 CODECOPY DUP2 DUP2 ADD PUSH1 0x40 MSTORE DUP2 ADD SWAP1 PUSH3 0x37 SWAP2 SWAP1 PUSH3 0x2DF JUMP JUMPDEST DUP3 PUSH1 0x0 DUP1 PUSH2 0x100 EXP DUP2 SLOAD DUP2 PUSH20 0xFFFFFFFFFFFFFFFFFFFFFFFFFFFFFFFFFFFFFFFF MUL NOT AND SWAP1 DUP4 PUSH20 0xFFFFFFFFFFFFFFFFFFFFFFFFFFFFFFFFFFFFFFFF AND MUL OR SWAP1 SSTORE POP DUP4 PUSH1 0x3 DUP2 SWAP1 SSTORE POP DUP2 PUSH1 0x1 SWAP1 DUP2 PUSH3 0x8F SWAP2 SWAP1 PUSH3 0x5D0 JUMP JUMPDEST POP DUP1 PUSH1 0x2 SWAP1 DUP2 PUSH3 0xA1 SWAP2 SWAP1 PUSH3 0x5D0 JUMP JUMPDEST POP POP POP POP POP PUSH3 0x6B7 JUMP JUMPDEST PUSH1 0x0 PUSH1 0x40 MLOAD SWAP1 POP SWAP1 JUMP JUMPDEST PUSH1 0x0 DUP1 REVERT JUMPDEST PUSH1 0x0 DUP1 REVERT JUMPDEST PUSH1 0x0 DUP2 SWAP1 POP SWAP2 SWAP1 POP JUMP JUMPDEST PUSH3 0xD5 DUP2 PUSH3 0xC0 JUMP JUMPDEST DUP2 EQ PUSH3 0xE1 JUMPI PUSH1 0x0 DUP1 REVERT JUMPDEST POP JUMP JUMPDEST PUSH1 0x0 DUP2 MLOAD SWAP1 POP PUSH3 0xF5 DUP2 PUSH3 0xCA JUMP JUMPDEST SWAP3 SWAP2 POP POP JUMP JUMPDEST PUSH1 0x0 PUSH20 0xFFFFFFFFFFFFFFFFFFFFFFFFFFFFFFFFFFFFFFFF DUP3 AND SWAP1 POP SWAP2 SWAP1 POP JUMP JUMPDEST PUSH1 0x0 PUSH3 0x128 DUP3 PUSH3 0xFB JUMP JUMPDEST SWAP1 POP SWAP2 SWAP1 POP JUMP JUMPDEST PUSH3 0x13A DUP2 PUSH3 0x11B JUMP JUMPDEST DUP2 EQ PUSH3 0x146 JUMPI PUSH1 0x0 DUP1 REVERT JUMPDEST POP JUMP JUMPDEST PUSH1 0x0 DUP2 MLOAD SWAP1 POP PUSH3 0x15A DUP2 PUSH3 0x12F JUMP JUMPDEST SWAP3 SWAP2 POP POP JUMP JUMPDEST PUSH1 0x0 DUP1 REVERT JUMPDEST PUSH1 0x0 DUP1 REVERT JUMPDEST PUSH1 0x0 PUSH1 0x1F NOT PUSH1 0x1F DUP4 ADD AND SWAP1 POP SWAP2 SWAP1 POP JUMP JUMPDEST PUSH32 0x4E487B7100000000000000000000000000000000000000000000000000000000 PUSH1 0x0 MSTORE PUSH1 0x41 PUSH1 0x4 MSTORE PUSH1 0x24 PUSH1 0x0 REVERT JUMPDEST PUSH3 0x1B5 DUP3 PUSH3 0x16A JUMP JUMPDEST DUP2 ADD DUP2 DUP2 LT PUSH8 0xFFFFFFFFFFFFFFFF DUP3 GT OR ISZERO PUSH3 0x1D7 JUMPI PUSH3 0x1D6 PUSH3 0x17B JUMP JUMPDEST JUMPDEST DUP1 PUSH1 0x40 MSTORE POP POP POP JUMP JUMPDEST PUSH1 0x0 PUSH3 0x1EC PUSH3 0xAC JUMP JUMPDEST SWAP1 POP PUSH3 0x1FA DUP3 DUP3 PUSH3 0x1AA JUMP JUMPDEST SWAP2 SWAP1 POP JUMP JUMPDEST PUSH1 0x0 PUSH8 0xFFFFFFFFFFFFFFFF DUP3 GT ISZERO PUSH3 0x21D JUMPI PUSH3 0x21C PUSH3 0x17B JUMP JUMPDEST JUMPDEST PUSH3 0x228 DUP3 PUSH3 0x16A JUMP JUMPDEST SWAP1 POP PUSH1 0x20 DUP2 ADD SWAP1 POP SWAP2 SWAP1 POP JUMP JUMPDEST PUSH1 0x0 JUMPDEST DUP4 DUP2 LT ISZERO PUSH3 0x255 JUMPI DUP1 DUP3 ADD MLOAD DUP2 DUP5 ADD MSTORE PUSH1 0x20 DUP2 ADD SWAP1 POP PUSH3 0x238 JUMP JUMPDEST PUSH1 0x0 DUP5 DUP5 ADD MSTORE POP POP POP POP JUMP JUMPDEST PUSH1 0x0 PUSH3 0x278 PUSH3 0x272 DUP5 PUSH3 0x1FF JUMP JUMPDEST PUSH3 0x1E0 JUMP JUMPDEST SWAP1 POP DUP3 DUP2 MSTORE PUSH1 0x20 DUP2 ADD DUP5 DUP5 DUP5 ADD GT ISZERO PUSH3 0x297 JUMPI PUSH3 0x296 PUSH3 0x165 JUMP JUMPDEST JUMPDEST PUSH3 0x2A4 DUP5 DUP3 DUP6 PUSH3 0x235 JUMP JUMPDEST POP SWAP4 SWAP3 POP POP POP JUMP JUMPDEST PUSH1 0x0 DUP3 PUSH1 0x1F DUP4 ADD SLT PUSH3 0x2C4 JUMPI PUSH3 0x2C3 PUSH3 0x160 JUMP JUMPDEST JUMPDEST DUP2 MLOAD PUSH3 0x2D6 DUP5 DUP3 PUSH1 0x20 DUP7 ADD PUSH3 0x261 JUMP JUMPDEST SWAP2 POP POP SWAP3 SWAP2 POP POP JUMP JUMPDEST PUSH1 0x0 DUP1 PUSH1 0x0 DUP1 PUSH1 0x80 DUP6 DUP8 SUB SLT ISZERO PUSH3 0x2FC JUMPI PUSH3 0x2FB PUSH3 0xB6 JUMP JUMPDEST JUMPDEST PUSH1 0x0 PUSH3 0x30C DUP8 DUP3 DUP9 ADD PUSH3 0xE4 JUMP JUMPDEST SWAP5 POP POP PUSH1 0x20 PUSH3 0x31F DUP8 DUP3 DUP9 ADD PUSH3 0x149 JUMP JUMPDEST SWAP4 POP POP PUSH1 0x40 DUP6 ADD MLOAD PUSH8 0xFFFFFFFFFFFFFFFF DUP2 GT ISZERO PUSH3 0x343 JUMPI PUSH3 0x342 PUSH3 0xBB JUMP JUMPDEST JUMPDEST PUSH3 0x351 DUP8 DUP3 DUP9 ADD PUSH3 0x2AC JUMP JUMPDEST SWAP3 POP POP PUSH1 0x60 DUP6 ADD MLOAD PUSH8 0xFFFFFFFFFFFFFFFF DUP2 GT ISZERO PUSH3 0x375 JUMPI PUSH3 0x374 PUSH3 0xBB JUMP JUMPDEST JUMPDEST PUSH3 0x383 DUP8 DUP3 DUP9 ADD PUSH3 0x2AC JUMP JUMPDEST SWAP2 POP POP SWAP3 SWAP6 SWAP2 SWAP5 POP SWAP3 POP JUMP JUMPDEST PUSH1 0x0 DUP2 MLOAD SWAP1 POP SWAP2 SWAP1 POP JUMP JUMPDEST PUSH32 0x4E487B7100000000000000000000000000000000000000000000000000000000 PUSH1 0x0 MSTORE PUSH1 0x22 PUSH1 0x4 MSTORE PUSH1 0x24 PUSH1 0x0 REVERT JUMPDEST PUSH1 0x0 PUSH1 0x2 DUP3 DIV SWAP1 POP PUSH1 0x1 DUP3 AND DUP1 PUSH3 0x3E2 JUMPI PUSH1 0x7F DUP3 AND SWAP2 POP JUMPDEST PUSH1 0x20 DUP3 LT DUP2 SUB PUSH3 0x3F8 JUMPI PUSH3 0x3F7 PUSH3 0x39A JUMP JUMPDEST JUMPDEST POP SWAP2 SWAP1 POP JUMP JUMPDEST PUSH1 0x0 DUP2 SWAP1 POP DUP2 PUSH1 0x0 MSTORE PUSH1 0x20 PUSH1 0x0 KECCAK256 SWAP1 POP SWAP2 SWAP1 POP JUMP JUMPDEST PUSH1 0x0 PUSH1 0x20 PUSH1 0x1F DUP4 ADD DIV SWAP1 POP SWAP2 SWAP1 POP JUMP JUMPDEST PUSH1 0x0 DUP3 DUP3 SHL SWAP1 POP SWAP3 SWAP2 POP POP JUMP JUMPDEST PUSH1 0x0 PUSH1 0x8 DUP4 MUL PUSH3 0x462 PUSH32 0xFFFFFFFFFFFFFFFFFFFFFFFFFFFFFFFFFFFFFFFFFFFFFFFFFFFFFFFFFFFFFFFF DUP3 PUSH3 0x423 JUMP JUMPDEST PUSH3 0x46E DUP7 DUP4 PUSH3 0x423 JUMP JUMPDEST SWAP6 POP DUP1 NOT DUP5 AND SWAP4 POP DUP1 DUP7 AND DUP5 OR SWAP3 POP POP POP SWAP4 SWAP3 POP POP POP JUMP JUMPDEST PUSH1 0x0 DUP2 SWAP1 POP SWAP2 SWAP1 POP JUMP JUMPDEST PUSH1 0x0 PUSH3 0x4B1 PUSH3 0x4AB PUSH3 0x4A5 DUP5 PUSH3 0xC0 JUMP JUMPDEST PUSH3 0x486 JUMP JUMPDEST PUSH3 0xC0 JUMP JUMPDEST SWAP1 POP SWAP2 SWAP1 POP JUMP JUMPDEST PUSH1 0x0 DUP2 SWAP1 POP SWAP2 SWAP1 POP JUMP JUMPDEST PUSH3 0x4CD DUP4 PUSH3 0x490 JUMP JUMPDEST PUSH3 0x4E5 PUSH3 0x4DC DUP3 PUSH3 0x4B8 JUMP JUMPDEST DUP5 DUP5 SLOAD PUSH3 0x430 JUMP JUMPDEST DUP3 SSTORE POP POP POP POP JUMP JUMPDEST PUSH1 0x0 SWAP1 JUMP JUMPDEST PUSH3 0x4FC PUSH3 0x4ED JUMP JUMPDEST PUSH3 0x509 DUP2 DUP5 DUP5 PUSH3 0x4C2 JUMP JUMPDEST POP POP POP JUMP JUMPDEST JUMPDEST DUP2 DUP2 LT ISZERO PUSH3 0x531 JUMPI PUSH3 0x525 PUSH1 0x0 DUP3 PUSH3 0x4F2 JUMP JUMPDEST PUSH1 0x1 DUP2 ADD SWAP1 POP PUSH3 0x50F JUMP JUMPDEST POP POP JUMP JUMPDEST PUSH1 0x1F DUP3 GT ISZERO PUSH3 0x580 JUMPI PUSH3 0x54A DUP2 PUSH3 0x3FE JUMP JUMPDEST PUSH3 0x555 DUP5 PUSH3 0x413 JUMP JUMPDEST DUP2 ADD PUSH1 0x20 DUP6 LT ISZERO PUSH3 0x565 JUMPI DUP2 SWAP1 POP JUMPDEST PUSH3 0x57D PUSH3 0x574 DUP6 PUSH3 0x413 JUMP JUMPDEST DUP4 ADD DUP3 PUSH3 0x50E JUMP JUMPDEST POP POP JUMPDEST POP POP POP JUMP JUMPDEST PUSH1 0x0 DUP3 DUP3 SHR SWAP1 POP SWAP3 SWAP2 POP POP JUMP JUMPDEST PUSH1 0x0 PUSH3 0x5A5 PUSH1 0x0 NOT DUP5 PUSH1 0x8 MUL PUSH3 0x585 JUMP JUMPDEST NOT DUP1 DUP4 AND SWAP2 POP POP SWAP3 SWAP2 POP POP JUMP JUMPDEST PUSH1 0x0 PUSH3 0x5C0 DUP4 DUP4 PUSH3 0x592 JUMP JUMPDEST SWAP2 POP DUP3 PUSH1 0x2 MUL DUP3 OR SWAP1 POP SWAP3 SWAP2 POP POP JUMP JUMPDEST PUSH3 0x5DB DUP3 PUSH3 0x38F JUMP JUMPDEST PUSH8 0xFFFFFFFFFFFFFFFF DUP2 GT ISZERO PUSH3 0x5F7 JUMPI PUSH3 0x5F6 PUSH3 0x17B JUMP JUMPDEST JUMPDEST PUSH3 0x603 DUP3 SLOAD PUSH3 0x3C9 JUMP JUMPDEST PUSH3 0x610 DUP3 DUP3 DUP6 PUSH3 0x535 JUMP JUMPDEST PUSH1 0x0 PUSH1 0x20 SWAP1 POP PUSH1 0x1F DUP4 GT PUSH1 0x1 DUP2 EQ PUSH3 0x648 JUMPI PUSH1 0x0 DUP5 ISZERO PUSH3 0x633 JUMPI DUP3 DUP8 ADD MLOAD SWAP1 POP JUMPDEST PUSH3 0x63F DUP6 DUP3 PUSH3 0x5B2 JUMP JUMPDEST DUP7 SSTORE POP PUSH3 0x6AF JUMP JUMPDEST PUSH1 0x1F NOT DUP5 AND PUSH3 0x658 DUP7 PUSH3 0x3FE JUMP JUMPDEST PUSH1 0x0 JUMPDEST DUP3 DUP2 LT ISZERO PUSH3 0x682 JUMPI DUP5 DUP10 ADD MLOAD DUP3 SSTORE PUSH1 0x1 DUP3 ADD SWAP2 POP PUSH1 0x20 DUP6 ADD SWAP5 POP PUSH1 0x20 DUP2 ADD SWAP1 POP PUSH3 0x65B JUMP JUMPDEST DUP7 DUP4 LT ISZERO PUSH3 0x6A2 JUMPI DUP5 DUP10 ADD MLOAD PUSH3 0x69E PUSH1 0x1F DUP10 AND DUP3 PUSH3 0x592 JUMP JUMPDEST DUP4 SSTORE POP JUMPDEST PUSH1 0x1 PUSH1 0x2 DUP9 MUL ADD DUP9 SSTORE POP POP POP JUMPDEST POP POP POP POP POP POP JUMP JUMPDEST PUSH2 0x16DD DUP1 PUSH3 0x6C7 PUSH1 0x0 CODECOPY PUSH1 0x0 RETURN INVALID PUSH1 0x80 PUSH1 0x40 MSTORE PUSH1 0x4 CALLDATASIZE LT PUSH2 0xDD JUMPI PUSH1 0x0 CALLDATALOAD PUSH1 0xE0 SHR DUP1 PUSH4 0x81D12C58 GT PUSH2 0x7F JUMPI DUP1 PUSH4 0x8A9CFD55 GT PUSH2 0x59 JUMPI DUP1 PUSH4 0x8A9CFD55 EQ PUSH2 0x2CC JUMPI DUP1 PUSH4 0x937E09B1 EQ PUSH2 0x2F5 JUMPI DUP1 PUSH4 0xD7BB99BA EQ PUSH2 0x320 JUMPI DUP1 PUSH4 0xD7D1BBDB EQ PUSH2 0x32A JUMPI PUSH2 0xDD JUMP JUMPDEST DUP1 PUSH4 0x81D12C58 EQ PUSH2 0x235 JUMPI DUP1 PUSH4 0x82FDE093 EQ PUSH2 0x276 JUMPI DUP1 PUSH4 0x835A6172 EQ PUSH2 0x2A1 JUMPI PUSH2 0xDD JUMP JUMPDEST DUP1 PUSH4 0x33F449E5 GT PUSH2 0xBB JUMPI DUP1 PUSH4 0x33F449E5 EQ PUSH2 0x173 JUMPI DUP1 PUSH4 0x3410452A EQ PUSH2 0x1B0 JUMPI DUP1 PUSH4 0x4051DDAC EQ PUSH2 0x1DB JUMPI DUP1 PUSH4 0x481C6A75 EQ PUSH2 0x20A JUMPI PUSH2 0xDD JUMP JUMPDEST DUP1 PUSH4 0x3441006 EQ PUSH2 0xE2 JUMPI DUP1 PUSH4 0xA144391 EQ PUSH2 0x10B JUMPI DUP1 PUSH4 0x110842CB EQ PUSH2 0x148 JUMPI JUMPDEST PUSH1 0x0 DUP1 REVERT JUMPDEST CALLVALUE DUP1 ISZERO PUSH2 0xEE JUMPI PUSH1 0x0 DUP1 REVERT JUMPDEST POP PUSH2 0x109 PUSH1 0x4 DUP1 CALLDATASIZE SUB DUP2 ADD SWAP1 PUSH2 0x104 SWAP2 SWAP1 PUSH2 0xC1B JUMP JUMPDEST PUSH2 0x353 JUMP JUMPDEST STOP JUMPDEST CALLVALUE DUP1 ISZERO PUSH2 0x117 JUMPI PUSH1 0x0 DUP1 REVERT JUMPDEST POP PUSH2 0x132 PUSH1 0x4 DUP1 CALLDATASIZE SUB DUP2 ADD SWAP1 PUSH2 0x12D SWAP2 SWAP1 PUSH2 0xCA6 JUMP JUMPDEST PUSH2 0x53D JUMP JUMPDEST PUSH1 0x40 MLOAD PUSH2 0x13F SWAP2 SWAP1 PUSH2 0xCEE JUMP JUMPDEST PUSH1 0x40 MLOAD DUP1 SWAP2 SUB SWAP1 RETURN JUMPDEST CALLVALUE DUP1 ISZERO PUSH2 0x154 JUMPI PUSH1 0x0 DUP1 REVERT JUMPDEST POP PUSH2 0x15D PUSH2 0x55D JUMP JUMPDEST PUSH1 0x40 MLOAD PUSH2 0x16A SWAP2 SWAP1 PUSH2 0xD99 JUMP JUMPDEST PUSH1 0x40 MLOAD DUP1 SWAP2 SUB SWAP1 RETURN JUMPDEST CALLVALUE DUP1 ISZERO PUSH2 0x17F JUMPI PUSH1 0x0 DUP1 REVERT JUMPDEST POP PUSH2 0x19A PUSH1 0x4 DUP1 CALLDATASIZE SUB DUP2 ADD SWAP1 PUSH2 0x195 SWAP2 SWAP1 PUSH2 0xDBB JUMP JUMPDEST PUSH2 0x5EB JUMP JUMPDEST PUSH1 0x40 MLOAD PUSH2 0x1A7 SWAP2 SWAP1 PUSH2 0xCEE JUMP JUMPDEST PUSH1 0x40 MLOAD DUP1 SWAP2 SUB SWAP1 RETURN JUMPDEST CALLVALUE DUP1 ISZERO PUSH2 0x1BC JUMPI PUSH1 0x0 DUP1 REVERT JUMPDEST POP PUSH2 0x1C5 PUSH2 0x61A JUMP JUMPDEST PUSH1 0x40 MLOAD PUSH2 0x1D2 SWAP2 SWAP1 PUSH2 0xE0A JUMP JUMPDEST PUSH1 0x40 MLOAD DUP1 SWAP2 SUB SWAP1 RETURN JUMPDEST CALLVALUE DUP1 ISZERO PUSH2 0x1E7 JUMPI PUSH1 0x0 DUP1 REVERT JUMPDEST POP PUSH2 0x1F0 PUSH2 0x627 JUMP JUMPDEST PUSH1 0x40 MLOAD PUSH2 0x201 SWAP6 SWAP5 SWAP4 SWAP3 SWAP2 SWAP1 PUSH2 0xE34 JUMP JUMPDEST PUSH1 0x40 MLOAD DUP1 SWAP2 SUB SWAP1 RETURN JUMPDEST CALLVALUE DUP1 ISZERO PUSH2 0x216 JUMPI PUSH1 0x0 DUP1 REVERT JUMPDEST POP PUSH2 0x21F PUSH2 0x66E JUMP JUMPDEST PUSH1 0x40 MLOAD PUSH2 0x22C SWAP2 SWAP1 PUSH2 0xE87 JUMP JUMPDEST PUSH1 0x40 MLOAD DUP1 SWAP2 SUB SWAP1 RETURN JUMPDEST CALLVALUE DUP1 ISZERO PUSH2 0x241 JUMPI PUSH1 0x0 DUP1 REVERT JUMPDEST POP PUSH2 0x25C PUSH1 0x4 DUP1 CALLDATASIZE SUB DUP2 ADD SWAP1 PUSH2 0x257 SWAP2 SWAP1 PUSH2 0xC1B JUMP JUMPDEST PUSH2 0x692 JUMP JUMPDEST PUSH1 0x40 MLOAD PUSH2 0x26D SWAP6 SWAP5 SWAP4 SWAP3 SWAP2 SWAP1 PUSH2 0xEC3 JUMP JUMPDEST PUSH1 0x40 MLOAD DUP1 SWAP2 SUB SWAP1 RETURN JUMPDEST CALLVALUE DUP1 ISZERO PUSH2 0x282 JUMPI PUSH1 0x0 DUP1 REVERT JUMPDEST POP PUSH2 0x28B PUSH2 0x78D JUMP JUMPDEST PUSH1 0x40 MLOAD PUSH2 0x298 SWAP2 SWAP1 PUSH2 0xE0A JUMP JUMPDEST PUSH1 0x40 MLOAD DUP1 SWAP2 SUB SWAP1 RETURN JUMPDEST CALLVALUE DUP1 ISZERO PUSH2 0x2AD JUMPI PUSH1 0x0 DUP1 REVERT JUMPDEST POP PUSH2 0x2B6 PUSH2 0x793 JUMP JUMPDEST PUSH1 0x40 MLOAD PUSH2 0x2C3 SWAP2 SWAP1 PUSH2 0xD99 JUMP JUMPDEST PUSH1 0x40 MLOAD DUP1 SWAP2 SUB SWAP1 RETURN JUMPDEST CALLVALUE DUP1 ISZERO PUSH2 0x2D8 JUMPI PUSH1 0x0 DUP1 REVERT JUMPDEST POP PUSH2 0x2F3 PUSH1 0x4 DUP1 CALLDATASIZE SUB DUP2 ADD SWAP1 PUSH2 0x2EE SWAP2 SWAP1 PUSH2 0x107E JUMP JUMPDEST PUSH2 0x821 JUMP JUMPDEST STOP JUMPDEST CALLVALUE DUP1 ISZERO PUSH2 0x301 JUMPI PUSH1 0x0 DUP1 REVERT JUMPDEST POP PUSH2 0x30A PUSH2 0x95E JUMP JUMPDEST PUSH1 0x40 MLOAD PUSH2 0x317 SWAP2 SWAP1 PUSH2 0xE0A JUMP JUMPDEST PUSH1 0x40 MLOAD DUP1 SWAP2 SUB SWAP1 RETURN JUMPDEST PUSH2 0x328 PUSH2 0x964 JUMP JUMPDEST STOP JUMPDEST CALLVALUE DUP1 ISZERO PUSH2 0x336 JUMPI PUSH1 0x0 DUP1 REVERT JUMPDEST POP PUSH2 0x351 PUSH1 0x4 DUP1 CALLDATASIZE SUB DUP2 ADD SWAP1 PUSH2 0x34C SWAP2 SWAP1 PUSH2 0xC1B JUMP JUMPDEST PUSH2 0xA6C JUMP JUMPDEST STOP JUMPDEST PUSH1 0x0 DUP1 SLOAD SWAP1 PUSH2 0x100 EXP SWAP1 DIV PUSH20 0xFFFFFFFFFFFFFFFFFFFFFFFFFFFFFFFFFFFFFFFF AND PUSH20 0xFFFFFFFFFFFFFFFFFFFFFFFFFFFFFFFFFFFFFFFF AND CALLER PUSH20 0xFFFFFFFFFFFFFFFFFFFFFFFFFFFFFFFFFFFFFFFF AND EQ PUSH2 0x3E1 JUMPI PUSH1 0x40 MLOAD PUSH32 0x8C379A000000000000000000000000000000000000000000000000000000000 DUP2 MSTORE PUSH1 0x4 ADD PUSH2 0x3D8 SWAP1 PUSH2 0x1139 JUMP JUMPDEST PUSH1 0x40 MLOAD DUP1 SWAP2 SUB SWAP1 REVERT JUMPDEST PUSH1 0x0 PUSH1 0x7 DUP3 DUP2 SLOAD DUP2 LT PUSH2 0x3F7 JUMPI PUSH2 0x3F6 PUSH2 0x1159 JUMP JUMPDEST JUMPDEST SWAP1 PUSH1 0x0 MSTORE PUSH1 0x20 PUSH1 0x0 KECCAK256 SWAP1 PUSH1 0x4 MUL ADD SWAP1 POP PUSH1 0x2 PUSH1 0x5 SLOAD PUSH2 0x416 SWAP2 SWAP1 PUSH2 0x11E6 JUMP JUMPDEST DUP2 PUSH1 0x3 ADD SLOAD GT PUSH2 0x45B JUMPI PUSH1 0x40 MLOAD PUSH32 0x8C379A000000000000000000000000000000000000000000000000000000000 DUP2 MSTORE PUSH1 0x4 ADD PUSH2 0x452 SWAP1 PUSH2 0x1263 JUMP JUMPDEST PUSH1 0x40 MLOAD DUP1 SWAP2 SUB SWAP1 REVERT JUMPDEST DUP1 PUSH1 0x2 ADD PUSH1 0x14 SWAP1 SLOAD SWAP1 PUSH2 0x100 EXP SWAP1 DIV PUSH1 0xFF AND ISZERO PUSH2 0x4AD JUMPI PUSH1 0x40 MLOAD PUSH32 0x8C379A000000000000000000000000000000000000000000000000000000000 DUP2 MSTORE PUSH1 0x4 ADD PUSH2 0x4A4 SWAP1 PUSH2 0x12CF JUMP JUMPDEST PUSH1 0x40 MLOAD DUP1 SWAP2 SUB SWAP1 REVERT JUMPDEST DUP1 PUSH1 0x2 ADD PUSH1 0x0 SWAP1 SLOAD SWAP1 PUSH2 0x100 EXP SWAP1 DIV PUSH20 0xFFFFFFFFFFFFFFFFFFFFFFFFFFFFFFFFFFFFFFFF AND PUSH20 0xFFFFFFFFFFFFFFFFFFFFFFFFFFFFFFFFFFFFFFFF AND PUSH2 0x8FC DUP3 PUSH1 0x1 ADD SLOAD SWAP1 DUP2 ISZERO MUL SWAP1 PUSH1 0x40 MLOAD PUSH1 0x0 PUSH1 0x40 MLOAD DUP1 DUP4 SUB DUP2 DUP6 DUP9 DUP9 CALL SWAP4 POP POP POP POP ISZERO DUP1 ISZERO PUSH2 0x51B JUMPI RETURNDATASIZE PUSH1 0x0 DUP1 RETURNDATACOPY RETURNDATASIZE PUSH1 0x0 REVERT JUMPDEST POP PUSH1 0x1 DUP2 PUSH1 0x2 ADD PUSH1 0x14 PUSH2 0x100 EXP DUP2 SLOAD DUP2 PUSH1 0xFF MUL NOT AND SWAP1 DUP4 ISZERO ISZERO MUL OR SWAP1 SSTORE POP POP POP JUMP JUMPDEST PUSH1 0x4 PUSH1 0x20 MSTORE DUP1 PUSH1 0x0 MSTORE PUSH1 0x40 PUSH1 0x0 KECCAK256 PUSH1 0x0 SWAP2 POP SLOAD SWAP1 PUSH2 0x100 EXP SWAP1 DIV PUSH1 0xFF AND DUP2 JUMP JUMPDEST PUSH1 0x2 DUP1 SLOAD PUSH2 0x56A SWAP1 PUSH2 0x131E JUMP JUMPDEST DUP1 PUSH1 0x1F ADD PUSH1 0x20 DUP1 SWAP2 DIV MUL PUSH1 0x20 ADD PUSH1 0x40 MLOAD SWAP1 DUP2 ADD PUSH1 0x40 MSTORE DUP1 SWAP3 SWAP2 SWAP1 DUP2 DUP2 MSTORE PUSH1 0x20 ADD DUP3 DUP1 SLOAD PUSH2 0x596 SWAP1 PUSH2 0x131E JUMP JUMPDEST DUP1 ISZERO PUSH2 0x5E3 JUMPI DUP1 PUSH1 0x1F LT PUSH2 0x5B8 JUMPI PUSH2 0x100 DUP1 DUP4 SLOAD DIV MUL DUP4 MSTORE SWAP2 PUSH1 0x20 ADD SWAP2 PUSH2 0x5E3 JUMP JUMPDEST DUP3 ADD SWAP2 SWAP1 PUSH1 0x0 MSTORE PUSH1 0x20 PUSH1 0x0 KECCAK256 SWAP1 JUMPDEST DUP2 SLOAD DUP2 MSTORE SWAP1 PUSH1 0x1 ADD SWAP1 PUSH1 0x20 ADD DUP1 DUP4 GT PUSH2 0x5C6 JUMPI DUP3 SWAP1 SUB PUSH1 0x1F AND DUP3 ADD SWAP2 JUMPDEST POP POP POP POP POP DUP2 JUMP JUMPDEST PUSH1 0x6 PUSH1 0x20 MSTORE DUP2 PUSH1 0x0 MSTORE PUSH1 0x40 PUSH1 0x0 KECCAK256 PUSH1 0x20 MSTORE DUP1 PUSH1 0x0 MSTORE PUSH1 0x40 PUSH1 0x0 KECCAK256 PUSH1 0x0 SWAP2 POP SWAP2 POP SWAP1 SLOAD SWAP1 PUSH2 0x100 EXP SWAP1 DIV PUSH1 0xFF AND DUP2 JUMP JUMPDEST PUSH1 0x0 PUSH1 0x7 DUP1 SLOAD SWAP1 POP SWAP1 POP SWAP1 JUMP JUMPDEST PUSH1 0x0 DUP1 PUSH1 0x0 DUP1 PUSH1 0x0 PUSH1 0x3 SLOAD SELFBALANCE PUSH1 0x7 DUP1 SLOAD SWAP1 POP PUSH1 0x5 SLOAD PUSH1 0x0 DUP1 SLOAD SWAP1 PUSH2 0x100 EXP SWAP1 DIV PUSH20 0xFFFFFFFFFFFFFFFFFFFFFFFFFFFFFFFFFFFFFFFF AND SWAP5 POP SWAP5 POP SWAP5 POP SWAP5 POP SWAP5 POP SWAP1 SWAP2 SWAP3 SWAP4 SWAP5 JUMP JUMPDEST PUSH1 0x0 DUP1 SLOAD SWAP1 PUSH2 0x100 EXP SWAP1 DIV PUSH20 0xFFFFFFFFFFFFFFFFFFFFFFFFFFFFFFFFFFFFFFFF AND DUP2 JUMP JUMPDEST PUSH1 0x7 DUP2 DUP2 SLOAD DUP2 LT PUSH2 0x6A2 JUMPI PUSH1 0x0 DUP1 REVERT JUMPDEST SWAP1 PUSH1 0x0 MSTORE PUSH1 0x20 PUSH1 0x0 KECCAK256 SWAP1 PUSH1 0x4 MUL ADD PUSH1 0x0 SWAP2 POP SWAP1 POP DUP1 PUSH1 0x0 ADD DUP1 SLOAD PUSH2 0x6C5 SWAP1 PUSH2 0x131E JUMP JUMPDEST DUP1 PUSH1 0x1F ADD PUSH1 0x20 DUP1 SWAP2 DIV MUL PUSH1 0x20 ADD PUSH1 0x40 MLOAD SWAP1 DUP2 ADD PUSH1 0x40 MSTORE DUP1 SWAP3 SWAP2 SWAP1 DUP2 DUP2 MSTORE PUSH1 0x20 ADD DUP3 DUP1 SLOAD PUSH2 0x6F1 SWAP1 PUSH2 0x131E JUMP JUMPDEST DUP1 ISZERO PUSH2 0x73E JUMPI DUP1 PUSH1 0x1F LT PUSH2 0x713 JUMPI PUSH2 0x100 DUP1 DUP4 SLOAD DIV MUL DUP4 MSTORE SWAP2 PUSH1 0x20 ADD SWAP2 PUSH2 0x73E JUMP JUMPDEST DUP3 ADD SWAP2 SWAP1 PUSH1 0x0 MSTORE PUSH1 0x20 PUSH1 0x0 KECCAK256 SWAP1 JUMPDEST DUP2 SLOAD DUP2 MSTORE SWAP1 PUSH1 0x1 ADD SWAP1 PUSH1 0x20 ADD DUP1 DUP4 GT PUSH2 0x721 JUMPI DUP3 SWAP1 SUB PUSH1 0x1F AND DUP3 ADD SWAP2 JUMPDEST POP POP POP POP POP SWAP1 DUP1 PUSH1 0x1 ADD SLOAD SWAP1 DUP1 PUSH1 0x2 ADD PUSH1 0x0 SWAP1 SLOAD SWAP1 PUSH2 0x100 EXP SWAP1 DIV PUSH20 0xFFFFFFFFFFFFFFFFFFFFFFFFFFFFFFFFFFFFFFFF AND SWAP1 DUP1 PUSH1 0x2 ADD PUSH1 0x14 SWAP1 SLOAD SWAP1 PUSH2 0x100 EXP SWAP1 DIV PUSH1 0xFF AND SWAP1 DUP1 PUSH1 0x3 ADD SLOAD SWAP1 POP DUP6 JUMP JUMPDEST PUSH1 0x5 SLOAD DUP2 JUMP JUMPDEST PUSH1 0x1 DUP1 SLOAD PUSH2 0x7A0 SWAP1 PUSH2 0x131E JUMP JUMPDEST DUP1 PUSH1 0x1F ADD PUSH1 0x20 DUP1 SWAP2 DIV MUL PUSH1 0x20 ADD PUSH1 0x40 MLOAD SWAP1 DUP2 ADD PUSH1 0x40 MSTORE DUP1 SWAP3 SWAP2 SWAP1 DUP2 DUP2 MSTORE PUSH1 0x20 ADD DUP3 DUP1 SLOAD PUSH2 0x7CC SWAP1 PUSH2 0x131E JUMP JUMPDEST DUP1 ISZERO PUSH2 0x819 JUMPI DUP1 PUSH1 0x1F LT PUSH2 0x7EE JUMPI PUSH2 0x100 DUP1 DUP4 SLOAD DIV MUL DUP4 MSTORE SWAP2 PUSH1 0x20 ADD SWAP2 PUSH2 0x819 JUMP JUMPDEST DUP3 ADD SWAP2 SWAP1 PUSH1 0x0 MSTORE PUSH1 0x20 PUSH1 0x0 KECCAK256 SWAP1 JUMPDEST DUP2 SLOAD DUP2 MSTORE SWAP1 PUSH1 0x1 ADD SWAP1 PUSH1 0x20 ADD DUP1 DUP4 GT PUSH2 0x7FC JUMPI DUP3 SWAP1 SUB PUSH1 0x1F AND DUP3 ADD SWAP2 JUMPDEST POP POP POP POP POP DUP2 JUMP JUMPDEST PUSH1 0x0 DUP1 SLOAD SWAP1 PUSH2 0x100 EXP SWAP1 DIV PUSH20 0xFFFFFFFFFFFFFFFFFFFFFFFFFFFFFFFFFFFFFFFF AND PUSH20 0xFFFFFFFFFFFFFFFFFFFFFFFFFFFFFFFFFFFFFFFF AND CALLER PUSH20 0xFFFFFFFFFFFFFFFFFFFFFFFFFFFFFFFFFFFFFFFF AND EQ PUSH2 0x8AF JUMPI PUSH1 0x40 MLOAD PUSH32 0x8C379A000000000000000000000000000000000000000000000000000000000 DUP2 MSTORE PUSH1 0x4 ADD PUSH2 0x8A6 SWAP1 PUSH2 0x1139 JUMP JUMPDEST PUSH1 0x40 MLOAD DUP1 SWAP2 SUB SWAP1 REVERT JUMPDEST PUSH1 0x0 PUSH1 0x7 PUSH1 0x1 DUP2 PUSH1 0x1 DUP2 SLOAD ADD DUP1 DUP3 SSTORE DUP1 SWAP2 POP POP SUB SWAP1 PUSH1 0x0 MSTORE PUSH1 0x20 PUSH1 0x0 KECCAK256 SWAP1 PUSH1 0x4 MUL ADD SWAP1 POP DUP4 DUP2 PUSH1 0x0 ADD SWAP1 DUP2 PUSH2 0x8E4 SWAP2 SWAP1 PUSH2 0x14FB JUMP JUMPDEST POP DUP3 DUP2 PUSH1 0x1 ADD DUP2 SWAP1 SSTORE POP DUP2 DUP2 PUSH1 0x2 ADD PUSH1 0x0 PUSH2 0x100 EXP DUP2 SLOAD DUP2 PUSH20 0xFFFFFFFFFFFFFFFFFFFFFFFFFFFFFFFFFFFFFFFF MUL NOT AND SWAP1 DUP4 PUSH20 0xFFFFFFFFFFFFFFFFFFFFFFFFFFFFFFFFFFFFFFFF AND MUL OR SWAP1 SSTORE POP PUSH1 0x0 DUP2 PUSH1 0x2 ADD PUSH1 0x14 PUSH2 0x100 EXP DUP2 SLOAD DUP2 PUSH1 0xFF MUL NOT AND SWAP1 DUP4 ISZERO ISZERO MUL OR SWAP1 SSTORE POP PUSH1 0x0 DUP2 PUSH1 0x3 ADD DUP2 SWAP1 SSTORE POP POP POP POP POP JUMP JUMPDEST PUSH1 0x3 SLOAD DUP2 JUMP JUMPDEST PUSH1 0x3 SLOAD CALLVALUE GT PUSH2 0x9A8 JUMPI PUSH1 0x40 MLOAD PUSH32 0x8C379A000000000000000000000000000000000000000000000000000000000 DUP2 MSTORE PUSH1 0x4 ADD PUSH2 0x99F SWAP1 PUSH2 0x163F JUMP JUMPDEST PUSH1 0x40 MLOAD DUP1 SWAP2 SUB SWAP1 REVERT JUMPDEST PUSH1 0x4 PUSH1 0x0 CALLER PUSH20 0xFFFFFFFFFFFFFFFFFFFFFFFFFFFFFFFFFFFFFFFF AND PUSH20 0xFFFFFFFFFFFFFFFFFFFFFFFFFFFFFFFFFFFFFFFF AND DUP2 MSTORE PUSH1 0x20 ADD SWAP1 DUP2 MSTORE PUSH1 0x20 ADD PUSH1 0x0 KECCAK256 PUSH1 0x0 SWAP1 SLOAD SWAP1 PUSH2 0x100 EXP SWAP1 DIV PUSH1 0xFF AND PUSH2 0xA6A JUMPI PUSH1 0x1 PUSH1 0x4 PUSH1 0x0 CALLER PUSH20 0xFFFFFFFFFFFFFFFFFFFFFFFFFFFFFFFFFFFFFFFF AND PUSH20 0xFFFFFFFFFFFFFFFFFFFFFFFFFFFFFFFFFFFFFFFF AND DUP2 MSTORE PUSH1 0x20 ADD SWAP1 DUP2 MSTORE PUSH1 0x20 ADD PUSH1 0x0 KECCAK256 PUSH1 0x0 PUSH2 0x100 EXP DUP2 SLOAD DUP2 PUSH1 0xFF MUL NOT AND SWAP1 DUP4 ISZERO ISZERO MUL OR SWAP1 SSTORE POP PUSH1 0x5 PUSH1 0x0 DUP2 SLOAD DUP1 SWAP3 SWAP2 SWAP1 PUSH2 0xA64 SWAP1 PUSH2 0x165F JUMP JUMPDEST SWAP2 SWAP1 POP SSTORE POP JUMPDEST JUMP JUMPDEST PUSH1 0x4 PUSH1 0x0 CALLER PUSH20 0xFFFFFFFFFFFFFFFFFFFFFFFFFFFFFFFFFFFFFFFF AND PUSH20 0xFFFFFFFFFFFFFFFFFFFFFFFFFFFFFFFFFFFFFFFF AND DUP2 MSTORE PUSH1 0x20 ADD SWAP1 DUP2 MSTORE PUSH1 0x20 ADD PUSH1 0x0 KECCAK256 PUSH1 0x0 SWAP1 SLOAD SWAP1 PUSH2 0x100 EXP SWAP1 DIV PUSH1 0xFF AND PUSH2 0xAC2 JUMPI PUSH1 0x0 DUP1 REVERT JUMPDEST PUSH1 0x6 PUSH1 0x0 DUP3 DUP2 MSTORE PUSH1 0x20 ADD SWAP1 DUP2 MSTORE PUSH1 0x20 ADD PUSH1 0x0 KECCAK256 PUSH1 0x0 CALLER PUSH20 0xFFFFFFFFFFFFFFFFFFFFFFFFFFFFFFFFFFFFFFFF AND PUSH20 0xFFFFFFFFFFFFFFFFFFFFFFFFFFFFFFFFFFFFFFFF AND DUP2 MSTORE PUSH1 0x20 ADD SWAP1 DUP2 MSTORE PUSH1 0x20 ADD PUSH1 0x0 KECCAK256 PUSH1 0x0 SWAP1 SLOAD SWAP1 PUSH2 0x100 EXP SWAP1 DIV PUSH1 0xFF AND ISZERO PUSH2 0xB2A JUMPI PUSH1 0x0 DUP1 REVERT JUMPDEST PUSH1 0x1 PUSH1 0x6 PUSH1 0x0 DUP4 DUP2 MSTORE PUSH1 0x20 ADD SWAP1 DUP2 MSTORE PUSH1 0x20 ADD PUSH1 0x0 KECCAK256 PUSH1 0x0 CALLER PUSH20 0xFFFFFFFFFFFFFFFFFFFFFFFFFFFFFFFFFFFFFFFF AND PUSH20 0xFFFFFFFFFFFFFFFFFFFFFFFFFFFFFFFFFFFFFFFF AND DUP2 MSTORE PUSH1 0x20 ADD SWAP1 DUP2 MSTORE PUSH1 0x20 ADD PUSH1 0x0 KECCAK256 PUSH1 0x0 PUSH2 0x100 EXP DUP2 SLOAD DUP2 PUSH1 0xFF MUL NOT AND SWAP1 DUP4 ISZERO ISZERO MUL OR SWAP1 SSTORE POP PUSH1 0x7 DUP2 DUP2 SLOAD DUP2 LT PUSH2 0xBA7 JUMPI PUSH2 0xBA6 PUSH2 0x1159 JUMP JUMPDEST JUMPDEST SWAP1 PUSH1 0x0 MSTORE PUSH1 0x20 PUSH1 0x0 KECCAK256 SWAP1 PUSH1 0x4 MUL ADD PUSH1 0x3 ADD PUSH1 0x0 DUP2 SLOAD DUP1 SWAP3 SWAP2 SWAP1 PUSH2 0xBC9 SWAP1 PUSH2 0x165F JUMP JUMPDEST SWAP2 SWAP1 POP SSTORE POP POP JUMP JUMPDEST PUSH1 0x0 PUSH1 0x40 MLOAD SWAP1 POP SWAP1 JUMP JUMPDEST PUSH1 0x0 DUP1 REVERT JUMPDEST PUSH1 0x0 DUP1 REVERT JUMPDEST PUSH1 0x0 DUP2 SWAP1 POP SWAP2 SWAP1 POP JUMP JUMPDEST PUSH2 0xBF8 DUP2 PUSH2 0xBE5 JUMP JUMPDEST DUP2 EQ PUSH2 0xC03 JUMPI PUSH1 0x0 DUP1 REVERT JUMPDEST POP JUMP JUMPDEST PUSH1 0x0 DUP2 CALLDATALOAD SWAP1 POP PUSH2 0xC15 DUP2 PUSH2 0xBEF JUMP JUMPDEST SWAP3 SWAP2 POP POP JUMP JUMPDEST PUSH1 0x0 PUSH1 0x20 DUP3 DUP5 SUB SLT ISZERO PUSH2 0xC31 JUMPI PUSH2 0xC30 PUSH2 0xBDB JUMP JUMPDEST JUMPDEST PUSH1 0x0 PUSH2 0xC3F DUP5 DUP3 DUP6 ADD PUSH2 0xC06 JUMP JUMPDEST SWAP2 POP POP SWAP3 SWAP2 POP POP JUMP JUMPDEST PUSH1 0x0 PUSH20 0xFFFFFFFFFFFFFFFFFFFFFFFFFFFFFFFFFFFFFFFF DUP3 AND SWAP1 POP SWAP2 SWAP1 POP JUMP JUMPDEST PUSH1 0x0 PUSH2 0xC73 DUP3 PUSH2 0xC48 JUMP JUMPDEST SWAP1 POP SWAP2 SWAP1 POP JUMP JUMPDEST PUSH2 0xC83 DUP2 PUSH2 0xC68 JUMP JUMPDEST DUP2 EQ PUSH2 0xC8E JUMPI PUSH1 0x0 DUP1 REVERT JUMPDEST POP JUMP JUMPDEST PUSH1 0x0 DUP2 CALLDATALOAD SWAP1 POP PUSH2 0xCA0 DUP2 PUSH2 0xC7A JUMP JUMPDEST SWAP3 SWAP2 POP POP JUMP JUMPDEST PUSH1 0x0 PUSH1 0x20 DUP3 DUP5 SUB SLT ISZERO PUSH2 0xCBC JUMPI PUSH2 0xCBB PUSH2 0xBDB JUMP JUMPDEST JUMPDEST PUSH1 0x0 PUSH2 0xCCA DUP5 DUP3 DUP6 ADD PUSH2 0xC91 JUMP JUMPDEST SWAP2 POP POP SWAP3 SWAP2 POP POP JUMP JUMPDEST PUSH1 0x0 DUP2 ISZERO ISZERO SWAP1 POP SWAP2 SWAP1 POP JUMP JUMPDEST PUSH2 0xCE8 DUP2 PUSH2 0xCD3 JUMP JUMPDEST DUP3 MSTORE POP POP JUMP JUMPDEST PUSH1 0x0 PUSH1 0x20 DUP3 ADD SWAP1 POP PUSH2 0xD03 PUSH1 0x0 DUP4 ADD DUP5 PUSH2 0xCDF JUMP JUMPDEST SWAP3 SWAP2 POP POP JUMP JUMPDEST PUSH1 0x0 DUP2 MLOAD SWAP1 POP SWAP2 SWAP1 POP JUMP JUMPDEST PUSH1 0x0 DUP3 DUP3 MSTORE PUSH1 0x20 DUP3 ADD SWAP1 POP SWAP3 SWAP2 POP POP JUMP JUMPDEST PUSH1 0x0 JUMPDEST DUP4 DUP2 LT ISZERO PUSH2 0xD43 JUMPI DUP1 DUP3 ADD MLOAD DUP2 DUP5 ADD MSTORE PUSH1 0x20 DUP2 ADD SWAP1 POP PUSH2 0xD28 JUMP JUMPDEST PUSH1 0x0 DUP5 DUP5 ADD MSTORE POP POP POP POP JUMP JUMPDEST PUSH1 0x0 PUSH1 0x1F NOT PUSH1 0x1F DUP4 ADD AND SWAP1 POP SWAP2 SWAP1 POP JUMP JUMPDEST PUSH1 0x0 PUSH2 0xD6B DUP3 PUSH2 0xD09 JUMP JUMPDEST PUSH2 0xD75 DUP2 DUP6 PUSH2 0xD14 JUMP JUMPDEST SWAP4 POP PUSH2 0xD85 DUP2 DUP6 PUSH1 0x20 DUP7 ADD PUSH2 0xD25 JUMP JUMPDEST PUSH2 0xD8E DUP2 PUSH2 0xD4F JUMP JUMPDEST DUP5 ADD SWAP2 POP POP SWAP3 SWAP2 POP POP JUMP JUMPDEST PUSH1 0x0 PUSH1 0x20 DUP3 ADD SWAP1 POP DUP2 DUP2 SUB PUSH1 0x0 DUP4 ADD MSTORE PUSH2 0xDB3 DUP2 DUP5 PUSH2 0xD60 JUMP JUMPDEST SWAP1 POP SWAP3 SWAP2 POP POP JUMP JUMPDEST PUSH1 0x0 DUP1 PUSH1 0x40 DUP4 DUP6 SUB SLT ISZERO PUSH2 0xDD2 JUMPI PUSH2 0xDD1 PUSH2 0xBDB JUMP JUMPDEST JUMPDEST PUSH1 0x0 PUSH2 0xDE0 DUP6 DUP3 DUP7 ADD PUSH2 0xC06 JUMP JUMPDEST SWAP3 POP POP PUSH1 0x20 PUSH2 0xDF1 DUP6 DUP3 DUP7 ADD PUSH2 0xC91 JUMP JUMPDEST SWAP2 POP POP SWAP3 POP SWAP3 SWAP1 POP JUMP JUMPDEST PUSH2 0xE04 DUP2 PUSH2 0xBE5 JUMP JUMPDEST DUP3 MSTORE POP POP JUMP JUMPDEST PUSH1 0x0 PUSH1 0x20 DUP3 ADD SWAP1 POP PUSH2 0xE1F PUSH1 0x0 DUP4 ADD DUP5 PUSH2 0xDFB JUMP JUMPDEST SWAP3 SWAP2 POP POP JUMP JUMPDEST PUSH2 0xE2E DUP2 PUSH2 0xC68 JUMP JUMPDEST DUP3 MSTORE POP POP JUMP JUMPDEST PUSH1 0x0 PUSH1 0xA0 DUP3 ADD SWAP1 POP PUSH2 0xE49 PUSH1 0x0 DUP4 ADD DUP9 PUSH2 0xDFB JUMP JUMPDEST PUSH2 0xE56 PUSH1 0x20 DUP4 ADD DUP8 PUSH2 0xDFB JUMP JUMPDEST PUSH2 0xE63 PUSH1 0x40 DUP4 ADD DUP7 PUSH2 0xDFB JUMP JUMPDEST PUSH2 0xE70 PUSH1 0x60 DUP4 ADD DUP6 PUSH2 0xDFB JUMP JUMPDEST PUSH2 0xE7D PUSH1 0x80 DUP4 ADD DUP5 PUSH2 0xE25 JUMP JUMPDEST SWAP7 SWAP6 POP POP POP POP POP POP JUMP JUMPDEST PUSH1 0x0 PUSH1 0x20 DUP3 ADD SWAP1 POP PUSH2 0xE9C PUSH1 0x0 DUP4 ADD DUP5 PUSH2 0xE25 JUMP JUMPDEST SWAP3 SWAP2 POP POP JUMP JUMPDEST PUSH1 0x0 PUSH2 0xEAD DUP3 PUSH2 0xC48 JUMP JUMPDEST SWAP1 POP SWAP2 SWAP1 POP JUMP JUMPDEST PUSH2 0xEBD DUP2 PUSH2 0xEA2 JUMP JUMPDEST DUP3 MSTORE POP POP JUMP JUMPDEST PUSH1 0x0 PUSH1 0xA0 DUP3 ADD SWAP1 POP DUP2 DUP2 SUB PUSH1 0x0 DUP4 ADD MSTORE PUSH2 0xEDD DUP2 DUP9 PUSH2 0xD60 JUMP JUMPDEST SWAP1 POP PUSH2 0xEEC PUSH1 0x20 DUP4 ADD DUP8 PUSH2 0xDFB JUMP JUMPDEST PUSH2 0xEF9 PUSH1 0x40 DUP4 ADD DUP7 PUSH2 0xEB4 JUMP JUMPDEST PUSH2 0xF06 PUSH1 0x60 DUP4 ADD DUP6 PUSH2 0xCDF JUMP JUMPDEST PUSH2 0xF13 PUSH1 0x80 DUP4 ADD DUP5 PUSH2 0xDFB JUMP JUMPDEST SWAP7 SWAP6 POP POP POP POP POP POP JUMP JUMPDEST PUSH1 0x0 DUP1 REVERT JUMPDEST PUSH1 0x0 DUP1 REVERT JUMPDEST PUSH32 0x4E487B7100000000000000000000000000000000000000000000000000000000 PUSH1 0x0 MSTORE PUSH1 0x41 PUSH1 0x4 MSTORE PUSH1 0x24 PUSH1 0x0 REVERT JUMPDEST PUSH2 0xF5F DUP3 PUSH2 0xD4F JUMP JUMPDEST DUP2 ADD DUP2 DUP2 LT PUSH8 0xFFFFFFFFFFFFFFFF DUP3 GT OR ISZERO PUSH2 0xF7E JUMPI PUSH2 0xF7D PUSH2 0xF27 JUMP JUMPDEST JUMPDEST DUP1 PUSH1 0x40 MSTORE POP POP POP JUMP JUMPDEST PUSH1 0x0 PUSH2 0xF91 PUSH2 0xBD1 JUMP JUMPDEST SWAP1 POP PUSH2 0xF9D DUP3 DUP3 PUSH2 0xF56 JUMP JUMPDEST SWAP2 SWAP1 POP JUMP JUMPDEST PUSH1 0x0 PUSH8 0xFFFFFFFFFFFFFFFF DUP3 GT ISZERO PUSH2 0xFBD JUMPI PUSH2 0xFBC PUSH2 0xF27 JUMP JUMPDEST JUMPDEST PUSH2 0xFC6 DUP3 PUSH2 0xD4F JUMP JUMPDEST SWAP1 POP PUSH1 0x20 DUP2 ADD SWAP1 POP SWAP2 SWAP1 POP JUMP JUMPDEST DUP3 DUP2 DUP4 CALLDATACOPY PUSH1 0x0 DUP4 DUP4 ADD MSTORE POP POP POP JUMP JUMPDEST PUSH1 0x0 PUSH2 0xFF5 PUSH2 0xFF0 DUP5 PUSH2 0xFA2 JUMP JUMPDEST PUSH2 0xF87 JUMP JUMPDEST SWAP1 POP DUP3 DUP2 MSTORE PUSH1 0x20 DUP2 ADD DUP5 DUP5 DUP5 ADD GT ISZERO PUSH2 0x1011 JUMPI PUSH2 0x1010 PUSH2 0xF22 JUMP JUMPDEST JUMPDEST PUSH2 0x101C DUP5 DUP3 DUP6 PUSH2 0xFD3 JUMP JUMPDEST POP SWAP4 SWAP3 POP POP POP JUMP JUMPDEST PUSH1 0x0 DUP3 PUSH1 0x1F DUP4 ADD SLT PUSH2 0x1039 JUMPI PUSH2 0x1038 PUSH2 0xF1D JUMP JUMPDEST JUMPDEST DUP2 CALLDATALOAD PUSH2 0x1049 DUP5 DUP3 PUSH1 0x20 DUP7 ADD PUSH2 0xFE2 JUMP JUMPDEST SWAP2 POP POP SWAP3 SWAP2 POP POP JUMP JUMPDEST PUSH2 0x105B DUP2 PUSH2 0xEA2 JUMP JUMPDEST DUP2 EQ PUSH2 0x1066 JUMPI PUSH1 0x0 DUP1 REVERT JUMPDEST POP JUMP JUMPDEST PUSH1 0x0 DUP2 CALLDATALOAD SWAP1 POP PUSH2 0x1078 DUP2 PUSH2 0x1052 JUMP JUMPDEST SWAP3 SWAP2 POP POP JUMP JUMPDEST PUSH1 0x0 DUP1 PUSH1 0x0 PUSH1 0x60 DUP5 DUP7 SUB SLT ISZERO PUSH2 0x1097 JUMPI PUSH2 0x1096 PUSH2 0xBDB JUMP JUMPDEST JUMPDEST PUSH1 0x0 DUP5 ADD CALLDATALOAD PUSH8 0xFFFFFFFFFFFFFFFF DUP2 GT ISZERO PUSH2 0x10B5 JUMPI PUSH2 0x10B4 PUSH2 0xBE0 JUMP JUMPDEST JUMPDEST PUSH2 0x10C1 DUP7 DUP3 DUP8 ADD PUSH2 0x1024 JUMP JUMPDEST SWAP4 POP POP PUSH1 0x20 PUSH2 0x10D2 DUP7 DUP3 DUP8 ADD PUSH2 0xC06 JUMP JUMPDEST SWAP3 POP POP PUSH1 0x40 PUSH2 0x10E3 DUP7 DUP3 DUP8 ADD PUSH2 0x1069 JUMP JUMPDEST SWAP2 POP POP SWAP3 POP SWAP3 POP SWAP3 JUMP JUMPDEST PUSH32 0x43616C6C6572206973206E6F7420746865206D616E6167657200000000000000 PUSH1 0x0 DUP3 ADD MSTORE POP JUMP JUMPDEST PUSH1 0x0 PUSH2 0x1123 PUSH1 0x19 DUP4 PUSH2 0xD14 JUMP JUMPDEST SWAP2 POP PUSH2 0x112E DUP3 PUSH2 0x10ED JUMP JUMPDEST PUSH1 0x20 DUP3 ADD SWAP1 POP SWAP2 SWAP1 POP JUMP JUMPDEST PUSH1 0x0 PUSH1 0x20 DUP3 ADD SWAP1 POP DUP2 DUP2 SUB PUSH1 0x0 DUP4 ADD MSTORE PUSH2 0x1152 DUP2 PUSH2 0x1116 JUMP JUMPDEST SWAP1 POP SWAP2 SWAP1 POP JUMP JUMPDEST PUSH32 0x4E487B7100000000000000000000000000000000000000000000000000000000 PUSH1 0x0 MSTORE PUSH1 0x32 PUSH1 0x4 MSTORE PUSH1 0x24 PUSH1 0x0 REVERT JUMPDEST PUSH32 0x4E487B7100000000000000000000000000000000000000000000000000000000 PUSH1 0x0 MSTORE PUSH1 0x12 PUSH1 0x4 MSTORE PUSH1 0x24 PUSH1 0x0 REVERT JUMPDEST PUSH32 0x4E487B7100000000000000000000000000000000000000000000000000000000 PUSH1 0x0 MSTORE PUSH1 0x11 PUSH1 0x4 MSTORE PUSH1 0x24 PUSH1 0x0 REVERT JUMPDEST PUSH1 0x0 PUSH2 0x11F1 DUP3 PUSH2 0xBE5 JUMP JUMPDEST SWAP2 POP PUSH2 0x11FC DUP4 PUSH2 0xBE5 JUMP JUMPDEST SWAP3 POP DUP3 PUSH2 0x120C JUMPI PUSH2 0x120B PUSH2 0x1188 JUMP JUMPDEST JUMPDEST DUP3 DUP3 DIV SWAP1 POP SWAP3 SWAP2 POP POP JUMP JUMPDEST PUSH32 0x4E6F7420656E6F75676820617070726F76616C73000000000000000000000000 PUSH1 0x0 DUP3 ADD MSTORE POP JUMP JUMPDEST PUSH1 0x0 PUSH2 0x124D PUSH1 0x14 DUP4 PUSH2 0xD14 JUMP JUMPDEST SWAP2 POP PUSH2 0x1258 DUP3 PUSH2 0x1217 JUMP JUMPDEST PUSH1 0x20 DUP3 ADD SWAP1 POP SWAP2 SWAP1 POP JUMP JUMPDEST PUSH1 0x0 PUSH1 0x20 DUP3 ADD SWAP1 POP DUP2 DUP2 SUB PUSH1 0x0 DUP4 ADD MSTORE PUSH2 0x127C DUP2 PUSH2 0x1240 JUMP JUMPDEST SWAP1 POP SWAP2 SWAP1 POP JUMP JUMPDEST PUSH32 0x5265717565737420616C72656164792066696E616C697A656400000000000000 PUSH1 0x0 DUP3 ADD MSTORE POP JUMP JUMPDEST PUSH1 0x0 PUSH2 0x12B9 PUSH1 0x19 DUP4 PUSH2 0xD14 JUMP JUMPDEST SWAP2 POP PUSH2 0x12C4 DUP3 PUSH2 0x1283 JUMP JUMPDEST PUSH1 0x20 DUP3 ADD SWAP1 POP SWAP2 SWAP1 POP JUMP JUMPDEST PUSH1 0x0 PUSH1 0x20 DUP3 ADD SWAP1 POP DUP2 DUP2 SUB PUSH1 0x0 DUP4 ADD MSTORE PUSH2 0x12E8 DUP2 PUSH2 0x12AC JUMP JUMPDEST SWAP1 POP SWAP2 SWAP1 POP JUMP JUMPDEST PUSH32 0x4E487B7100000000000000000000000000000000000000000000000000000000 PUSH1 0x0 MSTORE PUSH1 0x22 PUSH1 0x4 MSTORE PUSH1 0x24 PUSH1 0x0 REVERT JUMPDEST PUSH1 0x0 PUSH1 0x2 DUP3 DIV SWAP1 POP PUSH1 0x1 DUP3 AND DUP1 PUSH2 0x1336 JUMPI PUSH1 0x7F DUP3 AND SWAP2 POP JUMPDEST PUSH1 0x20 DUP3 LT DUP2 SUB PUSH2 0x1349 JUMPI PUSH2 0x1348 PUSH2 0x12EF JUMP JUMPDEST JUMPDEST POP SWAP2 SWAP1 POP JUMP JUMPDEST PUSH1 0x0 DUP2 SWAP1 POP DUP2 PUSH1 0x0 MSTORE PUSH1 0x20 PUSH1 0x0 KECCAK256 SWAP1 POP SWAP2 SWAP1 POP JUMP JUMPDEST PUSH1 0x0 PUSH1 0x20 PUSH1 0x1F DUP4 ADD DIV SWAP1 POP SWAP2 SWAP1 POP JUMP JUMPDEST PUSH1 0x0 DUP3 DUP3 SHL SWAP1 POP SWAP3 SWAP2 POP POP JUMP JUMPDEST PUSH1 0x0 PUSH1 0x8 DUP4 MUL PUSH2 0x13B1 PUSH32 0xFFFFFFFFFFFFFFFFFFFFFFFFFFFFFFFFFFFFFFFFFFFFFFFFFFFFFFFFFFFFFFFF DUP3 PUSH2 0x1374 JUMP JUMPDEST PUSH2 0x13BB DUP7 DUP4 PUSH2 0x1374 JUMP JUMPDEST SWAP6 POP DUP1 NOT DUP5 AND SWAP4 POP DUP1 DUP7 AND DUP5 OR SWAP3 POP POP POP SWAP4 SWAP3 POP POP POP JUMP JUMPDEST PUSH1 0x0 DUP2 SWAP1 POP SWAP2 SWAP1 POP JUMP JUMPDEST PUSH1 0x0 PUSH2 0x13F8 PUSH2 0x13F3 PUSH2 0x13EE DUP5 PUSH2 0xBE5 JUMP JUMPDEST PUSH2 0x13D3 JUMP JUMPDEST PUSH2 0xBE5 JUMP JUMPDEST SWAP1 POP SWAP2 SWAP1 POP JUMP JUMPDEST PUSH1 0x0 DUP2 SWAP1 POP SWAP2 SWAP1 POP JUMP JUMPDEST PUSH2 0x1412 DUP4 PUSH2 0x13DD JUMP JUMPDEST PUSH2 0x1426 PUSH2 0x141E DUP3 PUSH2 0x13FF JUMP JUMPDEST DUP5 DUP5 SLOAD PUSH2 0x1381 JUMP JUMPDEST DUP3 SSTORE POP POP POP POP JUMP JUMPDEST PUSH1 0x0 SWAP1 JUMP JUMPDEST PUSH2 0x143B PUSH2 0x142E JUMP JUMPDEST PUSH2 0x1446 DUP2 DUP5 DUP5 PUSH2 0x1409 JUMP JUMPDEST POP POP POP JUMP JUMPDEST JUMPDEST DUP2 DUP2 LT ISZERO PUSH2 0x146A JUMPI PUSH2 0x145F PUSH1 0x0 DUP3 PUSH2 0x1433 JUMP JUMPDEST PUSH1 0x1 DUP2 ADD SWAP1 POP PUSH2 0x144C JUMP JUMPDEST POP POP JUMP JUMPDEST PUSH1 0x1F DUP3 GT ISZERO PUSH2 0x14AF JUMPI PUSH2 0x1480 DUP2 PUSH2 0x134F JUMP JUMPDEST PUSH2 0x1489 DUP5 PUSH2 0x1364 JUMP JUMPDEST DUP2 ADD PUSH1 0x20 DUP6 LT ISZERO PUSH2 0x1498 JUMPI DUP2 SWAP1 POP JUMPDEST PUSH2 0x14AC PUSH2 0x14A4 DUP6 PUSH2 0x1364 JUMP JUMPDEST DUP4 ADD DUP3 PUSH2 0x144B JUMP JUMPDEST POP POP JUMPDEST POP POP POP JUMP JUMPDEST PUSH1 0x0 DUP3 DUP3 SHR SWAP1 POP SWAP3 SWAP2 POP POP JUMP JUMPDEST PUSH1 0x0 PUSH2 0x14D2 PUSH1 0x0 NOT DUP5 PUSH1 0x8 MUL PUSH2 0x14B4 JUMP JUMPDEST NOT DUP1 DUP4 AND SWAP2 POP POP SWAP3 SWAP2 POP POP JUMP JUMPDEST PUSH1 0x0 PUSH2 0x14EB DUP4 DUP4 PUSH2 0x14C1 JUMP JUMPDEST SWAP2 POP DUP3 PUSH1 0x2 MUL DUP3 OR SWAP1 POP SWAP3 SWAP2 POP POP JUMP JUMPDEST PUSH2 0x1504 DUP3 PUSH2 0xD09 JUMP JUMPDEST PUSH8 0xFFFFFFFFFFFFFFFF DUP2 GT ISZERO PUSH2 0x151D JUMPI PUSH2 0x151C PUSH2 0xF27 JUMP JUMPDEST JUMPDEST PUSH2 0x1527 DUP3 SLOAD PUSH2 0x131E JUMP JUMPDEST PUSH2 0x1532 DUP3 DUP3 DUP6 PUSH2 0x146E JUMP JUMPDEST PUSH1 0x0 PUSH1 0x20 SWAP1 POP PUSH1 0x1F DUP4 GT PUSH1 0x1 DUP2 EQ PUSH2 0x1565 JUMPI PUSH1 0x0 DUP5 ISZERO PUSH2 0x1553 JUMPI DUP3 DUP8 ADD MLOAD SWAP1 POP JUMPDEST PUSH2 0x155D DUP6 DUP3 PUSH2 0x14DF JUMP JUMPDEST DUP7 SSTORE POP PUSH2 0x15C5 JUMP JUMPDEST PUSH1 0x1F NOT DUP5 AND PUSH2 0x1573 DUP7 PUSH2 0x134F JUMP JUMPDEST PUSH1 0x0 JUMPDEST DUP3 DUP2 LT ISZERO PUSH2 0x159B JUMPI DUP5 DUP10 ADD MLOAD DUP3 SSTORE PUSH1 0x1 DUP3 ADD SWAP2 POP PUSH1 0x20 DUP6 ADD SWAP5 POP PUSH1 0x20 DUP2 ADD SWAP1 POP PUSH2 0x1576 JUMP JUMPDEST DUP7 DUP4 LT ISZERO PUSH2 0x15B8 JUMPI DUP5 DUP10 ADD MLOAD PUSH2 0x15B4 PUSH1 0x1F DUP10 AND DUP3 PUSH2 0x14C1 JUMP JUMPDEST DUP4 SSTORE POP JUMPDEST PUSH1 0x1 PUSH1 0x2 DUP9 MUL ADD DUP9 SSTORE POP POP POP JUMPDEST POP POP POP POP POP POP JUMP JUMPDEST PUSH32 0x4D696E696D756D20636F6E747269627574696F6E206973206E6F74206D617463 PUSH1 0x0 DUP3 ADD MSTORE PUSH32 0x6865640000000000000000000000000000000000000000000000000000000000 PUSH1 0x20 DUP3 ADD MSTORE POP JUMP JUMPDEST PUSH1 0x0 PUSH2 0x1629 PUSH1 0x23 DUP4 PUSH2 0xD14 JUMP JUMPDEST SWAP2 POP PUSH2 0x1634 DUP3 PUSH2 0x15CD JUMP JUMPDEST PUSH1 0x40 DUP3 ADD SWAP1 POP SWAP2 SWAP1 POP JUMP JUMPDEST PUSH1 0x0 PUSH1 0x20 DUP3 ADD SWAP1 POP DUP2 DUP2 SUB PUSH1 0x0 DUP4 ADD MSTORE PUSH2 0x1658 DUP2 PUSH2 0x161C JUMP JUMPDEST SWAP1 POP SWAP2 SWAP1 POP JUMP JUMPDEST PUSH1 0x0 PUSH2 0x166A DUP3 PUSH2 0xBE5 JUMP JUMPDEST SWAP2 POP PUSH32 0xFFFFFFFFFFFFFFFFFFFFFFFFFFFFFFFFFFFFFFFFFFFFFFFFFFFFFFFFFFFFFFFF DUP3 SUB PUSH2 0x169C JUMPI PUSH2 0x169B PUSH2 0x11B7 JUMP JUMPDEST JUMPDEST PUSH1 0x1 DUP3 ADD SWAP1 POP SWAP2 SWAP1 POP JUMP INVALID LOG2 PUSH5 0x6970667358 0x22 SLT KECCAK256 0xDD XOR 0x5F 0xE2 CODECOPY PUSH6 0x7FBA842FC79D PUSH21 0x308A0EBA45F0860174FCEFA9B776BCF7FB24B16473 PUSH16 0x6C63430008130033A264697066735822 SLT KECCAK256 SLT PUSH31 0xD0A66ECE9E2911931C843ACDA93BE6D45218334E8B5F756253D81E9A9BA264 PUSH20 0x6F6C634300081300330000000000000000000000 "},"gasEstimates":{"creation":{"codeDepositCost":"1890600","executionCost":"1998","totalCost":"1892598"},"external":{"createCampaign(uint256,string,string)":"infinite","deployedCampaigns(uint256)":"4934","getDeployedCampaigns()":"infinite"}},"methodIdentifiers":{"createCampaign(uint256,string,string)":"fad4dee3","deployedCampaigns(uint256)":"339d50a5","getDeployedCampaigns()":"4acb9d4f"}},"storageLayout":{"storage":[{"astId":4,"contract":"Campaign.sol:CampaignFactory","label":"deployedCampaigns","offset":0,"slot":"0","type":"t_array(t_address)dyn_storage"}],"types":{"t_address":{"encoding":"inplace","label":"address","numberOfBytes":"20"},"t_array(t_address)dyn_storage":{"base":"t_address","encoding":"dynamic_array","label":"address[]","numberOfBytes":"32"}}},"userdoc":{"kind":"user","methods":{},"version":1}}